02RETORNO01COBRANCA       1202500017727X284723SINDICATO DOS EMPREGADOS DE ED001BANCO DO BRASIL0402100001605                      000001605201093102                                                                                                                                                                                                                                                       000001
100000000000000001202500017727X284723                         28472300005410000001   027000000 0000000000 1806040210          28472300005410000001000000000000002277723701340000502100000500000000000000000000000000000000000000000000000000000000000000000000000000022777000000000000000000000000000000000000000000000002227720000000000000          0000000000000000000000000000000000000000000000000010000002
100000000000000001202500017727X284723                         28472300013510000001   027000000 0000000000 1806040210          28472300013510000001000000000000002792534104400000502100000500000000000000000000000000000000000000000000000000000000000000000000000000027925000000000000000000000000000000000000000000000002742520000000000000          0000000000000000000000000000000000000000000000000010000003
100000000000000001202500017727X284723                         28472300036410000001   027000000 0000000000 1806040210          28472300036410000001000000000000000587934106600000502100000500000000000000000000000000000000000000000000000000000000000000000000000000005879000000000000000000000000000000000000000000000000537920000000000000          0000000000000000000000000000000000000000000000000010000004
100000000000000001202500017727X284723                         28472300038010000001   027000000 0000000000 1806040210          28472300038010000001000000000000000587934106600000502100000500000000000000000000000000000000000000000000000000000000000000000000000000005879000000000000000000000000000000000000000000000000537920000000000000          0000000000000000000000000000000000000000000000000010000005
100000000000000001202500017727X284723                         28472300041010000001   027000000 0000000000 1806040210          28472300041010000001000000000000002253623702000000502100000500000000000000000000000000000000000000000000000000000000000000000000000000022536000000000000000000000000000000000000000000000002203620000000000000          0000000000000000000000000000000000000000000000000010000006
100000000000000001202500017727X284723                         28472300060710000001   027000000 0000000000 1806040210          28472300060710000001000000000000002817034174810000502100000500000000000000000000000000000000000000000000000000000000000000000000000000028170000000000000000000000000000000000000000000000002767020000000000000          0000000000000000000000000000000000000000000000000010000007
100000000000000001202500017727X284723                         28472300111510000001   027000000 0000000000 1806040210          28472300111510000001000000000000000587940904770000502100000500000000000000000000000000000000000000000000000000000000000000000000000000005879000000000000000000000000000000000000000000000000537920000000000000          0000000000000000000000000000000000000000000000000010000008
100000000000000001202500017727X284723                         28472300118210000001   027000000 0000000000 1806040210          28472300118210000001000000000000005975940900980000502100000500000000000000000000000000000000000000000000000000000000000000000000000000059759000000000000000000000000000000000000000000000005925920000000000000          0000000000000000000000000000000000000000000000000010000009
100000000000000001202500017727X284723                         28472300120410000001   027000000 0000000000 1806040210          28472300120410000001000000000000000538834104400000502100000500000000000000000000000000000000000000000000000000000000000000000000000000005388000000000000000000000000000000000000000000000000488820000000000000          0000000000000000000000000000000000000000000000000010000010
100000000000000001202500017727X284723                         28472300125510000001   027000000 0000000000 1806040210          28472300125510000001000000000000001714403302360000502100000500000000000000000000000000000000000000000000000000000000000000000000000000017144000000000000000000000000000000000000000000000001664420000000000000          0000000000000000000000000000000000000000000000000010000011
100000000000000001202500017727X284723                         28472300126310000001   027000000 0000000000 1806040210          28472300126310000001000000000000005608534103680000502100000500000000000000000000000000000000000000000000000000000000000000000000000000056085000000000000000000000000000000000000000000000005558520000000000000          0000000000000000000000000000000000000000000000000010000012
100000000000000001202500017727X284723                         28472300159X10000001   027000000 0000000000 1806040210          28472300159X10000001000000000000002253203321780000502100000500000000000000000000000000000000000000000000000000000000000000000000000000022532000000000000000000000000000000000000000000000002203220000000000000          0000000000000000000000000000000000000000000000000010000013
100000000000000001202500017727X284723                         28472300161110000001   027000000 0000000000 1806040210          28472300161110000001000000000000002253203321780000502100000500000000000000000000000000000000000000000000000000000000000000000000000000022532000000000000000000000000000000000000000000000002203220000000000000          0000000000000000000000000000000000000000000000000010000014
100000000000000001202500017727X284723                         28472300173510000001   027000000 0000000000 1806040210          28472300173510000001000000000000003355934102850000502100000500000000000000000000000000000000000000000000000000000000000000000000000000033559000000000000000000000000000000000000000000000003305920000000000000          0000000000000000000000000000000000000000000000000010000015
100000000000000001202500017727X284723                         28472300199910000001   027000000 0000000000 1806040210          28472300199910000001000000000000000587923717880000502100000500000000000000000000000000000000000000000000000000000000000000000000000000005879000000000000000000000000000000000000000000000000537920000000000000          0000000000000000000000000000000000000000000000000010000016
100000000000000001202500017727X284723                         28472300220010000001   027000000 0000000000 1806040210          28472300220010000001000000000000003355334107450000502100000500000000000000000000000000000000000000000000000000000000000000000000000000033553000000000000000000000000000000000000000000000003305320000000000000          0000000000000000000000000000000000000000000000000010000017
100000000000000001202500017727X284723                         28472300236710000001   027000000 0000000000 1806040210          28472300236710000001000000000000001077634107450000502100000500000000000000000000000000000000000000000000000000000000000000000000000000010776000000000000000000000000000000000000000000000001027620000000000000          0000000000000000000000000000000000000000000000000010000018
100000000000000001202500017727X284723                         28472300240510000001   027000000 0000000000 1806040210          28472300240510000001000000000000003404334102370000502100000500000000000000000000000000000000000000000000000000000000000000000000000000034043000000000000000000000000000000000000000000000003354320000000000000          0000000000000000000000000000000000000000000000000010000019
100000000000000001202500017727X284723                         28472300246410000001   027000000 0000000000 1806040210          28472300246410000001000000000000000587923703010000502100000500000000000000000000000000000000000000000000000000000000000000000000000000005879000000000000000000000000000000000000000000000000537920000000000000          0000000000000000000000000000000000000000000000000010000020
100000000000000001202500017727X284723                         28472300269310000001   027000000 0000000000 1806040210          28472300269310000001000000000000000563310410070000502100000500000000000000000000000000000000000000000000000000000000000000000000000000005633000000000000000000000000000000000000000000000000513320000000000000          0000000000000000000000000000000000000000000000000010000021
100000000000000001202500017727X284723                         28472300275810000001   027000000 0000000000 1806040210          28472300275810000001000000000000002816523737790000502100000500000000000000000000000000000000000000000000000000000000000000000000000000028165000000000000000000000000000000000000000000000002766520000000000000          0000000000000000000000000000000000000000000000000010000022
100000000000000001202500017727X284723                         28472300305310000001   027000000 0000000000 1806040210          28472300305310000001000000000000001151334103330000502100000500000000000000000000000000000000000000000000000000000000000000000000000000011513000000000000000000000000000000000000000000000001101320000000000000          0000000000000000000000000000000000000000000000000010000023
100000000000000001202500017727X284723                         28472300310X10000001   027000000 0000000000 1806040210          28472300310X10000001000000000000000538923701170000502100000500000000000000000000000000000000000000000000000000000000000000000000000000005389000000000000000000000000000000000000000000000000488920000000000000          0000000000000000000000000000000000000000000000000010000024
100000000000000001202500017727X284723                         28472300347910000001   027000000 0000000000 1806040210          28472300347910000001000000000000002792034104280000502100000500000000000000000000000000000000000000000000000000000000000000000000000000027920000000000000000000000000000000000000000000000002742020000000000000          0000000000000000000000000000000000000000000000000010000025
100000000000000001202500017727X284723                         28472300348710000001   027000000 0000000000 1806040210          28472300348710000001000000000000002278134106170000502100000500000000000000000000000000000000000000000000000000000000000000000000000000022781000000000000000000000000000000000000000000000002228120000000000000          0000000000000000000000000000000000000000000000000010000026
100000000000000001202500017727X284723                         28472300354110000001   027000000 0000000000 1806040210          28472300354110000001000000000000005560534107370000502100000500000000000000000000000000000000000000000000000000000000000000000000000000055605000000000000000000000000000000000000000000000005510520000000000000          0000000000000000000000000000000000000000000000000010000027
100000000000000001202500017727X284723                         28472300355X10000001   027000000 0000000000 1806040210          28472300355X10000001000000000000002767503321780000502100000500000000000000000000000000000000000000000000000000000000000000000000000000027675000000000000000000000000000000000000000000000002717520000000000000          0000000000000000000000000000000000000000000000000010000028
100000000000000001202500017727X284723                         28472300358410000001   027000000 0000000000 1806040210          28472300358410000001000000000000002816534104280000502100000500000000000000000000000000000000000000000000000000000000000000000000000000028165000000000000000000000000000000000000000000000002766520000000000000          0000000000000000000000000000000000000000000000000010000029
100000000000000001202500017727X284723                         28472300361410000001   027000000 0000000000 1806040210          28472300361410000001000000000000004432903321780000502100000500000000000000000000000000000000000000000000000000000000000000000000000000044329000000000000000000000000000000000000000000000004382920000000000000          0000000000000000000000000000000000000000000000000010000030
100000000000000001202500017727X284723                         28472300377010000001   027000000 0000000000 1806040210          28472300377010000001000000000000000538834102370000502100000500000000000000000000000000000000000000000000000000000000000000000000000000005388000000000000000000000000000000000000000000000000488820000000000000          0000000000000000000000000000000000000000000000000010000031
100000000000000001202500017727X284723                         28472300385110000001   027000000 0000000000 1806040210          28472300385110000001000000000000003379834102370000502100000500000000000000000000000000000000000000000000000000000000000000000000000000033798000000000000000000000000000000000000000000000003329820000000000000          0000000000000000000000000000000000000000000000000010000032
100000000000000001202500017727X284723                         28472300395910000001   027000000 0000000000 1806040210          28472300395910000001000000000000002792523729760000502100000500000000000000000000000000000000000000000000000000000000000000000000000000027925000000000000000000000000000000000000000000000002742520000000000000          0000000000000000000000000000000000000000000000000010000033
100000000000000001202500017727X284723                         28472300397510000001   027000000 0000000000 1806040210          28472300397510000001000000000000001665634100720000502100000500000000000000000000000000000000000000000000000000000000000000000000000000016656000000000000000000000000000000000000000000000001615620000000000000          0000000000000000000000000000000000000000000000000010000034
100000000000000001202500017727X284723                         28472300419X10000001   027000000 0000000000 1806040210          28472300419X10000001000000000000004482734101770000502100000500000000000000000000000000000000000000000000000000000000000000000000000000044827000000000000000000000000000000000000000000000004432720000000000000          0000000000000000000000000000000000000000000000000010000035
100000000000000001202500017727X284723                         28472300427010000001   027000000 0000000000 1806040210          28472300427010000001000000000000002229134174810000502100000500000000000000000000000000000000000000000000000000000000000000000000000000022291000000000000000000000000000000000000000000000002179120000000000000          0000000000000000000000000000000000000000000000000010000036
100000000000000001202500017727X284723                         28472300432710000001   027000000 0000000000 1806040210          28472300432710000001000000000000003355334108450000502100000500000000000000000000000000000000000000000000000000000000000000000000000000033553000000000000000000000000000000000000000000000003305320000000000000          0000000000000000000000000000000000000000000000000010000037
100000000000000001202500017727X284723                         28472300443210000001   027000000 0000000000 1806040210          28472300443210000001000000000000000587923703010000502100000500000000000000000000000000000000000000000000000000000000000000000000000000005879000000000000000000000000000000000000000000000000537920000000000000          0000000000000000000000000000000000000000000000000010000038
100000000000000001202500017727X284723                         28472300452110000001   027000000 0000000000 1806040210          28472300452110000001000000000000000563403301560000502100000500000000000000000000000000000000000000000000000000000000000000000000000000005634000000000000000000000000000000000000000000000000513420000000000000          0000000000000000000000000000000000000000000000000010000039
100000000000000001202500017727X284723                         28472300494710000001   027000000 0000000000 1806040210          28472300494710000001000000000000002228723701310000502100000500000000000000000000000000000000000000000000000000000000000000000000000000022287000000000000000000000000000000000000000000000002178720000000000000          0000000000000000000000000000000000000000000000000010000040
100000000000000001202500017727X284723                         28472300514510000001   027000000 0000000000 1806040210          28472300514510000001000000000000001126834129230000502100000500000000000000000000000000000000000000000000000000000000000000000000000000011268000000000000000000000000000000000000000000000001076820000000000000          0000000000000000000000000000000000000000000000000010000041
100000000000000001202500017727X284723                         28472300515310000001   027000000 0000000000 1806040210          28472300515310000001000000000000004482534104400000502100000500000000000000000000000000000000000000000000000000000000000000000000000000044825000000000000000000000000000000000000000000000004432520000000000000          0000000000000000000000000000000000000000000000000010000042
100000000000000001202500017727X284723                         28472300516110000001   027000000 0000000000 1806040210          28472300516110000001000000000000003380434129230000502100000500000000000000000000000000000000000000000000000000000000000000000000000000033804000000000000000000000000000000000000000000000003330420000000000000          0000000000000000000000000000000000000000000000000010000043
100000000000000001202500017727X284723                         28472300517X10000001   027000000 0000000000 1806040210          28472300517X10000001000000000000003919334129230000502100000500000000000000000000000000000000000000000000000000000000000000000000000000039193000000000000000000000000000000000000000000000003869320000000000000          0000000000000000000000000000000000000000000000000010000044
100000000000000001202500017727X284723                         28472300520X10000001   027000000 0000000000 1806040210          28472300520X10000001000000000000005585034129230000502100000500000000000000000000000000000000000000000000000000000000000000000000000000055850000000000000000000000000000000000000000000000005535020000000000000          0000000000000000000000000000000000000000000000000010000045
100000000000000001202500017727X284723                         28472300527710000001   027000000 0000000000 1806040210          28472300527710000001000000000000001077823726880000502100000500000000000000000000000000000000000000000000000000000000000000000000000000010778000000000000000000000000000000000000000000000001027820000000000000          0000000000000000000000000000000000000000000000000010000046
100000000000000001202500017727X284723                         28472300561710000001   027000000 0000000000 1806040210          28472300561710000001000000000000000563440901200000502100000500000000000000000000000000000000000000000000000000000000000000000000000000005634000000000000000000000000000000000000000000000000513420000000000000          0000000000000000000000000000000000000000000000000010000047
100000000000000001202500017727X284723                         28472300568410000001   027000000 0000000000 1806040210          28472300568410000001000000000000002817034103670000502100000500000000000000000000000000000000000000000000000000000000000000000000000000028170000000000000000000000000000000000000000000000002767020000000000000          0000000000000000000000000000000000000000000000000010000048
100000000000000001202500017727X284723                         28472300575710000001   027000000 0000000000 1806040210          28472300575710000001000000000000003919323714430000502100000500000000000000000000000000000000000000000000000000000000000000000000000000039193000000000000000000000000000000000000000000000003869320000000000000          0000000000000000000000000000000000000000000000000010000049
100000000000000001202500017727X284723                         28472300594310000001   027000000 0000000000 1806040210          28472300594310000001000000000000004997135605620000502100000500000000000000000000000000000000000000000000000000000000000000000000000000049971000000000000000000000000000000000000000000000004947120000000000000          0000000000000000000000000000000000000000000000000010000050
100000000000000001202500017727X284723                         28472300597810000001   027000000 0000000000 1806040210          28472300597810000001000000000000003894803321780000502100000500000000000000000000000000000000000000000000000000000000000000000000000000038948000000000000000000000000000000000000000000000003844820000000000000          0000000000000000000000000000000000000000000000000010000051
100000000000000001202500017727X284723                         28472300601X10000001   027000000 0000000000 1806040210          28472300601X10000001000000000000003355923714450000502100000500000000000000000000000000000000000000000000000000000000000000000000000000033559000000000000000000000000000000000000000000000003305920000000000000          0000000000000000000000000000000000000000000000000010000052
100000000000000001202500017727X284723                         28472300604410000001   027000000 0000000000 1806040210          28472300604410000001000000000000002228735601360000502100000500000000000000000000000000000000000000000000000000000000000000000000000000022287000000000000000000000000000000000000000000000002178720000000000000          0000000000000000000000000000000000000000000000000010000053
100000000000000001202500017727X284723                         28472300610910000001   027000000 0000000000 1806040210          28472300610910000001000000000000003380434105930000502100000500000000000000000000000000000000000000000000000000000000000000000000000000033804000000000000000000000000000000000000000000000003330420000000000000          0000000000000000000000000000000000000000000000000010000054
100000000000000001202500017727X284723                         28472300628110000001   027000000 0000000000 1806040210          28472300628110000001000000000000000538834102370000502100000500000000000000000000000000000000000000000000000000000000000000000000000000005388000000000000000000000000000000000000000000000000488820000000000000          0000000000000000000000000000000000000000000000000010000055
100000000000000001202500017727X284723                         28472300638910000001   027000000 0000000000 1806040210          28472300638910000001000000000000000587834105530000502100000500000000000000000000000000000000000000000000000000000000000000000000000000005878000000000000000000000000000000000000000000000000537820000000000000          0000000000000000000000000000000000000000000000000010000056
100000000000000001202500017727X284723                         28472300640010000001   027000000 0000000000 1806040210          28472300640010000001000000000000000587834102370000502100000500000000000000000000000000000000000000000000000000000000000000000000000000005878000000000000000000000000000000000000000000000000537820000000000000          0000000000000000000000000000000000000000000000000010000057
100000000000000001202500017727X284723                         28472300642710000001   027000000 0000000000 1806040210          28472300642710000001000000000000005559540970070000502100000500000000000000000000000000000000000000000000000000000000000000000000000000055595000000000000000000000000000000000000000000000005509520000000000000          0000000000000000000000000000000000000000000000000010000058
100000000000000001202500017727X284723                         28472300651610000001   027000000 0000000000 1806040210          28472300651610000001000000000000001126603321780000502100000500000000000000000000000000000000000000000000000000000000000000000000000000011266000000000000000000000000000000000000000000000001076620000000000000          0000000000000000000000000000000000000000000000000010000059
100000000000000001202500017727X284723                         28472300653210000001   027000000 0000000000 1806040210          28472300653210000001000000000000000587803321780000502100000500000000000000000000000000000000000000000000000000000000000000000000000000005878000000000000000000000000000000000000000000000000537820000000000000          0000000000000000000000000000000000000000000000000010000060
100000000000000001202500017727X284723                         28472300699010000001   027000000 0000000000 1806040210          28472300699010000001000000000000001126634100670000502100000500000000000000000000000000000000000000000000000000000000000000000000000000011266000000000000000000000000000000000000000000000001076620000000000000          0000000000000000000000000000000000000000000000000010000061
100000000000000001202500017727X284723                         28472300700810000001   027000000 0000000000 1806040210          28472300700810000001000000000000003355334107450000502100000500000000000000000000000000000000000000000000000000000000000000000000000000033553000000000000000000000000000000000000000000000003305320000000000000          0000000000000000000000000000000000000000000000000010000062
100000000000000001202500017727X284723                         28472300702410000001   027000000 0000000000 1806040210          28472300702410000001000000000000002792034107450000502100000500000000000000000000000000000000000000000000000000000000000000000000000000027920000000000000000000000000000000000000000000000002742020000000000000          0000000000000000000000000000000000000000000000000010000063
100000000000000001202500017727X284723                         28472300704010000001   027000000 0000000000 1806040210          28472300704010000001000000000000001665435601360000502100000500000000000000000000000000000000000000000000000000000000000000000000000000016654000000000000000000000000000000000000000000000001615420000000000000          0000000000000000000000000000000000000000000000000010000064
100000000000000001202500017727X284723                         28472300716410000001   027000000 0000000000 1806040210          28472300716410000001000000000000000587834103540000502100000500000000000000000000000000000000000000000000000000000000000000000000000000005878000000000000000000000000000000000000000000000000537820000000000000          0000000000000000000000000000000000000000000000000010000065
100000000000000001202500017727X284723                         28472300734210000001   027000000 0000000000 1806040210          28472300734210000001000000000000010631134107540000502100000500000000000000000000000000000000000000000000000000000000000000000000000000106311000000000000000000000000000000000000000000000010581120000000000000          0000000000000000000000000000000000000000000000000010000066
100000000000000001202500017727X284723                         28472300740710000001   027000000 0000000000 1806040210          28472300740710000001000000000000003355923713630000502100000500000000000000000000000000000000000000000000000000000000000000000000000000033559000000000000000000000000000000000000000000000003305920000000000000          0000000000000000000000000000000000000000000000000010000067
100000000000000001202500017727X284723                         28472300741510000001   027000000 0000000000 1806040210          28472300741510000001000000000000001126634102370000502100000500000000000000000000000000000000000000000000000000000000000000000000000000011266000000000000000000000000000000000000000000000001076620000000000000          0000000000000000000000000000000000000000000000000010000068
100000000000000001202500017727X284723                         28472300758X10000001   027000000 0000000000 1806040210          28472300758X10000001000000000000001126634101730000502100000500000000000000000000000000000000000000000000000000000000000000000000000000011266000000000000000000000000000000000000000000000001076620000000000000          0000000000000000000000000000000000000000000000000010000069
100000000000000001202500017727X284723                         28472300766010000001   027000000 0000000000 1806040210          28472300766010000001000000000000002278123701140000502100000500000000000000000000000000000000000000000000000000000000000000000000000000022781000000000000000000000000000000000000000000000002228120000000000000          0000000000000000000000000000000000000000000000000010000070
100000000000000001202500017727X284723                         28472300779210000001   027000000 0000000000 1806040210          28472300779210000001000000000000002816534102370000502100000500000000000000000000000000000000000000000000000000000000000000000000000000028165000000000000000000000000000000000000000000000002766520000000000000          0000000000000000000000000000000000000000000000000010000071
100000000000000001202500017727X284723                         28472300787310000001   027000000 0000000000 1806040210          28472300787310000001000000000000002253634106170000502100000500000000000000000000000000000000000000000000000000000000000000000000000000022536000000000000000000000000000000000000000000000002203620000000000000          0000000000000000000000000000000000000000000000000010000072
100000000000000001202500017727X284723                         28472300794610000001   027000000 0000000000 1806040210          28472300794610000001000000000000003379834101730000502100000500000000000000000000000000000000000000000000000000000000000000000000000000033798000000000000000000000000000000000000000000000003329820000000000000          0000000000000000000000000000000000000000000000000010000073
100000000000000001202500017727X284723                         28472300796210000001   027000000 0000000000 1806040210          28472300796210000001000000000000001690234107370000502100000500000000000000000000000000000000000000000000000000000000000000000000000000016902000000000000000000000000000000000000000000000001640220000000000000          0000000000000000000000000000000000000000000000000010000074
100000000000000001202500017727X284723                         28472300802010000001   027000000 0000000000 1806040210          28472300802010000001000000000000000563334102370000502100000500000000000000000000000000000000000000000000000000000000000000000000000000005633000000000000000000000000000000000000000000000000513320000000000000          0000000000000000000000000000000000000000000000000010000075
100000000000000001202500017727X284723                         28472300803910000001   027000000 0000000000 1806040210          28472300803910000001000000000000004481903320080000502100000500000000000000000000000000000000000000000000000000000000000000000000000000044819000000000000000000000000000000000000000000000004431920000000000000          0000000000000000000000000000000000000000000000000010000076
100000000000000001202500017727X284723                         28472300807110000001   027000000 0000000000 1806040210          28472300807110000001000000000000002816534102370000502100000500000000000000000000000000000000000000000000000000000000000000000000000000028165000000000000000000000000000000000000000000000002766520000000000000          0000000000000000000000000000000000000000000000000010000077
100000000000000001202500017727X284723                         28472300818710000001   027000000 0000000000 1806040210          28472300818710000001000000000000003355334102370000502100000500000000000000000000000000000000000000000000000000000000000000000000000000033553000000000000000000000000000000000000000000000003305320000000000000          0000000000000000000000000000000000000000000000000010000078
100000000000000001202500017727X284723                         28472300832210000001   027000000 0000000000 1806040210          28472300832210000001000000000000004384740904110000502100000500000000000000000000000000000000000000000000000000000000000000000000000000043847000000000000000000000000000000000000000000000004334720000000000000          0000000000000000000000000000000000000000000000000010000079
100000000000000001202500017727X284723                         28472300835710000001   027000000 0000000000 1806040210          28472300835710000001000000000000001665734129230000502100000500000000000000000000000000000000000000000000000000000000000000000000000000016657000000000000000000000000000000000000000000000001615720000000000000          0000000000000000000000000000000000000000000000000010000080
100000000000000001202500017727X284723                         28472300853510000001   027000000 0000000000 1806040210          28472300853510000001000000000000000587934104400000502100000500000000000000000000000000000000000000000000000000000000000000000000000000005879000000000000000000000000000000000000000000000000537920000000000000          0000000000000000000000000000000000000000000000000010000081
100000000000000001202500017727X284723                         28472300864010000001   027000000 0000000000 1806040210          28472300864010000001000000000000002228734102370000502100000500000000000000000000000000000000000000000000000000000000000000000000000000022287000000000000000000000000000000000000000000000002178720000000000000          0000000000000000000000000000000000000000000000000010000082
100000000000000001202500017727X284723                         28472300891810000001   027000000 0000000000 1806040210          28472300891810000001000000000000000587934101730000502100000500000000000000000000000000000000000000000000000000000000000000000000000000005879000000000000000000000000000000000000000000000000537920000000000000          0000000000000000000000000000000000000000000000000010000083
100000000000000001202500017727X284723                         28472300913210000001   027000000 0000000000 1806040210          28472300913210000001000000000000006147334102370000502100000500000000000000000000000000000000000000000000000000000000000000000000000000061473000000000000000000000000000000000000000000000006097320000000000000          0000000000000000000000000000000000000000000000000010000084
100000000000000001202500017727X284723                         28472300920510000001   027000000 0000000000 1806040210          28472300920510000001000000000000004482734107480000502100000500000000000000000000000000000000000000000000000000000000000000000000000000044827000000000000000000000000000000000000000000000004432720000000000000          0000000000000000000000000000000000000000000000000010000085
100000000000000001202500017727X284723                         28472300959010000001   027000000 0000000000 1806040210          28472300959010000001000000000000002767523702970000502100000500000000000000000000000000000000000000000000000000000000000000000000000000027675000000000000000000000000000000000000000000000002717520000000000000          0000000000000000000000000000000000000000000000000010000086
100000000000000001202500017727X284723                         28472300971X10000001   027000000 0000000000 1806040210          28472300971X10000001000000000000001077603307330000502100000500000000000000000000000000000000000000000000000000000000000000000000000000010776000000000000000000000000000000000000000000000001027620000000000000          0000000000000000000000000000000000000000000000000010000087
100000000000000001202500017727X284723                         28472300987610000001   027000000 0000000000 1806040210          28472300987610000001000000000000000587934101740000502100000500000000000000000000000000000000000000000000000000000000000000000000000000005879000000000000000000000000000000000000000000000000537920000000000000          0000000000000000000000000000000000000000000000000010000088
100000000000000001202500017727X284723                         28472300991410000001   027000000 0000000000 1806040210          28472300991410000001000000000000000587934107750000502100000500000000000000000000000000000000000000000000000000000000000000000000000000005879000000000000000000000000000000000000000000000000537920000000000000          0000000000000000000000000000000000000000000000000010000089
100000000000000001202500017727X284723                         28472301012210000001   027000000 0000000000 1806040210          28472301012210000001000000000000000587810412300000502100000500000000000000000000000000000000000000000000000000000000000000000000000000005878000000000000000000000000000000000000000000000000537820000000000000          0000000000000000000000000000000000000000000000000010000090
100000000000000001202500017727X284723                         28472301036X10000001   027000000 0000000000 1806040210          28472301036X10000001000000000000003919334107540000502100000500000000000000000000000000000000000000000000000000000000000000000000000000039193000000000000000000000000000000000000000000000003869320000000000000          0000000000000000000000000000000000000000000000000010000091
100000000000000001202500017727X284723                         28472301038610000001   027000000 0000000000 1806040210          28472301038610000001000000000000001102134103540000502100000500000000000000000000000000000000000000000000000000000000000000000000000000011021000000000000000000000000000000000000000000000001052120000000000000          0000000000000000000000000000000000000000000000000010000092
100000000000000001202500017727X284723                         28472301044010000001   027000000 0000000000 1806040210          28472301044010000001000000000000004482723731910000502100000500000000000000000000000000000000000000000000000000000000000000000000000000044827000000000000000000000000000000000000000000000004432720000000000000          0000000000000000000000000000000000000000000000000010000093
100000000000000001202500017727X284723                         28472301081510000001   027000000 0000000000 1806040210          28472301081510000001000000000000002302234103540000502100000500000000000000000000000000000000000000000000000000000000000000000000000000023022000000000000000000000000000000000000000000000002252220000000000000          0000000000000000000000000000000000000000000000000010000094
100000000000000001202500017727X284723                         28472301085810000001   027000000 0000000000 1806040210          28472301085810000001000000000000006661634107450000502100000500000000000000000000000000000000000000000000000000000000000000000000000000066616000000000000000000000000000000000000000000000006611620000000000000          0000000000000000000000000000000000000000000000000010000095
100000000000000001202500017727X284723                         28472301097110000001   027000000 0000000000 1806040210          28472301097110000001000000000000003919334108660000502100000500000000000000000000000000000000000000000000000000000000000000000000000000039193000000000000000000000000000000000000000000000003869320000000000000          0000000000000000000000000000000000000000000000000010000096
100000000000000001202500017727X284723                         28472301109910000001   027000000 0000000000 1806040210          28472301109910000001000000000000001690223714430000502100000500000000000000000000000000000000000000000000000000000000000000000000000000016902000000000000000000000000000000000000000000000001640220000000000000          0000000000000000000000000000000000000000000000000010000097
100000000000000001202500017727X284723                         28472301126910000001   027000000 0000000000 1806040210          28472301126910000001000000000000001689934102370000502100000500000000000000000000000000000000000000000000000000000000000000000000000000016899000000000000000000000000000000000000000000000001639920000000000000          0000000000000000000000000000000000000000000000000010000098
100000000000000001202500017727X284723                         28472301154410000001   027000000 0000000000 1806040210          28472301154410000001000000000000000587835608270000502100000500000000000000000000000000000000000000000000000000000000000000000000000000005878000000000000000000000000000000000000000000000000537820000000000000          0000000000000000000000000000000000000000000000000010000099
100000000000000001202500017727X284723                         28472301155210000001   027000000 0000000000 1806040210          28472301155210000001000000000000002792534108440000502100000500000000000000000000000000000000000000000000000000000000000000000000000000027925000000000000000000000000000000000000000000000002742520000000000000          0000000000000000000000000000000000000000000000000010000100
100000000000000001202500017727X284723                         28472301174910000001   027000000 0000000000 1806040210          28472301174910000001000000000000000587923702970000502100000500000000000000000000000000000000000000000000000000000000000000000000000000005879000000000000000000000000000000000000000000000000537920000000000000          0000000000000000000000000000000000000000000000000010000101
100000000000000001202500017727X284723                         28472301176510000001   027000000 0000000000 1806040210          28472301176510000001000000000000000587934107750000502100000500000000000000000000000000000000000000000000000000000000000000000000000000005879000000000000000000000000000000000000000000000000537920000000000000          0000000000000000000000000000000000000000000000000010000102
100000000000000001202500017727X284723                         28472301199410000001   027000000 0000000000 1806040210          28472301199410000001000000000000002792023737900000502100000500000000000000000000000000000000000000000000000000000000000000000000000000027920000000000000000000000000000000000000000000000002742020000000000000          0000000000000000000000000000000000000000000000000010000103
100000000000000001202500017727X284723                         28472301201X10000001   027000000 0000000000 1806040210          28472301201X10000001000000000000001005834102850000502100000500000000000000000000000000000000000000000000000000000000000000000000000000010058000000000000000000000000000000000000000000000000955820000000000000          0000000000000000000000000000000000000000000000000010000104
100000000000000001202500017727X284723                         28472301215X10000001   027000000 0000000000 1806040210          28472301215X10000001000000000000003355310412300000502100000500000000000000000000000000000000000000000000000000000000000000000000000000033553000000000000000000000000000000000000000000000003305320000000000000          0000000000000000000000000000000000000000000000000010000105
100000000000000001202500017727X284723                         28472301236210000001   027000000 0000000000 1806040210          28472301236210000001000000000000002841534109330000502100000500000000000000000000000000000000000000000000000000000000000000000000000000028415000000000000000000000000000000000000000000000002791520000000000000          0000000000000000000000000000000000000000000000000010000106
100000000000000001202500017727X284723                         28472301284210000001   027000000 0000000000 1806040210          28472301284210000001000000000000002253234104440000502100000500000000000000000000000000000000000000000000000000000000000000000000000000022532000000000000000000000000000000000000000000000002203220000000000000          0000000000000000000000000000000000000000000000000010000107
100000000000000001202500017727X284723                         28472301320210000001   027000000 0000000000 1806040210          28472301320210000001000000000000002817023738440000502100000500000000000000000000000000000000000000000000000000000000000000000000000000028170000000000000000000000000000000000000000000000002767020000000000000          0000000000000000000000000000000000000000000000000010000108
100000000000000001202500017727X284723                         28472301338510000001   027000000 0000000000 1806040210          28472301338510000001000000000000000587934106600000502100000500000000000000000000000000000000000000000000000000000000000000000000000000005879000000000000000000000000000000000000000000000000537920000000000000          0000000000000000000000000000000000000000000000000010000109
100000000000000001202500017727X284723                         28472301393810000001   027000000 0000000000 1806040210          28472301393810000001000000000000001151134102370000502100000500000000000000000000000000000000000000000000000000000000000000000000000000011511000000000000000000000000000000000000000000000001101120000000000000          0000000000000000000000000000000000000000000000000010000110
100000000000000001202500017727X284723                         28472301427610000001   027000000 0000000000 1806040210          28472301427610000001000000000000000563334108450000502100000500000000000000000000000000000000000000000000000000000000000000000000000000005633000000000000000000000000000000000000000000000000513320000000000000          0000000000000000000000000000000000000000000000000010000111
100000000000000001202500017727X284723                         28472301435710000001   027000000 0000000000 1806040210          28472301435710000001000000000000002204203302360000502100000500000000000000000000000000000000000000000000000000000000000000000000000000022042000000000000000000000000000000000000000000000002154220000000000000          0000000000000000000000000000000000000000000000000010000112
100000000000000001202500017727X284723                         28472301444610000001   027000000 0000000000 1806040210          28472301444610000001000000000000002812834129780000502100000500000000000000000000000000000000000000000000000000000000000000000000000000028128000000000000000000000000000000000000000000000002762820000000000000          0000000000000000000000000000000000000000000000000010000113
100000000000000001202500017727X284723                         28472301446210000001   027000000 0000000000 1806040210          28472301446210000001000000000000001666834174460000502100000500000000000000000000000000000000000000000000000000000000000000000000000000016668000000000000000000000000000000000000000000000001616820000000000000          0000000000000000000000000000000000000000000000000010000114
100000000000000001202500017727X284723                         28472301453510000001   027000000 0000000000 1806040210          28472301453510000001000000000000000587934107620000502100000500000000000000000000000000000000000000000000000000000000000000000000000000005879000000000000000000000000000000000000000000000000537920000000000000          0000000000000000000000000000000000000000000000000010000115
100000000000000001202500017727X284723                         28472301455110000001   027000000 0000000000 1806040210          28472301455110000001000000000000002229040901200000502100000500000000000000000000000000000000000000000000000000000000000000000000000000022290000000000000000000000000000000000000000000000002179020000000000000          0000000000000000000000000000000000000000000000000010000116
100000000000000001202500017727X284723                         28472301472110000001   027000000 0000000000 1806040210          28472301472110000001000000000000000587834101960000502100000500000000000000000000000000000000000000000000000000000000000000000000000000005878000000000000000000000000000000000000000000000000537820000000000000          0000000000000000000000000000000000000000000000000010000117
100000000000000001202500017727X284723                         28472301483710000001   027000000 0000000000 1806040210          28472301483710000001000000000000001126839909170000502100000500000000000000000000000000000000000000000000000000000000000000000000000000011268000000000000000000000000000000000000000000000001076820000000000000          0000000000000000000000000000000000000000000000000010000118
100000000000000001202500017727X284723                         28472301485310000001   027000000 0000000000 1806040210          28472301485310000001000000000000002768034103840000502100000500000000000000000000000000000000000000000000000000000000000000000000000000027680000000000000000000000000000000000000000000000002718020000000000000          0000000000000000000000000000000000000000000000000010000119
100000000000000001202500017727X284723                         28472301490X10000001   027000000 0000000000 1806040210          28472301490X10000001000000000000002818023700990000502100000500000000000000000000000000000000000000000000000000000000000000000000000000028180000000000000000000000000000000000000000000000002768020000000000000          0000000000000000000000000000000000000000000000000010000120
100000000000000001202500017727X284723                         28472301496910000001   027000000 0000000000 1806040210          28472301496910000001000000000000002768034104110000502100000500000000000000000000000000000000000000000000000000000000000000000000000000027680000000000000000000000000000000000000000000000002718020000000000000          0000000000000000000000000000000000000000000000000010000121
100000000000000001202500017727X284723                         28472301523X10000001   027000000 0000000000 1806040210          28472301523X10000001000000000000003379834102370000502100000500000000000000000000000000000000000000000000000000000000000000000000000000033798000000000000000000000000000000000000000000000003329820000000000000          0000000000000000000000000000000000000000000000000010000122
100000000000000001202500017727X284723                         28472301525610000001   027000000 0000000000 1806040210          28472301525610000001000000000000000587934107720000502100000500000000000000000000000000000000000000000000000000000000000000000000000000005879000000000000000000000000000000000000000000000000537920000000000000          0000000000000000000000000000000000000000000000000010000123
100000000000000001202500017727X284723                         28472301531010000001   027000000 0000000000 1806040210          28472301531010000001000000000000000587834102370000502100000500000000000000000000000000000000000000000000000000000000000000000000000000005878000000000000000000000000000000000000000000000000537820000000000000          0000000000000000000000000000000000000000000000000010000124
100000000000000001202500017727X284723                         28472301552310000001   027000000 0000000000 1806040210          28472301552310000001000000000000004432910402360000502100000500000000000000000000000000000000000000000000000000000000000000000000000000044329000000000000000000000000000000000000000000000004382920000000000000          0000000000000000000000000000000000000000000000000010000125
100000000000000001202500017727X284723                         28472301562010000001   027000000 0000000000 1806040210          28472301562010000001000000000000002229134107400000502100000500000000000000000000000000000000000000000000000000000000000000000000000000022291000000000000000000000000000000000000000000000002179120000000000000          0000000000000000000000000000000000000000000000000010000126
100000000000000001202500017727X284723                         28472301580910000001   027000000 0000000000 1806040210          28472301580910000001000000000000003943634100660000502100000500000000000000000000000000000000000000000000000000000000000000000000000000039436000000000000000000000000000000000000000000000003893620000000000000          0000000000000000000000000000000000000000000000000010000127
100000000000000001202500017727X284723                         28472301597310000001   027000000 0000000000 1806040210          28472301597310000001000000000000002792103321780000502100000500000000000000000000000000000000000000000000000000000000000000000000000000027921000000000000000000000000000000000000000000000002742120000000000000          0000000000000000000000000000000000000000000000000010000128
100000000000000001202500017727X284723                         28472301631710000001   027000000 0000000000 1806040210          28472301631710000001000000000000003380434174810000502100000500000000000000000000000000000000000000000000000000000000000000000000000000033804000000000000000000000000000000000000000000000003330420000000000000          0000000000000000000000000000000000000000000000000010000129
100000000000000001202500017727X284723                         28472301640610000001   027000000 0000000000 1806040210          28472301640610000001000000000000001126823737900000502100000500000000000000000000000000000000000000000000000000000000000000000000000000011268000000000000000000000000000000000000000000000001076820000000000000          0000000000000000000000000000000000000000000000000010000130
100000000000000001202500017727X284723                         28472301665110000001   027000000 0000000000 1806040210          28472301665110000001000000000000002792703321780000502100000500000000000000000000000000000000000000000000000000000000000000000000000000027927000000000000000000000000000000000000000000000002742720000000000000          0000000000000000000000000000000000000000000000000010000131
100000000000000001202500017727X284723                         28472301666X10000001   027000000 0000000000 1806040210          28472301666X10000001000000000000000587834100810000502100000500000000000000000000000000000000000000000000000000000000000000000000000000005878000000000000000000000000000000000000000000000000537820000000000000          0000000000000000000000000000000000000000000000000010000132
100000000000000001202500017727X284723                         28472301667810000001   027000000 0000000000 1806040210          28472301667810000001000000000000002253640971170000502100000500000000000000000000000000000000000000000000000000000000000000000000000000022536000000000000000000000000000000000000000000000002203620000000000000          0000000000000000000000000000000000000000000000000010000133
100000000000000001202500017727X284723                         28472301668610000001   027000000 0000000000 1806040210          28472301668610000001000000000000000684015103900000502100000500000000000000000000000000000000000000000000000000000000000000000000000000006840000000000000000000000000000000000000000000000000634020000000000000          0000000000000000000000000000000000000000000000000010000134
100000000000000001202500017727X284723                         28472301670810000001   027000000 0000000000 1806040210          28472301670810000001000000000000001714715103900000502100000500000000000000000000000000000000000000000000000000000000000000000000000000017147000000000000000000000000000000000000000000000001664720000000000000          0000000000000000000000000000000000000000000000000010000135
100000000000000001202500017727X284723                         28472301674010000001   027000000 0000000000 1806040210          28472301674010000001000000000000000587923701140000502100000500000000000000000000000000000000000000000000000000000000000000000000000000005879000000000000000000000000000000000000000000000000537920000000000000          0000000000000000000000000000000000000000000000000010000136
100000000000000001202500017727X284723                         28472301675910000001   027000000 0000000000 1806040210          28472301675910000001000000000000002817023701140000502100000500000000000000000000000000000000000000000000000000000000000000000000000000028170000000000000000000000000000000000000000000000002767020000000000000          0000000000000000000000000000000000000000000000000010000137
100000000000000001202500017727X284723                         28472301677510000001   027000000 0000000000 1806040210          28472301677510000001000000000000000587803321780000502100000500000000000000000000000000000000000000000000000000000000000000000000000000005878000000000000000000000000000000000000000000000000537820000000000000          0000000000000000000000000000000000000000000000000010000138
100000000000000001202500017727X284723                         28472301681310000001   027000000 0000000000 1806040210          28472301681310000001000000000000000587940971170000502100000500000000000000000000000000000000000000000000000000000000000000000000000000005879000000000000000000000000000000000000000000000000537920000000000000          0000000000000000000000000000000000000000000000000010000139
100000000000000001202500017727X284723                         28472301683X10000001   027000000 0000000000 1806040210          28472301683X10000001000000000000002253235601360000502100000500000000000000000000000000000000000000000000000000000000000000000000000000022532000000000000000000000000000000000000000000000002203220000000000000          0000000000000000000000000000000000000000000000000010000140
100000000000000001202500017727X284723                         28472301686410000001   027000000 0000000000 1806040210          28472301686410000001000000000000002228703321780000502100000500000000000000000000000000000000000000000000000000000000000000000000000000022287000000000000000000000000000000000000000000000002178720000000000000          0000000000000000000000000000000000000000000000000010000141
100000000000000001202500017727X284723                         28472301714310000001   027000000 0000000000 1806040210          28472301714310000001000000000000000538823737790000502100000500000000000000000000000000000000000000000000000000000000000000000000000000005388000000000000000000000000000000000000000000000000488820000000000000          0000000000000000000000000000000000000000000000000010000142
100000000000000001202500017727X284723                         28472301715110000001   027000000 0000000000 1806040210          28472301715110000001000000000000000587940971170000502100000500000000000000000000000000000000000000000000000000000000000000000000000000005879000000000000000000000000000000000000000000000000537920000000000000          0000000000000000000000000000000000000000000000000010000143
100000000000000001202500017727X284723                         28472301717810000001   027000000 0000000000 1806040210          28472301717810000001000000000000000563534105850000502100000500000000000000000000000000000000000000000000000000000000000000000000000000005635000000000000000000000000000000000000000000000000513520000000000000          0000000000000000000000000000000000000000000000000010000144
100000000000000001202500017727X284723                         28472301730510000001   027000000 0000000000 1806040210          28472301730510000001000000000000005070623738440000502100000500000000000000000000000000000000000000000000000000000000000000000000000000050706000000000000000000000000000000000000000000000005020620000000000000          0000000000000000000000000000000000000000000000000010000145
100000000000000001202500017727X284723                         28472301732110000001   027000000 0000000000 1806040210          28472301732110000001000000000000000587923700960000502100000500000000000000000000000000000000000000000000000000000000000000000000000000005879000000000000000000000000000000000000000000000000537920000000000000          0000000000000000000000000000000000000000000000000010000146
100000000000000001202500017727X284723                         28472301761510000001   027000000 0000000000 1806040210          28472301761510000001000000000000002817034129230000502100000500000000000000000000000000000000000000000000000000000000000000000000000000028170000000000000000000000000000000000000000000000002767020000000000000          0000000000000000000000000000000000000000000000000010000147
100000000000000001202500017727X284723                         28472301770410000001   027000000 0000000000 1806040210          28472301770410000001000000000000000587834102370000502100000500000000000000000000000000000000000000000000000000000000000000000000000000005878000000000000000000000000000000000000000000000000537820000000000000          0000000000000000000000000000000000000000000000000010000148
100000000000000001202500017727X284723                         28472301779810000001   027000000 0000000000 1806040210          28472301779810000001000000000000000587939903190000502100000500000000000000000000000000000000000000000000000000000000000000000000000000005879000000000000000000000000000000000000000000000000537920000000000000          0000000000000000000000000000000000000000000000000010000149
100000000000000001202500017727X284723                         28472301791710000001   027000000 0000000000 1806040210          28472301791710000001000000000000000587835601360000502100000500000000000000000000000000000000000000000000000000000000000000000000000000005878000000000000000000000000000000000000000000000000537820000000000000          0000000000000000000000000000000000000000000000000010000150
100000000000000001202500017727X284723                         28472301798410000001   027000000 0000000000 1806040210          28472301798410000001000000000000000563340905380000502100000500000000000000000000000000000000000000000000000000000000000000000000000000005633000000000000000000000000000000000000000000000000513320000000000000          0000000000000000000000000000000000000000000000000010000151
100000000000000001202500017727X284723                         28472301813110000001   027000000 0000000000 1806040210          28472301813110000001000000000000003380434104400000502100000500000000000000000000000000000000000000000000000000000000000000000000000000033804000000000000000000000000000000000000000000000003330420000000000000          0000000000000000000000000000000000000000000000000010000152
100000000000000001202500017727X284723                         28472301817410000001   027000000 0000000000 1806040210          28472301817410000001000000000000000587923715500000502100000500000000000000000000000000000000000000000000000000000000000000000000000000005879000000000000000000000000000000000000000000000000537920000000000000          0000000000000000000000000000000000000000000000000010000153
100000000000000001202500017727X284723                         28472301833610000001   027000000 0000000000 1806040210          28472301833610000001000000000000003404923701140000502100000500000000000000000000000000000000000000000000000000000000000000000000000000034049000000000000000000000000000000000000000000000003354920000000000000          0000000000000000000000000000000000000000000000000010000154
100000000000000001202500017727X284723                         28472301839510000001   027000000 0000000000 1806040210          28472301839510000001000000000000006122823738440000502100000500000000000000000000000000000000000000000000000000000000000000000000000000061228000000000000000000000000000000000000000000000006072820000000000000          0000000000000000000000000000000000000000000000000010000155
100000000000000001202500017727X284723                         28472301842510000001   027000000 0000000000 1806040210          28472301842510000001000000000000003918634101880000502100000500000000000000000000000000000000000000000000000000000000000000000000000000039186000000000000000000000000000000000000000000000003868620000000000000          0000000000000000000000000000000000000000000000000010000156
100000000000000001202500017727X284723                         28472301848410000001   027000000 0000000000 1806040210          28472301848410000001000000000000000538823728410000502100000500000000000000000000000000000000000000000000000000000000000000000000000000005388000000000000000000000000000000000000000000000000488820000000000000          0000000000000000000000000000000000000000000000000010000157
100000000000000001202500017727X284723                         28472301871910000001   027000000 0000000000 1806040210          28472301871910000001000000000000001741335601360000502100000500000000000000000000000000000000000000000000000000000000000000000000000000017413000000000000000000000000000000000000000000000001691320000000000000          0000000000000000000000000000000000000000000000000010000158
100000000000000001202500017727X284723                         28472301892110000001   027000000 0000000000 1806040210          28472301892110000001000000000000002792040970070000502100000500000000000000000000000000000000000000000000000000000000000000000000000000027920000000000000000000000000000000000000000000000002742020000000000000          0000000000000000000000000000000000000000000000000010000159
100000000000000001202500017727X284723                         28472301903010000001   027000000 0000000000 1806040210          28472301903010000001000000000000002253234102370000502100000500000000000000000000000000000000000000000000000000000000000000000000000000022532000000000000000000000000000000000000000000000002203220000000000000          0000000000000000000000000000000000000000000000000010000160
100000000000000001202500017727X284723                         28472301905710000001   027000000 0000000000 1806040210          28472301905710000001000000000000002816523728840000502100000500000000000000000000000000000000000000000000000000000000000000000000000000028165000000000000000000000000000000000000000000000002766520000000000000          0000000000000000000000000000000000000000000000000010000161
100000000000000001202500017727X284723                         28472301935910000001   027000000 0000000000 1806040210          28472301935910000001000000000000006735123737900000502100000500000000000000000000000000000000000000000000000000000000000000000000000000067351000000000000000000000000000000000000000000000006685120000000000000          0000000000000000000000000000000000000000000000000010000162
100000000000000001202500017727X284723                         28472301950210000001   027000000 0000000000 1806040210          28472301950210000001000000000000000587910402630000502100000500000000000000000000000000000000000000000000000000000000000000000000000000005879000000000000000000000000000000000000000000000000537920000000000000          0000000000000000000000000000000000000000000000000010000163
100000000000000001202500017727X284723                         28472301971510000001   027000000 0000000000 1806040210          28472301971510000001000000000000000538834103540000502100000500000000000000000000000000000000000000000000000000000000000000000000000000005388000000000000000000000000000000000000000000000000488820000000000000          0000000000000000000000000000000000000000000000000010000164
100000000000000001202500017727X284723                         28472301979010000001   027000000 0000000000 1806040210          28472301979010000001000000000000000587935603730000502100000500000000000000000000000000000000000000000000000000000000000000000000000000005879000000000000000000000000000000000000000000000000537920000000000000          0000000000000000000000000000000000000000000000000010000165
100000000000000001202500017727X284723                         28472302022510000001   027000000 0000000000 1806040210          28472302022510000001000000000000001126834100670000502100000500000000000000000000000000000000000000000000000000000000000000000000000000011268000000000000000000000000000000000000000000000001076820000000000000          0000000000000000000000000000000000000000000000000010000166
100000000000000001202500017727X284723                         28472302023310000001   027000000 0000000000 1806040210          28472302023310000001000000000000000587940971170000502100000500000000000000000000000000000000000000000000000000000000000000000000000000005879000000000000000000000000000000000000000000000000537920000000000000          0000000000000000000000000000000000000000000000000010000167
100000000000000001202500017727X284723                         28472302036510000001   027000000 0000000000 1806040210          28472302036510000001000000000000000538834103830000502100000500000000000000000000000000000000000000000000000000000000000000000000000000005388000000000000000000000000000000000000000000000000488820000000000000          0000000000000000000000000000000000000000000000000010000168
100000000000000001202500017727X284723                         28472302047010000001   027000000 0000000000 1806040210          28472302047010000001000000000000002816534103680000502100000500000000000000000000000000000000000000000000000000000000000000000000000000028165000000000000000000000000000000000000000000000002766520000000000000          0000000000000000000000000000000000000000000000000010000169
100000000000000001202500017727X284723                         28472302064010000001   027000000 0000000000 1806040210          28472302064010000001000000000000000538823701340000502100000500000000000000000000000000000000000000000000000000000000000000000000000000005388000000000000000000000000000000000000000000000000488820000000000000          0000000000000000000000000000000000000000000000000010000170
100000000000000001202500017727X284723                         28472302091810000001   027000000 0000000000 1806040210          28472302091810000001000000000000003165934101500000502100000500000000000000000000000000000000000000000000000000000000000000000000000000031659000000000000000000000000000000000000000000000003115920000000000000          0000000000000000000000000000000000000000000000000010000171
100000000000000001202500017727X284723                         28472302094210000001   027000000 0000000000 1806040210          28472302094210000001000000000000003604723702960000502100000500000000000000000000000000000000000000000000000000000000000000000000000000036047000000000000000000000000000000000000000000000003554720000000000000          0000000000000000000000000000000000000000000000000010000172
100000000000000001202500017727X284723                         28472302103510000001   027000000 0000000000 1806040210          28472302103510000001000000000000003355335601360000502100000500000000000000000000000000000000000000000000000000000000000000000000000000033553000000000000000000000000000000000000000000000003305320000000000000          0000000000000000000000000000000000000000000000000010000173
100000000000000001202500017727X284723                         28472302110810000001   027000000 0000000000 1806040210          28472302110810000001000000000000002253640971170000502100000500000000000000000000000000000000000000000000000000000000000000000000000000022536000000000000000000000000000000000000000000000002203620000000000000          0000000000000000000000000000000000000000000000000010000174
100000000000000001202500017727X284723                         28472302115910000001   027000000 0000000000 1806040210          28472302115910000001000000000000002792003321780000502100000500000000000000000000000000000000000000000000000000000000000000000000000000027920000000000000000000000000000000000000000000000002742020000000000000          0000000000000000000000000000000000000000000000000010000175
100000000000000001202500017727X284723                         28472302130210000001   027000000 0000000000 1806040210          28472302130210000001000000000000002792534106440000502100000500000000000000000000000000000000000000000000000000000000000000000000000000027925000000000000000000000000000000000000000000000002742520000000000000          0000000000000000000000000000000000000000000000000010000176
100000000000000001202500017727X284723                         28472302136110000001   027000000 0000000000 1806040210          28472302136110000001000000000000000587923737790000502100000500000000000000000000000000000000000000000000000000000000000000000000000000005879000000000000000000000000000000000000000000000000537920000000000000          0000000000000000000000000000000000000000000000000010000177
100000000000000001202500017727X284723                         28472302140X10000001   027000000 0000000000 1806040210          28472302140X10000001000000000000002792823714430000502100000500000000000000000000000000000000000000000000000000000000000000000000000000027928000000000000000000000000000000000000000000000002742820000000000000          0000000000000000000000000000000000000000000000000010000178
100000000000000001202500017727X284723                         28472302142610000001   027000000 0000000000 1806040210          28472302142610000001000000000000002970023701980000502100000500000000000000000000000000000000000000000000000000000000000000000000000000029700000000000000000000000000000000000000000000000002920020000000000000          0000000000000000000000000000000000000000000000000010000179
100000000000000001202500017727X284723                         28472302156610000001   027000000 0000000000 1806040210          28472302156610000001000000000000005046135601360000502100000500000000000000000000000000000000000000000000000000000000000000000000000000050461000000000000000000000000000000000000000000000004996120000000000000          0000000000000000000000000000000000000000000000000010000180
100000000000000001202500017727X284723                         28472302157410000001   027000000 0000000000 1806040210          28472302157410000001000000000000000587834107450000502100000500000000000000000000000000000000000000000000000000000000000000000000000000005878000000000000000000000000000000000000000000000000537820000000000000          0000000000000000000000000000000000000000000000000010000181
100000000000000001202500017727X284723                         28472302166310000001   027000000 0000000000 1806040210          28472302166310000001000000000000001151335601360000502100000500000000000000000000000000000000000000000000000000000000000000000000000000011513000000000000000000000000000000000000000000000001101320000000000000          0000000000000000000000000000000000000000000000000010000182
100000000000000001202500017727X284723                         28472302197310000001   027000000 0000000000 1806040210          28472302197310000001000000000000001080035612830000502100000500000000000000000000000000000000000000000000000000000000000000000000000000010800000000000000000000000000000000000000000000000001030020000000000000          0000000000000000000000000000000000000000000000000010000183
100000000000000001202500017727X284723                         28472302207410000001   027000000 0000000000 1806040210          28472302207410000001000000000000002816534102370000502100000500000000000000000000000000000000000000000000000000000000000000000000000000028165000000000000000000000000000000000000000000000002766520000000000000          0000000000000000000000000000000000000000000000000010000184
100000000000000001202500017727X284723                         28472302211210000001   027000000 0000000000 1806040210          28472302211210000001000000000000003943103321780000502100000500000000000000000000000000000000000000000000000000000000000000000000000000039431000000000000000000000000000000000000000000000003893120000000000000          0000000000000000000000000000000000000000000000000010000185
100000000000000001202500017727X284723                         28472302217110000001   027000000 0000000000 1806040210          28472302217110000001000000000000002768023700980000502100000500000000000000000000000000000000000000000000000000000000000000000000000000027680000000000000000000000000000000000000000000000002718020000000000000          0000000000000000000000000000000000000000000000000010000186
100000000000000001202500017727X284723                         28472302238410000001   027000000 0000000000 1806040210          28472302238410000001000000000000000538934107750000502100000500000000000000000000000000000000000000000000000000000000000000000000000000005389000000000000000000000000000000000000000000000000488920000000000000          0000000000000000000000000000000000000000000000000010000187
100000000000000001202500017727X284723                         28472302246510000001   027000000 0000000000 1806040210          28472302246510000001000000000000000538834100740000502100000500000000000000000000000000000000000000000000000000000000000000000000000000005388000000000000000000000000000000000000000000000000488820000000000000          0000000000000000000000000000000000000000000000000010000188
100000000000000001202500017727X284723                         28472302277510000001   027000000 0000000000 1806040210          28472302277510000001000000000000001102323704200000502100000500000000000000000000000000000000000000000000000000000000000000000000000000011023000000000000000000000000000000000000000000000001052320000000000000          0000000000000000000000000000000000000000000000000010000189
100000000000000001202500017727X284723                         28472302283X10000001   027000000 0000000000 1806040210          28472302283X10000001000000000000003355334103670000502100000500000000000000000000000000000000000000000000000000000000000000000000000000033553000000000000000000000000000000000000000000000003305320000000000000          0000000000000000000000000000000000000000000000000010000190
100000000000000001202500017727X284723                         28472302286410000001   027000000 0000000000 1806040210          28472302286410000001000000000000003918634102370000502100000500000000000000000000000000000000000000000000000000000000000000000000000000039186000000000000000000000000000000000000000000000003868620000000000000          0000000000000000000000000000000000000000000000000010000191
100000000000000001202500017727X284723                         28472302298810000001   027000000 0000000000 1806040210          28472302298810000001000000000000002253623737900000502100000500000000000000000000000000000000000000000000000000000000000000000000000000022536000000000000000000000000000000000000000000000002203620000000000000          0000000000000000000000000000000000000000000000000010000192
100000000000000001202500017727X284723                         28472302332110000001   027000000 0000000000 1806040210          28472302332110000001000000000000001984223737900000502100000500000000000000000000000000000000000000000000000000000000000000000000000000019842000000000000000000000000000000000000000000000001934220000000000000          0000000000000000000000000000000000000000000000000010000193
100000000000000001202500017727X284723                         28472302349610000001   027000000 0000000000 1806040210          28472302349610000001000000000000002228734129250000502100000500000000000000000000000000000000000000000000000000000000000000000000000000022287000000000000000000000000000000000000000000000002178720000000000000          0000000000000000000000000000000000000000000000000010000194
100000000000000001202500017727X284723                         28472302351810000001   027000000 0000000000 1806040210          28472302351810000001000000000000002229123737900000502100000500000000000000000000000000000000000000000000000000000000000000000000000000022291000000000000000000000000000000000000000000000002179120000000000000          0000000000000000000000000000000000000000000000000010000195
100000000000000001202500017727X284723                         28472302361510000001   027000000 0000000000 1806040210          28472302361510000001000000000000002253234102370000502100000500000000000000000000000000000000000000000000000000000000000000000000000000022532000000000000000000000000000000000000000000000002203220000000000000          0000000000000000000000000000000000000000000000000010000196
100000000000000001202500017727X284723                         28472302368210000001   027000000 0000000000 1806040210          28472302368210000001000000000000000587823737900000502100000500000000000000000000000000000000000000000000000000000000000000000000000000005878000000000000000000000000000000000000000000000000537820000000000000          0000000000000000000000000000000000000000000000000010000197
100000000000000001202500017727X284723                         28472302397610000001   027000000 0000000000 1806040210          28472302397610000001000000000000009404634107360000502100000500000000000000000000000000000000000000000000000000000000000000000000000000094046000000000000000000000000000000000000000000000009354620000000000000          0000000000000000000000000000000000000000000000000010000198
100000000000000001202500017727X284723                         28472302417410000001   027000000 0000000000 1806040210          28472302417410000001000000000000002228723701340000502100000500000000000000000000000000000000000000000000000000000000000000000000000000022287000000000000000000000000000000000000000000000002178720000000000000          0000000000000000000000000000000000000000000000000010000199
100000000000000001202500017727X284723                         28472302427110000001   027000000 0000000000 1806040210          28472302427110000001000000000000001665723700990000502100000500000000000000000000000000000000000000000000000000000000000000000000000000016657000000000000000000000000000000000000000000000001615720000000000000          0000000000000000000000000000000000000000000000000010000200
100000000000000001202500017727X284723                         28472302434410000001   027000000 0000000000 1806040210          28472302434410000001000000000000003919334129230000502100000500000000000000000000000000000000000000000000000000000000000000000000000000039193000000000000000000000000000000000000000000000003869320000000000000          0000000000000000000000000000000000000000000000000010000201
100000000000000001202500017727X284723                         28472302436010000001   027000000 0000000000 1806040210          28472302436010000001000000000000000563434129230000502100000500000000000000000000000000000000000000000000000000000000000000000000000000005634000000000000000000000000000000000000000000000000513420000000000000          0000000000000000000000000000000000000000000000000010000202
100000000000000001202500017727X284723                         28472302442510000001   027000000 0000000000 1806040210          28472302442510000001000000000000003379835612830000502100000500000000000000000000000000000000000000000000000000000000000000000000000000033798000000000000000000000000000000000000000000000003329820000000000000          0000000000000000000000000000000000000000000000000010000203
100000000000000001202500017727X284723                         28472302446810000001   027000000 0000000000 1806040210          28472302446810000001000000000000001151323730570000502100000500000000000000000000000000000000000000000000000000000000000000000000000000011513000000000000000000000000000000000000000000000001101320000000000000          0000000000000000000000000000000000000000000000000010000204
100000000000000001202500017727X284723                         28472302447610000001   027000000 0000000000 1806040210          28472302447610000001000000000000000587810412300000502100000500000000000000000000000000000000000000000000000000000000000000000000000000005878000000000000000000000000000000000000000000000000537820000000000000          0000000000000000000000000000000000000000000000000010000205
100000000000000001202500017727X284723                         28472302461110000001   027000000 0000000000 1806040210          28472302461110000001000000000000003918634107450000502100000500000000000000000000000000000000000000000000000000000000000000000000000000039186000000000000000000000000000000000000000000000003868620000000000000          0000000000000000000000000000000000000000000000000010000206
100000000000000001202500017727X284723                         28472302468910000001   027000000 0000000000 1806040210          28472302468910000001000000000000003379823701340000502100000500000000000000000000000000000000000000000000000000000000000000000000000000033798000000000000000000000000000000000000000000000003329820000000000000          0000000000000000000000000000000000000000000000000010000207
100000000000000001202500017727X284723                         28472302470010000001   027000000 0000000000 1806040210          28472302470010000001000000000000003355340971170000502100000500000000000000000000000000000000000000000000000000000000000000000000000000033553000000000000000000000000000000000000000000000003305320000000000000          0000000000000000000000000000000000000000000000000010000208
100000000000000001202500017727X284723                         28472302478610000001   027000000 0000000000 1806040210          28472302478610000001000000000000002253634101760000502100000500000000000000000000000000000000000000000000000000000000000000000000000000022536000000000000000000000000000000000000000000000002203620000000000000          0000000000000000000000000000000000000000000000000010000209
100000000000000001202500017727X284723                         28472302479410000001   027000000 0000000000 1806040210          28472302479410000001000000000000002229135616400000502100000500000000000000000000000000000000000000000000000000000000000000000000000000022291000000000000000000000000000000000000000000000002179120000000000000          0000000000000000000000000000000000000000000000000010000210
100000000000000001202500017727X284723                         28472302494810000001   027000000 0000000000 1806040210          28472302494810000001000000000000000587934101520000502100000500000000000000000000000000000000000000000000000000000000000000000000000000005879000000000000000000000000000000000000000000000000537920000000000000          0000000000000000000000000000000000000000000000000010000211
100000000000000001202500017727X284723                         28472302504910000001   027000000 0000000000 1806040210          28472302504910000001000000000000000587834102370000502100000500000000000000000000000000000000000000000000000000000000000000000000000000005878000000000000000000000000000000000000000000000000537820000000000000          0000000000000000000000000000000000000000000000000010000212
100000000000000001202500017727X284723                         28472302506510000001   027000000 0000000000 1806040210          28472302506510000001000000000000005608534107450000502100000500000000000000000000000000000000000000000000000000000000000000000000000000056085000000000000000000000000000000000000000000000005558520000000000000          0000000000000000000000000000000000000000000000000010000213
100000000000000001202500017727X284723                         28472302539110000001   027000000 0000000000 1806040210          28472302539110000001000000000000000587834102620000502100000500000000000000000000000000000000000000000000000000000000000000000000000000005878000000000000000000000000000000000000000000000000537820000000000000          0000000000000000000000000000000000000000000000000010000214
100000000000000001202500017727X284723                         28472302556110000001   027000000 0000000000 1806040210          28472302556110000001000000000000000587834104520000502100000500000000000000000000000000000000000000000000000000000000000000000000000000005878000000000000000000000000000000000000000000000000537820000000000000          0000000000000000000000000000000000000000000000000010000215
100000000000000001202500017727X284723                         28472302574X10000001   027000000 0000000000 1806040210          28472302574X10000001000000000000005609503301540000502100000500000000000000000000000000000000000000000000000000000000000000000000000000056095000000000000000000000000000000000000000000000005559520000000000000          0000000000000000000000000000000000000000000000000010000216
100000000000000001202500017727X284723                         28472302583910000001   027000000 0000000000 1806040210          28472302583910000001000000000000006686140902830000502100000500000000000000000000000000000000000000000000000000000000000000000000000000066861000000000000000000000000000000000000000000000006636120000000000000          0000000000000000000000000000000000000000000000000010000217
100000000000000001202500017727X284723                         28472302627410000001   027000000 0000000000 1806040210          28472302627410000001000000000000001126634102370000502100000500000000000000000000000000000000000000000000000000000000000000000000000000011266000000000000000000000000000000000000000000000001076620000000000000          0000000000000000000000000000000000000000000000000010000218
100000000000000001202500017727X284723                         28472302635510000001   027000000 0000000000 1806040210          28472302635510000001000000000000001126823738570000502100000500000000000000000000000000000000000000000000000000000000000000000000000000011268000000000000000000000000000000000000000000000001076820000000000000          0000000000000000000000000000000000000000000000000010000219
100000000000000001202500017727X284723                         28472302643610000001   027000000 0000000000 1806040210          28472302643610000001000000000000002228734102370000502100000500000000000000000000000000000000000000000000000000000000000000000000000000022287000000000000000000000000000000000000000000000002178720000000000000          0000000000000000000000000000000000000000000000000010000220
100000000000000001202500017727X284723                         28472302651710000001   027000000 0000000000 1806040210          28472302651710000001000000000000000587934107580000502100000500000000000000000000000000000000000000000000000000000000000000000000000000005879000000000000000000000000000000000000000000000000537920000000000000          0000000000000000000000000000000000000000000000000010000221
100000000000000001202500017727X284723                         28472302658410000001   027000000 0000000000 1806040210          28472302658410000001000000000000001324034131700000502100000500000000000000000000000000000000000000000000000000000000000000000000000000013240000000000000000000000000000000000000000000000001274020000000000000          0000000000000000000000000000000000000000000000000010000222
100000000000000001202500017727X284723                         28472302681910000001   027000000 0000000000 1806040210          28472302681910000001000000000000000587923701050000502100000500000000000000000000000000000000000000000000000000000000000000000000000000005879000000000000000000000000000000000000000000000000537920000000000000          0000000000000000000000000000000000000000000000000010000223
100000000000000001202500017727X284723                         28472302689410000001   027000000 0000000000 1806040210          28472302689410000001000000000000002228734181700000502100000500000000000000000000000000000000000000000000000000000000000000000000000000022287000000000000000000000000000000000000000000000002178720000000000000          0000000000000000000000000000000000000000000000000010000224
100000000000000001202500017727X284723                         28472302690810000001   027000000 0000000000 1806040210          28472302690810000001000000000000002768034100470000502100000500000000000000000000000000000000000000000000000000000000000000000000000000027680000000000000000000000000000000000000000000000002718020000000000000          0000000000000000000000000000000000000000000000000010000225
100000000000000001202500017727X284723                         28472302702510000001   027000000 0000000000 1806040210          28472302702510000001000000000000003355940971170000502100000500000000000000000000000000000000000000000000000000000000000000000000000000033559000000000000000000000000000000000000000000000003305920000000000000          0000000000000000000000000000000000000000000000000010000226
100000000000000001202500017727X284723                         28472302715710000001   027000000 0000000000 1806040210          28472302715710000001000000000000002817034131710000502100000500000000000000000000000000000000000000000000000000000000000000000000000000028170000000000000000000000000000000000000000000000002767020000000000000          0000000000000000000000000000000000000000000000000010000227
100000000000000001202500017727X284723                         28472302716510000001   027000000 0000000000 1806040210          28472302716510000001000000000000002253623737900000502100000500000000000000000000000000000000000000000000000000000000000000000000000000022536000000000000000000000000000000000000000000000002203620000000000000          0000000000000000000000000000000000000000000000000010000228
100000000000000001202500017727X284723                         28472302717310000001   027000000 0000000000 1806040210          28472302717310000001000000000000001690223737900000502100000500000000000000000000000000000000000000000000000000000000000000000000000000016902000000000000000000000000000000000000000000000001640220000000000000          0000000000000000000000000000000000000000000000000010000229
100000000000000001202500017727X284723                         28472302768810000001   027000000 0000000000 1806040210          28472302768810000001000000000000003380423731910000502100000500000000000000000000000000000000000000000000000000000000000000000000000000033804000000000000000000000000000000000000000000000003330420000000000000          0000000000000000000000000000000000000000000000000010000230
100000000000000001202500017727X284723                         28472302781510000001   027000000 0000000000 1806040210          28472302781510000001000000000000000587834102370000502100000500000000000000000000000000000000000000000000000000000000000000000000000000005878000000000000000000000000000000000000000000000000537820000000000000          0000000000000000000000000000000000000000000000000010000231
100000000000000001202500017727X284723                         28472302784X10000001   027000000 0000000000 1806040210          28472302784X10000001000000000000003355334101900000502100000500000000000000000000000000000000000000000000000000000000000000000000000000033553000000000000000000000000000000000000000000000003305320000000000000          0000000000000000000000000000000000000000000000000010000232
100000000000000001202500017727X284723                         28472302895110000001   027000000 0000000000 1806040210          28472302895110000001000000000000001690140904770000502100000500000000000000000000000000000000000000000000000000000000000000000000000000016901000000000000000000000000000000000000000000000001640120000000000000          0000000000000000000000000000000000000000000000000010000233
100000000000000001202500017727X284723                         28472302935410000001   027000000 0000000000 1806040210          28472302935410000001000000000000003380223724770000502100000500000000000000000000000000000000000000000000000000000000000000000000000000033802000000000000000000000000000000000000000000000003330220000000000000          0000000000000000000000000000000000000000000000000010000234
100000000000000001202500017727X284723                         28472302941910000001   027000000 0000000000 1806040210          28472302941910000001000000000000001632123737900000502100000500000000000000000000000000000000000000000000000000000000000000000000000000016321000000000000000000000000000000000000000000000001582120000000000000          0000000000000000000000000000000000000000000000000010000235
100000000000000001202500017727X284723                         28472302970210000001   027000000 0000000000 1806040210          28472302970210000001000000000000002792534107750000502100000500000000000000000000000000000000000000000000000000000000000000000000000000027925000000000000000000000000000000000000000000000002742520000000000000          0000000000000000000000000000000000000000000000000010000236
100000000000000001202500017727X284723                         28472302998210000001   027000000 0000000000 1806040210          28472302998210000001000000000000001689910412300000502100000500000000000000000000000000000000000000000000000000000000000000000000000000016899000000000000000000000000000000000000000000000001639920000000000000          0000000000000000000000000000000000000000000000000010000237
100000000000000001202500017727X284723                         28472303017410000001   027000000 0000000000 1806040210          28472303017410000001000000000000004997123710740000502100000500000000000000000000000000000000000000000000000000000000000000000000000000049971000000000000000000000000000000000000000000000004947120000000000000          0000000000000000000000000000000000000000000000000010000238
100000000000000001202500017727X284723                         28472303078610000001   027000000 0000000000 1806040210          28472303078610000001000000000000000587840902830000502100000500000000000000000000000000000000000000000000000000000000000000000000000000005878000000000000000000000000000000000000000000000000537820000000000000          0000000000000000000000000000000000000000000000000010000239
100000000000000001202500017727X284723                         28472303081610000001   027000000 0000000000 1806040210          28472303081610000001000000000000002841539903190000502100000500000000000000000000000000000000000000000000000000000000000000000000000000028415000000000000000000000000000000000000000000000002791520000000000000          0000000000000000000000000000000000000000000000000010000240
100000000000000001202500017727X284723                         28472303082410000001   027000000 0000000000 1806040210          28472303082410000001000000000000002253610402730000502100000500000000000000000000000000000000000000000000000000000000000000000000000000022536000000000000000000000000000000000000000000000002203620000000000000          0000000000000000000000000000000000000000000000000010000241
100000000000000001202500017727X284723                         28472303085910000001   027000000 0000000000 1806040210          28472303085910000001000000000000001126834100480000502100000500000000000000000000000000000000000000000000000000000000000000000000000000011268000000000000000000000000000000000000000000000001076820000000000000          0000000000000000000000000000000000000000000000000010000242
100000000000000001202500017727X284723                         28472303090510000001   027000000 0000000000 1806040210          28472303090510000001000000000000002792523737900000502100000500000000000000000000000000000000000000000000000000000000000000000000000000027925000000000000000000000000000000000000000000000002742520000000000000          0000000000000000000000000000000000000000000000000010000243
100000000000000001202500017727X284723                         28472303121910000001   027000000 0000000000 1806040210          28472303121910000001000000000000000538934102370000502100000500000000000000000000000000000000000000000000000000000000000000000000000000005389000000000000000000000000000000000000000000000000488920000000000000          0000000000000000000000000000000000000000000000000010000244
100000000000000001202500017727X284723                         28472303173110000001   027000000 0000000000 1806040210          28472303173110000001000000000000002767534107450000502100000500000000000000000000000000000000000000000000000000000000000000000000000000027675000000000000000000000000000000000000000000000002717520000000000000          0000000000000000000000000000000000000000000000000010000245
100000000000000001202500017727X284723                         28472303186310000001   027000000 0000000000 1806040210          28472303186310000001000000000000000587834103540000502100000500000000000000000000000000000000000000000000000000000000000000000000000000005878000000000000000000000000000000000000000000000000537820000000000000          0000000000000000000000000000000000000000000000000010000246
100000000000000001202500017727X284723                         28472303228210000001   027000000 0000000000 1806040210          28472303228210000001000000000000003380234106480000502100000500000000000000000000000000000000000000000000000000000000000000000000000000033802000000000000000000000000000000000000000000000003330220000000000000          0000000000000000000000000000000000000000000000000010000247
100000000000000001202500017727X284723                         28472303254110000001   027000000 0000000000 1806040210          28472303254110000001000000000000000587923702920000502100000500000000000000000000000000000000000000000000000000000000000000000000000000005879000000000000000000000000000000000000000000000000537920000000000000          0000000000000000000000000000000000000000000000000010000248
100000000000000001202500017727X284723                         28472303261410000001   027000000 0000000000 1806040210          28472303261410000001000000000000001690234101770000502100000500000000000000000000000000000000000000000000000000000000000000000000000000016902000000000000000000000000000000000000000000000001640220000000000000          0000000000000000000000000000000000000000000000000010000249
