02RETORNO01COBRANCA       1202500017727X284723SINDICATO DOS EMPREGADOS DE ED001BANCO DO BRASIL0411090001541                      000001541201093102                                                                                                                                                                                                                                                       000001
100000000000000001202500017727X284723                         28472300033X10000001   027000000 0000000000 1806041109          28472300033X10000001000000000000000367534106600000511090000500000000000000000000000000000000000000000000000000000000000000000000000000003675000000000000000000000000000000000000000000000000317520000000000000          0000000000000000000000000000000000000000000000000010000002
100000000000000001202500017727X284723                         28472300036410000001   027000000 0000000000 1806041109          28472300036410000001000000000000000256534106600000511090000500000000000000000000000000000000000000000000000000000000000000000000000000002565000000000000000000000000000000000000000000000000206520000000000000          0000000000000000000000000000000000000000000000000010000003
100000000000000001202500017727X284723                         28472300041010000001   027000000 0000000000 1806041109          28472300041010000001000000000000000738023702000000511090000500000000000000000000000000000000000000000000000000000000000000000000000000007380000000000000000000000000000000000000000000000000688020000000000000          0000000000000000000000000000000000000000000000000010000004
100000000000000001202500017727X284723                         28472300054210000001   027000000 0000000000 1806041109          28472300054210000001000000000000001307423702000000511090000500000000000000000000000000000000000000000000000000000000000000000000000000013074000000000000000000000000000000000000000000000001257420000000000000          0000000000000000000000000000000000000000000000000010000005
100000000000000001202500017727X284723                         28472300055010000001   027000000 0000000000 1806041109          28472300055010000001000000000000000424334106600000511090000500000000000000000000000000000000000000000000000000000000000000000000000000004243000000000000000000000000000000000000000000000000374320000000000000          0000000000000000000000000000000000000000000000000010000006
100000000000000001202500017727X284723                         28472300077110000001   027000000 0000000000 1806041109          28472300077110000001000000000000002792034100660000511090000500000000000000000000000000000000000000000000000000000000000000000000000000027920000000000000000000000000000000000000000000000002742020000000000000          0000000000000000000000000000000000000000000000000010000007
100000000000000001202500017727X284723                         28472300087910000001   027000000 0000000000 1806041109          28472300087910000001000000000000003692823714320000511090000500000000000000000000000000000000000000000000000000000000000000000000000000036928000000000000000000000000000000000000000000000003642820000000000000          0000000000000000000000000000000000000000000000000010000008
100000000000000001202500017727X284723                         28472300103410000001   027000000 0000000000 1806041109          28472300103410000001000000000000003242034107450000511090000500000000000000000000000000000000000000000000000000000000000000000000000000032420000000000000000000000000000000000000000000000003192020000000000000          0000000000000000000000000000000000000000000000000010000009
100000000000000001202500017727X284723                         28472300209X10000001   027000000 0000000000 1806041109          28472300209X10000001000000000000002112634129590000511090000500000000000000000000000000000000000000000000000000000000000000000000000000021126000000000000000000000000000000000000000000000002062620000000000000          0000000000000000000000000000000000000000000000000010000010
100000000000000001202500017727X284723                         28472300218910000001   027000000 0000000000 1806041109          28472300218910000001000000000000002929803322000000511090000500000000000000000000000000000000000000000000000000000000000000000000000000029298000000000000000000000000000000000000000000000002879820000000000000          0000000000000000000000000000000000000000000000000010000011
100000000000000001202500017727X284723                         28472300246410000001   027000000 0000000000 1806041109          28472300246410000001000000000000000183923737900000511090000500000000000000000000000000000000000000000000000000000000000000000000000000001839000000000000000000000000000000000000000000000000133920000000000000          0000000000000000000000000000000000000000000000000010000012
100000000000000001202500017727X284723                         28472300255310000001   027000000 0000000000 1806041109          28472300255310000001000000000000000460035607270000511090000500000000000000000000000000000000000000000000000000000000000000000000000000004600000000000000000000000000000000000000000000000000410020000000000000          0000000000000000000000000000000000000000000000000010000013
100000000000000001202500017727X284723                         28472300343610000001   027000000 0000000000 1806041109          28472300343610000001000000000000002317034101730000511090000500000000000000000000000000000000000000000000000000000000000000000000000000023170000000000000000000000000000000000000000000000002267020000000000000          0000000000000000000000000000000000000000000000000010000014
100000000000000001202500017727X284723                         28472300346010000001   027000000 0000000000 1806041109          28472300346010000001000000000000001611534101730000511090000500000000000000000000000000000000000000000000000000000000000000000000000000016115000000000000000000000000000000000000000000000001561520000000000000          0000000000000000000000000000000000000000000000000010000015
100000000000000001202500017727X284723                         28472300348710000001   027000000 0000000000 1806041109          28472300348710000001000000000000001447034107580000511090000500000000000000000000000000000000000000000000000000000000000000000000000000014470000000000000000000000000000000000000000000000001397020000000000000          0000000000000000000000000000000000000000000000000010000016
100000000000000001202500017727X284723                         28472300358410000001   027000000 0000000000 1806041109          28472300358410000001000000000000002994034104280000511090000500000000000000000000000000000000000000000000000000000000000000000000000000029940000000000000000000000000000000000000000000000002944020000000000000          0000000000000000000000000000000000000000000000000010000017
100000000000000001202500017727X284723                         28472300432710000001   027000000 0000000000 1806041109          28472300432710000001000000000000002397734108450000511090000500000000000000000000000000000000000000000000000000000000000000000000000000023977000000000000000000000000000000000000000000000002347720000000000000          0000000000000000000000000000000000000000000000000010000018
100000000000000001202500017727X284723                         28472300439410000001   027000000 0000000000 1806041109          28472300439410000001000000000000000397534101730000511090000500000000000000000000000000000000000000000000000000000000000000000000000000003975000000000000000000000000000000000000000000000000347520000000000000          0000000000000000000000000000000000000000000000000010000019
100000000000000001202500017727X284723                         28472300443210000001   027000000 0000000000 1806041109          28472300443210000001000000000000000312723737900000511090000500000000000000000000000000000000000000000000000000000000000000000000000000003127000000000000000000000000000000000000000000000000262720000000000000          0000000000000000000000000000000000000000000000000010000020
100000000000000001202500017727X284723                         28472300462910000001   027000000 0000000000 1806041109          28472300462910000001000000000000000337034106460000511090000500000000000000000000000000000000000000000000000000000000000000000000000000003370000000000000000000000000000000000000000000000000287020000000000000          0000000000000000000000000000000000000000000000000010000021
100000000000000001202500017727X284723                         28472300489010000001   027000000 0000000000 1806041109          28472300489010000001000000000000000367434107570000511090000500000000000000000000000000000000000000000000000000000000000000000000000000003674000000000000000000000000000000000000000000000000317420000000000000          0000000000000000000000000000000000000000000000000010000022
100000000000000001202500017727X284723                         28472300502110000001   027000000 0000000000 1806041109          28472300502110000001000000000000000520023701190000511090000500000000000000000000000000000000000000000000000000000000000000000000000000005200000000000000000000000000000000000000000000000000470020000000000000          0000000000000000000000000000000000000000000000000010000023
100000000000000001202500017727X284723                         28472300626510000001   027000000 0000000000 1806041109          28472300626510000001000000000000000390534107370000511090000500000000000000000000000000000000000000000000000000000000000000000000000000003905000000000000000000000000000000000000000000000000340520000000000000          0000000000000000000000000000000000000000000000000010000024
100000000000000001202500017727X284723                         28472300627310000001   027000000 0000000000 1806041109          28472300627310000001000000000000000352135601360000511090000500000000000000000000000000000000000000000000000000000000000000000000000000003521000000000000000000000000000000000000000000000000302120000000000000          0000000000000000000000000000000000000000000000000010000025
100000000000000001202500017727X284723                         28472300641910000001   027000000 0000000000 1806041109          28472300641910000001000000000000001408435601360000511090000500000000000000000000000000000000000000000000000000000000000000000000000000014084000000000000000000000000000000000000000000000001358420000000000000          0000000000000000000000000000000000000000000000000010000026
100000000000000001202500017727X284723                         28472300674510000001   027000000 0000000000 1806041109          28472300674510000001000000000000000336840903540000511090000500000000000000000000000000000000000000000000000000000000000000000000000000003368000000000000000000000000000000000000000000000000286820000000000000          0000000000000000000000000000000000000000000000000010000027
100000000000000001202500017727X284723                         28472300723710000001   027000000 0000000000 1806041109          28472300723710000001000000000000001393134100370000511090000500000000000000000000000000000000000000000000000000000000000000000000000000013931000000000000000000000000000000000000000000000001343120000000000000          0000000000000000000000000000000000000000000000000010000028
100000000000000001202500017727X284723                         28472300735010000001   027000000 0000000000 1806041109          28472300735010000001000000000000002531323705000000511090000500000000000000000000000000000000000000000000000000000000000000000000000000025313000000000000000000000000000000000000000000000002481320000000000000          0000000000000000000000000000000000000000000000000010000029
100000000000000001202500017727X284723                         28472300751210000001   027000000 0000000000 1806041109          28472300751210000001000000000000000391934101730000511090000500000000000000000000000000000000000000000000000000000000000000000000000000003919000000000000000000000000000000000000000000000000341920000000000000          0000000000000000000000000000000000000000000000000010000030
100000000000000001202500017727X284723                         28472300755510000001   027000000 0000000000 1806041109          28472300755510000001000000000000004372534101730000511090000500000000000000000000000000000000000000000000000000000000000000000000000000043725000000000000000000000000000000000000000000000004322520000000000000          0000000000000000000000000000000000000000000000000010000031
100000000000000001202500017727X284723                         28472300756310000001   027000000 0000000000 1806041109          28472300756310000001000000000000002171534101730000511090000500000000000000000000000000000000000000000000000000000000000000000000000000021715000000000000000000000000000000000000000000000002121520000000000000          0000000000000000000000000000000000000000000000000010000032
100000000000000001202500017727X284723                         28472300757110000001   027000000 0000000000 1806041109          28472300757110000001000000000000000805034101730000511090000500000000000000000000000000000000000000000000000000000000000000000000000000008050000000000000000000000000000000000000000000000000755020000000000000          0000000000000000000000000000000000000000000000000010000033
100000000000000001202500017727X284723                         28472300758X10000001   027000000 0000000000 1806041109          28472300758X10000001000000000000001762034101730000511090000500000000000000000000000000000000000000000000000000000000000000000000000000017620000000000000000000000000000000000000000000000001712020000000000000          0000000000000000000000000000000000000000000000000010000034
100000000000000001202500017727X284723                         28472300759810000001   027000000 0000000000 1806041109          28472300759810000001000000000000002775034101730000511090000500000000000000000000000000000000000000000000000000000000000000000000000000027750000000000000000000000000000000000000000000000002725020000000000000          0000000000000000000000000000000000000000000000000010000035
100000000000000001202500017727X284723                         28472300765210000001   027000000 0000000000 1806041109          28472300765210000001000000000000002753534101730000511090000500000000000000000000000000000000000000000000000000000000000000000000000000027535000000000000000000000000000000000000000000000002703520000000000000          0000000000000000000000000000000000000000000000000010000036
100000000000000001202500017727X284723                         28472300770910000001   027000000 0000000000 1806041109          28472300770910000001000000000000003067534101730000511090000500000000000000000000000000000000000000000000000000000000000000000000000000030675000000000000000000000000000000000000000000000003017520000000000000          0000000000000000000000000000000000000000000000000010000037
100000000000000001202500017727X284723                         28472300787310000001   027000000 0000000000 1806041109          28472300787310000001000000000000002023034107580000511090000500000000000000000000000000000000000000000000000000000000000000000000000000020230000000000000000000000000000000000000000000000001973020000000000000          0000000000000000000000000000000000000000000000000010000038
100000000000000001202500017727X284723                         28472300794610000001   027000000 0000000000 1806041109          28472300794610000001000000000000003302034101730000511090000500000000000000000000000000000000000000000000000000000000000000000000000000033020000000000000000000000000000000000000000000000003252020000000000000          0000000000000000000000000000000000000000000000000010000039
100000000000000001202500017727X284723                         28472300796210000001   027000000 0000000000 1806041109          28472300796210000001000000000000001125034107370000511090000500000000000000000000000000000000000000000000000000000000000000000000000000011250000000000000000000000000000000000000000000000001075020000000000000          0000000000000000000000000000000000000000000000000010000040
100000000000000001202500017727X284723                         28472300803910000001   027000000 0000000000 1806041109          28472300803910000001000000000000003899003320080000511090000500000000000000000000000000000000000000000000000000000000000000000000000000038990000000000000000000000000000000000000000000000003849020000000000000          0000000000000000000000000000000000000000000000000010000041
100000000000000001202500017727X284723                         28472300852710000001   027000000 0000000000 1806041109          28472300852710000001000000000000001872934107720000511090000500000000000000000000000000000000000000000000000000000000000000000000000000018729000000000000000000000000000000000000000000000001822920000000000000          0000000000000000000000000000000000000000000000000010000042
100000000000000001202500017727X284723                         28472300884510000001   027000000 0000000000 1806041109          28472300884510000001000000000000000510010402630000511090000500000000000000000000000000000000000000000000000000000000000000000000000000005100000000000000000000000000000000000000000000000000460020000000000000          0000000000000000000000000000000000000000000000000010000043
100000000000000001202500017727X284723                         28472300889610000001   027000000 0000000000 1806041109          28472300889610000001000000000000001789834107570000511090000500000000000000000000000000000000000000000000000000000000000000000000000000017898000000000000000000000000000000000000000000000001739820000000000000          0000000000000000000000000000000000000000000000000010000044
100000000000000001202500017727X284723                         28472300891810000001   027000000 0000000000 1806041109          28472300891810000001000000000000000367434101730000511090000500000000000000000000000000000000000000000000000000000000000000000000000000003674000000000000000000000000000000000000000000000000317420000000000000          0000000000000000000000000000000000000000000000000010000045
100000000000000001202500017727X284723                         28472300939610000001   027000000 0000000000 1806041109          28472300939610000001000000000000000567515105550000511090000500000000000000000000000000000000000000000000000000000000000000000000000000005675000000000000000000000000000000000000000000000000517520000000000000          0000000000000000000000000000000000000000000000000010000046
100000000000000001202500017727X284723                         28472300971X10000001   027000000 0000000000 1806041109          28472300971X10000001000000000000000673603307330000511090000500000000000000000000000000000000000000000000000000000000000000000000000000006736000000000000000000000000000000000000000000000000623620000000000000          0000000000000000000000000000000000000000000000000010000047
100000000000000001202500017727X284723                         28472300976010000001   027000000 0000000000 1806041109          28472300976010000001000000000000000347023738440000511090000500000000000000000000000000000000000000000000000000000000000000000000000000003470000000000000000000000000000000000000000000000000297020000000000000          0000000000000000000000000000000000000000000000000010000048
100000000000000001202500017727X284723                         28472301008410000001   027000000 0000000000 1806041109          28472301008410000001000000000000002777934103780000511090000500000000000000000000000000000000000000000000000000000000000000000000000000027779000000000000000000000000000000000000000000000002727920000000000000          0000000000000000000000000000000000000000000000000010000049
100000000000000001202500017727X284723                         28472301012210000001   027000000 0000000000 1806041109          28472301012210000001000000000000000368010412300000511090000500000000000000000000000000000000000000000000000000000000000000000000000000003680000000000000000000000000000000000000000000000000318020000000000000          0000000000000000000000000000000000000000000000000010000050
100000000000000001202500017727X284723                         28472301070X10000001   027000000 0000000000 1806041109          28472301070X10000001000000000000002647723705000000511090000500000000000000000000000000000000000000000000000000000000000000000000000000026477000000000000000000000000000000000000000000000002597720000000000000          0000000000000000000000000000000000000000000000000010000051
100000000000000001202500017727X284723                         28472301083110000001   027000000 0000000000 1806041109          28472301083110000001000000000000001596735617520000511090000500000000000000000000000000000000000000000000000000000000000000000000000000015967000000000000000000000000000000000000000000000001546720000000000000          0000000000000000000000000000000000000000000000000010000052
100000000000000001202500017727X284723                         28472301091210000001   027000000 0000000000 1806041109          28472301091210000001000000000000001102134100660000511090000500000000000000000000000000000000000000000000000000000000000000000000000000011021000000000000000000000000000000000000000000000001052120000000000000          0000000000000000000000000000000000000000000000000010000053
100000000000000001202500017727X284723                         28472301097110000001   027000000 0000000000 1806041109          28472301097110000001000000000000002449434108660000511090000500000000000000000000000000000000000000000000000000000000000000000000000000024494000000000000000000000000000000000000000000000002399420000000000000          0000000000000000000000000000000000000000000000000010000054
100000000000000001202500017727X284723                         28472301154410000001   027000000 0000000000 1806041109          28472301154410000001000000000000000434035608270000511090000500000000000000000000000000000000000000000000000000000000000000000000000000004340000000000000000000000000000000000000000000000000384020000000000000          0000000000000000000000000000000000000000000000000010000055
100000000000000001202500017727X284723                         28472301155210000001   027000000 0000000000 1806041109          28472301155210000001000000000000001768734108440000511090000500000000000000000000000000000000000000000000000000000000000000000000000000017687000000000000000000000000000000000000000000000001718720000000000000          0000000000000000000000000000000000000000000000000010000056
100000000000000001202500017727X284723                         28472301201X10000001   027000000 0000000000 1806041109          28472301201X10000001000000000000000551234102850000511090000500000000000000000000000000000000000000000000000000000000000000000000000000005512000000000000000000000000000000000000000000000000501220000000000000          0000000000000000000000000000000000000000000000000010000057
100000000000000001202500017727X284723                         28472301212510000001   027000000 0000000000 1806041109          28472301212510000001000000000000001448503301450000511090000500000000000000000000000000000000000000000000000000000000000000000000000000014485000000000000000000000000000000000000000000000001398520000000000000          0000000000000000000000000000000000000000000000000010000058
100000000000000001202500017727X284723                         28472301215X10000001   027000000 0000000000 1806041109          28472301215X10000001000000000000002524510412300000511090000500000000000000000000000000000000000000000000000000000000000000000000000000025245000000000000000000000000000000000000000000000002474520000000000000          0000000000000000000000000000000000000000000000000010000059
100000000000000001202500017727X284723                         28472301218410000001   027000000 0000000000 1806041109          28472301218410000001000000000000000538010412300000511090000500000000000000000000000000000000000000000000000000000000000000000000000000005380000000000000000000000000000000000000000000000000488020000000000000          0000000000000000000000000000000000000000000000000010000060
100000000000000001202500017727X284723                         28472301286910000001   027000000 0000000000 1806041109          28472301286910000001000000000000000361834107570000511090000500000000000000000000000000000000000000000000000000000000000000000000000000003618000000000000000000000000000000000000000000000000311820000000000000          0000000000000000000000000000000000000000000000000010000061
100000000000000001202500017727X284723                         28472301329610000001   027000000 0000000000 1806041109          28472301329610000001000000000000004608535612580000511090000500000000000000000000000000000000000000000000000000000000000000000000000000046085000000000000000000000000000000000000000000000004558520000000000000          0000000000000000000000000000000000000000000000000010000062
100000000000000001202500017727X284723                         28472301338510000001   027000000 0000000000 1806041109          28472301338510000001000000000000000703534106600000511090000500000000000000000000000000000000000000000000000000000000000000000000000000007035000000000000000000000000000000000000000000000000653520000000000000          0000000000000000000000000000000000000000000000000010000063
100000000000000001202500017727X284723                         28472301435710000001   027000000 0000000000 1806041109          28472301435710000001000000000000001923503302360000511090000500000000000000000000000000000000000000000000000000000000000000000000000000019235000000000000000000000000000000000000000000000001873520000000000000          0000000000000000000000000000000000000000000000000010000064
100000000000000001202500017727X284723                         28472301446210000001   027000000 0000000000 1806041109          28472301446210000001000000000000001043534100270000511090000500000000000000000000000000000000000000000000000000000000000000000000000000010435000000000000000000000000000000000000000000000000993520000000000000          0000000000000000000000000000000000000000000000000010000065
100000000000000001202500017727X284723                         28472301453510000001   027000000 0000000000 1806041109          28472301453510000001000000000000000367434107620000511090000500000000000000000000000000000000000000000000000000000000000000000000000000003674000000000000000000000000000000000000000000000000317420000000000000          0000000000000000000000000000000000000000000000000010000066
100000000000000001202500017727X284723                         28472301459410000001   027000000 0000000000 1806041109          28472301459410000001000000000000001177634129600000511090000500000000000000000000000000000000000000000000000000000000000000000000000000011776000000000000000000000000000000000000000000000001127620000000000000          0000000000000000000000000000000000000000000000000010000067
100000000000000001202500017727X284723                         28472301489610000001   027000000 0000000000 1806041109          28472301489610000001000000000000000790435600880000511090000500000000000000000000000000000000000000000000000000000000000000000000000000007904000000000000000000000000000000000000000000000000740420000000000000          0000000000000000000000000000000000000000000000000010000068
100000000000000001202500017727X284723                         28472301504310000001   027000000 0000000000 1806041109          28472301504310000001000000000000000891523728420000511090000500000000000000000000000000000000000000000000000000000000000000000000000000008915000000000000000000000000000000000000000000000000841520000000000000          0000000000000000000000000000000000000000000000000010000069
100000000000000001202500017727X284723                         28472301506X10000001   027000000 0000000000 1806041109          28472301506X10000001000000000000000367434100370000511090000500000000000000000000000000000000000000000000000000000000000000000000000000003674000000000000000000000000000000000000000000000000317420000000000000          0000000000000000000000000000000000000000000000000010000070
100000000000000001202500017727X284723                         28472301525610000001   027000000 0000000000 1806041109          28472301525610000001000000000000000577534107720000511090000500000000000000000000000000000000000000000000000000000000000000000000000000005775000000000000000000000000000000000000000000000000527520000000000000          0000000000000000000000000000000000000000000000000010000071
100000000000000001202500017727X284723                         28472301553110000001   027000000 0000000000 1806041109          28472301553110000001000000000000000572434101380000511090000500000000000000000000000000000000000000000000000000000000000000000000000000005724000000000000000000000000000000000000000000000000522420000000000000          0000000000000000000000000000000000000000000000000010000072
100000000000000001202500017727X284723                         28472301640610000001   027000000 0000000000 1806041109          28472301640610000001000000000000000705023737900000511090000500000000000000000000000000000000000000000000000000000000000000000000000000007050000000000000000000000000000000000000000000000000655020000000000000          0000000000000000000000000000000000000000000000000010000073
100000000000000001202500017727X284723                         28472301666X10000001   027000000 0000000000 1806041109          28472301666X10000001000000000000000729034100810000511090000500000000000000000000000000000000000000000000000000000000000000000000000000007290000000000000000000000000000000000000000000000000679020000000000000          0000000000000000000000000000000000000000000000000010000074
100000000000000001202500017727X284723                         28472301683X10000001   027000000 0000000000 1806041109          28472301683X10000001000000000000001638535601360000511090000500000000000000000000000000000000000000000000000000000000000000000000000000016385000000000000000000000000000000000000000000000001588520000000000000          0000000000000000000000000000000000000000000000000010000075
100000000000000001202500017727X284723                         28472301708910000001   027000000 0000000000 1806041109          28472301708910000001000000000000000454734107570000511090000500000000000000000000000000000000000000000000000000000000000000000000000000004547000000000000000000000000000000000000000000000000404720000000000000          0000000000000000000000000000000000000000000000000010000076
100000000000000001202500017727X284723                         28472301713510000001   027000000 0000000000 1806041109          28472301713510000001000000000000005092534101730000511090000500000000000000000000000000000000000000000000000000000000000000000000000000050925000000000000000000000000000000000000000000000005042520000000000000          0000000000000000000000000000000000000000000000000010000077
100000000000000001202500017727X284723                         28472301726710000001   027000000 0000000000 1806041109          28472301726710000001000000000000002342510412300000511090000500000000000000000000000000000000000000000000000000000000000000000000000000023425000000000000000000000000000000000000000000000002292520000000000000          0000000000000000000000000000000000000000000000000010000078
100000000000000001202500017727X284723                         28472301729110000001   027000000 0000000000 1806041109          28472301729110000001000000000000005150534101730000511090000500000000000000000000000000000000000000000000000000000000000000000000000000051505000000000000000000000000000000000000000000000005100520000000000000          0000000000000000000000000000000000000000000000000010000079
100000000000000001202500017727X284723                         28472301737210000001   027000000 0000000000 1806041109          28472301737210000001000000000000003379735607270000511090000500000000000000000000000000000000000000000000000000000000000000000000000000033797000000000000000000000000000000000000000000000003329720000000000000          0000000000000000000000000000000000000000000000000010000080
100000000000000001202500017727X284723                         28472301780110000001   027000000 0000000000 1806041109          28472301780110000001000000000000000352134103750000511090000500000000000000000000000000000000000000000000000000000000000000000000000000003521000000000000000000000000000000000000000000000000302120000000000000          0000000000000000000000000000000000000000000000000010000081
100000000000000001202500017727X284723                         28472301846810000001   027000000 0000000000 1806041109          28472301846810000001000000000000001680523705000000511090000500000000000000000000000000000000000000000000000000000000000000000000000000016805000000000000000000000000000000000000000000000001630520000000000000          0000000000000000000000000000000000000000000000000010000082
100000000000000001202500017727X284723                         28472301877810000001   027000000 0000000000 1806041109          28472301877810000001000000000000003032234107570000511090000500000000000000000000000000000000000000000000000000000000000000000000000000030322000000000000000000000000000000000000000000000002982220000000000000          0000000000000000000000000000000000000000000000000010000083
100000000000000001202500017727X284723                         28472301918910000001   027000000 0000000000 1806041109          28472301918910000001000000000000000185534106820000511090000500000000000000000000000000000000000000000000000000000000000000000000000000001855000000000000000000000000000000000000000000000000135520000000000000          0000000000000000000000000000000000000000000000000010000084
100000000000000001202500017727X284723                         28472301919710000001   027000000 0000000000 1806041109          28472301919710000001000000000000000368034102110000511090000500000000000000000000000000000000000000000000000000000000000000000000000000003680000000000000000000000000000000000000000000000000318020000000000000          0000000000000000000000000000000000000000000000000010000085
100000000000000001202500017727X284723                         28472301939110000001   027000000 0000000000 1806041109          28472301939110000001000000000000000415834100740000511090000500000000000000000000000000000000000000000000000000000000000000000000000000004158000000000000000000000000000000000000000000000000365820000000000000          0000000000000000000000000000000000000000000000000010000086
100000000000000001202500017727X284723                         28472301942110000001   027000000 0000000000 1806041109          28472301942110000001000000000000000352734100740000511090000500000000000000000000000000000000000000000000000000000000000000000000000000003527000000000000000000000000000000000000000000000000302720000000000000          0000000000000000000000000000000000000000000000000010000087
100000000000000001202500017727X284723                         28472301979010000001   027000000 0000000000 1806041109          28472301979010000001000000000000000368035603730000511090000500000000000000000000000000000000000000000000000000000000000000000000000000003680000000000000000000000000000000000000000000000000318020000000000000          0000000000000000000000000000000000000000000000000010000088
100000000000000001202500017727X284723                         28472301980410000001   027000000 0000000000 1806041109          28472301980410000001000000000000001057503322070000511090000500000000000000000000000000000000000000000000000000000000000000000000000000010575000000000000000000000000000000000000000000000001007520000000000000          0000000000000000000000000000000000000000000000000010000089
100000000000000001202500017727X284723                         28472302022510000001   027000000 0000000000 1806041109          28472302022510000001000000000000000848534108440000511090000500000000000000000000000000000000000000000000000000000000000000000000000000008485000000000000000000000000000000000000000000000000798520000000000000          0000000000000000000000000000000000000000000000000010000090
100000000000000001202500017727X284723                         28472302067510000001   027000000 0000000000 1806041109          28472302067510000001000000000000002617034107720000511090000500000000000000000000000000000000000000000000000000000000000000000000000000026170000000000000000000000000000000000000000000000002567020000000000000          0000000000000000000000000000000000000000000000000010000091
100000000000000001202500017727X284723                         28472302079910000001   027000000 0000000000 1806041109          28472302079910000001000000000000002216534107450000511090000500000000000000000000000000000000000000000000000000000000000000000000000000022165000000000000000000000000000000000000000000000002166520000000000000          0000000000000000000000000000000000000000000000000010000092
100000000000000001202500017727X284723                         28472302080210000001   027000000 0000000000 1806041109          28472302080210000001000000000000000367434101670000511090000500000000000000000000000000000000000000000000000000000000000000000000000000003674000000000000000000000000000000000000000000000000317420000000000000          0000000000000000000000000000000000000000000000000010000093
100000000000000001202500017727X284723                         28472302136110000001   027000000 0000000000 1806041109          28472302136110000001000000000000000494223738440000511090000500000000000000000000000000000000000000000000000000000000000000000000000000004942000000000000000000000000000000000000000000000000444220000000000000          0000000000000000000000000000000000000000000000000010000094
100000000000000001202500017727X284723                         28472302140X10000001   027000000 0000000000 1806041109          28472302140X10000001000000000000004254623714430000511090000500000000000000000000000000000000000000000000000000000000000000000000000000042546000000000000000000000000000000000000000000000004204620000000000000          0000000000000000000000000000000000000000000000000010000095
100000000000000001202500017727X284723                         28472302156610000001   027000000 0000000000 1806041109          28472302156610000001000000000000004184235601360000511090000500000000000000000000000000000000000000000000000000000000000000000000000000041842000000000000000000000000000000000000000000000004134220000000000000          0000000000000000000000000000000000000000000000000010000096
100000000000000001202500017727X284723                         28472302166310000001   027000000 0000000000 1806041109          28472302166310000001000000000000001398035601360000511090000500000000000000000000000000000000000000000000000000000000000000000000000000013980000000000000000000000000000000000000000000000001348020000000000000          0000000000000000000000000000000000000000000000000010000097
100000000000000001202500017727X284723                         28472302208210000001   027000000 0000000000 1806041109          28472302208210000001000000000000002449103302060000511090000500000000000000000000000000000000000000000000000000000000000000000000000000024491000000000000000000000000000000000000000000000002399120000000000000          0000000000000000000000000000000000000000000000000010000098
100000000000000001202500017727X284723                         28472302249X10000001   027000000 0000000000 1806041109          28472302249X10000001000000000000001400523705000000511090000500000000000000000000000000000000000000000000000000000000000000000000000000014005000000000000000000000000000000000000000000000001350520000000000000          0000000000000000000000000000000000000000000000000010000099
100000000000000001202500017727X284723                         28472302274010000001   027000000 0000000000 1806041109          28472302274010000001000000000000002341034101610000511090000500000000000000000000000000000000000000000000000000000000000000000000000000023410000000000000000000000000000000000000000000000002291020000000000000          0000000000000000000000000000000000000000000000000010000100
100000000000000001202500017727X284723                         28472302298810000001   027000000 0000000000 1806041109          28472302298810000001000000000000000710823737900000511090000500000000000000000000000000000000000000000000000000000000000000000000000000007108000000000000000000000000000000000000000000000000660820000000000000          0000000000000000000000000000000000000000000000000010000101
100000000000000001202500017727X284723                         28472302299610000001   027000000 0000000000 1806041109          28472302299610000001000000000000001954823737900000511090000500000000000000000000000000000000000000000000000000000000000000000000000000019548000000000000000000000000000000000000000000000001904820000000000000          0000000000000000000000000000000000000000000000000010000102
100000000000000001202500017727X284723                         28472302323210000001   027000000 0000000000 1806041109          28472302323210000001000000000000001453334107570000511090000500000000000000000000000000000000000000000000000000000000000000000000000000014533000000000000000000000000000000000000000000000001403320000000000000          0000000000000000000000000000000000000000000000000010000103
100000000000000001202500017727X284723                         28472302332110000001   027000000 0000000000 1806041109          28472302332110000001000000000000001241523737900000511090000500000000000000000000000000000000000000000000000000000000000000000000000000012415000000000000000000000000000000000000000000000001191520000000000000          0000000000000000000000000000000000000000000000000010000104
100000000000000001202500017727X284723                         28472302349610000001   027000000 0000000000 1806041109          28472302349610000001000000000000002118534129250000511090000500000000000000000000000000000000000000000000000000000000000000000000000000021185000000000000000000000000000000000000000000000002068520000000000000          0000000000000000000000000000000000000000000000000010000105
100000000000000001202500017727X284723                         28472302351810000001   027000000 0000000000 1806041109          28472302351810000001000000000000001609023737900000511090000500000000000000000000000000000000000000000000000000000000000000000000000000016090000000000000000000000000000000000000000000000001559020000000000000          0000000000000000000000000000000000000000000000000010000106
100000000000000001202500017727X284723                         28472302418210000001   027000000 0000000000 1806041109          28472302418210000001000000000000000306534107570000511090000500000000000000000000000000000000000000000000000000000000000000000000000000003065000000000000000000000000000000000000000000000000256520000000000000          0000000000000000000000000000000000000000000000000010000107
100000000000000001202500017727X284723                         28472302423910000001   027000000 0000000000 1806041109          28472302423910000001000000000000004944934103670000511090000500000000000000000000000000000000000000000000000000000000000000000000000000049449000000000000000000000000000000000000000000000004894920000000000000          0000000000000000000000000000000000000000000000000010000108
100000000000000001202500017727X284723                         28472302451410000001   027000000 0000000000 1806041109          28472302451410000001000000000000002140034107450000511090000500000000000000000000000000000000000000000000000000000000000000000000000000021400000000000000000000000000000000000000000000000002090020000000000000          0000000000000000000000000000000000000000000000000010000109
100000000000000001202500017727X284723                         28472302478610000001   027000000 0000000000 1806041109          28472302478610000001000000000000001211534101760000511090000500000000000000000000000000000000000000000000000000000000000000000000000000012115000000000000000000000000000000000000000000000001161520000000000000          0000000000000000000000000000000000000000000000000010000110
100000000000000001202500017727X284723                         28472302493X10000001   027000000 0000000000 1806041109          28472302493X10000001000000000000001652334103750000511090000500000000000000000000000000000000000000000000000000000000000000000000000000016523000000000000000000000000000000000000000000000001602320000000000000          0000000000000000000000000000000000000000000000000010000111
100000000000000001202500017727X284723                         28472302503010000001   027000000 0000000000 1806041109          28472302503010000001000000000000002194534107450000511090000500000000000000000000000000000000000000000000000000000000000000000000000000021945000000000000000000000000000000000000000000000002144520000000000000          0000000000000000000000000000000000000000000000000010000112
100000000000000001202500017727X284723                         28472302523510000001   027000000 0000000000 1806041109          28472302523510000001000000000000003510934107370000511090000500000000000000000000000000000000000000000000000000000000000000000000000000035109000000000000000000000000000000000000000000000003460920000000000000          0000000000000000000000000000000000000000000000000010000113
100000000000000001202500017727X284723                         28472302600210000001   027000000 0000000000 1806041109          28472302600210000001000000000000000413534101730000511090000500000000000000000000000000000000000000000000000000000000000000000000000000004135000000000000000000000000000000000000000000000000363520000000000000          0000000000000000000000000000000000000000000000000010000114
100000000000000001202500017727X284723                         28472302635510000001   027000000 0000000000 1806041109          28472302635510000001000000000000000704223704200000511090000500000000000000000000000000000000000000000000000000000000000000000000000000007042000000000000000000000000000000000000000000000000654220000000000000          0000000000000000000000000000000000000000000000000010000115
100000000000000001202500017727X284723                         28472302677010000001   027000000 0000000000 1806041109          28472302677010000001000000000000000581034101730000511090000500000000000000000000000000000000000000000000000000000000000000000000000000005810000000000000000000000000000000000000000000000000531020000000000000          0000000000000000000000000000000000000000000000000010000116
100000000000000001202500017727X284723                         28472302696710000001   027000000 0000000000 1806041109          28472302696710000001000000000000002460034104280000511090000500000000000000000000000000000000000000000000000000000000000000000000000000024600000000000000000000000000000000000000000000000002410020000000000000          0000000000000000000000000000000000000000000000000010000117
100000000000000001202500017727X284723                         28472302716510000001   027000000 0000000000 1806041109          28472302716510000001000000000000001771023737900000511090000500000000000000000000000000000000000000000000000000000000000000000000000000017710000000000000000000000000000000000000000000000001721020000000000000          0000000000000000000000000000000000000000000000000010000118
100000000000000001202500017727X284723                         28472302717310000001   027000000 0000000000 1806041109          28472302717310000001000000000000001655523737900000511090000500000000000000000000000000000000000000000000000000000000000000000000000000016555000000000000000000000000000000000000000000000001605520000000000000          0000000000000000000000000000000000000000000000000010000119
100000000000000001202500017727X284723                         28472302735110000001   027000000 0000000000 1806041109          28472302735110000001000000000000000410523737860000511090000500000000000000000000000000000000000000000000000000000000000000000000000000004105000000000000000000000000000000000000000000000000360520000000000000          0000000000000000000000000000000000000000000000000010000120
100000000000000001202500017727X284723                         28472302765310000001   027000000 0000000000 1806041109          28472302765310000001000000000000000688910440710000511090000500000000000000000000000000000000000000000000000000000000000000000000000000006889000000000000000000000000000000000000000000000000638920000000000000          0000000000000000000000000000000000000000000000000010000121
100000000000000001202500017727X284723                         28472302788210000001   027000000 0000000000 1806041109          28472302788210000001000000000000001658035600040000511090000500000000000000000000000000000000000000000000000000000000000000000000000000016580000000000000000000000000000000000000000000000001608020000000000000          0000000000000000000000000000000000000000000000000010000122
100000000000000001202500017727X284723                         28472302815310000001   027000000 0000000000 1806041109          28472302815310000001000000000000001199534116100000511090000500000000000000000000000000000000000000000000000000000000000000000000000000011995000000000000000000000000000000000000000000000001149520000000000000          0000000000000000000000000000000000000000000000000010000123
100000000000000001202500017727X284723                         28472302839010000001   027000000 0000000000 1806041109          28472302839010000001000000000000001765034100740000511090000500000000000000000000000000000000000000000000000000000000000000000000000000017650000000000000000000000000000000000000000000000001715020000000000000          0000000000000000000000000000000000000000000000000010000124
100000000000000001202500017727X284723                         28472302935410000001   027000000 0000000000 1806041109          28472302935410000001000000000000002240023724770000511090000500000000000000000000000000000000000000000000000000000000000000000000000000022400000000000000000000000000000000000000000000000002190020000000000000          0000000000000000000000000000000000000000000000000010000125
100000000000000001202500017727X284723                         28472302948610000001   027000000 0000000000 1806041109          28472302948610000001000000000000002659535608270000511090000500000000000000000000000000000000000000000000000000000000000000000000000000026595000000000000000000000000000000000000000000000002609520000000000000          0000000000000000000000000000000000000000000000000010000126
100000000000000001202500017727X284723                         28472302949410000001   027000000 0000000000 1806041109          28472302949410000001000000000000002234535608270000511090000500000000000000000000000000000000000000000000000000000000000000000000000000022345000000000000000000000000000000000000000000000002184520000000000000          0000000000000000000000000000000000000000000000000010000127
100000000000000001202500017727X284723                         28472302959110000001   027000000 0000000000 1806041109          28472302959110000001000000000000000590610402630000511090000500000000000000000000000000000000000000000000000000000000000000000000000000005906000000000000000000000000000000000000000000000000540620000000000000          0000000000000000000000000000000000000000000000000010000128
100000000000000001202500017727X284723                         28472302962110000001   027000000 0000000000 1806041109          28472302962110000001000000000000000389403302120000511090000500000000000000000000000000000000000000000000000000000000000000000000000000003894000000000000000000000000000000000000000000000000339420000000000000          0000000000000000000000000000000000000000000000000010000129
100000000000000001202500017727X284723                         28472302979610000001   027000000 0000000000 1806041109          28472302979610000001000000000000001408434107570000511090000500000000000000000000000000000000000000000000000000000000000000000000000000014084000000000000000000000000000000000000000000000001358420000000000000          0000000000000000000000000000000000000000000000000010000130
100000000000000001202500017727X284723                         28472302991510000001   027000000 0000000000 1806041109          28472302991510000001000000000000002381223731750000511090000500000000000000000000000000000000000000000000000000000000000000000000000000023812000000000000000000000000000000000000000000000002331220000000000000          0000000000000000000000000000000000000000000000000010000131
100000000000000001202500017727X284723                         28472302993110000001   027000000 0000000000 1806041109          28472302993110000001000000000000001412003301450000511090000500000000000000000000000000000000000000000000000000000000000000000000000000014120000000000000000000000000000000000000000000000001362020000000000000          0000000000000000000000000000000000000000000000000010000132
100000000000000001202500017727X284723                         28472303017410000001   027000000 0000000000 1806041109          28472303017410000001000000000000003123023710740000511090000500000000000000000000000000000000000000000000000000000000000000000000000000031230000000000000000000000000000000000000000000000003073020000000000000          0000000000000000000000000000000000000000000000000010000133
100000000000000001202500017727X284723                         28472303027110000001   027000000 0000000000 1806041109          28472303027110000001000000000000000808515105550000511090000500000000000000000000000000000000000000000000000000000000000000000000000000008085000000000000000000000000000000000000000000000000758520000000000000          0000000000000000000000000000000000000000000000000010000134
100000000000000001202500017727X284723                         28472303079410000001   027000000 0000000000 1806041109          28472303079410000001000000000000004037023738440000511090000500000000000000000000000000000000000000000000000000000000000000000000000000040370000000000000000000000000000000000000000000000003987020000000000000          0000000000000000000000000000000000000000000000000010000135
100000000000000001202500017727X284723                         28472303082410000001   027000000 0000000000 1806041109          28472303082410000001000000000000001429010402730000511090000500000000000000000000000000000000000000000000000000000000000000000000000000014290000000000000000000000000000000000000000000000001379020000000000000          0000000000000000000000000000000000000000000000000010000136
100000000000000001202500017727X284723                         28472303087510000001   027000000 0000000000 1806041109          28472303087510000001000000000000001073934107570000511090000500000000000000000000000000000000000000000000000000000000000000000000000000010739000000000000000000000000000000000000000000000001023920000000000000          0000000000000000000000000000000000000000000000000010000137
100000000000000001202500017727X284723                         28472303089110000001   027000000 0000000000 1806041109          28472303089110000001000000000000006908034101730000511090000500000000000000000000000000000000000000000000000000000000000000000000000000069080000000000000000000000000000000000000000000000006858020000000000000          0000000000000000000000000000000000000000000000000010000138
100000000000000001202500017727X284723                         28472303090510000001   027000000 0000000000 1806041109          28472303090510000001000000000000002265023737900000511090000500000000000000000000000000000000000000000000000000000000000000000000000000022650000000000000000000000000000000000000000000000002215020000000000000          0000000000000000000000000000000000000000000000000010000139
100000000000000001202500017727X284723                         28472303097210000001   027000000 0000000000 1806041109          28472303097210000001000000000000005008140913940000511090000500000000000000000000000000000000000000000000000000000000000000000000000000050081000000000000000000000000000000000000000000000004958120000000000000          0000000000000000000000000000000000000000000000000010000140
100000000000000001202500017727X284723                         28472303133210000001   027000000 0000000000 1806041109          28472303133210000001000000000000000368015105550000511090000500000000000000000000000000000000000000000000000000000000000000000000000000003680000000000000000000000000000000000000000000000000318020000000000000          0000000000000000000000000000000000000000000000000010000141
100000000000000001202500017727X284723                         28472303134010000001   027000000 0000000000 1806041109          28472303134010000001000000000000000367434105530000511090000500000000000000000000000000000000000000000000000000000000000000000000000000003674000000000000000000000000000000000000000000000000317420000000000000          0000000000000000000000000000000000000000000000000010000142
100000000000000001202500017727X284723                         28472303152910000001   027000000 0000000000 1806041109          28472303152910000001000000000000002280035607270000511090000500000000000000000000000000000000000000000000000000000000000000000000000000022800000000000000000000000000000000000000000000000002230020000000000000          0000000000000000000000000000000000000000000000000010000143
100000000000000001202500017727X284723                         28472303171510000001   027000000 0000000000 1806041109          28472303171510000001000000000000000336840903540000511090000500000000000000000000000000000000000000000000000000000000000000000000000000003368000000000000000000000000000000000000000000000000286820000000000000          0000000000000000000000000000000000000000000000000010000144
100000000000000001202500017727X284723                         28472303229010000001   027000000 0000000000 1806041109          28472303229010000001000000000000001056334148330000511090000500000000000000000000000000000000000000000000000000000000000000000000000000010563000000000000000000000000000000000000000000000001006320000000000000          0000000000000000000000000000000000000000000000000010000145
100000000000000001202500017727X284723                         28472303305X10000001   027000000 0000000000 1806041109          28472303305X10000001000000000000001408134132400000511090000500000000000000000000000000000000000000000000000000000000000000000000000000014081000000000000000000000000000000000000000000000001358120000000000000          0000000000000000000000000000000000000000000000000010000146
100000000000000001202500017727X284723                         28472303353X10000001   027000000 0000000000 1806041109          28472303353X10000001000000000000000607015105550000511090000500000000000000000000000000000000000000000000000000000000000000000000000000006070000000000000000000000000000000000000000000000000557020000000000000          0000000000000000000000000000000000000000000000000010000147
100000000000000001202500017727X284723                         28472303404810000001   027000000 0000000000 1806041109          28472303404810000001000000000000001157423728830000511090000500000000000000000000000000000000000000000000000000000000000000000000000000011574000000000000000000000000000000000000000000000001107420000000000000          0000000000000000000000000000000000000000000000000010000148
100000000000000001202500017727X284723                         28472303448X10000001   027000000 0000000000 1806041109          28472303448X10000001000000000000000336823701370000511090000500000000000000000000000000000000000000000000000000000000000000000000000000003368000000000000000000000000000000000000000000000000286820000000000000          0000000000000000000000000000000000000000000000000010000149
100000000000000001202500017727X284723                         28472303459510000001   027000000 0000000000 1806041109          28472303459510000001000000000000000340023703010000511090000500000000000000000000000000000000000000000000000000000000000000000000000000003400000000000000000000000000000000000000000000000000290020000000000000          0000000000000000000000000000000000000000000000000010000150
100000000000000001202500017727X284723                         28472303491910000001   027000000 0000000000 1806041109          28472303491910000001000000000000001408434107580000511090000500000000000000000000000000000000000000000000000000000000000000000000000000014084000000000000000000000000000000000000000000000001358420000000000000          0000000000000000000000000000000000000000000000000010000151
100000000000000001202500017727X284723                         28472303551610000001   027000000 0000000000 1806041109          28472303551610000001000000000000000355515105550000511090000500000000000000000000000000000000000000000000000000000000000000000000000000003555000000000000000000000000000000000000000000000000305520000000000000          0000000000000000000000000000000000000000000000000010000152
100000000000000001202500017727X284723                         28472303560510000001   027000000 0000000000 1806041109          28472303560510000001000000000000001059003321740000511090000500000000000000000000000000000000000000000000000000000000000000000000000000010590000000000000000000000000000000000000000000000001009020000000000000          0000000000000000000000000000000000000000000000000010000153
100000000000000001202500017727X284723                         28472303633410000001   027000000 0000000000 1806041109          28472303633410000001000000000000000503534107720000511090000500000000000000000000000000000000000000000000000000000000000000000000000000005035000000000000000000000000000000000000000000000000453520000000000000          0000000000000000000000000000000000000000000000000010000154
100000000000000001202500017727X284723                         28472303645810000001   027000000 0000000000 1806041109          28472303645810000001000000000000000188423705000000511090000500000000000000000000000000000000000000000000000000000000000000000000000000001884000000000000000000000000000000000000000000000000138420000000000000          0000000000000000000000000000000000000000000000000010000155
100000000000000001202500017727X284723                         28472303659810000001   027000000 0000000000 1806041109          28472303659810000001000000000000000367434101730000511090000500000000000000000000000000000000000000000000000000000000000000000000000000003674000000000000000000000000000000000000000000000000317420000000000000          0000000000000000000000000000000000000000000000000010000156
100000000000000001202500017727X284723                         28472303695410000001   027000000 0000000000 1806041109          28472303695410000001000000000000004149823704220000511090000500000000000000000000000000000000000000000000000000000000000000000000000000041498000000000000000000000000000000000000000000000004099820000000000000          0000000000000000000000000000000000000000000000000010000157
100000000000000001202500017727X284723                         28472303699710000001   027000000 0000000000 1806041109          28472303699710000001000000000000000355134101520000511090000500000000000000000000000000000000000000000000000000000000000000000000000000003551000000000000000000000000000000000000000000000000305120000000000000          0000000000000000000000000000000000000000000000000010000158
100000000000000001202500017727X284723                         28472303715210000001   027000000 0000000000 1806041109          28472303715210000001000000000000000704223720030000511090000500000000000000000000000000000000000000000000000000000000000000000000000000007042000000000000000000000000000000000000000000000000654220000000000000          0000000000000000000000000000000000000000000000000010000159
100000000000000001202500017727X284723                         28472303741110000001   027000000 0000000000 1806041109          28472303741110000001000000000000000690034101670000511090000500000000000000000000000000000000000000000000000000000000000000000000000000006900000000000000000000000000000000000000000000000000640020000000000000          0000000000000000000000000000000000000000000000000010000160
100000000000000001202500017727X284723                         28472303744610000001   027000000 0000000000 1806041109          28472303744610000001000000000000001143823702000000511090000500000000000000000000000000000000000000000000000000000000000000000000000000011438000000000000000000000000000000000000000000000001093820000000000000          0000000000000000000000000000000000000000000000000010000161
100000000000000001202500017727X284723                         28472303750010000001   027000000 0000000000 1806041109          28472303750010000001000000000000001553034129650000511090000500000000000000000000000000000000000000000000000000000000000000000000000000015530000000000000000000000000000000000000000000000001503020000000000000          0000000000000000000000000000000000000000000000000010000162
100000000000000001202500017727X284723                         28472303752710000001   027000000 0000000000 1806041109          28472303752710000001000000000000000802534100810000511090000500000000000000000000000000000000000000000000000000000000000000000000000000008025000000000000000000000000000000000000000000000000752520000000000000          0000000000000000000000000000000000000000000000000010000163
100000000000000001202500017727X284723                         28472303757810000001   027000000 0000000000 1806041109          28472303757810000001000000000000000515534107750000511090000500000000000000000000000000000000000000000000000000000000000000000000000000005155000000000000000000000000000000000000000000000000465520000000000000          0000000000000000000000000000000000000000000000000010000164
100000000000000001202500017727X284723                         28472303787X10000001   027000000 0000000000 1806041109          28472303787X10000001000000000000002112623722720000511090000500000000000000000000000000000000000000000000000000000000000000000000000000021126000000000000000000000000000000000000000000000002062620000000000000          0000000000000000000000000000000000000000000000000010000165
100000000000000001202500017727X284723                         28472303817510000001   027000000 0000000000 1806041109          28472303817510000001000000000000001775834103780000511090000500000000000000000000000000000000000000000000000000000000000000000000000000017758000000000000000000000000000000000000000000000001725820000000000000          0000000000000000000000000000000000000000000000000010000166
100000000000000001202500017727X284723                         28472303863910000001   027000000 0000000000 1806041109          28472303863910000001000000000000001209934107570000511090000500000000000000000000000000000000000000000000000000000000000000000000000000012099000000000000000000000000000000000000000000000001159920000000000000          0000000000000000000000000000000000000000000000000010000167
100000000000000001202500017727X284723                         28472303878710000001   027000000 0000000000 1806041109          28472303878710000001000000000000000336823700550000511090000500000000000000000000000000000000000000000000000000000000000000000000000000003368000000000000000000000000000000000000000000000000286820000000000000          0000000000000000000000000000000000000000000000000010000168
100000000000000001202500017727X284723                         28472303879510000001   027000000 0000000000 1806041109          28472303879510000001000000000000000387334107570000511090000500000000000000000000000000000000000000000000000000000000000000000000000000003873000000000000000000000000000000000000000000000000337320000000000000          0000000000000000000000000000000000000000000000000010000169
100000000000000001202500017727X284723                         28472303895710000001   027000000 0000000000 1806041109          28472303895710000001000000000000003209634107570000511090000500000000000000000000000000000000000000000000000000000000000000000000000000032096000000000000000000000000000000000000000000000003159620000000000000          0000000000000000000000000000000000000000000000000010000170
100000000000000001202500017727X284723                         28472303933310000001   027000000 0000000000 1806041109          28472303933310000001000000000000002121434107720000511090000500000000000000000000000000000000000000000000000000000000000000000000000000021214000000000000000000000000000000000000000000000002071420000000000000          0000000000000000000000000000000000000000000000000010000171
100000000000000001202500017727X284723                         28472303943010000001   027000000 0000000000 1806041109          28472303943010000001000000000000002112623717890000511090000500000000000000000000000000000000000000000000000000000000000000000000000000021126000000000000000000000000000000000000000000000002062620000000000000          0000000000000000000000000000000000000000000000000010000172
100000000000000001202500017727X284723                         28472303958910000001   027000000 0000000000 1806041109          28472303958910000001000000000000000368034101730000511090000500000000000000000000000000000000000000000000000000000000000000000000000000003680000000000000000000000000000000000000000000000000318020000000000000          0000000000000000000000000000000000000000000000000010000173
100000000000000001202500017727X284723                         28472303964310000001   027000000 0000000000 1806041109          28472303964310000001000000000000001696034104280000511090000500000000000000000000000000000000000000000000000000000000000000000000000000016960000000000000000000000000000000000000000000000001646020000000000000          0000000000000000000000000000000000000000000000000010000174
100000000000000001202500017727X284723                         28472303970810000001   027000000 0000000000 1806041109          28472303970810000001000000000000001494034101730000511090000500000000000000000000000000000000000000000000000000000000000000000000000000014940000000000000000000000000000000000000000000000001444020000000000000          0000000000000000000000000000000000000000000000000010000175
100000000000000001202500017727X284723                         28472303975910000001   027000000 0000000000 1806041109          28472303975910000001000000000000003939015105550000511090000500000000000000000000000000000000000000000000000000000000000000000000000000039390000000000000000000000000000000000000000000000003889020000000000000          0000000000000000000000000000000000000000000000000010000176
100000000000000001202500017727X284723                         28472304019610000001   027000000 0000000000 1806041109          28472304019610000001000000000000003779939918530000511090000500000000000000000000000000000000000000000000000000000000000000000000000000037799000000000000000000000000000000000000000000000003729920000000000000          0000000000000000000000000000000000000000000000000010000177
100000000000000001202500017727X284723                         28472304026910000001   027000000 0000000000 1806041109          28472304026910000001000000000000003644034103830000511090000500000000000000000000000000000000000000000000000000000000000000000000000000036440000000000000000000000000000000000000000000000003594020000000000000          0000000000000000000000000000000000000000000000000010000178
100000000000000001202500017727X284723                         28472304053610000001   027000000 0000000000 1806041109          28472304053610000001000000000000002261535604090000511090000500000000000000000000000000000000000000000000000000000000000000000000000000022615000000000000000000000000000000000000000000000002211520000000000000          0000000000000000000000000000000000000000000000000010000179
100000000000000001202500017727X284723                         28472304085410000001   027000000 0000000000 1806041109          28472304085410000001000000000000003439523704500000511090000500000000000000000000000000000000000000000000000000000000000000000000000000034395000000000000000000000000000000000000000000000003389520000000000000          0000000000000000000000000000000000000000000000000010000180
100000000000000001202500017727X284723                         28472304154010000001   027000000 0000000000 1806041109          28472304154010000001000000000000003352634103470000511090000500000000000000000000000000000000000000000000000000000000000000000000000000033526000000000000000000000000000000000000000000000003302620000000000000          0000000000000000000000000000000000000000000000000010000181
100000000000000001202500017727X284723                         28472304165610000001   027000000 0000000000 1806041109          28472304165610000001000000000000002186134105930000511090000500000000000000000000000000000000000000000000000000000000000000000000000000021861000000000000000000000000000000000000000000000002136120000000000000          0000000000000000000000000000000000000000000000000010000182
100000000000000001202500017727X284723                         28472304191510000001   027000000 0000000000 1806041109          28472304191510000001000000000000000542423737900000511090000500000000000000000000000000000000000000000000000000000000000000000000000000005424000000000000000000000000000000000000000000000000492420000000000000          0000000000000000000000000000000000000000000000000010000183
100000000000000001202500017727X284723                         28472304207510000001   027000000 0000000000 1806041109          28472304207510000001000000000000001056334107570000511090000500000000000000000000000000000000000000000000000000000000000000000000000000010563000000000000000000000000000000000000000000000001006320000000000000          0000000000000000000000000000000000000000000000000010000184
100000000000000001202500017727X284723                         28472304247410000001   027000000 0000000000 1806041109          28472304247410000001000000000000002701503302360000511090000500000000000000000000000000000000000000000000000000000000000000000000000000027015000000000000000000000000000000000000000000000002651520000000000000          0000000000000000000000000000000000000000000000000010000185
100000000000000001202500017727X284723                         28472304262810000001   027000000 0000000000 1806041109          28472304262810000001000000000000003139139904690000511090000500000000000000000000000000000000000000000000000000000000000000000000000000031391000000000000000000000000000000000000000000000003089120000000000000          0000000000000000000000000000000000000000000000000010000186
100000000000000001202500017727X284723                         28472304323310000001   027000000 0000000000 1806041109          28472304323310000001000000000000002360034107410000511090000500000000000000000000000000000000000000000000000000000000000000000000000000023600000000000000000000000000000000000000000000000002310020000000000000          0000000000000000000000000000000000000000000000000010000187
100000000000000001202500017727X284723                         28472304326810000001   027000000 0000000000 1806041109          28472304326810000001000000000000001971523705500000511090000500000000000000000000000000000000000000000000000000000000000000000000000000019715000000000000000000000000000000000000000000000001921520000000000000          0000000000000000000000000000000000000000000000000010000188
100000000000000001202500017727X284723                         28472304356X10000001   027000000 0000000000 1806041109          28472304356X10000001000000000000000367434132400000511090000500000000000000000000000000000000000000000000000000000000000000000000000000003674000000000000000000000000000000000000000000000000317420000000000000          0000000000000000000000000000000000000000000000000010000189
100000000000000001202500017727X284723                         28472304387X10000001   027000000 0000000000 1806041109          28472304387X10000001000000000000002216534104280000511090000500000000000000000000000000000000000000000000000000000000000000000000000000022165000000000000000000000000000000000000000000000002166520000000000000          0000000000000000000000000000000000000000000000000010000190
100000000000000001202500017727X284723                         28472304393410000001   027000000 0000000000 1806041109          28472304393410000001000000000000002832234108450000511090000500000000000000000000000000000000000000000000000000000000000000000000000000028322000000000000000000000000000000000000000000000002782220000000000000          0000000000000000000000000000000000000000000000000010000191
100000000000000001202500017727X284723                         28472304422110000001   027000000 0000000000 1806041109          28472304422110000001000000000000003404135607270000511090000500000000000000000000000000000000000000000000000000000000000000000000000000034041000000000000000000000000000000000000000000000003354120000000000000          0000000000000000000000000000000000000000000000000010000192
100000000000000001202500017727X284723                         28472304473610000001   027000000 0000000000 1806041109          28472304473610000001000000000000000940734129690000511090000500000000000000000000000000000000000000000000000000000000000000000000000000009407000000000000000000000000000000000000000000000000890720000000000000          0000000000000000000000000000000000000000000000000010000193
100000000000000001202500017727X284723                         28472304498110000001   027000000 0000000000 1806041109          28472304498110000001000000000000001745240900590000511090000500000000000000000000000000000000000000000000000000000000000000000000000000017452000000000000000000000000000000000000000000000001695220000000000000          0000000000000000000000000000000000000000000000000010000194
100000000000000001202500017727X284723                         28472304545710000001   027000000 0000000000 1806041109          28472304545710000001000000000000001808834107570000511090000500000000000000000000000000000000000000000000000000000000000000000000000000018088000000000000000000000000000000000000000000000001758820000000000000          0000000000000000000000000000000000000000000000000010000195
100000000000000001202500017727X284723                         28472304552X10000001   027000000 0000000000 1806041109          28472304552X10000001000000000000002855034101920000511090000500000000000000000000000000000000000000000000000000000000000000000000000000028550000000000000000000000000000000000000000000000002805020000000000000          0000000000000000000000000000000000000000000000000010000196
100000000000000001202500017727X284723                         28472304634810000001   027000000 0000000000 1806041109          28472304634810000001000000000000002803015105550000511090000500000000000000000000000000000000000000000000000000000000000000000000000000028030000000000000000000000000000000000000000000000002753020000000000000          0000000000000000000000000000000000000000000000000010000197
100000000000000001202500017727X284723                         28472304654210000001   027000000 0000000000 1806041109          28472304654210000001000000000000001448034101770000511090000500000000000000000000000000000000000000000000000000000000000000000000000000014480000000000000000000000000000000000000000000000001398020000000000000          0000000000000000000000000000000000000000000000000010000198
100000000000000001202500017727X284723                         28472304682810000001   027000000 0000000000 1806041109          28472304682810000001000000000000004194434148330000511090000500000000000000000000000000000000000000000000000000000000000000000000000000041944000000000000000000000000000000000000000000000004144420000000000000          0000000000000000000000000000000000000000000000000010000199
100000000000000001202500017727X284723                         28472304696810000001   027000000 0000000000 1806041109          28472304696810000001000000000000002080034103830000511090000500000000000000000000000000000000000000000000000000000000000000000000000000020800000000000000000000000000000000000000000000000002030020000000000000          0000000000000000000000000000000000000000000000000010000200
100000000000000001202500017727X284723                         28472304711510000001   027000000 0000000000 1806041109          28472304711510000001000000000000002213334107570000511090000500000000000000000000000000000000000000000000000000000000000000000000000000022133000000000000000000000000000000000000000000000002163320000000000000          0000000000000000000000000000000000000000000000000010000201
100000000000000001202500017727X284723                         28472304712310000001   027000000 0000000000 1806041109          28472304712310000001000000000000002719034101730000511090000500000000000000000000000000000000000000000000000000000000000000000000000000027190000000000000000000000000000000000000000000000002669020000000000000          0000000000000000000000000000000000000000000000000010000202
100000000000000001202500017727X284723                         28472304741710000001   027000000 0000000000 1806041109          28472304741710000001000000000000002783034100670000511090000500000000000000000000000000000000000000000000000000000000000000000000000000027830000000000000000000000000000000000000000000000002733020000000000000          0000000000000000000000000000000000000000000000000010000203
100000000000000001202500017727X284723                         28472304747610000001   027000000 0000000000 1806041109          28472304747610000001000000000000002235523737900000511090000500000000000000000000000000000000000000000000000000000000000000000000000000022355000000000000000000000000000000000000000000000002185520000000000000          0000000000000000000000000000000000000000000000000010000204
100000000000000001202500017727X284723                         28472304821910000001   027000000 0000000000 1806041109          28472304821910000001000000000000000212823705000000511090000500000000000000000000000000000000000000000000000000000000000000000000000000002128000000000000000000000000000000000000000000000000162820000000000000          0000000000000000000000000000000000000000000000000010000205
100000000000000001202500017727X284723                         28472304850210000001   027000000 0000000000 1806041109          28472304850210000001000000000000000673634107570000511090000500000000000000000000000000000000000000000000000000000000000000000000000000006736000000000000000000000000000000000000000000000000623620000000000000          0000000000000000000000000000000000000000000000000010000206
100000000000000001202500017727X284723                         28472304901010000001   027000000 0000000000 1806041109          28472304901010000001000000000000001919323737900000511090000500000000000000000000000000000000000000000000000000000000000000000000000000019193000000000000000000000000000000000000000000000001869320000000000000          0000000000000000000000000000000000000000000000000010000207
100000000000000001202500017727X284723                         28472304908810000001   027000000 0000000000 1806041109          28472304908810000001000000000000000377035608270000511090000500000000000000000000000000000000000000000000000000000000000000000000000000003770000000000000000000000000000000000000000000000000327020000000000000          0000000000000000000000000000000000000000000000000010000208
100000000000000001202500017727X284723                         28472304909610000001   027000000 0000000000 1806041109          28472304909610000001000000000000000232634107570000511090000500000000000000000000000000000000000000000000000000000000000000000000000000002326000000000000000000000000000000000000000000000000182620000000000000          0000000000000000000000000000000000000000000000000010000209
100000000000000001202500017727X284723                         28472304911810000001   027000000 0000000000 1806041109          28472304911810000001000000000000002185023737900000511090000500000000000000000000000000000000000000000000000000000000000000000000000000021850000000000000000000000000000000000000000000000002135020000000000000          0000000000000000000000000000000000000000000000000010000210
100000000000000001202500017727X284723                         28472304912610000001   027000000 0000000000 1806041109          28472304912610000001000000000000002888523737900000511090000500000000000000000000000000000000000000000000000000000000000000000000000000028885000000000000000000000000000000000000000000000002838520000000000000          0000000000000000000000000000000000000000000000000010000211
100000000000000001202500017727X284723                         28472304913410000001   027000000 0000000000 1806041109          28472304913410000001000000000000001913023737900000511090000500000000000000000000000000000000000000000000000000000000000000000000000000019130000000000000000000000000000000000000000000000001863020000000000000          0000000000000000000000000000000000000000000000000010000212
100000000000000001202500017727X284723                         28472304914210000001   027000000 0000000000 1806041109          28472304914210000001000000000000002034523737900000511090000500000000000000000000000000000000000000000000000000000000000000000000000000020345000000000000000000000000000000000000000000000001984520000000000000          0000000000000000000000000000000000000000000000000010000213
100000000000000001202500017727X284723                         28472304915010000001   027000000 0000000000 1806041109          28472304915010000001000000000000001844023737900000511090000500000000000000000000000000000000000000000000000000000000000000000000000000018440000000000000000000000000000000000000000000000001794020000000000000          0000000000000000000000000000000000000000000000000010000214
100000000000000001202500017727X284723                         28472304969X10000001   027000000 0000000000 1806041109          28472304969X10000001000000000000001072623737900000511090000500000000000000000000000000000000000000000000000000000000000000000000000000010726000000000000000000000000000000000000000000000001022620000000000000          0000000000000000000000000000000000000000000000000010000215
100000000000000001202500017727X284723                         28472305004310000001   027000000 0000000000 1806041109          28472305004310000001000000000000001085134107570000511090000500000000000000000000000000000000000000000000000000000000000000000000000000010851000000000000000000000000000000000000000000000001035120000000000000          0000000000000000000000000000000000000000000000000010000216
100000000000000001202500017727X284723                         28472305146510000001   027000000 0000000000 1806041109          28472305146510000001000000000000001339734107410000511090000500000000000000000000000000000000000000000000000000000000000000000000000000013397000000000000000000000000000000000000000000000001289720000000000000          0000000000000000000000000000000000000000000000000010000217
100000000000000001202500017727X284723                         28472305204610000001   027000000 0000000000 1806041109          28472305204610000001000000000000000411903301450000511090000500000000000000000000000000000000000000000000000000000000000000000000000000004119000000000000000000000000000000000000000000000000361920000000000000          0000000000000000000000000000000000000000000000000010000218
100000000000000001202500017727X284723                         28472305264X10000001   027000000 0000000000 1806041109          28472305264X10000001000000000000002688034108450000511090000500000000000000000000000000000000000000000000000000000000000000000000000000026880000000000000000000000000000000000000000000000002638020000000000000          0000000000000000000000000000000000000000000000000010000219
100000000000000001202500017727X284723                         28472305268210000001   027000000 0000000000 1806041109          28472305268210000001000000000000002420434108450000511090000500000000000000000000000000000000000000000000000000000000000000000000000000024204000000000000000000000000000000000000000000000002370420000000000000          0000000000000000000000000000000000000000000000000010000220
100000000000000001202500017727X284723                         28472305281X10000001   027000000 0000000000 1806041109          28472305281X10000001000000000000002913510402390000511090000500000000000000000000000000000000000000000000000000000000000000000000000000029135000000000000000000000000000000000000000000000002863520000000000000          0000000000000000000000000000000000000000000000000010000221
100000000000000001202500017727X284723                         28472305304210000001   027000000 0000000000 1806041109          28472305304210000001000000000000003982023737900000511090000500000000000000000000000000000000000000000000000000000000000000000000000000039820000000000000000000000000000000000000000000000003932020000000000000          0000000000000000000000000000000000000000000000000010000222
100000000000000001202500017727X284723                         28472305319010000001   027000000 0000000000 1806041109          28472305319010000001000000000000001378834107570000511090000500000000000000000000000000000000000000000000000000000000000000000000000000013788000000000000000000000000000000000000000000000001328820000000000000          0000000000000000000000000000000000000000000000000010000223
100000000000000001202500017727X284723                         28472305360310000001   027000000 0000000000 1806041109          28472305360310000001000000000000002056734107570000511090000500000000000000000000000000000000000000000000000000000000000000000000000000020567000000000000000000000000000000000000000000000002006720000000000000          0000000000000000000000000000000000000000000000000010000224
100000000000000001202500017727X284723                         28472305396410000001   027000000 0000000000 1806041109          28472305396410000001000000000000000565534101730000511090000500000000000000000000000000000000000000000000000000000000000000000000000000005655000000000000000000000000000000000000000000000000515520000000000000          0000000000000000000000000000000000000000000000000010000225
100000000000000001202500017727X284723                         28472305426X10000001   027000000 0000000000 1806041109          28472305426X10000001000000000000000658035606330000511090000500000000000000000000000000000000000000000000000000000000000000000000000000006580000000000000000000000000000000000000000000000000608020000000000000          0000000000000000000000000000000000000000000000000010000226
100000000000000001202500017727X284723                         28472305494410000001   027000000 0000000000 1806041109          28472305494410000001000000000000001704034171300000511090000500000000000000000000000000000000000000000000000000000000000000000000000000017040000000000000000000000000000000000000000000000001654020000000000000          0000000000000000000000000000000000000000000000000010000227
100000000000000001202500017727X284723                         28472305528210000001   027000000 0000000000 1806041109          28472305528210000001000000000000000371034101730000511090000500000000000000000000000000000000000000000000000000000000000000000000000000003710000000000000000000000000000000000000000000000000321020000000000000          0000000000000000000000000000000000000000000000000010000228
100000000000000001202500017727X284723                         28472305542810000001   027000000 0000000000 1806041109          28472305542810000001000000000000000881023737900000511090000500000000000000000000000000000000000000000000000000000000000000000000000000008810000000000000000000000000000000000000000000000000831020000000000000          0000000000000000000000000000000000000000000000000010000229
100000000000000001202500017727X284723                         28472305555X10000001   027000000 0000000000 1806041109          28472305555X10000001000000000000000399539907010000511090000500000000000000000000000000000000000000000000000000000000000000000000000000003995000000000000000000000000000000000000000000000000349520000000000000          0000000000000000000000000000000000000000000000000010000230
100000000000000001202500017727X284723                         28472305707210000001   027000000 0000000000 1806041109          28472305707210000001000000000000000429034101730000511090000500000000000000000000000000000000000000000000000000000000000000000000000000004290000000000000000000000000000000000000000000000000379020000000000000          0000000000000000000000000000000000000000000000000010000231
100000000000000001202500017727X284723                         28472305717X10000001   027000000 0000000000 1806041109          28472305717X10000001000000000000001139239904050000511090000500000000000000000000000000000000000000000000000000000000000000000000000000011392000000000000000000000000000000000000000000000001089220000000000000          0000000000000000000000000000000000000000000000000010000232
100000000000000001202500017727X284723                         28472305748X10000001   027000000 0000000000 1806041109          28472305748X10000001000000000000001686434107410000511090000500000000000000000000000000000000000000000000000000000000000000000000000000016864000000000000000000000000000000000000000000000001636420000000000000          0000000000000000000000000000000000000000000000000010000233
100000000000000001202500017727X284723                         28472305753610000001   027000000 0000000000 1806041109          28472305753610000001000000000000002645034107450000511090000500000000000000000000000000000000000000000000000000000000000000000000000000026450000000000000000000000000000000000000000000000002595020000000000000          0000000000000000000000000000000000000000000000000010000234
100000000000000001202500017727X284723                         28472305812510000001   027000000 0000000000 1806041109          28472305812510000001000000000000000967623737900000511090000500000000000000000000000000000000000000000000000000000000000000000000000000009676000000000000000000000000000000000000000000000000917620000000000000          0000000000000000000000000000000000000000000000000010000235
100000000000000001202500017727X284723                         28472305827310000001   027000000 0000000000 1806041109          28472305827310000001000000000000000183723705000000511090000500000000000000000000000000000000000000000000000000000000000000000000000000001837000000000000000000000000000000000000000000000000133720000000000000          0000000000000000000000000000000000000000000000000010000236
100000000000000001202500017727X284723                         28472305840010000001   027000000 0000000000 1806041109          28472305840010000001000000000000000352234101730000511090000500000000000000000000000000000000000000000000000000000000000000000000000000003522000000000000000000000000000000000000000000000000302220000000000000          0000000000000000000000000000000000000000000000000010000237
100000000000000001202500017727X284723                         28472305857510000001   027000000 0000000000 1806041109          28472305857510000001000000000000000352134140880000511090000500000000000000000000000000000000000000000000000000000000000000000000000000003521000000000000000000000000000000000000000000000000302120000000000000          0000000000000000000000000000000000000000000000000010000238
100000000000000001202500017727X284723                         28472305880X10000001   027000000 0000000000 1806041109          28472305880X10000001000000000000002824934108440000511090000500000000000000000000000000000000000000000000000000000000000000000000000000028249000000000000000000000000000000000000000000000002774920000000000000          0000000000000000000000000000000000000000000000000010000239
100000000000000001202500017727X284723                         28472305932610000001   027000000 0000000000 1806041109          28472305932610000001000000000000001432734101730000511090000500000000000000000000000000000000000000000000000000000000000000000000000000014327000000000000000000000000000000000000000000000001382720000000000000          0000000000000000000000000000000000000000000000000010000240
100000000000000001202500017727X284723                         28472305969510000001   027000000 0000000000 1806041109          28472305969510000001000000000000002680035608270000511090000500000000000000000000000000000000000000000000000000000000000000000000000000026800000000000000000000000000000000000000000000000002630020000000000000          0000000000000000000000000000000000000000000000000010000241
100000000000000001202500017727X284723                         28472305981410000001   027000000 0000000000 1806041109          28472305981410000001000000000000002005534104280000511090000500000000000000000000000000000000000000000000000000000000000000000000000000020055000000000000000000000000000000000000000000000001955520000000000000          0000000000000000000000000000000000000000000000000010000242
100000000000000001202500017727X284723                         28472306108810000001   027000000 0000000000 1806041109          28472306108810000001000000000000003000034101730000511090000500000000000000000000000000000000000000000000000000000000000000000000000000030000000000000000000000000000000000000000000000000002950020000000000000          0000000000000000000000000000000000000000000000000010000243
100000000000000001202500017727X284723                         28472306124X10000001   027000000 0000000000 1806041109          28472306124X10000001000000000000002065834132400000511090000500000000000000000000000000000000000000000000000000000000000000000000000000020658000000000000000000000000000000000000000000000002015820000000000000          0000000000000000000000000000000000000000000000000010000244
100000000000000001202500017727X284723                         28472306127410000001   027000000 0000000000 1806041109          28472306127410000001000000000000001408434107580000511090000500000000000000000000000000000000000000000000000000000000000000000000000000014084000000000000000000000000000000000000000000000001358420000000000000          0000000000000000000000000000000000000000000000000010000245
100000000000000001202500017727X284723                         28472306128210000001   027000000 0000000000 1806041109          28472306128210000001000000000000000704203320420000511090000500000000000000000000000000000000000000000000000000000000000000000000000000007042000000000000000000000000000000000000000000000000654220000000000000          0000000000000000000000000000000000000000000000000010000246
100000000000000001202500017727X284723                         28472306157610000001   027000000 0000000000 1806041109          28472306157610000001000000000000003014534100610000511090000500000000000000000000000000000000000000000000000000000000000000000000000000030145000000000000000000000000000000000000000000000002964520000000000000          0000000000000000000000000000000000000000000000000010000247
100000000000000001202500017727X284723                         28472306158410000001   027000000 0000000000 1806041109          28472306158410000001000000000000002960034101730000511090000500000000000000000000000000000000000000000000000000000000000000000000000000029600000000000000000000000000000000000000000000000002910020000000000000          0000000000000000000000000000000000000000000000000010000248
100000000000000001202500017727X284723                         28472306191610000001   027000000 0000000000 1806041109          28472306191610000001000000000000002378015105550000511090000500000000000000000000000000000000000000000000000000000000000000000000000000023780000000000000000000000000000000000000000000000002328020000000000000          0000000000000000000000000000000000000000000000000010000249
