02RETORNO01COBRANCA       1202500017727X284723SIND EMP DE EDIF SP ZEL PORT C001BANCO DO BRASIL0109100001749                      000001749201093102                                                                                                                                                                                                                                                       000001
100000000000000001202500017727X284723                         28472300054210000001   027000000 0000000000 1806010910          28472300054210000001000000000000003355923702000000209100000180000000000000000000000000000000000000000000000000000000000000000000000000033559000000000000000000000000000000000000000000000003337920000000000000          0000000000000000000000000000000000000000000000000010000002
100000000000000001202500017727X284723                         28472300099210000001   027000000 0000000000 1806010910          28472300099210000001000000000000002253439916560000209100000180000000000000000000000000000000000000000000000000000000000000000000000000022534000000000000000000000000000000000000000000000002235420000000000000          0000000000000000000000000000000000000000000000000010000003
100000000000000001202500017727X284723                         28472300116610000001   027000000 0000000000 1806010910          28472300116610000001000000000000006148410402510000209100000180000000000000000000000000000000000000000000000000000000000000000000000000061484000000000000000000000000000000000000000000000006130420000000000000          0000000000000000000000000000000000000000000000000010000004
100000000000000001202500017727X284723                         28472300156510000001   027000000 0000000000 1806010910          28472300156510000001000000000000002229123728520000209100000180000000000000000000000000000000000000000000000000000000000000000000000000022291000000000000000000000000000000000000000000000002211120000000000000          0000000000000000000000000000000000000000000000000010000005
100000000000000001202500017727X284723                         28472300239110000001   027000000 0000000000 1806010910          28472300239110000001000000000000002277934105930000209100000180000000000000000000000000000000000000000000000000000000000000000000000000022779000000000000000000000000000000000000000000000002259920000000000000          0000000000000000000000000000000000000000000000000010000006
100000000000000001202500017727X284723                         28472300255310000001   027000000 0000000000 1806010910          28472300255310000001000000000000001151135607270000209100000180000000000000000000000000000000000000000000000000000000000000000000000000011511000000000000000000000000000000000000000000000001133120000000000000          0000000000000000000000000000000000000000000000000010000007
100000000000000001202500017727X284723                         28472300264210000001   027000000 0000000000 1806010910          28472300264210000001000000000000000538823710740000209100000180000000000000000000000000000000000000000000000000000000000000000000000000005388000000000000000000000000000000000000000000000000520820000000000000          0000000000000000000000000000000000000000000000000010000008
100000000000000001202500017727X284723                         28472300315010000001   027000000 0000000000 1806010910          28472300315010000001000000000000002278110402510000209100000180000000000000000000000000000000000000000000000000000000000000000000000000022781000000000000000000000000000000000000000000000002260120000000000000          0000000000000000000000000000000000000000000000000010000009
100000000000000001202500017727X284723                         28472300348710000001   027000000 0000000000 1806010910          28472300348710000001000000000000002253634106170000209100000180000000000000000000000000000000000000000000000000000000000000000000000000022536000000000000000000000000000000000000000000000002235620000000000000          0000000000000000000000000000000000000000000000000010000010
100000000000000001202500017727X284723                         28472300366510000001   027000000 0000000000 1806010910          28472300366510000001000000000000002792034104280000209100000180000000000000000000000000000000000000000000000000000000000000000000000000027920000000000000000000000000000000000000000000000002774020000000000000          0000000000000000000000000000000000000000000000000010000011
100000000000000001202500017727X284723                         28472300502110000001   027000000 0000000000 1806010910          28472300502110000001000000000000000587823701190000209100000180000000000000000000000000000000000000000000000000000000000000000000000000005878000000000000000000000000000000000000000000000000569820000000000000          0000000000000000000000000000000000000000000000000010000012
100000000000000001202500017727X284723                         28472300574910000001   027000000 0000000000 1806010910          28472300574910000001000000000000003355323738570000209100000180000000000000000000000000000000000000000000000000000000000000000000000000033553000000000000000000000000000000000000000000000003337320000000000000          0000000000000000000000000000000000000000000000000010000013
100000000000000001202500017727X284723                         28472300618410000001   027000000 0000000000 1806010910          28472300618410000001000000000000001126723702770000209100000180000000000000000000000000000000000000000000000000000000000000000000000000011267000000000000000000000000000000000000000000000001108720000000000000          0000000000000000000000000000000000000000000000000010000014
100000000000000001202500017727X284723                         28472300721010000001   027000000 0000000000 1806010910          28472300721010000001000000000000002253523704780000209100000180000000000000000000000000000000000000000000000000000000000000000000000000022535000000000000000000000000000000000000000000000002235520000000000000          0000000000000000000000000000000000000000000000000010000015
100000000000000001202500017727X284723                         28472300769510000001   027000000 0000000000 1806010910          28472300769510000001000000000000002228723738570000209100000180000000000000000000000000000000000000000000000000000000000000000000000000022287000000000000000000000000000000000000000000000002210720000000000000          0000000000000000000000000000000000000000000000000010000016
100000000000000001202500017727X284723                         28472300775X10000001   027000000 0000000000 1806010910          28472300775X10000001000000000000002841023738570000209100000180000000000000000000000000000000000000000000000000000000000000000000000000028410000000000000000000000000000000000000000000000002823020000000000000          0000000000000000000000000000000000000000000000000010000017
100000000000000001202500017727X284723                         28472300796210000001   027000000 0000000000 1806010910          28472300796210000001000000000000002228734107370000209100000180000000000000000000000000000000000000000000000000000000000000000000000000022287000000000000000000000000000000000000000000000002210720000000000000          0000000000000000000000000000000000000000000000000010000018
100000000000000001202500017727X284723                         28472300803910000001   027000000 0000000000 1806010910          28472300803910000001000000000000005069703303860000209100000180000000000000000000000000000000000000000000000000000000000000000000000000050697000000000000000000000000000000000000000000000005051720000000000000          0000000000000000000000000000000000000000000000000010000019
100000000000000001202500017727X284723                         28472300858610000001   027000000 0000000000 1806010910          28472300858610000001000000000000000587934102850000209100000180000000000000000000000000000000000000000000000000000000000000000000000000005879000000000000000000000000000000000000000000000000569920000000000000          0000000000000000000000000000000000000000000000000010000020
100000000000000001202500017727X284723                         28472300910810000001   027000000 0000000000 1806010910          28472300910810000001000000000000002253234129450000209100000180000000000000000000000000000000000000000000000000000000000000000000000000022532000000000000000000000000000000000000000000000002235220000000000000          0000000000000000000000000000000000000000000000000010000021
100000000000000001202500017727X284723                         28472300950710000001   027000000 0000000000 1806010910          28472300950710000001000000000000002278134107720000209100000180000000000000000000000000000000000000000000000000000000000000000000000000022781000000000000000000000000000000000000000000000002260120000000000000          0000000000000000000000000000000000000000000000000010000022
100000000000000001202500017727X284723                         28472300965510000001   027000000 0000000000 1806010910          28472300965510000001000000000000002841023738570000209100000180000000000000000000000000000000000000000000000000000000000000000000000000028410000000000000000000000000000000000000000000000002823020000000000000          0000000000000000000000000000000000000000000000000010000023
100000000000000001202500017727X284723                         28472300968X10000001   027000000 0000000000 1806010910          28472300968X10000001000000000000001695423714160000209100000180000000000000000000000000000000000000000000000000000000000000000000000000016954000000000000000000000000000000000000000000000001677420000000000000          0000000000000000000000000000000000000000000000000010000024
100000000000000001202500017727X284723                         28472301036X10000001   027000000 0000000000 1806010910          28472301036X10000001000000000000003919334107540000209100000180000000000000000000000000000000000000000000000000000000000000000000000000039193000000000000000000000000000000000000000000000003901320000000000000          0000000000000000000000000000000000000000000000000010000025
100000000000000001202500017727X284723                         28472301044010000001   027000000 0000000000 1806010910          28472301044010000001000000000000004482723731910000209100000180000000000000000000000000000000000000000000000000000000000000000000000000044827000000000000000000000000000000000000000000000004464720000000000000          0000000000000000000000000000000000000000000000000010000026
100000000000000001202500017727X284723                         28472301094710000001   027000000 0000000000 1806010910          28472301094710000001000000000000000587934191550000209100000180000000000000000000000000000000000000000000000000000000000000000000000000005879000000000000000000000000000000000000000000000000569920000000000000          0000000000000000000000000000000000000000000000000010000027
100000000000000001202500017727X284723                         28472301095510000001   027000000 0000000000 1806010910          28472301095510000001000000000000000587834101910000209100000180000000000000000000000000000000000000000000000000000000000000000000000000005878000000000000000000000000000000000000000000000000569820000000000000          0000000000000000000000000000000000000000000000000010000028
100000000000000001202500017727X284723                         28472301113710000001   027000000 0000000000 1806010910          28472301113710000001000000000000003918623738570000209100000180000000000000000000000000000000000000000000000000000000000000000000000000039186000000000000000000000000000000000000000000000003900620000000000000          0000000000000000000000000000000000000000000000000010000029
100000000000000001202500017727X284723                         28472301155210000001   027000000 0000000000 1806010910          28472301155210000001000000000000002253635616720000209100000180000000000000000000000000000000000000000000000000000000000000000000000000022536000000000000000000000000000000000000000000000002235620000000000000          0000000000000000000000000000000000000000000000000010000030
100000000000000001202500017727X284723                         28472301169210000001   027000000 0000000000 1806010910          28472301169210000001000000000000005143834108440000209100000180000000000000000000000000000000000000000000000000000000000000000000000000051438000000000000000000000000000000000000000000000005125820000000000000          0000000000000000000000000000000000000000000000000010000031
100000000000000001202500017727X284723                         28472301173010000001   027000000 0000000000 1806010910          28472301173010000001000000000000000563323737790000209100000180000000000000000000000000000000000000000000000000000000000000000000000000005633000000000000000000000000000000000000000000000000545320000000000000          0000000000000000000000000000000000000000000000000010000032
100000000000000001202500017727X284723                         28472301200110000001   027000000 0000000000 1806010910          28472301200110000001000000000000006025910416010000209100000180000000000000000000000000000000000000000000000000000000000000000000000000060259000000000000000000000000000000000000000000000006007920000000000000          0000000000000000000000000000000000000000000000000010000033
100000000000000001202500017727X284723                         28472301203610000001   027000000 0000000000 1806010910          28472301203610000001000000000000000587934106480000209100000180000000000000000000000000000000000000000000000000000000000000000000000000005879000000000000000000000000000000000000000000000000569920000000000000          0000000000000000000000000000000000000000000000000010000034
100000000000000001202500017727X284723                         28472301243510000001   027000000 0000000000 1806010910          28472301243510000001000000000000001126635604110000209100000180000000000000000000000000000000000000000000000000000000000000000000000000011266000000000000000000000000000000000000000000000001108620000000000000          0000000000000000000000000000000000000000000000000010000035
100000000000000001202500017727X284723                         28472301310510000001   027000000 0000000000 1806010910          28472301310510000001000000000000000538823738570000209100000180000000000000000000000000000000000000000000000000000000000000000000000000005388000000000000000000000000000000000000000000000000520820000000000000          0000000000000000000000000000000000000000000000000010000036
100000000000000001202500017727X284723                         28472301342310000001   027000000 0000000000 1806010910          28472301342310000001000000000000000587934107700000209100000180000000000000000000000000000000000000000000000000000000000000000000000000005879000000000000000000000000000000000000000000000000569920000000000000          0000000000000000000000000000000000000000000000000010000037
100000000000000001202500017727X284723                         28472301344X10000001   027000000 0000000000 1806010910          28472301344X10000001000000000000003918634107870000209100000180000000000000000000000000000000000000000000000000000000000000000000000000039186000000000000000000000000000000000000000000000003900620000000000000          0000000000000000000000000000000000000000000000000010000038
100000000000000001202500017727X284723                         28472301360110000001   027000000 0000000000 1806010910          28472301360110000001000000000000002760140905710000209100000180000000000000000000000000000000000000000000000000000000000000000000000000027601000000000000000000000000000000000000000000000002742120000000000000          0000000000000000000000000000000000000000000000000010000039
100000000000000001202500017727X284723                         28472301362810000001   027000000 0000000000 1806010910          28472301362810000001000000000000003870334106680000209100000180000000000000000000000000000000000000000000000000000000000000000000000000038703000000000000000000000000000000000000000000000003852320000000000000          0000000000000000000000000000000000000000000000000010000040
100000000000000001202500017727X284723                         28472301489610000001   027000000 0000000000 1806010910          28472301489610000001000000000000001126835600880000209100000180000000000000000000000000000000000000000000000000000000000000000000000000011268000000000000000000000000000000000000000000000001108820000000000000          0000000000000000000000000000000000000000000000000010000041
100000000000000001202500017727X284723                         28472301504310000001   027000000 0000000000 1806010910          28472301504310000001000000000000001126323728420000209100000180000000000000000000000000000000000000000000000000000000000000000000000000011263000000000000000000000000000000000000000000000001108320000000000000          0000000000000000000000000000000000000000000000000010000042
100000000000000001202500017727X284723                         28472301552310000001   027000000 0000000000 1806010910          28472301552310000001000000000000004432910402360000209100000180000000000000000000000000000000000000000000000000000000000000000000000000044329000000000000000000000000000000000000000000000004414920000000000000          0000000000000000000000000000000000000000000000000010000043
100000000000000001202500017727X284723                         28472301616310000001   027000000 0000000000 1806010910          28472301616310000001000000000000003379823738570000209100000180000000000000000000000000000000000000000000000000000000000000000000000000033798000000000000000000000000000000000000000000000003361820000000000000          0000000000000000000000000000000000000000000000000010000044
100000000000000001202500017727X284723                         28472301626010000001   027000000 0000000000 1806010910          28472301626010000001000000000000001714423738570000209100000180000000000000000000000000000000000000000000000000000000000000000000000000017144000000000000000000000000000000000000000000000001696420000000000000          0000000000000000000000000000000000000000000000000010000045
100000000000000001202500017727X284723                         28472301654610000001   027000000 0000000000 1806010910          28472301654610000001000000000000002792034107750000209100000180000000000000000000000000000000000000000000000000000000000000000000000000027920000000000000000000000000000000000000000000000002774020000000000000          0000000000000000000000000000000000000000000000000010000046
100000000000000001202500017727X284723                         28472301671610000001   027000000 0000000000 1806010910          28472301671610000001000000000000002816523738570000209100000180000000000000000000000000000000000000000000000000000000000000000000000000028165000000000000000000000000000000000000000000000002798520000000000000          0000000000000000000000000000000000000000000000000010000047
100000000000000001202500017727X284723                         28472301734810000001   027000000 0000000000 1806010910          28472301734810000001000000000000002616534104280000209100000180000000000000000000000000000000000000000000000000000000000000000000000000026165000000000000000000000000000000000000000000000002598520000000000000          0000000000000000000000000000000000000000000000000010000048
100000000000000001202500017727X284723                         28472301737210000001   027000000 0000000000 1806010910          28472301737210000001000000000000003379835607270000209100000180000000000000000000000000000000000000000000000000000000000000000000000000033798000000000000000000000000000000000000000000000003361820000000000000          0000000000000000000000000000000000000000000000000010000049
100000000000000001202500017727X284723                         28472301748810000001   027000000 0000000000 1806010910          28472301748810000001000000000000000587934191340000209100000180000000000000000000000000000000000000000000000000000000000000000000000000005879000000000000000000000000000000000000000000000000569920000000000000          0000000000000000000000000000000000000000000000000010000050
100000000000000001202500017727X284723                         28472301799210000001   027000000 0000000000 1806010910          28472301799210000001000000000000001689923738570000209100000180000000000000000000000000000000000000000000000000000000000000000000000000016899000000000000000000000000000000000000000000000001671920000000000000          0000000000000000000000000000000000000000000000000010000051
100000000000000001202500017727X284723                         28472301919710000001   027000000 0000000000 1806010910          28472301919710000001000000000000000587834102110000209100000180000000000000000000000000000000000000000000000000000000000000000000000000005878000000000000000000000000000000000000000000000000569820000000000000          0000000000000000000000000000000000000000000000000010000052
100000000000000001202500017727X284723                         28472301950210000001   027000000 0000000000 1806010910          28472301950210000001000000000000000587910402630000209100000180000000000000000000000000000000000000000000000000000000000000000000000000005879000000000000000000000000000000000000000000000000569920000000000000          0000000000000000000000000000000000000000000000000010000053
100000000000000001202500017727X284723                         28472301972310000001   027000000 0000000000 1806010910          28472301972310000001000000000000001689923738570000209100000180000000000000000000000000000000000000000000000000000000000000000000000000016899000000000000000000000000000000000000000000000001671920000000000000          0000000000000000000000000000000000000000000000000010000054
100000000000000001202500017727X284723                         28472301996010000001   027000000 0000000000 1806010910          28472301996010000001000000000000002228734116640000209100000180000000000000000000000000000000000000000000000000000000000000000000000000022287000000000000000000000000000000000000000000000002210720000000000000          0000000000000000000000000000000000000000000000000010000055
100000000000000001202500017727X284723                         28472302119110000001   027000000 0000000000 1806010910          28472302119110000001000000000000002253223738570000209100000180000000000000000000000000000000000000000000000000000000000000000000000000022532000000000000000000000000000000000000000000000002235220000000000000          0000000000000000000000000000000000000000000000000010000056
100000000000000001202500017727X284723                         28472302210410000001   027000000 0000000000 1806010910          28472302210410000001000000000000003330834104280000209100000180000000000000000000000000000000000000000000000000000000000000000000000000033308000000000000000000000000000000000000000000000003312820000000000000          0000000000000000000000000000000000000000000000000010000057
100000000000000001202500017727X284723                         28472302262710000001   027000000 0000000000 1806010910          28472302262710000001000000000000002253234101910000209100000180000000000000000000000000000000000000000000000000000000000000000000000000022532000000000000000000000000000000000000000000000002235220000000000000          0000000000000000000000000000000000000000000000000010000058
100000000000000001202500017727X284723                         28472302271610000001   027000000 0000000000 1806010910          28472302271610000001000000000000003379823738570000209100000180000000000000000000000000000000000000000000000000000000000000000000000000033798000000000000000000000000000000000000000000000003361820000000000000          0000000000000000000000000000000000000000000000000010000059
100000000000000001202500017727X284723                         28472302288010000001   027000000 0000000000 1806010910          28472302288010000001000000000000002816523738570000209100000180000000000000000000000000000000000000000000000000000000000000000000000000028165000000000000000000000000000000000000000000000002798520000000000000          0000000000000000000000000000000000000000000000000010000060
100000000000000001202500017727X284723                         28472302300310000001   027000000 0000000000 1806010910          28472302300310000001000000000000003457623727160000209100000180000000000000000000000000000000000000000000000000000000000000000000000000034576000000000000000000000000000000000000000000000003439620000000000000          0000000000000000000000000000000000000000000000000010000061
100000000000000001202500017727X284723                         28472302420410000001   027000000 0000000000 1806010910          28472302420410000001000000000000001102123738570000209100000180000000000000000000000000000000000000000000000000000000000000000000000000011021000000000000000000000000000000000000000000000001084120000000000000          0000000000000000000000000000000000000000000000000010000062
100000000000000001202500017727X284723                         28472302423910000001   027000000 0000000000 1806010910          28472302423910000001000000000000005389034103670000209100000180000000000000000000000000000000000000000000000000000000000000000000000000053890000000000000000000000000000000000000000000000005371020000000000000          0000000000000000000000000000000000000000000000000010000063
100000000000000001202500017727X284723                         28472302463810000001   027000000 0000000000 1806010910          28472302463810000001000000000000002253223738570000209100000180000000000000000000000000000000000000000000000000000000000000000000000000022532000000000000000000000000000000000000000000000002235220000000000000          0000000000000000000000000000000000000000000000000010000064
100000000000000001202500017727X284723                         28472302474310000001   027000000 0000000000 1806010910          28472302474310000001000000000000002278134107410000209100000180000000000000000000000000000000000000000000000000000000000000000000000000022781000000000000000000000000000000000000000000000002260120000000000000          0000000000000000000000000000000000000000000000000010000065
100000000000000001202500017727X284723                         28472302509X10000001   027000000 0000000000 1806010910          28472302509X10000001000000000000004923634102510000209100000180000000000000000000000000000000000000000000000000000000000000000000000000049236000000000000000000000000000000000000000000000004905620000000000000          0000000000000000000000000000000000000000000000000010000066
100000000000000001202500017727X284723                         28472302523510000001   027000000 0000000000 1806010910          28472302523510000001000000000000003918634107370000209100000180000000000000000000000000000000000000000000000000000000000000000000000000039186000000000000000000000000000000000000000000000003900620000000000000          0000000000000000000000000000000000000000000000000010000067
100000000000000001202500017727X284723                         28472302560X10000001   027000000 0000000000 1806010910          28472302560X10000001000000000000002841023738570000209100000180000000000000000000000000000000000000000000000000000000000000000000000000028410000000000000000000000000000000000000000000000002823020000000000000          0000000000000000000000000000000000000000000000000010000068
100000000000000001202500017727X284723                         28472302582010000001   027000000 0000000000 1806010910          28472302582010000001000000000000000587923705500000209100000180000000000000000000000000000000000000000000000000000000000000000000000000005879000000000000000000000000000000000000000000000000569920000000000000          0000000000000000000000000000000000000000000000000010000069
100000000000000001202500017727X284723                         28472302656810000001   027000000 0000000000 1806010910          28472302656810000001000000000000002767523738570000209100000180000000000000000000000000000000000000000000000000000000000000000000000000027675000000000000000000000000000000000000000000000002749520000000000000          0000000000000000000000000000000000000000000000000010000070
100000000000000001202500017727X284723                         28472302659210000001   027000000 0000000000 1806010910          28472302659210000001000000000000000538934103930000209100000180000000000000000000000000000000000000000000000000000000000000000000000000005389000000000000000000000000000000000000000000000000520920000000000000          0000000000000000000000000000000000000000000000000010000071
100000000000000001202500017727X284723                         28472302681910000001   027000000 0000000000 1806010910          28472302681910000001000000000000000587923701050000209100000180000000000000000000000000000000000000000000000000000000000000000000000000005879000000000000000000000000000000000000000000000000569920000000000000          0000000000000000000000000000000000000000000000000010000072
100000000000000001202500017727X284723                         28472302703310000001   027000000 0000000000 1806010910          28472302703310000001000000000000004507239903190000209100000180000000000000000000000000000000000000000000000000000000000000000000000000045072000000000000000000000000000000000000000000000004489220000000000000          0000000000000000000000000000000000000000000000000010000073
100000000000000001202500017727X284723                         28472302793910000001   027000000 0000000000 1806010910          28472302793910000001000000000000002816523738570000209100000180000000000000000000000000000000000000000000000000000000000000000000000000028165000000000000000000000000000000000000000000000002798520000000000000          0000000000000000000000000000000000000000000000000010000074
100000000000000001202500017727X284723                         28472302814510000001   027000000 0000000000 1806010910          28472302814510000001000000000000001126623738570000209100000180000000000000000000000000000000000000000000000000000000000000000000000000011266000000000000000000000000000000000000000000000001108620000000000000          0000000000000000000000000000000000000000000000000010000075
100000000000000001202500017727X284723                         28472303081610000001   027000000 0000000000 1806010910          28472303081610000001000000000000002841539903190000209100000180000000000000000000000000000000000000000000000000000000000000000000000000028415000000000000000000000000000000000000000000000002823520000000000000          0000000000000000000000000000000000000000000000000010000076
100000000000000001202500017727X284723                         28472303152910000001   027000000 0000000000 1806010910          28472303152910000001000000000000002277735607270000209100000180000000000000000000000000000000000000000000000000000000000000000000000000022777000000000000000000000000000000000000000000000002259720000000000000          0000000000000000000000000000000000000000000000000010000077
100000000000000001202500017727X284723                         28472303300910000001   027000000 0000000000 1806010910          28472303300910000001000000000000000587834101700000209100000180000000000000000000000000000000000000000000000000000000000000000000000000005878000000000000000000000000000000000000000000000000569820000000000000          0000000000000000000000000000000000000000000000000010000078
100000000000000001202500017727X284723                         28472303300910000001   027000000 0000000000 1806010910          28472303300910000001000000000000000563434101700000209100000180000000000000000000000000000000000000000000000000000000000000000000000000005634000000000000000000000000000000000000000000000000545420000000000000          0000000000000000000000000000000000000000000000000010000079
100000000000000001202500017727X284723                         28472303300910000001   027000000 0000000000 1806010910          28472303300910000001000000000000000538934101700000209100000180000000000000000000000000000000000000000000000000000000000000000000000000005389000000000000000000000000000000000000000000000000520920000000000000          0000000000000000000000000000000000000000000000000010000080
100000000000000001202500017727X284723                         28472303387410000001   027000000 0000000000 1806010910          28472303387410000001000000000000003380439903190000209100000180000000000000000000000000000000000000000000000000000000000000000000000000033804000000000000000000000000000000000000000000000003362420000000000000          0000000000000000000000000000000000000000000000000010000081
100000000000000001202500017727X284723                         28472303395510000001   027000000 0000000000 1806010910          28472303395510000001000000000000000587823738570000209100000180000000000000000000000000000000000000000000000000000000000000000000000000005878000000000000000000000000000000000000000000000000569820000000000000          0000000000000000000000000000000000000000000000000010000082
100000000000000001202500017727X284723                         28472303404810000001   027000000 0000000000 1806010910          28472303404810000001000000000000006736023728830000209100000180000000000000000000000000000000000000000000000000000000000000000000000000067360000000000000000000000000000000000000000000000006718020000000000000          0000000000000000000000000000000000000000000000000010000083
100000000000000001202500017727X284723                         28472303477310000001   027000000 0000000000 1806010910          28472303477310000001000000000000002253634108450000209100000180000000000000000000000000000000000000000000000000000000000000000000000000022536000000000000000000000000000000000000000000000002235620000000000000          0000000000000000000000000000000000000000000000000010000084
100000000000000001202500017727X284723                         28472303497810000001   027000000 0000000000 1806010910          28472303497810000001000000000000000367434116640000209100000180000000000000000000000000000000000000000000000000000000000000000000000000003674000000000000000000000000000000000000000000000000349420000000000000          0000000000000000000000000000000000000000000000000010000085
100000000000000001202500017727X284723                         28472303613X10000001   027000000 0000000000 1806010910          28472303613X10000001000000000000004997139903190000209100000180000000000000000000000000000000000000000000000000000000000000000000000000049971000000000000000000000000000000000000000000000004979120000000000000          0000000000000000000000000000000000000000000000000010000086
100000000000000001202500017727X284723                         28472303630X10000001   027000000 0000000000 1806010910          28472303630X10000001000000000000000587934106480000209100000180000000000000000000000000000000000000000000000000000000000000000000000000005879000000000000000000000000000000000000000000000000569920000000000000          0000000000000000000000000000000000000000000000000010000087
100000000000000001202500017727X284723                         28472303722510000001   027000000 0000000000 1806010910          28472303722510000001000000000000000587934100810000209100000180000000000000000000000000000000000000000000000000000000000000000000000000005879000000000000000000000000000000000000000000000000569920000000000000          0000000000000000000000000000000000000000000000000010000088
100000000000000001202500017727X284723                         28472303763210000001   027000000 0000000000 1806010910          28472303763210000001000000000000000538823738570000209100000180000000000000000000000000000000000000000000000000000000000000000000000000005388000000000000000000000000000000000000000000000000520820000000000000          0000000000000000000000000000000000000000000000000010000089
100000000000000001202500017727X284723                         28472303817510000001   027000000 0000000000 1806010910          28472303817510000001000000000000002278134103780000209100000180000000000000000000000000000000000000000000000000000000000000000000000000022781000000000000000000000000000000000000000000000002260120000000000000          0000000000000000000000000000000000000000000000000010000090
100000000000000001202500017727X284723                         28472303826410000001   027000000 0000000000 1806010910          28472303826410000001000000000000001151123738570000209100000180000000000000000000000000000000000000000000000000000000000000000000000000011511000000000000000000000000000000000000000000000001133120000000000000          0000000000000000000000000000000000000000000000000010000091
100000000000000001202500017727X284723                         28472303847710000001   027000000 0000000000 1806010910          28472303847710000001000000000000000587823738570000209100000180000000000000000000000000000000000000000000000000000000000000000000000000005878000000000000000000000000000000000000000000000000569820000000000000          0000000000000000000000000000000000000000000000000010000092
100000000000000001202500017727X284723                         28472303850710000001   027000000 0000000000 1806010910          28472303850710000001000000000000002816523738570000209100000180000000000000000000000000000000000000000000000000000000000000000000000000028165000000000000000000000000000000000000000000000002798520000000000000          0000000000000000000000000000000000000000000000000010000093
100000000000000001202500017727X284723                         28472303851510000001   027000000 0000000000 1806010910          28472303851510000001000000000000000587823738570000209100000180000000000000000000000000000000000000000000000000000000000000000000000000005878000000000000000000000000000000000000000000000000569820000000000000          0000000000000000000000000000000000000000000000000010000094
100000000000000001202500017727X284723                         28472304050110000001   027000000 0000000000 1806010910          28472304050110000001000000000000003918623738570000209100000180000000000000000000000000000000000000000000000000000000000000000000000000039186000000000000000000000000000000000000000000000003900620000000000000          0000000000000000000000000000000000000000000000000010000095
100000000000000001202500017727X284723                         28472304071410000001   027000000 0000000000 1806010910          28472304071410000001000000000000001859535616720000209100000180000000000000000000000000000000000000000000000000000000000000000000000000018595000000000000000000000000000000000000000000000001841520000000000000          0000000000000000000000000000000000000000000000000010000096
100000000000000001202500017727X284723                         28472304264410000001   027000000 0000000000 1806010910          28472304264410000001000000000000002816534103930000209100000180000000000000000000000000000000000000000000000000000000000000000000000000028165000000000000000000000000000000000000000000000002798520000000000000          0000000000000000000000000000000000000000000000000010000097
100000000000000001202500017727X284723                         28472304330610000001   027000000 0000000000 1806010910          28472304330610000001000000000000002816523738570000209100000180000000000000000000000000000000000000000000000000000000000000000000000000028165000000000000000000000000000000000000000000000002798520000000000000          0000000000000000000000000000000000000000000000000010000098
100000000000000001202500017727X284723                         28472304382910000001   027000000 0000000000 1806010910          28472304382910000001000000000000001665734116180000209100000180000000000000000000000000000000000000000000000000000000000000000000000000016657000000000000000000000000000000000000000000000001647720000000000000          0000000000000000000000000000000000000000000000000010000099
100000000000000001202500017727X284723                         28472304387X10000001   027000000 0000000000 1806010910          28472304387X10000001000000000000003355334104280000209100000180000000000000000000000000000000000000000000000000000000000000000000000000033553000000000000000000000000000000000000000000000003337320000000000000          0000000000000000000000000000000000000000000000000010000100
100000000000000001202500017727X284723                         28472304395010000001   027000000 0000000000 1806010910          28472304395010000001000000000000002253223738570000209100000180000000000000000000000000000000000000000000000000000000000000000000000000022532000000000000000000000000000000000000000000000002235220000000000000          0000000000000000000000000000000000000000000000000010000101
100000000000000001202500017727X284723                         28472304398510000001   027000000 0000000000 1806010910          28472304398510000001000000000000003380223738570000209100000180000000000000000000000000000000000000000000000000000000000000000000000000033802000000000000000000000000000000000000000000000003362220000000000000          0000000000000000000000000000000000000000000000000010000102
100000000000000001202500017727X284723                         28472304419110000001   027000000 0000000000 1806010910          28472304419110000001000000000000002792523720620000209100000180000000000000000000000000000000000000000000000000000000000000000000000000027925000000000000000000000000000000000000000000000002774520000000000000          0000000000000000000000000000000000000000000000000010000103
100000000000000001202500017727X284723                         28472304422110000001   027000000 0000000000 1806010910          28472304422110000001000000000000003379835607270000209100000180000000000000000000000000000000000000000000000000000000000000000000000000033798000000000000000000000000000000000000000000000003361820000000000000          0000000000000000000000000000000000000000000000000010000104
100000000000000001202500017727X284723                         28472304494910000001   027000000 0000000000 1806010910          28472304494910000001000000000000000538834105930000209100000180000000000000000000000000000000000000000000000000000000000000000000000000005388000000000000000000000000000000000000000000000000520820000000000000          0000000000000000000000000000000000000000000000000010000105
100000000000000001202500017727X284723                         28472304684410000001   027000000 0000000000 1806010910          28472304684410000001000000000000003918623738570000209100000180000000000000000000000000000000000000000000000000000000000000000000000000039186000000000000000000000000000000000000000000000003900620000000000000          0000000000000000000000000000000000000000000000000010000106
100000000000000001202500017727X284723                         28472304713110000001   027000000 0000000000 1806010910          28472304713110000001000000000000002228734104280000209100000180000000000000000000000000000000000000000000000000000000000000000000000000022287000000000000000000000000000000000000000000000002210720000000000000          0000000000000000000000000000000000000000000000000010000107
100000000000000001202500017727X284723                         28472304769710000001   027000000 0000000000 1806010910          28472304769710000001000000000000000538934101770000209100000180000000000000000000000000000000000000000000000000000000000000000000000000005389000000000000000000000000000000000000000000000000520920000000000000          0000000000000000000000000000000000000000000000000010000108
100000000000000001202500017727X284723                         28472304800610000001   027000000 0000000000 1806010910          28472304800610000001000000000000002914034100570000209100000180000000000000000000000000000000000000000000000000000000000000000000000000029140000000000000000000000000000000000000000000000002896020000000000000          0000000000000000000000000000000000000000000000000010000109
100000000000000001202500017727X284723                         28472304807310000001   027000000 0000000000 1806010910          28472304807310000001000000000000003306334107420000209100000180000000000000000000000000000000000000000000000000000000000000000000000000033063000000000000000000000000000000000000000000000003288320000000000000          0000000000000000000000000000000000000000000000000010000110
100000000000000001202500017727X284723                         28472304898710000001   027000000 0000000000 1806010910          28472304898710000001000000000000002228723738570000209100000180000000000000000000000000000000000000000000000000000000000000000000000000022287000000000000000000000000000000000000000000000002210720000000000000          0000000000000000000000000000000000000000000000000010000111
100000000000000001202500017727X284723                         28472304908810000001   027000000 0000000000 1806010910          28472304908810000001000000000000001077635608270000209100000180000000000000000000000000000000000000000000000000000000000000000000000000010776000000000000000000000000000000000000000000000001059620000000000000          0000000000000000000000000000000000000000000000000010000112
100000000000000001202500017727X284723                         28472304936310000001   027000000 0000000000 1806010910          28472304936310000001000000000000000540823703010000209100000180000000000000000000000000000000000000000000000000000000000000000000000000005408000000000000000000000000000000000000000000000000522820000000000000          0000000000000000000000000000000000000000000000000010000113
100000000000000001202500017727X284723                         28472304968110000001   027000000 0000000000 1806010910          28472304968110000001000000000000002228723738570000209100000180000000000000000000000000000000000000000000000000000000000000000000000000022287000000000000000000000000000000000000000000000002210720000000000000          0000000000000000000000000000000000000000000000000010000114
100000000000000001202500017727X284723                         28472305031010000001   027000000 0000000000 1806010910          28472305031010000001000000000000003919334107450000209100000180000000000000000000000000000000000000000000000000000000000000000000000000039193000000000000000000000000000000000000000000000003901320000000000000          0000000000000000000000000000000000000000000000000010000115
100000000000000001202500017727X284723                         28472305085X10000001   027000000 0000000000 1806010910          28472305085X10000001000000000000000587834101910000209100000180000000000000000000000000000000000000000000000000000000000000000000000000005878000000000000000000000000000000000000000000000000569820000000000000          0000000000000000000000000000000000000000000000000010000116
100000000000000001202500017727X284723                         28472305110410000001   027000000 0000000000 1806010910          28472305110410000001000000000000002792003320610000209100000180000000000000000000000000000000000000000000000000000000000000000000000000027920000000000000000000000000000000000000000000000002774020000000000000          0000000000000000000000000000000000000000000000000010000117
100000000000000001202500017727X284723                         28472305139210000001   027000000 0000000000 1806010910          28472305139210000001000000000000001689923738570000209100000180000000000000000000000000000000000000000000000000000000000000000000000000016899000000000000000000000000000000000000000000000001671920000000000000          0000000000000000000000000000000000000000000000000010000118
100000000000000001202500017727X284723                         28472305272010000001   027000000 0000000000 1806010910          28472305272010000001000000000000002767523738570000209100000180000000000000000000000000000000000000000000000000000000000000000000000000027675000000000000000000000000000000000000000000000002749520000000000000          0000000000000000000000000000000000000000000000000010000119
100000000000000001202500017727X284723                         28472305339510000001   027000000 0000000000 1806010910          28472305339510000001000000000000000534934129250000209100000180000000000000000000000000000000000000000000000000000000000000000000000000005349000000000000000000000000000000000000000000000000516920000000000000          0000000000000000000000000000000000000000000000000010000120
100000000000000001202500017727X284723                         28472305407310000001   027000000 0000000000 1806010910          28472305407310000001000000000000000538823738570000209100000180000000000000000000000000000000000000000000000000000000000000000000000000005388000000000000000000000000000000000000000000000000520820000000000000          0000000000000000000000000000000000000000000000000010000121
100000000000000001202500017727X284723                         28472305494410000001   027000000 0000000000 1806010910          28472305494410000001000000000000002228734171300000209100000180000000000000000000000000000000000000000000000000000000000000000000000000022287000000000000000000000000000000000000000000000002210720000000000000          0000000000000000000000000000000000000000000000000010000122
100000000000000001202500017727X284723                         28472305529010000001   027000000 0000000000 1806010910          28472305529010000001000000000000001126834131710000209100000180000000000000000000000000000000000000000000000000000000000000000000000000011268000000000000000000000000000000000000000000000001108820000000000000          0000000000000000000000000000000000000000000000000010000123
100000000000000001202500017727X284723                         28472305535510000001   027000000 0000000000 1806010910          28472305535510000001000000000000002817034131710000209100000180000000000000000000000000000000000000000000000000000000000000000000000000028170000000000000000000000000000000000000000000000002799020000000000000          0000000000000000000000000000000000000000000000000010000124
100000000000000001202500017727X284723                         28472305605X10000001   027000000 0000000000 1806010910          28472305605X10000001000000000000001690123701110000209100000180000000000000000000000000000000000000000000000000000000000000000000000000016901000000000000000000000000000000000000000000000001672120000000000000          0000000000000000000000000000000000000000000000000010000125
100000000000000001202500017727X284723                         28472305607610000001   027000000 0000000000 1806010910          28472305607610000001000000000000002277734163300000209100000180000000000000000000000000000000000000000000000000000000000000000000000000022777000000000000000000000000000000000000000000000002259720000000000000          0000000000000000000000000000000000000000000000000010000126
100000000000000001202500017727X284723                         28472305631910000001   027000000 0000000000 1806010910          28472305631910000001000000000000003918634101910000209100000180000000000000000000000000000000000000000000000000000000000000000000000000039186000000000000000000000000000000000000000000000003900620000000000000          0000000000000000000000000000000000000000000000000010000127
100000000000000001202500017727X284723                         28472305664510000001   027000000 0000000000 1806010910          28472305664510000001000000000000002204634106480000209100000180000000000000000000000000000000000000000000000000000000000000000000000000022046000000000000000000000000000000000000000000000002186620000000000000          0000000000000000000000000000000000000000000000000010000128
100000000000000001202500017727X284723                         28472305667X10000001   027000000 0000000000 1806010910          28472305667X10000001000000000000001126823720620000209100000180000000000000000000000000000000000000000000000000000000000000000000000000011268000000000000000000000000000000000000000000000001108820000000000000          0000000000000000000000000000000000000000000000000010000129
100000000000000001202500017727X284723                         28472305750110000001   027000000 0000000000 1806010910          28472305750110000001000000000000003355334101910000209100000180000000000000000000000000000000000000000000000000000000000000000000000000033553000000000000000000000000000000000000000000000003337320000000000000          0000000000000000000000000000000000000000000000000010000130
100000000000000001202500017727X284723                         28472305833810000001   027000000 0000000000 1806010910          28472305833810000001000000000000001242835603720000209100000180000000000000000000000000000000000000000000000000000000000000000000000000012428000000000000000000000000000000000000000000000001224820000000000000          0000000000000000000000000000000000000000000000000010000131
100000000000000001202500017727X284723                         28472305850810000001   027000000 0000000000 1806010910          28472305850810000001000000000000000587935606340000209100000180000000000000000000000000000000000000000000000000000000000000000000000000005879000000000000000000000000000000000000000000000000569920000000000000          0000000000000000000000000000000000000000000000000010000132
100000000000000001202500017727X284723                         28472305885010000001   027000000 0000000000 1806010910          28472305885010000001000000000000000538935615530000209100000180000000000000000000000000000000000000000000000000000000000000000000000000005389000000000000000000000000000000000000000000000000520920000000000000          0000000000000000000000000000000000000000000000000010000133
100000000000000001202500017727X284723                         28472305911310000001   027000000 0000000000 1806010910          28472305911310000001000000000000005045223738570000209100000180000000000000000000000000000000000000000000000000000000000000000000000000050452000000000000000000000000000000000000000000000005027220000000000000          0000000000000000000000000000000000000000000000000010000134
100000000000000001202500017727X284723                         28472305929610000001   027000000 0000000000 1806010910          28472305929610000001000000000000002816523738570000209100000180000000000000000000000000000000000000000000000000000000000000000000000000028165000000000000000000000000000000000000000000000002798520000000000000          0000000000000000000000000000000000000000000000000010000135
100000000000000001202500017727X284723                         28472305969510000001   027000000 0000000000 1806010910          28472305969510000001000000000000003330835608270000209100000180000000000000000000000000000000000000000000000000000000000000000000000000033308000000000000000000000000000000000000000000000003312820000000000000          0000000000000000000000000000000000000000000000000010000136
100000000000000001202500017727X284723                         28472305975X10000001   027000000 0000000000 1806010910          28472305975X10000001000000000000002816935600040000209100000180000000000000000000000000000000000000000000000000000000000000000000000000028169000000000000000000000000000000000000000000000002798920000000000000          0000000000000000000000000000000000000000000000000010000137
100000000000000001202500017727X284723                         28472305981410000001   027000000 0000000000 1806010910          28472305981410000001000000000000002767534104280000209100000180000000000000000000000000000000000000000000000000000000000000000000000000027675000000000000000000000000000000000000000000000002749520000000000000          0000000000000000000000000000000000000000000000000010000138
100000000000000001202500017727X284723                         28472306023510000001   027000000 0000000000 1806010910          28472306023510000001000000000000002229134106090000209100000180000000000000000000000000000000000000000000000000000000000000000000000000022291000000000000000000000000000000000000000000000002211120000000000000          0000000000000000000000000000000000000000000000000010000139
100000000000000001202500017727X284723                         28472306048010000001   027000000 0000000000 1806010910          28472306048010000001000000000000003379823738570000209100000180000000000000000000000000000000000000000000000000000000000000000000000000033798000000000000000000000000000000000000000000000003361820000000000000          0000000000000000000000000000000000000000000000000010000140
100000000000000001202500017727X284723                         28472306051010000001   027000000 0000000000 1806010910          28472306051010000001000000000000001102123738570000209100000180000000000000000000000000000000000000000000000000000000000000000000000000011021000000000000000000000000000000000000000000000001084120000000000000          0000000000000000000000000000000000000000000000000010000141
100000000000000001202500017727X284723                         28472306113410000001   027000000 0000000000 1806010910          28472306113410000001000000000000002253634101860000209100000180000000000000000000000000000000000000000000000000000000000000000000000000022536000000000000000000000000000000000000000000000002235620000000000000          0000000000000000000000000000000000000000000000000010000142
100000000000000001202500017727X284723                         28472306194010000001   027000000 0000000000 1806010910          28472306194010000001000000000000000587834171130000209100000180000000000000000000000000000000000000000000000000000000000000000000000000005878000000000000000000000000000000000000000000000000569820000000000000          0000000000000000000000000000000000000000000000000010000143
100000000000000001202500017727X284723                         28472306212210000001   027000000 0000000000 1806010910          28472306212210000001000000000000001151123738570000209100000180000000000000000000000000000000000000000000000000000000000000000000000000011511000000000000000000000000000000000000000000000001133120000000000000          0000000000000000000000000000000000000000000000000010000144
100000000000000001202500017727X284723                         28472306293910000001   027000000 0000000000 1806010910          28472306293910000001000000000000002253234101910000209100000180000000000000000000000000000000000000000000000000000000000000000000000000022532000000000000000000000000000000000000000000000002235220000000000000          0000000000000000000000000000000000000000000000000010000145
100000000000000001202500017727X284723                         28472306309910000001   027000000 0000000000 1806010910          28472306309910000001000000000000000587834101910000209100000180000000000000000000000000000000000000000000000000000000000000000000000000005878000000000000000000000000000000000000000000000000569820000000000000          0000000000000000000000000000000000000000000000000010000146
100000000000000001202500017727X284723                         28472306371410000001   027000000 0000000000 1806010910          28472306371410000001000000000000000587923727500000209100000180000000000000000000000000000000000000000000000000000000000000000000000000005879000000000000000000000000000000000000000000000000569920000000000000          0000000000000000000000000000000000000000000000000010000147
100000000000000001202500017727X284723                         28472306378110000001   027000000 0000000000 1806010910          28472306378110000001000000000000002816523738570000209100000180000000000000000000000000000000000000000000000000000000000000000000000000028165000000000000000000000000000000000000000000000002798520000000000000          0000000000000000000000000000000000000000000000000010000148
100000000000000001202500017727X284723                         28472306400110000001   027000000 0000000000 1806010910          28472306400110000001000000000000000587823738570000209100000180000000000000000000000000000000000000000000000000000000000000000000000000005878000000000000000000000000000000000000000000000000569820000000000000          0000000000000000000000000000000000000000000000000010000149
100000000000000001202500017727X284723                         28472306413310000001   027000000 0000000000 1806010910          28472306413310000001000000000000002792023738570000209100000180000000000000000000000000000000000000000000000000000000000000000000000000027920000000000000000000000000000000000000000000000002774020000000000000          0000000000000000000000000000000000000000000000000010000150
100000000000000001202500017727X284723                         28472306435410000004   027000000 0000000000 1806010910          28472306435410000004000000000000003355600107226000209100000180000000000000000000000000000000000000000000000000000000000000000000000000033556000000000000000000000000000000000000000000000003337620000000000000          0000000000000000000000000000000000000000000000000008000151
100000000000000001202500017727X284723                         28472306465610000001   027000000 0000000000 1806010910          28472306465610000001000000000000005020734101910000209100000180000000000000000000000000000000000000000000000000000000000000000000000000050207000000000000000000000000000000000000000000000005002720000000000000          0000000000000000000000000000000000000000000000000010000152
100000000000000001202500017727X284723                         28472306476110000001   027000000 0000000000 1806010910          28472306476110000001000000000000003355334101910000209100000180000000000000000000000000000000000000000000000000000000000000000000000000033553000000000000000000000000000000000000000000000003337320000000000000          0000000000000000000000000000000000000000000000000010000153
100000000000000001202500017727X284723                         28472306564410000001   027000000 0000000000 1806010910          28472306564410000001000000000000005486634116080000209100000180000000000000000000000000000000000000000000000000000000000000000000000000054866000000000000000000000000000000000000000000000005468620000000000000          0000000000000000000000000000000000000000000000000010000154
100000000000000001202500017727X284723                         28472306650010000001   027000000 0000000000 1806010910          28472306650010000001000000000000002792534171220000209100000180000000000000000000000000000000000000000000000000000000000000000000000000027925000000000000000000000000000000000000000000000002774520000000000000          0000000000000000000000000000000000000000000000000010000155
100000000000000001202500017727X284723                         28472306654310000001   027000000 0000000000 1806010910          28472306654310000001000000000000001151134101830000209100000180000000000000000000000000000000000000000000000000000000000000000000000000011511000000000000000000000000000000000000000000000001133120000000000000          0000000000000000000000000000000000000000000000000010000156
100000000000000001202500017727X284723                         28472306767110000001   027000000 0000000000 1806010910          28472306767110000001000000000000002229123720620000209100000180000000000000000000000000000000000000000000000000000000000000000000000000022291000000000000000000000000000000000000000000000002211120000000000000          0000000000000000000000000000000000000000000000000010000157
100000000000000001202500017727X284723                         28472306777910000001   027000000 0000000000 1806010910          28472306777910000001000000000000002253223738570000209100000180000000000000000000000000000000000000000000000000000000000000000000000000022532000000000000000000000000000000000000000000000002235220000000000000          0000000000000000000000000000000000000000000000000010000158
100000000000000001202500017727X284723                         28472306790610000001   027000000 0000000000 1806010910          28472306790610000001000000000000003943123738570000209100000180000000000000000000000000000000000000000000000000000000000000000000000000039431000000000000000000000000000000000000000000000003925120000000000000          0000000000000000000000000000000000000000000000000010000159
100000000000000001202500017727X284723                         28472306804X10000001   027000000 0000000000 1806010910          28472306804X10000001000000000000002816523738570000209100000180000000000000000000000000000000000000000000000000000000000000000000000000028165000000000000000000000000000000000000000000000002798520000000000000          0000000000000000000000000000000000000000000000000010000160
100000000000000001202500017727X284723                         28472306817110000001   027000000 0000000000 1806010910          28472306817110000001000000000000002841023738570000209100000180000000000000000000000000000000000000000000000000000000000000000000000000028410000000000000000000000000000000000000000000000002823020000000000000          0000000000000000000000000000000000000000000000000010000161
100000000000000001202500017727X284723                         28472306980110000001   027000000 0000000000 1806010910          28472306980110000001000000000000001126634101910000209100000180000000000000000000000000000000000000000000000000000000000000000000000000011266000000000000000000000000000000000000000000000001108620000000000000          0000000000000000000000000000000000000000000000000010000162
100000000000000001202500017727X284723                         28472306999210000001   027000000 0000000000 1806010910          28472306999210000001000000000000001714734107750000209100000180000000000000000000000000000000000000000000000000000000000000000000000000017147000000000000000000000000000000000000000000000001696720000000000000          0000000000000000000000000000000000000000000000000010000163
100000000000000001202500017727X284723                         28472307009510000001   027000000 0000000000 1806010910          28472307009510000001000000000000002792034101910000209100000180000000000000000000000000000000000000000000000000000000000000000000000000027920000000000000000000000000000000000000000000000002774020000000000000          0000000000000000000000000000000000000000000000000010000164
100000000000000001202500017727X284723                         28472307033810000001   027000000 0000000000 1806010910          28472307033810000001000000000000003379823738570000209100000180000000000000000000000000000000000000000000000000000000000000000000000000033798000000000000000000000000000000000000000000000003361820000000000000          0000000000000000000000000000000000000000000000000010000165
100000000000000001202500017727X284723                         28472307048610000001   027000000 0000000000 1806010910          28472307048610000001000000000000003943123738570000209100000180000000000000000000000000000000000000000000000000000000000000000000000000039431000000000000000000000000000000000000000000000003925120000000000000          0000000000000000000000000000000000000000000000000010000166
100000000000000001202500017727X284723                         28472307051610000001   027000000 0000000000 1806010910          28472307051610000001000000000000003379834101910000209100000180000000000000000000000000000000000000000000000000000000000000000000000000033798000000000000000000000000000000000000000000000003361820000000000000          0000000000000000000000000000000000000000000000000010000167
100000000000000001202500017727X284723                         28472307053210000001   027000000 0000000000 1806010910          28472307053210000001000000000000000563323738570000209100000180000000000000000000000000000000000000000000000000000000000000000000000000005633000000000000000000000000000000000000000000000000545320000000000000          0000000000000000000000000000000000000000000000000010000168
100000000000000001202500017727X284723                         28472307065610000001   027000000 0000000000 1806010910          28472307065610000001000000000000003379823738570000209100000180000000000000000000000000000000000000000000000000000000000000000000000000033798000000000000000000000000000000000000000000000003361820000000000000          0000000000000000000000000000000000000000000000000010000169
100000000000000001202500017727X284723                         28472307141510000001   027000000 0000000000 1806010910          28472307141510000001000000000000003380223701050000209100000180000000000000000000000000000000000000000000000000000000000000000000000000033802000000000000000000000000000000000000000000000003362220000000000000          0000000000000000000000000000000000000000000000000010000170
100000000000000001202500017727X284723                         28472307264010000001   027000000 0000000000 1806010910          28472307264010000001000000000000000587934106170000209100000180000000000000000000000000000000000000000000000000000000000000000000000000005879000000000000000000000000000000000000000000000000569920000000000000          0000000000000000000000000000000000000000000000000010000171
100000000000000001202500017727X284723                         28472307329910000001   027000000 0000000000 1806010910          28472307329910000001000000000000005804310402430000209100000180000000000000000000000000000000000000000000000000000000000000000000000000058043000000000000000000000000000000000000000000000005786320000000000000          0000000000000000000000000000000000000000000000000010000172
100000000000000001202500017727X284723                         28472307429510000001   027000000 0000000000 1806010910          28472307429510000001000000000000002792023738570000209100000180000000000000000000000000000000000000000000000000000000000000000000000000027920000000000000000000000000000000000000000000000002774020000000000000          0000000000000000000000000000000000000000000000000010000173
100000000000000001202500017727X284723                         28472307460010000001   027000000 0000000000 1806010910          28472307460010000001000000000000003772340904820000209100000180000000000000000000000000000000000000000000000000000000000000000000000000037723000000000000000000000000000000000000000000000003754320000000000000          0000000000000000000000000000000000000000000000000010000174
100000000000000001202500017727X284723                         28472307564X10000001   027000000 0000000000 1806010910          28472307564X10000001000000000000002253634106090000209100000180000000000000000000000000000000000000000000000000000000000000000000000000022536000000000000000000000000000000000000000000000002235620000000000000          0000000000000000000000000000000000000000000000000010000175
100000000000000001202500017727X284723                         28472307613110000001   027000000 0000000000 1806010910          28472307613110000001000000000000008465834107380000209100000180000000000000000000000000000000000000000000000000000000000000000000000000084658000000000000000000000000000000000000000000000008447820000000000000          0000000000000000000000000000000000000000000000000010000176
100000000000000001202500017727X284723                         28472307663810000001   027000000 0000000000 1806010910          28472307663810000001000000000000005069723738570000209100000180000000000000000000000000000000000000000000000000000000000000000000000000050697000000000000000000000000000000000000000000000005051720000000000000          0000000000000000000000000000000000000000000000000010000177
100000000000000001202500017727X284723                         28472307672710000001   027000000 0000000000 1806010910          28472307672710000001000000000000003379823738570000209100000180000000000000000000000000000000000000000000000000000000000000000000000000033798000000000000000000000000000000000000000000000003361820000000000000          0000000000000000000000000000000000000000000000000010000178
100000000000000001202500017727X284723                         28472307675110000001   027000000 0000000000 1806010910          28472307675110000001000000000000001665423738570000209100000180000000000000000000000000000000000000000000000000000000000000000000000000016654000000000000000000000000000000000000000000000001647420000000000000          0000000000000000000000000000000000000000000000000010000179
100000000000000001202500017727X284723                         28472307677810000001   027000000 0000000000 1806010910          28472307677810000001000000000000001689923738570000209100000180000000000000000000000000000000000000000000000000000000000000000000000000016899000000000000000000000000000000000000000000000001671920000000000000          0000000000000000000000000000000000000000000000000010000180
100000000000000001202500017727X284723                         28472307742110000001   027000000 0000000000 1806010910          28472307742110000001000000000000001126634104280000209100000180000000000000000000000000000000000000000000000000000000000000000000000000011266000000000000000000000000000000000000000000000001108620000000000000          0000000000000000000000000000000000000000000000000010000181
100000000000000001202500017727X284723                         28472307775810000001   027000000 0000000000 1806010910          28472307775810000001000000000000009355600169868000209100000180000000000000000000000000000000000000000000000000000000000000000000000000093556000000000000000000000000000000000000000000000009337620000000000000          0000000000000000000000000000000000000000000000000008000182
100000000000000001202500017727X284723                         28472307813410000001   027000000 0000000000 1806010910          28472307813410000001000000000000001690240903470000209100000180000000000000000000000000000000000000000000000000000000000000000000000000016902000000000000000000000000000000000000000000000001672220000000000000          0000000000000000000000000000000000000000000000000010000183
100000000000000001202500017727X284723                         28472308012010000001   027000000 0000000000 1806010910          28472308012010000001000000000000001718934111650000209100000180000000000000000000000000000000000000000000000000000000000000000000000000017189000000000000000000000000000000000000000000000001700920000000000000          0000000000000000000000000000000000000000000000000010000184
100000000000000001202500017727X284723                         28472308020110000001   027000000 0000000000 1806010910          28472308020110000001000000000000002816823704490000209100000180000000000000000000000000000000000000000000000000000000000000000000000000028168000000000000000000000000000000000000000000000002798820000000000000          0000000000000000000000000000000000000000000000000010000185
100000000000000001202500017727X284723                         28472308151810000001   027000000 0000000000 1806010910          28472308151810000001000000000000002253223738570000209100000180000000000000000000000000000000000000000000000000000000000000000000000000022532000000000000000000000000000000000000000000000002235220000000000000          0000000000000000000000000000000000000000000000000010000186
100000000000000001202500017727X284723                         28472308177110000001   027000000 0000000000 1806010910          28472308177110000001000000000000002204234101910000209100000180000000000000000000000000000000000000000000000000000000000000000000000000022042000000000000000000000000000000000000000000000002186220000000000000          0000000000000000000000000000000000000000000000000010000187
100000000000000001202500017727X284723                         28472308187910000001   027000000 0000000000 1806010910          28472308187910000001000000000000002253435617550000209100000180000000000000000000000000000000000000000000000000000000000000000000000000022534000000000000000000000000000000000000000000000002235420000000000000          0000000000000000000000000000000000000000000000000010000188
100000000000000001202500017727X284723                         28472308218210000001   027000000 0000000000 1806010910          28472308218210000001000000000000005585034103330000209100000180000000000000000000000000000000000000000000000000000000000000000000000000055850000000000000000000000000000000000000000000000005567020000000000000          0000000000000000000000000000000000000000000000000010000189
100000000000000001202500017727X284723                         28472308223910000001   027000000 0000000000 1806010910          28472308223910000001000000000000000587903302960000209100000180000000000000000000000000000000000000000000000000000000000000000000000000005879000000000000000000000000000000000000000000000000569920000000000000          0000000000000000000000000000000000000000000000000010000190
100000000000000001202500017727X284723                         28472308242510000001   027000000 0000000000 1806010910          28472308242510000001000000000000003918623738570000209100000180000000000000000000000000000000000000000000000000000000000000000000000000039186000000000000000000000000000000000000000000000003900620000000000000          0000000000000000000000000000000000000000000000000010000191
100000000000000001202500017727X284723                         28472308246810000001   027000000 0000000000 1806010910          28472308246810000001000000000000000538834107860000209100000180000000000000000000000000000000000000000000000000000000000000000000000000005388000000000000000000000000000000000000000000000000520820000000000000          0000000000000000000000000000000000000000000000000010000192
100000000000000001202500017727X284723                         28472308337510000004   027000000 0000000000 1806010910          28472308337510000004000000000000003919300118120000209100000180000000000000000000000000000000000000000000000000000000000000000000000000039193000000000000000000000000000000000000000000000003901320000000000000          0000000000000000000000000000000000000000000000000008000193
100000000000000001202500017727X284723                         28472308347210000001   027000000 0000000000 1806010910          28472308347210000001000000000000000587834101730000209100000180000000000000000000000000000000000000000000000000000000000000000000000000005878000000000000000000000000000000000000000000000000569820000000000000          0000000000000000000000000000000000000000000000000010000194
100000000000000001202500017727X284723                         28472308386310000001   027000000 0000000000 1806010910          28472308386310000001000000000000000538934101700000209100000180000000000000000000000000000000000000000000000000000000000000000000000000005389000000000000000000000000000000000000000000000000520920000000000000          0000000000000000000000000000000000000000000000000010000195
100000000000000001202500017727X284723                         28472308430410000001   027000000 0000000000 1806010910          28472308430410000001000000000000002817034100610000209100000180000000000000000000000000000000000000000000000000000000000000000000000000028170000000000000000000000000000000000000000000000002799020000000000000          0000000000000000000000000000000000000000000000000010000196
100000000000000001202500017727X284723                         28472308682X10000001   027000000 0000000000 1806010910          28472308682X10000001000000000000000563434171910000209100000180000000000000000000000000000000000000000000000000000000000000000000000000005634000000000000000000000000000000000000000000000000545420000000000000          0000000000000000000000000000000000000000000000000010000197
100000000000000001202500017727X284723                         28472308720610000001   027000000 0000000000 1806010910          28472308720610000001000000000000002253223738570000209100000180000000000000000000000000000000000000000000000000000000000000000000000000022532000000000000000000000000000000000000000000000002235220000000000000          0000000000000000000000000000000000000000000000000010000198
100000000000000001202500017727X284723                         28472308780X10000001   027000000 0000000000 1806010910          28472308780X10000001000000000000002816523738570000209100000180000000000000000000000000000000000000000000000000000000000000000000000000028165000000000000000000000000000000000000000000000002798520000000000000          0000000000000000000000000000000000000000000000000010000199
100000000000000001202500017727X284723                         28472308793110000001   027000000 0000000000 1806010910          28472308793110000001000000000000001126734101510000209100000180000000000000000000000000000000000000000000000000000000000000000000000000011267000000000000000000000000000000000000000000000001108720000000000000          0000000000000000000000000000000000000000000000000010000200
100000000000000001202500017727X284723                         28472308829610000001   027000000 0000000000 1806010910          28472308829610000001000000000000003919334101520000209100000180000000000000000000000000000000000000000000000000000000000000000000000000039193000000000000000000000000000000000000000000000003901320000000000000          0000000000000000000000000000000000000000000000000010000201
100000000000000001202500017727X284723                         28472308892X10000001   027000000 0000000000 1806010910          28472308892X10000001000000000000003918623738570000209100000180000000000000000000000000000000000000000000000000000000000000000000000000039186000000000000000000000000000000000000000000000003900620000000000000          0000000000000000000000000000000000000000000000000010000202
100000000000000001202500017727X284723                         28472308908X10000001   027000000 0000000000 1806010910          28472308908X10000001000000000000002816510430320000209100000180000000000000000000000000000000000000000000000000000000000000000000000000028165000000000000000000000000000000000000000000000002798520000000000000          0000000000000000000000000000000000000000000000000010000203
100000000000000001202500017727X284723                         28472308915210000001   027000000 0000000000 1806010910          28472308915210000001000000000000003354934107580000209100000180000000000000000000000000000000000000000000000000000000000000000000000000033549000000000000000000000000000000000000000000000003336920000000000000          0000000000000000000000000000000000000000000000000010000204
100000000000000001202500017727X284723                         28472309073810000001   027000000 0000000000 1806010910          28472309073810000001000000000000003379823738570000209100000180000000000000000000000000000000000000000000000000000000000000000000000000033798000000000000000000000000000000000000000000000003361820000000000000          0000000000000000000000000000000000000000000000000010000205
100000000000000001202500017727X284723                         28472309174210000001   027000000 0000000000 1806010910          28472309174210000001000000000000002277735607270000209100000180000000000000000000000000000000000000000000000000000000000000000000000000022777000000000000000000000000000000000000000000000002259720000000000000          0000000000000000000000000000000000000000000000000010000206
100000000000000001202500017727X284723                         28472309344310000001   027000000 0000000000 1806010910          28472309344310000001000000000000000587939903190000209100000180000000000000000000000000000000000000000000000000000000000000000000000000005879000000000000000000000000000000000000000000000000569920000000000000          0000000000000000000000000000000000000000000000000010000207
100000000000000001202500017727X284723                         28472309430X10000001   027000000 0000000000 1806010910          28472309430X10000001000000000000003918623738570000209100000180000000000000000000000000000000000000000000000000000000000000000000000000039186000000000000000000000000000000000000000000000003900620000000000000          0000000000000000000000000000000000000000000000000010000208
100000000000000001202500017727X284723                         28472309448210000001   027000000 0000000000 1806010910          28472309448210000001000000000000000587834144650000209100000180000000000000000000000000000000000000000000000000000000000000000000000000005878000000000000000000000000000000000000000000000000569820000000000000          0000000000000000000000000000000000000000000000000010000209
100000000000000001202500017727X284723                         28472309489X10000001   027000000 0000000000 1806010910          28472309489X10000001000000000000003894823701380000209100000180000000000000000000000000000000000000000000000000000000000000000000000000038948000000000000000000000000000000000000000000000003876820000000000000          0000000000000000000000000000000000000000000000000010000210
100000000000000001202500017727X284723                         28472309546210000001   027000000 0000000000 1806010910          28472309546210000001000000000000002253523701110000209100000180000000000000000000000000000000000000000000000000000000000000000000000000022535000000000000000000000000000000000000000000000002235520000000000000          0000000000000000000000000000000000000000000000000010000211
100000000000000001202500017727X284723                         28472309606X10000001   027000000 0000000000 1806010910          28472309606X10000001000000000000003331434103500000209100000180000000000000000000000000000000000000000000000000000000000000000000000000033314000000000000000000000000000000000000000000000003313420000000000000          0000000000000000000000000000000000000000000000000010000212
100000000000000001202500017727X284723                         28472309655810000001   027000000 0000000000 1806010910          28472309655810000001000000000000003379823738570000209100000180000000000000000000000000000000000000000000000000000000000000000000000000033798000000000000000000000000000000000000000000000003361820000000000000          0000000000000000000000000000000000000000000000000010000213
100000000000000001202500017727X284723                         28472309699X10000001   027000000 0000000000 1806010910          28472309699X10000001000000000000002816523738570000209100000180000000000000000000000000000000000000000000000000000000000000000000000000028165000000000000000000000000000000000000000000000002798520000000000000          0000000000000000000000000000000000000000000000000010000214
100000000000000001202500017727X284723                         28472309700710000001   027000000 0000000000 1806010910          28472309700710000001000000000000003918623738570000209100000180000000000000000000000000000000000000000000000000000000000000000000000000039186000000000000000000000000000000000000000000000003900620000000000000          0000000000000000000000000000000000000000000000000010000215
100000000000000001202500017727X284723                         28472309747310000001   027000000 0000000000 1806010910          28472309747310000001000000000000002816523738570000209100000180000000000000000000000000000000000000000000000000000000000000000000000000028165000000000000000000000000000000000000000000000002798520000000000000          0000000000000000000000000000000000000000000000000010000216
100000000000000001202500017727X284723                         28472309845310000001   027000000 0000000000 1806010910          28472309845310000001000000000000001126623701200000209100000180000000000000000000000000000000000000000000000000000000000000000000000000011266000000000000000000000000000000000000000000000001108620000000000000          0000000000000000000000000000000000000000000000000010000217
100000000000000001202500017727X284723                         28472309871210000001   027000000 0000000000 1806010910          28472309871210000001000000000000002816523738570000209100000180000000000000000000000000000000000000000000000000000000000000000000000000028165000000000000000000000000000000000000000000000002798520000000000000          0000000000000000000000000000000000000000000000000010000218
100000000000000001202500017727X284723                         28472309982410000001   027000000 0000000000 1806010910          28472309982410000001000000000000003379834101910000209100000180000000000000000000000000000000000000000000000000000000000000000000000000033798000000000000000000000000000000000000000000000003361820000000000000          0000000000000000000000000000000000000000000000000010000219
100000000000000001202500017727X284723                         28472310001610000001   027000000 0000000000 1806010910          28472310001610000001000000000000000538939903330000209100000180000000000000000000000000000000000000000000000000000000000000000000000000005389000000000000000000000000000000000000000000000000520920000000000000          0000000000000000000000000000000000000000000000000010000220
100000000000000001202500017727X284723                         28472310058X10000001   027000000 0000000000 1806010910          28472310058X10000001000000000000001126623704230000209100000180000000000000000000000000000000000000000000000000000000000000000000000000011266000000000000000000000000000000000000000000000001108620000000000000          0000000000000000000000000000000000000000000000000010000221
100000000000000001202500017727X284723                         28472310158610000001   027000000 0000000000 1806010910          28472310158610000001000000000000001714410440700000209100000180000000000000000000000000000000000000000000000000000000000000000000000000017144000000000000000000000000000000000000000000000001696420000000000000          0000000000000000000000000000000000000000000000000010000222
100000000000000001202500017727X284723                         28472310184510000001   027000000 0000000000 1806010910          28472310184510000001000000000000002792023738570000209100000180000000000000000000000000000000000000000000000000000000000000000000000000027920000000000000000000000000000000000000000000000002774020000000000000          0000000000000000000000000000000000000000000000000010000223
100000000000000001202500017727X284723                         28472310234510000001   027000000 0000000000 1806010910          28472310234510000001000000000000003379835607270000209100000180000000000000000000000000000000000000000000000000000000000000000000000000033798000000000000000000000000000000000000000000000003361820000000000000          0000000000000000000000000000000000000000000000000010000224
100000000000000001202500017727X284723                         28472310393710000001   027000000 0000000000 1806010910          28472310393710000001000000000000003918635607270000209100000180000000000000000000000000000000000000000000000000000000000000000000000000039186000000000000000000000000000000000000000000000003900620000000000000          0000000000000000000000000000000000000000000000000010000225
100000000000000001202500017727X284723                         28472310412710000001   027000000 0000000000 1806010910          28472310412710000001000000000000002768034103490000209100000180000000000000000000000000000000000000000000000000000000000000000000000000027680000000000000000000000000000000000000000000000002750020000000000000          0000000000000000000000000000000000000000000000000010000226
100000000000000001202500017727X284723                         28472310724X10000001   027000000 0000000000 1806010910          28472310724X10000001000000000000002253223738570000209100000180000000000000000000000000000000000000000000000000000000000000000000000000022532000000000000000000000000000000000000000000000002235220000000000000          0000000000000000000000000000000000000000000000000010000227
100000000000000001202500017727X284723                         28472310877710000001   027000000 0000000000 1806010910          28472310877710000001000000000000000538823738570000209100000180000000000000000000000000000000000000000000000000000000000000000000000000005388000000000000000000000000000000000000000000000000520820000000000000          0000000000000000000000000000000000000000000000000010000228
100000000000000001202500017727X284723                         28472310912910000001   027000000 0000000000 1806010910          28472310912910000001000000000000002229123700970000209100000180000000000000000000000000000000000000000000000000000000000000000000000000022291000000000000000000000000000000000000000000000002211120000000000000          0000000000000000000000000000000000000000000000000010000229
100000000000000001202500017727X284723                         28472310975710000001   027000000 0000000000 1806010910          28472310975710000001000000000000003355334173740000209100000180000000000000000000000000000000000000000000000000000000000000000000000000033553000000000000000000000000000000000000000000000003337320000000000000          0000000000000000000000000000000000000000000000000010000230
100000000000000001202500017727X284723                         28472310995110000001   027000000 0000000000 1806010910          28472310995110000001000000000000000587734102100000209100000180000000000000000000000000000000000000000000000000000000000000000000000000005877000000000000000000000000000000000000000000000000569720000000000000          0000000000000000000000000000000000000000000000000010000231
100000000000000001202500017727X284723                         28472311037210000001   027000000 0000000000 1806010910          28472311037210000001000000000000003330823738570000209100000180000000000000000000000000000000000000000000000000000000000000000000000000033308000000000000000000000000000000000000000000000003312820000000000000          0000000000000000000000000000000000000000000000000010000232
100000000000000001202500017727X284723                         28472311154910000001   027000000 0000000000 1806010910          28472311154910000001000000000000002792034104280000209100000180000000000000000000000000000000000000000000000000000000000000000000000000027920000000000000000000000000000000000000000000000002774020000000000000          0000000000000000000000000000000000000000000000000010000233
100000000000000001202500017727X284723                         28472311314210000001   027000000 0000000000 1806010910          28472311314210000001000000000000003379823738570000209100000180000000000000000000000000000000000000000000000000000000000000000000000000033798000000000000000000000000000000000000000000000003361820000000000000          0000000000000000000000000000000000000000000000000010000234
100000000000000001202500017727X284723                         28472311335510000001   027000000 0000000000 1806010910          28472311335510000001000000000000000539034106480000209100000180000000000000000000000000000000000000000000000000000000000000000000000000005390000000000000000000000000000000000000000000000000521020000000000000          0000000000000000000000000000000000000000000000000010000235
100000000000000001202500017727X284723                         28472311565X10000001   027000000 0000000000 1806010910          28472311565X10000001000000000000000587834171130000209100000180000000000000000000000000000000000000000000000000000000000000000000000000005878000000000000000000000000000000000000000000000000569820000000000000          0000000000000000000000000000000000000000000000000010000236
100000000000000001202500017727X284723                         28472311627310000001   027000000 0000000000 1806010910          28472311627310000001000000000000000563434100370000209100000180000000000000000000000000000000000000000000000000000000000000000000000000005634000000000000000000000000000000000000000000000000545420000000000000          0000000000000000000000000000000000000000000000000010000237
100000000000000001202500017727X284723                         28472311638910000001   027000000 0000000000 1806010910          28472311638910000001000000000000002253535603710000209100000180000000000000000000000000000000000000000000000000000000000000000000000000022535000000000000000000000000000000000000000000000002235520000000000000          0000000000000000000000000000000000000000000000000010000238
100000000000000001202500017727X284723                         28472311650810000001   027000000 0000000000 1806010910          28472311650810000001000000000000001433835600880000209100000180000000000000000000000000000000000000000000000000000000000000000000000000014338000000000000000000000000000000000000000000000001415820000000000000          0000000000000000000000000000000000000000000000000010000239
100000000000000001202500017727X284723                         28472311719910000001   027000000 0000000000 1806010910          28472311719910000001000000000000002816523738570000209100000180000000000000000000000000000000000000000000000000000000000000000000000000028165000000000000000000000000000000000000000000000002798520000000000000          0000000000000000000000000000000000000000000000000010000240
100000000000000001202500017727X284723                         28472311723710000001   027000000 0000000000 1806010910          28472311723710000001000000000000000587823738570000209100000180000000000000000000000000000000000000000000000000000000000000000000000000005878000000000000000000000000000000000000000000000000569820000000000000          0000000000000000000000000000000000000000000000000010000241
100000000000000001202500017727X284723                         28472311785710000001   027000000 0000000000 1806010910          28472311785710000001000000000000002865634105930000209100000180000000000000000000000000000000000000000000000000000000000000000000000000028656000000000000000000000000000000000000000000000002847620000000000000          0000000000000000000000000000000000000000000000000010000242
100000000000000001202500017727X284723                         28472311786510000001   027000000 0000000000 1806010910          28472311786510000001000000000000003379823738570000209100000180000000000000000000000000000000000000000000000000000000000000000000000000033798000000000000000000000000000000000000000000000003361820000000000000          0000000000000000000000000000000000000000000000000010000243
100000000000000001202500017727X284723                         28472311789X10000001   027000000 0000000000 1806010910          28472311789X10000001000000000000001689935607270000209100000180000000000000000000000000000000000000000000000000000000000000000000000000016899000000000000000000000000000000000000000000000001671920000000000000          0000000000000000000000000000000000000000000000000010000244
100000000000000001202500017727X284723                         28472311821710000001   027000000 0000000000 1806010910          28472311821710000001000000000000002228723738570000209100000180000000000000000000000000000000000000000000000000000000000000000000000000022287000000000000000000000000000000000000000000000002210720000000000000          0000000000000000000000000000000000000000000000000010000245
100000000000000001202500017727X284723                         28472311904310000001   027000000 0000000000 1806010910          28472311904310000001000000000000000587810402360000209100000180000000000000000000000000000000000000000000000000000000000000000000000000005878000000000000000000000000000000000000000000000000569820000000000000          0000000000000000000000000000000000000000000000000010000246
100000000000000001202500017727X284723                         28472311939610000001   027000000 0000000000 1806010910          28472311939610000001000000000000003379834101910000209100000180000000000000000000000000000000000000000000000000000000000000000000000000033798000000000000000000000000000000000000000000000003361820000000000000          0000000000000000000000000000000000000000000000000010000247
100000000000000001202500017727X284723                         28472311966310000001   027000000 0000000000 1806010910          28472311966310000001000000000000002767534129350000209100000180000000000000000000000000000000000000000000000000000000000000000000000000027675000000000000000000000000000000000000000000000002749520000000000000          0000000000000000000000000000000000000000000000000010000248
100000000000000001202500017727X284723                         28472312012210000001   027000000 0000000000 1806010910          28472312012210000001000000000000000587823738570000209100000180000000000000000000000000000000000000000000000000000000000000000000000000005878000000000000000000000000000000000000000000000000569820000000000000          0000000000000000000000000000000000000000000000000010000249
