10400000         243070481000114186200              00249600300000286080SINEMPEDIFPORTCAB MUN SP      CAIXA ECONOMICA FEDERAL                 20405201108222900147606000000                                                                     
10400011T01  030 2043070481000114186200              00249600300000286080SINEMPEDIFPORTCAB MUN SP      200501                                  300562CONATEC                           000000000405201100000000                                 
1040001300001T 0600249600300000286080D00000000000000000001               29042011000000000003687237000973                         090000000000000000104974952000000368797862009177000000000000700000000000000000002930000000000                 
1040001300002U 0600000000000000000000000000055300000000000018400000000000073700000000000368700000000000221300000000000000000000000000000029042011040520111900        000000000000000CIP COMPENSACAO               970                           
1040001300003T 0600249600300000286080D00000000000000000001               30042011000000000000000341003549                         090000000001120001104934953000000000097862008177000001120001110000000000000000002930000000000                 
1040001300004U 0600000000000000000000000000258600000000000086200000000000344700000000001723700000000001034200000000000000000000000000000029042011040520111900        000000000000000CIP COMPENSACAO               811                           
1040001300005T 0600249600300000286080D00000000000000000001               30042011000000000000000341064149                         090000000001741148104944953000000000097862008177000001741148110000000000000000002930000000000                 
1040001300006U 0600000000000000000000000000037000000000000012300000000000049300000000000246700000000000148100000000000000000000000000000029042011040520111900        000000000000000CIP COMPENSACAO               811                           
1040001300007T 0600249600300000286080D00000000000000000001               30042011000000000000000237026212                         090000000001900001104924953000000000097862008177000001900001110000000000000000002930000000000                 
1040001300008U 0600000000000000000000000000049200000000000016400000000000065500000000000327700000000000196600000000000000000000000000000029042011040520111900        000000000000000CIP COMPENSACAO               811                           
1040001300009T 0600249600300000286080D00000000000000000001               30042011000000000009517422000264                         090000000003115887104994953000000951797862008177000003115887110000000000000000002930000000000                 
1040001300010U 0600000000000000000000000000142800000000000047600000000000190300000000000951700000000000571000000000000000000000000000000029042011040520111900        000000000000000CIP COMPENSACAO               811                           
1040001300011T 0600249600300000286080D00000000000000000001               30042011000000000000000237004510                         090000000005770001104914953000000000097862008177000005770001110000000000000000002930000000000                 
1040001300012U 0600000000000000000000000000060500000000000020200000000000080700000000000403400000000000242000000000000000000000000000000029042011040520111900        000000000000000CIP COMPENSACAO               811                           
1040001300013T 0600249600300000286080D00000000000000000001               29042011000000000007627033035602                         090000000006990558104914952000000762797862006177000006990558390000000000000000002930000000000                 
1040001300014U 0600000000000000000000000000114400000000000038100000000000152500000000000762700000000000457700000000000000000000000000000029042011040520111900        000000000000000CIP COMPENSACAO               639                           
1040001300015T 0600249600300000286080D00000000000000000001               30042011000000000000000033007625                         090000000007686078104924953000000000097862008177000007686078110000000000000000002930000000000                 
1040001300016U 0600000000000000000000000000040400000000000013500000000000053900000000000269600000000000161800000000000000000000000000000029042011040520111900        000000000000000CIP COMPENSACAO               811                           
1040001300017T 0600249600300000286080D00000000000000000001               30042011000000000000000341056073                         090000000011630008104974953000000000097862008177000011630008110000000000000000002930000000000                 
1040001300018U 0600000000000000000000000000140400000000000046800000000000187200000000000936000000000000561600000000000000000000000000000029042011040520111900        000000000000000CIP COMPENSACAO               811                           
1040001300019T 0600249600300000286080D00000000000000000001               30042011000000000000000237002968                         090000000043253208104934953000000000097862008177000043253208110000000000000000002930000000000                 
1040001300020U 0600000000000000000000000000188800000000000062900000000000251700000000001258500000000000755100000000000000000000000000000029042011040520111900        000000000000000CIP COMPENSACAO               811                           
1040001300021T 0600249600300000286080D00000000000000000001               07101997000000000000000341000370                         090000000043881498104900000000000000097862008177000043881498110000000000000000002930000000000                 
1040001300022U 0600000000000000000000000000047100000000000015700000000000062800000000000313800000000000188200000000000000000000000000000029042011040520111900        000000000000000CIP COMPENSACAO               811                           
1040001300023T 0600249600300000286080D00000000000000000001               30042011000000000002797341072150                         090000000051582658104954953000000279797862008177000051582658110000000000000000002930000000000                 
1040001300024U 0600000000000000000000000000042000000000000014000000000000055900000000000279700000000000167800000000000000000000000000000029042011040520111900        000000000000000CIP COMPENSACAO               811                           
1040001300025T 0600249600300000286080D00000000000000000001               07101997000000000000000341000370                         090000000114963308104900000000000000097862008177000114963308110000000000000000002930000000000                 
1040001300026U 0600000000000000000000000000014100000000000004700000000000018800000000000093800000000000056200000000000000000000000000000029042011040520111900        000000000000000CIP COMPENSACAO               811                           
1040001300027T 0600249600300000286080D00000000000000000001               30042011000000000000000033035637                         090000000169210001104984953000000000097862008177000169210001110000000000000000002930000000000                 
1040001300028U 0600000000000000000000000002664800000000000888300000000003553000000000017765000000000010658900000000000000000000000000000029042011040520111900        000000000000000CIP COMPENSACAO               811                           
1040001300029T 0600249600300000286080D00000000000000000001               30042011000000000000000341002852                         090000000169510001104934953000000000097862008177000169510001110000000000000000002930000000000                 
1040001300030U 0600000000000000000000000000171800000000000057300000000000229000000000001145200000000000687100000000000000000000000000000029042011040520111900        000000000000000CIP COMPENSACAO               811                           
1040001300031T 0600249600300000286080D00000000000000000001               30042011000000000000000341003751                         090000000273369458104914953000000000097862008177000273369458110000000000000000002930000000000                 
1040001300032U 0600000000000000000000000001160900000000000387000000000001547800000000007739200000000004643500000000000000000000000000000029042011040520111900        000000000000000CIP COMPENSACAO               811                           
1040001300033T 0600249600300000286080D00000000000000000001               29042011000000000005766341005932                         090000000287083853104924952000000576697862008177000287083853110000000000000000002930000000000                 
1040001300034U 0600000000000000000000000000086500000000000028800000000000115300000000000576600000000000346000000000000000000000000000000029042011040520111900        000000000000000CIP COMPENSACAO               811                           
1040001300035T 0600249600300000286080D00000000000000000001               30042011000000000000000237037907                         090000000351420001104944953000000000097862008177000351420001110000000000000000002930000000000                 
1040001300036U 0600000000000000000000000000037100000000000012400000000000049400000000000247000000000000148100000000000000000000000000000029042011040520111900        000000000000000CIP COMPENSACAO               811                           
1040001300037T 0600249600300000286080D00000000000000000001               30042011000000000000000341000485                         090000000352270001104924953000000000097862008177000352270001110000000000000000002930000000000                 
1040001300038U 0600000000000000000000000000384900000000000128300000000000513100000000002565700000000001539400000000000000000000000000000029042011040520111900        000000000000000CIP COMPENSACAO               811                           
1040001300039T 0600249600300000286080D00000000000000000001               30042011000000000000000237037907                         090000000422163548104924953000000000097862008177000422163548110000000000000000002930000000000                 
1040001300040U 0600000000000000000000000000048800000000000016300000000000065100000000000325300000000000195100000000000000000000000000000029042011040520111900        000000000000000CIP COMPENSACAO               811                           
1040001300041T 0600249600300000286080D00000000000000000001               30042011000000000006427237038440                         090000000428680844104964953000000642797862008177000428680844110000000000000000002930000000000                 
1040001300042U 0600000000000000000000000000096400000000000032100000000000128500000000000642700000000000385700000000000000000000000000000029042011040520111900        000000000000000CIP COMPENSACAO               811                           
1040001300043T 0600249600300000286080D00000000000000000001               29042011000000000024692033031038                         090000000435058800104934952000002469297862008177000435058800110000000000000000002930000000000                 
1040001300044U 0600000000000000000000000000370400000000000123500000000000493800000000002469200000000001481500000000000000000000000000000029042011040520111900        000000000000000CIP COMPENSACAO               811                           
1040001300045T 0600249600300000286080D00000000000000000001               29042011000000000006429033031038                         090000000435058800104914952000000642997862008177000435058800110000000000000000002930000000000                 
1040001300046U 0600000000000000000000000000096400000000000032100000000000128600000000000642900000000000385800000000000000000000000000000029042011040520111900        000000000000000CIP COMPENSACAO               811                           
1040001300047T 0600249600300000286080D00000000000000000001               30042011000000000000000237037907                         090000000560820001104934953000000000097862008177000560820001110000000000000000002930000000000                 
1040001300048U 0600000000000000000000000000060000000000000020000000000000080000000000000400000000000000240000000000000000000000000000000029042011040520111900        000000000000000CIP COMPENSACAO               811                           
1040001300049T 0600249600300000286080D00000000000000000001               30042011000000000000000237028320                         090000000560960001104964953000000000097862008177000560960001110000000000000000002930000000000                 
1040001300050U 0600000000000000000000000000087900000000000029300000000000117200000000000586100000000000351700000000000000000000000000000029042011040520111900        000000000000000CIP COMPENSACAO               811                           
1040001300051T 0600249600300000286080D00000000000000000001               07101997000000000000000341029220                         090000000562720001104900000000000000097862008177000562720001110000000000000000002930000000000                 
1040001300052U 0600000000000000000000000000030300000000000010100000000000040400000000000202200000000000121400000000000000000000000000000029042011040520111900        000000000000000CIP COMPENSACAO               811                           
1040001300053T 0600249600300000286080D00000000000000000001               30042011000000000002851341003506                         090000000568511891104914953000000285197862008177000568511891110000000000000000002930000000000                 
1040001300054U 0600000000000000000000000000042800000000000014300000000000057000000000000285100000000000171000000000000000000000000000000029042011040520111900        000000000000000CIP COMPENSACAO               811                           
1040001300055T 0600249600300000286080D00000000000000000001               30042011000000000003125341003506                         090000000570010810104974953000000312597862008177000570010810110000000000000000002930000000000                 
1040001300056U 0600000000000000000000000000046900000000000015600000000000062500000000000312500000000000187500000000000000000000000000000029042011040520111900        000000000000000CIP COMPENSACAO               811                           
1040001300057T 0600249600300000286080D00000000000000000001               29042011000000000042965341005932                         090000000581534891104954952000004296597862008177000581534891110000000000000000002930000000000                 
1040001300058U 0600000000000000000000000000644500000000000214800000000000859300000000004296500000000002577900000000000000000000000000000029042011040520111900        000000000000000CIP COMPENSACAO               811                           
1040001300059T 0600249600300000286080D00000000000000000001               29042011000000000017214341005932                         090000000581534891104914952000001721497862008177000581534891110000000000000000002930000000000                 
1040001300060U 0600000000000000000000000000258200000000000086100000000000344300000000001721400000000001032800000000000000000000000000000029042011040520111900        000000000000000CIP COMPENSACAO               811                           
1040001300061T 0600249600300000286080D00000000000000000001               29042011000000000015816341005932                         090000000581534891104984952000001581697862008177000581534891110000000000000000002930000000000                 
1040001300062U 0600000000000000000000000000237200000000000079100000000000316300000000001581600000000000949000000000000000000000000000000029042011040520111900        000000000000000CIP COMPENSACAO               811                           
1040001300063T 0600249600300000286080D00000000000000000001               29042011000000000005216341005932                         090000000581534891104914952000000521697862008177000581534891110000000000000000002930000000000                 
1040001300064U 0600000000000000000000000000078200000000000026100000000000104300000000000521600000000000313000000000000000000000000000000029042011040520111900        000000000000000CIP COMPENSACAO               811                           
1040001300065T 0600249600300000286080D00000000000000000001               30042011000000000000000237038571                         090000000604930001104934953000000000097862008177000604930001110000000000000000002930000000000                 
1040001300066U 0600000000000000000000000000075900000000000025300000000000101200000000000506000000000000303600000000000000000000000000000029042011040520111900        000000000000000CIP COMPENSACAO               811                           
1040001300067T 0600249600300000286080D00000000000000000001               30042011000000000000000341002852                         090000000615860001104954953000000000097862008177000615860001110000000000000000002930000000000                 
1040001300068U 0600000000000000000000000000231600000000000077200000000000308800000000001543800000000000926200000000000000000000000000000029042011040520111900        000000000000000CIP COMPENSACAO               811                           
1040001300069T 0600249600300000286080D00000000000000000001               30042011000000000000000237035041                         090000000616670001104924953000000000097862008177000616670001110000000000000000002930000000000                 
1040001300070U 0600000000000000000000000000733000000000000244300000000000977300000000004886400000000002931800000000000000000000000000000029042011040520111900        000000000000000CIP COMPENSACAO               811                           
1040001300071T 0600249600300000286080D00000000000000000001               30042011000000000005681237000973                         090000000658391408104984953000000568197862008177000658391408110000000000000000002930000000000                 
1040001300072U 0600000000000000000000000000085200000000000028400000000000113600000000000568100000000000340900000000000000000000000000000029042011040520111900        000000000000000CIP COMPENSACAO               811                           
1040001300073T 0600249600300000286080D00000000000000000001               29042011000000000171013033036331                         090000000660620001104994952000017101397862005177000660620001510000000000000000002930000000000                 
1040001300074U 0600000000000000000000000002565200000000000855100000000003420300000000017101300000000010260700000000000000000000000000000029042011040520111900        000000000000000CIP COMPENSACAO               551                           
1040001300075T 0600249600300000286080D00000000000000000001               29042011000000000008756237001058                         090000000676659853104944952000000875697862008177000676659853110000000000000000002930000000000                 
1040001300076U 0600000000000000000000000000131300000000000043800000000000175100000000000875600000000000525400000000000000000000000000000029042011040520111900        000000000000000CIP COMPENSACAO               811                           
1040001300077T 0600249600300000286080D00000000000000000001               30042011000000000000000237004952                         090000000743970001104914953000000000097862008177000743970001110000000000000000002930000000000                 
1040001300078U 0600000000000000000000000000045900000000000015300000000000061200000000000306000000000000183600000000000000000000000000000029042011040520111900        000000000000000CIP COMPENSACAO               811                           
1040001300079T 0600249600300000286080D00000000000000000001               30042011000000000000000341087297                         090000000744000001104944953000000000097862008177000744000001110000000000000000002930000000000                 
1040001300080U 0600000000000000000000000000417200000000000139100000000000556200000000002781000000000001668500000000000000000000000000000029042011040520111900        000000000000000CIP COMPENSACAO               811                           
1040001300081T 0600249600300000286080D00000000000000000001               30042011000000000000000033006912                         090000000749330001104994953000000000097862008177000749330001110000000000000000002930000000000                 
1040001300082U 0600000000000000000000000000365800000000000121900000000000487700000000002438700000000001463300000000000000000000000000000029042011040520111900        000000000000000CIP COMPENSACAO               811                           
1040001300083T 0600249600300000286080D00000000000000000001               29042011000000000008000341007358                         090000000783501820104914952000000800097862008177000783501820110000000000000000002930000000000                 
1040001300084U 0600000000000000000000000000120000000000000040000000000000160000000000000800000000000000480000000000000000000000000000000029042011040520111900        000000000000000CIP COMPENSACAO               811                           
1040001300085T 0600249600300000286080D00000000000000000001               30042011000000000000000341093548                         090000000789960001104974953000000000097862008177000789960001110000000000000000002930000000000                 
1040001300086U 0600000000000000000000000000037000000000000012300000000000049300000000000246600000000000148000000000000000000000000000000029042011040520111900        000000000000000CIP COMPENSACAO               811                           
1040001300087T 0600249600300000286080D00000000000000000001               30042011000000000000000341000370                         090000000822760001104994953000000000097862008177000822760001110000000000000000002930000000000                 
1040001300088U 0600000000000000000000000000120800000000000040300000000000161100000000000805300000000000483100000000000000000000000000000029042011040520111900        000000000000000CIP COMPENSACAO               811                           
1040001300089T 0600249600300000286080D00000000000000000001               30042011000000000003582237001147                         090000000822830001104994953000000358297862008177000822830001110000000000000000002930000000000                 
1040001300090U 0600000000000000000000000000053700000000000017900000000000071600000000000358200000000000215000000000000000000000000000000029042011040520111900        000000000000000CIP COMPENSACAO               811                           
1040001300091T 0600249600300000286080D00000000000000000001               30042011000000000000000237038326                         090000000890420001104974953000000000097862008177000890420001110000000000000000002930000000000                 
1040001300092U 0600000000000000000000000000201700000000000067200000000000268900000000001344700000000000806900000000000000000000000000000029042011040520111900        000000000000000CIP COMPENSACAO               811                           
1040001300093T 0600249600300000286080D00000000000000000001               30042011000000000000000237037907                         090000000917630001104994953000000000097862008177000917630001110000000000000000002930000000000                 
1040001300094U 0600000000000000000000000000232200000000000077400000000000309500000000001547700000000000928600000000000000000000000000000029042011040520111900        000000000000000CIP COMPENSACAO               811                           
1040001300095T 0600249600300000286080D00000000000000000001               30042011000000000002476341008664                         090000000925810001104974953000000247697862008177000925810001110000000000000000002930000000000                 
1040001300096U 0600000000000000000000000000037100000000000012400000000000049500000000000247600000000000148600000000000000000000000000000029042011040520111900        000000000000000CIP COMPENSACAO               811                           
1040001300097T 0600249600300000286080D00000000000000000001               30042011000000000000000341001899                         090000000926000001104994953000000000097862008177000926000001110000000000000000002930000000000                 
1040001300098U 0600000000000000000000000000201600000000000067200000000000268800000000001344100000000000806500000000000000000000000000000029042011040520111900        000000000000000CIP COMPENSACAO               811                           
1040001300099T 0600249600300000286080D00000000000000000001               30042011000000000000000237038571                         090000000928680001104984953000000000097862008177000928680001110000000000000000002930000000000                 
1040001300100U 0600000000000000000000000000289200000000000096400000000000385600000000001928000000000001156800000000000000000000000000000029042011040520111900        000000000000000CIP COMPENSACAO               811                           
1040001300101T 0600249600300000286080D00000000000000000001               30042011000000000000000341003689                         090000000937620001104914953000000000097862008177000937620001110000000000000000002930000000000                 
1040001300102U 0600000000000000000000000000062900000000000021000000000000083800000000000419100000000000251400000000000000000000000000000029042011040520111900        000000000000000CIP COMPENSACAO               811                           
1040001300103T 0600249600300000286080D00000000000000000001               30042011000000000000000237037907                         090000000945850001104934953000000000097862008177000945850001110000000000000000002930000000000                 
1040001300104U 0600000000000000000000000000116400000000000038800000000000155100000000000775700000000000465400000000000000000000000000000029042011040520111900        000000000000000CIP COMPENSACAO               811                           
1040001300105T 0600249600300000286080D00000000000000000001               07101997000000000000000341016640                         090000000979270001104900000000000000097862007177000979270001010000000000000000002930000000000                 
1040001300106U 0600000000000000000000000001551300000000000517100000000002068400000000010342100000000006205300000000000000000000000000000029042011040520111900        000000000000000CIP COMPENSACAO               701                           
1040001300107T 0600249600300000286080D00000000000000000001               30042011000000000000000341007587                         090000000994980001104914953000000000097862008177000994980001110000000000000000002930000000000                 
1040001300108U 0600000000000000000000000000362700000000000120900000000000483600000000002417900000000001450700000000000000000000000000000029042011040520111900        000000000000000CIP COMPENSACAO               811                           
1040001300109T 0600249600300000286080D00000000000000000001               30042011000000000000000237037788                         090000001016200001104934953000000000097862008177001016200001110000000000000000002930000000000                 
1040001300110U 0600000000000000000000000000078800000000000026300000000000105000000000000525000000000000314900000000000000000000000000000029042011040520111900        000000000000000CIP COMPENSACAO               811                           
1040001300111T 0600249600300000286080D00000000000000000001               30042011000000000000000341000574                         090000001028420001104964953000000000097862008177001028420001110000000000000000002930000000000                 
1040001300112U 0600000000000000000000000000108000000000000036000000000000144100000000000720300000000000432200000000000000000000000000000029042011040520111900        000000000000000CIP COMPENSACAO               811                           
1040001300113T 0600249600300000286080D00000000000000000001               30042011000000000000000341007579                         090000001078460001104934953000000000097862008177001078460001110000000000000000002930000000000                 
1040001300114U 0600000000000000000000000000049700000000000016600000000000066200000000000331000000000000198500000000000000000000000000000029042011040520111900        000000000000000CIP COMPENSACAO               811                           
1040001300115T 0600249600300000286080D00000000000000000001               30042011000000000018345237038326                         090000001085230001104924953000001834597862008177001085230001110000000000000000002930000000000                 
1040001300116U 0600000000000000000000000000275200000000000091700000000000366900000000001834500000000001100700000000000000000000000000000029042011040520111900        000000000000000CIP COMPENSACAO               811                           
1040001300117T 0600249600300000286080D00000000000000000001               30042011000000000000000341029610                         090000001115550001104914953000000000097862008177001115550001110000000000000000002930000000000                 
1040001300118U 0600000000000000000000000000278500000000000092800000000000371300000000001856700000000001114100000000000000000000000000000029042011040520111900        000000000000000CIP COMPENSACAO               811                           
1040001300119T 0600249600300000286080D00000000000000000001               30042011000000000000000237037907                         090000001138880001104934953000000000097862008177001138880001110000000000000000002930000000000                 
1040001300120U 0600000000000000000000000000040500000000000013500000000000053900000000000269700000000000161800000000000000000000000000000029042011040520111900        000000000000000CIP COMPENSACAO               811                           
1040001300121T 0600249600300000286080D00000000000000000001               30042011000000000000000341002372                         090000001193750001104964953000000000097862008177001193750001110000000000000000002930000000000                 
1040001300122U 0600000000000000000000000000238000000000000079300000000000317400000000001586800000000000952100000000000000000000000000000029042011040520111900        000000000000000CIP COMPENSACAO               811                           
1040001300123T 0600249600300000286080D00000000000000000001               30042011000000000000000341004456                         090000001235950001104994953000000000097862008177001235950001110000000000000000002930000000000                 
1040001300124U 0600000000000000000000000000475700000000000158600000000000634300000000003171300000000001902700000000000000000000000000000029042011040520111900        000000000000000CIP COMPENSACAO               811                           
1040001300125T 0600249600300000286080D00000000000000000001               30042011000000000000000237002968                         090000001264190001104994953000000000097862008177001264190001110000000000000000002930000000000                 
1040001300126U 0600000000000000000000000000601100000000000200400000000000801400000000004007000000000002404100000000000000000000000000000029042011040520111900        000000000000000CIP COMPENSACAO               811                           
1040001300127T 0600249600300000286080D00000000000000000001               30042011000000000000000033004359                         090000001277150001104914953000000000097862008177001277150001110000000000000000002930000000000                 
1040001300128U 0600000000000000000000000000457400000000000152500000000000609900000000003049400000000001829600000000000000000000000000000029042011040520111900        000000000000000CIP COMPENSACAO               811                           
1040001300129T 0600249600300000286080D00000000000000000001               30042011000000000000000341000663                         090000001295060001104994953000000000097862008177001295060001110000000000000000002930000000000                 
1040001300130U 0600000000000000000000000000312500000000000104200000000000416600000000002083000000000001249700000000000000000000000000000029042011040520111900        000000000000000CIP COMPENSACAO               811                           
1040001300131T 0600249600300000286080D00000000000000000001               30042011000000000000000341003557                         090000001386380001104974953000000000097862008177001386380001110000000000000000002930000000000                 
1040001300132U 0600000000000000000000000000048600000000000016200000000000064800000000000324000000000000194400000000000000000000000000000029042011040520111900        000000000000000CIP COMPENSACAO               811                           
1040001300133T 0600249600300000286080D00000000000000000001               30042011000000000000000341007650                         090000001463640001104994953000000000097862008177001463640001110000000000000000002930000000000                 
1040001300134U 0600000000000000000000000000292500000000000097500000000000390000000000001949800000000001169800000000000000000000000000000029042011040520111900        000000000000000CIP COMPENSACAO               811                           
1040001300135T 0600249600300000286080D00000000000000000001               30042011000000000000000341007579                         090000001465370001104984953000000000097862008177001465370001110000000000000000002930000000000                 
1040001300136U 0600000000000000000000000000121700000000000040600000000000162300000000000811600000000000487000000000000000000000000000000029042011040520111900        000000000000000CIP COMPENSACAO               811                           
1040001300137T 0600249600300000286080D00000000000000000001               30042011000000000000000237004952                         090000001569820001104924953000000000097862008177001569820001110000000000000000002930000000000                 
1040001300138U 0600000000000000000000000000260800000000000086900000000000347700000000001738400000000001043000000000000000000000000000000029042011040520111900        000000000000000CIP COMPENSACAO               811                           
1040001300139T 0600249600300000286080D00000000000000000001               30042011000000000000000341007625                         090000001633330001104914953000000000097862008177001633330001110000000000000000002930000000000                 
1040001300140U 0600000000000000000000000000045500000000000015200000000000060600000000000303200000000000181900000000000000000000000000000029042011040520111900        000000000000000CIP COMPENSACAO               811                           
1040001300141T 0600249600300000286080D00000000000000000001               30042011000000000029684237038571                         090000001633360001104914953000002968497862008177001633360001110000000000000000002930000000000                 
1040001300142U 0600000000000000000000000000445300000000000148400000000000593700000000002968400000000001781000000000000000000000000000000029042011040520111900        000000000000000CIP COMPENSACAO               811                           
1040001300143T 0600249600300000286080D00000000000000000001               30042011000000000000000237003018                         090000001657640001104974953000000000097862008177001657640001110000000000000000002930000000000                 
1040001300144U 0600000000000000000000000000274600000000000091500000000000366200000000001830900000000001098600000000000000000000000000000029042011040520111900        000000000000000CIP COMPENSACAO               811                           
1040001300145T 0600249600300000286080D00000000000000000001               30042011000000000000000237032638                         090000001661780001104984953000000000097862008177001661780001110000000000000000002930000000000                 
1040001300146U 0600000000000000000000000000372300000000000124100000000000496400000000002482200000000001489400000000000000000000000000000029042011040520111900        000000000000000CIP COMPENSACAO               811                           
1040001300147T 0600249600300000286080D00000000000000000001               30042011000000000000000237037907                         090000001678970001104934953000000000097862008177001678970001110000000000000000002930000000000                 
1040001300148U 0600000000000000000000000000027200000000000009100000000000036300000000000181600000000000109000000000000000000000000000000029042011040520111900        000000000000000CIP COMPENSACAO               811                           
1040001300149T 0600249600300000286080D00000000000000000001               30042011000000000000000341029220                         090000001685280001104964953000000000097862008177001685280001110000000000000000002930000000000                 
1040001300150U 0600000000000000000000000000031700000000000010600000000000042300000000000211600000000000127000000000000000000000000000000029042011040520111900        000000000000000CIP COMPENSACAO               811                           
1040001300151T 0600249600300000286080D00000000000000000001               30042011000000000000000341002372                         090000001685700001104934953000000000097862008177001685700001110000000000000000002930000000000                 
1040001300152U 0600000000000000000000000000230100000000000076700000000000306900000000001534300000000000920600000000000000000000000000000029042011040520111900        000000000000000CIP COMPENSACAO               811                           
1040001300153T 0600249600300000286080D00000000000000000001               30042011000000000000000341001503                         090000001694260001104914953000000000097862008177001694260001110000000000000000002930000000000                 
1040001300154U 0600000000000000000000000000052400000000000017500000000000069900000000000349600000000000209800000000000000000000000000000029042011040520111900        000000000000000CIP COMPENSACAO               811                           
1040001300155T 0600249600300000286080D00000000000000000001               30042011000000000000000033037060                         090000001730520001104944953000000000097862008177001730520001110000000000000000002930000000000                 
1040001300156U 0600000000000000000000000000785300000000000261800000000001047100000000005235500000000003141300000000000000000000000000000029042011040520111900        000000000000000CIP COMPENSACAO               811                           
1040001300157T 0600249600300000286080D00000000000000000001               30042011000000000000000341003336                         090000001740630001104964953000000000097862008177001740630001110000000000000000002930000000000                 
1040001300158U 0600000000000000000000000000040400000000000013500000000000053900000000000269300000000000161500000000000000000000000000000029042011040520111900        000000000000000CIP COMPENSACAO               811                           
1040001300159T 0600249600300000286080D00000000000000000001               30042011000000000000000399003522                         090000001852060001104934953000000000097862008177001852060001110000000000000000002930000000000                 
1040001300160U 0600000000000000000000000000037000000000000012300000000000049300000000000246600000000000148000000000000000000000000000000029042011040520111900        000000000000000CIP COMPENSACAO               811                           
1040001300161T 0600249600300000286080D00000000000000000001               30042011000000000000000341005258                         090000001887250001104974953000000000097862008177001887250001110000000000000000002930000000000                 
1040001300162U 0600000000000000000000000000052200000000000017400000000000069700000000000348300000000000209000000000000000000000000000000029042011040520111900        000000000000000CIP COMPENSACAO               811                           
1040001300163T 0600249600300000286080D00000000000000000001               30042011000000000000000237004510                         090000002032770001104994953000000000097862008177002032770001110000000000000000002930000000000                 
1040001300164U 0600000000000000000000000000037000000000000012300000000000049300000000000246600000000000148000000000000000000000000000000029042011040520111900        000000000000000CIP COMPENSACAO               811                           
1040001300165T 0600249600300000286080D00000000000000000001               30042011000000000000000001057177                         090000002078610001104994953000000000097862008177002078610001110000000000000000002930000000000                 
1040001300166U 0600000000000000000000000000057400000000000019100000000000076500000000000382700000000000229700000000000000000000000000000029042011040520111900        000000000000000CIP COMPENSACAO               811                           
1040001300167T 0600249600300000286080D00000000000000000001               29042011000000000011769237001058                         090000002124165887104914952000001176997862008177002124165887110000000000000000002930000000000                 
1040001300168U 0600000000000000000000000000176500000000000058800000000000235400000000001176900000000000706200000000000000000000000000000029042011040520111900        000000000000000CIP COMPENSACAO               811                           
1040001300169T 0600249600300000286080D00000000000000000001               30042011000000000000000237037907                         090000002190111542104914953000000000097862008177002190111542110000000000000000002930000000000                 
1040001300170U 0600000000000000000000000000024900000000000008300000000000033300000000000166300000000000099800000000000000000000000000000029042011040520111900        000000000000000CIP COMPENSACAO               811                           
1040001300171T 0600249600300000286080D00000000000000000001               30042011000000000005141237038440                         090000002190112262104914953000000514197862008177002190112262110000000000000000002930000000000                 
1040001300172U 0600000000000000000000000000077100000000000025700000000000102800000000000514100000000000308500000000000000000000000000000029042011040520111900        000000000000000CIP COMPENSACAO               811                           
1040001300173T 0600249600300000286080D00000000000000000001               30042011000000000000000341037567                         090000002190113180104984953000000000097862008177002190113180110000000000000000002930000000000                 
1040001300174U 0600000000000000000000000000079100000000000026400000000000105500000000000527600000000000316600000000000000000000000000000029042011040520111900        000000000000000CIP COMPENSACAO               811                           
1040001300175T 0600249600300000286080D00000000000000000001               30042011000000000000000399003433                         090000002190114012104914953000000000097862008177002190114012110000000000000000002930000000000                 
1040001300176U 0600000000000000000000000000122900000000000041000000000000163900000000000819300000000000491500000000000000000000000000000029042011040520111900        000000000000000CIP COMPENSACAO               811                           
1040001300177T 0600249600300000286080D00000000000000000001               30042011000000000000000237020621                         090000002190114148104914953000000000097862008177002190114148110000000000000000002930000000000                 
1040001300178U 0600000000000000000000000000116100000000000038700000000000154800000000000774000000000000464400000000000000000000000000000029042011040520111900        000000000000000CIP COMPENSACAO               811                           
1040001300179T 0600249600300000286080D00000000000000000001               30042011000000000000000341005932                         090000002190114578104954953000000000097862008177002190114578110000000000000000002930000000000                 
1040001300180U 0600000000000000000000000000040400000000000013500000000000053900000000000269300000000000161500000000000000000000000000000029042011040520111900        000000000000000CIP COMPENSACAO               811                           
1040001300181T 0600249600300000286080D00000000000000000001               30042011000000000000000001017442                         090000002190114808104914953000000000097862008177002190114808110000000000000000002930000000000                 
1040001300182U 0600000000000000000000000000037700000000000012600000000000050300000000000251600000000000151000000000000000000000000000000029042011040520111900        000000000000000CIP COMPENSACAO               811                           
1040001300183T 0600249600300000286080D00000000000000000001               30042011000000000000000237002879                         090000002190115657104964953000000000097862008177002190115657110000000000000000002930000000000                 
1040001300184U 0600000000000000000000000000060200000000000020100000000000080200000000000401000000000000240500000000000000000000000000000029042011040520111900        000000000000000CIP COMPENSACAO               811                           
1040001300185T 0600249600300000286080D00000000000000000001               30042011000000000000000237008958                         090000002190117189104914953000000000097862008177002190117189110000000000000000002930000000000                 
1040001300186U 0600000000000000000000000000040400000000000013500000000000053900000000000269300000000000161500000000000000000000000000000029042011040520111900        000000000000000CIP COMPENSACAO               811                           
1040001300187T 0600249600300000286080D00000000000000000001               30042011000000000000000341001902                         090000002190117622104954953000000000097862008177002190117622110000000000000000002930000000000                 
1040001300188U 0600000000000000000000000000116200000000000038700000000000154900000000000774700000000000464900000000000000000000000000000029042011040520111900        000000000000000CIP COMPENSACAO               811                           
1040001300189T 0600249600300000286080D00000000000000000001               30042011000000000007948237000973                         090000002190117922104934953000000794897862008177002190117922110000000000000000002930000000000                 
1040001300190U 0600000000000000000000000000119200000000000039700000000000159000000000000794800000000000476900000000000000000000000000000029042011040520111900        000000000000000CIP COMPENSACAO               811                           
1040001300191T 0600249600300000286080D00000000000000000001               30042011000000000000000237037907                         090000002190118293104954953000000000097862008177002190118293110000000000000000002930000000000                 
1040001300192U 0600000000000000000000000000040400000000000013500000000000053900000000000269600000000000161800000000000000000000000000000029042011040520111900        000000000000000CIP COMPENSACAO               811                           
1040001300193T 0600249600300000286080D00000000000000000001               30042011000000000000000237030902                         090000002190118397104954953000000000097862008177002190118397110000000000000000002930000000000                 
1040001300194U 0600000000000000000000000000080000000000000026700000000000106700000000000533600000000000320200000000000000000000000000000029042011040520111900        000000000000000CIP COMPENSACAO               811                           
1040001300195T 0600249600300000286080D00000000000000000001               30042011000000000000000341001708                         090000002190120079104974953000000000097862008177002190120079110000000000000000002930000000000                 
1040001300196U 0600000000000000000000000000040400000000000013500000000000053900000000000269300000000000161500000000000000000000000000000029042011040520111900        000000000000000CIP COMPENSACAO               811                           
1040001300197T 0600249600300000286080D00000000000000000001               30042011000000000000000341002372                         090000002190121523104984953000000000097862008177002190121523110000000000000000002930000000000                 
1040001300198U 0600000000000000000000000000086900000000000029000000000000115800000000000579000000000000347300000000000000000000000000000029042011040520111900        000000000000000CIP COMPENSACAO               811                           
1040001300199T 0600249600300000286080D00000000000000000001               30042011000000000000000341087742                         090000002190210615104954953000000000097862008177002190210615110000000000000000002930000000000                 
1040001300200U 0600000000000000000000000000431100000000000143700000000000574800000000002873800000000001724200000000000000000000000000000029042011040520111900        000000000000000CIP COMPENSACAO               811                           
1040001300201T 0600249600300000286080D00000000000000000001               30042011000000000012897237005002                         090000002190212624104964953000001289797862008177002190212624110000000000000000002930000000000                 
1040001300202U 0600000000000000000000000000193500000000000064500000000000257900000000001289700000000000773800000000000000000000000000000029042011040520111900        000000000000000CIP COMPENSACAO               811                           
1040001300203T 0600249600300000286080D00000000000000000001               30042011000000000000000237030902                         090000002190212696104924953000000000097862008177002190212696110000000000000000002930000000000                 
1040001300204U 0600000000000000000000000000037100000000000012400000000000049500000000000247600000000000148600000000000000000000000000000029042011040520111900        000000000000000CIP COMPENSACAO               811                           
1040001300205T 0600249600300000286080D00000000000000000001               30042011000000000000000237031143                         090000002190213507104994953000000000097862008177002190213507110000000000000000002930000000000                 
1040001300206U 0600000000000000000000000000040400000000000013500000000000053900000000000269300000000000161500000000000000000000000000000029042011040520111900        000000000000000CIP COMPENSACAO               811                           
1040001300207T 0600249600300000286080D00000000000000000001               30042011000000000000000341006467                         090000002190213607104934953000000000097862008177002190213607110000000000000000002930000000000                 
1040001300208U 0600000000000000000000000000247000000000000082300000000000329300000000001646400000000000987800000000000000000000000000000029042011040520111900        000000000000000CIP COMPENSACAO               811                           
1040001300209T 0600249600300000286080D00000000000000000001               30042011000000000000000033031038                         090000002190214024104914953000000000097862008177002190214024110000000000000000002930000000000                 
1040001300210U 0600000000000000000000000000154000000000000051300000000000205300000000001026600000000000616000000000000000000000000000000029042011040520111900        000000000000000CIP COMPENSACAO               811                           
1040001300211T 0600249600300000286080D00000000000000000001               30042011000000000000000341001708                         090000002190214170104984953000000000097862008177002190214170110000000000000000002930000000000                 
1040001300212U 0600000000000000000000000000228000000000000076000000000000304100000000001520300000000000912200000000000000000000000000000029042011040520111900        000000000000000CIP COMPENSACAO               811                           
1040001300213T 0600249600300000286080D00000000000000000001               30042011000000000000000399003433                         090000002190214257104964953000000000097862008177002190214257110000000000000000002930000000000                 
1040001300214U 0600000000000000000000000000109900000000000036600000000000146500000000000732600000000000439600000000000000000000000000000029042011040520111900        000000000000000CIP COMPENSACAO               811                           
1040001300215T 0600249600300000286080D00000000000000000001               30042011000000000000000341000574                         090000002190214274104984953000000000097862008177002190214274110000000000000000002930000000000                 
1040001300216U 0600000000000000000000000000192300000000000064100000000000256500000000001282300000000000769400000000000000000000000000000029042011040520111900        000000000000000CIP COMPENSACAO               811                           
1040001300217T 0600249600300000286080D00000000000000000001               30042011000000000000000341087742                         090000002190214538104954953000000000097862008177002190214538110000000000000000002930000000000                 
1040001300218U 0600000000000000000000000000242100000000000080700000000000322800000000001614200000000000968600000000000000000000000000000029042011040520111900        000000000000000CIP COMPENSACAO               811                           
1040001300219T 0600249600300000286080D00000000000000000001               30042011000000000000000341001775                         090000002190214857104934953000000000097862008177002190214857110000000000000000002930000000000                 
1040001300220U 0600000000000000000000000000358700000000000119600000000000478200000000002391200000000001434700000000000000000000000000000029042011040520111900        000000000000000CIP COMPENSACAO               811                           
1040001300221T 0600249600300000286080D00000000000000000001               30042011000000000000000341000574                         090000002190214884104914953000000000097862008177002190214884110000000000000000002930000000000                 
1040001300222U 0600000000000000000000000000363000000000000121000000000000484000000000002420200000000001452200000000000000000000000000000029042011040520111900        000000000000000CIP COMPENSACAO               811                           
1040001300223T 0600249600300000286080D00000000000000000001               30042011000000000000000237004782                         090000002190215118104914953000000000097862008177002190215118110000000000000000002930000000000                 
1040001300224U 0600000000000000000000000000131800000000000043900000000000175700000000000878400000000000527000000000000000000000000000000029042011040520111900        000000000000000CIP COMPENSACAO               811                           
1040001300225T 0600249600300000286080D00000000000000000001               30042011000000000000000341001775                         090000002190216342104914953000000000097862008177002190216342110000000000000000002930000000000                 
1040001300226U 0600000000000000000000000000040400000000000013500000000000053900000000000269300000000000161500000000000000000000000000000029042011040520111900        000000000000000CIP COMPENSACAO               811                           
1040001300227T 0600249600300000286080D00000000000000000001               30042011000000000000000033002488                         090000002190218037104914953000000000097862008177002190218037110000000000000000002930000000000                 
1040001300228U 0600000000000000000000000000111000000000000037000000000000148000000000000740100000000000444100000000000000000000000000000029042011040520111900        000000000000000CIP COMPENSACAO               811                           
1040001300229T 0600249600300000286080D00000000000000000001               30042011000000000000000341029653                         090000002190219210104984953000000000097862008177002190219210110000000000000000002930000000000                 
1040001300230U 0600000000000000000000000000077400000000000025800000000000103200000000000516000000000000309600000000000000000000000000000029042011040520111900        000000000000000CIP COMPENSACAO               811                           
1040001300231T 0600249600300000286080D00000000000000000001               30042011000000000000000237037907                         090000002190219424104984953000000000097862008177002190219424110000000000000000002930000000000                 
1040001300232U 0600000000000000000000000000162600000000000054200000000000216800000000001084200000000000650600000000000000000000000000000029042011040520111900        000000000000000CIP COMPENSACAO               811                           
1040001300233T 0600249600300000286080D00000000000000000001               30042011000000000000000341037630                         090000002190220326104964953000000000097862008177002190220326110000000000000000002930000000000                 
1040001300234U 0600000000000000000000000000479900000000000160000000000000639800000000003199200000000001919500000000000000000000000000000029042011040520111900        000000000000000CIP COMPENSACAO               811                           
1040001300235T 0600249600300000286080D00000000000000000001               30042011000000000000000341037630                         090000002190220327104924953000000000097862008177002190220327110000000000000000002930000000000                 
1040001300236U 0600000000000000000000000000420600000000000140200000000000560800000000002803900000000001682300000000000000000000000000000029042011040520111900        000000000000000CIP COMPENSACAO               811                           
1040001300237T 0600249600300000286080D00000000000000000001               30042011000000000000000341001708                         090000002190220846104914953000000000097862008177002190220846110000000000000000002930000000000                 
1040001300238U 0600000000000000000000000000291400000000000097100000000000388500000000001942400000000001165400000000000000000000000000000029042011040520111900        000000000000000CIP COMPENSACAO               811                           
1040001300239T 0600249600300000286080D00000000000000000001               30042011000000000000000341037630                         090000002190220924104914953000000000097862008177002190220924110000000000000000002930000000000                 
1040001300240U 0600000000000000000000000000160100000000000053400000000000213400000000001067100000000000640200000000000000000000000000000029042011040520111900        000000000000000CIP COMPENSACAO               811                           
1040001300241T 0600249600300000286080D00000000000000000001               30042011000000000000000237037796                         090000002190221219104994953000000000097862008177002190221219110000000000000000002930000000000                 
1040001300242U 0600000000000000000000000000284800000000000094900000000000379700000000001898700000000001139300000000000000000000000000000029042011040520111900        000000000000000CIP COMPENSACAO               811                           
1040001300243T 0600249600300000286080D00000000000000000001               30042011000000000000000033022071                         090000002190223709104934953000000000097862008177002190223709110000000000000000002930000000000                 
1040001300244U 0600000000000000000000000000179900000000000060000000000000239800000000001199000000000000719300000000000000000000000000000029042011040520111900        000000000000000CIP COMPENSACAO               811                           
1040001300245T 0600249600300000286080D00000000000000000001               30042011000000000000000341002372                         090000002190306667104964953000000000097862008177002190306667110000000000000000002930000000000                 
1040001300246U 0600000000000000000000000000123000000000000041000000000000163900000000000819700000000000491800000000000000000000000000000029042011040520111900        000000000000000CIP COMPENSACAO               811                           
1040001300247T 0600249600300000286080D00000000000000000001               30042011000000000000000237037907                         090000002190312095104914953000000000097862008177002190312095110000000000000000002930000000000                 
1040001300248U 0600000000000000000000000000079200000000000026400000000000105600000000000528200000000000317000000000000000000000000000000029042011040520111900        000000000000000CIP COMPENSACAO               811                           
1040001300249T 0600249600300000286080D00000000000000000001               30042011000000000000000237000990                         090000002190312780104954953000000000097862008177002190312780110000000000000000002930000000000                 
1040001300250U 0600000000000000000000000000048500000000000016200000000000064600000000000323200000000000193900000000000000000000000000000029042011040520111900        000000000000000CIP COMPENSACAO               811                           
1040001300251T 0600249600300000286080D00000000000000000001               30042011000000000000000341003670                         090000002190314163104934953000000000097862008177002190314163110000000000000000002930000000000                 
1040001300252U 0600000000000000000000000000063000000000000021000000000000084000000000000420000000000000252000000000000000000000000000000029042011040520111900        000000000000000CIP COMPENSACAO               811                           
1040001300253T 0600249600300000286080D00000000000000000001               30042011000000000000000237004979                         090000002190314738104964953000000000097862008177002190314738110000000000000000002930000000000                 
1040001300254U 0600000000000000000000000000042600000000000014200000000000056700000000000283700000000000170200000000000000000000000000000029042011040520111900        000000000000000CIP COMPENSACAO               811                           
1040001300255T 0600249600300000286080D00000000000000000001               30042011000000000000000237037796                         090000002190314928104914953000000000097862008177002190314928110000000000000000002930000000000                 
1040001300256U 0600000000000000000000000000402400000000000134100000000000536500000000002682600000000001609600000000000000000000000000000029042011040520111900        000000000000000CIP COMPENSACAO               811                           
1040001300257T 0600249600300000286080D00000000000000000001               30042011000000000000000237037796                         090000002190315968104954953000000000097862008177002190315968110000000000000000002930000000000                 
1040001300258U 0600000000000000000000000000040500000000000013500000000000053900000000000269700000000000161800000000000000000000000000000029042011040520111900        000000000000000CIP COMPENSACAO               811                           
1040001300259T 0600249600300000286080D00000000000000000001               30042011000000000000000399009113                         090000002190318988104974953000000000097862008177002190318988110000000000000000002930000000000                 
1040001300260U 0600000000000000000000000000137200000000000045700000000000183000000000000914800000000000548900000000000000000000000000000029042011040520111900        000000000000000CIP COMPENSACAO               811                           
1040001300261T 0600249600300000286080D00000000000000000001               30042011000000000000000033022071                         090000002190319816104954953000000000097862008177002190319816110000000000000000002930000000000                 
1040001300262U 0600000000000000000000000000043900000000000014600000000000058500000000000292400000000000175400000000000000000000000000000029042011040520111900        000000000000000CIP COMPENSACAO               811                           
1040001300263T 0600249600300000286080D00000000000000000001               30042011000000000000000341007358                         090000002190322134104994953000000000097862008177002190322134110000000000000000002930000000000                 
1040001300264U 0600000000000000000000000000015300000000000005100000000000020500000000000102300000000000061400000000000000000000000000000029042011040520111900        000000000000000CIP COMPENSACAO               811                           
1040001300265T 0600249600300000286080D00000000000000000001               30042011000000000000000033022071                         090000002190322465104954953000000000097862008177002190322465110000000000000000002930000000000                 
1040001300266U 0600000000000000000000000000220600000000000073500000000000294100000000001470700000000000882500000000000000000000000000000029042011040520111900        000000000000000CIP COMPENSACAO               811                           
1040001300267T 0600249600300000286080D00000000000000000001               30042011000000000000000341000647                         090000002190414234104914953000000000097862008177002190414234110000000000000000002930000000000                 
1040001300268U 0600000000000000000000000000080400000000000026800000000000107200000000000535800000000000321400000000000000000000000000000029042011040520111900        000000000000000CIP COMPENSACAO               811                           
1040001300269T 0600249600300000286080D00000000000000000001               30042011000000000000000341002526                         090000002190420533104954953000000000097862008177002190420533110000000000000000002930000000000                 
1040001300270U 0600000000000000000000000000042200000000000014100000000000056200000000000281000000000000168500000000000000000000000000000029042011040520111900        000000000000000CIP COMPENSACAO               811                           
1040001300271T 0600249600300000286080D00000000000000000001               30042011000000000003176237001147                         090000002190421753104964953000000317697862008177002190421753110000000000000000002930000000000                 
1040001300272U 0600000000000000000000000000047600000000000015900000000000063500000000000317600000000000190600000000000000000000000000000029042011040520111900        000000000000000CIP COMPENSACAO               811                           
1040001300273T 0600249600300000286080D00000000000000000001               30042011000000000000000341000647                         090000002190426135104914953000000000097862008177002190426135110000000000000000002930000000000                 
1040001300274U 0600000000000000000000000000080800000000000026900000000000107700000000000538600000000000323200000000000000000000000000000029042011040520111900        000000000000000CIP COMPENSACAO               811                           
1040001300275T 0600249600300000286080D00000000000000000001               30042011000000000003582237001147                         090000002190430585104944953000000358297862008177002190430585110000000000000000002930000000000                 
1040001300276U 0600000000000000000000000000053700000000000017900000000000071600000000000358200000000000215000000000000000000000000000000029042011040520111900        000000000000000CIP COMPENSACAO               811                           
1040001300277T 0600249600300000286080D00000000000000000001               30042011000000000003591237001147                         090000002190430775104974953000000359197862008177002190430775110000000000000000002930000000000                 
1040001300278U 0600000000000000000000000000053900000000000018000000000000071800000000000359100000000000215400000000000000000000000000000029042011040520111900        000000000000000CIP COMPENSACAO               811                           
1040001300279T 0600249600300000286080D00000000000000000001               30042011000000000006048237001147                         090000002190441587104994953000000604897862008177002190441587810000000000000000002930000000000                 
1040001300280U 0600000000000000000000000000090700000000000030200000000000121000000000000604800000000000362900000000000000000000000000000029042011040520111900        000000000000000CIP COMPENSACAO               881                           
1040001300281T 0600249600300000286080D00000000000000000001               30042011000000000000000341002526                         090000002190518827104974953000000000097862008177002190518827110000000000000000002930000000000                 
1040001300282U 0600000000000000000000000000020100000000000006700000000000026700000000000133700000000000080200000000000000000000000000000029042011040520111900        000000000000000CIP COMPENSACAO               811                           
1040001300283T 0600249600300000286080D00000000000000000001               30042011000000000000000341001503                         090000002190525096104944953000000000097862008177002190525096110000000000000000002930000000000                 
1040001300284U 0600000000000000000000000000040400000000000013500000000000053900000000000269300000000000161500000000000000000000000000000029042011040520111900        000000000000000CIP COMPENSACAO               811                           
1040001300285T 0600249600300000286080D00000000000000000001               30042011000000000000000237006149                         090000002190712498104954953000000000097862008177002190712498110000000000000000002930000000000                 
1040001300286U 0600000000000000000000000000040400000000000013500000000000053900000000000269300000000000161500000000000000000000000000000029042011040520111900        000000000000000CIP COMPENSACAO               811                           
1040001300287T 0600249600300000286080D00000000000000000001               30042011000000000000000341003557                         090000002190713115104924953000000000097862008177002190713115110000000000000000002930000000000                 
1040001300288U 0600000000000000000000000000049200000000000016400000000000065600000000000328100000000000196900000000000000000000000000000029042011040520111900        000000000000000CIP COMPENSACAO               811                           
1040001300289T 0600249600300000286080D00000000000000000001               30042011000000000000000341002526                         090000002190713182104914953000000000097862008177002190713182110000000000000000002930000000000                 
1040001300290U 0600000000000000000000000000154900000000000051600000000000206600000000001032800000000000619700000000000000000000000000000029042011040520111900        000000000000000CIP COMPENSACAO               811                           
1040001300291T 0600249600300000286080D00000000000000000001               30042011000000000000000341001520                         090000002190713286104914953000000000097862008177002190713286110000000000000000002930000000000                 
1040001300292U 0600000000000000000000000000270500000000000090200000000000360700000000001803600000000001082200000000000000000000000000000029042011040520111900        000000000000000CIP COMPENSACAO               811                           
1040001300293T 0600249600300000286080D00000000000000000001               30042011000000000000000237037907                         090000002190714360104914953000000000097862008177002190714360110000000000000000002930000000000                 
1040001300294U 0600000000000000000000000000079100000000000026400000000000105500000000000527600000000000316600000000000000000000000000000029042011040520111900        000000000000000CIP COMPENSACAO               811                           
1040001300295T 0600249600300000286080D00000000000000000001               30042011000000000000000237002968                         090000002190714802104934953000000000097862008177002190714802110000000000000000002930000000000                 
1040001300296U 0600000000000000000000000000053700000000000017900000000000071600000000000358200000000000215000000000000000000000000000000029042011040520111900        000000000000000CIP COMPENSACAO               811                           
1040001300297T 0600249600300000286080D00000000000000000001               30042011000000000000000237005150                         090000002190715557104924953000000000097862008177002190715557110000000000000000002930000000000                 
1040001300298U 0600000000000000000000000000054200000000000018100000000000072200000000000361200000000000216700000000000000000000000000000029042011040520111900        000000000000000CIP COMPENSACAO               811                           
1040001300299T 0600249600300000286080D00000000000000000001               30042011000000000000000237000990                         090000002190717097104994953000000000097862008177002190717097110000000000000000002930000000000                 
1040001300300U 0600000000000000000000000000067900000000000022600000000000090500000000000452500000000000271500000000000000000000000000000029042011040520111900        000000000000000CIP COMPENSACAO               811                           
1040001300301T 0600249600300000286080D00000000000000000001               30042011000000000000000237037907                         090000002190717442104984953000000000097862008177002190717442110000000000000000002930000000000                 
1040001300302U 0600000000000000000000000000040400000000000013500000000000053900000000000269600000000000161800000000000000000000000000000029042011040520111900        000000000000000CIP COMPENSACAO               811                           
1040001300303T 0600249600300000286080D00000000000000000001               07101997000000000002703341084999                         090000002190717575104900000000000270397862008177002190717575110000000000000000002930000000000                 
1040001300304U 0600000000000000000000000000040500000000000013500000000000054100000000000270300000000000162200000000000000000000000000000029042011040520111900        000000000000000CIP COMPENSACAO               811                           
1040001300305T 0600249600300000286080D00000000000000000001               30042011000000000000000341007587                         090000002190717936104914953000000000097862008177002190717936110000000000000000002930000000000                 
1040001300306U 0600000000000000000000000000057900000000000019300000000000077200000000000386000000000000231600000000000000000000000000000029042011040520111900        000000000000000CIP COMPENSACAO               811                           
1040001300307T 0600249600300000286080D00000000000000000001               30042011000000000000000237069027                         090000002190717972104974953000000000097862008177002190717972110000000000000000002930000000000                 
1040001300308U 0600000000000000000000000000040600000000000013500000000000054200000000000270900000000000162600000000000000000000000000000029042011040520111900        000000000000000CIP COMPENSACAO               811                           
1040001300309T 0600249600300000286080D00000000000000000001               30042011000000000000000033021954                         090000002190720493104994953000000000097862008177002190720493110000000000000000002930000000000                 
1040001300310U 0600000000000000000000000000044000000000000014700000000000058700000000000293300000000000175900000000000000000000000000000029042011040520111900        000000000000000CIP COMPENSACAO               811                           
1040001300311T 0600249600300000286080D00000000000000000001               30042011000000000000000033021954                         090000002190720494104954953000000000097862008177002190720494110000000000000000002930000000000                 
1040001300312U 0600000000000000000000000000081200000000000027100000000000108200000000000541000000000000324500000000000000000000000000000029042011040520111900        000000000000000CIP COMPENSACAO               811                           
1040001300313T 0600249600300000286080D00000000000000000001               30042011000000000002580237038571                         090000002190720854104994953000000258097862008177002190720854110000000000000000002930000000000                 
1040001300314U 0600000000000000000000000000038700000000000012900000000000051600000000000258000000000000154800000000000000000000000000000029042011040520111900        000000000000000CIP COMPENSACAO               811                           
1040001300315T 0600249600300000286080D00000000000000000001               30042011000000000000000237037907                         090000002190722169104944953000000000097862008177002190722169110000000000000000002930000000000                 
1040001300316U 0600000000000000000000000000040400000000000013500000000000053900000000000269600000000000161800000000000000000000000000000029042011040520111900        000000000000000CIP COMPENSACAO               811                           
1040001300317T 0600249600300000286080D00000000000000000001               30042011000000000000000237037788                         090000002190815193104924953000000000097862008177002190815193110000000000000000002930000000000                 
1040001300318U 0600000000000000000000000000040400000000000013500000000000053900000000000269300000000000161500000000000000000000000000000029042011040520111900        000000000000000CIP COMPENSACAO               811                           
1040001300319T 0600249600300000286080D00000000000000000001               30042011000000000000000341001759                         090000002190815231104914953000000000097862008177002190815231110000000000000000002930000000000                 
1040001300320U 0600000000000000000000000000081800000000000027300000000000109000000000000545000000000000326900000000000000000000000000000029042011040520111900        000000000000000CIP COMPENSACAO               811                           
1040001300321T 0600249600300000286080D00000000000000000001               30042011000000000002469237005002                         090000002190815574104914953000000246997862008177002190815574110000000000000000002930000000000                 
1040001300322U 0600000000000000000000000000037000000000000012300000000000049400000000000246900000000000148200000000000000000000000000000029042011040520111900        000000000000000CIP COMPENSACAO               811                           
1040001300323T 0600249600300000286080D00000000000000000001               30042011000000000000000341003751                         090000002190816214104934953000000000097862008177002190816214110000000000000000002930000000000                 
1040001300324U 0600000000000000000000000000045900000000000015300000000000061200000000000306100000000000183700000000000000000000000000000029042011040520111900        000000000000000CIP COMPENSACAO               811                           
1040001300325T 0600249600300000286080D00000000000000000001               30042011000000000000000341002526                         090000002190912119104984953000000000097862008177002190912119110000000000000000002930000000000                 
1040001300326U 0600000000000000000000000000046800000000000015600000000000062400000000000312200000000000187400000000000000000000000000000029042011040520111900        000000000000000CIP COMPENSACAO               811                           
1040001300327T 0600249600300000286080D00000000000000000001               30042011000000000000000237037907                         090000002190913978104944953000000000097862008177002190913978110000000000000000002930000000000                 
1040001300328U 0600000000000000000000000000040400000000000013500000000000053900000000000269600000000000161800000000000000000000000000000029042011040520111900        000000000000000CIP COMPENSACAO               811                           
1040001300329T 0600249600300000286080D00000000000000000001               30042011000000000000000341003751                         090000002190916830104984953000000000097862008177002190916830110000000000000000002930000000000                 
1040001300330U 0600000000000000000000000000038000000000000012700000000000050700000000000253600000000000152200000000000000000000000000000029042011040520111900        000000000000000CIP COMPENSACAO               811                           
1040001300331T 0600249600300000286080D00000000000000000001               30042011000000000000000341001902                         090000002190917241104964953000000000097862008177002190917241110000000000000000002930000000000                 
1040001300332U 0600000000000000000000000000194300000000000064800000000000259000000000001295100000000000777000000000000000000000000000000029042011040520111900        000000000000000CIP COMPENSACAO               811                           
1040001300333T 0600249600300000286080D00000000000000000001               30042011000000000000000341003751                         090000002191013705104914953000000000097862008177002191013705110000000000000000002930000000000                 
1040001300334U 0600000000000000000000000000112700000000000037600000000000150200000000000751200000000000450700000000000000000000000000000029042011040520111900        000000000000000CIP COMPENSACAO               811                           
1040001300335T 0600249600300000286080D00000000000000000001               30042011000000000000000237037907                         090000002222930001104974953000000000097862008177002222930001110000000000000000002930000000000                 
1040001300336U 0600000000000000000000000000041300000000000013800000000000055100000000000275400000000000165200000000000000000000000000000029042011040520111900        000000000000000CIP COMPENSACAO               811                           
1040001300337T 0600249600300000286080D00000000000000000001               30042011000000000022548341001910                         090000002268330001104984953000002254897862006177002268330001810000000000000000002930000000000                 
1040001300338U 0600000000000000000000000000338200000000000112700000000000451000000000002254800000000001352900000000000000000000000000000029042011040520111900        000000000000000CIP COMPENSACAO               681                           
1040001300339T 0600249600300000286080D00000000000000000001               30042011000000000000000341007579                         090000002305390001104994953000000000097862008177002305390001110000000000000000002930000000000                 
1040001300340U 0600000000000000000000000000455400000000000151800000000000607300000000003036300000000001821800000000000000000000000000000029042011040520111900        000000000000000CIP COMPENSACAO               811                           
1040001300341T 0600249600300000286080D00000000000000000001               30042011000000000000000237037907                         090000002419290001104934953000000000097862008177002419290001110000000000000000002930000000000                 
1040001300342U 0600000000000000000000000000045600000000000015200000000000060800000000000303900000000000182300000000000000000000000000000029042011040520111900        000000000000000CIP COMPENSACAO               811                           
1040001300343T 0600249600300000286080D00000000000000000001               29042011000000000002693341002526                         090000002437236872104914952000000269397862006177002437236872810000000000000000002930000000000                 
1040001300344U 0600000000000000000000000000040400000000000013500000000000053900000000000269300000000000161500000000000000000000000000000029042011040520111900        000000000000000CIP COMPENSACAO               681                           
1040001300345T 0600249600300000286080D00000000000000000001               30042011000000000000000237035041                         090000002531510001104924953000000000097862008177002531510001110000000000000000002930000000000                 
1040001300346U 0600000000000000000000000000302400000000000100800000000000403200000000002015800000000001209400000000000000000000000000000029042011040520111900        000000000000000CIP COMPENSACAO               811                           
1040001300347T 0600249600300000286080D00000000000000000001               30042011000000000000000341016640                         090000002556510001104984953000000000097862008177002556510001110000000000000000002930000000000                 
1040001300348U 0600000000000000000000000000052100000000000017400000000000069500000000000347600000000000208600000000000000000000000000000029042011040520111900        000000000000000CIP COMPENSACAO               811                           
1040001300349T 0600249600300000286080D00000000000000000001               30042011000000000003382341003506                         090000002569400882104974953000000338297862008177002569400882110000000000000000002930000000000                 
1040001300350U 0600000000000000000000000000050700000000000016900000000000067600000000000338200000000000203000000000000000000000000000000029042011040520111900        000000000000000CIP COMPENSACAO               811                           
1040001300351T 0600249600300000286080D00000000000000000001               30042011000000000002336341003506                         090000002569400882104914953000000233697862008177002569400882110000000000000000002930000000000                 
1040001300352U 0600000000000000000000000000035000000000000011700000000000046700000000000233600000000000140200000000000000000000000000000029042011040520111900        000000000000000CIP COMPENSACAO               811                           
1040001300353T 0600249600300000286080D00000000000000000001               30042011000000000000000237037907                         090000002572340001104944953000000000097862008177002572340001110000000000000000002930000000000                 
1040001300354U 0600000000000000000000000000277800000000000092600000000000370400000000001852200000000001111400000000000000000000000000000029042011040520111900        000000000000000CIP COMPENSACAO               811                           
1040001300355T 0600249600300000286080D00000000000000000001               30042011000000000000000237037907                         090000002572500001104974953000000000097862008177002572500001110000000000000000002930000000000                 
1040001300356U 0600000000000000000000000000270300000000000090100000000000360400000000001801800000000001081000000000000000000000000000000029042011040520111900        000000000000000CIP COMPENSACAO               811                           
1040001300357T 0600249600300000286080D00000000000000000001               30042011000000000000000237001368                         090000002576230001104924953000000000097862008177002576230001110000000000000000002930000000000                 
1040001300358U 0600000000000000000000000000037000000000000012300000000000049300000000000246600000000000148000000000000000000000000000000029042011040520111900        000000000000000CIP COMPENSACAO               811                           
1040001300359T 0600249600300000286080D00000000000000000001               30042011000000000000000237037907                         090000002599650001104944953000000000097862008177002599650001110000000000000000002930000000000                 
1040001300360U 0600000000000000000000000000295300000000000098400000000000393700000000001968400000000001181000000000000000000000000000000029042011040520111900        000000000000000CIP COMPENSACAO               811                           
1040001300361T 0600249600300000286080D00000000000000000001               30042011000000000000000399015920                         090000002711360001104914953000000000097862008177002711360001110000000000000000002930000000000                 
1040001300362U 0600000000000000000000000000079500000000000026500000000000106000000000000530000000000000318000000000000000000000000000000029042011040520111900        000000000000000CIP COMPENSACAO               811                           
1040001300363T 0600249600300000286080D00000000000000000001               30042011000000000000000422000345                         090000002711560001104944953000000000097862008177002711560001110000000000000000002930000000000                 
1040001300364U 0600000000000000000000000000201700000000000067200000000000268900000000001344700000000000806900000000000000000000000000000029042011040520111900        000000000000000CIP COMPENSACAO               811                           
1040001300365T 0600249600300000286080D00000000000000000001               30042011000000000000000237037907                         090000002740910001104914953000000000097862008177002740910001110000000000000000002930000000000                 
1040001300366U 0600000000000000000000000000380400000000000126800000000000507200000000002536000000000001521600000000000000000000000000000029042011040520111900        000000000000000CIP COMPENSACAO               811                           
1040001300367T 0600249600300000286080D00000000000000000001               30042011000000000006576341005932                         090000002986980001104944953000000657697862008177002986980001110000000000000000002930000000000                 
1040001300368U 0600000000000000000000000000098600000000000032900000000000131500000000000657600000000000394600000000000000000000000000000029042011040520111900        000000000000000CIP COMPENSACAO               811                           
1040001300369T 0600249600300000286080D00000000000000000001               30042011000000000000000341001961                         090000003057260001104984953000000000097862008177003057260001110000000000000000002930000000000                 
1040001300370U 0600000000000000000000000000102000000000000034000000000000136000000000000680000000000000408000000000000000000000000000000029042011040520111900        000000000000000CIP COMPENSACAO               811                           
1040001300371T 0600249600300000286080D00000000000000000001               30042011000000000000000341005932                         090000003100690001104964953000000000097862008177003100690001110000000000000000002930000000000                 
1040001300372U 0600000000000000000000000000576000000000000192000000000000768000000000003840200000000002304200000000000000000000000000000029042011040520111900        000000000000000CIP COMPENSACAO               811                           
1040001300373T 0600249600300000286080D00000000000000000001               30042011000000000000000237038571                         090000003124970001104934953000000000097862008177003124970001110000000000000000002930000000000                 
1040001300374U 0600000000000000000000000000049900000000000016600000000000066500000000000332600000000000199600000000000000000000000000000029042011040520111900        000000000000000CIP COMPENSACAO               811                           
1040001300375T 0600249600300000286080D00000000000000000001               30042011000000000000000341003786                         090000003125050001104914953000000000097862008177003125050001110000000000000000002930000000000                 
1040001300376U 0600000000000000000000000000251300000000000083800000000000335100000000001675500000000001005300000000000000000000000000000029042011040520111900        000000000000000CIP COMPENSACAO               811                           
1040001300377T 0600249600300000286080D00000000000000000001               30042011000000000000000033035629                         090000003205420001104914953000000000097862008177003205420001110000000000000000002930000000000                 
1040001300378U 0600000000000000000000000000299200000000000099700000000000398900000000001994400000000001196600000000000000000000000000000029042011040520111900        000000000000000CIP COMPENSACAO               811                           
1040001300379T 0600249600300000286080D00000000000000000001               30042011000000000000000399002224                         090000003205570001104964953000000000097862008177003205570001110000000000000000002930000000000                 
1040001300380U 0600000000000000000000000000037000000000000012300000000000049300000000000246700000000000148100000000000000000000000000000029042011040520111900        000000000000000CIP COMPENSACAO               811                           
1040001300381T 0600249600300000286080D00000000000000000001               29042011000000000003097033031038                         090000003232022847104914952000000309797862008177003232022847110000000000000000002930000000000                 
1040001300382U 0600000000000000000000000000046500000000000015500000000000061900000000000309700000000000185800000000000000000000000000000029042011040520111900        000000000000000CIP COMPENSACAO               811                           
1040001300383T 0600249600300000286080D00000000000000000001               30042011000000000000000399015920                         090000003253580001104994953000000000097862008177003253580001110000000000000000002930000000000                 
1040001300384U 0600000000000000000000000000345000000000000115000000000000459900000000002299700000000001379800000000000000000000000000000029042011040520111900        000000000000000CIP COMPENSACAO               811                           
1040001300385T 0600249600300000286080D00000000000000000001               30042011000000000007800341084506                         090000003254650001104964953000000780097862008177003254650001110000000000000000002930000000000                 
1040001300386U 0600000000000000000000000000117000000000000039000000000000156000000000000780000000000000468000000000000000000000000000000029042011040520111900        000000000000000CIP COMPENSACAO               811                           
1040001300387T 0600249600300000286080D00000000000000000001               30042011000000000000000341029777                         090000003256860001104934953000000000097862008177003256860001110000000000000000002930000000000                 
1040001300388U 0600000000000000000000000000309300000000000103100000000000412400000000002062200000000001237400000000000000000000000000000029042011040520111900        000000000000000CIP COMPENSACAO               811                           
1040001300389T 0600249600300000286080D00000000000000000001               30042011000000000007703341000574                         090000003272808590104954953000000770397862008177003272808590110000000000000000002930000000000                 
1040001300390U 0600000000000000000000000000115500000000000038500000000000154100000000000770300000000000462200000000000000000000000000000029042011040520111900        000000000000000CIP COMPENSACAO               811                           
1040001300391T 0600249600300000286080D00000000000000000001               30042011000000000000000033033731                         090000003277970001104914953000000000097862008177003277970001110000000000000000002930000000000                 
1040001300392U 0600000000000000000000000000224500000000000074800000000000299300000000001496700000000000898100000000000000000000000000000029042011040520111900        000000000000000CIP COMPENSACAO               811                           
1040001300393T 0600249600300000286080D00000000000000000001               30042011000000000000000341000680                         090000003308320001104914953000000000097862008177003308320001110000000000000000002930000000000                 
1040001300394U 0600000000000000000000000000080400000000000026800000000000107100000000000535700000000000321400000000000000000000000000000029042011040520111900        000000000000000CIP COMPENSACAO               811                           
1040001300395T 0600249600300000286080D00000000000000000001               30042011000000000000000341087815                         090000003410950001104974953000000000097862008177003410950001110000000000000000002930000000000                 
1040001300396U 0600000000000000000000000000028600000000000009500000000000038200000000000190900000000000114600000000000000000000000000000029042011040520111900        000000000000000CIP COMPENSACAO               811                           
1040001300397T 0600249600300000286080D00000000000000000001               29042011000000000002693341001872                         090000003433910001104914952000000269397862008177003433910001110000000000000000002930000000000                 
1040001300398U 0600000000000000000000000000040400000000000013500000000000053900000000000269300000000000161500000000000000000000000000000029042011040520111900        000000000000000CIP COMPENSACAO               811                           
1040001300399T 0600249600300000286080D00000000000000000001               30042011000000000000000237028940                         090000003457800001104984953000000000097862008177003457800001110000000000000000002930000000000                 
1040001300400U 0600000000000000000000000000040400000000000013500000000000053900000000000269300000000000161500000000000000000000000000000029042011040520111900        000000000000000CIP COMPENSACAO               811                           
1040001300401T 0600249600300000286080D00000000000000000001               30042011000000000000000422000345                         090000003515340001104914953000000000097862008177003515340001110000000000000000002930000000000                 
1040001300402U 0600000000000000000000000000323200000000000107700000000000430900000000002154700000000001292900000000000000000000000000000029042011040520111900        000000000000000CIP COMPENSACAO               811                           
1040001300403T 0600249600300000286080D00000000000000000001               30042011000000000000000341002526                         090000003515380001104914953000000000097862008177003515380001110000000000000000002930000000000                 
1040001300404U 0600000000000000000000000000145500000000000048500000000000194000000000000969800000000000581800000000000000000000000000000029042011040520111900        000000000000000CIP COMPENSACAO               811                           
1040001300405T 0600249600300000286080D00000000000000000001               30042011000000000000000237069027                         090000003515450001104954953000000000097862008177003515450001110000000000000000002930000000000                 
1040001300406U 0600000000000000000000000000040400000000000013500000000000053900000000000269300000000000161500000000000000000000000000000029042011040520111900        000000000000000CIP COMPENSACAO               811                           
1040001300407T 0600249600300000286080D00000000000000000001               30042011000000000000000237006700                         090000003518120001104964953000000000097862008177003518120001110000000000000000002930000000000                 
1040001300408U 0600000000000000000000000000272500000000000090800000000000363300000000001816500000000001089900000000000000000000000000000029042011040520111900        000000000000000CIP COMPENSACAO               811                           
1040001300409T 0600249600300000286080D00000000000000000001               30042011000000000000000341029238                         090000003525030001104914953000000000097862008177003525030001110000000000000000002930000000000                 
1040001300410U 0600000000000000000000000000078600000000000026200000000000104700000000000523700000000000314200000000000000000000000000000029042011040520111900        000000000000000CIP COMPENSACAO               811                           
1040001300411T 0600249600300000286080D00000000000000000001               30042011000000000000000341071862                         090000003597660001104964953000000000097862008177003597660001110000000000000000002930000000000                 
1040001300412U 0600000000000000000000000000052100000000000017400000000000069400000000000347000000000000208100000000000000000000000000000029042011040520111900        000000000000000CIP COMPENSACAO               811                           
