10400000         243070481000114186200              00249600300000286080SINEMPEDIFPORTCAB MUN SP      CAIXA ECONOMICA FEDERAL                 20505201108004900147706000000                                                                     
10400011T01  030 2043070481000114186200              00249600300000286080SINEMPEDIFPORTCAB MUN SP      200501                                  300562CONATEC                           000000000505201100000000                                 
1040001300001T 0600249600300000286080D00000000000000000001               30042011000000000014417341016187                         090000602671430001104904953000001441797862009177602671430001190000000000000000002930000000000                 
1040001300002U 0600000000000000000000000000216300000000000072100000000000288300000000001441700000000000865000000000000000000000000000000028042011050520111900        000000000000000CIP COMPENSACAO               919                           
1040001300003T 0600249600300000286080D00000000000000000001               30042011000000000000000237037907                         090000000000000006104914953000000000097862008177000000000006110000000000000000002930000000000                 
1040001300004U 0600000000000000000000000000019900000000000006600000000000026600000000000132900000000000079800000000000000000000000000000002052011050520111900        000000000000000CIP COMPENSACAO               811                           
1040001300005T 0600249600300000286080D00000000000000000001               30042011000000000000000033033731                         090000000000320001104994953000000000097862008177000000320001110000000000000000002930000000000                 
1040001300006U 0600000000000000000000000000310100000000000103400000000000413500000000002067300000000001240300000000000000000000000000000002052011050520111900        000000000000000CIP COMPENSACAO               811                           
1040001300007T 0600249600300000286080D00000000000000000001               30042011000000000000000237013471                         090000000001670001104964953000000000097862008177000001670001110000000000000000002930000000000                 
1040001300008U 0600000000000000000000000000321300000000000107100000000000428400000000002141900000000001285100000000000000000000000000000002052011050520111900        000000000000000CIP COMPENSACAO               811                           
1040001300009T 0600249600300000286080D00000000000000000001               30042011000000000000000237031143                         090000000005684228104914953000000000097862008177000005684228110000000000000000002930000000000                 
1040001300010U 0600000000000000000000000000100500000000000033500000000000133900000000000669700000000000401800000000000000000000000000000002052011050520111900        000000000000000CIP COMPENSACAO               811                           
1040001300011T 0600249600300000286080D00000000000000000001               30042011000000000000000237037907                         090000000059616451104994953000000000097862008177000059616451110000000000000000002930000000000                 
1040001300012U 0600000000000000000000000000041700000000000013900000000000055600000000000278200000000000167000000000000000000000000000000002052011050520111900        000000000000000CIP COMPENSACAO               811                           
1040001300013T 0600249600300000286080D00000000000000000001               30042011000000000000000341001775                         090000000559630001104994953000000000097862008177000559630001110000000000000000002930000000000                 
1040001300014U 0600000000000000000000000000054300000000000018100000000000072500000000000362300000000000217400000000000000000000000000000002052011050520111900        000000000000000CIP COMPENSACAO               811                           
1040001300015T 0600249600300000286080D00000000000000000001               30042011000000000013156237020036                         090000000562710001104934953000001315697862008177000562710001110000000000000000002930000000000                 
1040001300016U 0600000000000000000000000000197300000000000065800000000000263100000000001315600000000000789400000000000000000000000000000002052011050520111900        000000000000000CIP COMPENSACAO               811                           
1040001300017T 0600249600300000286080D00000000000000000001               30042011000000000000000341010006                         090000000615630001104934953000000000097862008177000615630001110000000000000000002930000000000                 
1040001300018U 0600000000000000000000000000367100000000000122400000000000489400000000002447200000000001468300000000000000000000000000000002052011050520111900        000000000000000CIP COMPENSACAO               811                           
1040001300019T 0600249600300000286080D00000000000000000001               30042011000000000000000341001880                         090000000683090001104934953000000000097862008177000683090001110000000000000000002930000000000                 
1040001300020U 0600000000000000000000000000095400000000000031800000000000127100000000000635700000000000381400000000000000000000000000000002052011050520111900        000000000000000CIP COMPENSACAO               811                           
1040001300021T 0600249600300000286080D00000000000000000001               30042011000000000000000237004952                         090000000743830001104994953000000000097862008177000743830001110000000000000000002930000000000                 
1040001300022U 0600000000000000000000000000356700000000000118900000000000475700000000002378300000000001427000000000000000000000000000000002052011050520111900        000000000000000CIP COMPENSACAO               811                           
1040001300023T 0600249600300000286080D00000000000000000001               30042011000000000000000341001945                         090000000755140001104924953000000000097862008177000755140001110000000000000000002930000000000                 
1040001300024U 0600000000000000000000000000061200000000000020400000000000081700000000000408300000000000245000000000000000000000000000000002052011050520111900        000000000000000CIP COMPENSACAO               811                           
1040001300025T 0600249600300000286080D00000000000000000001               30042011000000000000000341004286                         090000000776900001104994953000000000097862008177000776900001110000000000000000002930000000000                 
1040001300026U 0600000000000000000000000000127700000000000042600000000000170200000000000851200000000000510700000000000000000000000000000002052011050520111900        000000000000000CIP COMPENSACAO               811                           
1040001300027T 0600249600300000286080D00000000000000000001               07101997000000000014071341010006                         090000000846560001104900000000001407197862008177000846560001110000000000000000002930000000000                 
1040001300028U 0600000000000000000000000000211100000000000070400000000000281400000000001407100000000000844200000000000000000000000000000002052011050520111900        000000000000000CIP COMPENSACAO               811                           
1040001300029T 0600249600300000286080D00000000000000000001               30042011000000000000000237038229                         090000000915330001104974953000000000097862008177000915330001110000000000000000002930000000000                 
1040001300030U 0600000000000000000000000000283200000000000094400000000000377700000000001888300000000001133000000000000000000000000000000002052011050520111900        000000000000000CIP COMPENSACAO               811                           
1040001300031T 0600249600300000286080D00000000000000000001               30042011000000000000000341004405                         090000000937890001104934953000000000097862008177000937890001110000000000000000002930000000000                 
1040001300032U 0600000000000000000000000000280400000000000093500000000000373800000000001869000000000001121300000000000000000000000000000002052011050520111900        000000000000000CIP COMPENSACAO               811                           
1040001300033T 0600249600300000286080D00000000000000000001               30042011000000000000000422001244                         090000001027410001104954953000000000097862008177001027410001110000000000000000002930000000000                 
1040001300034U 0600000000000000000000000000341400000000000113800000000000455100000000002275700000000001365400000000000000000000000000000002052011050520111900        000000000000000CIP COMPENSACAO               811                           
1040001300035T 0600249600300000286080D00000000000000000001               30042011000000000000000341001503                         090000001137890001104984953000000000097862008177001137890001110000000000000000002930000000000                 
1040001300036U 0600000000000000000000000000363400000000000121100000000000484500000000002422400000000001453400000000000000000000000000000002052011050520111900        000000000000000CIP COMPENSACAO               811                           
1040001300037T 0600249600300000286080D00000000000000000001               07101997000000000000000341003689                         090000001176590001104900000000000000097862008177001176590001110000000000000000002930000000000                 
1040001300038U 0600000000000000000000000000319800000000000106600000000000426300000000002131700000000001279000000000000000000000000000000002052011050520111900        000000000000000CIP COMPENSACAO               811                           
1040001300039T 0600249600300000286080D00000000000000000001               30042011000000000000000237030902                         090000001190910001104944953000000000097862008177001190910001110000000000000000002930000000000                 
1040001300040U 0600000000000000000000000000363800000000000121300000000000485100000000002425300000000001455100000000000000000000000000000002052011050520111900        000000000000000CIP COMPENSACAO               811                           
1040001300041T 0600249600300000286080D00000000000000000001               07101997000000000000000341005932                         090000001277160001104900000000000000097862008177001277160001110000000000000000002930000000000                 
1040001300042U 0600000000000000000000000000040500000000000013500000000000054000000000000270000000000000162000000000000000000000000000000002052011050520111900        000000000000000CIP COMPENSACAO               811                           
1040001300043T 0600249600300000286080D00000000000000000001               30042011000000000005258237006149                         090000001277260001104984953000000525897862008177001277260001110000000000000000002930000000000                 
1040001300044U 0600000000000000000000000000078900000000000026300000000000105200000000000525800000000000315400000000000000000000000000000002052011050520111900        000000000000000CIP COMPENSACAO               811                           
1040001300045T 0600249600300000286080D00000000000000000001               30042011000000000022070104029416                         090000001465650001104994953000002207097862008177001465650001110000000000000000002780000000000                 
1040001300046U 0600000000000000000000000000331100000000000110400000000000441400000000002207000000000001324100000000000000000000000000000002052011050520112100        000000000000000AUTOMACAO                     811                           
1040001300047T 0600249600300000286080D00000000000000000001               30042011000000000000000237038229                         090000001465700001104964953000000000097862008177001465700001110000000000000000002930000000000                 
1040001300048U 0600000000000000000000000000332100000000000110700000000000442700000000002213700000000001328200000000000000000000000000000002052011050520111900        000000000000000CIP COMPENSACAO               811                           
1040001300049T 0600249600300000286080D00000000000000000001               30042011000000000000000341003506                         090000001469120001104934953000000000097862008177001469120001110000000000000000002930000000000                 
1040001300050U 0600000000000000000000000000360400000000000120100000000000480500000000002402600000000001441600000000000000000000000000000002052011050520111900        000000000000000CIP COMPENSACAO               811                           
1040001300051T 0600249600300000286080D00000000000000000001               30042011000000000000000341003506                         090000001544370001104914953000000000097862008177001544370001110000000000000000002930000000000                 
1040001300052U 0600000000000000000000000000473500000000000157800000000000631400000000003156900000000001894200000000000000000000000000000002052011050520111900        000000000000000CIP COMPENSACAO               811                           
1040001300053T 0600249600300000286080D00000000000000000001               30042011000000000022590001068322                         090000001653830001104964953000002259097862008177001653830001110000000000000000002930000000000                 
1040001300054U 0600000000000000000000000000338900000000000113000000000000451800000000002259000000000001355300000000000000000000000000000002052011050520111900        000000000000000CIP COMPENSACAO               811                           
1040001300055T 0600249600300000286080D00000000000000000001               14021999000003000000000237001970                         090000001895580001104910495300000000097862008177001895580001110000000000000000002930000000000                 
1040001300056U 0600000000000000000000000000170800000000000056900000000000227800000000001138900000000000683400000000000000000000000000000002052011050520111900        000000000000000CIP COMPENSACAO               811                           
1040001300057T 0600249600300000286080D00000000000000000001               30042011000000000000000341004286                         090000002094320001104984953000000000097862008177002094320001110000000000000000002930000000000                 
1040001300058U 0600000000000000000000000000364400000000000121500000000000485800000000002429200000000001457500000000000000000000000000000002052011050520111900        000000000000000CIP COMPENSACAO               811                           
1040001300059T 0600249600300000286080D00000000000000000001               30042011000000000000000422001244                         090000002190104464104974953000000000097862008177002190104464110000000000000000002930000000000                 
1040001300060U 0600000000000000000000000000057900000000000019300000000000077200000000000386000000000000231600000000000000000000000000000002052011050520111900        000000000000000CIP COMPENSACAO               811                           
1040001300061T 0600249600300000286080D00000000000000000001               30042011000000000000000341004529                         090000002190114371104914953000000000097862008177002190114371110000000000000000002930000000000                 
1040001300062U 0600000000000000000000000000040400000000000013500000000000053900000000000269300000000000161500000000000000000000000000000002052011050520111900        000000000000000CIP COMPENSACAO               811                           
1040001300063T 0600249600300000286080D00000000000000000001               30042011000000000000000033030562                         090000002190115155104914953000000000097862008177002190115155110000000000000000002930000000000                 
1040001300064U 0600000000000000000000000000049200000000000016400000000000065600000000000327900000000000196700000000000000000000000000000002052011050520111900        000000000000000CIP COMPENSACAO               811                           
1040001300065T 0600249600300000286080D00000000000000000001               30042011000000000000000033033731                         090000002190115679104914953000000000097862008177002190115679110000000000000000002930000000000                 
1040001300066U 0600000000000000000000000000054900000000000018300000000000073200000000000365900000000000219500000000000000000000000000000002052011050520111900        000000000000000CIP COMPENSACAO               811                           
1040001300067T 0600249600300000286080D00000000000000000001               30042011000000000000000399009172                         090000002190121362104944953000000000097862008177002190121362110000000000000000002930000000000                 
1040001300068U 0600000000000000000000000000037100000000000012400000000000049500000000000247500000000000148500000000000000000000000000000002052011050520111900        000000000000000CIP COMPENSACAO               811                           
1040001300069T 0600249600300000286080D00000000000000000001               30042011000000000023500237037516                         090000002190125691104914953000002350097862008177002190125691110000000000000000002930000000000                 
1040001300070U 0600000000000000000000000000352500000000000117500000000000470000000000002350000000000001410000000000000000000000000000000002052011050520111900        000000000000000CIP COMPENSACAO               811                           
1040001300071T 0600249600300000286080D00000000000000000001               30042011000000000000000237031143                         090000002190126793104934953000000000097862008177002190126793110000000000000000002930000000000                 
1040001300072U 0600000000000000000000000000198600000000000066200000000000264800000000001324000000000000794400000000000000000000000000000002052011050520111900        000000000000000CIP COMPENSACAO               811                           
1040001300073T 0600249600300000286080D00000000000000000001               30042011000000000000000341001708                         090000002190131570104994953000000000097862008177002190131570110000000000000000002930000000000                 
1040001300074U 0600000000000000000000000000050400000000000016800000000000067100000000000335700000000000201400000000000000000000000000000002052011050520111900        000000000000000CIP COMPENSACAO               811                           
1040001300075T 0600249600300000286080D00000000000000000001               30042011000000000000000237037907                         090000002190212338104994953000000000097862008177002190212338110000000000000000002930000000000                 
1040001300076U 0600000000000000000000000000060300000000000020100000000000080400000000000401900000000000241100000000000000000000000000000002052011050520111900        000000000000000CIP COMPENSACAO               811                           
1040001300077T 0600249600300000286080D00000000000000000001               30042011000000000000000341062383                         090000002190212659104914953000000000097862008177002190212659110000000000000000002930000000000                 
1040001300078U 0600000000000000000000000000037000000000000012300000000000049300000000000246600000000000148000000000000000000000000000000002052011050520111900        000000000000000CIP COMPENSACAO               811                           
1040001300079T 0600249600300000286080D00000000000000000001               30042011000000000000000237038571                         090000002190212885104914953000000000097862008177002190212885110000000000000000002930000000000                 
1040001300080U 0600000000000000000000000000040400000000000013500000000000053900000000000269300000000000161500000000000000000000000000000002052011050520111900        000000000000000CIP COMPENSACAO               811                           
1040001300081T 0600249600300000286080D00000000000000000001               30042011000000000000000237037907                         090000002190214251104984953000000000097862008177002190214251110000000000000000002930000000000                 
1040001300082U 0600000000000000000000000000481200000000000160400000000000641600000000003207900000000001924700000000000000000000000000000002052011050520111900        000000000000000CIP COMPENSACAO               811                           
1040001300083T 0600249600300000286080D00000000000000000001               30042011000000000000000033034100                         090000002190214887104914953000000000097862008177002190214887110000000000000000002930000000000                 
1040001300084U 0600000000000000000000000000041100000000000013700000000000054900000000000274300000000000164600000000000000000000000000000002052011050520111900        000000000000000CIP COMPENSACAO               811                           
1040001300085T 0600249600300000286080D00000000000000000001               30042011000000000000000341003506                         090000002190215257104914953000000000097862008177002190215257110000000000000000002930000000000                 
1040001300086U 0600000000000000000000000000268200000000000089400000000000357500000000001787700000000001072600000000000000000000000000000002052011050520111900        000000000000000CIP COMPENSACAO               811                           
1040001300087T 0600249600300000286080D00000000000000000001               30042011000000000000000033038296                         090000002190219266104934953000000000097862008177002190219266110000000000000000002930000000000                 
1040001300088U 0600000000000000000000000000045600000000000015200000000000060800000000000304000000000000182400000000000000000000000000000002052011050520111900        000000000000000CIP COMPENSACAO               811                           
1040001300089T 0600249600300000286080D00000000000000000001               30042011000000000000000033034100                         090000002190220465104964953000000000097862008177002190220465110000000000000000002930000000000                 
1040001300090U 0600000000000000000000000000040400000000000013500000000000053900000000000269300000000000161500000000000000000000000000000002052011050520111900        000000000000000CIP COMPENSACAO               811                           
1040001300091T 0600249600300000286080D00000000000000000001               30042011000000000000000422001244                         090000002190312842104914953000000000097862008177002190312842110000000000000000002930000000000                 
1040001300092U 0600000000000000000000000000086200000000000028700000000000115000000000000574900000000000345000000000000000000000000000000002052011050520111900        000000000000000CIP COMPENSACAO               811                           
1040001300093T 0600249600300000286080D00000000000000000001               30042011000000000000000237035416                         090000002190313624104974953000000000097862008177002190313624110000000000000000002930000000000                 
1040001300094U 0600000000000000000000000000077500000000000025800000000000103300000000000516400000000000309800000000000000000000000000000002052011050520111900        000000000000000CIP COMPENSACAO               811                           
1040001300095T 0600249600300000286080D00000000000000000001               30042011000000000000000341007455                         090000002190315199104914953000000000097862008177002190315199110000000000000000002930000000000                 
1040001300096U 0600000000000000000000000000209200000000000069700000000000278900000000001394400000000000836600000000000000000000000000000002052011050520111900        000000000000000CIP COMPENSACAO               811                           
1040001300097T 0600249600300000286080D00000000000000000001               30042011000000000000000341004405                         090000002190319029104934953000000000097862008177002190319029110000000000000000002930000000000                 
1040001300098U 0600000000000000000000000000053800000000000017900000000000071700000000000358700000000000215300000000000000000000000000000002052011050520111900        000000000000000CIP COMPENSACAO               811                           
1040001300099T 0600249600300000286080D00000000000000000001               30042011000000000000000341004405                         090000002190319871104964953000000000097862008177002190319871110000000000000000002930000000000                 
1040001300100U 0600000000000000000000000000162600000000000054200000000000216800000000001084200000000000650600000000000000000000000000000002052011050520111900        000000000000000CIP COMPENSACAO               811                           
1040001300101T 0600249600300000286080D00000000000000000001               30042011000000000000000341062383                         090000002190403254104944953000000000097862008177002190403254110000000000000000002930000000000                 
1040001300102U 0600000000000000000000000000077800000000000025900000000000103700000000000518600000000000311200000000000000000000000000000002052011050520111900        000000000000000CIP COMPENSACAO               811                           
1040001300103T 0600249600300000286080D00000000000000000001               30042011000000000003125341081795                         090000002190417460104994953000000312597862008177002190417460110000000000000000002930000000000                 
1040001300104U 0600000000000000000000000000046900000000000015600000000000062500000000000312500000000000187500000000000000000000000000000002052011050520111900        000000000000000CIP COMPENSACAO               811                           
1040001300105T 0600249600300000286080D00000000000000000001               30042011000000000000000341062383                         090000002190419796104964953000000000097862008177002190419796110000000000000000002930000000000                 
1040001300106U 0600000000000000000000000000037000000000000012300000000000049300000000000246600000000000148000000000000000000000000000000002052011050520111900        000000000000000CIP COMPENSACAO               811                           
1040001300107T 0600249600300000286080D00000000000000000001               30042011000000000000000237004499                         090000002190421460104914953000000000097862008177002190421460110000000000000000002930000000000                 
1040001300108U 0600000000000000000000000000040400000000000013500000000000053900000000000269300000000000161500000000000000000000000000000002052011050520111900        000000000000000CIP COMPENSACAO               811                           
1040001300109T 0600249600300000286080D00000000000000000001               30042011000000000000000341037630                         090000002190712135104914953000000000097862008177002190712135110000000000000000002930000000000                 
1040001300110U 0600000000000000000000000000060500000000000020200000000000080700000000000403300000000000241900000000000000000000000000000002052011050520111900        000000000000000CIP COMPENSACAO               811                           
1040001300111T 0600249600300000286080D00000000000000000001               30042011000000000000000399011673                         090000002190712289104974953000000000097862008177002190712289110000000000000000002930000000000                 
1040001300112U 0600000000000000000000000000065400000000000021800000000000087300000000000436300000000000261800000000000000000000000000000002052011050520111900        000000000000000CIP COMPENSACAO               811                           
1040001300113T 0600249600300000286080D00000000000000000001               30042011000000000000000341037630                         090000002190712738104964953000000000097862008177002190712738110000000000000000002930000000000                 
1040001300114U 0600000000000000000000000000062700000000000020900000000000083500000000000417700000000000250600000000000000000000000000000002052011050520111900        000000000000000CIP COMPENSACAO               811                           
1040001300115T 0600249600300000286080D00000000000000000001               30042011000000000000000341005932                         090000002190811503104974953000000000097862008177002190811503110000000000000000002930000000000                 
1040001300116U 0600000000000000000000000000037000000000000012300000000000049300000000000246700000000000148100000000000000000000000000000002052011050520111900        000000000000000CIP COMPENSACAO               811                           
1040001300117T 0600249600300000286080D00000000000000000001               30042011000000000000000341081795                         090000002190818624104944953000000000097862008177002190818624110000000000000000002930000000000                 
1040001300118U 0600000000000000000000000000095600000000000031900000000000127500000000000637300000000000382300000000000000000000000000000002052011050520111900        000000000000000CIP COMPENSACAO               811                           
1040001300119T 0600249600300000286080D00000000000000000001               30042011000000000017725341004677                         090000002297850001104954953000001772597862008177002297850001110000000000000000002930000000000                 
1040001300120U 0600000000000000000000000000265900000000000088600000000000354500000000001772500000000001063500000000000000000000000000000002052011050520111900        000000000000000CIP COMPENSACAO               811                           
1040001300121T 0600249600300000286080D00000000000000000001               30042011000000000000000422000345                         090000002305290001104974953000000000097862008177002305290001110000000000000000002930000000000                 
1040001300122U 0600000000000000000000000000633800000000000211300000000000845000000000004225000000000002534900000000000000000000000000000002052011050520111900        000000000000000CIP COMPENSACAO               811                           
1040001300123T 0600249600300000286080D00000000000000000001               30042011000000000000000341003549                         090000002305410001104994953000000000097862008177002305410001110000000000000000002930000000000                 
1040001300124U 0600000000000000000000000000053800000000000017900000000000071700000000000358600000000000215200000000000000000000000000000002052011050520111900        000000000000000CIP COMPENSACAO               811                           
1040001300125T 0600249600300000286080D00000000000000000001               30042011000000000000000033038539                         090000002368430001104924953000000000097862008177002368430001110000000000000000002930000000000                 
1040001300126U 0600000000000000000000000000191800000000000063900000000000255700000000001278700000000000767300000000000000000000000000000002052011050520111900        000000000000000CIP COMPENSACAO               811                           
1040001300127T 0600249600300000286080D00000000000000000001               07101997000000000005664341003689                         090000002495480001104900000000000566497862008177002495480001110000000000000000002930000000000                 
1040001300128U 0600000000000000000000000000085000000000000028300000000000113300000000000566400000000000339800000000000000000000000000000002052011050520111900        000000000000000CIP COMPENSACAO               811                           
1040001300129T 0600249600300000286080D00000000000000000001               30042011000000000017800237037001                         090000002556480001104944953000001780097862008177002556480001110000000000000000002930000000000                 
1040001300130U 0600000000000000000000000000267000000000000089000000000000356000000000001780000000000001068000000000000000000000000000000002052011050520111900        000000000000000CIP COMPENSACAO               811                           
1040001300131T 0600249600300000286080D00000000000000000001               30042011000000000000000341003506                         090000002574210001104914953000000000097862008177002574210001110000000000000000002930000000000                 
1040001300132U 0600000000000000000000000000119700000000000039900000000000159600000000000798000000000000478800000000000000000000000000000002052011050520111900        000000000000000CIP COMPENSACAO               811                           
1040001300133T 0600249600300000286080D00000000000000000001               30042011000000000000000341004286                         090000002964240001104974953000000000097862008177002964240001110000000000000000002930000000000                 
1040001300134U 0600000000000000000000000000264800000000000088300000000000353100000000001765500000000001059300000000000000000000000000000002052011050520111900        000000000000000CIP COMPENSACAO               811                           
1040001300135T 0600249600300000286080D00000000000000000001               30042011000000000000000341029777                         090000003096080001104914953000000000097862008177003096080001110000000000000000002930000000000                 
1040001300136U 0600000000000000000000000000388400000000000129500000000000517900000000002589300000000001553500000000000000000000000000000002052011050520111900        000000000000000CIP COMPENSACAO               811                           
1040001300137T 0600249600300000286080D00000000000000000001               30042011000000000005256104029416                         090000003100390001104914953000000525697862008177003100390001110000000000000000002780000000000                 
1040001300138U 0600000000000000000000000000078800000000000026300000000000105100000000000525600000000000315400000000000000000000000000000002052011050520112100        000000000000000AUTOMACAO                     811                           
1040001300139T 0600249600300000286080D00000000000000000001               30042011000000000000000237037788                         090000003124680001104914953000000000097862008177003124680001110000000000000000002930000000000                 
1040001300140U 0600000000000000000000000000287300000000000095800000000000383000000000001915000000000001148900000000000000000000000000000002052011050520111900        000000000000000CIP COMPENSACAO               811                           
1040001300141T 0600249600300000286080D00000000000000000001               30042011000000000000000341007455                         090000003148780001104914953000000000097862008177003148780001110000000000000000002930000000000                 
1040001300142U 0600000000000000000000000000235400000000000078500000000000313900000000001569400000000000941600000000000000000000000000000002052011050520111900        000000000000000CIP COMPENSACAO               811                           
1040001300143T 0600249600300000286080D00000000000000000001               30042011000000000000000033038539                         090000003410970001104924953000000000097862008177003410970001110000000000000000002930000000000                 
1040001300144U 0600000000000000000000000000245800000000000081900000000000327700000000001638700000000000983300000000000000000000000000000002052011050520111900        000000000000000CIP COMPENSACAO               811                           
1040001300145T 0600249600300000286080D00000000000000000001               30042011000000000000000341004286                         090000003515620001104914953000000000097862008177003515620001110000000000000000002930000000000                 
1040001300146U 0600000000000000000000000000062100000000000020700000000000082800000000000414000000000000248400000000000000000000000000000002052011050520111900        000000000000000CIP COMPENSACAO               811                           
1040001300147T 0600249600300000286080D00000000000000000001               30042011000000000017275341001384                         090000003617380001104914953000001727597862008177003617380001110000000000000000002930000000000                 
1040001300148U 0600000000000000000000000000259100000000000086400000000000345500000000001727500000000001036500000000000000000000000000000002052011050520111900        000000000000000CIP COMPENSACAO               811                           
1040001300149T 0600249600300000286080D00000000000000000001               30042011000000000000000341001880                         090000003679110001104914953000000000097862008177003679110001110000000000000000002930000000000                 
1040001300150U 0600000000000000000000000000163600000000000054500000000000218100000000001090600000000000654400000000000000000000000000000002052011050520111900        000000000000000CIP COMPENSACAO               811                           
1040001300151T 0600249600300000286080D00000000000000000001               30042011000000000000000422001244                         090000003774580001104934953000000000097862008177003774580001110000000000000000002930000000000                 
1040001300152U 0600000000000000000000000000251500000000000083800000000000335300000000001676500000000001005900000000000000000000000000000002052011050520111900        000000000000000CIP COMPENSACAO               811                           
1040001300153T 0600249600300000286080D00000000000000000001               30042011000000000000000237004782                         090000003775260001104914953000000000097862008177003775260001110000000000000000002930000000000                 
1040001300154U 0600000000000000000000000000098400000000000032800000000000131200000000000656100000000000393700000000000000000000000000000002052011050520111900        000000000000000CIP COMPENSACAO               811                           
1040001300155T 0600249600300000286080D00000000000000000001               30042011000000000000000341003670                         090000004451510001104914953000000000097862008177004451510001110000000000000000002930000000000                 
1040001300156U 0600000000000000000000000000047400000000000015800000000000063100000000000315700000000000189400000000000000000000000000000002052011050520111900        000000000000000CIP COMPENSACAO               811                           
1040001300157T 0600249600300000286080D00000000000000000001               30042011000000000000000422001244                         090000004457810001104964953000000000097862008177004457810001110000000000000000002930000000000                 
1040001300158U 0600000000000000000000000000280600000000000093500000000000374100000000001870500000000001122300000000000000000000000000000002052011050520111900        000000000000000CIP COMPENSACAO               811                           
1040001300159T 0600249600300000286080D00000000000000000001               30042011000000000000000399009121                         090000004561470001104914953000000000097862008177004561470001110000000000000000002930000000000                 
1040001300160U 0600000000000000000000000000181300000000000060400000000000241700000000001208600000000000725200000000000000000000000000000002052011050520111900        000000000000000CIP COMPENSACAO               811                           
1040001300161T 0600249600300000286080D00000000000000000001               30042011000000000029432399004057                         090000004634450001104974953000002943297862008177004634450001110000000000000000002930000000000                 
1040001300162U 0600000000000000000000000000441500000000000147200000000000588600000000002943200000000001765900000000000000000000000000000002052011050520111900        000000000000000CIP COMPENSACAO               811                           
1040001300163T 0600249600300000286080D00000000000000000001               30042011000000000000000341002852                         090000004647340001104914953000000000097862008177004647340001110000000000000000002930000000000                 
1040001300164U 0600000000000000000000000000414300000000000138100000000000552400000000002761800000000001657000000000000000000000000000000002052011050520111900        000000000000000CIP COMPENSACAO               811                           
1040001300165T 0600249600300000286080D00000000000000000001               30042011000000000000000341003506                         090000004758000001104964953000000000097862008177004758000001110000000000000000002930000000000                 
1040001300166U 0600000000000000000000000000511300000000000170400000000000681800000000003408800000000002045300000000000000000000000000000002052011050520111900        000000000000000CIP COMPENSACAO               811                           
1040001300167T 0600249600300000286080D00000000000000000001               30042011000000000000000033039896                         090000005084330001104914953000000000097862008177005084330001110000000000000000002930000000000                 
1040001300168U 0600000000000000000000000000144300000000000048100000000000192400000000000962000000000000577200000000000000000000000000000002052011050520111900        000000000000000CIP COMPENSACAO               811                           
1040001300169T 0600249600300000286080D00000000000000000001               30042011000000000000000341004529                         090000005084350001104954953000000000097862008177005084350001110000000000000000002930000000000                 
1040001300170U 0600000000000000000000000000091700000000000030600000000000122300000000000611600000000000367000000000000000000000000000000002052011050520111900        000000000000000CIP COMPENSACAO               811                           
1040001300171T 0600249600300000286080D00000000000000000001               30042011000000000000000341003549                         090000005120249254104994953000000000097862008177005120249254110000000000000000002930000000000                 
1040001300172U 0600000000000000000000000000040400000000000013500000000000053900000000000269600000000000161800000000000000000000000000000002052011050520111900        000000000000000CIP COMPENSACAO               811                           
1040001300173T 0600249600300000286080D00000000000000000001               30042011000000000021074237008982                         090000005260890001104964953000002107497862008177005260890001110000000000000000002930000000000                 
1040001300174U 0600000000000000000000000000316100000000000105400000000000421500000000002107400000000001264400000000000000000000000000000002052011050520111900        000000000000000CIP COMPENSACAO               811                           
1040001300175T 0600249600300000286080D00000000000000000001               30042011000000000000000237008222                         090000005366690001104924953000000000097862008177005366690001110000000000000000002930000000000                 
1040001300176U 0600000000000000000000000000036600000000000012200000000000048800000000000243900000000000146300000000000000000000000000000002052011050520111900        000000000000000CIP COMPENSACAO               811                           
1040001300177T 0600249600300000286080D00000000000000000001               30042011000000000000000341010006                         090000005366830001104914953000000000097862008177005366830001110000000000000000002930000000000                 
1040001300178U 0600000000000000000000000000097100000000000032400000000000129400000000000647100000000000388200000000000000000000000000000002052011050520111900        000000000000000CIP COMPENSACAO               811                           
1040001300179T 0600249600300000286080D00000000000000000001               30042011000000000000000341007676                         090000005423130001104914953000000000097862008177005423130001110000000000000000002930000000000                 
1040001300180U 0600000000000000000000000000056200000000000018700000000000074900000000000374400000000000224600000000000000000000000000000002052011050520111900        000000000000000CIP COMPENSACAO               811                           
1040001300181T 0600249600300000286080D00000000000000000001               30042011000000000000000422001244                         090000005450640001104994953000000000097862008177005450640001110000000000000000002930000000000                 
1040001300182U 0600000000000000000000000000318500000000000106200000000000424700000000002123300000000001273900000000000000000000000000000002052011050520111900        000000000000000CIP COMPENSACAO               811                           
1040001300183T 0600249600300000286080D00000000000000000001               30042011000000000016532341003689                         090000005489970001104914953000001653297862008177005489970001110000000000000000002930000000000                 
1040001300184U 0600000000000000000000000000248000000000000082700000000000330600000000001653200000000000991900000000000000000000000000000002052011050520111900        000000000000000CIP COMPENSACAO               811                           
1040001300185T 0600249600300000286080D00000000000000000001               30042011000000000000000341016616                         090000005531700001104914953000000000097862008177005531700001110000000000000000002930000000000                 
1040001300186U 0600000000000000000000000000199300000000000066400000000000265700000000001328700000000000797300000000000000000000000000000002052011050520111900        000000000000000CIP COMPENSACAO               811                           
1040001300187T 0600249600300000286080D00000000000000000001               30042011000000000000000341003000                         090000005568390001104964953000000000097862008177005568390001110000000000000000002930000000000                 
1040001300188U 0600000000000000000000000000037000000000000012300000000000049300000000000246700000000000148100000000000000000000000000000002052011050520111900        000000000000000CIP COMPENSACAO               811                           
1040001300189T 0600249600300000286080D00000000000000000001               30042011000000000000000341001775                         090000005586000001104944953000000000097862008177005586000001110000000000000000002930000000000                 
1040001300190U 0600000000000000000000000000028000000000000009300000000000037300000000000186700000000000112100000000000000000000000000000002052011050520111900        000000000000000CIP COMPENSACAO               811                           
1040001300191T 0600249600300000286080D00000000000000000001               30042011000000000000000341001775                         090000005586020001104914953000000000097862008177005586020001110000000000000000002930000000000                 
1040001300192U 0600000000000000000000000000028000000000000009300000000000037300000000000186700000000000112100000000000000000000000000000002052011050520111900        000000000000000CIP COMPENSACAO               811                           
1040001300193T 0600249600300000286080D00000000000000000001               30042011000000000000000341083313                         090000005684660001104914953000000000097862008177005684660001110000000000000000002930000000000                 
1040001300194U 0600000000000000000000000000207000000000000069000000000000276000000000001380000000000000828000000000000000000000000000000002052011050520111900        000000000000000CIP COMPENSACAO               811                           
1040001300195T 0600249600300000286080D00000000000000000001               30042011000000000000000237022209                         090000005756110001104914953000000000097862008177005756110001110000000000000000002930000000000                 
1040001300196U 0600000000000000000000000000191800000000000063900000000000255700000000001278700000000000767300000000000000000000000000000002052011050520111900        000000000000000CIP COMPENSACAO               811                           
1040001300197T 0600249600300000286080D00000000000000000001               30042011000000000000000341001708                         090000006221130001104964953000000000097862008177006221130001110000000000000000002930000000000                 
1040001300198U 0600000000000000000000000000975000000000000325000000000001299900000000006499700000000003899800000000000000000000000000000002052011050520111900        000000000000000CIP COMPENSACAO               811                           
1040001300199T 0600249600300000286080D00000000000000000001               30042011000000000000000237031143                         090000006289080001104974953000000000097862008177006289080001110000000000000000002930000000000                 
1040001300200U 0600000000000000000000000000316800000000000105600000000000422400000000002112000000000001267200000000000000000000000000000002052011050520111900        000000000000000CIP COMPENSACAO               811                           
1040001300201T 0600249600300000286080D00000000000000000001               30042011000000000015987341016659                         090000006289140001104954953000001598797862008177006289140001110000000000000000002930000000000                 
1040001300202U 0600000000000000000000000000239800000000000079900000000000319700000000001598700000000000959300000000000000000000000000000002052011050520111900        000000000000000CIP COMPENSACAO               811                           
1040001300203T 0600249600300000286080D00000000000000000001               30042011000000000000000033039438                         090000006312270001104964953000000000097862008177006312270001110000000000000000002930000000000                 
1040001300204U 0600000000000000000000000000283600000000000094500000000000378100000000001890400000000001134200000000000000000000000000000002052011050520111900        000000000000000CIP COMPENSACAO               811                           
1040001300205T 0600249600300000286080D00000000000000000001               30042011000000000000000033033731                         090000006331250001104974953000000000097862008177006331250001110000000000000000002930000000000                 
1040001300206U 0600000000000000000000000000530100000000000176700000000000706900000000003534300000000002120600000000000000000000000000000002052011050520111900        000000000000000CIP COMPENSACAO               811                           
1040001300207T 0600249600300000286080D00000000000000000001               30042011000000000000000341002623                         090000006371040001104914953000000000097862008177006371040001110000000000000000002930000000000                 
1040001300208U 0600000000000000000000000000480800000000000160300000000000641000000000003205100000000001923000000000000000000000000000000002052011050520111900        000000000000000CIP COMPENSACAO               811                           
1040001300209T 0600249600300000286080D00000000000000000001               30042011000000000000000341000370                         090000006454890001104944953000000000097862008177006454890001110000000000000000002930000000000                 
1040001300210U 0600000000000000000000000000316600000000000105500000000000422200000000002110800000000001266500000000000000000000000000000002052011050520111900        000000000000000CIP COMPENSACAO               811                           
1040001300211T 0600249600300000286080D00000000000000000001               30042011000000000000000237038229                         090000006506900001104984953000000000097862008177006506900001110000000000000000002930000000000                 
1040001300212U 0600000000000000000000000000050000000000000016700000000000066700000000000333300000000000199900000000000000000000000000000002052011050520111900        000000000000000CIP COMPENSACAO               811                           
1040001300213T 0600249600300000286080D00000000000000000001               30042011000000000004801033047929                         090000006589600001104944953000000480197862008177006589600001110000000000000000002930000000000                 
1040001300214U 0600000000000000000000000000072000000000000024000000000000096000000000000480100000000000288100000000000000000000000000000002052011050520111900        000000000000000CIP COMPENSACAO               811                           
1040001300215T 0600249600300000286080D00000000000000000001               30042011000000000000000422001244                         090000006772970001104984953000000000097862008177006772970001110000000000000000002930000000000                 
1040001300216U 0600000000000000000000000000801900000000000267300000000001069200000000005346000000000003207600000000000000000000000000000002052011050520111900        000000000000000CIP COMPENSACAO               811                           
1040001300217T 0600249600300000286080D00000000000000000001               30042011000000000000000422001244                         090000006773060001104974953000000000097862008177006773060001110000000000000000002930000000000                 
1040001300218U 0600000000000000000000000000581000000000000193700000000000774600000000003873200000000002323900000000000000000000000000000002052011050520111900        000000000000000CIP COMPENSACAO               811                           
1040001300219T 0600249600300000286080D00000000000000000001               30042011000000000000000341064360                         090000006861460001104974953000000000097862008177006861460001110000000000000000002930000000000                 
1040001300220U 0600000000000000000000000000156500000000000052200000000000208700000000001043400000000000626000000000000000000000000000000002052011050520111900        000000000000000CIP COMPENSACAO               811                           
1040001300221T 0600249600300000286080D00000000000000000001               30042011000000000000000033046078                         090000006881110001104924953000000000097862008177006881110001110000000000000000002930000000000                 
1040001300222U 0600000000000000000000000000342800000000000114300000000000457000000000002285100000000001371000000000000000000000000000000002052011050520111900        000000000000000CIP COMPENSACAO               811                           
1040001300223T 0600249600300000286080D00000000000000000001               30042011000000000000000341004286                         090000006907590001104994953000000000097862008177006907590001110000000000000000002930000000000                 
1040001300224U 0600000000000000000000000000263300000000000087800000000000351000000000001755200000000001053100000000000000000000000000000002052011050520111900        000000000000000CIP COMPENSACAO               811                           
1040001300225T 0600249600300000286080D00000000000000000001               30042011000000000000000237037907                         090000007000108439104924953000000000097862008177007000108439110000000000000000002930000000000                 
1040001300226U 0600000000000000000000000000013500000000000004500000000000018000000000000089900000000000053900000000000000000000000000000002052011050520111900        000000000000000CIP COMPENSACAO               811                           
1040001300227T 0600249600300000286080D00000000000000000001               30042011000000000000000237037907                         090000007000110064104924953000000000097862008177007000110064110000000000000000002930000000000                 
1040001300228U 0600000000000000000000000000058600000000000019500000000000078200000000000390800000000000234500000000000000000000000000000002052011050520111900        000000000000000CIP COMPENSACAO               811                           
1040001300229T 0600249600300000286080D00000000000000000001               30042011000000000000000341003670                         090000007178800001104934953000000000097862008177007178800001110000000000000000002930000000000                 
1040001300230U 0600000000000000000000000000042900000000000014300000000000057200000000000285800000000000171400000000000000000000000000000002052011050520111900        000000000000000CIP COMPENSACAO               811                           
1040001300231T 0600249600300000286080D00000000000000000001               30042011000000000033113237001368                         090000007298420001104914953000003311397862008177007298420001110000000000000000002930000000000                 
1040001300232U 0600000000000000000000000000496700000000000165600000000000662300000000003311300000000001986700000000000000000000000000000002052011050520111900        000000000000000CIP COMPENSACAO               811                           
1040001300233T 0600249600300000286080D00000000000000000001               30042011000000000000000341003549                         090000007343210001104954953000000000097862008177007343210001110000000000000000002930000000000                 
1040001300234U 0600000000000000000000000000276800000000000092300000000000369100000000001845300000000001107100000000000000000000000000000002052011050520111900        000000000000000CIP COMPENSACAO               811                           
1040001300235T 0600249600300000286080D00000000000000000001               30042011000000000000000237017566                         090000007547990001104954953000000000097862008177007547990001110000000000000000002930000000000                 
1040001300236U 0600000000000000000000000000344100000000000114700000000000458700000000002293700000000001376200000000000000000000000000000002052011050520111900        000000000000000CIP COMPENSACAO               811                           
1040001300237T 0600249600300000286080D00000000000000000001               30042011000000000000000341010006                         090000007548020001104984953000000000097862008177007548020001110000000000000000002930000000000                 
1040001300238U 0600000000000000000000000000152700000000000050900000000000203700000000001018300000000000611000000000000000000000000000000002052011050520111900        000000000000000CIP COMPENSACAO               811                           
1040001300239T 0600249600300000286080D00000000000000000001               30042011000000000000000341004286                         090000007587540001104934953000000000097862008177007587540001110000000000000000002930000000000                 
1040001300240U 0600000000000000000000000000233600000000000077900000000000311500000000001557500000000000934500000000000000000000000000000002052011050520111900        000000000000000CIP COMPENSACAO               811                           
1040001300241T 0600249600300000286080D00000000000000000001               30042011000000000000000341001880                         090000007635420001104914953000000000097862008177007635420001110000000000000000002930000000000                 
1040001300242U 0600000000000000000000000000126900000000000042300000000000169200000000000846000000000000507600000000000000000000000000000002052011050520111900        000000000000000CIP COMPENSACAO               811                           
1040001300243T 0600249600300000286080D00000000000000000001               30042011000000000003278341003689                         090000007648980001104944953000000327897862008177007648980001110000000000000000002930000000000                 
1040001300244U 0600000000000000000000000000049200000000000016400000000000065600000000000327800000000000196600000000000000000000000000000002052011050520111900        000000000000000CIP COMPENSACAO               811                           
1040001300245T 0600249600300000286080D00000000000000000001               07101997000000000017342341000744                         090000007654640001104900000000001734297862008177007654640001110000000000000000002930000000000                 
1040001300246U 0600000000000000000000000000260100000000000086700000000000346800000000001734200000000001040600000000000000000000000000000002052011050520111900        000000000000000CIP COMPENSACAO               811                           
1040001300247T 0600249600300000286080D00000000000000000001               30042011000000000004173341010006                         090000007701140001104914953000000417397862008177007701140001110000000000000000002930000000000                 
1040001300248U 0600000000000000000000000000062600000000000020900000000000083500000000000417300000000000250300000000000000000000000000000002052011050520111900        000000000000000CIP COMPENSACAO               811                           
1040001300249T 0600249600300000286080D00000000000000000001               30042011000000000000000341003492                         090000007848580001104924953000000000097862008177007848580001110000000000000000002930000000000                 
1040001300250U 0600000000000000000000000000040400000000000013500000000000053900000000000269400000000000161600000000000000000000000000000002052011050520111900        000000000000000CIP COMPENSACAO               811                           
1040001300251T 0600249600300000286080D00000000000000000001               30042011000000000000000341016853                         090000008027220001104924953000000000097862008177008027220001110000000000000000002930000000000                 
1040001300252U 0600000000000000000000000000356600000000000118900000000000475400000000002377000000000001426100000000000000000000000000000002052011050520111900        000000000000000CIP COMPENSACAO               811                           
1040001300253T 0600249600300000286080D00000000000000000001               30042011000000000000000237005010                         090000008100780001104924953000000000097862008177008100780001110000000000000000002930000000000                 
1040001300254U 0600000000000000000000000000225400000000000075100000000000300500000000001502500000000000901500000000000000000000000000000002052011050520111900        000000000000000CIP COMPENSACAO               811                           
1040001300255T 0600249600300000286080D00000000000000000001               30042011000000000000000033038539                         090000008100810001104954953000000000097862008177008100810001110000000000000000002930000000000                 
1040001300256U 0600000000000000000000000000043000000000000014300000000000057300000000000286600000000000172000000000000000000000000000000002052011050520111900        000000000000000CIP COMPENSACAO               811                           
1040001300257T 0600249600300000286080D00000000000000000001               30042011000000000000000341003549                         090000008111520001104984953000000000097862008177008111520001110000000000000000002930000000000                 
1040001300258U 0600000000000000000000000000078000000000000026000000000000104000000000000520100000000000312100000000000000000000000000000002052011050520111900        000000000000000CIP COMPENSACAO               811                           
1040001300259T 0600249600300000286080D00000000000000000001               30042011000000000000000341001880                         090000008199880001104934953000000000097862008177008199880001110000000000000000002930000000000                 
1040001300260U 0600000000000000000000000000287300000000000095800000000000383000000000001915100000000001149000000000000000000000000000000002052011050520111900        000000000000000CIP COMPENSACAO               811                           
1040001300261T 0600249600300000286080D00000000000000000001               30042011000000000000000341004405                         090000008211610001104934953000000000097862008177008211610001110000000000000000002930000000000                 
1040001300262U 0600000000000000000000000000079400000000000026500000000000105900000000000529600000000000317800000000000000000000000000000002052011050520111900        000000000000000CIP COMPENSACAO               811                           
1040001300263T 0600249600300000286080D00000000000000000001               30042011000000000035151237038326                         090000008468750001104914953000003515197862008177008468750001110000000000000000002930000000000                 
1040001300264U 0600000000000000000000000000527300000000000175800000000000703000000000003515100000000002109000000000000000000000000000000002052011050520111900        000000000000000CIP COMPENSACAO               811                           
1040001300265T 0600249600300000286080D00000000000000000001               30042011000000000000000341004677                         090000008531230001104954953000000000097862008177008531230001110000000000000000002930000000000                 
1040001300266U 0600000000000000000000000000355600000000000118500000000000474200000000002370900000000001422600000000000000000000000000000002052011050520111900        000000000000000CIP COMPENSACAO               811                           
1040001300267T 0600249600300000286080D00000000000000000001               30042011000000000000000341084875                         090000008531310001104914953000000000097862008177008531310001110000000000000000002930000000000                 
1040001300268U 0600000000000000000000000000158500000000000052800000000000211300000000001056400000000000633800000000000000000000000000000002052011050520111900        000000000000000CIP COMPENSACAO               811                           
1040001300269T 0600249600300000286080D00000000000000000001               30042011000000000000000341016241                         090000008689810001104994953000000000097862008177008689810001110000000000000000002930000000000                 
1040001300270U 0600000000000000000000000000233900000000000078000000000000311900000000001559300000000000935500000000000000000000000000000002052011050520111900        000000000000000CIP COMPENSACAO               811                           
1040001300271T 0600249600300000286080D00000000000000000001               30042011000000000000000341016853                         090000008789940001104954953000000000097862008177008789940001110000000000000000002930000000000                 
1040001300272U 0600000000000000000000000000322700000000000107600000000000430300000000002151400000000001290800000000000000000000000000000002052011050520111900        000000000000000CIP COMPENSACAO               811                           
1040001300273T 0600249600300000286080D00000000000000000001               30042011000000000000000341055743                         090000008802360001104914953000000000097862008177008802360001110000000000000000002930000000000                 
1040001300274U 0600000000000000000000000000040400000000000013500000000000053900000000000269400000000000161600000000000000000000000000000002052011050520111900        000000000000000CIP COMPENSACAO               811                           
1040001300275T 0600249600300000286080D00000000000000000001               30042011000000000002533237037907                         090000008950750001104994953000000253397862008177008950750001110000000000000000002930000000000                 
1040001300276U 0600000000000000000000000000038000000000000012700000000000050700000000000253300000000000151900000000000000000000000000000002052011050520111900        000000000000000CIP COMPENSACAO               811                           
1040001300277T 0600249600300000286080D00000000000000000001               30042011000000000000000341001996                         090000008957330001104964953000000000097862008177008957330001110000000000000000002930000000000                 
1040001300278U 0600000000000000000000000000363200000000000121100000000000484200000000002421100000000001452600000000000000000000000000000002052011050520111900        000000000000000CIP COMPENSACAO               811                           
1040001300279T 0600249600300000286080D00000000000000000001               30042011000000000000000033001341                         090000009244930001104964953000000000097862008177009244930001110000000000000000002930000000000                 
1040001300280U 0600000000000000000000000000403600000000000134500000000000538100000000002690500000000001614300000000000000000000000000000002052011050520111900        000000000000000CIP COMPENSACAO               811                           
1040001300281T 0600249600300000286080D00000000000000000001               30042011000000000000000341004286                         090000009308380001104994953000000000097862008177009308380001110000000000000000002930000000000                 
1040001300282U 0600000000000000000000000000323700000000000107900000000000431600000000002157800000000001294600000000000000000000000000000002052011050520111900        000000000000000CIP COMPENSACAO               811                           
1040001300283T 0600249600300000286080D00000000000000000001               30042011000000000000000237037788                         090000009359500001104954953000000000097862008177009359500001110000000000000000002930000000000                 
1040001300284U 0600000000000000000000000000135700000000000045200000000000180900000000000904700000000000542900000000000000000000000000000002052011050520111900        000000000000000CIP COMPENSACAO               811                           
1040001300285T 0600249600300000286080D00000000000000000001               30042011000000000002693237020176                         090000009598400001104984953000000269397862008177009598400001110000000000000000002930000000000                 
1040001300286U 0600000000000000000000000000040400000000000013500000000000053900000000000269300000000000161500000000000000000000000000000002052011050520111900        000000000000000CIP COMPENSACAO               811                           
1040001300287T 0600249600300000286080D00000000000000000001               30042011000000000000000341003506                         090000009847520001104994953000000000097862008177009847520001110000000000000000002930000000000                 
1040001300288U 0600000000000000000000000000330400000000000110100000000000440500000000002202700000000001321700000000000000000000000000000002052011050520111900        000000000000000CIP COMPENSACAO               811                           
1040001300289T 0600249600300000286080D00000000000000000001               30042011000000000002694104029416                         090000009878960001104954953000000269497862008177009878960001110000000000000000002780000000000                 
1040001300290U 0600000000000000000000000000040400000000000013500000000000053900000000000269400000000000161600000000000000000000000000000002052011050520112100        000000000000000AUTOMACAO                     811                           
1040001300291T 0600249600300000286080D00000000000000000001               30042011000000000000000422001244                         090000009924170001104924953000000000097862008177009924170001110000000000000000002930000000000                 
1040001300292U 0600000000000000000000000000311500000000000103800000000000415300000000002076500000000001245900000000000000000000000000000002052011050520111900        000000000000000CIP COMPENSACAO               811                           
1040001300293T 0600249600300000286080D00000000000000000001               30042011000000000000000033033731                         090000009980590001104964953000000000097862008177009980590001110000000000000000002930000000000                 
1040001300294U 0600000000000000000000000000361100000000000120400000000000481400000000002407100000000001444200000000000000000000000000000002052011050520111900        000000000000000CIP COMPENSACAO               811                           
1040001300295T 0600249600300000286080D00000000000000000001               30042011000000000000000237038229                         090000009998490001104974953000000000097862008177009998490001110000000000000000002930000000000                 
1040001300296U 0600000000000000000000000000080200000000000026700000000000106900000000000534600000000000320800000000000000000000000000000002052011050520111900        000000000000000CIP COMPENSACAO               811                           
1040001300297T 0600249600300000286080D00000000000000000001               30042011000000000028903104002534                         090000010020140001104944953000002890397862008177010020140001110000000000000000002780000000000                 
1040001300298U 0600000000000000000000000000433500000000000144500000000000578100000000002890300000000001734200000000000000000000000000000002052011050520112100        000000000000000AUTOMACAO                     811                           
1040001300299T 0600249600300000286080D00000000000000000001               30042011000000000000000341071170                         090000010056080001104914953000000000097862008177010056080001110000000000000000002930000000000                 
1040001300300U 0600000000000000000000000000901700000000000300600000000001202200000000006011200000000003606700000000000000000000000000000002052011050520111900        000000000000000CIP COMPENSACAO               811                           
1040001300301T 0600249600300000286080D00000000000000000001               30042011000000000000000033039896                         090000010060510001104984953000000000097862008177010060510001110000000000000000002930000000000                 
1040001300302U 0600000000000000000000000000382500000000000127500000000000510000000000002549800000000001529800000000000000000000000000000002052011050520111900        000000000000000CIP COMPENSACAO               811                           
1040001300303T 0600249600300000286080D00000000000000000001               30042011000000000000000341001384                         090000010146080001104994953000000000097862008177010146080001110000000000000000002930000000000                 
1040001300304U 0600000000000000000000000000050100000000000016700000000000066800000000000334000000000000200400000000000000000000000000000002052011050520111900        000000000000000CIP COMPENSACAO               811                           
1040001300305T 0600249600300000286080D00000000000000000001               30042011000000000000000341003549                         090000010325390001104974953000000000097862008177010325390001110000000000000000002930000000000                 
1040001300306U 0600000000000000000000000000089300000000000029800000000000119000000000000595200000000000357100000000000000000000000000000002052011050520111900        000000000000000CIP COMPENSACAO               811                           
1040001300307T 0600249600300000286080D00000000000000000001               30042011000000000000000237027995                         090000010416630001104934953000000000097862008177010416630001110000000000000000002930000000000                 
1040001300308U 0600000000000000000000000000473200000000000157700000000000630900000000003154600000000001892800000000000000000000000000000002052011050520111900        000000000000000CIP COMPENSACAO               811                           
1040001300309T 0600249600300000286080D00000000000000000001               30042011000000000000000341016616                         090000010416660001104914953000000000097862008177010416660001110000000000000000002930000000000                 
1040001300310U 0600000000000000000000000000557500000000000185800000000000743300000000003716400000000002229800000000000000000000000000000002052011050520111900        000000000000000CIP COMPENSACAO               811                           
1040001300311T 0600249600300000286080D00000000000000000001               30042011000000000000000341001520                         090000010537140001104964953000000000097862008177010537140001110000000000000000002930000000000                 
1040001300312U 0600000000000000000000000000350000000000000116700000000000466700000000002333500000000001400100000000000000000000000000000002052011050520111900        000000000000000CIP COMPENSACAO               811                           
1040001300313T 0600249600300000286080D00000000000000000001               30042011000000000000000341003689                         090000010551990001104914953000000000097862008177010551990001110000000000000000002930000000000                 
1040001300314U 0600000000000000000000000000253500000000000084500000000000338000000000001690000000000001014000000000000000000000000000000002052011050520111900        000000000000000CIP COMPENSACAO               811                           
1040001300315T 0600249600300000286080D00000000000000000001               30042011000000000000000341001520                         090000010589250001104934953000000000097862008177010589250001110000000000000000002930000000000                 
1040001300316U 0600000000000000000000000000301900000000000100600000000000402500000000002012700000000001207700000000000000000000000000000002052011050520111900        000000000000000CIP COMPENSACAO               811                           
1040001300317T 0600249600300000286080D00000000000000000001               30042011000000000017487033034100                         090000010637560001104944953000001748797862008177010637560001110000000000000000002930000000000                 
1040001300318U 0600000000000000000000000000262300000000000087400000000000349700000000001748700000000001049300000000000000000000000000000002052011050520111900        000000000000000CIP COMPENSACAO               811                           
1040001300319T 0600249600300000286080D00000000000000000001               30042011000000000000000422001244                         090000010668720001104984953000000000097862008177010668720001110000000000000000002930000000000                 
1040001300320U 0600000000000000000000000000527400000000000175800000000000703200000000003516200000000002109800000000000000000000000000000002052011050520111900        000000000000000CIP COMPENSACAO               811                           
1040001300321T 0600249600300000286080D00000000000000000001               07101997000000000000000341004448                         090000010730680001104900000000000000097862008177010730680001110000000000000000002930000000000                 
1040001300322U 0600000000000000000000000000089400000000000029800000000000119200000000000595800000000000357400000000000000000000000000000002052011050520111900        000000000000000CIP COMPENSACAO               811                           
1040001300323T 0600249600300000286080D00000000000000000001               30042011000000000008964104002534                         090000010838340001104914953000000896497862008177010838340001110000000000000000002780000000000                 
1040001300324U 0600000000000000000000000000134500000000000044800000000000179300000000000896400000000000537800000000000000000000000000000002052011050520112100        000000000000000AUTOMACAO                     811                           
1040001300325T 0600249600300000286080D00000000000000000001               07101997000000000000000341048364                         090000011129190001104900000000000000097862008177011129190001110000000000000000002930000000000                 
1040001300326U 0600000000000000000000000000066500000000000022200000000000088600000000000443200000000000265900000000000000000000000000000002052011050520111900        000000000000000CIP COMPENSACAO               811                           
1040001300327T 0600249600300000286080D00000000000000000001               30042011000000000000000341004448                         090000011144330001104914953000000000097862008177011144330001110000000000000000002930000000000                 
1040001300328U 0600000000000000000000000000078200000000000026100000000000104300000000000521300000000000312700000000000000000000000000000002052011050520111900        000000000000000CIP COMPENSACAO               811                           
1040001300329T 0600249600300000286080D00000000000000000001               30042011000000000000000033038539                         090000011255080001104914953000000000097862008177011255080001110000000000000000002930000000000                 
1040001300330U 0600000000000000000000000000405900000000000135300000000000541200000000002706000000000001623600000000000000000000000000000002052011050520111900        000000000000000CIP COMPENSACAO               811                           
1040001300331T 0600249600300000286080D00000000000000000001               30042011000000000025949341003689                         090000011334390001104914953000002594997862008177011334390001110000000000000000002930000000000                 
1040001300332U 0600000000000000000000000000389200000000000129700000000000519000000000002594900000000001557000000000000000000000000000000002052011050520111900        000000000000000CIP COMPENSACAO               811                           
1040001300333T 0600249600300000286080D00000000000000000001               30042011000000000000000341001520                         090000011396300001104974953000000000097862008177011396300001110000000000000000002930000000000                 
1040001300334U 0600000000000000000000000000135200000000000045100000000000180300000000000901400000000000540800000000000000000000000000000002052011050520111900        000000000000000CIP COMPENSACAO               811                           
1040001300335T 0600249600300000286080D00000000000000000001               30042011000000000000000237005150                         090000011559080001104914953000000000097862008177011559080001110000000000000000002930000000000                 
1040001300336U 0600000000000000000000000000012100000000000004000000000000016200000000000080800000000000048500000000000000000000000000000002052011050520111900        000000000000000CIP COMPENSACAO               811                           
1040001300337T 0600249600300000286080D00000000000000000001               30042011000000000000000341004456                         090000011602750001104994953000000000097862008177011602750001110000000000000000002930000000000                 
1040001300338U 0600000000000000000000000000400800000000000133600000000000534400000000002671900000000001603100000000000000000000000000000002052011050520111900        000000000000000CIP COMPENSACAO               811                           
1040001300339T 0600249600300000286080D00000000000000000001               30042011000000000000000341007455                         090000011618480001104984953000000000097862008177011618480001110000000000000000002930000000000                 
1040001300340U 0600000000000000000000000000298900000000000099600000000000398600000000001992800000000001195700000000000000000000000000000002052011050520111900        000000000000000CIP COMPENSACAO               811                           
1040001300341T 0600249600300000286080D00000000000000000001               30042011000000000017424399004057                         090000011631080001104974953000001742497862008177011631080001110000000000000000002930000000000                 
1040001300342U 0600000000000000000000000000261400000000000087100000000000348500000000001742400000000001045400000000000000000000000000000002052011050520111900        000000000000000CIP COMPENSACAO               811                           
1040001300343T 0600249600300000286080D00000000000000000001               30042011000000000012016341081795                         090000011680710001104924953000001201697862008177011680710001110000000000000000002930000000000                 
1040001300344U 0600000000000000000000000000180200000000000060100000000000240300000000001201600000000000721000000000000000000000000000000002052011050520111900        000000000000000CIP COMPENSACAO               811                           
1040001300345T 0600249600300000286080D00000000000000000001               30042011000000000000000237037788                         090000011835310001104914953000000000097862008177011835310001110000000000000000002930000000000                 
1040001300346U 0600000000000000000000000000530400000000000176800000000000707200000000003535900000000002121500000000000000000000000000000002052011050520111900        000000000000000CIP COMPENSACAO               811                           
1040001300347T 0600249600300000286080D00000000000000000001               30042011000000000004694001012203                         090000012040290001104964953000000469497862008177012040290001120000000000000000002930000000000                 
1040001300348U 0600000000000000000000000000070400000000000023500000000000093900000000000469400000000000281600000000000000000000000000000002052011050520111900        000000000000000CIP COMPENSACAO               812                           
1040001300349T 0600249600300000286080D00000000000000000001               30042011000000000000000341004405                         090000012057740001104914953000000000097862008177012057740001110000000000000000002930000000000                 
1040001300350U 0600000000000000000000000000299300000000000099800000000000399000000000001995200000000001197100000000000000000000000000000002052011050520111900        000000000000000CIP COMPENSACAO               811                           
1040001300351T 0600249600300000286080D00000000000000000001               30042011000000000000000341002526                         090000012079330001104914953000000000097862008177012079330001110000000000000000002930000000000                 
1040001300352U 0600000000000000000000000000093000000000000031000000000000124000000000000620000000000000372000000000000000000000000000000002052011050520111900        000000000000000CIP COMPENSACAO               811                           
1040001300353T 0600249600300000286080D00000000000000000001               30042011000000000000000341071170                         090000012110170001104984953000000000097862008177012110170001110000000000000000002930000000000                 
1040001300354U 0600000000000000000000000000040400000000000013500000000000053900000000000269300000000000161500000000000000000000000000000002052011050520111900        000000000000000CIP COMPENSACAO               811                           
1040001300355T 0600249600300000286080D00000000000000000001               30042011000000000000000341000272                         090000012170050001104944953000000000097862008177012170050001110000000000000000002930000000000                 
1040001300356U 0600000000000000000000000000315400000000000105100000000000420500000000002102400000000001261400000000000000000000000000000002052011050520111900        000000000000000CIP COMPENSACAO               811                           
1040001300357T 0600249600300000286080D00000000000000000001               30042011000000000017121399004057                         090000012262670001104974953000001712197862008177012262670001110000000000000000002930000000000                 
1040001300358U 0600000000000000000000000000256800000000000085600000000000342400000000001712100000000001027300000000000000000000000000000002052011050520111900        000000000000000CIP COMPENSACAO               811                           
1040001300359T 0600249600300000286080D00000000000000000001               30042011000000000014880033038970                         090000012319360001104914953000001488097862008177012319360001110000000000000000002930000000000                 
1040001300360U 0600000000000000000000000000223200000000000074400000000000297600000000001488000000000000892800000000000000000000000000000002052011050520111900        000000000000000CIP COMPENSACAO               811                           
1040001300361T 0600249600300000286080D00000000000000000001               30042011000000000000000237024236                         090000012328230001104944953000000000097862008177012328230001110000000000000000002930000000000                 
1040001300362U 0600000000000000000000000000143600000000000047900000000000191400000000000957000000000000574100000000000000000000000000000002052011050520111900        000000000000000CIP COMPENSACAO               811                           
1040001300363T 0600249600300000286080D00000000000000000001               30042011000000000000000033002046                         090000012472100001104984953000000000097862008177012472100001110000000000000000002930000000000                 
1040001300364U 0600000000000000000000000000662400000000000220800000000000883200000000004415800000000002649400000000000000000000000000000002052011050520111900        000000000000000CIP COMPENSACAO               811                           
1040001300365T 0600249600300000286080D00000000000000000001               30042011000000000000000341001708                         090000012552250001104954953000000000097862008177012552250001110000000000000000002930000000000                 
1040001300366U 0600000000000000000000000000060900000000000020300000000000081200000000000406000000000000243600000000000000000000000000000002052011050520111900        000000000000000CIP COMPENSACAO               811                           
1040001300367T 0600249600300000286080D00000000000000000001               30042011000000000013374033002046                         090000012562950001104984953000001337497862007177012562950001010000000000000000002930000000000                 
1040001300368U 0600000000000000000000000000200600000000000066900000000000267500000000001337400000000000802400000000000000000000000000000002052011050520111900        000000000000000CIP COMPENSACAO               701                           
1040001300369T 0600249600300000286080D00000000000000000001               30042011000000000000000237026212                         090000012644380001104914953000000000097862008177012644380001110000000000000000002930000000000                 
1040001300370U 0600000000000000000000000000385300000000000128400000000000513700000000002568700000000001541300000000000000000000000000000002052011050520111900        000000000000000CIP COMPENSACAO               811                           
1040001300371T 0600249600300000286080D00000000000000000001               30042011000000000000000341003670                         090000012734720001104914953000000000097862008177012734720001110000000000000000002930000000000                 
1040001300372U 0600000000000000000000000000220400000000000073500000000000293900000000001469400000000000881600000000000000000000000000000002052011050520111900        000000000000000CIP COMPENSACAO               811                           
1040001300373T 0600249600300000286080D00000000000000000001               30042011000000000000000341080985                         090000012748630001104914953000000000097862008177012748630001110000000000000000002930000000000                 
1040001300374U 0600000000000000000000000000279600000000000093200000000000372800000000001863800000000001118200000000000000000000000000000002052011050520111900        000000000000000CIP COMPENSACAO               811                           
1040001300375T 0600249600300000286080D00000000000000000001               30042011000000000000000341071307                         090000012781990001104954953000000000097862008177012781990001110000000000000000002930000000000                 
1040001300376U 0600000000000000000000000000382300000000000127400000000000509800000000002548800000000001529300000000000000000000000000000002052011050520111900        000000000000000CIP COMPENSACAO               811                           
1040001300377T 0600249600300000286080D00000000000000000001               30042011000000000000000237001147                         090000013040480001104974953000000000097862008177013040480001110000000000000000002930000000000                 
1040001300378U 0600000000000000000000000000106200000000000035400000000000141600000000000707800000000000424600000000000000000000000000000002052011050520111900        000000000000000CIP COMPENSACAO               811                           
1040001300379T 0600249600300000286080D00000000000000000001               30042011000000000000000341003832                         090000013093820001104994953000000000097862008177013093820001110000000000000000002930000000000                 
1040001300380U 0600000000000000000000000000199200000000000066400000000000265600000000001328000000000000796800000000000000000000000000000002052011050520111900        000000000000000CIP COMPENSACAO               811                           
1040001300381T 0600249600300000286080D00000000000000000001               07101997000000000000000341029238                         090000013266400001104900000000000000097862008177013266400001110000000000000000002930000000000                 
1040001300382U 0600000000000000000000000000230500000000000076800000000000307400000000001536900000000000922200000000000000000000000000000002052011050520111900        000000000000000CIP COMPENSACAO               811                           
1040001300383T 0600249600300000286080D00000000000000000001               30042011000000000000000341001880                         090000013521690001104994953000000000097862008177013521690001110000000000000000002930000000000                 
1040001300384U 0600000000000000000000000000280500000000000093500000000000374000000000001870000000000001122000000000000000000000000000000002052011050520111900        000000000000000CIP COMPENSACAO               811                           
1040001300385T 0600249600300000286080D00000000000000000001               30042011000000000000000422001244                         090000013535430001104994953000000000097862008177013535430001110000000000000000002930000000000                 
1040001300386U 0600000000000000000000000000392400000000000130800000000000523300000000002616300000000001569800000000000000000000000000000002052011050520111900        000000000000000CIP COMPENSACAO               811                           
1040001300387T 0600249600300000286080D00000000000000000001               30042011000000000000000001015261                         090000013726190001104934953000000000097862008177013726190001110000000000000000002930000000000                 
1040001300388U 0600000000000000000000000000282900000000000094300000000000377200000000001885800000000001131400000000000000000000000000000002052011050520111900        000000000000000CIP COMPENSACAO               811                           
1040001300389T 0600249600300000286080D00000000000000000001               30042011000000000000000341010006                         090000013728770001104954953000000000097862008177013728770001110000000000000000002930000000000                 
1040001300390U 0600000000000000000000000000354900000000000118300000000000473200000000002365800000000001419400000000000000000000000000000002052011050520111900        000000000000000CIP COMPENSACAO               811                           
1040001300391T 0600249600300000286080D00000000000000000001               30042011000000000004525237037516                         090000013755310001104934953000000452597862008177013755310001110000000000000000002930000000000                 
1040001300392U 0600000000000000000000000000067900000000000022600000000000090500000000000452500000000000271500000000000000000000000000000002052011050520111900        000000000000000CIP COMPENSACAO               811                           
1040001300393T 0600249600300000286080D00000000000000000001               30042011000000000000000341016853                         090000013828510001104914953000000000097862008177013828510001110000000000000000002930000000000                 
1040001300394U 0600000000000000000000000000290300000000000096800000000000387100000000001935600000000001161400000000000000000000000000000002052011050520111900        000000000000000CIP COMPENSACAO               811                           
1040001300395T 0600249600300000286080D00000000000000000001               30042011000000000000000033033731                         090000014140680001104924953000000000097862008177014140680001110000000000000000002930000000000                 
1040001300396U 0600000000000000000000000000384400000000000128100000000000512500000000002562700000000001537700000000000000000000000000000002052011050520111900        000000000000000CIP COMPENSACAO               811                           
1040001300397T 0600249600300000286080D00000000000000000001               30042011000000000000000341008451                         090000014191550001104974953000000000097862008177014191550001110000000000000000002930000000000                 
1040001300398U 0600000000000000000000000000056200000000000018700000000000074900000000000374700000000000224900000000000000000000000000000002052011050520111900        000000000000000CIP COMPENSACAO               811                           
1040001300399T 0600249600300000286080D00000000000000000001               30042011000000000000000341004286                         090000014244570001104974953000000000097862008177014244570001110000000000000000002930000000000                 
1040001300400U 0600000000000000000000000000396200000000000132100000000000528300000000002641500000000001584900000000000000000000000000000002052011050520111900        000000000000000CIP COMPENSACAO               811                           
1040001300401T 0600249600300000286080D00000000000000000001               30042011000000000000000237001155                         090000014305350001104934953000000000097862008177014305350001110000000000000000002930000000000                 
1040001300402U 0600000000000000000000000000471600000000000157200000000000628800000000003143800000000001886200000000000000000000000000000002052011050520111900        000000000000000CIP COMPENSACAO               811                           
1040001300403T 0600249600300000286080D00000000000000000001               30042011000000000000000033034100                         090000014596070001104914953000000000097862008177014596070001110000000000000000002930000000000                 
1040001300404U 0600000000000000000000000000068700000000000022900000000000091600000000000458000000000000274800000000000000000000000000000002052011050520111900        000000000000000CIP COMPENSACAO               811                           
1040001300405T 0600249600300000286080D00000000000000000001               30042011000000000000000341007722                         090000014736860001104914953000000000097862008177014736860001110000000000000000002930000000000                 
1040001300406U 0600000000000000000000000000104100000000000034700000000000138900000000000694300000000000416600000000000000000000000000000002052011050520111900        000000000000000CIP COMPENSACAO               811                           
1040001300407T 0600249600300000286080D00000000000000000001               30042011000000000000000341003549                         090000014789800001104954953000000000097862008177014789800001110000000000000000002930000000000                 
1040001300408U 0600000000000000000000000000079500000000000026500000000000105900000000000529700000000000317800000000000000000000000000000002052011050520111900        000000000000000CIP COMPENSACAO               811                           
1040001300409T 0600249600300000286080D00000000000000000001               30042011000000000000000341004677                         090000014840340001104914953000000000097862008177014840340001110000000000000000002930000000000                 
1040001300410U 0600000000000000000000000000065600000000000021900000000000087500000000000437300000000000262300000000000000000000000000000002052011050520111900        000000000000000CIP COMPENSACAO               811                           
1040001300411T 0600249600300000286080D00000000000000000001               30042011000000000000000033033731                         090000015064210001104924953000000000097862008177015064210001110000000000000000002930000000000                 
1040001300412U 0600000000000000000000000000339600000000000113200000000000452900000000002264300000000001358600000000000000000000000000000002052011050520111900        000000000000000CIP COMPENSACAO               811                           
