02RETORNO01COBRANCA       1202500017727X284723SIND EMP DE EDIF SP ZEL PORT C001BANCO DO BRASIL0403110001877                      000001877201093102                                                                                                                                                                                                                                                       000001
100000000000000001202500017727X28472321      0000000000349802000000000000010000001   027000000 0000000000 1806040311          00000000000010000001000000000000000293023700950000903110000180000000000000000000000000000000000000000000000000000000000000000000000000002930000000000000000000000000000000000000000000000000275020000000000000          0000000000000000000000000000000000000000000000000010000002
100000000000000001202500017727X28472321      0000000000362012500000000000010000001   027000000 0000000000 1806040311          00000000000010000001000000000000000840400118929000903110000225000000000000000000000000000000000000000000000000000000000000000000000000009244000000000084000000000000000000000000000000000000901920000000000000          0000000000000000000000000000000000000000000000000008000003
100000000000000001202500017727X28472321      0000000000418869600000000000010000001   027000000 0000000000 1806040311          00000000000010000001000000000000000422434116330000903110000180000000000000000000000000000000000000000000000000000000000000000000000000004224000000000000000000000000000000000000000000000000404420000000000000          0000000000000000000000000000000000000000000000000010000004
100000000000000001202500017727X28472321      0000000000425989800000000000010000001   027000000 0000000000 1806040311          00000000000010000001000000000000000179223701980000903110000180000000000000000000000000000000000000000000000000000000000000000000000000001792000000000000000000000000000000000000000000000000161220000000000000          0000000000000000000000000000000000000000000000000010000005
100000000000000001202500017727X28472321      0000000000425989900000000000010000001   027000000 0000000000 1806040311          00000000000010000001000000000000000813634107720000903110000180000000000000000000000000000000000000000000000000000000000000000000000000008136000000000000000000000000000000000000000000000000795620000000000000          0000000000000000000000000000000000000000000000000010000006
100000000000000001202500017727X28472321      0000000000425990600000000000010000001   027000000 0000000000 1806040311          00000000000010000001000000000000000694434107750000903110000180000000000000000000000000000000000000000000000000000000000000000000000000006944000000000000000000000000000000000000000000000000676420000000000000          0000000000000000000000000000000000000000000000000010000007
100000000000000001202500017727X28472321      0000000000425991500000000000010000001   027000000 0000000000 1806040311          00000000000010000001000000000000000336834105930000903110000180000000000000000000000000000000000000000000000000000000000000000000000000003368000000000000000000000000000000000000000000000000318820000000000000          0000000000000000000000000000000000000000000000000010000008
100000000000000001202500017727X28472321      0000000000425991600000000000010000001   027000000 0000000000 1806040311          00000000000010000001000000000000001895823710740000903110000180000000000000000000000000000000000000000000000000000000000000000000000000018958000000000000000000000000000000000000000000000001877820000000000000          0000000000000000000000000000000000000000000000000010000009
100000000000000001202500017727X28472321      0000000000425992900000000000010000001   027000000 0000000000 1806040311          00000000000010000001000000000000000158234101700000903110000180000000000000000000000000000000000000000000000000000000000000000000000000001582000000000000000000000000000000000000000000000000140220000000000000          0000000000000000000000000000000000000000000000000010000010
100000000000000001202500017727X28472321      0000000000425993200000000000010000001   027000000 0000000000 1806040311          00000000000010000001000000000000000332534105930000903110000180000000000000000000000000000000000000000000000000000000000000000000000000003325000000000000000000000000000000000000000000000000314520000000000000          0000000000000000000000000000000000000000000000000010000011
100000000000000001202500017727X28472321      0000000000425993600000000000010000001   027000000 0000000000 1806040311          00000000000010000001000000000000000834123738570000903110000180000000000000000000000000000000000000000000000000000000000000000000000000008341000000000000000000000000000000000000000000000000816120000000000000          0000000000000000000000000000000000000000000000000010000012
100000000000000001202500017727X28472321      0000000000425994700000000000010000001   027000000 0000000000 1806040311          00000000000010000001000000000000000086434131290000903110000180000000000000000000000000000000000000000000000000000000000000000000000000000864000000000000000000000000000000000000000000000000068420000000000000          0000000000000000000000000000000000000000000000000010000013
100000000000000001202500017727X28472321      0000000000425995400000000000010000001   027000000 0000000000 1806040311          00000000000010000001000000000000000148734164800000903110000180000000000000000000000000000000000000000000000000000000000000000000000000001487000000000000000000000000000000000000000000000000130720000000000000          0000000000000000000000000000000000000000000000000010000014
100000000000000001202500017727X28472321      0000000000425996100000000000010000001   027000000 0000000000 1806040311          00000000000010000001000000000000000254934107720000903110000180000000000000000000000000000000000000000000000000000000000000000000000000002549000000000000000000000000000000000000000000000000236920000000000000          0000000000000000000000000000000000000000000000000010000015
100000000000000001202500017727X28472321      0000000000425997200000000000010000001   027000000 0000000000 1806040311          00000000000010000001000000000000000230034101920000903110000180000000000000000000000000000000000000000000000000000000000000000000000000002300000000000000000000000000000000000000000000000000212020000000000000          0000000000000000000000000000000000000000000000000010000016
100000000000000001202500017727X28472321      0000000000425998600000000000010000001   027000000 0000000000 1806040311          00000000000010000001000000000000001285734107450000903110000180000000000000000000000000000000000000000000000000000000000000000000000000012857000000000000000000000000000000000000000000000001267720000000000000          0000000000000000000000000000000000000000000000000010000017
100000000000000001202500017727X28472321      0000000000425999400000000000010000001   027000000 0000000000 1806040311          00000000000010000001000000000000000285234185770000903110000180000000000000000000000000000000000000000000000000000000000000000000000000002852000000000000000000000000000000000000000000000000267220000000000000          0000000000000000000000000000000000000000000000000010000018
100000000000000001202500017727X28472321      0000000000426000300000000000010000001   027000000 0000000000 1806040311          00000000000010000001000000000000000126034184520000903110000180000000000000000000000000000000000000000000000000000000000000000000000000001260000000000000000000000000000000000000000000000000108020000000000000          0000000000000000000000000000000000000000000000000010000019
100000000000000001202500017727X28472321      0000000000426000900000000000010000001   027000000 0000000000 1806040311          00000000000010000001000000000000001391334103680000903110000180000000000000000000000000000000000000000000000000000000000000000000000000013913000000000000000000000000000000000000000000000001373320000000000000          0000000000000000000000000000000000000000000000000010000020
100000000000000001202500017727X28472321      0000000000426001700000000000010000001   027000000 0000000000 1806040311          00000000000010000001000000000000001518423738570000903110000180000000000000000000000000000000000000000000000000000000000000000000000000015184000000000000000000000000000000000000000000000001500420000000000000          0000000000000000000000000000000000000000000000000010000021
100000000000000001202500017727X28472321      0000000000426001800000000000010000001   027000000 0000000000 1806040311          00000000000010000001000000000000001874434101700000903110000180000000000000000000000000000000000000000000000000000000000000000000000000018744000000000000000000000000000000000000000000000001856420000000000000          0000000000000000000000000000000000000000000000000010000022
100000000000000001202500017727X28472321      0000000000426002900000000000010000001   027000000 0000000000 1806040311          00000000000010000001000000000000000575434107350000903110000180000000000000000000000000000000000000000000000000000000000000000000000000005754000000000000000000000000000000000000000000000000557420000000000000          0000000000000000000000000000000000000000000000000010000023
100000000000000001202500017727X28472321      0000000000426003700000000000010000001   027000000 0000000000 1806040311          00000000000010000001000000000000000306223728520000903110000180000000000000000000000000000000000000000000000000000000000000000000000000003062000000000000000000000000000000000000000000000000288220000000000000          0000000000000000000000000000000000000000000000000010000024
100000000000000001202500017727X28472321      0000000000426005600000000000010000001   027000000 0000000000 1806040311          00000000000010000001000000000000001378903304350000903110000180000000000000000000000000000000000000000000000000000000000000000000000000013789000000000000000000000000000000000000000000000001360920000000000000          0000000000000000000000000000000000000000000000000010000025
100000000000000001202500017727X28472321      0000000000426011500000000000010000001   027000000 0000000000 1806040311          00000000000010000001000000000000000476634105930000903110000180000000000000000000000000000000000000000000000000000000000000000000000000004766000000000000000000000000000000000000000000000000458620000000000000          0000000000000000000000000000000000000000000000000010000026
100000000000000001202500017727X28472321      0000000000426012600000000000010000001   027000000 0000000000 1806040311          00000000000010000001000000000000000529623704950000903110000180000000000000000000000000000000000000000000000000000000000000000000000000005296000000000000000000000000000000000000000000000000511620000000000000          0000000000000000000000000000000000000000000000000010000027
100000000000000001202500017727X28472321      0000000000426012700000000000010000001   027000000 0000000000 1806040311          00000000000010000001000000000000000635423704950000903110000180000000000000000000000000000000000000000000000000000000000000000000000000006354000000000000000000000000000000000000000000000000617420000000000000          0000000000000000000000000000000000000000000000000010000028
100000000000000001202500017727X28472321      0000000000426012900000000000010000001   027000000 0000000000 1806040311          00000000000010000001000000000000000199503337270000903110000180000000000000000000000000000000000000000000000000000000000000000000000000001995000000000000000000000000000000000000000000000000181520000000000000          0000000000000000000000000000000000000000000000000010000029
100000000000000001202500017727X28472321      0000000000426013800000000000010000001   027000000 0000000000 1806040311          00000000000010000001000000000000000091434107400000903110000180000000000000000000000000000000000000000000000000000000000000000000000000000914000000000000000000000000000000000000000000000000073420000000000000          0000000000000000000000000000000000000000000000000010000030
100000000000000001202500017727X28472321      0000000000426014800000000000010000001   027000000 0000000000 1806040311          00000000000010000001000000000000000663834107580000903110000180000000000000000000000000000000000000000000000000000000000000000000000000006638000000000000000000000000000000000000000000000000645820000000000000          0000000000000000000000000000000000000000000000000010000031
100000000000000001202500017727X28472321      0000000000426022000000000000010000001   027000000 0000000000 1806040311          00000000000010000001000000000000000463634101700000903110000180000000000000000000000000000000000000000000000000000000000000000000000000004636000000000000000000000000000000000000000000000000445620000000000000          0000000000000000000000000000000000000000000000000010000032
100000000000000001202500017727X28472321      0000000000426024400000000000010000001   027000000 0000000000 1806040311          00000000000010000001000000000000000837834101700000903110000180000000000000000000000000000000000000000000000000000000000000000000000000008378000000000000000000000000000000000000000000000000819820000000000000          0000000000000000000000000000000000000000000000000010000033
100000000000000001202500017727X28472321      0000000000426025200000000000010000001   027000000 0000000000 1806040311          00000000000010000001000000000000000077734107350000903110000180000000000000000000000000000000000000000000000000000000000000000000000000000777000000000000000000000000000000000000000000000000059720000000000000          0000000000000000000000000000000000000000000000000010000034
100000000000000001202500017727X28472321      0000000000426027500000000000010000001   027000000 0000000000 1806040311          00000000000010000001000000000000000142634100780000903110000180000000000000000000000000000000000000000000000000000000000000000000000000001426000000000000000000000000000000000000000000000000124620000000000000          0000000000000000000000000000000000000000000000000010000035
100000000000000001202500017727X28472321      0000000000426030100000000000010000001   027000000 0000000000 1806040311          00000000000010000001000000000000000074034103490000903110000180000000000000000000000000000000000000000000000000000000000000000000000000000740000000000000000000000000000000000000000000000000056020000000000000          0000000000000000000000000000000000000000000000000010000036
100000000000000001202500017727X28472321      0000000000426030800000000000010000001   027000000 0000000000 1806040311          00000000000010000001000000000000001596123704950000903110000180000000000000000000000000000000000000000000000000000000000000000000000000015961000000000000000000000000000000000000000000000001578120000000000000          0000000000000000000000000000000000000000000000000010000037
100000000000000001202500017727X28472321      0000000000426030900000000000010000001   027000000 0000000000 1806040311          00000000000010000001000000000000000455334106460000903110000180000000000000000000000000000000000000000000000000000000000000000000000000004553000000000000000000000000000000000000000000000000437320000000000000          0000000000000000000000000000000000000000000000000010000038
100000000000000001202500017727X28472321      0000000000426031200000000000010000001   027000000 0000000000 1806040311          00000000000010000001000000000000001283434140730000903110000180000000000000000000000000000000000000000000000000000000000000000000000000012834000000000000000000000000000000000000000000000001265420000000000000          0000000000000000000000000000000000000000000000000010000039
100000000000000001202500017727X28472321      0000000000426034300000000000010000001   027000000 0000000000 1806040311          00000000000010000001000000000000000107634107750000903110000180000000000000000000000000000000000000000000000000000000000000000000000000001076000000000000000000000000000000000000000000000000089620000000000000          0000000000000000000000000000000000000000000000000010000040
100000000000000001202500017727X28472321      0000000000426035200000000000010000001   027000000 0000000000 1806040311          00000000000010000001000000000000001317934101880000903110000180000000000000000000000000000000000000000000000000000000000000000000000000013179000000000000000000000000000000000000000000000001299920000000000000          0000000000000000000000000000000000000000000000000010000041
100000000000000001202500017727X28472321      0000000000426038200000000000010000001   027000000 0000000000 1806040311          00000000000010000001000000000000000353603339860000903110000180000000000000000000000000000000000000000000000000000000000000000000000000003536000000000000000000000000000000000000000000000000335620000000000000          0000000000000000000000000000000000000000000000000010000042
100000000000000001202500017727X28472321      0000000000426039800000000000010000001   027000000 0000000000 1806040311          00000000000010000001000000000000000232834180200000903110000180000000000000000000000000000000000000000000000000000000000000000000000000002328000000000000000000000000000000000000000000000000214820000000000000          0000000000000000000000000000000000000000000000000010000043
100000000000000001202500017727X28472321      0000000000426041200000000000010000001   027000000 0000000000 1806040311          00000000000010000001000000000000000732834101380000903110000180000000000000000000000000000000000000000000000000000000000000000000000000007328000000000000000000000000000000000000000000000000714820000000000000          0000000000000000000000000000000000000000000000000010000044
100000000000000001202500017727X28472321      0000000000426041800000000000010000001   027000000 0000000000 1806040311          00000000000010000001000000000000000430003302040000903110000180000000000000000000000000000000000000000000000000000000000000000000000000004300000000000000000000000000000000000000000000000000412020000000000000          0000000000000000000000000000000000000000000000000010000045
100000000000000001202500017727X28472321      0000000000426043000000000000010000001   027000000 0000000000 1806040311          00000000000010000001000000000000000155534105930000903110000180000000000000000000000000000000000000000000000000000000000000000000000000001555000000000000000000000000000000000000000000000000137520000000000000          0000000000000000000000000000000000000000000000000010000046
100000000000000001202500017727X28472321      0000000000426044200000000000010000001   027000000 0000000000 1806040311          00000000000010000001000000000000000153234101880000903110000180000000000000000000000000000000000000000000000000000000000000000000000000001532000000000000000000000000000000000000000000000000135220000000000000          0000000000000000000000000000000000000000000000000010000047
100000000000000001202500017727X28472321      0000000000426046800000000000010000001   027000000 0000000000 1806040311          00000000000010000001000000000000000964234107350000903110000180000000000000000000000000000000000000000000000000000000000000000000000000009642000000000000000000000000000000000000000000000000946220000000000000          0000000000000000000000000000000000000000000000000010000048
100000000000000001202500017727X28472321      0000000000426047400000000000010000001   027000000 0000000000 1806040311          00000000000010000001000000000000000387034100640000903110000180000000000000000000000000000000000000000000000000000000000000000000000000003870000000000000000000000000000000000000000000000000369020000000000000          0000000000000000000000000000000000000000000000000010000049
100000000000000001202500017727X28472321      0000000000426048700000000000010000001   027000000 0000000000 1806040311          00000000000010000001000000000000000662234104400000903110000180000000000000000000000000000000000000000000000000000000000000000000000000006622000000000000000000000000000000000000000000000000644220000000000000          0000000000000000000000000000000000000000000000000010000050
100000000000000001202500017727X28472321      0000000000426051500000000000010000001   027000000 0000000000 1806040311          00000000000010000001000000000000000646434107720000903110000180000000000000000000000000000000000000000000000000000000000000000000000000006464000000000000000000000000000000000000000000000000628420000000000000          0000000000000000000000000000000000000000000000000010000051
100000000000000001202500017727X28472321      0000000000426055300000000000010000001   027000000 0000000000 1806040311          00000000000010000001000000000000000937723713630000903110000180000000000000000000000000000000000000000000000000000000000000000000000000009377000000000000000000000000000000000000000000000000919720000000000000          0000000000000000000000000000000000000000000000000010000052
100000000000000001202500017727X28472321      0000000000426057000000000000010000001   027000000 0000000000 1806040311          00000000000010000001000000000000000406303331960000903110000180000000000000000000000000000000000000000000000000000000000000000000000000004063000000000000000000000000000000000000000000000000388320000000000000          0000000000000000000000000000000000000000000000000010000053
100000000000000001202500017727X28472321      0000000000426057100000000000010000001   027000000 0000000000 1806040311          00000000000010000001000000000000000915123704950000903110000180000000000000000000000000000000000000000000000000000000000000000000000000009151000000000000000000000000000000000000000000000000897120000000000000          0000000000000000000000000000000000000000000000000010000054
100000000000000001202500017727X28472321      0000000000426060900000000000010000001   027000000 0000000000 1806040311          00000000000010000001000000000000001550603303860000903110000180000000000000000000000000000000000000000000000000000000000000000000000000015506000000000000000000000000000000000000000000000001532620000000000000          0000000000000000000000000000000000000000000000000010000055
100000000000000001202500017727X28472321      0000000000426061400000000000010000001   027000000 0000000000 1806040311          00000000000010000001000000000000000238403330560000903110000180000000000000000000000000000000000000000000000000000000000000000000000000002384000000000000000000000000000000000000000000000000220420000000000000          0000000000000000000000000000000000000000000000000010000056
100000000000000001202500017727X28472321      0000000000426062600000000000010000001   027000000 0000000000 1806040311          00000000000010000001000000000000000848323701380000903110000180000000000000000000000000000000000000000000000000000000000000000000000000008483000000000000000000000000000000000000000000000000830320000000000000          0000000000000000000000000000000000000000000000000010000057
100000000000000001202500017727X28472321      0000000000426062700000000000010000001   027000000 0000000000 1806040311          00000000000010000001000000000000000849834101380000903110000180000000000000000000000000000000000000000000000000000000000000000000000000008498000000000000000000000000000000000000000000000000831820000000000000          0000000000000000000000000000000000000000000000000010000058
100000000000000001202500017727X28472321      0000000000426064800000000000010000001   027000000 0000000000 1806040311          00000000000010000001000000000000001718634104400000903110000180000000000000000000000000000000000000000000000000000000000000000000000000017186000000000000000000000000000000000000000000000001700620000000000000          0000000000000000000000000000000000000000000000000010000059
100000000000000001202500017727X28472321      0000000000426065800000000000010000001   027000000 0000000000 1806040311          00000000000010000001000000000000000467334101700000903110000180000000000000000000000000000000000000000000000000000000000000000000000000004673000000000000000000000000000000000000000000000000449320000000000000          0000000000000000000000000000000000000000000000000010000060
100000000000000001202500017727X28472321      0000000000426066500000000000010000001   027000000 0000000000 1806040311          00000000000010000001000000000000000129923704950000903110000180000000000000000000000000000000000000000000000000000000000000000000000000001299000000000000000000000000000000000000000000000000111920000000000000          0000000000000000000000000000000000000000000000000010000061
100000000000000001202500017727X28472321      0000000000426071000000000000010000001   027000000 0000000000 1806040311          00000000000010000001000000000000001089534107350000903110000180000000000000000000000000000000000000000000000000000000000000000000000000010895000000000000000000000000000000000000000000000001071520000000000000          0000000000000000000000000000000000000000000000000010000062
100000000000000001202500017727X28472321      0000000000426073800000000000010000001   027000000 0000000000 1806040311          00000000000010000001000000000000000128034101730000903110000180000000000000000000000000000000000000000000000000000000000000000000000000001280000000000000000000000000000000000000000000000000110020000000000000          0000000000000000000000000000000000000000000000000010000063
100000000000000001202500017727X28472321      0000000000426075400000000000010000001   027000000 0000000000 1806040311          00000000000010000001000000000000000820134103490000903110000180000000000000000000000000000000000000000000000000000000000000000000000000008201000000000000000000000000000000000000000000000000802120000000000000          0000000000000000000000000000000000000000000000000010000064
100000000000000001202500017727X28472321      0000000000426078000000000000010000001   027000000 0000000000 1806040311          00000000000010000001000000000000001216234107350000903110000180000000000000000000000000000000000000000000000000000000000000000000000000012162000000000000000000000000000000000000000000000001198220000000000000          0000000000000000000000000000000000000000000000000010000065
100000000000000001202500017727X28472321      0000000000426078800000000000010000001   027000000 0000000000 1806040311          00000000000010000001000000000000001603423705000000903110000180000000000000000000000000000000000000000000000000000000000000000000000000016034000000000000000000000000000000000000000000000001585420000000000000          0000000000000000000000000000000000000000000000000010000066
100000000000000001202500017727X28472321      0000000000426079200000000000010000001   027000000 0000000000 1806040311          00000000000010000001000000000000000918534100480000903110000180000000000000000000000000000000000000000000000000000000000000000000000000009185000000000000000000000000000000000000000000000000900520000000000000          0000000000000000000000000000000000000000000000000010000067
100000000000000001202500017727X28472321      0000000000426079300000000000010000001   027000000 0000000000 1806040311          00000000000010000001000000000000000090934106460000903110000180000000000000000000000000000000000000000000000000000000000000000000000000000909000000000000000000000000000000000000000000000000072920000000000000          0000000000000000000000000000000000000000000000000010000068
100000000000000001202500017727X28472321      0000000000426079600000000000010000001   027000000 0000000000 1806040311          00000000000010000001000000000000000080834106460000903110000180000000000000000000000000000000000000000000000000000000000000000000000000000808000000000000000000000000000000000000000000000000062820000000000000          0000000000000000000000000000000000000000000000000010000069
100000000000000001202500017727X28472321      0000000000426079800000000000010000001   027000000 0000000000 1806040311          00000000000010000001000000000000000079423738320000903110000180000000000000000000000000000000000000000000000000000000000000000000000000000794000000000000000000000000000000000000000000000000061420000000000000          0000000000000000000000000000000000000000000000000010000070
100000000000000001202500017727X28472321      0000000000426081000000000000010000001   027000000 0000000000 1806040311          00000000000010000001000000000000000194934101910000903110000180000000000000000000000000000000000000000000000000000000000000000000000000001949000000000000000000000000000000000000000000000000176920000000000000          0000000000000000000000000000000000000000000000000010000071
100000000000000001202500017727X28472321      0000000000426081100000000000010000001   027000000 0000000000 1806040311          00000000000010000001000000000000000603323705000000903110000180000000000000000000000000000000000000000000000000000000000000000000000000006033000000000000000000000000000000000000000000000000585320000000000000          0000000000000000000000000000000000000000000000000010000072
100000000000000001202500017727X28472321      0000000000426081700000000000010000001   027000000 0000000000 1806040311          00000000000010000001000000000000000080834101500000903110000180000000000000000000000000000000000000000000000000000000000000000000000000000808000000000000000000000000000000000000000000000000062820000000000000          0000000000000000000000000000000000000000000000000010000073
100000000000000001202500017727X28472321      0000000000426082100000000000010000001   027000000 0000000000 1806040311          00000000000010000001000000000000000437634184510000903110000180000000000000000000000000000000000000000000000000000000000000000000000000004376000000000000000000000000000000000000000000000000419620000000000000          0000000000000000000000000000000000000000000000000010000074
100000000000000001202500017727X28472321      0000000000426082900000000000010000001   027000000 0000000000 1806040311          00000000000010000001000000000000000782834107450000903110000180000000000000000000000000000000000000000000000000000000000000000000000000007828000000000000000000000000000000000000000000000000764820000000000000          0000000000000000000000000000000000000000000000000010000075
100000000000000001202500017727X28472321      0000000000426083000000000000010000001   027000000 0000000000 1806040311          00000000000010000001000000000000000708123704950000903110000180000000000000000000000000000000000000000000000000000000000000000000000000007081000000000000000000000000000000000000000000000000690120000000000000          0000000000000000000000000000000000000000000000000010000076
100000000000000001202500017727X28472321      0000000000426083100000000000010000001   027000000 0000000000 1806040311          00000000000010000001000000000000000174923722720000903110000180000000000000000000000000000000000000000000000000000000000000000000000000001749000000000000000000000000000000000000000000000000156920000000000000          0000000000000000000000000000000000000000000000000010000077
100000000000000001202500017727X28472321      0000000000426083900000000000010000001   027000000 0000000000 1806040311          00000000000010000001000000000000000777823704950000903110000180000000000000000000000000000000000000000000000000000000000000000000000000007778000000000000000000000000000000000000000000000000759820000000000000          0000000000000000000000000000000000000000000000000010000078
100000000000000001202500017727X28472321      0000000000426086500000000000010000001   027000000 0000000000 1806040311          00000000000010000001000000000000000962034191590000903110000180000000000000000000000000000000000000000000000000000000000000000000000000009620000000000000000000000000000000000000000000000000944020000000000000          0000000000000000000000000000000000000000000000000010000079
100000000000000001202500017727X28472321      0000000000426086900000000000010000001   027000000 0000000000 1806040311          00000000000010000001000000000000000205734104660000903110000180000000000000000000000000000000000000000000000000000000000000000000000000002057000000000000000000000000000000000000000000000000187720000000000000          0000000000000000000000000000000000000000000000000010000080
100000000000000001202500017727X28472321      0000000000426087000000000000010000001   027000000 0000000000 1806040311          00000000000010000001000000000000000393634129230000903110000180000000000000000000000000000000000000000000000000000000000000000000000000003936000000000000000000000000000000000000000000000000375620000000000000          0000000000000000000000000000000000000000000000000010000081
100000000000000001202500017727X28472321      0000000000426089900000000000010000001   027000000 0000000000 1806040311          00000000000010000001000000000000000448323715500000903110000180000000000000000000000000000000000000000000000000000000000000000000000000004483000000000000000000000000000000000000000000000000430320000000000000          0000000000000000000000000000000000000000000000000010000082
100000000000000001202500017727X28472321      0000000000426091100000000000010000001   027000000 0000000000 1806040311          00000000000010000001000000000000000128523704950000903110000180000000000000000000000000000000000000000000000000000000000000000000000000001285000000000000000000000000000000000000000000000000110520000000000000          0000000000000000000000000000000000000000000000000010000083
100000000000000001202500017727X28472321      0000000000426091400000000000010000001   027000000 0000000000 1806040311          00000000000010000001000000000000000778003301450000903110000180000000000000000000000000000000000000000000000000000000000000000000000000007780000000000000000000000000000000000000000000000000760020000000000000          0000000000000000000000000000000000000000000000000010000084
100000000000000001202500017727X28472321      0000000000426091600000000000010000001   027000000 0000000000 1806040311          00000000000010000001000000000000000783510412300000903110000180000000000000000000000000000000000000000000000000000000000000000000000000007835000000000000000000000000000000000000000000000000765520000000000000          0000000000000000000000000000000000000000000000000010000085
100000000000000001202500017727X28472321      0000000000426091700000000000010000001   027000000 0000000000 1806040311          00000000000010000001000000000000000687210412300000903110000180000000000000000000000000000000000000000000000000000000000000000000000000006872000000000000000000000000000000000000000000000000669220000000000000          0000000000000000000000000000000000000000000000000010000086
100000000000000001202500017727X28472321      0000000000426092500000000000010000001   027000000 0000000000 1806040311          00000000000010000001000000000000000209403301450000903110000180000000000000000000000000000000000000000000000000000000000000000000000000002094000000000000000000000000000000000000000000000000191420000000000000          0000000000000000000000000000000000000000000000000010000087
100000000000000001202500017727X28472321      0000000000426093100000000000010000001   027000000 0000000000 1806040311          00000000000010000001000000000000000326923714800000903110000180000000000000000000000000000000000000000000000000000000000000000000000000003269000000000000000000000000000000000000000000000000308920000000000000          0000000000000000000000000000000000000000000000000010000088
100000000000000001202500017727X28472321      0000000000426094600000000000010000001   027000000 0000000000 1806040311          00000000000010000001000000000000000928034118210000903110000180000000000000000000000000000000000000000000000000000000000000000000000000009280000000000000000000000000000000000000000000000000910020000000000000          0000000000000000000000000000000000000000000000000010000089
100000000000000001202500017727X28472321      0000000000426096100000000000010000001   027000000 0000000000 1806040311          00000000000010000001000000000000000306634101700000903110000180000000000000000000000000000000000000000000000000000000000000000000000000003066000000000000000000000000000000000000000000000000288620000000000000          0000000000000000000000000000000000000000000000000010000090
100000000000000001202500017727X28472321      0000000000426101700000000000010000001   027000000 0000000000 1806040311          00000000000010000001000000000000000676834101700000903110000180000000000000000000000000000000000000000000000000000000000000000000000000006768000000000000000000000000000000000000000000000000658820000000000000          0000000000000000000000000000000000000000000000000010000091
100000000000000001202500017727X28472321      0000000000426102600000000000010000001   027000000 0000000000 1806040311          00000000000010000001000000000000001094523704950000903110000180000000000000000000000000000000000000000000000000000000000000000000000000010945000000000000000000000000000000000000000000000001076520000000000000          0000000000000000000000000000000000000000000000000010000092
100000000000000001202500017727X28472321      0000000000426103800000000000010000001   027000000 0000000000 1806040311          00000000000010000001000000000000000921923738570000903110000180000000000000000000000000000000000000000000000000000000000000000000000000009219000000000000000000000000000000000000000000000000903920000000000000          0000000000000000000000000000000000000000000000000010000093
100000000000000001202500017727X28472321      0000000000426105700000000000010000001   027000000 0000000000 1806040311          00000000000010000001000000000000000236534101880000903110000180000000000000000000000000000000000000000000000000000000000000000000000000002365000000000000000000000000000000000000000000000000218520000000000000          0000000000000000000000000000000000000000000000000010000094
100000000000000001202500017727X28472321      0000000000426106300000000000010000001   027000000 0000000000 1806040311          00000000000010000001000000000000000859323738320000903110000180000000000000000000000000000000000000000000000000000000000000000000000000008593000000000000000000000000000000000000000000000000841320000000000000          0000000000000000000000000000000000000000000000000010000095
100000000000000001202500017727X28472321      0000000000426106500000000000010000001   027000000 0000000000 1806040311          00000000000010000001000000000000000324834155740000903110000180000000000000000000000000000000000000000000000000000000000000000000000000003248000000000000000000000000000000000000000000000000306820000000000000          0000000000000000000000000000000000000000000000000010000096
100000000000000001202500017727X28472321      0000000000426106700000000000010000001   027000000 0000000000 1806040311          00000000000010000001000000000000000131903301540000903110000180000000000000000000000000000000000000000000000000000000000000000000000000001319000000000000000000000000000000000000000000000000113920000000000000          0000000000000000000000000000000000000000000000000010000097
100000000000000001202500017727X28472321      0000000000426107000000000000010000001   027000000 0000000000 1806040311          00000000000010000001000000000000001444034107450000903110000180000000000000000000000000000000000000000000000000000000000000000000000000014440000000000000000000000000000000000000000000000001426020000000000000          0000000000000000000000000000000000000000000000000010000098
100000000000000001202500017727X28472321      0000000000426107200000000000010000001   027000000 0000000000 1806040311          00000000000010000001000000000000000301134101700000903110000180000000000000000000000000000000000000000000000000000000000000000000000000003011000000000000000000000000000000000000000000000000283120000000000000          0000000000000000000000000000000000000000000000000010000099
100000000000000001202500017727X28472321      0000000000426107400000000000010000001   027000000 0000000000 1806040311          00000000000010000001000000000000000152923737900000903110000180000000000000000000000000000000000000000000000000000000000000000000000000001529000000000000000000000000000000000000000000000000134920000000000000          0000000000000000000000000000000000000000000000000010000100
100000000000000001202500017727X28472321      0000000000426107600000000000010000001   027000000 0000000000 1806040311          00000000000010000001000000000000000251534101700000903110000180000000000000000000000000000000000000000000000000000000000000000000000000002515000000000000000000000000000000000000000000000000233520000000000000          0000000000000000000000000000000000000000000000000010000101
100000000000000001202500017727X28472321      0000000000426108800000000000010000001   027000000 0000000000 1806040311          00000000000010000001000000000000000087134101700000903110000180000000000000000000000000000000000000000000000000000000000000000000000000000871000000000000000000000000000000000000000000000000069120000000000000          0000000000000000000000000000000000000000000000000010000102
100000000000000001202500017727X28472321      0000000000426110500000000000010000001   027000000 0000000000 1806040311          00000000000010000001000000000000000327634130950000903110000180000000000000000000000000000000000000000000000000000000000000000000000000003276000000000000000000000000000000000000000000000000309620000000000000          0000000000000000000000000000000000000000000000000010000103
100000000000000001202500017727X28472321      0000000000426111100000000000010000001   027000000 0000000000 1806040311          00000000000010000001000000000000000225134107350000903110000180000000000000000000000000000000000000000000000000000000000000000000000000002251000000000000000000000000000000000000000000000000207120000000000000          0000000000000000000000000000000000000000000000000010000104
100000000000000001202500017727X28472321      0000000000426112100000000000010000001   027000000 0000000000 1806040311          00000000000010000001000000000000000080923701050000903110000180000000000000000000000000000000000000000000000000000000000000000000000000000809000000000000000000000000000000000000000000000000062920000000000000          0000000000000000000000000000000000000000000000000010000105
100000000000000001202500017727X28472321      0000000000426114000000000000010000001   027000000 0000000000 1806040311          00000000000010000001000000000000000488134180200000903110000180000000000000000000000000000000000000000000000000000000000000000000000000004881000000000000000000000000000000000000000000000000470120000000000000          0000000000000000000000000000000000000000000000000010000106
100000000000000001202500017727X28472321      0000000000426117100000000000010000001   027000000 0000000000 1806040311          00000000000010000001000000000000000727023704950000903110000180000000000000000000000000000000000000000000000000000000000000000000000000007270000000000000000000000000000000000000000000000000709020000000000000          0000000000000000000000000000000000000000000000000010000107
100000000000000001202500017727X28472321      0000000000426117700000000000010000001   027000000 0000000000 1806040311          00000000000010000001000000000000001352734101380000903110000180000000000000000000000000000000000000000000000000000000000000000000000000013527000000000000000000000000000000000000000000000001334720000000000000          0000000000000000000000000000000000000000000000000010000108
100000000000000001202500017727X28472321      0000000000426117800000000000010000001   027000000 0000000000 1806040311          00000000000010000001000000000000000746634106410000903110000180000000000000000000000000000000000000000000000000000000000000000000000000007466000000000000000000000000000000000000000000000000728620000000000000          0000000000000000000000000000000000000000000000000010000109
100000000000000001202500017727X28472321      0000000000426118200000000000010000001   027000000 0000000000 1806040311          00000000000010000001000000000000000339634101700000903110000180000000000000000000000000000000000000000000000000000000000000000000000000003396000000000000000000000000000000000000000000000000321620000000000000          0000000000000000000000000000000000000000000000000010000110
100000000000000001202500017727X28472321      0000000000426118600000000000010000001   027000000 0000000000 1806040311          00000000000010000001000000000000000271934120000000903110000180000000000000000000000000000000000000000000000000000000000000000000000000002719000000000000000000000000000000000000000000000000253920000000000000          0000000000000000000000000000000000000000000000000010000111
100000000000000001202500017727X28472321      0000000000426122900000000000010000001   027000000 0000000000 1806040311          00000000000010000001000000000000000111734105930000903110000180000000000000000000000000000000000000000000000000000000000000000000000000001117000000000000000000000000000000000000000000000000093720000000000000          0000000000000000000000000000000000000000000000000010000112
100000000000000001202500017727X28472321      0000000000426123800000000000010000001   027000000 0000000000 1806040311          00000000000010000001000000000000000531334107580000903110000180000000000000000000000000000000000000000000000000000000000000000000000000005313000000000000000000000000000000000000000000000000513320000000000000          0000000000000000000000000000000000000000000000000010000113
100000000000000001202500017727X28472321      0000000000426124100000000000010000001   027000000 0000000000 1806040311          00000000000010000001000000000000000886434101700000903110000180000000000000000000000000000000000000000000000000000000000000000000000000008864000000000000000000000000000000000000000000000000868420000000000000          0000000000000000000000000000000000000000000000000010000114
100000000000000001202500017727X28472321      0000000000426124800000000000010000001   027000000 0000000000 1806040311          00000000000010000001000000000000000151223704950000903110000180000000000000000000000000000000000000000000000000000000000000000000000000001512000000000000000000000000000000000000000000000000133220000000000000          0000000000000000000000000000000000000000000000000010000115
100000000000000001202500017727X28472321      0000000000426125200000000000010000001   027000000 0000000000 1806040311          00000000000010000001000000000000001015739903190000903110000180000000000000000000000000000000000000000000000000000000000000000000000000010157000000000000000000000000000000000000000000000000997720000000000000          0000000000000000000000000000000000000000000000000010000116
100000000000000001202500017727X28472321      0000000000426125300000000000010000001   027000000 0000000000 1806040311          00000000000010000001000000000000000316334129370000903110000180000000000000000000000000000000000000000000000000000000000000000000000000003163000000000000000000000000000000000000000000000000298320000000000000          0000000000000000000000000000000000000000000000000010000117
100000000000000001202500017727X28472321      0000000000426126400000000000010000001   027000000 0000000000 1806040311          00000000000010000001000000000000000310934103490000903110000180000000000000000000000000000000000000000000000000000000000000000000000000003109000000000000000000000000000000000000000000000000292920000000000000          0000000000000000000000000000000000000000000000000010000118
100000000000000001202500017727X28472321      0000000000426126700000000000010000001   027000000 0000000000 1806040311          00000000000010000001000000000000000418234102620000903110000180000000000000000000000000000000000000000000000000000000000000000000000000004182000000000000000000000000000000000000000000000000400220000000000000          0000000000000000000000000000000000000000000000000010000119
100000000000000001202500017727X28472321      0000000000426128500000000000010000001   027000000 0000000000 1806040311          00000000000010000001000000000000000074023701140000903110000180000000000000000000000000000000000000000000000000000000000000000000000000000740000000000000000000000000000000000000000000000000056020000000000000          0000000000000000000000000000000000000000000000000010000120
100000000000000001202500017727X28472321      0000000000426129900000000000010000001   027000000 0000000000 1806040311          00000000000010000001000000000000000779203331030000903110000180000000000000000000000000000000000000000000000000000000000000000000000000007792000000000000000000000000000000000000000000000000761220000000000000          0000000000000000000000000000000000000000000000000010000121
100000000000000001202500017727X28472321      0000000000426130700000000000010000001   027000000 0000000000 1806040311          00000000000010000001000000000000000159034107350000903110000180000000000000000000000000000000000000000000000000000000000000000000000000001590000000000000000000000000000000000000000000000000141020000000000000          0000000000000000000000000000000000000000000000000010000122
100000000000000001202500017727X28472321      0000000000426132400000000000010000001   027000000 0000000000 1806040311          00000000000010000001000000000000001208903336300000903110000180000000000000000000000000000000000000000000000000000000000000000000000000012089000000000000000000000000000000000000000000000001190920000000000000          0000000000000000000000000000000000000000000000000010000123
100000000000000001202500017727X28472321      0000000000426132500000000000010000001   027000000 0000000000 1806040311          00000000000010000001000000000000000106134101700000903110000180000000000000000000000000000000000000000000000000000000000000000000000000001061000000000000000000000000000000000000000000000000088120000000000000          0000000000000000000000000000000000000000000000000010000124
100000000000000001202500017727X28472321      0000000000426134000000000000010000001   027000000 0000000000 1806040311          00000000000010000001000000000000001003010412300000903110000180000000000000000000000000000000000000000000000000000000000000000000000000010030000000000000000000000000000000000000000000000000985020000000000000          0000000000000000000000000000000000000000000000000010000125
100000000000000001202500017727X28472321      0000000000426134100000000000010000001   027000000 0000000000 1806040311          00000000000010000001000000000000000741023702920000903110000180000000000000000000000000000000000000000000000000000000000000000000000000007410000000000000000000000000000000000000000000000000723020000000000000          0000000000000000000000000000000000000000000000000010000126
100000000000000001202500017727X28472321      0000000000426135000000000000010000001   027000000 0000000000 1806040311          00000000000010000001000000000000000676503337270000903110000180000000000000000000000000000000000000000000000000000000000000000000000000006765000000000000000000000000000000000000000000000000658520000000000000          0000000000000000000000000000000000000000000000000010000127
100000000000000001202500017727X28472321      0000000000426137000000000000010000001   027000000 0000000000 1806040311          00000000000010000001000000000000000675434129230000903110000180000000000000000000000000000000000000000000000000000000000000000000000000006754000000000000000000000000000000000000000000000000657420000000000000          0000000000000000000000000000000000000000000000000010000128
100000000000000001202500017727X28472321      0000000000426137600000000000010000001   027000000 0000000000 1806040311          00000000000010000001000000000000000508223731680000903110000180000000000000000000000000000000000000000000000000000000000000000000000000005082000000000000000000000000000000000000000000000000490220000000000000          0000000000000000000000000000000000000000000000000010000129
100000000000000001202500017727X28472321      0000000000426140200000000000010000001   027000000 0000000000 1806040311          00000000000010000001000000000000000972134101880000903110000180000000000000000000000000000000000000000000000000000000000000000000000000009721000000000000000000000000000000000000000000000000954120000000000000          0000000000000000000000000000000000000000000000000010000130
100000000000000001202500017727X28472321      0000000000426140600000000000010000001   027000000 0000000000 1806040311          00000000000010000001000000000000000946034101880000903110000180000000000000000000000000000000000000000000000000000000000000000000000000009460000000000000000000000000000000000000000000000000928020000000000000          0000000000000000000000000000000000000000000000000010000131
100000000000000001202500017727X28472321      0000000000426140800000000000010000001   027000000 0000000000 1806040311          00000000000010000001000000000000002413934104450000903110000180000000000000000000000000000000000000000000000000000000000000000000000000024139000000000000000000000000000000000000000000000002395920000000000000          0000000000000000000000000000000000000000000000000010000132
100000000000000001202500017727X28472321      0000000000426141200000000000010000001   027000000 0000000000 1806040311          00000000000010000001000000000000000844734107580000903110000180000000000000000000000000000000000000000000000000000000000000000000000000008447000000000000000000000000000000000000000000000000826720000000000000          0000000000000000000000000000000000000000000000000010000133
100000000000000001202500017727X28472321      0000000000426142300000000000010000001   027000000 0000000000 1806040311          00000000000010000001000000000000000119523715500000903110000180000000000000000000000000000000000000000000000000000000000000000000000000001195000000000000000000000000000000000000000000000000101520000000000000          0000000000000000000000000000000000000000000000000010000134
100000000000000001202500017727X28472321      0000000000426143900000000000010000001   027000000 0000000000 1806040311          00000000000010000001000000000000001312623719450000903110000180000000000000000000000000000000000000000000000000000000000000000000000000013126000000000000000000000000000000000000000000000001294620000000000000          0000000000000000000000000000000000000000000000000010000135
100000000000000001202500017727X28472321      0000000000426144100000000000010000001   027000000 0000000000 1806040311          00000000000010000001000000000000000077400111967000903110000180000000000000000000000000000000000000000000000000000000000000000000000000000774000000000000000000000000000000000000000000000000059420000000000000          0000000000000000000000000000000000000000000000000004000136
100000000000000001202500017727X28472321      0000000000426144500000000000010000001   027000000 0000000000 1806040311          00000000000010000001000000000000001124123713470000903110000180000000000000000000000000000000000000000000000000000000000000000000000000011241000000000000000000000000000000000000000000000001106120000000000000          0000000000000000000000000000000000000000000000000010000137
100000000000000001202500017727X28472321      0000000000426145100000000000010000001   027000000 0000000000 1806040311          00000000000010000001000000000000001209534107350000903110000180000000000000000000000000000000000000000000000000000000000000000000000000012095000000000000000000000000000000000000000000000001191520000000000000          0000000000000000000000000000000000000000000000000010000138
100000000000000001202500017727X28472321      0000000000426145200000000000010000001   027000000 0000000000 1806040311          00000000000010000001000000000000001154023705000000903110000180000000000000000000000000000000000000000000000000000000000000000000000000011540000000000000000000000000000000000000000000000001136020000000000000          0000000000000000000000000000000000000000000000000010000139
100000000000000001202500017727X28472321      0000000000426147500000000000010000001   027000000 0000000000 1806040311          00000000000010000001000000000000000143603335590000903110000180000000000000000000000000000000000000000000000000000000000000000000000000001436000000000000000000000000000000000000000000000000125620000000000000          0000000000000000000000000000000000000000000000000010000140
100000000000000001202500017727X28472321      0000000000426149500000000000010000001   027000000 0000000000 1806040311          00000000000010000001000000000000001454234107350000903110000180000000000000000000000000000000000000000000000000000000000000000000000000014542000000000000000000000000000000000000000000000001436220000000000000          0000000000000000000000000000000000000000000000000010000141
100000000000000001202500017727X28472321      0000000000426149600000000000010000001   027000000 0000000000 1806040311          00000000000010000001000000000000001947634107350000903110000180000000000000000000000000000000000000000000000000000000000000000000000000019476000000000000000000000000000000000000000000000001929620000000000000          0000000000000000000000000000000000000000000000000010000142
100000000000000001202500017727X28472321      0000000000426149900000000000010000001   027000000 0000000000 1806040311          00000000000010000001000000000000000992034107350000903110000180000000000000000000000000000000000000000000000000000000000000000000000000009920000000000000000000000000000000000000000000000000974020000000000000          0000000000000000000000000000000000000000000000000010000143
100000000000000001202500017727X28472321      0000000000426150100000000000010000001   027000000 0000000000 1806040311          00000000000010000001000000000000000212734107350000903110000180000000000000000000000000000000000000000000000000000000000000000000000000002127000000000000000000000000000000000000000000000000194720000000000000          0000000000000000000000000000000000000000000000000010000144
100000000000000001202500017727X28472321      0000000000426150600000000000010000001   027000000 0000000000 1806040311          00000000000010000001000000000000000864434100470000903110000180000000000000000000000000000000000000000000000000000000000000000000000000008644000000000000000000000000000000000000000000000000846420000000000000          0000000000000000000000000000000000000000000000000010000145
100000000000000001202500017727X28472321      0000000000426151200000000000010000001   027000000 0000000000 1806040311          00000000000010000001000000000000000161923704510000903110000180000000000000000000000000000000000000000000000000000000000000000000000000001619000000000000000000000000000000000000000000000000143920000000000000          0000000000000000000000000000000000000000000000000010000146
100000000000000001202500017727X28472321      0000000000426152400000000000010000001   027000000 0000000000 1806040311          00000000000010000001000000000000000832534105340000903110000180000000000000000000000000000000000000000000000000000000000000000000000000008325000000000000000000000000000000000000000000000000814520000000000000          0000000000000000000000000000000000000000000000000010000147
100000000000000001202500017727X28472321      0000000000426152600000000000010000001   027000000 0000000000 1806040311          00000000000010000001000000000000000166634105930000903110000180000000000000000000000000000000000000000000000000000000000000000000000000001666000000000000000000000000000000000000000000000000148620000000000000          0000000000000000000000000000000000000000000000000010000148
100000000000000001202500017727X28472321      0000000000426154600000000000010000001   027000000 0000000000 1806040311          00000000000010000001000000000000000647834101700000903110000180000000000000000000000000000000000000000000000000000000000000000000000000006478000000000000000000000000000000000000000000000000629820000000000000          0000000000000000000000000000000000000000000000000010000149
100000000000000001202500017727X28472321      0000000000426156000000000000010000001   027000000 0000000000 1806040311          00000000000010000001000000000000000532334107580000903110000180000000000000000000000000000000000000000000000000000000000000000000000000005323000000000000000000000000000000000000000000000000514320000000000000          0000000000000000000000000000000000000000000000000010000150
100000000000000001202500017727X28472321      0000000000426157900000000000010000001   027000000 0000000000 1806040311          00000000000010000001000000000000000463403336300000903110000180000000000000000000000000000000000000000000000000000000000000000000000000004634000000000000000000000000000000000000000000000000445420000000000000          0000000000000000000000000000000000000000000000000010000151
100000000000000001202500017727X28472321      0000000000426158600000000000010000001   027000000 0000000000 1806040311          00000000000010000001000000000000000821234115720000903110000180000000000000000000000000000000000000000000000000000000000000000000000000008212000000000000000000000000000000000000000000000000803220000000000000          0000000000000000000000000000000000000000000000000010000152
100000000000000001202500017727X28472321      0000000000426158700000000000010000001   027000000 0000000000 1806040311          00000000000010000001000000000000000614323719980000903110000180000000000000000000000000000000000000000000000000000000000000000000000000006143000000000000000000000000000000000000000000000000596320000000000000          0000000000000000000000000000000000000000000000000010000153
100000000000000001202500017727X28472321      0000000000426160200000000000010000001   027000000 0000000000 1806040311          00000000000010000001000000000000000317403304370000903110000180000000000000000000000000000000000000000000000000000000000000000000000000003174000000000000000000000000000000000000000000000000299420000000000000          0000000000000000000000000000000000000000000000000010000154
100000000000000001202500017727X28472321      0000000000426160300000000000010000001   027000000 0000000000 1806040311          00000000000010000001000000000000000121734162050000903110000180000000000000000000000000000000000000000000000000000000000000000000000000001217000000000000000000000000000000000000000000000000103720000000000000          0000000000000000000000000000000000000000000000000010000155
100000000000000001202500017727X28472321      0000000000426163600000000000010000001   027000000 0000000000 1806040311          00000000000010000001000000000000001340534105930000903110000180000000000000000000000000000000000000000000000000000000000000000000000000013405000000000000000000000000000000000000000000000001322520000000000000          0000000000000000000000000000000000000000000000000010000156
100000000000000001202500017727X28472321      0000000000426163700000000000010000001   027000000 0000000000 1806040311          00000000000010000001000000000000000561034118210000903110000180000000000000000000000000000000000000000000000000000000000000000000000000005610000000000000000000000000000000000000000000000000543020000000000000          0000000000000000000000000000000000000000000000000010000157
100000000000000001202500017727X28472321      0000000000426165200000000000010000001   027000000 0000000000 1806040311          00000000000010000001000000000000000861134107350000903110000180000000000000000000000000000000000000000000000000000000000000000000000000008611000000000000000000000000000000000000000000000000843120000000000000          0000000000000000000000000000000000000000000000000010000158
100000000000000001202500017727X28472321      0000000000426165900000000000010000001   027000000 0000000000 1806040311          00000000000010000001000000000000000306223701140000903110000180000000000000000000000000000000000000000000000000000000000000000000000000003062000000000000000000000000000000000000000000000000288220000000000000          0000000000000000000000000000000000000000000000000010000159
100000000000000001202500017727X28472321      0000000000426166200000000000010000001   027000000 0000000000 1806040311          00000000000010000001000000000000001244134105930000903110000180000000000000000000000000000000000000000000000000000000000000000000000000012441000000000000000000000000000000000000000000000001226120000000000000          0000000000000000000000000000000000000000000000000010000160
100000000000000001202500017727X28472321      0000000000426168200000000000010000001   027000000 0000000000 1806040311          00000000000010000001000000000000000228234101370000903110000180000000000000000000000000000000000000000000000000000000000000000000000000002282000000000000000000000000000000000000000000000000210220000000000000          0000000000000000000000000000000000000000000000000010000161
100000000000000001202500017727X28472321      0000000000426169700000000000010000001   027000000 0000000000 1806040311          00000000000010000001000000000000000153134162520000903110000180000000000000000000000000000000000000000000000000000000000000000000000000001531000000000000000000000000000000000000000000000000135120000000000000          0000000000000000000000000000000000000000000000000010000162
100000000000000001202500017727X28472321      0000000000426170500000000000010000001   027000000 0000000000 1806040311          00000000000010000001000000000000000467323702780000903110000180000000000000000000000000000000000000000000000000000000000000000000000000004673000000000000000000000000000000000000000000000000449320000000000000          0000000000000000000000000000000000000000000000000010000163
100000000000000001202500017727X28472321      0000000000426171000000000000010000001   027000000 0000000000 1806040311          00000000000010000001000000000000000293023700950000903110000180000000000000000000000000000000000000000000000000000000000000000000000000002930000000000000000000000000000000000000000000000000275020000000000000          0000000000000000000000000000000000000000000000000010000164
100000000000000001202500017727X28472321      0000000000426171100000000000010000001   027000000 0000000000 1806040311          00000000000010000001000000000000002288523738570000903110000180000000000000000000000000000000000000000000000000000000000000000000000000022885000000000000000000000000000000000000000000000002270520000000000000          0000000000000000000000000000000000000000000000000010000165
100000000000000001202500017727X28472321      0000000000426173600000000000010000001   027000000 0000000000 1806040311          00000000000010000001000000000000001228534116600000903110000180000000000000000000000000000000000000000000000000000000000000000000000000012285000000000000000000000000000000000000000000000001210520000000000000          0000000000000000000000000000000000000000000000000010000166
100000000000000001202500017727X28472321      0000000000426175300000000000010000001   027000000 0000000000 1806040311          00000000000010000001000000000000001036323705000000903110000180000000000000000000000000000000000000000000000000000000000000000000000000010363000000000000000000000000000000000000000000000001018320000000000000          0000000000000000000000000000000000000000000000000010000167
100000000000000001202500017727X28472321      0000000000426175900000000000010000001   027000000 0000000000 1806040311          00000000000010000001000000000000000763303301340000903110000180000000000000000000000000000000000000000000000000000000000000000000000000007633000000000000000000000000000000000000000000000000745320000000000000          0000000000000000000000000000000000000000000000000010000168
100000000000000001202500017727X28472321      0000000000426176600000000000010000001   027000000 0000000000 1806040311          00000000000010000001000000000000000705734101910000903110000180000000000000000000000000000000000000000000000000000000000000000000000000007057000000000000000000000000000000000000000000000000687720000000000000          0000000000000000000000000000000000000000000000000010000169
100000000000000001202500017727X28472321      0000000000426177600000000000010000001   027000000 0000000000 1806040311          00000000000010000001000000000000000403534107580000903110000180000000000000000000000000000000000000000000000000000000000000000000000000004035000000000000000000000000000000000000000000000000385520000000000000          0000000000000000000000000000000000000000000000000010000170
100000000000000001202500017727X28472321      0000000000426177900000000000010000001   027000000 0000000000 1806040311          00000000000010000001000000000000000697734107350000903110000180000000000000000000000000000000000000000000000000000000000000000000000000006977000000000000000000000000000000000000000000000000679720000000000000          0000000000000000000000000000000000000000000000000010000171
100000000000000001202500017727X28472321      0000000000426178200000000000010000001   027000000 0000000000 1806040311          00000000000010000001000000000000000109234103490000903110000180000000000000000000000000000000000000000000000000000000000000000000000000001092000000000000000000000000000000000000000000000000091220000000000000          0000000000000000000000000000000000000000000000000010000172
100000000000000001202500017727X28472321      0000000000426178900000000000010000001   027000000 0000000000 1806040311          00000000000010000001000000000000000902334107350000903110000180000000000000000000000000000000000000000000000000000000000000000000000000009023000000000000000000000000000000000000000000000000884320000000000000          0000000000000000000000000000000000000000000000000010000173
100000000000000001202500017727X28472321      0000000000426180900000000000010000001   027000000 0000000000 1806040311          00000000000010000001000000000000000498134105930000903110000180000000000000000000000000000000000000000000000000000000000000000000000000004981000000000000000000000000000000000000000000000000480120000000000000          0000000000000000000000000000000000000000000000000010000174
100000000000000001202500017727X28472321      0000000000426182600000000000010000001   027000000 0000000000 1806040311          00000000000010000001000000000000001297934103490000903110000180000000000000000000000000000000000000000000000000000000000000000000000000012979000000000000000000000000000000000000000000000001279920000000000000          0000000000000000000000000000000000000000000000000010000175
100000000000000001202500017727X28472321      0000000000426182800000000000010000001   027000000 0000000000 1806040311          00000000000010000001000000000000000775234101520000903110000180000000000000000000000000000000000000000000000000000000000000000000000000007752000000000000000000000000000000000000000000000000757220000000000000          0000000000000000000000000000000000000000000000000010000176
100000000000000001202500017727X28472321      0000000000426183400000000000010000001   027000000 0000000000 1806040311          00000000000010000001000000000000001368603303890000903110000180000000000000000000000000000000000000000000000000000000000000000000000000013686000000000000000000000000000000000000000000000001350620000000000000          0000000000000000000000000000000000000000000000000010000177
100000000000000001202500017727X28472321      0000000000426184300000000000010000001   027000000 0000000000 1806040311          00000000000010000001000000000000000611534129250000903110000180000000000000000000000000000000000000000000000000000000000000000000000000006115000000000000000000000000000000000000000000000000593520000000000000          0000000000000000000000000000000000000000000000000010000178
100000000000000001202500017727X28472321      0000000000426185100000000000010000001   027000000 0000000000 1806040311          00000000000010000001000000000000000366534101380000903110000180000000000000000000000000000000000000000000000000000000000000000000000000003665000000000000000000000000000000000000000000000000348520000000000000          0000000000000000000000000000000000000000000000000010000179
100000000000000001202500017727X28472321      0000000000426186700000000000010000001   027000000 0000000000 1806040311          00000000000010000001000000000000000107534137630000903110000180000000000000000000000000000000000000000000000000000000000000000000000000001075000000000000000000000000000000000000000000000000089520000000000000          0000000000000000000000000000000000000000000000000010000180
100000000000000001202500017727X28472321      0000000000426188200000000000010000001   027000000 0000000000 1806040311          00000000000010000001000000000000001277923727160000903110000180000000000000000000000000000000000000000000000000000000000000000000000000012779000000000000000000000000000000000000000000000001259920000000000000          0000000000000000000000000000000000000000000000000010000181
100000000000000001202500017727X28472321      0000000000426189200000000000010000001   027000000 0000000000 1806040311          00000000000010000001000000000000000270934106460000903110000180000000000000000000000000000000000000000000000000000000000000000000000000002709000000000000000000000000000000000000000000000000252920000000000000          0000000000000000000000000000000000000000000000000010000182
100000000000000001202500017727X28472321      0000000000426189800000000000010000001   027000000 0000000000 1806040311          00000000000010000001000000000000000315334107750000903110000180000000000000000000000000000000000000000000000000000000000000000000000000003153000000000000000000000000000000000000000000000000297320000000000000          0000000000000000000000000000000000000000000000000010000183
100000000000000001202500017727X28472321      0000000000426191300000000000010000001   027000000 0000000000 1806040311          00000000000010000001000000000000000335510410040000903110000180000000000000000000000000000000000000000000000000000000000000000000000000003355000000000000000000000000000000000000000000000000317520000000000000          0000000000000000000000000000000000000000000000000010000184
100000000000000001202500017727X28472321      0000000000426193200000000000010000001   027000000 0000000000 1806040311          00000000000010000001000000000000000223603301450000903110000180000000000000000000000000000000000000000000000000000000000000000000000000002236000000000000000000000000000000000000000000000000205620000000000000          0000000000000000000000000000000000000000000000000010000185
100000000000000001202500017727X28472321      0000000000426193600000000000010000001   027000000 0000000000 1806040311          00000000000010000001000000000000000900334107450000903110000180000000000000000000000000000000000000000000000000000000000000000000000000009003000000000000000000000000000000000000000000000000882320000000000000          0000000000000000000000000000000000000000000000000010000186
100000000000000001202500017727X28472321      0000000000426194200000000000010000001   027000000 0000000000 1806040311          00000000000010000001000000000000000740034101890000903110000180000000000000000000000000000000000000000000000000000000000000000000000000007400000000000000000000000000000000000000000000000000722020000000000000          0000000000000000000000000000000000000000000000000010000187
100000000000000001202500017727X28472321      0000000000426194900000000000010000001   027000000 0000000000 1806040311          00000000000010000001000000000000000319734107350000903110000180000000000000000000000000000000000000000000000000000000000000000000000000003197000000000000000000000000000000000000000000000000301720000000000000          0000000000000000000000000000000000000000000000000010000188
100000000000000001202500017727X28472321      0000000000426195800000000000010000001   027000000 0000000000 1806040311          00000000000010000001000000000000000168623727160000903110000180000000000000000000000000000000000000000000000000000000000000000000000000001686000000000000000000000000000000000000000000000000150620000000000000          0000000000000000000000000000000000000000000000000010000189
100000000000000001202500017727X28472321      0000000000426195900000000000010000001   027000000 0000000000 1806040311          00000000000010000001000000000000000350234107410000903110000180000000000000000000000000000000000000000000000000000000000000000000000000003502000000000000000000000000000000000000000000000000332220000000000000          0000000000000000000000000000000000000000000000000010000190
100000000000000001202500017727X28472321      0000000000426196000000000000010000001   027000000 0000000000 1806040311          00000000000010000001000000000000000688323701980000903110000180000000000000000000000000000000000000000000000000000000000000000000000000006883000000000000000000000000000000000000000000000000670320000000000000          0000000000000000000000000000000000000000000000000010000191
100000000000000001202500017727X28472321      0000000000426196400000000000010000001   027000000 0000000000 1806040311          00000000000010000001000000000000000467203346400000903110000180000000000000000000000000000000000000000000000000000000000000000000000000004672000000000000000000000000000000000000000000000000449220000000000000          0000000000000000000000000000000000000000000000000010000192
100000000000000001202500017727X28472321      0000000000426196500000000000010000001   027000000 0000000000 1806040311          00000000000010000001000000000000000347434105930000903110000180000000000000000000000000000000000000000000000000000000000000000000000000003474000000000000000000000000000000000000000000000000329420000000000000          0000000000000000000000000000000000000000000000000010000193
100000000000000001202500017727X28472321      0000000000426197000000000000010000001   027000000 0000000000 1806040311          00000000000010000001000000000000000454134107720000903110000180000000000000000000000000000000000000000000000000000000000000000000000000004541000000000000000000000000000000000000000000000000436120000000000000          0000000000000000000000000000000000000000000000000010000194
100000000000000001202500017727X28472321      0000000000426197300000000000010000001   027000000 0000000000 1806040311          00000000000010000001000000000000000310623737790000903110000180000000000000000000000000000000000000000000000000000000000000000000000000003106000000000000000000000000000000000000000000000000292620000000000000          0000000000000000000000000000000000000000000000000010000195
100000000000000001202500017727X28472321      0000000000426197500000000000010000001   027000000 0000000000 1806040311          00000000000010000001000000000000000818134107350000903110000180000000000000000000000000000000000000000000000000000000000000000000000000008181000000000000000000000000000000000000000000000000800120000000000000          0000000000000000000000000000000000000000000000000010000196
100000000000000001202500017727X28472321      0000000000426198800000000000010000001   027000000 0000000000 1806040311          00000000000010000001000000000000000830334107450000903110000180000000000000000000000000000000000000000000000000000000000000000000000000008303000000000000000000000000000000000000000000000000812320000000000000          0000000000000000000000000000000000000000000000000010000197
100000000000000001202500017727X28472321      0000000000426200000000000000010000001   027000000 0000000000 1806040311          00000000000010000001000000000000000559323738570000903110000180000000000000000000000000000000000000000000000000000000000000000000000000005593000000000000000000000000000000000000000000000000541320000000000000          0000000000000000000000000000000000000000000000000010000198
100000000000000001202500017727X28472321      0000000000426200100000000000010000001   027000000 0000000000 1806040311          00000000000010000001000000000000000179134107410000903110000180000000000000000000000000000000000000000000000000000000000000000000000000001791000000000000000000000000000000000000000000000000161120000000000000          0000000000000000000000000000000000000000000000000010000199
100000000000000001202500017727X28472321      0000000000426200300000000000010000001   027000000 0000000000 1806040311          00000000000010000001000000000000000171903336300000903110000180000000000000000000000000000000000000000000000000000000000000000000000000001719000000000000000000000000000000000000000000000000153920000000000000          0000000000000000000000000000000000000000000000000010000200
100000000000000001202500017727X28472321      0000000000426201400000000000010000001   027000000 0000000000 1806040311          00000000000010000001000000000000001152734105930000903110000180000000000000000000000000000000000000000000000000000000000000000000000000011527000000000000000000000000000000000000000000000001134720000000000000          0000000000000000000000000000000000000000000000000010000201
100000000000000001202500017727X28472321      0000000000426202800000000000010000001   027000000 0000000000 1806040311          00000000000010000001000000000000000328134107450000903110000180000000000000000000000000000000000000000000000000000000000000000000000000003281000000000000000000000000000000000000000000000000310120000000000000          0000000000000000000000000000000000000000000000000010000202
100000000000000001202500017727X28472321      0000000000426202900000000000010000001   027000000 0000000000 1806040311          00000000000010000001000000000000000384303347830000903110000180000000000000000000000000000000000000000000000000000000000000000000000000003843000000000000000000000000000000000000000000000000366320000000000000          0000000000000000000000000000000000000000000000000010000203
100000000000000001202500017727X28472321      0000000000426206200000000000010000001   027000000 0000000000 1806040311          00000000000010000001000000000000000660334148200000903110000180000000000000000000000000000000000000000000000000000000000000000000000000006603000000000000000000000000000000000000000000000000642320000000000000          0000000000000000000000000000000000000000000000000010000204
100000000000000001202500017727X28472321      0000000000426206700000000000010000001   027000000 0000000000 1806040311          00000000000010000001000000000000001198523717880000903110000180000000000000000000000000000000000000000000000000000000000000000000000000011985000000000000000000000000000000000000000000000001180520000000000000          0000000000000000000000000000000000000000000000000010000205
100000000000000001202500017727X28472321      0000000000426207900000000000010000001   027000000 0000000000 1806040311          00000000000010000001000000000000000519034101520000903110000180000000000000000000000000000000000000000000000000000000000000000000000000005190000000000000000000000000000000000000000000000000501020000000000000          0000000000000000000000000000000000000000000000000010000206
100000000000000001202500017727X28472321      0000000000426208000000000000010000001   027000000 0000000000 1806040311          00000000000010000001000000000000001314834101520000903110000180000000000000000000000000000000000000000000000000000000000000000000000000013148000000000000000000000000000000000000000000000001296820000000000000          0000000000000000000000000000000000000000000000000010000207
100000000000000001202500017727X28472321      0000000000426208100000000000010000001   027000000 0000000000 1806040311          00000000000010000001000000000000000891803343720000903110000180000000000000000000000000000000000000000000000000000000000000000000000000008918000000000000000000000000000000000000000000000000873820000000000000          0000000000000000000000000000000000000000000000000010000208
100000000000000001202500017727X28472321      0000000000426208500000000000010000001   027000000 0000000000 1806040311          00000000000010000001000000000000000142803331030000903110000180000000000000000000000000000000000000000000000000000000000000000000000000001428000000000000000000000000000000000000000000000000124820000000000000          0000000000000000000000000000000000000000000000000010000209
100000000000000001202500017727X28472321      0000000000426211500000000000010000001   027000000 0000000000 1806040311          00000000000010000001000000000000000970034105930000903110000180000000000000000000000000000000000000000000000000000000000000000000000000009700000000000000000000000000000000000000000000000000952020000000000000          0000000000000000000000000000000000000000000000000010000210
100000000000000001202500017727X28472321      0000000000426211700000000000010000001   027000000 0000000000 1806040311          00000000000010000001000000000000000508734101700000903110000180000000000000000000000000000000000000000000000000000000000000000000000000005087000000000000000000000000000000000000000000000000490720000000000000          0000000000000000000000000000000000000000000000000010000211
100000000000000001202500017727X28472321      0000000000426211900000000000010000001   027000000 0000000000 1806040311          00000000000010000001000000000000001481339903190000903110000180000000000000000000000000000000000000000000000000000000000000000000000000014813000000000000000000000000000000000000000000000001463320000000000000          0000000000000000000000000000000000000000000000000010000212
100000000000000001202500017727X28472321      0000000000426212100000000000010000001   027000000 0000000000 1806040311          00000000000010000001000000000000001065134185710000903110000180000000000000000000000000000000000000000000000000000000000000000000000000010651000000000000000000000000000000000000000000000001047120000000000000          0000000000000000000000000000000000000000000000000010000213
100000000000000001202500017727X28472321      0000000000426212800000000000010000001   027000000 0000000000 1806040311          00000000000010000001000000000000000686503322710000903110000180000000000000000000000000000000000000000000000000000000000000000000000000006865000000000000000000000000000000000000000000000000668520000000000000          0000000000000000000000000000000000000000000000000010000214
100000000000000001202500017727X28472321      0000000000426213400000000000010000001   027000000 0000000000 1806040311          00000000000010000001000000000000000549723719980000903110000180000000000000000000000000000000000000000000000000000000000000000000000000005497000000000000000000000000000000000000000000000000531720000000000000          0000000000000000000000000000000000000000000000000010000215
100000000000000001202500017727X28472321      0000000000426213700000000000010000001   027000000 0000000000 1806040311          00000000000010000001000000000000000738403347210000903110000180000000000000000000000000000000000000000000000000000000000000000000000000007384000000000000000000000000000000000000000000000000720420000000000000          0000000000000000000000000000000000000000000000000010000216
100000000000000001202500017727X28472321      0000000000426217400000000000010000001   027000000 0000000000 1806040311          00000000000010000001000000000000001376234106460000903110000180000000000000000000000000000000000000000000000000000000000000000000000000013762000000000000000000000000000000000000000000000001358220000000000000          0000000000000000000000000000000000000000000000000010000217
100000000000000001202500017727X28472321      0000000000426218200000000000010000001   027000000 0000000000 1806040311          00000000000010000001000000000000000077434106460000903110000180000000000000000000000000000000000000000000000000000000000000000000000000000774000000000000000000000000000000000000000000000000059420000000000000          0000000000000000000000000000000000000000000000000010000218
100000000000000001202500017727X28472321      0000000000426219200000000000010000001   027000000 0000000000 1806040311          00000000000010000001000000000000000688510402370000903110000180000000000000000000000000000000000000000000000000000000000000000000000000006885000000000000000000000000000000000000000000000000670520000000000000          0000000000000000000000000000000000000000000000000010000219
100000000000000001202500017727X28472321      0000000000426220000000000000010000001   027000000 0000000000 1806040311          00000000000010000001000000000000001358234104520000903110000180000000000000000000000000000000000000000000000000000000000000000000000000013582000000000000000000000000000000000000000000000001340220000000000000          0000000000000000000000000000000000000000000000000010000220
100000000000000001202500017727X28472321      0000000000426220500000000000010000001   027000000 0000000000 1806040311          00000000000010000001000000000000000138223704950000903110000180000000000000000000000000000000000000000000000000000000000000000000000000001382000000000000000000000000000000000000000000000000120220000000000000          0000000000000000000000000000000000000000000000000010000221
100000000000000001202500017727X28472321      0000000000426220900000000000010000001   027000000 0000000000 1806040311          00000000000010000001000000000000001981334100480000903110000180000000000000000000000000000000000000000000000000000000000000000000000000019813000000000000000000000000000000000000000000000001963320000000000000          0000000000000000000000000000000000000000000000000010000222
100000000000000001202500017727X28472321      0000000000426221100000000000010000001   027000000 0000000000 1806040311          00000000000010000001000000000000000247023737790000903110000180000000000000000000000000000000000000000000000000000000000000000000000000002470000000000000000000000000000000000000000000000000229020000000000000          0000000000000000000000000000000000000000000000000010000223
100000000000000001202500017727X28472321      0000000000426221200000000000010000001   027000000 0000000000 1806040311          00000000000010000001000000000000000560334184870000903110000180000000000000000000000000000000000000000000000000000000000000000000000000005603000000000000000000000000000000000000000000000000542320000000000000          0000000000000000000000000000000000000000000000000010000224
100000000000000001202500017727X28472321      0000000000426221700000000000010000001   027000000 0000000000 1806040311          00000000000010000001000000000000000841834183510000903110000180000000000000000000000000000000000000000000000000000000000000000000000000008418000000000000000000000000000000000000000000000000823820000000000000          0000000000000000000000000000000000000000000000000010000225
100000000000000001202500017727X28472321      0000000000426222200000000000010000001   027000000 0000000000 1806040311          00000000000010000001000000000000000182034163270000903110000180000000000000000000000000000000000000000000000000000000000000000000000000001820000000000000000000000000000000000000000000000000164020000000000000          0000000000000000000000000000000000000000000000000010000226
100000000000000001202500017727X28472321      0000000000426223800000000000010000001   027000000 0000000000 1806040311          00000000000010000001000000000000000569534155740000903110000180000000000000000000000000000000000000000000000000000000000000000000000000005695000000000000000000000000000000000000000000000000551520000000000000          0000000000000000000000000000000000000000000000000010000227
100000000000000001202500017727X28472321      0000000000426225100000000000010000001   027000000 0000000000 1806040311          00000000000010000001000000000000000249934180950000903110000180000000000000000000000000000000000000000000000000000000000000000000000000002499000000000000000000000000000000000000000000000000231920000000000000          0000000000000000000000000000000000000000000000000010000228
100000000000000001202500017727X28472321      0000000000426226200000000000010000001   027000000 0000000000 1806040311          00000000000010000001000000000000000580034101700000903110000180000000000000000000000000000000000000000000000000000000000000000000000000005800000000000000000000000000000000000000000000000000562020000000000000          0000000000000000000000000000000000000000000000000010000229
100000000000000001202500017727X28472321      0000000000426226500000000000010000001   027000000 0000000000 1806040311          00000000000010000001000000000000001579634107350000903110000180000000000000000000000000000000000000000000000000000000000000000000000000015796000000000000000000000000000000000000000000000001561620000000000000          0000000000000000000000000000000000000000000000000010000230
100000000000000001202500017727X28472321      0000000000426226900000000000010000001   027000000 0000000000 1806040311          00000000000010000001000000000000000805223704950000903110000180000000000000000000000000000000000000000000000000000000000000000000000000008052000000000000000000000000000000000000000000000000787220000000000000          0000000000000000000000000000000000000000000000000010000231
100000000000000001202500017727X28472321      0000000000426227300000000000010000001   027000000 0000000000 1806040311          00000000000010000001000000000000000758634107350000903110000180000000000000000000000000000000000000000000000000000000000000000000000000007586000000000000000000000000000000000000000000000000740620000000000000          0000000000000000000000000000000000000000000000000010000232
100000000000000001202500017727X28472321      0000000000426227500000000000010000001   027000000 0000000000 1806040311          00000000000010000001000000000000000229834107580000903110000180000000000000000000000000000000000000000000000000000000000000000000000000002298000000000000000000000000000000000000000000000000211820000000000000          0000000000000000000000000000000000000000000000000010000233
100000000000000001202500017727X28472321      0000000000426227800000000000010000001   027000000 0000000000 1806040311          00000000000010000001000000000000001312623704950000903110000180000000000000000000000000000000000000000000000000000000000000000000000000013126000000000000000000000000000000000000000000000001294620000000000000          0000000000000000000000000000000000000000000000000010000234
100000000000000001202500017727X28472321      0000000000426228000000000000010000001   027000000 0000000000 1806040311          00000000000010000001000000000000000564834129230000903110000180000000000000000000000000000000000000000000000000000000000000000000000000005648000000000000000000000000000000000000000000000000546820000000000000          0000000000000000000000000000000000000000000000000010000235
100000000000000001202500017727X28472321      0000000000426229200000000000010000001   027000000 0000000000 1806040311          00000000000010000001000000000000000469734185770000903110000180000000000000000000000000000000000000000000000000000000000000000000000000004697000000000000000000000000000000000000000000000000451720000000000000          0000000000000000000000000000000000000000000000000010000236
100000000000000001202500017727X28472321      0000000000426229700000000000010000001   027000000 0000000000 1806040311          00000000000010000001000000000000000925034101610000903110000180000000000000000000000000000000000000000000000000000000000000000000000000009250000000000000000000000000000000000000000000000000907020000000000000          0000000000000000000000000000000000000000000000000010000237
100000000000000001202500017727X28472321      0000000000426232400000000000010000001   027000000 0000000000 1806040311          00000000000010000001000000000000000582939903190000903110000180000000000000000000000000000000000000000000000000000000000000000000000000005829000000000000000000000000000000000000000000000000564920000000000000          0000000000000000000000000000000000000000000000000010000238
100000000000000001202500017727X28472321      0000000000426233000000000000010000001   027000000 0000000000 1806040311          00000000000010000001000000000000000693234106600000903110000180000000000000000000000000000000000000000000000000000000000000000000000000006932000000000000000000000000000000000000000000000000675220000000000000          0000000000000000000000000000000000000000000000000010000239
100000000000000001202500017727X28472321      0000000000426233600000000000010000001   027000000 0000000000 1806040311          00000000000010000001000000000000001278334103490000903110000180000000000000000000000000000000000000000000000000000000000000000000000000012783000000000000000000000000000000000000000000000001260320000000000000          0000000000000000000000000000000000000000000000000010000240
100000000000000001202500017727X28472321      0000000000426234600000000000010000001   027000000 0000000000 1806040311          00000000000010000001000000000000000881423738570000903110000180000000000000000000000000000000000000000000000000000000000000000000000000008814000000000000000000000000000000000000000000000000863420000000000000          0000000000000000000000000000000000000000000000000010000241
100000000000000001202500017727X28472321      0000000000426235000000000000010000001   027000000 0000000000 1806040311          00000000000010000001000000000000001189834107750000903110000180000000000000000000000000000000000000000000000000000000000000000000000000011898000000000000000000000000000000000000000000000001171820000000000000          0000000000000000000000000000000000000000000000000010000242
100000000000000001202500017727X28472321      0000000000426237000000000000010000001   027000000 0000000000 1806040311          00000000000010000001000000000000000710003301450000903110000180000000000000000000000000000000000000000000000000000000000000000000000000007100000000000000000000000000000000000000000000000000692020000000000000          0000000000000000000000000000000000000000000000000010000243
100000000000000001202500017727X28472321      0000000000426237200000000000010000001   027000000 0000000000 1806040311          00000000000010000001000000000000000566034107450000903110000180000000000000000000000000000000000000000000000000000000000000000000000000005660000000000000000000000000000000000000000000000000548020000000000000          0000000000000000000000000000000000000000000000000010000244
100000000000000001202500017727X28472321      0000000000426237300000000000010000001   027000000 0000000000 1806040311          00000000000010000001000000000000000482003301450000903110000180000000000000000000000000000000000000000000000000000000000000000000000000004820000000000000000000000000000000000000000000000000464020000000000000          0000000000000000000000000000000000000000000000000010000245
100000000000000001202500017727X28472321      0000000000426237800000000000010000001   027000000 0000000000 1806040311          00000000000010000001000000000000000670934129600000903110000180000000000000000000000000000000000000000000000000000000000000000000000000006709000000000000000000000000000000000000000000000000652920000000000000          0000000000000000000000000000000000000000000000000010000246
100000000000000001202500017727X28472321      0000000000426239000000000000010000001   027000000 0000000000 1806040311          00000000000010000001000000000000000648923738440000903110000180000000000000000000000000000000000000000000000000000000000000000000000000006489000000000000000000000000000000000000000000000000630920000000000000          0000000000000000000000000000000000000000000000000010000247
100000000000000001202500017727X28472321      0000000000426239700000000000010000001   027000000 0000000000 1806040311          00000000000010000001000000000000000312234101500000903110000180000000000000000000000000000000000000000000000000000000000000000000000000003122000000000000000000000000000000000000000000000000294220000000000000          0000000000000000000000000000000000000000000000000010000248
100000000000000001202500017727X28472321      0000000000426242900000000000010000001   027000000 0000000000 1806040311          00000000000010000001000000000000001042434105930000903110000180000000000000000000000000000000000000000000000000000000000000000000000000010424000000000000000000000000000000000000000000000001024420000000000000          0000000000000000000000000000000000000000000000000010000249
