02RETORNO01COBRANCA       1202500017727X284723SIND EMP DE EDIF SP ZEL PORT C001BANCO DO BRASIL0903110001878                      000001878201093102                                                                                                                                                                                                                                                       000001
100000000000000001202500017727X28472321      0000000000351970000000000000010000001   027000000 0000000000 1806090311          00000000000010000001000000000000000105434179210001003110000180000000000000000000000000000000000000000000000000000000000000000000000000001054000000000000000000000000000000000000000000000000087420000000000000          0000000000000000000000000000000000000000000000000010000002
100000000000000001202500017727X28472321      0000000000373212100000000000010000001   027000000 0000000000 1806090311          00000000000010000001000000000000000161434101380001003110000180000000000000000000000000000000000000000000000000000000000000000000000000001614000000000000000000000000000000000000000000000000143420000000000000          0000000000000000000000000000000000000000000000000010000003
100000000000000001202500017727X28472321      0000000000374371400000000000010000001   027000000 0000000000 1806090311          00000000000010000001000000000000000314734101380001003110000180000000000000000000000000000000000000000000000000000000000000000000000000003147000000000000000000000000000000000000000000000000296720000000000000          0000000000000000000000000000000000000000000000000010000004
100000000000000001202500017727X28472321      0000000000379380000000000000010000001   027000000 0000000000 1806090311          00000000000010000001000000000000000543934101380001003110000180000000000000000000000000000000000000000000000000000000000000000000000000005439000000000000000000000000000000000000000000000000525920000000000000          0000000000000000000000000000000000000000000000000010000005
100000000000000001202500017727X28472321      0000000000380845800000000000010000001   027000000 0000000000 1806090311          00000000000010000001000000000000000181734101380001003110000180000000000000000000000000000000000000000000000000000000000000000000000000001817000000000000000000000000000000000000000000000000163720000000000000          0000000000000000000000000000000000000000000000000010000006
100000000000000001202500017727X28472321      0000000000383035100000000000010000001   027000000 0000000000 1806090311          00000000000010000001000000000000000557034101380001003110000180000000000000000000000000000000000000000000000000000000000000000000000000005570000000000000000000000000000000000000000000000000539020000000000000          0000000000000000000000000000000000000000000000000010000007
100000000000000001202500017727X28472321      0000000000384907000000000000010000001   027000000 0000000000 1806090311          00000000000010000001000000000000000454434101380001003110000180000000000000000000000000000000000000000000000000000000000000000000000000004544000000000000000000000000000000000000000000000000436420000000000000          0000000000000000000000000000000000000000000000000010000008
100000000000000001202500017727X28472321      0000000000387341300000000000010000001   027000000 0000000000 1806090311          00000000000010000001000000000000000638434101380001003110000180000000000000000000000000000000000000000000000000000000000000000000000000006384000000000000000000000000000000000000000000000000620420000000000000          0000000000000000000000000000000000000000000000000010000009
100000000000000001202500017727X28472321      0000000000388622700000000000010000001   027000000 0000000000 1806090311          00000000000010000001000000000000000087534179210001003110000180000000000000000000000000000000000000000000000000000000000000000000000000000875000000000000000000000000000000000000000000000000069520000000000000          0000000000000000000000000000000000000000000000000010000010
100000000000000001202500017727X28472321      0000000000389316700000000000010000001   027000000 0000000000 1806090311          00000000000010000001000000000000000489134101380001003110000180000000000000000000000000000000000000000000000000000000000000000000000000004891000000000000000000000000000000000000000000000000471120000000000000          0000000000000000000000000000000000000000000000000010000011
100000000000000001202500017727X28472321      0000000000389378700000000000010000001   027000000 0000000000 1806090311          00000000000010000001000000000000000420734101380001003110000180000000000000000000000000000000000000000000000000000000000000000000000000004207000000000000000000000000000000000000000000000000402720000000000000          0000000000000000000000000000000000000000000000000010000012
100000000000000001202500017727X28472321      0000000000390178500000000000010000001   027000000 0000000000 1806090311          00000000000010000001000000000000000402434100470001003110000180000000000000000000000000000000000000000000000000000000000000000000000000004024000000000000000000000000000000000000000000000000384420000000000000          0000000000000000000000000000000000000000000000000010000013
100000000000000001202500017727X28472321      0000000000390877300000000000010000001   027000000 0000000000 1806090311          00000000000010000001000000000000000057434101380001003110000180000000000000000000000000000000000000000000000000000000000000000000000000000574000000000000000000000000000000000000000000000000039420000000000000          0000000000000000000000000000000000000000000000000010000014
100000000000000001202500017727X28472321      0000000000392730300000000000010000001   027000000 0000000000 1806090311          00000000000010000001000000000000000243034101380001003110000180000000000000000000000000000000000000000000000000000000000000000000000000002430000000000000000000000000000000000000000000000000225020000000000000          0000000000000000000000000000000000000000000000000010000015
100000000000000001202500017727X28472321      0000000000394439200000000000010000001   027000000 0000000000 1806090311          00000000000010000001000000000000000627134101380001003110000180000000000000000000000000000000000000000000000000000000000000000000000000006271000000000000000000000000000000000000000000000000609120000000000000          0000000000000000000000000000000000000000000000000010000016
100000000000000001202500017727X28472321      0000000000399675100000000000010000001   027000000 0000000000 1806090311          00000000000010000001000000000000000299334104670001003110000180000000000000000000000000000000000000000000000000000000000000000000000000002993000000000000000000000000000000000000000000000000281320000000000000          0000000000000000000000000000000000000000000000000010000017
100000000000000001202500017727X28472321      0000000000401088900000000000010000001   027000000 0000000000 1806090311          00000000000010000001000000000000000505434101380001003110000180000000000000000000000000000000000000000000000000000000000000000000000000005054000000000000000000000000000000000000000000000000487420000000000000          0000000000000000000000000000000000000000000000000010000018
100000000000000001202500017727X28472321      0000000000403991300000000000010000001   027000000 0000000000 1806090311          00000000000010000001000000000000000080834101380001003110000180000000000000000000000000000000000000000000000000000000000000000000000000000808000000000000000000000000000000000000000000000000062820000000000000          0000000000000000000000000000000000000000000000000010000019
100000000000000001202500017727X28472321      0000000000404466700000000000010000001   027000000 0000000000 1806090311          00000000000010000001000000000000000302834104670001003110000180000000000000000000000000000000000000000000000000000000000000000000000000003028000000000000000000000000000000000000000000000000284820000000000000          0000000000000000000000000000000000000000000000000010000020
100000000000000001202500017727X28472321      0000000000415023000000000000010000001   027000000 0000000000 1806090311          00000000000010000001000000000000001022334101380001003110000180000000000000000000000000000000000000000000000000000000000000000000000000010223000000000000000000000000000000000000000000000001004320000000000000          0000000000000000000000000000000000000000000000000010000021
100000000000000001202500017727X28472321      0000000000419815900000000000010000001   027000000 0000000000 1806090311          00000000000010000001000000000000000074034101380001003110000180000000000000000000000000000000000000000000000000000000000000000000000000000740000000000000000000000000000000000000000000000000056020000000000000          0000000000000000000000000000000000000000000000000010000022
100000000000000001202500017727X28472321      0000000000420640100000000000010000001   027000000 0000000000 1806090311          00000000000010000001000000000000000258734105340001003110000180000000000000000000000000000000000000000000000000000000000000000000000000002587000000000000000000000000000000000000000000000000240720000000000000          0000000000000000000000000000000000000000000000000010000023
100000000000000001202500017727X28472321      0000000000425989300000000000010000001   027000000 0000000000 1806090311          00000000000010000001000000000000001659134116640001003110000180000000000000000000000000000000000000000000000000000000000000000000000000016591000000000000000000000000000000000000000000000001641120000000000000          0000000000000000000000000000000000000000000000000010000024
100000000000000001202500017727X28472321      0000000000425989400000000000010000001   027000000 0000000000 1806090311          00000000000010000001000000000000000183623719450001003110000180000000000000000000000000000000000000000000000000000000000000000000000000001836000000000000000000000000000000000000000000000000165620000000000000          0000000000000000000000000000000000000000000000000010000025
100000000000000001202500017727X28472321      0000000000425990400000000000010000001   027000000 0000000000 1806090311          00000000000010000001000000000000000334934101500001003110000180000000000000000000000000000000000000000000000000000000000000000000000000003349000000000000000000000000000000000000000000000000316920000000000000          0000000000000000000000000000000000000000000000000010000026
100000000000000001202500017727X28472321      0000000000425992000000000000010000001   027000000 0000000000 1806090311          00000000000010000001000000000000001413323710740001003110000180000000000000000000000000000000000000000000000000000000000000000000000000014133000000000000000000000000000000000000000000000001395320000000000000          0000000000000000000000000000000000000000000000000010000027
100000000000000001202500017727X28472321      0000000000425992300000000000010000001   027000000 0000000000 1806090311          00000000000010000001000000000000000080834106600001003110000180000000000000000000000000000000000000000000000000000000000000000000000000000808000000000000000000000000000000000000000000000000062820000000000000          0000000000000000000000000000000000000000000000000010000028
100000000000000001202500017727X28472321      0000000000425992400000000000010000001   027000000 0000000000 1806090311          00000000000010000001000000000000000832823720170001003110000180000000000000000000000000000000000000000000000000000000000000000000000000008328000000000000000000000000000000000000000000000000814820000000000000          0000000000000000000000000000000000000000000000000010000029
100000000000000001202500017727X28472321      0000000000425992500000000000010000001   027000000 0000000000 1806090311          00000000000010000001000000000000002339134107340001003110000180000000000000000000000000000000000000000000000000000000000000000000000000023391000000000000000000000000000000000000000000000002321120000000000000          0000000000000000000000000000000000000000000000000010000030
100000000000000001202500017727X28472321      0000000000425992700000000000010000001   027000000 0000000000 1806090311          00000000000010000001000000000000000637103332820001003110000180000000000000000000000000000000000000000000000000000000000000000000000000006371000000000000000000000000000000000000000000000000619120000000000000          0000000000000000000000000000000000000000000000000010000031
100000000000000001202500017727X28472321      0000000000425994400000000000010000001   027000000 0000000000 1806090311          0000000000001000000100000000000000016330012807X001003110000180000000000000000000000000000000000000000000000000000000000000000000000000001633000000000000000000000000000000000000000000000000145320000000000000          0000000000000000000000000000000000000000000000000004000032
100000000000000001202500017727X28472321      0000000000425995000000000000010000001   027000000 0000000000 1806090311          00000000000010000001000000000000000893334105930001003110000180000000000000000000000000000000000000000000000000000000000000000000000000008933000000000000000000000000000000000000000000000000875320000000000000          0000000000000000000000000000000000000000000000000010000033
100000000000000001202500017727X28472321      0000000000425995500000000000010000001   027000000 0000000000 1806090311          00000000000010000001000000000000000443834103500001003110000180000000000000000000000000000000000000000000000000000000000000000000000000004438000000000000000000000000000000000000000000000000425820000000000000          0000000000000000000000000000000000000000000000000010000034
100000000000000001202500017727X28472321      0000000000425995600000000000010000004   027000000 0000000000 1806090311          00000000000010000004000000000000000775600157177001003110000225000000000000000000000000000000000000000000000000000000000000000000000000007756000000000000000000000000000000000000000000000000753120000000000000          0000000000000000000000000000000000000000000000000008000035
100000000000000001202500017727X28472321      0000000000425996200000000000010000001   027000000 0000000000 1806090311          00000000000010000001000000000000000572034100660001003110000180000000000000000000000000000000000000000000000000000000000000000000000000005720000000000000000000000000000000000000000000000000554020000000000000          0000000000000000000000000000000000000000000000000010000036
100000000000000001202500017727X28472321      0000000000425996300000000000010000001   027000000 0000000000 1806090311          00000000000010000001000000000000001047323737900001003110000180000000000000000000000000000000000000000000000000000000000000000000000000010473000000000000000000000000000000000000000000000001029320000000000000          0000000000000000000000000000000000000000000000000010000037
100000000000000001202500017727X28472321      0000000000425996900000000000010000001   027000000 0000000000 1806090311          00000000000010000001000000000000000321834130940001003110000180000000000000000000000000000000000000000000000000000000000000000000000000003218000000000000000000000000000000000000000000000000303820000000000000          0000000000000000000000000000000000000000000000000010000038
100000000000000001202500017727X28472321      0000000000425997400000000000010000001   027000000 0000000000 1806090311          00000000000010000001000000000000000080834101770001003110000180000000000000000000000000000000000000000000000000000000000000000000000000000808000000000000000000000000000000000000000000000000062820000000000000          0000000000000000000000000000000000000000000000000010000039
100000000000000001202500017727X28472321      0000000000425997700000000000010000001   027000000 0000000000 1806090311          00000000000010000001000000000000000595823738320001003110000180000000000000000000000000000000000000000000000000000000000000000000000000005958000000000000000000000000000000000000000000000000577820000000000000          0000000000000000000000000000000000000000000000000010000040
100000000000000001202500017727X28472321      0000000000425998300000000000010000001   027000000 0000000000 1806090311          00000000000010000001000000000000001393442201240001003110000180000000000000000000000000000000000000000000000000000000000000000000000000013934000000000000000000000000000000000000000000000001375420000000000000          0000000000000000000000000000000000000000000000000010000041
100000000000000001202500017727X28472321      0000000000425998900000000000010000001   027000000 0000000000 1806090311          00000000000010000001000000000000001681234110000001003110000180000000000000000000000000000000000000000000000000000000000000000000000000016812000000000000000000000000000000000000000000000001663220000000000000          0000000000000000000000000000000000000000000000000010000042
100000000000000001202500017727X28472321      0000000000425999200000000000010000001   027000000 0000000000 1806090311          00000000000010000001000000000000000149334103680001003110000180000000000000000000000000000000000000000000000000000000000000000000000000001493000000000000000000000000000000000000000000000000131320000000000000          0000000000000000000000000000000000000000000000000010000043
100000000000000001202500017727X28472321      0000000000425999300000000000010000001   027000000 0000000000 1806090311          00000000000010000001000000000000000337234104400001003110000180000000000000000000000000000000000000000000000000000000000000000000000000003372000000000000000000000000000000000000000000000000319220000000000000          0000000000000000000000000000000000000000000000000010000044
100000000000000001202500017727X28472321      0000000000425999700000000000010000001   027000000 0000000000 1806090311          00000000000010000001000000000000000853534110000001003110000180000000000000000000000000000000000000000000000000000000000000000000000000008535000000000000000000000000000000000000000000000000835520000000000000          0000000000000000000000000000000000000000000000000010000045
100000000000000001202500017727X28472321      0000000000426000700000000000010000001   027000000 0000000000 1806090311          00000000000010000001000000000000000683323701050001003110000180000000000000000000000000000000000000000000000000000000000000000000000000006833000000000000000000000000000000000000000000000000665320000000000000          0000000000000000000000000000000000000000000000000010000046
100000000000000001202500017727X28472321      0000000000426001200000000000010000001   027000000 0000000000 1806090311          00000000000010000001000000000000001153223701050001003110000180000000000000000000000000000000000000000000000000000000000000000000000000011532000000000000000000000000000000000000000000000001135220000000000000          0000000000000000000000000000000000000000000000000010000047
100000000000000001202500017727X28472321      0000000000426002700000000000010000001   027000000 0000000000 1806090311          00000000000010000001000000000000000975323724030001003110000180000000000000000000000000000000000000000000000000000000000000000000000000009753000000000000000000000000000000000000000000000000957320000000000000          0000000000000000000000000000000000000000000000000010000048
100000000000000001202500017727X28472321      0000000000426003100000000000010000001   027000000 0000000000 1806090311          00000000000010000001000000000000000841634103680001003110000180000000000000000000000000000000000000000000000000000000000000000000000000008416000000000000000000000000000000000000000000000000823620000000000000          0000000000000000000000000000000000000000000000000010000049
100000000000000001202500017727X28472321      0000000000426003300000000000010000001   027000000 0000000000 1806090311          00000000000010000001000000000000000610734101800001003110000180000000000000000000000000000000000000000000000000000000000000000000000000006107000000000000000000000000000000000000000000000000592720000000000000          0000000000000000000000000000000000000000000000000010000050
100000000000000001202500017727X28472321      0000000000426003600000000000010000001   027000000 0000000000 1806090311          00000000000010000001000000000000000171403321780001003110000180000000000000000000000000000000000000000000000000000000000000000000000000001714000000000000000000000000000000000000000000000000153420000000000000          0000000000000000000000000000000000000000000000000010000051
100000000000000001202500017727X28472321      0000000000426005500000000000010000001   027000000 0000000000 1806090311          00000000000010000001000000000000001067934188390001003110000180000000000000000000000000000000000000000000000000000000000000000000000000010679000000000000000000000000000000000000000000000001049920000000000000          0000000000000000000000000000000000000000000000000010000052
100000000000000001202500017727X28472321      0000000000426005900000000000010000001   027000000 0000000000 1806090311          00000000000010000001000000000000000410034100270001003110000180000000000000000000000000000000000000000000000000000000000000000000000000004100000000000000000000000000000000000000000000000000392020000000000000          0000000000000000000000000000000000000000000000000010000053
100000000000000001202500017727X28472321      0000000000426006000000000000010000001   027000000 0000000000 1806090311          00000000000010000001000000000000000390434129250001003110000180000000000000000000000000000000000000000000000000000000000000000000000000003904000000000000000000000000000000000000000000000000372420000000000000          0000000000000000000000000000000000000000000000000010000054
100000000000000001202500017727X28472321      0000000000426006100000000000010000001   027000000 0000000000 1806090311          00000000000010000001000000000000000241534101800001003110000180000000000000000000000000000000000000000000000000000000000000000000000000002415000000000000000000000000000000000000000000000000223520000000000000          0000000000000000000000000000000000000000000000000010000055
100000000000000001202500017727X28472321      0000000000426006200000000000010000001   027000000 0000000000 1806090311          00000000000010000001000000000000000247034101800001003110000180000000000000000000000000000000000000000000000000000000000000000000000000002470000000000000000000000000000000000000000000000000229020000000000000          0000000000000000000000000000000000000000000000000010000056
100000000000000001202500017727X28472321      0000000000426008500000000000010000001   027000000 0000000000 1806090311          00000000000010000001000000000000000216634101500001003110000180000000000000000000000000000000000000000000000000000000000000000000000000002166000000000000000000000000000000000000000000000000198620000000000000          0000000000000000000000000000000000000000000000000010000057
100000000000000001202500017727X28472321      0000000000426008800000000000010000001   027000000 0000000000 1806090311          00000000000010000001000000000000000383634163310001003110000180000000000000000000000000000000000000000000000000000000000000000000000000003836000000000000000000000000000000000000000000000000365620000000000000          0000000000000000000000000000000000000000000000000010000058
100000000000000001202500017727X28472321      0000000000426009800000000000010000001   027000000 0000000000 1806090311          00000000000010000001000000000000000702434101850001003110000180000000000000000000000000000000000000000000000000000000000000000000000000007024000000000000000000000000000000000000000000000000684420000000000000          0000000000000000000000000000000000000000000000000010000059
100000000000000001202500017727X28472321      0000000000426010000000000000010000001   027000000 0000000000 1806090311          00000000000010000001000000000000000316134115720001003110000180000000000000000000000000000000000000000000000000000000000000000000000000003161000000000000000000000000000000000000000000000000298120000000000000          0000000000000000000000000000000000000000000000000010000060
100000000000000001202500017727X28472321      0000000000426010100000000000010000001   027000000 0000000000 1806090311          00000000000010000001000000000000000087034106190001003110000180000000000000000000000000000000000000000000000000000000000000000000000000000870000000000000000000000000000000000000000000000000069020000000000000          0000000000000000000000000000000000000000000000000010000061
100000000000000001202500017727X28472321      0000000000426010500000000000010000001   027000000 0000000000 1806090311          00000000000010000001000000000000000382723737790001003110000180000000000000000000000000000000000000000000000000000000000000000000000000003827000000000000000000000000000000000000000000000000364720000000000000          0000000000000000000000000000000000000000000000000010000062
100000000000000001202500017727X28472321      0000000000426011000000000000010000001   027000000 0000000000 1806090311          00000000000010000001000000000000000160234188390001003110000180000000000000000000000000000000000000000000000000000000000000000000000000001602000000000000000000000000000000000000000000000000142220000000000000          0000000000000000000000000000000000000000000000000010000063
100000000000000001202500017727X28472321      0000000000426012800000000000010000001   027000000 0000000000 1806090311          00000000000010000001000000000000000101623737900001003110000180000000000000000000000000000000000000000000000000000000000000000000000000001016000000000000000000000000000000000000000000000000083620000000000000          0000000000000000000000000000000000000000000000000010000064
100000000000000001202500017727X28472321      0000000000426013500000000000010000001   027000000 0000000000 1806090311          00000000000010000001000000000000000333634104450001003110000180000000000000000000000000000000000000000000000000000000000000000000000000003336000000000000000000000000000000000000000000000000315620000000000000          0000000000000000000000000000000000000000000000000010000065
100000000000000001202500017727X28472321      0000000000426014700000000000010000001   027000000 0000000000 1806090311          00000000000010000001000000000000000091534105530001003110000180000000000000000000000000000000000000000000000000000000000000000000000000000915000000000000000000000000000000000000000000000000073520000000000000          0000000000000000000000000000000000000000000000000010000066
100000000000000001202500017727X28472321      0000000000426015500000000000010000001   027000000 0000000000 1806090311          00000000000010000001000000000000000175434103500001003110000180000000000000000000000000000000000000000000000000000000000000000000000000001754000000000000000000000000000000000000000000000000157420000000000000          0000000000000000000000000000000000000000000000000010000067
100000000000000001202500017727X28472321      0000000000426015600000000000010000001   027000000 0000000000 1806090311          00000000000010000001000000000000000999923701050001003110000180000000000000000000000000000000000000000000000000000000000000000000000000009999000000000000000000000000000000000000000000000000981920000000000000          0000000000000000000000000000000000000000000000000010000068
100000000000000001202500017727X28472321      0000000000426015800000000000010000001   027000000 0000000000 1806090311          00000000000010000001000000000000000469923706140001003110000180000000000000000000000000000000000000000000000000000000000000000000000000004699000000000000000000000000000000000000000000000000451920000000000000          0000000000000000000000000000000000000000000000000010000069
100000000000000001202500017727X28472321      0000000000426016100000000000010000001   027000000 0000000000 1806090311          00000000000010000001000000000000000321042201240001003110000180000000000000000000000000000000000000000000000000000000000000000000000000003210000000000000000000000000000000000000000000000000303020000000000000          0000000000000000000000000000000000000000000000000010000070
100000000000000001202500017727X28472321      0000000000426016200000000000010000001   027000000 0000000000 1806090311          00000000000010000001000000000000000298023713610001003110000180000000000000000000000000000000000000000000000000000000000000000000000000002980000000000000000000000000000000000000000000000000280020000000000000          0000000000000000000000000000000000000000000000000010000071
100000000000000001202500017727X28472321      0000000000426016600000000000010000001   027000000 0000000000 1806090311          00000000000010000001000000000000000658042201240001003110000180000000000000000000000000000000000000000000000000000000000000000000000000006580000000000000000000000000000000000000000000000000640020000000000000          0000000000000000000000000000000000000000000000000010000072
100000000000000001202500017727X28472321      0000000000426016800000000000010000001   027000000 0000000000 1806090311          00000000000010000001000000000000000353042201240001003110000180000000000000000000000000000000000000000000000000000000000000000000000000003530000000000000000000000000000000000000000000000000335020000000000000          0000000000000000000000000000000000000000000000000010000073
100000000000000001202500017727X28472321      0000000000426017900000000000010000001   027000000 0000000000 1806090311          00000000000010000001000000000000000205834103330001003110000180000000000000000000000000000000000000000000000000000000000000000000000000002058000000000000000000000000000000000000000000000000187820000000000000          0000000000000000000000000000000000000000000000000010000074
100000000000000001202500017727X28472321      0000000000426019800000000000010000001   027000000 0000000000 1806090311          00000000000010000001000000000000000489034106480001003110000180000000000000000000000000000000000000000000000000000000000000000000000000004890000000000000000000000000000000000000000000000000471020000000000000          0000000000000000000000000000000000000000000000000010000075
100000000000000001202500017727X28472321      0000000000426019900000000000010000001   027000000 0000000000 1806090311          00000000000010000001000000000000000762823735040001003110000180000000000000000000000000000000000000000000000000000000000000000000000000007628000000000000000000000000000000000000000000000000744820000000000000          0000000000000000000000000000000000000000000000000010000076
100000000000000001202500017727X28472321      0000000000426020300000000000010000001   027000000 0000000000 1806090311          00000000000010000001000000000000002357434188390001003110000180000000000000000000000000000000000000000000000000000000000000000000000000023574000000000000000000000000000000000000000000000002339420000000000000          0000000000000000000000000000000000000000000000000010000077
100000000000000001202500017727X28472321      0000000000426021300000000000010000001   027000000 0000000000 1806090311          00000000000010000001000000000000000902142201240001003110000180000000000000000000000000000000000000000000000000000000000000000000000000009021000000000000000000000000000000000000000000000000884120000000000000          0000000000000000000000000000000000000000000000000010000078
100000000000000001202500017727X28472321      0000000000426021600000000000010000001   027000000 0000000000 1806090311          00000000000010000001000000000000000160334105530001003110000180000000000000000000000000000000000000000000000000000000000000000000000000001603000000000000000000000000000000000000000000000000142320000000000000          0000000000000000000000000000000000000000000000000010000079
100000000000000001202500017727X28472321      0000000000426021700000000000010000001   027000000 0000000000 1806090311          00000000000010000001000000000000001249323701050001003110000180000000000000000000000000000000000000000000000000000000000000000000000000012493000000000000000000000000000000000000000000000001231320000000000000          0000000000000000000000000000000000000000000000000010000080
100000000000000001202500017727X28472321      0000000000426022700000000000010000001   027000000 0000000000 1806090311          00000000000010000001000000000000000254623737900001003110000180000000000000000000000000000000000000000000000000000000000000000000000000002546000000000000000000000000000000000000000000000000236620000000000000          0000000000000000000000000000000000000000000000000010000081
100000000000000001202500017727X28472321      0000000000426023300000000000010000001   027000000 0000000000 1806090311          00000000000010000001000000000000000542534105930001003110000180000000000000000000000000000000000000000000000000000000000000000000000000005425000000000000000000000000000000000000000000000000524520000000000000          0000000000000000000000000000000000000000000000000010000082
100000000000000001202500017727X28472321      0000000000426023400000000000010000001   027000000 0000000000 1806090311          00000000000010000001000000000000000949142201240001003110000180000000000000000000000000000000000000000000000000000000000000000000000000009491000000000000000000000000000000000000000000000000931120000000000000          0000000000000000000000000000000000000000000000000010000083
100000000000000001202500017727X28472321      0000000000426023600000000000010000001   027000000 0000000000 1806090311          00000000000010000001000000000000000239234101860001003110000180000000000000000000000000000000000000000000000000000000000000000000000000002392000000000000000000000000000000000000000000000000221220000000000000          0000000000000000000000000000000000000000000000000010000084
100000000000000001202500017727X28472321      0000000000426023700000000000010000001   027000000 0000000000 1806090311          00000000000010000001000000000000000262642201240001003110000180000000000000000000000000000000000000000000000000000000000000000000000000002626000000000000000000000000000000000000000000000000244620000000000000          0000000000000000000000000000000000000000000000000010000085
100000000000000001202500017727X28472321      0000000000426023800000000000010000001   027000000 0000000000 1806090311          00000000000010000001000000000000000075023706140001003110000180000000000000000000000000000000000000000000000000000000000000000000000000000750000000000000000000000000000000000000000000000000057020000000000000          0000000000000000000000000000000000000000000000000010000086
100000000000000001202500017727X28472321      0000000000426024300000000000010000001   027000000 0000000000 1806090311          00000000000010000001000000000000000450023738230001003110000180000000000000000000000000000000000000000000000000000000000000000000000000004500000000000000000000000000000000000000000000000000432020000000000000          0000000000000000000000000000000000000000000000000010000087
100000000000000001202500017727X28472321      0000000000426025700000000000010000001   027000000 0000000000 1806090311          00000000000010000001000000000000000701434100720001003110000180000000000000000000000000000000000000000000000000000000000000000000000000007014000000000000000000000000000000000000000000000000683420000000000000          0000000000000000000000000000000000000000000000000010000088
100000000000000001202500017727X28472321      0000000000426028000000000000010000001   027000000 0000000000 1806090311          00000000000010000001000000000000000272134105530001003110000180000000000000000000000000000000000000000000000000000000000000000000000000002721000000000000000000000000000000000000000000000000254120000000000000          0000000000000000000000000000000000000000000000000010000089
100000000000000001202500017727X28472321      0000000000426028100000000000010000001   027000000 0000000000 1806090311          00000000000010000001000000000000000895523719450001003110000180000000000000000000000000000000000000000000000000000000000000000000000000008955000000000000000000000000000000000000000000000000877520000000000000          0000000000000000000000000000000000000000000000000010000090
100000000000000001202500017727X28472321      0000000000426029300000000000010000001   027000000 0000000000 1806090311          00000000000010000001000000000000000236534101520001003110000180000000000000000000000000000000000000000000000000000000000000000000000000002365000000000000000000000000000000000000000000000000218520000000000000          0000000000000000000000000000000000000000000000000010000091
100000000000000001202500017727X28472321      0000000000426029500000000000010000001   027000000 0000000000 1806090311          00000000000010000001000000000000000190534101800001003110000180000000000000000000000000000000000000000000000000000000000000000000000000001905000000000000000000000000000000000000000000000000172520000000000000          0000000000000000000000000000000000000000000000000010000092
100000000000000001202500017727X28472321      0000000000426030400000000000010000001   027000000 0000000000 1806090311          00000000000010000001000000000000000100623701650001003110000180000000000000000000000000000000000000000000000000000000000000000000000000001006000000000000000000000000000000000000000000000000082620000000000000          0000000000000000000000000000000000000000000000000010000093
100000000000000001202500017727X28472321      0000000000426031300000000000010000001   027000000 0000000000 1806090311          00000000000010000001000000000000000643603337060001003110000180000000000000000000000000000000000000000000000000000000000000000000000000006436000000000000000000000000000000000000000000000000625620000000000000          0000000000000000000000000000000000000000000000000010000094
100000000000000001202500017727X28472321      0000000000426031400000000000010000001   027000000 0000000000 1806090311          00000000000010000001000000000000000091634103550001003110000180000000000000000000000000000000000000000000000000000000000000000000000000000916000000000000000000000000000000000000000000000000073620000000000000          0000000000000000000000000000000000000000000000000010000095
100000000000000001202500017727X28472321      0000000000426031700000000000010000001   027000000 0000000000 1806090311          00000000000010000001000000000000000378423706140001003110000180000000000000000000000000000000000000000000000000000000000000000000000000003784000000000000000000000000000000000000000000000000360420000000000000          0000000000000000000000000000000000000000000000000010000096
100000000000000001202500017727X28472321      0000000000426032400000000000010000001   027000000 0000000000 1806090311          00000000000010000001000000000000000260734100470001003110000180000000000000000000000000000000000000000000000000000000000000000000000000002607000000000000000000000000000000000000000000000000242720000000000000          0000000000000000000000000000000000000000000000000010000097
100000000000000001202500017727X28472321      0000000000426034000000000000010000001   027000000 0000000000 1806090311          00000000000010000001000000000000000512800115415001003110000180000000000000000000000000000000000000000000000000000000000000000000000000005128000000000000000000000000000000000000000000000000494820000000000000          0000000000000000000000000000000000000000000000000004000098
100000000000000001202500017727X28472321      0000000000426034400000000000010000001   027000000 0000000000 1806090311          00000000000010000001000000000000000103134104520001003110000180000000000000000000000000000000000000000000000000000000000000000000000000001031000000000000000000000000000000000000000000000000085120000000000000          0000000000000000000000000000000000000000000000000010000099
100000000000000001202500017727X28472321      0000000000426034800000000000010000001   027000000 0000000000 1806090311          00000000000010000001000000000000000162834183540001003110000180000000000000000000000000000000000000000000000000000000000000000000000000001628000000000000000000000000000000000000000000000000144820000000000000          0000000000000000000000000000000000000000000000000010000100
100000000000000001202500017727X28472321      0000000000426035900000000000010000001   027000000 0000000000 1806090311          00000000000010000001000000000000001488523701050001003110000180000000000000000000000000000000000000000000000000000000000000000000000000014885000000000000000000000000000000000000000000000001470520000000000000          0000000000000000000000000000000000000000000000000010000101
100000000000000001202500017727X28472321      0000000000426036000000000000010000001   027000000 0000000000 1806090311          00000000000010000001000000000000000936323701050001003110000180000000000000000000000000000000000000000000000000000000000000000000000000009363000000000000000000000000000000000000000000000000918320000000000000          0000000000000000000000000000000000000000000000000010000102
100000000000000001202500017727X28472321      0000000000426036400000000000010000001   027000000 0000000000 1806090311          00000000000010000001000000000000001011134107720001003110000180000000000000000000000000000000000000000000000000000000000000000000000000010111000000000000000000000000000000000000000000000000993120000000000000          0000000000000000000000000000000000000000000000000010000103
100000000000000001202500017727X28472321      0000000000426036500000000000010000001   027000000 0000000000 1806090311          00000000000010000001000000000000000374934103680001003110000180000000000000000000000000000000000000000000000000000000000000000000000000003749000000000000000000000000000000000000000000000000356920000000000000          0000000000000000000000000000000000000000000000000010000104
100000000000000001202500017727X28472321      0000000000426036700000000000010000001   027000000 0000000000 1806090311          00000000000010000001000000000000000240534188390001003110000180000000000000000000000000000000000000000000000000000000000000000000000000002405000000000000000000000000000000000000000000000000222520000000000000          0000000000000000000000000000000000000000000000000010000105
100000000000000001202500017727X28472321      0000000000426037500000000000010000001   027000000 0000000000 1806090311          00000000000010000001000000000000000079403331030001003110000180000000000000000000000000000000000000000000000000000000000000000000000000000794000000000000000000000000000000000000000000000000061420000000000000          0000000000000000000000000000000000000000000000000010000106
100000000000000001202500017727X28472321      0000000000426037600000000000010000001   027000000 0000000000 1806090311          00000000000010000001000000000000001588223701260001003110000180000000000000000000000000000000000000000000000000000000000000000000000000015882000000000000000000000000000000000000000000000001570220000000000000          0000000000000000000000000000000000000000000000000010000107
100000000000000001202500017727X28472321      0000000000426038300000000000010000001   027000000 0000000000 1806090311          00000000000010000001000000000000000503423724030001003110000180000000000000000000000000000000000000000000000000000000000000000000000000005034000000000000000000000000000000000000000000000000485420000000000000          0000000000000000000000000000000000000000000000000010000108
100000000000000001202500017727X28472321      0000000000426038400000000000010000001   027000000 0000000000 1806090311          00000000000010000001000000000000000318834101700001003110000180000000000000000000000000000000000000000000000000000000000000000000000000003188000000000000000000000000000000000000000000000000300820000000000000          0000000000000000000000000000000000000000000000000010000109
100000000000000001202500017727X28472321      0000000000426038500000000000010000001   027000000 0000000000 1806090311          00000000000010000001000000000000000084334101700001003110000180000000000000000000000000000000000000000000000000000000000000000000000000000843000000000000000000000000000000000000000000000000066320000000000000          0000000000000000000000000000000000000000000000000010000110
100000000000000001202500017727X28472321      0000000000426039000000000000010000001   027000000 0000000000 1806090311          00000000000010000001000000000000001097234103680001003110000180000000000000000000000000000000000000000000000000000000000000000000000000010972000000000000000000000000000000000000000000000001079220000000000000          0000000000000000000000000000000000000000000000000010000111
100000000000000001202500017727X28472321      0000000000426039600000000000010000001   027000000 0000000000 1806090311          00000000000010000001000000000000000146723701020001003110000180000000000000000000000000000000000000000000000000000000000000000000000000001467000000000000000000000000000000000000000000000000128720000000000000          0000000000000000000000000000000000000000000000000010000112
100000000000000001202500017727X28472321      0000000000426041100000000000010000001   027000000 0000000000 1806090311          00000000000010000001000000000000000685042201240001003110000180000000000000000000000000000000000000000000000000000000000000000000000000006850000000000000000000000000000000000000000000000000667020000000000000          0000000000000000000000000000000000000000000000000010000113
100000000000000001202500017727X28472321      0000000000426041500000000000010000001   027000000 0000000000 1806090311          00000000000010000001000000000000000682403331030001003110000180000000000000000000000000000000000000000000000000000000000000000000000000006824000000000000000000000000000000000000000000000000664420000000000000          0000000000000000000000000000000000000000000000000010000114
100000000000000001202500017727X28472321      0000000000426042400000000000010000001   027000000 0000000000 1806090311          00000000000010000001000000000000000210023737900001003110000180000000000000000000000000000000000000000000000000000000000000000000000000002100000000000000000000000000000000000000000000000000192020000000000000          0000000000000000000000000000000000000000000000000010000115
100000000000000001202500017727X28472321      0000000000426042600000000000010000001   027000000 0000000000 1806090311          00000000000010000001000000000000001389003335620001003110000180000000000000000000000000000000000000000000000000000000000000000000000000013890000000000000000000000000000000000000000000000001371020000000000000          0000000000000000000000000000000000000000000000000010000116
100000000000000001202500017727X28472321      0000000000426043200000000000010000001   027000000 0000000000 1806090311          00000000000010000001000000000000000211934105530001003110000180000000000000000000000000000000000000000000000000000000000000000000000000002119000000000000000000000000000000000000000000000000193920000000000000          0000000000000000000000000000000000000000000000000010000117
100000000000000001202500017727X28472321      0000000000426043300000000000010000001   027000000 0000000000 1806090311          00000000000010000001000000000000000369603331030001003110000180000000000000000000000000000000000000000000000000000000000000000000000000003696000000000000000000000000000000000000000000000000351620000000000000          0000000000000000000000000000000000000000000000000010000118
100000000000000001202500017727X28472321      0000000000426043500000000000010000001   027000000 0000000000 1806090311          00000000000010000001000000000000000688923701050001003110000180000000000000000000000000000000000000000000000000000000000000000000000000006889000000000000000000000000000000000000000000000000670920000000000000          0000000000000000000000000000000000000000000000000010000119
100000000000000001202500017727X28472321      0000000000426043900000000000010000001   027000000 0000000000 1806090311          00000000000010000001000000000000000877834105930001003110000180000000000000000000000000000000000000000000000000000000000000000000000000008778000000000000000000000000000000000000000000000000859820000000000000          0000000000000000000000000000000000000000000000000010000120
100000000000000001202500017727X28472321      0000000000426044000000000000010000001   027000000 0000000000 1806090311          00000000000010000001000000000000000844023705500001003110000180000000000000000000000000000000000000000000000000000000000000000000000000008440000000000000000000000000000000000000000000000000826020000000000000          0000000000000000000000000000000000000000000000000010000121
100000000000000001202500017727X28472321      0000000000426046700000000000010000001   027000000 0000000000 1806090311          00000000000010000001000000000000000780034156070001003110000180000000000000000000000000000000000000000000000000000000000000000000000000007800000000000000000000000000000000000000000000000000762020000000000000          0000000000000000000000000000000000000000000000000010000122
100000000000000001202500017727X28472321      0000000000426047100000000000010000001   027000000 0000000000 1806090311          00000000000010000001000000000000000270723724030001003110000180000000000000000000000000000000000000000000000000000000000000000000000000002707000000000000000000000000000000000000000000000000252720000000000000          0000000000000000000000000000000000000000000000000010000123
100000000000000001202500017727X28472321      0000000000426048900000000000010000001   027000000 0000000000 1806090311          00000000000010000001000000000000000641323719450001003110000180000000000000000000000000000000000000000000000000000000000000000000000000006413000000000000000000000000000000000000000000000000623320000000000000          0000000000000000000000000000000000000000000000000010000124
100000000000000001202500017727X28472321      0000000000426049100000000000010000001   027000000 0000000000 1806090311          00000000000010000001000000000000000107203346350001003110000180000000000000000000000000000000000000000000000000000000000000000000000000001072000000000000000000000000000000000000000000000000089220000000000000          0000000000000000000000000000000000000000000000000010000125
100000000000000001202500017727X28472321      0000000000426049400000000000010000001   027000000 0000000000 1806090311          00000000000010000001000000000000000505823727200001003110000180000000000000000000000000000000000000000000000000000000000000000000000000005058000000000000000000000000000000000000000000000000487820000000000000          0000000000000000000000000000000000000000000000000010000126
100000000000000001202500017727X28472321      0000000000426050300000000000010000001   027000000 0000000000 1806090311          00000000000010000001000000000000000232203347700001003110000180000000000000000000000000000000000000000000000000000000000000000000000000002322000000000000000000000000000000000000000000000000214220000000000000          0000000000000000000000000000000000000000000000000010000127
100000000000000001202500017727X28472321      0000000000426051700000000000010000001   027000000 0000000000 1806090311          00000000000010000001000000000000001042434107450001003110000180000000000000000000000000000000000000000000000000000000000000000000000000010424000000000000000000000000000000000000000000000001024420000000000000          0000000000000000000000000000000000000000000000000010000128
100000000000000001202500017727X28472321      0000000000426052100000000000010000001   027000000 0000000000 1806090311          00000000000010000001000000000000000207503331030001003110000180000000000000000000000000000000000000000000000000000000000000000000000000002075000000000000000000000000000000000000000000000000189520000000000000          0000000000000000000000000000000000000000000000000010000129
100000000000000001202500017727X28472321      0000000000426052400000000000010000001   027000000 0000000000 1806090311          00000000000010000001000000000000001007523701050001003110000180000000000000000000000000000000000000000000000000000000000000000000000000010075000000000000000000000000000000000000000000000000989520000000000000          0000000000000000000000000000000000000000000000000010000130
100000000000000001202500017727X28472321      0000000000426052500000000000010000001   027000000 0000000000 1806090311          00000000000010000001000000000000000688039915920001003110000180000000000000000000000000000000000000000000000000000000000000000000000000006880000000000000000000000000000000000000000000000000670020000000000000          0000000000000000000000000000000000000000000000000010000131
100000000000000001202500017727X28472321      0000000000426053400000000000010000001   027000000 0000000000 1806090311          00000000000010000001000000000000001456039915920001003110000180000000000000000000000000000000000000000000000000000000000000000000000000014560000000000000000000000000000000000000000000000001438020000000000000          0000000000000000000000000000000000000000000000000010000132
100000000000000001202500017727X28472321      0000000000426053500000000000010000001   027000000 0000000000 1806090311          00000000000010000001000000000000000354234101800001003110000180000000000000000000000000000000000000000000000000000000000000000000000000003542000000000000000000000000000000000000000000000000336220000000000000          0000000000000000000000000000000000000000000000000010000133
100000000000000001202500017727X28472321      0000000000426053600000000000010000001   027000000 0000000000 1806090311          00000000000010000001000000000000000713623705500001003110000180000000000000000000000000000000000000000000000000000000000000000000000000007136000000000000000000000000000000000000000000000000695620000000000000          0000000000000000000000000000000000000000000000000010000134
100000000000000001202500017727X28472321      0000000000426054100000000000010000001   027000000 0000000000 1806090311          00000000000010000001000000000000000572234164800001003110000180000000000000000000000000000000000000000000000000000000000000000000000000005722000000000000000000000000000000000000000000000000554220000000000000          0000000000000000000000000000000000000000000000000010000135
100000000000000001202500017727X28472321      0000000000426055500000000000010000001   027000000 0000000000 1806090311          00000000000010000001000000000000000128403346350001003110000180000000000000000000000000000000000000000000000000000000000000000000000000001284000000000000000000000000000000000000000000000000110420000000000000          0000000000000000000000000000000000000000000000000010000136
100000000000000001202500017727X28472321      0000000000426056000000000000010000001   027000000 0000000000 1806090311          00000000000010000001000000000000000126723737900001003110000180000000000000000000000000000000000000000000000000000000000000000000000000001267000000000000000000000000000000000000000000000000108720000000000000          0000000000000000000000000000000000000000000000000010000137
100000000000000001202500017727X28472321      0000000000426056100000000000010000001   027000000 0000000000 1806090311          00000000000010000001000000000000001176734101730001003110000180000000000000000000000000000000000000000000000000000000000000000000000000011767000000000000000000000000000000000000000000000001158720000000000000          0000000000000000000000000000000000000000000000000010000138
100000000000000001202500017727X28472321      0000000000426057600000000000010000001   027000000 0000000000 1806090311          00000000000010000001000000000000000118142201240001003110000180000000000000000000000000000000000000000000000000000000000000000000000000001181000000000000000000000000000000000000000000000000100120000000000000          0000000000000000000000000000000000000000000000000010000139
100000000000000001202500017727X28472321      0000000000426057700000000000010000001   027000000 0000000000 1806090311          00000000000010000001000000000000000393023706140001003110000180000000000000000000000000000000000000000000000000000000000000000000000000003930000000000000000000000000000000000000000000000000375020000000000000          0000000000000000000000000000000000000000000000000010000140
100000000000000001202500017727X28472321      0000000000426058100000000000010000001   027000000 0000000000 1806090311          00000000000010000001000000000000000511823737900001003110000180000000000000000000000000000000000000000000000000000000000000000000000000005118000000000000000000000000000000000000000000000000493820000000000000          0000000000000000000000000000000000000000000000000010000141
100000000000000001202500017727X28472321      0000000000426058900000000000010000001   027000000 0000000000 1806090311          00000000000010000001000000000000000374034105530001003110000180000000000000000000000000000000000000000000000000000000000000000000000000003740000000000000000000000000000000000000000000000000356020000000000000          0000000000000000000000000000000000000000000000000010000142
100000000000000001202500017727X28472321      0000000000426059300000000000010000001   027000000 0000000000 1806090311          00000000000010000001000000000000000185823706140001003110000180000000000000000000000000000000000000000000000000000000000000000000000000001858000000000000000000000000000000000000000000000000167820000000000000          0000000000000000000000000000000000000000000000000010000143
100000000000000001202500017727X28472321      0000000000426060700000000000010000001   027000000 0000000000 1806090311          00000000000010000001000000000000000700942201240001003110000180000000000000000000000000000000000000000000000000000000000000000000000000007009000000000000000000000000000000000000000000000000682920000000000000          0000000000000000000000000000000000000000000000000010000144
100000000000000001202500017727X28472321      0000000000426061000000000000010000001   027000000 0000000000 1806090311          00000000000010000001000000000000000819834104290001003110000180000000000000000000000000000000000000000000000000000000000000000000000000008198000000000000000000000000000000000000000000000000801820000000000000          0000000000000000000000000000000000000000000000000010000145
100000000000000001202500017727X28472321      0000000000426061100000000000010000001   027000000 0000000000 1806090311          00000000000010000001000000000000000309634143000001003110000180000000000000000000000000000000000000000000000000000000000000000000000000003096000000000000000000000000000000000000000000000000291620000000000000          0000000000000000000000000000000000000000000000000010000146
100000000000000001202500017727X28472321      0000000000426061600000000000010000001   027000000 0000000000 1806090311          00000000000010000001000000000000000432003339840001003110000180000000000000000000000000000000000000000000000000000000000000000000000000004320000000000000000000000000000000000000000000000000414020000000000000          0000000000000000000000000000000000000000000000000010000147
100000000000000001202500017727X28472321      0000000000426062100000000000010000001   027000000 0000000000 1806090311          00000000000010000001000000000000000859223706140001003110000180000000000000000000000000000000000000000000000000000000000000000000000000008592000000000000000000000000000000000000000000000000841220000000000000          0000000000000000000000000000000000000000000000000010000148
100000000000000001202500017727X28472321      0000000000426062900000000000010000001   027000000 0000000000 1806090311          00000000000010000001000000000000000847634101520001003110000180000000000000000000000000000000000000000000000000000000000000000000000000008476000000000000000000000000000000000000000000000000829620000000000000          0000000000000000000000000000000000000000000000000010000149
100000000000000001202500017727X28472321      0000000000426063000000000000010000001   027000000 0000000000 1806090311          00000000000010000001000000000000001312834107580001003110000180000000000000000000000000000000000000000000000000000000000000000000000000013128000000000000000000000000000000000000000000000001294820000000000000          0000000000000000000000000000000000000000000000000010000150
100000000000000001202500017727X28472321      0000000000426063200000000000010000001   027000000 0000000000 1806090311          00000000000010000001000000000000001568434101850001003110000180000000000000000000000000000000000000000000000000000000000000000000000000015684000000000000000000000000000000000000000000000001550420000000000000          0000000000000000000000000000000000000000000000000010000151
100000000000000001202500017727X28472321      0000000000426063500000000000010000001   027000000 0000000000 1806090311          00000000000010000001000000000000000922323712390001003110000180000000000000000000000000000000000000000000000000000000000000000000000000009223000000000000000000000000000000000000000000000000904320000000000000          0000000000000000000000000000000000000000000000000010000152
100000000000000001202500017727X28472321      0000000000426065400000000000010000001   027000000 0000000000 1806090311          00000000000010000001000000000000000905034107720001003110000180000000000000000000000000000000000000000000000000000000000000000000000000009050000000000000000000000000000000000000000000000000887020000000000000          0000000000000000000000000000000000000000000000000010000153
100000000000000001202500017727X28472321      0000000000426065600000000000010000001   027000000 0000000000 1806090311          00000000000010000001000000000000001091003337060001003110000180000000000000000000000000000000000000000000000000000000000000000000000000010910000000000000000000000000000000000000000000000001073020000000000000          0000000000000000000000000000000000000000000000000010000154
100000000000000001202500017727X28472321      0000000000426066200000000000010000001   027000000 0000000000 1806090311          00000000000010000001000000000000000493142201240001003110000180000000000000000000000000000000000000000000000000000000000000000000000000004931000000000000000000000000000000000000000000000000475120000000000000          0000000000000000000000000000000000000000000000000010000155
100000000000000001202500017727X28472321      0000000000426066400000000000010000001   027000000 0000000000 1806090311          00000000000010000001000000000000000485034103680001003110000180000000000000000000000000000000000000000000000000000000000000000000000000004850000000000000000000000000000000000000000000000000467020000000000000          0000000000000000000000000000000000000000000000000010000156
100000000000000001202500017727X28472321      0000000000426067100000000000010000001   027000000 0000000000 1806090311          00000000000010000001000000000000000086039915920001003110000180000000000000000000000000000000000000000000000000000000000000000000000000000860000000000000000000000000000000000000000000000000068020000000000000          0000000000000000000000000000000000000000000000000010000157
100000000000000001202500017727X28472321      0000000000426067500000000000010000001   027000000 0000000000 1806090311          00000000000010000001000000000000000124723735040001003110000180000000000000000000000000000000000000000000000000000000000000000000000000001247000000000000000000000000000000000000000000000000106720000000000000          0000000000000000000000000000000000000000000000000010000158
100000000000000001202500017727X28472321      0000000000426067900000000000010000001   027000000 0000000000 1806090311          00000000000010000001000000000000000101234129600001003110000180000000000000000000000000000000000000000000000000000000000000000000000000001012000000000000000000000000000000000000000000000000083220000000000000          0000000000000000000000000000000000000000000000000010000159
100000000000000001202500017727X28472321      0000000000426068900000000000010000001   027000000 0000000000 1806090311          00000000000010000001000000000000000880034100480001003110000180000000000000000000000000000000000000000000000000000000000000000000000000008800000000000000000000000000000000000000000000000000862020000000000000          0000000000000000000000000000000000000000000000000010000160
100000000000000001202500017727X28472321      0000000000426069600000000000010000001   027000000 0000000000 1806090311          00000000000010000001000000000000000681403331960001003110000180000000000000000000000000000000000000000000000000000000000000000000000000006814000000000000000000000000000000000000000000000000663420000000000000          0000000000000000000000000000000000000000000000000010000161
100000000000000001202500017727X28472321      0000000000426070600000000000010000001   027000000 0000000000 1806090311          00000000000010000001000000000000000496834129450001003110000180000000000000000000000000000000000000000000000000000000000000000000000000004968000000000000000000000000000000000000000000000000478820000000000000          0000000000000000000000000000000000000000000000000010000162
100000000000000001202500017727X28472321      0000000000426071200000000000010000001   027000000 0000000000 1806090311          00000000000010000001000000000000000759442201240001003110000180000000000000000000000000000000000000000000000000000000000000000000000000007594000000000000000000000000000000000000000000000000741420000000000000          0000000000000000000000000000000000000000000000000010000163
100000000000000001202500017727X28472321      0000000000426072300000000000010000001   027000000 0000000000 1806090311          00000000000010000001000000000000000080834107750001003110000180000000000000000000000000000000000000000000000000000000000000000000000000000808000000000000000000000000000000000000000000000000062820000000000000          0000000000000000000000000000000000000000000000000010000164
100000000000000001202500017727X28472321      0000000000426072500000000000010000001   027000000 0000000000 1806090311          00000000000010000001000000000000000080834107750001003110000180000000000000000000000000000000000000000000000000000000000000000000000000000808000000000000000000000000000000000000000000000000062820000000000000          0000000000000000000000000000000000000000000000000010000165
100000000000000001202500017727X28472321      0000000000426074300000000000010000001   027000000 0000000000 1806090311          00000000000010000001000000000000000653734103680001003110000180000000000000000000000000000000000000000000000000000000000000000000000000006537000000000000000000000000000000000000000000000000635720000000000000          0000000000000000000000000000000000000000000000000010000166
100000000000000001202500017727X28472321      0000000000426074600000000000010000001   027000000 0000000000 1806090311          00000000000010000001000000000000000616934105530001003110000180000000000000000000000000000000000000000000000000000000000000000000000000006169000000000000000000000000000000000000000000000000598920000000000000          0000000000000000000000000000000000000000000000000010000167
100000000000000001202500017727X28472321      0000000000426076800000000000010000001   027000000 0000000000 1806090311          00000000000010000001000000000000000704023731910001003110000180000000000000000000000000000000000000000000000000000000000000000000000000007040000000000000000000000000000000000000000000000000686020000000000000          0000000000000000000000000000000000000000000000000010000168
100000000000000001202500017727X28472321      0000000000426076900000000000010000001   027000000 0000000000 1806090311          00000000000010000001000000000000000100434106460001003110000180000000000000000000000000000000000000000000000000000000000000000000000000001004000000000000000000000000000000000000000000000000082420000000000000          0000000000000000000000000000000000000000000000000010000169
100000000000000001202500017727X28472321      0000000000426077100000000000010000001   027000000 0000000000 1806090311          00000000000010000001000000000000000161234100480001003110000180000000000000000000000000000000000000000000000000000000000000000000000000001612000000000000000000000000000000000000000000000000143220000000000000          0000000000000000000000000000000000000000000000000010000170
100000000000000001202500017727X28472321      0000000000426077200000000000010000001   027000000 0000000000 1806090311          00000000000010000001000000000000000885434107540001003110000180000000000000000000000000000000000000000000000000000000000000000000000000008854000000000000000000000000000000000000000000000000867420000000000000          0000000000000000000000000000000000000000000000000010000171
100000000000000001202500017727X28472321      0000000000426077500000000000010000001   027000000 0000000000 1806090311          00000000000010000001000000000000000102423738230001003110000180000000000000000000000000000000000000000000000000000000000000000000000000001024000000000000000000000000000000000000000000000000084420000000000000          0000000000000000000000000000000000000000000000000010000172
100000000000000001202500017727X28472321      0000000000426077900000000000010000001   027000000 0000000000 1806090311          00000000000010000001000000000000000962723701050001003110000180000000000000000000000000000000000000000000000000000000000000000000000000009627000000000000000000000000000000000000000000000000944720000000000000          0000000000000000000000000000000000000000000000000010000173
100000000000000001202500017727X28472321      0000000000426079400000000000010000001   027000000 0000000000 1806090311          00000000000010000001000000000000000180134184510001003110000180000000000000000000000000000000000000000000000000000000000000000000000000001801000000000000000000000000000000000000000000000000162120000000000000          0000000000000000000000000000000000000000000000000010000174
100000000000000001202500017727X28472321      0000000000426079500000000000010000001   027000000 0000000000 1806090311          00000000000010000001000000000000000849434101800001003110000180000000000000000000000000000000000000000000000000000000000000000000000000008494000000000000000000000000000000000000000000000000831420000000000000          0000000000000000000000000000000000000000000000000010000175
100000000000000001202500017727X28472321      0000000000426080200000000000010000001   027000000 0000000000 1806090311          00000000000010000001000000000000000315934106460001003110000180000000000000000000000000000000000000000000000000000000000000000000000000003159000000000000000000000000000000000000000000000000297920000000000000          0000000000000000000000000000000000000000000000000010000176
100000000000000001202500017727X28472321      0000000000426080600000000000010000001   027000000 0000000000 1806090311          00000000000010000001000000000000000102634100660001003110000180000000000000000000000000000000000000000000000000000000000000000000000000001026000000000000000000000000000000000000000000000000084620000000000000          0000000000000000000000000000000000000000000000000010000177
100000000000000001202500017727X28472321      0000000000426080900000000000010000001   027000000 0000000000 1806090311          00000000000010000001000000000000000133000103840001003110000225000000000000000000000000000000000000000000000000000000000000000000000000001330000000000000000000000000000000000000000000000000110520000000000000          0000000000000000000000000000000000000000000000000008000178
100000000000000001202500017727X28472321      0000000000426081200000000000010000001   027000000 0000000000 1806090311          00000000000010000001000000000000000800434108660001003110000180000000000000000000000000000000000000000000000000000000000000000000000000008004000000000000000000000000000000000000000000000000782420000000000000          0000000000000000000000000000000000000000000000000010000179
100000000000000001202500017727X28472321      0000000000426081300000000000010000001   027000000 0000000000 1806090311          00000000000010000001000000000000000651823719450001003110000180000000000000000000000000000000000000000000000000000000000000000000000000006518000000000000000000000000000000000000000000000000633820000000000000          0000000000000000000000000000000000000000000000000010000180
100000000000000001202500017727X28472321      0000000000426082500000000000010000001   027000000 0000000000 1806090311          00000000000010000001000000000000000195634181050001003110000180000000000000000000000000000000000000000000000000000000000000000000000000001956000000000000000000000000000000000000000000000000177620000000000000          0000000000000000000000000000000000000000000000000010000181
100000000000000001202500017727X28472321      0000000000426082700000000000010000001   027000000 0000000000 1806090311          00000000000010000001000000000000000156734110000001003110000180000000000000000000000000000000000000000000000000000000000000000000000000001567000000000000000000000000000000000000000000000000138720000000000000          0000000000000000000000000000000000000000000000000010000182
100000000000000001202500017727X28472321      0000000000426083300000000000010000001   027000000 0000000000 1806090311          00000000000010000001000000000000001322434105930001003110000180000000000000000000000000000000000000000000000000000000000000000000000000013224000000000000000000000000000000000000000000000001304420000000000000          0000000000000000000000000000000000000000000000000010000183
100000000000000001202500017727X28472321      0000000000426083400000000000010000001   027000000 0000000000 1806090311          00000000000010000001000000000000000785834103600001003110000180000000000000000000000000000000000000000000000000000000000000000000000000007858000000000000000000000000000000000000000000000000767820000000000000          0000000000000000000000000000000000000000000000000010000184
100000000000000001202500017727X28472321      0000000000426084300000000000010000001   027000000 0000000000 1806090311          00000000000010000001000000000000000155834100610001003110000180000000000000000000000000000000000000000000000000000000000000000000000000001558000000000000000000000000000000000000000000000000137820000000000000          0000000000000000000000000000000000000000000000000010000185
100000000000000001202500017727X28472321      0000000000426084700000000000010000001   027000000 0000000000 1806090311          00000000000010000001000000000000000385434103500001003110000180000000000000000000000000000000000000000000000000000000000000000000000000003854000000000000000000000000000000000000000000000000367420000000000000          0000000000000000000000000000000000000000000000000010000186
100000000000000001202500017727X28472321      0000000000426084800000000000010000001   027000000 0000000000 1806090311          00000000000010000001000000000000001241223701050001003110000180000000000000000000000000000000000000000000000000000000000000000000000000012412000000000000000000000000000000000000000000000001223220000000000000          0000000000000000000000000000000000000000000000000010000187
100000000000000001202500017727X28472321      0000000000426085700000000000010000001   027000000 0000000000 1806090311          00000000000010000001000000000000000942923735040001003110000180000000000000000000000000000000000000000000000000000000000000000000000000009429000000000000000000000000000000000000000000000000924920000000000000          0000000000000000000000000000000000000000000000000010000188
100000000000000001202500017727X28472321      0000000000426087200000000000010000001   027000000 0000000000 1806090311          00000000000010000001000000000000000080803347700001003110000180000000000000000000000000000000000000000000000000000000000000000000000000000808000000000000000000000000000000000000000000000000062820000000000000          0000000000000000000000000000000000000000000000000010000189
100000000000000001202500017727X28472321      0000000000426087800000000000010000001   027000000 0000000000 1806090311          00000000000010000001000000000000003405634105930001003110000180000000000000000000000000000000000000000000000000000000000000000000000000034056000000000000000000000000000000000000000000000003387620000000000000          0000000000000000000000000000000000000000000000000010000190
100000000000000001202500017727X28472321      0000000000426088100000000000010000001   027000000 0000000000 1806090311          00000000000010000001000000000000000672334110000001003110000180000000000000000000000000000000000000000000000000000000000000000000000000006723000000000000000000000000000000000000000000000000654320000000000000          0000000000000000000000000000000000000000000000000010000191
100000000000000001202500017727X28472321      0000000000426088500000000000010000001   027000000 0000000000 1806090311          00000000000010000001000000000000000182734187290001003110000180000000000000000000000000000000000000000000000000000000000000000000000000001827000000000000000000000000000000000000000000000000164720000000000000          0000000000000000000000000000000000000000000000000010000192
100000000000000001202500017727X28472321      0000000000426089200000000000010000001   027000000 0000000000 1806090311          00000000000010000001000000000000000097223726920001003110000180000000000000000000000000000000000000000000000000000000000000000000000000000972000000000000000000000000000000000000000000000000079220000000000000          0000000000000000000000000000000000000000000000000010000193
100000000000000001202500017727X28472321      0000000000426089400000000000010000001   027000000 0000000000 1806090311          00000000000010000001000000000000000153034105530001003110000180000000000000000000000000000000000000000000000000000000000000000000000000001530000000000000000000000000000000000000000000000000135020000000000000          0000000000000000000000000000000000000000000000000010000194
100000000000000001202500017727X28472321      0000000000426089600000000000010000001   027000000 0000000000 1806090311          00000000000010000001000000000000000747234107580001003110000180000000000000000000000000000000000000000000000000000000000000000000000000007472000000000000000000000000000000000000000000000000729220000000000000          0000000000000000000000000000000000000000000000000010000195
100000000000000001202500017727X28472321      0000000000426089700000000000010000001   027000000 0000000000 1806090311          00000000000010000001000000000000000441534177820001003110000180000000000000000000000000000000000000000000000000000000000000000000000000004415000000000000000000000000000000000000000000000000423520000000000000          0000000000000000000000000000000000000000000000000010000196
100000000000000001202500017727X28472321      0000000000426090700000000000010000001   027000000 0000000000 1806090311          00000000000010000001000000000000000386142201240001003110000180000000000000000000000000000000000000000000000000000000000000000000000000003861000000000000000000000000000000000000000000000000368120000000000000          0000000000000000000000000000000000000000000000000010000197
100000000000000001202500017727X28472321      0000000000426090900000000000010000001   027000000 0000000000 1806090311          00000000000010000001000000000000000450223701050001003110000180000000000000000000000000000000000000000000000000000000000000000000000000004502000000000000000000000000000000000000000000000000432220000000000000          0000000000000000000000000000000000000000000000000010000198
100000000000000001202500017727X28472321      0000000000426091800000000000010000001   027000000 0000000000 1806090311          00000000000010000001000000000000000105103321780001003110000180000000000000000000000000000000000000000000000000000000000000000000000000001051000000000000000000000000000000000000000000000000087120000000000000          0000000000000000000000000000000000000000000000000010000199
100000000000000001202500017727X28472321      0000000000426092900000000000010000001   027000000 0000000000 1806090311          00000000000010000001000000000000000310139909170001003110000180000000000000000000000000000000000000000000000000000000000000000000000000003101000000000000000000000000000000000000000000000000292120000000000000          0000000000000000000000000000000000000000000000000010000200
100000000000000001202500017727X28472321      0000000000426094100000000000010000001   027000000 0000000000 1806090311          00000000000010000001000000000000000582734188390001003110000180000000000000000000000000000000000000000000000000000000000000000000000000005827000000000000000000000000000000000000000000000000564720000000000000          0000000000000000000000000000000000000000000000000010000201
100000000000000001202500017727X28472321      0000000000426094400000000000010000001   027000000 0000000000 1806090311          00000000000010000001000000000000000197634192690001003110000180000000000000000000000000000000000000000000000000000000000000000000000000001976000000000000000000000000000000000000000000000000179620000000000000          0000000000000000000000000000000000000000000000000010000202
100000000000000001202500017727X28472321      0000000000426094500000000000010000001   027000000 0000000000 1806090311          00000000000010000001000000000000000310034116640001003110000180000000000000000000000000000000000000000000000000000000000000000000000000003100000000000000000000000000000000000000000000000000292020000000000000          0000000000000000000000000000000000000000000000000010000203
100000000000000001202500017727X28472321      0000000000426095300000000000010000001   027000000 0000000000 1806090311          00000000000010000001000000000000000699423735040001003110000180000000000000000000000000000000000000000000000000000000000000000000000000006994000000000000000000000000000000000000000000000000681420000000000000          0000000000000000000000000000000000000000000000000010000204
100000000000000001202500017727X28472321      0000000000426095700000000000010000001   027000000 0000000000 1806090311          00000000000010000001000000000000000719834116640001003110000180000000000000000000000000000000000000000000000000000000000000000000000000007198000000000000000000000000000000000000000000000000701820000000000000          0000000000000000000000000000000000000000000000000010000205
100000000000000001202500017727X28472321      0000000000426096200000000000010000001   027000000 0000000000 1806090311          00000000000010000001000000000000000988034100360001003110000180000000000000000000000000000000000000000000000000000000000000000000000000009880000000000000000000000000000000000000000000000000970020000000000000          0000000000000000000000000000000000000000000000000010000206
100000000000000001202500017727X28472321      0000000000426096500000000000010000001   027000000 0000000000 1806090311          00000000000010000001000000000000000080834192690001003110000180000000000000000000000000000000000000000000000000000000000000000000000000000808000000000000000000000000000000000000000000000000062820000000000000          0000000000000000000000000000000000000000000000000010000207
100000000000000001202500017727X28472321      0000000000426096800000000000010000001   027000000 0000000000 1806090311          00000000000010000001000000000000000500334192690001003110000180000000000000000000000000000000000000000000000000000000000000000000000000005003000000000000000000000000000000000000000000000000482320000000000000          0000000000000000000000000000000000000000000000000010000208
100000000000000001202500017727X28472321      0000000000426097200000000000010000001   027000000 0000000000 1806090311          00000000000010000001000000000000000169503337060001003110000180000000000000000000000000000000000000000000000000000000000000000000000000001695000000000000000000000000000000000000000000000000151520000000000000          0000000000000000000000000000000000000000000000000010000209
100000000000000001202500017727X28472321      0000000000426097400000000000010000001   027000000 0000000000 1806090311          00000000000010000001000000000000000154834192690001003110000180000000000000000000000000000000000000000000000000000000000000000000000000001548000000000000000000000000000000000000000000000000136820000000000000          0000000000000000000000000000000000000000000000000010000210
100000000000000001202500017727X28472321      0000000000426097800000000000010000001   027000000 0000000000 1806090311          00000000000010000001000000000000000486142201240001003110000180000000000000000000000000000000000000000000000000000000000000000000000000004861000000000000000000000000000000000000000000000000468120000000000000          0000000000000000000000000000000000000000000000000010000211
100000000000000001202500017727X28472321      0000000000426100000000000000010000001   027000000 0000000000 1806090311          00000000000010000001000000000000001003323701050001003110000180000000000000000000000000000000000000000000000000000000000000000000000000010033000000000000000000000000000000000000000000000000985320000000000000          0000000000000000000000000000000000000000000000000010000212
100000000000000001202500017727X28472321      0000000000426103100000000000010000001   027000000 0000000000 1806090311          00000000000010000001000000000000000368103331030001003110000180000000000000000000000000000000000000000000000000000000000000000000000000003681000000000000000000000000000000000000000000000000350120000000000000          0000000000000000000000000000000000000000000000000010000213
100000000000000001202500017727X28472321      0000000000426103200000000000010000001   027000000 0000000000 1806090311          00000000000010000001000000000000000210923737900001003110000180000000000000000000000000000000000000000000000000000000000000000000000000002109000000000000000000000000000000000000000000000000192920000000000000          0000000000000000000000000000000000000000000000000010000214
100000000000000001202500017727X28472321      0000000000426103300000000000010000001   027000000 0000000000 1806090311          00000000000010000001000000000000000154803333720001003110000180000000000000000000000000000000000000000000000000000000000000000000000000001548000000000000000000000000000000000000000000000000136820000000000000          0000000000000000000000000000000000000000000000000010000215
100000000000000001202500017727X28472321      0000000000426103400000000000010000001   027000000 0000000000 1806090311          00000000000010000001000000000000000225034106600001003110000180000000000000000000000000000000000000000000000000000000000000000000000000002250000000000000000000000000000000000000000000000000207020000000000000          0000000000000000000000000000000000000000000000000010000216
100000000000000001202500017727X28472321      0000000000426103500000000000010000001   027000000 0000000000 1806090311          00000000000010000001000000000000000300034107580001003110000180000000000000000000000000000000000000000000000000000000000000000000000000003000000000000000000000000000000000000000000000000000282020000000000000          0000000000000000000000000000000000000000000000000010000217
100000000000000001202500017727X28472321      0000000000426104000000000000010000001   027000000 0000000000 1806090311          00000000000010000001000000000000000444223705500001003110000180000000000000000000000000000000000000000000000000000000000000000000000000004442000000000000000000000000000000000000000000000000426220000000000000          0000000000000000000000000000000000000000000000000010000218
100000000000000001202500017727X28472321      0000000000426105000000000000010000001   027000000 0000000000 1806090311          00000000000010000001000000000000000394834104450001003110000180000000000000000000000000000000000000000000000000000000000000000000000000003948000000000000000000000000000000000000000000000000376820000000000000          0000000000000000000000000000000000000000000000000010000219
100000000000000001202500017727X28472321      0000000000426106100000000000010000001   027000000 0000000000 1806090311          00000000000010000001000000000000000510834103500001003110000180000000000000000000000000000000000000000000000000000000000000000000000000005108000000000000000000000000000000000000000000000000492820000000000000          0000000000000000000000000000000000000000000000000010000220
100000000000000001202500017727X28472321      0000000000426106400000000000010000001   027000000 0000000000 1806090311          00000000000010000001000000000000000520823705500001003110000180000000000000000000000000000000000000000000000000000000000000000000000000005208000000000000000000000000000000000000000000000000502820000000000000          0000000000000000000000000000000000000000000000000010000221
100000000000000001202500017727X28472321      0000000000426106900000000000010000001   027000000 0000000000 1806090311          00000000000010000001000000000000000768134101520001003110000180000000000000000000000000000000000000000000000000000000000000000000000000007681000000000000000000000000000000000000000000000000750120000000000000          0000000000000000000000000000000000000000000000000010000222
100000000000000001202500017727X28472321      0000000000426108500000000000010000001   027000000 0000000000 1806090311          00000000000010000001000000000000001137034100810001003110000180000000000000000000000000000000000000000000000000000000000000000000000000011370000000000000000000000000000000000000000000000001119020000000000000          0000000000000000000000000000000000000000000000000010000223
100000000000000001202500017727X28472321      0000000000426109100000000000010000001   027000000 0000000000 1806090311          00000000000010000001000000000000000406010412310001003110000180000000000000000000000000000000000000000000000000000000000000000000000000004060000000000000000000000000000000000000000000000000388020000000000000          0000000000000000000000000000000000000000000000000010000224
100000000000000001202500017727X28472321      0000000000426109700000000000010000001   027000000 0000000000 1806090311          00000000000010000001000000000000000976723737900001003110000180000000000000000000000000000000000000000000000000000000000000000000000000009767000000000000000000000000000000000000000000000000958720000000000000          0000000000000000000000000000000000000000000000000010000225
100000000000000001202500017727X28472321      0000000000426110000000000000010000001   027000000 0000000000 1806090311          00000000000010000001000000000000000279903346350001003110000180000000000000000000000000000000000000000000000000000000000000000000000000002799000000000000000000000000000000000000000000000000261920000000000000          0000000000000000000000000000000000000000000000000010000226
100000000000000001202500017727X28472321      0000000000426110300000000000010000001   027000000 0000000000 1806090311          00000000000010000001000000000000000190903346350001003110000180000000000000000000000000000000000000000000000000000000000000000000000000001909000000000000000000000000000000000000000000000000172920000000000000          0000000000000000000000000000000000000000000000000010000227
100000000000000001202500017727X28472321      0000000000426110600000000000010000001   027000000 0000000000 1806090311          00000000000010000001000000000000000331603346350001003110000180000000000000000000000000000000000000000000000000000000000000000000000000003316000000000000000000000000000000000000000000000000313620000000000000          0000000000000000000000000000000000000000000000000010000228
100000000000000001202500017727X28472321      0000000000426110800000000000010000001   027000000 0000000000 1806090311          00000000000010000001000000000000000467434132400001003110000180000000000000000000000000000000000000000000000000000000000000000000000000004674000000000000000000000000000000000000000000000000449420000000000000          0000000000000000000000000000000000000000000000000010000229
100000000000000001202500017727X28472321      0000000000426111000000000000010000001   027000000 0000000000 1806090311          00000000000010000001000000000000000366403346350001003110000180000000000000000000000000000000000000000000000000000000000000000000000000003664000000000000000000000000000000000000000000000000348420000000000000          0000000000000000000000000000000000000000000000000010000230
100000000000000001202500017727X28472321      0000000000426111800000000000010000001   027000000 0000000000 1806090311          00000000000010000001000000000000000643234103500001003110000180000000000000000000000000000000000000000000000000000000000000000000000000006432000000000000000000000000000000000000000000000000625220000000000000          0000000000000000000000000000000000000000000000000010000231
100000000000000001202500017727X28472321      0000000000426112700000000000010000001   027000000 0000000000 1806090311          00000000000010000001000000000000000171734105530001003110000180000000000000000000000000000000000000000000000000000000000000000000000000001717000000000000000000000000000000000000000000000000153720000000000000          0000000000000000000000000000000000000000000000000010000232
100000000000000001202500017727X28472321      0000000000426114400000000000010000001   027000000 0000000000 1806090311          00000000000010000001000000000000000346834188760001003110000180000000000000000000000000000000000000000000000000000000000000000000000000003468000000000000000000000000000000000000000000000000328820000000000000          0000000000000000000000000000000000000000000000000010000233
100000000000000001202500017727X28472321      0000000000426114600000000000010000001   027000000 0000000000 1806090311          00000000000010000001000000000000000094634105530001003110000180000000000000000000000000000000000000000000000000000000000000000000000000000946000000000000000000000000000000000000000000000000076620000000000000          0000000000000000000000000000000000000000000000000010000234
100000000000000001202500017727X28472321      0000000000426114900000000000010000001   027000000 0000000000 1806090311          00000000000010000001000000000000000074010441590001003110000180000000000000000000000000000000000000000000000000000000000000000000000000000740000000000000000000000000000000000000000000000000056020000000000000          0000000000000000000000000000000000000000000000000010000235
100000000000000001202500017727X28472321      0000000000426115600000000000010000001   027000000 0000000000 1806090311          00000000000010000001000000000000000708134101800001003110000180000000000000000000000000000000000000000000000000000000000000000000000000007081000000000000000000000000000000000000000000000000690120000000000000          0000000000000000000000000000000000000000000000000010000236
100000000000000001202500017727X28472321      0000000000426115900000000000010000001   027000000 0000000000 1806090311          00000000000010000001000000000000000751234101800001003110000180000000000000000000000000000000000000000000000000000000000000000000000000007512000000000000000000000000000000000000000000000000733220000000000000          0000000000000000000000000000000000000000000000000010000237
100000000000000001202500017727X28472321      0000000000426116700000000000010000001   027000000 0000000000 1806090311          00000000000010000001000000000000000912834110000001003110000180000000000000000000000000000000000000000000000000000000000000000000000000009128000000000000000000000000000000000000000000000000894820000000000000          0000000000000000000000000000000000000000000000000010000238
100000000000000001202500017727X28472321      0000000000426117600000000000010000001   027000000 0000000000 1806090311          00000000000010000001000000000000000277223701050001003110000180000000000000000000000000000000000000000000000000000000000000000000000000002772000000000000000000000000000000000000000000000000259220000000000000          0000000000000000000000000000000000000000000000000010000239
100000000000000001202500017727X28472321      0000000000426118300000000000010000001   027000000 0000000000 1806090311          00000000000010000001000000000000000868623701050001003110000180000000000000000000000000000000000000000000000000000000000000000000000000008686000000000000000000000000000000000000000000000000850620000000000000          0000000000000000000000000000000000000000000000000010000240
100000000000000001202500017727X28472321      0000000000426118400000000000010000001   027000000 0000000000 1806090311          00000000000010000001000000000000000545734107400001003110000180000000000000000000000000000000000000000000000000000000000000000000000000005457000000000000000000000000000000000000000000000000527720000000000000          0000000000000000000000000000000000000000000000000010000241
100000000000000001202500017727X28472321      0000000000426118500000000000010000004   027000000 0000000000 1806090311          00000000000010000004000000000000003581100134231001003110000225000000000000000000000000000000000000000000000000000000000000000000000000035811000000000000000000000000000000000000000000000003558620000000000000          0000000000000000000000000000000000000000000000000008000242
100000000000000001202500017727X28472321      0000000000426119500000000000010000001   027000000 0000000000 1806090311          00000000000010000001000000000000000591323701050001003110000180000000000000000000000000000000000000000000000000000000000000000000000000005913000000000000000000000000000000000000000000000000573320000000000000          0000000000000000000000000000000000000000000000000010000243
100000000000000001202500017727X28472321      0000000000426120500000000000010000001   027000000 0000000000 1806090311          00000000000010000001000000000000000176342200340001003110000180000000000000000000000000000000000000000000000000000000000000000000000000001763000000000000000000000000000000000000000000000000158320000000000000          0000000000000000000000000000000000000000000000000010000244
100000000000000001202500017727X28472321      0000000000426120900000000000010000001   027000000 0000000000 1806090311          00000000000010000001000000000000000627734105530001003110000180000000000000000000000000000000000000000000000000000000000000000000000000006277000000000000000000000000000000000000000000000000609720000000000000          0000000000000000000000000000000000000000000000000010000245
100000000000000001202500017727X28472321      0000000000426121500000000000010000001   027000000 0000000000 1806090311          00000000000010000001000000000000000798734102520001003110000180000000000000000000000000000000000000000000000000000000000000000000000000007987000000000000000000000000000000000000000000000000780720000000000000          0000000000000000000000000000000000000000000000000010000246
100000000000000001202500017727X28472321      0000000000426121700000000000010000001   027000000 0000000000 1806090311          00000000000010000001000000000000000746642201240001003110000180000000000000000000000000000000000000000000000000000000000000000000000000007466000000000000000000000000000000000000000000000000728620000000000000          0000000000000000000000000000000000000000000000000010000247
100000000000000001202500017727X28472321      0000000000426121900000000000010000001   027000000 0000000000 1806090311          00000000000010000001000000000000000623442201240001003110000180000000000000000000000000000000000000000000000000000000000000000000000000006234000000000000000000000000000000000000000000000000605420000000000000          0000000000000000000000000000000000000000000000000010000248
100000000000000001202500017727X28472321      0000000000426122000000000000010000001   027000000 0000000000 1806090311          00000000000010000001000000000000000761634108450001003110000180000000000000000000000000000000000000000000000000000000000000000000000000007616000000000000000000000000000000000000000000000000743620000000000000          0000000000000000000000000000000000000000000000000010000249
