02RETORNO01COBRANCA       1202500017727X284723SIND EMP DE EDIF SP ZEL PORT C001BANCO DO BRASIL0303110001876                      000001876201093102                                                                                                                                                                                                                                                       000001
100000000000000001202500017727X28472321      0000000000426003000000000000010000001   027000000 0000000000 1806030311          00000000000010000001000000000000000277734107280000403110000180000000000000000000000000000000000000000000000000000000000000000000000000002777000000000000000000000000000000000000000000000000259720000000000000          0000000000000000000000000000000000000000000000000010000002
100000000000000001202500017727X28472321      0000000000426005400000000000010000001   027000000 0000000000 1806030311          00000000000010000001000000000000001281534187230000403110000180000000000000000000000000000000000000000000000000000000000000000000000000012815000000000000000000000000000000000000000000000001263520000000000000          0000000000000000000000000000000000000000000000000010000003
100000000000000001202500017727X28472321      0000000000426007700000000000010000001   027000000 0000000000 1806030311          00000000000010000001000000000000000081723717880000403110000180000000000000000000000000000000000000000000000000000000000000000000000000000817000000000000000000000000000000000000000000000000063720000000000000          0000000000000000000000000000000000000000000000000010000004
100000000000000001202500017727X28472321      0000000000426009700000000000010000001   027000000 0000000000 1806030311          00000000000010000001000000000000000969134107450000403110000180000000000000000000000000000000000000000000000000000000000000000000000000009691000000000000000000000000000000000000000000000000951120000000000000          0000000000000000000000000000000000000000000000000010000005
100000000000000001202500017727X28472321      0000000000426011200000000000010000001   027000000 0000000000 1806030311          00000000000010000001000000000000000252634107450000403110000180000000000000000000000000000000000000000000000000000000000000000000000000002526000000000000000000000000000000000000000000000000234620000000000000          0000000000000000000000000000000000000000000000000010000006
100000000000000001202500017727X28472321      0000000000426012200000000000010000001   027000000 0000000000 1806030311          00000000000010000001000000000000000084023737900000403110000180000000000000000000000000000000000000000000000000000000000000000000000000000840000000000000000000000000000000000000000000000000066020000000000000          0000000000000000000000000000000000000000000000000010000007
100000000000000001202500017727X28472321      0000000000426013900000000000010000001   027000000 0000000000 1806030311          00000000000010000001000000000000000783810413600000403110000180000000000000000000000000000000000000000000000000000000000000000000000000007838000000000000000000000000000000000000000000000000765820000000000000          0000000000000000000000000000000000000000000000000010000008
100000000000000001202500017727X28472321      0000000000426040700000000000010000001   027000000 0000000000 1806030311          00000000000010000001000000000000001093123738570000403110000180000000000000000000000000000000000000000000000000000000000000000000000000010931000000000000000000000000000000000000000000000001075120000000000000          0000000000000000000000000000000000000000000000000010000009
100000000000000001202500017727X28472321      0000000000426051900000000000010000001   027000000 0000000000 1806030311          00000000000010000001000000000000000677334107450000403110000180000000000000000000000000000000000000000000000000000000000000000000000000006773000000000000000000000000000000000000000000000000659320000000000000          0000000000000000000000000000000000000000000000000010000010
100000000000000001202500017727X28472321      0000000000426057800000000000010000001   027000000 0000000000 1806030311          00000000000010000001000000000000000537323738570000403110000180000000000000000000000000000000000000000000000000000000000000000000000000005373000000000000000000000000000000000000000000000000519320000000000000          0000000000000000000000000000000000000000000000000010000011
100000000000000001202500017727X28472321      0000000000426058300000000000010000001   027000000 0000000000 1806030311          00000000000010000001000000000000000654323738570000403110000180000000000000000000000000000000000000000000000000000000000000000000000000006543000000000000000000000000000000000000000000000000636320000000000000          0000000000000000000000000000000000000000000000000010000012
100000000000000001202500017727X28472321      0000000000426072800000000000010000001   027000000 0000000000 1806030311          00000000000010000001000000000000000077434102110000403110000180000000000000000000000000000000000000000000000000000000000000000000000000000774000000000000000000000000000000000000000000000000059420000000000000          0000000000000000000000000000000000000000000000000010000013
100000000000000001202500017727X28472321      0000000000426080100000000000010000001   027000000 0000000000 1806030311          00000000000010000001000000000000002270034107450000403110000180000000000000000000000000000000000000000000000000000000000000000000000000022700000000000000000000000000000000000000000000000002252020000000000000          0000000000000000000000000000000000000000000000000010000014
100000000000000001202500017727X28472321      0000000000426082800000000000010000001   027000000 0000000000 1806030311          00000000000010000001000000000000001456823738570000403110000180000000000000000000000000000000000000000000000000000000000000000000000000014568000000000000000000000000000000000000000000000001438820000000000000          0000000000000000000000000000000000000000000000000010000015
100000000000000001202500017727X28472321      0000000000426092000000000000010000001   027000000 0000000000 1806030311          00000000000010000001000000000000000179503301450000403110000180000000000000000000000000000000000000000000000000000000000000000000000000001795000000000000000000000000000000000000000000000000161520000000000000          0000000000000000000000000000000000000000000000000010000016
100000000000000001202500017727X28472321      0000000000426100900000000000010000001   027000000 0000000000 1806030311          00000000000010000001000000000000000329423738570000403110000180000000000000000000000000000000000000000000000000000000000000000000000000003294000000000000000000000000000000000000000000000000311420000000000000          0000000000000000000000000000000000000000000000000010000017
100000000000000001202500017727X28472321      0000000000426120800000000000010000001   027000000 0000000000 1806030311          00000000000010000001000000000000000464403301150000403110000180000000000000000000000000000000000000000000000000000000000000000000000000004644000000000000000000000000000000000000000000000000446420000000000000          0000000000000000000000000000000000000000000000000010000018
100000000000000001202500017727X28472321      0000000000426123400000000000010000001   027000000 0000000000 1806030311          00000000000010000001000000000000001433523738570000403110000180000000000000000000000000000000000000000000000000000000000000000000000000014335000000000000000000000000000000000000000000000001415520000000000000          0000000000000000000000000000000000000000000000000010000019
100000000000000001202500017727X28472321      0000000000426124400000000000010000001   027000000 0000000000 1806030311          00000000000010000001000000000000000363923738570000403110000180000000000000000000000000000000000000000000000000000000000000000000000000003639000000000000000000000000000000000000000000000000345920000000000000          0000000000000000000000000000000000000000000000000010000020
100000000000000001202500017727X28472321      0000000000426125700000000000010000001   027000000 0000000000 1806030311          00000000000010000001000000000000000148323737900000403110000180000000000000000000000000000000000000000000000000000000000000000000000000001483000000000000000000000000000000000000000000000000130320000000000000          0000000000000000000000000000000000000000000000000010000021
100000000000000001202500017727X28472321      0000000000426128700000000000010000001   027000000 0000000000 1806030311          00000000000010000001000000000000000719823738570000403110000180000000000000000000000000000000000000000000000000000000000000000000000000007198000000000000000000000000000000000000000000000000701820000000000000          0000000000000000000000000000000000000000000000000010000022
100000000000000001202500017727X28472321      0000000000426138700000000000010000001   027000000 0000000000 1806030311          00000000000010000001000000000000000167039903190000403110000180000000000000000000000000000000000000000000000000000000000000000000000000001670000000000000000000000000000000000000000000000000149020000000000000          0000000000000000000000000000000000000000000000000010000023
100000000000000001202500017727X28472321      0000000000426140500000000000010000001   027000000 0000000000 1806030311          00000000000010000001000000000000000381023738570000403110000180000000000000000000000000000000000000000000000000000000000000000000000000003810000000000000000000000000000000000000000000000000363020000000000000          0000000000000000000000000000000000000000000000000010000024
100000000000000001202500017727X28472321      0000000000426152900000000000010000001   027000000 0000000000 1806030311          00000000000010000001000000000000000096234102370000403110000180000000000000000000000000000000000000000000000000000000000000000000000000000962000000000000000000000000000000000000000000000000078220000000000000          0000000000000000000000000000000000000000000000000010000025
100000000000000001202500017727X28472321      0000000000426157000000000000010000001   027000000 0000000000 1806030311          00000000000010000001000000000000000514823738570000403110000180000000000000000000000000000000000000000000000000000000000000000000000000005148000000000000000000000000000000000000000000000000496820000000000000          0000000000000000000000000000000000000000000000000010000026
100000000000000001202500017727X28472321      0000000000426157600000000000010000001   027000000 0000000000 1806030311          00000000000010000001000000000000000127703333730000403110000180000000000000000000000000000000000000000000000000000000000000000000000000001277000000000000000000000000000000000000000000000000109720000000000000          0000000000000000000000000000000000000000000000000010000027
100000000000000001202500017727X28472321      0000000000426157700000000000010000001   027000000 0000000000 1806030311          00000000000010000001000000000000000653703322070000403110000180000000000000000000000000000000000000000000000000000000000000000000000000006537000000000000000000000000000000000000000000000000635720000000000000          0000000000000000000000000000000000000000000000000010000028
100000000000000001202500017727X28472321      0000000000426164500000000000010000001   027000000 0000000000 1806030311          00000000000010000001000000000000000535323738570000403110000180000000000000000000000000000000000000000000000000000000000000000000000000005353000000000000000000000000000000000000000000000000517320000000000000          0000000000000000000000000000000000000000000000000010000029
100000000000000001202500017727X28472321      0000000000426167700000000000010000001   027000000 0000000000 1806030311          00000000000010000001000000000000000840603345810000403110000180000000000000000000000000000000000000000000000000000000000000000000000000008406000000000000000000000000000000000000000000000000822620000000000000          0000000000000000000000000000000000000000000000000010000030
100000000000000001202500017727X28472321      0000000000426167800000000000010000001   027000000 0000000000 1806030311          00000000000010000001000000000000000300434107450000403110000180000000000000000000000000000000000000000000000000000000000000000000000000003004000000000000000000000000000000000000000000000000282420000000000000          0000000000000000000000000000000000000000000000000010000031
100000000000000001202500017727X28472321      0000000000426168600000000000010000001   027000000 0000000000 1806030311          00000000000010000001000000000000000229103345810000403110000180000000000000000000000000000000000000000000000000000000000000000000000000002291000000000000000000000000000000000000000000000000211120000000000000          0000000000000000000000000000000000000000000000000010000032
100000000000000001202500017727X28472321      0000000000426170700000000000010000001   027000000 0000000000 1806030311          00000000000010000001000000000000000080834102520000403110000180000000000000000000000000000000000000000000000000000000000000000000000000000808000000000000000000000000000000000000000000000000062820000000000000          0000000000000000000000000000000000000000000000000010000033
100000000000000001202500017727X28472321      0000000000426172500000000000010000001   027000000 0000000000 1806030311          00000000000010000001000000000000000637023700980000403110000180000000000000000000000000000000000000000000000000000000000000000000000000006370000000000000000000000000000000000000000000000000619020000000000000          0000000000000000000000000000000000000000000000000010000034
100000000000000001202500017727X28472321      0000000000426174500000000000010000001   027000000 0000000000 1806030311          00000000000010000001000000000000000077423717730000403110000180000000000000000000000000000000000000000000000000000000000000000000000000000774000000000000000000000000000000000000000000000000059420000000000000          0000000000000000000000000000000000000000000000000010000035
100000000000000001202500017727X28472321      0000000000426177500000000000010000001   027000000 0000000000 1806030311          00000000000010000001000000000000001063323738570000403110000180000000000000000000000000000000000000000000000000000000000000000000000000010633000000000000000000000000000000000000000000000001045320000000000000          0000000000000000000000000000000000000000000000000010000036
100000000000000001202500017727X28472321      0000000000426179000000000000010000001   027000000 0000000000 1806030311          00000000000010000001000000000000000754123738570000403110000180000000000000000000000000000000000000000000000000000000000000000000000000007541000000000000000000000000000000000000000000000000736120000000000000          0000000000000000000000000000000000000000000000000010000037
100000000000000001202500017727X28472321      0000000000426180000000000000010000001   027000000 0000000000 1806030311          00000000000010000001000000000000000563023727160000403110000180000000000000000000000000000000000000000000000000000000000000000000000000005630000000000000000000000000000000000000000000000000545020000000000000          0000000000000000000000000000000000000000000000000010000038
100000000000000001202500017727X28472321      0000000000426182700000000000010000001   027000000 0000000000 1806030311          00000000000010000001000000000000000365323737900000403110000180000000000000000000000000000000000000000000000000000000000000000000000000003653000000000000000000000000000000000000000000000000347320000000000000          0000000000000000000000000000000000000000000000000010000039
100000000000000001202500017727X28472321      0000000000426184500000000000010000001   027000000 0000000000 1806030311          00000000000010000001000000000000000685023737900000403110000180000000000000000000000000000000000000000000000000000000000000000000000000006850000000000000000000000000000000000000000000000000667020000000000000          0000000000000000000000000000000000000000000000000010000040
100000000000000001202500017727X28472321      0000000000426190700000000000010000001   027000000 0000000000 1806030311          00000000000010000001000000000000000669323738570000403110000180000000000000000000000000000000000000000000000000000000000000000000000000006693000000000000000000000000000000000000000000000000651320000000000000          0000000000000000000000000000000000000000000000000010000041
100000000000000001202500017727X28472321      0000000000426194600000000000010000001   027000000 0000000000 1806030311          00000000000010000001000000000000001440234107450000403110000180000000000000000000000000000000000000000000000000000000000000000000000000014402000000000000000000000000000000000000000000000001422220000000000000          0000000000000000000000000000000000000000000000000010000042
100000000000000001202500017727X28472321      0000000000426194800000000000010000001   027000000 0000000000 1806030311          00000000000010000001000000000000000922323738570000403110000180000000000000000000000000000000000000000000000000000000000000000000000000009223000000000000000000000000000000000000000000000000904320000000000000          0000000000000000000000000000000000000000000000000010000043
100000000000000001202500017727X28472321      0000000000426204300000000000010000001   027000000 0000000000 1806030311          00000000000010000001000000000000000808823738570000403110000180000000000000000000000000000000000000000000000000000000000000000000000000008088000000000000000000000000000000000000000000000000790820000000000000          0000000000000000000000000000000000000000000000000010000044
100000000000000001202500017727X28472321      0000000000426207300000000000010000001   027000000 0000000000 1806030311          00000000000010000001000000000000000565634131690000403110000180000000000000000000000000000000000000000000000000000000000000000000000000005656000000000000000000000000000000000000000000000000547620000000000000          0000000000000000000000000000000000000000000000000010000045
100000000000000001202500017727X28472321      0000000000426207400000000000010000001   027000000 0000000000 1806030311          00000000000010000001000000000000000659923738570000403110000180000000000000000000000000000000000000000000000000000000000000000000000000006599000000000000000000000000000000000000000000000000641920000000000000          0000000000000000000000000000000000000000000000000010000046
100000000000000001202500017727X28472321      0000000000426213200000000000010000001   027000000 0000000000 1806030311          00000000000010000001000000000000000520623737900000403110000180000000000000000000000000000000000000000000000000000000000000000000000000005206000000000000000000000000000000000000000000000000502620000000000000          0000000000000000000000000000000000000000000000000010000047
100000000000000001202500017727X28472321      0000000000426213300000000000010000001   027000000 0000000000 1806030311          00000000000010000001000000000000000448123737900000403110000180000000000000000000000000000000000000000000000000000000000000000000000000004481000000000000000000000000000000000000000000000000430120000000000000          0000000000000000000000000000000000000000000000000010000048
100000000000000001202500017727X28472321      0000000000426220100000000000010000001   027000000 0000000000 1806030311          00000000000010000001000000000000000976023738570000403110000180000000000000000000000000000000000000000000000000000000000000000000000000009760000000000000000000000000000000000000000000000000958020000000000000          0000000000000000000000000000000000000000000000000010000049
100000000000000001202500017727X28472321      0000000000426221800000000000010000001   027000000 0000000000 1806030311          00000000000010000001000000000000000336723738570000403110000180000000000000000000000000000000000000000000000000000000000000000000000000003367000000000000000000000000000000000000000000000000318720000000000000          0000000000000000000000000000000000000000000000000010000050
100000000000000001202500017727X28472321      0000000000426237700000000000010000001   027000000 0000000000 1806030311          00000000000010000001000000000000000974403301450000403110000180000000000000000000000000000000000000000000000000000000000000000000000000009744000000000000000000000000000000000000000000000000956420000000000000          0000000000000000000000000000000000000000000000000010000051
100000000000000001202500017727X28472321      0000000000426245000000000000010000001   027000000 0000000000 1806030311          00000000000010000001000000000000000810723737900000403110000180000000000000000000000000000000000000000000000000000000000000000000000000008107000000000000000000000000000000000000000000000000792720000000000000          0000000000000000000000000000000000000000000000000010000052
100000000000000001202500017727X28472321      0000000000426265100000000000010000001   027000000 0000000000 1806030311          00000000000010000001000000000000000190423738570000403110000180000000000000000000000000000000000000000000000000000000000000000000000000001904000000000000000000000000000000000000000000000000172420000000000000          0000000000000000000000000000000000000000000000000010000053
100000000000000001202500017727X28472321      0000000000426273200000000000010000001   027000000 0000000000 1806030311          00000000000010000001000000000000000461023704980000403110000180000000000000000000000000000000000000000000000000000000000000000000000000004610000000000000000000000000000000000000000000000000443020000000000000          0000000000000000000000000000000000000000000000000010000054
100000000000000001202500017727X28472321      0000000000426287400000000000010000001   027000000 0000000000 1806030311          00000000000010000001000000000000000543823737900000403110000180000000000000000000000000000000000000000000000000000000000000000000000000005438000000000000000000000000000000000000000000000000525820000000000000          0000000000000000000000000000000000000000000000000010000055
100000000000000001202500017727X28472321      0000000000426293100000000000010000001   027000000 0000000000 1806030311          00000000000010000001000000000000000828623738570000403110000180000000000000000000000000000000000000000000000000000000000000000000000000008286000000000000000000000000000000000000000000000000810620000000000000          0000000000000000000000000000000000000000000000000010000056
100000000000000001202500017727X28472321      0000000000426293400000000000010000001   027000000 0000000000 1806030311          00000000000010000001000000000000000074034101380000403110000180000000000000000000000000000000000000000000000000000000000000000000000000000740000000000000000000000000000000000000000000000000056020000000000000          0000000000000000000000000000000000000000000000000010000057
100000000000000001202500017727X28472321      0000000000426294400000000000010000001   027000000 0000000000 1806030311          00000000000010000001000000000000000142423738570000403110000180000000000000000000000000000000000000000000000000000000000000000000000000001424000000000000000000000000000000000000000000000000124420000000000000          0000000000000000000000000000000000000000000000000010000058
100000000000000001202500017727X28472321      0000000000426294500000000000010000001   027000000 0000000000 1806030311          00000000000010000001000000000000000552823738570000403110000180000000000000000000000000000000000000000000000000000000000000000000000000005528000000000000000000000000000000000000000000000000534820000000000000          0000000000000000000000000000000000000000000000000010000059
100000000000000001202500017727X28472321      0000000000426294600000000000010000001   027000000 0000000000 1806030311          00000000000010000001000000000000000089523738570000403110000180000000000000000000000000000000000000000000000000000000000000000000000000000895000000000000000000000000000000000000000000000000071520000000000000          0000000000000000000000000000000000000000000000000010000060
100000000000000001202500017727X28472321      0000000000426309700000000000010000001   027000000 0000000000 1806030311          00000000000010000001000000000000000134123738230000403110000180000000000000000000000000000000000000000000000000000000000000000000000000001341000000000000000000000000000000000000000000000000116120000000000000          0000000000000000000000000000000000000000000000000010000061
100000000000000001202500017727X28472321      0000000000426310100000000000010000001   027000000 0000000000 1806030311          00000000000010000001000000000000001278123738570000403110000180000000000000000000000000000000000000000000000000000000000000000000000000012781000000000000000000000000000000000000000000000001260120000000000000          0000000000000000000000000000000000000000000000000010000062
100000000000000001202500017727X28472321      0000000000426310800000000000010000001   027000000 0000000000 1806030311          00000000000010000001000000000000000663810416520000403110000180000000000000000000000000000000000000000000000000000000000000000000000000006638000000000000000000000000000000000000000000000000645820000000000000          0000000000000000000000000000000000000000000000000010000063
100000000000000001202500017727X28472321      0000000000426314400000000000010000001   027000000 0000000000 1806030311          00000000000010000001000000000000002707934101380000403110000180000000000000000000000000000000000000000000000000000000000000000000000000027079000000000000000000000000000000000000000000000002689920000000000000          0000000000000000000000000000000000000000000000000010000064
100000000000000001202500017727X28472321      0000000000426319100000000000010000001   027000000 0000000000 1806030311          00000000000010000001000000000000000542534171300000403110000180000000000000000000000000000000000000000000000000000000000000000000000000005425000000000000000000000000000000000000000000000000524520000000000000          0000000000000000000000000000000000000000000000000010000065
100000000000000001202500017727X28472321      0000000000426325500000000000010000001   027000000 0000000000 1806030311          00000000000010000001000000000000001600034185770000403110000180000000000000000000000000000000000000000000000000000000000000000000000000016000000000000000000000000000000000000000000000000001582020000000000000          0000000000000000000000000000000000000000000000000010000066
100000000000000001202500017727X28472321      0000000000426331000000000000010000001   027000000 0000000000 1806030311          00000000000010000001000000000000000728234129770000403110000180000000000000000000000000000000000000000000000000000000000000000000000000007282000000000000000000000000000000000000000000000000710220000000000000          0000000000000000000000000000000000000000000000000010000067
100000000000000001202500017727X28472321      0000000000426332800000000000010000001   027000000 0000000000 1806030311          00000000000010000001000000000000000704123738570000403110000180000000000000000000000000000000000000000000000000000000000000000000000000007041000000000000000000000000000000000000000000000000686120000000000000          0000000000000000000000000000000000000000000000000010000068
100000000000000001202500017727X28472321      0000000000426351800000000000010000001   027000000 0000000000 1806030311          00000000000010000001000000000000000823334100570000403110000180000000000000000000000000000000000000000000000000000000000000000000000000008233000000000000000000000000000000000000000000000000805320000000000000          0000000000000000000000000000000000000000000000000010000069
100000000000000001202500017727X28472321      0000000000426356200000000000010000001   027000000 0000000000 1806030311          00000000000010000001000000000000001038823738570000403110000180000000000000000000000000000000000000000000000000000000000000000000000000010388000000000000000000000000000000000000000000000001020820000000000000          0000000000000000000000000000000000000000000000000010000070
100000000000000001202500017727X28472321      0000000000426362300000000000010000001   027000000 0000000000 1806030311          00000000000010000001000000000000000767423737900000403110000180000000000000000000000000000000000000000000000000000000000000000000000000007674000000000000000000000000000000000000000000000000749420000000000000          0000000000000000000000000000000000000000000000000010000071
100000000000000001202500017727X28472321      0000000000426365400000000000010000001   027000000 0000000000 1806030311          00000000000010000001000000000000000323034100570000403110000180000000000000000000000000000000000000000000000000000000000000000000000000003230000000000000000000000000000000000000000000000000305020000000000000          0000000000000000000000000000000000000000000000000010000072
100000000000000001202500017727X28472321      0000000000426372700000000000010000001   027000000 0000000000 1806030311          00000000000010000001000000000000000474623738570000403110000180000000000000000000000000000000000000000000000000000000000000000000000000004746000000000000000000000000000000000000000000000000456620000000000000          0000000000000000000000000000000000000000000000000010000073
100000000000000001202500017727X28472321      0000000000426373800000000000010000001   027000000 0000000000 1806030311          00000000000010000001000000000000000884823737900000403110000180000000000000000000000000000000000000000000000000000000000000000000000000008848000000000000000000000000000000000000000000000000866820000000000000          0000000000000000000000000000000000000000000000000010000074
100000000000000001202500017727X28472321      0000000000426373900000000000010000001   027000000 0000000000 1806030311          00000000000010000001000000000000000692323737900000403110000180000000000000000000000000000000000000000000000000000000000000000000000000006923000000000000000000000000000000000000000000000000674320000000000000          0000000000000000000000000000000000000000000000000010000075
100000000000000001202500017727X28472321      0000000000426374000000000000010000001   027000000 0000000000 1806030311          00000000000010000001000000000000000714823737900000403110000180000000000000000000000000000000000000000000000000000000000000000000000000007148000000000000000000000000000000000000000000000000696820000000000000          0000000000000000000000000000000000000000000000000010000076
100000000000000001202500017727X28472321      0000000000426374100000000000010000001   027000000 0000000000 1806030311          00000000000010000001000000000000000735423737900000403110000180000000000000000000000000000000000000000000000000000000000000000000000000007354000000000000000000000000000000000000000000000000717420000000000000          0000000000000000000000000000000000000000000000000010000077
100000000000000001202500017727X28472321      0000000000426374200000000000010000001   027000000 0000000000 1806030311          00000000000010000001000000000000000590723737900000403110000180000000000000000000000000000000000000000000000000000000000000000000000000005907000000000000000000000000000000000000000000000000572720000000000000          0000000000000000000000000000000000000000000000000010000078
100000000000000001202500017727X28472321      0000000000426377200000000000010000001   027000000 0000000000 1806030311          00000000000010000001000000000000000971934168740000403110000180000000000000000000000000000000000000000000000000000000000000000000000000009719000000000000000000000000000000000000000000000000953920000000000000          0000000000000000000000000000000000000000000000000010000079
100000000000000001202500017727X28472321      0000000000426378000000000000010000001   027000000 0000000000 1806030311          00000000000010000001000000000000000681623738570000403110000180000000000000000000000000000000000000000000000000000000000000000000000000006816000000000000000000000000000000000000000000000000663620000000000000          0000000000000000000000000000000000000000000000000010000080
100000000000000001202500017727X28472321      0000000000426382100000000000010000001   027000000 0000000000 1806030311          00000000000010000001000000000000000080803301080000403110000180000000000000000000000000000000000000000000000000000000000000000000000000000808000000000000000000000000000000000000000000000000062820000000000000          0000000000000000000000000000000000000000000000000010000081
100000000000000001202500017727X28472321      0000000000426382600000000000010000001   027000000 0000000000 1806030311          00000000000010000001000000000000000350123738570000403110000180000000000000000000000000000000000000000000000000000000000000000000000000003501000000000000000000000000000000000000000000000000332120000000000000          0000000000000000000000000000000000000000000000000010000082
100000000000000001202500017727X28472321      0000000000426386600000000000010000001   027000000 0000000000 1806030311          00000000000010000001000000000000000129234101840000403110000180000000000000000000000000000000000000000000000000000000000000000000000000001292000000000000000000000000000000000000000000000000111220000000000000          0000000000000000000000000000000000000000000000000010000083
100000000000000001202500017727X28472321      0000000000426390700000000000010000001   027000000 0000000000 1806030311          00000000000010000001000000000000000469323738570000403110000180000000000000000000000000000000000000000000000000000000000000000000000000004693000000000000000000000000000000000000000000000000451320000000000000          0000000000000000000000000000000000000000000000000010000084
100000000000000001202500017727X28472321      0000000000426394100000000000010000001   027000000 0000000000 1806030311          00000000000010000001000000000000000089703335620000403110000180000000000000000000000000000000000000000000000000000000000000000000000000000897000000000000000000000000000000000000000000000000071720000000000000          0000000000000000000000000000000000000000000000000010000085
100000000000000001202500017727X28472321      0000000000426401000000000000010000001   027000000 0000000000 1806030311          00000000000010000001000000000000000830123738570000403110000180000000000000000000000000000000000000000000000000000000000000000000000000008301000000000000000000000000000000000000000000000000812120000000000000          0000000000000000000000000000000000000000000000000010000086
100000000000000001202500017727X28472321      0000000000426403900000000000010000001   027000000 0000000000 1806030311          00000000000010000001000000000000001078123737900000403110000180000000000000000000000000000000000000000000000000000000000000000000000000010781000000000000000000000000000000000000000000000001060120000000000000          0000000000000000000000000000000000000000000000000010000087
100000000000000001202500017727X28472321      0000000000426406100000000000010000001   027000000 0000000000 1806030311          00000000000010000001000000000000001986634101670000403110000180000000000000000000000000000000000000000000000000000000000000000000000000019866000000000000000000000000000000000000000000000001968620000000000000          0000000000000000000000000000000000000000000000000010000088
100000000000000001202500017727X28472321      0000000000426410400000000000010000001   027000000 0000000000 1806030311          00000000000010000001000000000000000927023712130000403110000180000000000000000000000000000000000000000000000000000000000000000000000000009270000000000000000000000000000000000000000000000000909020000000000000          0000000000000000000000000000000000000000000000000010000089
100000000000000001202500017727X28472321      0000000000426412100000000000010000001   027000000 0000000000 1806030311          00000000000010000001000000000000000076123738570000403110000180000000000000000000000000000000000000000000000000000000000000000000000000000761000000000000000000000000000000000000000000000000058120000000000000          0000000000000000000000000000000000000000000000000010000090
100000000000000001202500017727X28472321      0000000000426420300000000000010000001   027000000 0000000000 1806030311          00000000000010000001000000000000000108834131710000403110000180000000000000000000000000000000000000000000000000000000000000000000000000001088000000000000000000000000000000000000000000000000090820000000000000          0000000000000000000000000000000000000000000000000010000091
100000000000000001202500017727X28472321      0000000000426437300000000000010000001   027000000 0000000000 1806030311          00000000000010000001000000000000000309634107410000403110000180000000000000000000000000000000000000000000000000000000000000000000000000003096000000000000000000000000000000000000000000000000291620000000000000          0000000000000000000000000000000000000000000000000010000092
100000000000000001202500017727X28472321      0000000000426451300000000000010000001   027000000 0000000000 1806030311          00000000000010000001000000000000001307123738570000403110000180000000000000000000000000000000000000000000000000000000000000000000000000013071000000000000000000000000000000000000000000000001289120000000000000          0000000000000000000000000000000000000000000000000010000093
100000000000000001202500017727X28472321      0000000000426452800000000000010000001   027000000 0000000000 1806030311          00000000000010000001000000000000000670223738570000403110000180000000000000000000000000000000000000000000000000000000000000000000000000006702000000000000000000000000000000000000000000000000652220000000000000          0000000000000000000000000000000000000000000000000010000094
100000000000000001202500017727X28472321      0000000000426462100000000000010000001   027000000 0000000000 1806030311          00000000000010000001000000000000000509523738570000403110000180000000000000000000000000000000000000000000000000000000000000000000000000005095000000000000000000000000000000000000000000000000491520000000000000          0000000000000000000000000000000000000000000000000010000095
100000000000000001202500017727X28472321      0000000000426462400000000000010000001   027000000 0000000000 1806030311          00000000000010000001000000000000000556823738570000403110000180000000000000000000000000000000000000000000000000000000000000000000000000005568000000000000000000000000000000000000000000000000538820000000000000          0000000000000000000000000000000000000000000000000010000096
100000000000000001202500017727X28472321      0000000000426473700000000000010000001   027000000 0000000000 1806030311          00000000000010000001000000000000000169234100670000403110000180000000000000000000000000000000000000000000000000000000000000000000000000001692000000000000000000000000000000000000000000000000151220000000000000          0000000000000000000000000000000000000000000000000010000097
100000000000000001202500017727X28472321      0000000000426476200000000000010000001   027000000 0000000000 1806030311          00000000000010000001000000000000000307123738570000403110000180000000000000000000000000000000000000000000000000000000000000000000000000003071000000000000000000000000000000000000000000000000289120000000000000          0000000000000000000000000000000000000000000000000010000098
100000000000000001202500017727X28472321      0000000000426490500000000000010000001   027000000 0000000000 1806030311          00000000000010000001000000000000000758523738570000403110000180000000000000000000000000000000000000000000000000000000000000000000000000007585000000000000000000000000000000000000000000000000740520000000000000          0000000000000000000000000000000000000000000000000010000099
100000000000000001202500017727X28472321      0000000000426491200000000000010000001   027000000 0000000000 1806030311          00000000000010000001000000000000000931903345500000403110000180000000000000000000000000000000000000000000000000000000000000000000000000009319000000000000000000000000000000000000000000000000913920000000000000          0000000000000000000000000000000000000000000000000010000100
100000000000000001202500017727X28472321      0000000000426492300000000000010000001   027000000 0000000000 1806030311          00000000000010000001000000000000000129123738570000403110000180000000000000000000000000000000000000000000000000000000000000000000000000001291000000000000000000000000000000000000000000000000111120000000000000          0000000000000000000000000000000000000000000000000010000101
100000000000000001202500017727X28472321      0000000000426493500000000000010000001   027000000 0000000000 1806030311          00000000000010000001000000000000000846923738570000403110000180000000000000000000000000000000000000000000000000000000000000000000000000008469000000000000000000000000000000000000000000000000828920000000000000          0000000000000000000000000000000000000000000000000010000102
100000000000000001202500017727X28472321      0000000000426510300000000000010000001   027000000 0000000000 1806030311          00000000000010000001000000000000000159623737900000403110000180000000000000000000000000000000000000000000000000000000000000000000000000001596000000000000000000000000000000000000000000000000141620000000000000          0000000000000000000000000000000000000000000000000010000103
100000000000000001202500017727X28472321      0000000000426513700000000000010000001   027000000 0000000000 1806030311          00000000000010000001000000000000000402734107130000403110000180000000000000000000000000000000000000000000000000000000000000000000000000004027000000000000000000000000000000000000000000000000384720000000000000          0000000000000000000000000000000000000000000000000010000104
100000000000000001202500017727X28472321      0000000000426518000000000000010000001   027000000 0000000000 1806030311          00000000000010000001000000000000001195234107450000403110000180000000000000000000000000000000000000000000000000000000000000000000000000011952000000000000000000000000000000000000000000000001177220000000000000          0000000000000000000000000000000000000000000000000010000105
100000000000000001202500017727X28472321      0000000000426523400000000000010000001   027000000 0000000000 1806030311          00000000000010000001000000000000000703623738570000403110000180000000000000000000000000000000000000000000000000000000000000000000000000007036000000000000000000000000000000000000000000000000685620000000000000          0000000000000000000000000000000000000000000000000010000106
100000000000000001202500017727X28472321      0000000000426523700000000000010000001   027000000 0000000000 1806030311          00000000000010000001000000000000001002503342650000403110000180000000000000000000000000000000000000000000000000000000000000000000000000010025000000000000000000000000000000000000000000000000984520000000000000          0000000000000000000000000000000000000000000000000010000107
100000000000000001202500017727X28472321      0000000000426524600000000000010000001   027000000 0000000000 1806030311          00000000000010000001000000000000000776423738570000403110000180000000000000000000000000000000000000000000000000000000000000000000000000007764000000000000000000000000000000000000000000000000758420000000000000          0000000000000000000000000000000000000000000000000010000108
100000000000000001202500017727X28472321      0000000000426525800000000000010000001   027000000 0000000000 1806030311          00000000000010000001000000000000000327703345500000403110000180000000000000000000000000000000000000000000000000000000000000000000000000003277000000000000000000000000000000000000000000000000309720000000000000          0000000000000000000000000000000000000000000000000010000109
100000000000000001202500017727X28472321      0000000000426526000000000000010000001   027000000 0000000000 1806030311          00000000000010000001000000000000001093423738570000403110000180000000000000000000000000000000000000000000000000000000000000000000000000010934000000000000000000000000000000000000000000000001075420000000000000          0000000000000000000000000000000000000000000000000010000110
100000000000000001202500017727X28472321      0000000000426526300000000000010000001   027000000 0000000000 1806030311          00000000000010000001000000000000000512803345500000403110000180000000000000000000000000000000000000000000000000000000000000000000000000005128000000000000000000000000000000000000000000000000494820000000000000          0000000000000000000000000000000000000000000000000010000111
100000000000000001202500017727X28472321      0000000000426527200000000000010000001   027000000 0000000000 1806030311          00000000000010000001000000000000000836723738570000403110000180000000000000000000000000000000000000000000000000000000000000000000000000008367000000000000000000000000000000000000000000000000818720000000000000          0000000000000000000000000000000000000000000000000010000112
100000000000000001202500017727X28472321      0000000000426529500000000000010000001   027000000 0000000000 1806030311          00000000000010000001000000000000000309623727920000403110000180000000000000000000000000000000000000000000000000000000000000000000000000003096000000000000000000000000000000000000000000000000291620000000000000          0000000000000000000000000000000000000000000000000010000113
100000000000000001202500017727X28472321      0000000000426544800000000000010000001   027000000 0000000000 1806030311          00000000000010000001000000000000001169623738570000403110000180000000000000000000000000000000000000000000000000000000000000000000000000011696000000000000000000000000000000000000000000000001151620000000000000          0000000000000000000000000000000000000000000000000010000114
100000000000000001202500017727X28472321      0000000000426546200000000000010000001   027000000 0000000000 1806030311          00000000000010000001000000000000000863223738570000403110000180000000000000000000000000000000000000000000000000000000000000000000000000008632000000000000000000000000000000000000000000000000845220000000000000          0000000000000000000000000000000000000000000000000010000115
100000000000000001202500017727X28472321      0000000000426546700000000000010000001   027000000 0000000000 1806030311          00000000000010000001000000000000000541223738570000403110000180000000000000000000000000000000000000000000000000000000000000000000000000005412000000000000000000000000000000000000000000000000523220000000000000          0000000000000000000000000000000000000000000000000010000116
100000000000000001202500017727X28472321      0000000000426547900000000000010000001   027000000 0000000000 1806030311          00000000000010000001000000000000000752923738570000403110000180000000000000000000000000000000000000000000000000000000000000000000000000007529000000000000000000000000000000000000000000000000734920000000000000          0000000000000000000000000000000000000000000000000010000117
100000000000000001202500017727X28472321      0000000000426561200000000000010000001   027000000 0000000000 1806030311          00000000000010000001000000000000001149503333720000403110000180000000000000000000000000000000000000000000000000000000000000000000000000011495000000000000000000000000000000000000000000000001131520000000000000          0000000000000000000000000000000000000000000000000010000118
100000000000000001202500017727X28472321      0000000000426562000000000000010000001   027000000 0000000000 1806030311          00000000000010000001000000000000000572223728840000403110000180000000000000000000000000000000000000000000000000000000000000000000000000005722000000000000000000000000000000000000000000000000554220000000000000          0000000000000000000000000000000000000000000000000010000119
100000000000000001202500017727X28472321      0000000000426568200000000000010000001   027000000 0000000000 1806030311          00000000000010000001000000000000000966434107450000403110000180000000000000000000000000000000000000000000000000000000000000000000000000009664000000000000000000000000000000000000000000000000948420000000000000          0000000000000000000000000000000000000000000000000010000120
100000000000000001202500017727X28472321      0000000000426572100000000000010000001   027000000 0000000000 1806030311          00000000000010000001000000000000000422534101520000403110000180000000000000000000000000000000000000000000000000000000000000000000000000004225000000000000000000000000000000000000000000000000404520000000000000          0000000000000000000000000000000000000000000000000010000121
100000000000000001202500017727X28472321      0000000000426573100000000000010000001   027000000 0000000000 1806030311          00000000000010000001000000000000000852834107450000403110000180000000000000000000000000000000000000000000000000000000000000000000000000008528000000000000000000000000000000000000000000000000834820000000000000          0000000000000000000000000000000000000000000000000010000122
100000000000000001202500017727X28472321      0000000000426573400000000000010000001   027000000 0000000000 1806030311          00000000000010000001000000000000000167034100030000403110000180000000000000000000000000000000000000000000000000000000000000000000000000001670000000000000000000000000000000000000000000000000149020000000000000          0000000000000000000000000000000000000000000000000010000123
100000000000000001202500017727X28472321      0000000000426576400000000000010000001   027000000 0000000000 1806030311          00000000000010000001000000000000000687623738570000403110000180000000000000000000000000000000000000000000000000000000000000000000000000006876000000000000000000000000000000000000000000000000669620000000000000          0000000000000000000000000000000000000000000000000010000124
100000000000000001202500017727X28472321      0000000000426576800000000000010000001   027000000 0000000000 1806030311          00000000000010000001000000000000000700203345500000403110000180000000000000000000000000000000000000000000000000000000000000000000000000007002000000000000000000000000000000000000000000000000682220000000000000          0000000000000000000000000000000000000000000000000010000125
100000000000000001202500017727X28472321      0000000000426592900000000000010000001   027000000 0000000000 1806030311          00000000000010000001000000000000001705923738570000403110000180000000000000000000000000000000000000000000000000000000000000000000000000017059000000000000000000000000000000000000000000000001687920000000000000          0000000000000000000000000000000000000000000000000010000126
100000000000000001202500017727X28472321      0000000000426593400000000000010000001   027000000 0000000000 1806030311          00000000000010000001000000000000001061123738570000403110000180000000000000000000000000000000000000000000000000000000000000000000000000010611000000000000000000000000000000000000000000000001043120000000000000          0000000000000000000000000000000000000000000000000010000127
100000000000000001202500017727X28472321      0000000000426593700000000000010000001   027000000 0000000000 1806030311          00000000000010000001000000000000000504023738570000403110000180000000000000000000000000000000000000000000000000000000000000000000000000005040000000000000000000000000000000000000000000000000486020000000000000          0000000000000000000000000000000000000000000000000010000128
100000000000000001202500017727X28472321      0000000000426593900000000000010000001   027000000 0000000000 1806030311          00000000000010000001000000000000000490023738570000403110000180000000000000000000000000000000000000000000000000000000000000000000000000004900000000000000000000000000000000000000000000000000472020000000000000          0000000000000000000000000000000000000000000000000010000129
100000000000000001202500017727X28472321      0000000000426598900000000000010000001   027000000 0000000000 1806030311          00000000000010000001000000000000000107234106440000403110000180000000000000000000000000000000000000000000000000000000000000000000000000001072000000000000000000000000000000000000000000000000089220000000000000          0000000000000000000000000000000000000000000000000010000130
100000000000000001202500017727X28472321      0000000000426603900000000000010000001   027000000 0000000000 1806030311          00000000000010000001000000000000001167510416790000403110000180000000000000000000000000000000000000000000000000000000000000000000000000011675000000000000000000000000000000000000000000000001149520000000000000          0000000000000000000000000000000000000000000000000010000131
100000000000000001202500017727X28472321      0000000000426608800000000000010000001   027000000 0000000000 1806030311          00000000000010000001000000000000000300734104400000403110000180000000000000000000000000000000000000000000000000000000000000000000000000003007000000000000000000000000000000000000000000000000282720000000000000          0000000000000000000000000000000000000000000000000010000132
100000000000000001202500017727X28472321      0000000000426614500000000000010000001   027000000 0000000000 1806030311          00000000000010000001000000000000001028434103680000403110000180000000000000000000000000000000000000000000000000000000000000000000000000010284000000000000000000000000000000000000000000000001010420000000000000          0000000000000000000000000000000000000000000000000010000133
100000000000000001202500017727X28472321      0000000000426616100000000000010000001   027000000 0000000000 1806030311          00000000000010000001000000000000000684234107450000403110000180000000000000000000000000000000000000000000000000000000000000000000000000006842000000000000000000000000000000000000000000000000666220000000000000          0000000000000000000000000000000000000000000000000010000134
100000000000000001202500017727X28472321      0000000000426617000000000000010000001   027000000 0000000000 1806030311          00000000000010000001000000000000000100303302350000403110000180000000000000000000000000000000000000000000000000000000000000000000000000001003000000000000000000000000000000000000000000000000082320000000000000          0000000000000000000000000000000000000000000000000010000135
100000000000000001202500017727X28472321      0000000000426619800000000000010000001   027000000 0000000000 1806030311          00000000000010000001000000000000001355234185710000403110000180000000000000000000000000000000000000000000000000000000000000000000000000013552000000000000000000000000000000000000000000000001337220000000000000          0000000000000000000000000000000000000000000000000010000136
100000000000000001202500017727X28472321      0000000000426633000000000000010000001   027000000 0000000000 1806030311          00000000000010000001000000000000000767923738570000403110000180000000000000000000000000000000000000000000000000000000000000000000000000007679000000000000000000000000000000000000000000000000749920000000000000          0000000000000000000000000000000000000000000000000010000137
100000000000000001202500017727X28472321      0000000000426640500000000000010000001   027000000 0000000000 1806030311          00000000000010000001000000000000001018623738570000403110000180000000000000000000000000000000000000000000000000000000000000000000000000010186000000000000000000000000000000000000000000000001000620000000000000          0000000000000000000000000000000000000000000000000010000138
100000000000000001202500017727X28472321      0000000000426642900000000000010000001   027000000 0000000000 1806030311          00000000000010000001000000000000000168103333720000403110000180000000000000000000000000000000000000000000000000000000000000000000000000001681000000000000000000000000000000000000000000000000150120000000000000          0000000000000000000000000000000000000000000000000010000139
100000000000000001202500017727X28472321      0000000000426644100000000000010000001   027000000 0000000000 1806030311          00000000000010000001000000000000000599734100470000403110000180000000000000000000000000000000000000000000000000000000000000000000000000005997000000000000000000000000000000000000000000000000581720000000000000          0000000000000000000000000000000000000000000000000010000140
100000000000000001202500017727X28472321      0000000000426652800000000000010000001   027000000 0000000000 1806030311          00000000000010000001000000000000000074034180990000403110000180000000000000000000000000000000000000000000000000000000000000000000000000000740000000000000000000000000000000000000000000000000056020000000000000          0000000000000000000000000000000000000000000000000010000141
100000000000000001202500017727X28472321      0000000000426653500000000000010000001   027000000 0000000000 1806030311          00000000000010000001000000000000000816923711910000403110000180000000000000000000000000000000000000000000000000000000000000000000000000008169000000000000000000000000000000000000000000000000798920000000000000          0000000000000000000000000000000000000000000000000010000142
100000000000000001202500017727X28472321      0000000000426663600000000000010000001   027000000 0000000000 1806030311          00000000000010000001000000000000000613134171960000403110000180000000000000000000000000000000000000000000000000000000000000000000000000006131000000000000000000000000000000000000000000000000595120000000000000          0000000000000000000000000000000000000000000000000010000143
100000000000000001202500017727X28472321      0000000000426665700000000000010000001   027000000 0000000000 1806030311          00000000000010000001000000000000000182734107450000403110000180000000000000000000000000000000000000000000000000000000000000000000000000001827000000000000000000000000000000000000000000000000164720000000000000          0000000000000000000000000000000000000000000000000010000144
100000000000000001202500017727X28472321      0000000000426666000000000000010000001   027000000 0000000000 1806030311          00000000000010000001000000000000000136534101700000403110000180000000000000000000000000000000000000000000000000000000000000000000000000001365000000000000000000000000000000000000000000000000118520000000000000          0000000000000000000000000000000000000000000000000010000145
100000000000000001202500017727X28472321      0000000000426667600000000000010000001   027000000 0000000000 1806030311          00000000000010000001000000000000001297634100670000403110000180000000000000000000000000000000000000000000000000000000000000000000000000012976000000000000000000000000000000000000000000000001279620000000000000          0000000000000000000000000000000000000000000000000010000146
100000000000000001202500017727X28472321      0000000000426677600000000000010000001   027000000 0000000000 1806030311          00000000000010000001000000000000000077234100720000403110000180000000000000000000000000000000000000000000000000000000000000000000000000000772000000000000000000000000000000000000000000000000059220000000000000          0000000000000000000000000000000000000000000000000010000147
100000000000000001202500017727X28472321      0000000000426679200000000000010000001   027000000 0000000000 1806030311          00000000000010000001000000000000000567923738570000403110000180000000000000000000000000000000000000000000000000000000000000000000000000005679000000000000000000000000000000000000000000000000549920000000000000          0000000000000000000000000000000000000000000000000010000148
100000000000000001202500017727X28472321      0000000000426684100000000000010000001   027000000 0000000000 1806030311          00000000000010000001000000000000000708423738570000403110000180000000000000000000000000000000000000000000000000000000000000000000000000007084000000000000000000000000000000000000000000000000690420000000000000          0000000000000000000000000000000000000000000000000010000149
100000000000000001202500017727X28472321      0000000000426686400000000000010000001   027000000 0000000000 1806030311          00000000000010000001000000000000001928139903190000403110000180000000000000000000000000000000000000000000000000000000000000000000000000019281000000000000000000000000000000000000000000000001910120000000000000          0000000000000000000000000000000000000000000000000010000150
100000000000000001202500017727X28472321      0000000000426693000000000000010000001   027000000 0000000000 1806030311          00000000000010000001000000000000000899223738570000403110000180000000000000000000000000000000000000000000000000000000000000000000000000008992000000000000000000000000000000000000000000000000881220000000000000          0000000000000000000000000000000000000000000000000010000151
100000000000000001202500017727X28472321      0000000000426694500000000000010000001   027000000 0000000000 1806030311          00000000000010000001000000000000000658434107450000403110000180000000000000000000000000000000000000000000000000000000000000000000000000006584000000000000000000000000000000000000000000000000640420000000000000          0000000000000000000000000000000000000000000000000010000152
100000000000000001202500017727X28472321      0000000000426708100000000000010000001   027000000 0000000000 1806030311          00000000000010000001000000000000000931823738570000403110000180000000000000000000000000000000000000000000000000000000000000000000000000009318000000000000000000000000000000000000000000000000913820000000000000          0000000000000000000000000000000000000000000000000010000153
100000000000000001202500017727X28472321      0000000000426716300000000000010000001   027000000 0000000000 1806030311          00000000000010000001000000000000000815734107450000403110000180000000000000000000000000000000000000000000000000000000000000000000000000008157000000000000000000000000000000000000000000000000797720000000000000          0000000000000000000000000000000000000000000000000010000154
100000000000000001202500017727X28472321      0000000000426718700000000000010000001   027000000 0000000000 1806030311          00000000000010000001000000000000001056839903450000403110000180000000000000000000000000000000000000000000000000000000000000000000000000010568000000000000000000000000000000000000000000000001038820000000000000          0000000000000000000000000000000000000000000000000010000155
100000000000000001202500017727X28472321      0000000000426721300000000000010000001   027000000 0000000000 1806030311          00000000000010000001000000000000001262334107450000403110000180000000000000000000000000000000000000000000000000000000000000000000000000012623000000000000000000000000000000000000000000000001244320000000000000          0000000000000000000000000000000000000000000000000010000156
100000000000000001202500017727X28472321      0000000000426729100000000000010000001   027000000 0000000000 1806030311          00000000000010000001000000000000000490239903190000403110000180000000000000000000000000000000000000000000000000000000000000000000000000004902000000000000000000000000000000000000000000000000472220000000000000          0000000000000000000000000000000000000000000000000010000157
100000000000000001202500017727X28472321      0000000000426733000000000000010000001   027000000 0000000000 1806030311          00000000000010000001000000000000000731023737900000403110000180000000000000000000000000000000000000000000000000000000000000000000000000007310000000000000000000000000000000000000000000000000713020000000000000          0000000000000000000000000000000000000000000000000010000158
100000000000000001202500017727X28472321      0000000000426734000000000000010000001   027000000 0000000000 1806030311          00000000000010000001000000000000001133123738570000403110000180000000000000000000000000000000000000000000000000000000000000000000000000011331000000000000000000000000000000000000000000000001115120000000000000          0000000000000000000000000000000000000000000000000010000159
100000000000000001202500017727X28472321      0000000000426751400000000000010000001   027000000 0000000000 1806030311          00000000000010000001000000000000001207223738570000403110000180000000000000000000000000000000000000000000000000000000000000000000000000012072000000000000000000000000000000000000000000000001189220000000000000          0000000000000000000000000000000000000000000000000010000160
100000000000000001202500017727X28472321      0000000000426755400000000000010000001   027000000 0000000000 1806030311          00000000000010000001000000000000000979523738570000403110000180000000000000000000000000000000000000000000000000000000000000000000000000009795000000000000000000000000000000000000000000000000961520000000000000          0000000000000000000000000000000000000000000000000010000161
100000000000000001202500017727X28472321      0000000000426755500000000000010000001   027000000 0000000000 1806030311          00000000000010000001000000000000000938523738570000403110000180000000000000000000000000000000000000000000000000000000000000000000000000009385000000000000000000000000000000000000000000000000920520000000000000          0000000000000000000000000000000000000000000000000010000162
100000000000000001202500017727X28472321      0000000000426759800000000000010000001   027000000 0000000000 1806030311          00000000000010000001000000000000000911223738570000403110000180000000000000000000000000000000000000000000000000000000000000000000000000009112000000000000000000000000000000000000000000000000893220000000000000          0000000000000000000000000000000000000000000000000010000163
100000000000000001202500017727X28472321      0000000000426764600000000000010000001   027000000 0000000000 1806030311          00000000000010000001000000000000000528523737900000403110000180000000000000000000000000000000000000000000000000000000000000000000000000005285000000000000000000000000000000000000000000000000510520000000000000          0000000000000000000000000000000000000000000000000010000164
100000000000000001202500017727X28472321      0000000000426767200000000000010000001   027000000 0000000000 1806030311          00000000000010000001000000000000000228023701200000403110000180000000000000000000000000000000000000000000000000000000000000000000000000002280000000000000000000000000000000000000000000000000210020000000000000          0000000000000000000000000000000000000000000000000010000165
100000000000000001202500017727X28472321      0000000000426767600000000000010000001   027000000 0000000000 1806030311          00000000000010000001000000000000000918003333720000403110000180000000000000000000000000000000000000000000000000000000000000000000000000009180000000000000000000000000000000000000000000000000900020000000000000          0000000000000000000000000000000000000000000000000010000166
100000000000000001202500017727X28472321      0000000000426768400000000000010000001   027000000 0000000000 1806030311          00000000000010000001000000000000000077423737900000403110000180000000000000000000000000000000000000000000000000000000000000000000000000000774000000000000000000000000000000000000000000000000059420000000000000          0000000000000000000000000000000000000000000000000010000167
100000000000000001202500017727X28472321      0000000000426769300000000000010000001   027000000 0000000000 1806030311          00000000000010000001000000000000000719723738570000403110000180000000000000000000000000000000000000000000000000000000000000000000000000007197000000000000000000000000000000000000000000000000701720000000000000          0000000000000000000000000000000000000000000000000010000168
100000000000000001202500017727X28472321      0000000000426770100000000000010000001   027000000 0000000000 1806030311          00000000000010000001000000000000000557834107410000403110000180000000000000000000000000000000000000000000000000000000000000000000000000005578000000000000000000000000000000000000000000000000539820000000000000          0000000000000000000000000000000000000000000000000010000169
100000000000000001202500017727X28472321      0000000000426770500000000000010000001   027000000 0000000000 1806030311          00000000000010000001000000000000000306203334060000403110000180000000000000000000000000000000000000000000000000000000000000000000000000003062000000000000000000000000000000000000000000000000288220000000000000          0000000000000000000000000000000000000000000000000010000170
100000000000000001202500017727X28472321      0000000000426790300000000000010000001   027000000 0000000000 1806030311          00000000000010000001000000000000000345234101670000403110000180000000000000000000000000000000000000000000000000000000000000000000000000003452000000000000000000000000000000000000000000000000327220000000000000          0000000000000000000000000000000000000000000000000010000171
100000000000000001202500017727X28472321      0000000000426794700000000000010000001   027000000 0000000000 1806030311          00000000000010000001000000000000000577723738570000403110000180000000000000000000000000000000000000000000000000000000000000000000000000005777000000000000000000000000000000000000000000000000559720000000000000          0000000000000000000000000000000000000000000000000010000172
100000000000000001202500017727X28472321      0000000000426811800000000000010000001   027000000 0000000000 1806030311          00000000000010000001000000000000001070034116610000403110000180000000000000000000000000000000000000000000000000000000000000000000000000010700000000000000000000000000000000000000000000000001052020000000000000          0000000000000000000000000000000000000000000000000010000173
100000000000000001202500017727X28472321      0000000000426815600000000000010000001   027000000 0000000000 1806030311          00000000000010000001000000000000000080803345810000403110000180000000000000000000000000000000000000000000000000000000000000000000000000000808000000000000000000000000000000000000000000000000062820000000000000          0000000000000000000000000000000000000000000000000010000174
100000000000000001202500017727X28472321      0000000000426821700000000000010000001   027000000 0000000000 1806030311          00000000000010000001000000000000000456503345810000403110000180000000000000000000000000000000000000000000000000000000000000000000000000004565000000000000000000000000000000000000000000000000438520000000000000          0000000000000000000000000000000000000000000000000010000175
100000000000000001202500017727X28472321      0000000000426823600000000000010000001   027000000 0000000000 1806030311          00000000000010000001000000000000000575703345500000403110000180000000000000000000000000000000000000000000000000000000000000000000000000005757000000000000000000000000000000000000000000000000557720000000000000          0000000000000000000000000000000000000000000000000010000176
100000000000000001202500017727X28472321      0000000000426828600000000000010000001   027000000 0000000000 1806030311          00000000000010000001000000000000000442434167640000403110000180000000000000000000000000000000000000000000000000000000000000000000000000004424000000000000000000000000000000000000000000000000424420000000000000          0000000000000000000000000000000000000000000000000010000177
100000000000000001202500017727X28472321      0000000000426835800000000000010000001   027000000 0000000000 1806030311          00000000000010000001000000000000000776203345500000403110000180000000000000000000000000000000000000000000000000000000000000000000000000007762000000000000000000000000000000000000000000000000758220000000000000          0000000000000000000000000000000000000000000000000010000178
100000000000000001202500017727X28472321      0000000000426836000000000000010000001   027000000 0000000000 1806030311          00000000000010000001000000000000000848323738570000403110000180000000000000000000000000000000000000000000000000000000000000000000000000008483000000000000000000000000000000000000000000000000830320000000000000          0000000000000000000000000000000000000000000000000010000179
100000000000000001202500017727X28472321      0000000000426847200000000000010000001   027000000 0000000000 1806030311          00000000000010000001000000000000000088523738570000403110000180000000000000000000000000000000000000000000000000000000000000000000000000000885000000000000000000000000000000000000000000000000070520000000000000          0000000000000000000000000000000000000000000000000010000180
100000000000000001202500017727X28472321      0000000000426849600000000000010000001   027000000 0000000000 1806030311          00000000000010000001000000000000000331923700970000403110000180000000000000000000000000000000000000000000000000000000000000000000000000003319000000000000000000000000000000000000000000000000313920000000000000          0000000000000000000000000000000000000000000000000010000181
100000000000000001202500017727X28472321      0000000000426858200000000000010000001   027000000 0000000000 1806030311          00000000000010000001000000000000000656323738570000403110000180000000000000000000000000000000000000000000000000000000000000000000000000006563000000000000000000000000000000000000000000000000638320000000000000          0000000000000000000000000000000000000000000000000010000182
100000000000000001202500017727X28472321      0000000000426866500000000000010000001   027000000 0000000000 1806030311          00000000000010000001000000000000001502234107450000403110000180000000000000000000000000000000000000000000000000000000000000000000000000015022000000000000000000000000000000000000000000000001484220000000000000          0000000000000000000000000000000000000000000000000010000183
100000000000000001202500017727X28472321      0000000000426872700000000000010000001   027000000 0000000000 1806030311          00000000000010000001000000000000000126034103670000403110000180000000000000000000000000000000000000000000000000000000000000000000000000001260000000000000000000000000000000000000000000000000108020000000000000          0000000000000000000000000000000000000000000000000010000184
100000000000000001202500017727X28472321      0000000000426879400000000000010000001   027000000 0000000000 1806030311          00000000000010000001000000000000000998123738570000403110000180000000000000000000000000000000000000000000000000000000000000000000000000009981000000000000000000000000000000000000000000000000980120000000000000          0000000000000000000000000000000000000000000000000010000185
100000000000000001202500017727X28472321      0000000000426883000000000000010000001   027000000 0000000000 1806030311          00000000000010000001000000000000000308034180610000403110000180000000000000000000000000000000000000000000000000000000000000000000000000003080000000000000000000000000000000000000000000000000290020000000000000          0000000000000000000000000000000000000000000000000010000186
100000000000000001202500017727X28472321      0000000000426889200000000000010000001   027000000 0000000000 1806030311          00000000000010000001000000000000000179923737900000403110000180000000000000000000000000000000000000000000000000000000000000000000000000001799000000000000000000000000000000000000000000000000161920000000000000          0000000000000000000000000000000000000000000000000010000187
100000000000000001202500017727X28472321      0000000000426894800000000000010000001   027000000 0000000000 1806030311          00000000000010000001000000000000000257534137410000403110000180000000000000000000000000000000000000000000000000000000000000000000000000002575000000000000000000000000000000000000000000000000239520000000000000          0000000000000000000000000000000000000000000000000010000188
100000000000000001202500017727X28472321      0000000000426906300000000000010000001   027000000 0000000000 1806030311          00000000000010000001000000000000000313003333710000403110000180000000000000000000000000000000000000000000000000000000000000000000000000003130000000000000000000000000000000000000000000000000295020000000000000          0000000000000000000000000000000000000000000000000010000189
100000000000000001202500017727X28472321      0000000000426913800000000000010000001   027000000 0000000000 1806030311          00000000000010000001000000000000000701023738570000403110000180000000000000000000000000000000000000000000000000000000000000000000000000007010000000000000000000000000000000000000000000000000683020000000000000          0000000000000000000000000000000000000000000000000010000190
100000000000000001202500017727X28472321      0000000000426914200000000000010000001   027000000 0000000000 1806030311          00000000000010000001000000000000000390423738570000403110000180000000000000000000000000000000000000000000000000000000000000000000000000003904000000000000000000000000000000000000000000000000372420000000000000          0000000000000000000000000000000000000000000000000010000191
100000000000000001202500017727X28472321      0000000000426917300000000000010000001   027000000 0000000000 1806030311          00000000000010000001000000000000001183634104400000403110000180000000000000000000000000000000000000000000000000000000000000000000000000011836000000000000000000000000000000000000000000000001165620000000000000          0000000000000000000000000000000000000000000000000010000192
100000000000000001202500017727X28472321      0000000000426918500000000000010000001   027000000 0000000000 1806030311          00000000000010000001000000000000000566803333720000403110000180000000000000000000000000000000000000000000000000000000000000000000000000005668000000000000000000000000000000000000000000000000548820000000000000          0000000000000000000000000000000000000000000000000010000193
100000000000000001202500017727X28472321      0000000000426918800000000000010000001   027000000 0000000000 1806030311          00000000000010000001000000000000000709803333720000403110000180000000000000000000000000000000000000000000000000000000000000000000000000007098000000000000000000000000000000000000000000000000691820000000000000          0000000000000000000000000000000000000000000000000010000194
100000000000000001202500017727X28472321      0000000000426919200000000000010000001   027000000 0000000000 1806030311          00000000000010000001000000000000000991023738570000403110000180000000000000000000000000000000000000000000000000000000000000000000000000009910000000000000000000000000000000000000000000000000973020000000000000          0000000000000000000000000000000000000000000000000010000195
100000000000000001202500017727X28472321      0000000000426922500000000000010000001   027000000 0000000000 1806030311          00000000000010000001000000000000000584423738570000403110000180000000000000000000000000000000000000000000000000000000000000000000000000005844000000000000000000000000000000000000000000000000566420000000000000          0000000000000000000000000000000000000000000000000010000196
100000000000000001202500017727X28472321      0000000000426925700000000000010000001   027000000 0000000000 1806030311          00000000000010000001000000000000000281534107470000403110000180000000000000000000000000000000000000000000000000000000000000000000000000002815000000000000000000000000000000000000000000000000263520000000000000          0000000000000000000000000000000000000000000000000010000197
100000000000000001202500017727X28472321      0000000000426926400000000000010000001   027000000 0000000000 1806030311          00000000000010000001000000000000000701303338290000403110000180000000000000000000000000000000000000000000000000000000000000000000000000007013000000000000000000000000000000000000000000000000683320000000000000          0000000000000000000000000000000000000000000000000010000198
100000000000000001202500017727X28472321      0000000000426930400000000000010000001   027000000 0000000000 1806030311          00000000000010000001000000000000000135723737900000403110000180000000000000000000000000000000000000000000000000000000000000000000000000001357000000000000000000000000000000000000000000000000117720000000000000          0000000000000000000000000000000000000000000000000010000199
100000000000000001202500017727X28472321      0000000000426937400000000000010000001   027000000 0000000000 1806030311          00000000000010000001000000000000000122223738570000403110000180000000000000000000000000000000000000000000000000000000000000000000000000001222000000000000000000000000000000000000000000000000104220000000000000          0000000000000000000000000000000000000000000000000010000200
100000000000000001202500017727X28472321      0000000000426940600000000000010000001   027000000 0000000000 1806030311          00000000000010000001000000000000000960834129700000403110000180000000000000000000000000000000000000000000000000000000000000000000000000009608000000000000000000000000000000000000000000000000942820000000000000          0000000000000000000000000000000000000000000000000010000201
100000000000000001202500017727X28472321      0000000000426944800000000000010000001   027000000 0000000000 1806030311          00000000000010000001000000000000000795134172150000403110000180000000000000000000000000000000000000000000000000000000000000000000000000007951000000000000000000000000000000000000000000000000777120000000000000          0000000000000000000000000000000000000000000000000010000202
100000000000000001202500017727X28472321      0000000000426956200000000000010000001   027000000 0000000000 1806030311          00000000000010000001000000000000000171634107450000403110000180000000000000000000000000000000000000000000000000000000000000000000000000001716000000000000000000000000000000000000000000000000153620000000000000          0000000000000000000000000000000000000000000000000010000203
100000000000000001202500017727X28472321      0000000000426956600000000000010000001   027000000 0000000000 1806030311          00000000000010000001000000000000000328734107450000403110000180000000000000000000000000000000000000000000000000000000000000000000000000003287000000000000000000000000000000000000000000000000310720000000000000          0000000000000000000000000000000000000000000000000010000204
100000000000000001202500017727X28472321      0000000000426956800000000000010000001   027000000 0000000000 1806030311          00000000000010000001000000000000000963623738570000403110000180000000000000000000000000000000000000000000000000000000000000000000000000009636000000000000000000000000000000000000000000000000945620000000000000          0000000000000000000000000000000000000000000000000010000205
100000000000000001202500017727X28472321      0000000000426958200000000000010000001   027000000 0000000000 1806030311          00000000000010000001000000000000000102634103830000403110000180000000000000000000000000000000000000000000000000000000000000000000000000001026000000000000000000000000000000000000000000000000084620000000000000          0000000000000000000000000000000000000000000000000010000206
100000000000000001202500017727X28472321      0000000000426963400000000000010000001   027000000 0000000000 1806030311          00000000000010000001000000000000000074010441410000403110000180000000000000000000000000000000000000000000000000000000000000000000000000000740000000000000000000000000000000000000000000000000056020000000000000          0000000000000000000000000000000000000000000000000010000207
100000000000000001202500017727X28472321      0000000000426974200000000000010000001   027000000 0000000000 1806030311          00000000000010000001000000000000000710034100370000403110000180000000000000000000000000000000000000000000000000000000000000000000000000007100000000000000000000000000000000000000000000000000692020000000000000          0000000000000000000000000000000000000000000000000010000208
100000000000000001202500017727X28472321      0000000000426985900000000000010000001   027000000 0000000000 1806030311          00000000000010000001000000000000000511423738570000403110000180000000000000000000000000000000000000000000000000000000000000000000000000005114000000000000000000000000000000000000000000000000493420000000000000          0000000000000000000000000000000000000000000000000010000209
100000000000000001202500017727X28472321      0000000000426986300000000000010000001   027000000 0000000000 1806030311          00000000000010000001000000000000000685423738570000403110000180000000000000000000000000000000000000000000000000000000000000000000000000006854000000000000000000000000000000000000000000000000667420000000000000          0000000000000000000000000000000000000000000000000010000210
100000000000000001202500017727X28472321      0000000000426990300000000000010000001   027000000 0000000000 1806030311          00000000000010000001000000000000000257423737900000403110000180000000000000000000000000000000000000000000000000000000000000000000000000002574000000000000000000000000000000000000000000000000239420000000000000          0000000000000000000000000000000000000000000000000010000211
100000000000000001202500017727X28472321      0000000000426990600000000000010000001   027000000 0000000000 1806030311          00000000000010000001000000000000000436823738570000403110000180000000000000000000000000000000000000000000000000000000000000000000000000004368000000000000000000000000000000000000000000000000418820000000000000          0000000000000000000000000000000000000000000000000010000212
100000000000000001202500017727X28472321      0000000000426991100000000000010000001   027000000 0000000000 1806030311          00000000000010000001000000000000000085023737900000403110000180000000000000000000000000000000000000000000000000000000000000000000000000000850000000000000000000000000000000000000000000000000067020000000000000          0000000000000000000000000000000000000000000000000010000213
100000000000000001202500017727X28472321      0000000000426991500000000000010000001   027000000 0000000000 1806030311          00000000000010000001000000000000000319923737900000403110000180000000000000000000000000000000000000000000000000000000000000000000000000003199000000000000000000000000000000000000000000000000301920000000000000          0000000000000000000000000000000000000000000000000010000214
100000000000000001202500017727X28472321      0000000000426996600000000000010000001   027000000 0000000000 1806030311          00000000000010000001000000000000000139423738570000403110000180000000000000000000000000000000000000000000000000000000000000000000000000001394000000000000000000000000000000000000000000000000121420000000000000          0000000000000000000000000000000000000000000000000010000215
100000000000000001202500017727X28472321      0000000000426997400000000000010000001   027000000 0000000000 1806030311          00000000000010000001000000000000000135510410070000403110000180000000000000000000000000000000000000000000000000000000000000000000000000001355000000000000000000000000000000000000000000000000117520000000000000          0000000000000000000000000000000000000000000000000010000216
100000000000000001202500017727X28472321      0000000000427002200000000000010000001   027000000 0000000000 1806030311          00000000000010000001000000000000000798823738570000403110000180000000000000000000000000000000000000000000000000000000000000000000000000007988000000000000000000000000000000000000000000000000780820000000000000          0000000000000000000000000000000000000000000000000010000217
100000000000000001202500017727X28472321      0000000000427002900000000000010000001   027000000 0000000000 1806030311          00000000000010000001000000000000000599423738570000403110000180000000000000000000000000000000000000000000000000000000000000000000000000005994000000000000000000000000000000000000000000000000581420000000000000          0000000000000000000000000000000000000000000000000010000218
100000000000000001202500017727X28472321      0000000000427006700000000000010000001   027000000 0000000000 1806030311          00000000000010000001000000000000000197523737900000403110000180000000000000000000000000000000000000000000000000000000000000000000000000001975000000000000000000000000000000000000000000000000179520000000000000          0000000000000000000000000000000000000000000000000010000219
100000000000000001202500017727X28472321      0000000000427008600000000000010000001   027000000 0000000000 1806030311          00000000000010000001000000000000000656723738570000403110000180000000000000000000000000000000000000000000000000000000000000000000000000006567000000000000000000000000000000000000000000000000638720000000000000          0000000000000000000000000000000000000000000000000010000220
100000000000000001202500017727X28472321      0000000000427008700000000000010000001   027000000 0000000000 1806030311          00000000000010000001000000000000000562023738570000403110000180000000000000000000000000000000000000000000000000000000000000000000000000005620000000000000000000000000000000000000000000000000544020000000000000          0000000000000000000000000000000000000000000000000010000221
100000000000000001202500017727X28472321      0000000000427010500000000000010000001   027000000 0000000000 1806030311          00000000000010000001000000000000000776923738570000403110000180000000000000000000000000000000000000000000000000000000000000000000000000007769000000000000000000000000000000000000000000000000758920000000000000          0000000000000000000000000000000000000000000000000010000222
100000000000000001202500017727X28472321      0000000000427013200000000000010000001   027000000 0000000000 1806030311          00000000000010000001000000000000000341123738570000403110000180000000000000000000000000000000000000000000000000000000000000000000000000003411000000000000000000000000000000000000000000000000323120000000000000          0000000000000000000000000000000000000000000000000010000223
100000000000000001202500017727X28472321      0000000000427027000000000000010000001   027000000 0000000000 1806030311          00000000000010000001000000000000000671123731030000403110000180000000000000000000000000000000000000000000000000000000000000000000000000006711000000000000000000000000000000000000000000000000653120000000000000          0000000000000000000000000000000000000000000000000010000224
100000000000000001202500017727X28472321      0000000000427047900000000000010000001   027000000 0000000000 1806030311          00000000000010000001000000000000000673623738570000403110000180000000000000000000000000000000000000000000000000000000000000000000000000006736000000000000000000000000000000000000000000000000655620000000000000          0000000000000000000000000000000000000000000000000010000225
100000000000000001202500017727X28472321      0000000000427052800000000000010000001   027000000 0000000000 1806030311          00000000000010000001000000000000000802610413670000403110000180000000000000000000000000000000000000000000000000000000000000000000000000008026000000000000000000000000000000000000000000000000784620000000000000          0000000000000000000000000000000000000000000000000010000226
100000000000000001202500017727X28472321      0000000000427068000000000000010000001   027000000 0000000000 1806030311          00000000000010000001000000000000000845123738570000403110000180000000000000000000000000000000000000000000000000000000000000000000000000008451000000000000000000000000000000000000000000000000827120000000000000          0000000000000000000000000000000000000000000000000010000227
100000000000000001202500017727X28472321      0000000000427073600000000000010000001   027000000 0000000000 1806030311          00000000000010000001000000000000000253134102520000403110000180000000000000000000000000000000000000000000000000000000000000000000000000002531000000000000000000000000000000000000000000000000235120000000000000          0000000000000000000000000000000000000000000000000010000228
100000000000000001202500017727X28472321      0000000000427076400000000000010000001   027000000 0000000000 1806030311          00000000000010000001000000000000001478034129990000403110000180000000000000000000000000000000000000000000000000000000000000000000000000014780000000000000000000000000000000000000000000000001460020000000000000          0000000000000000000000000000000000000000000000000010000229
100000000000000001202500017727X28472321      0000000000427077000000000000010000001   027000000 0000000000 1806030311          00000000000010000001000000000000000494403345500000403110000180000000000000000000000000000000000000000000000000000000000000000000000000004944000000000000000000000000000000000000000000000000476420000000000000          0000000000000000000000000000000000000000000000000010000230
100000000000000001202500017727X28472321      0000000000427078900000000000010000001   027000000 0000000000 1806030311          00000000000010000001000000000000000232234104450000403110000180000000000000000000000000000000000000000000000000000000000000000000000000002322000000000000000000000000000000000000000000000000214220000000000000          0000000000000000000000000000000000000000000000000010000231
100000000000000001202500017727X28472321      0000000000427084700000000000010000001   027000000 0000000000 1806030311          00000000000010000001000000000000001709023722820000403110000180000000000000000000000000000000000000000000000000000000000000000000000000017090000000000000000000000000000000000000000000000001691020000000000000          0000000000000000000000000000000000000000000000000010000232
100000000000000001202500017727X28472321      0000000000427087600000000000010000001   027000000 0000000000 1806030311          00000000000010000001000000000000000074103345810000403110000180000000000000000000000000000000000000000000000000000000000000000000000000000741000000000000000000000000000000000000000000000000056120000000000000          0000000000000000000000000000000000000000000000000010000233
100000000000000001202500017727X28472321      0000000000427088600000000000010000001   027000000 0000000000 1806030311          00000000000010000001000000000000001224134172150000403110000180000000000000000000000000000000000000000000000000000000000000000000000000012241000000000000000000000000000000000000000000000001206120000000000000          0000000000000000000000000000000000000000000000000010000234
100000000000000001202500017727X28472321      0000000000427090800000000000010000001   027000000 0000000000 1806030311          00000000000010000001000000000000000692823738570000403110000180000000000000000000000000000000000000000000000000000000000000000000000000006928000000000000000000000000000000000000000000000000674820000000000000          0000000000000000000000000000000000000000000000000010000235
100000000000000001202500017727X28472321      0000000000427093800000000000010000001   027000000 0000000000 1806030311          00000000000010000001000000000000001559334187810000403110000180000000000000000000000000000000000000000000000000000000000000000000000000015593000000000000000000000000000000000000000000000001541320000000000000          0000000000000000000000000000000000000000000000000010000236
100000000000000001202500017727X28472321      0000000000427095400000000000010000001   027000000 0000000000 1806030311          00000000000010000001000000000000001029823738570000403110000180000000000000000000000000000000000000000000000000000000000000000000000000010298000000000000000000000000000000000000000000000001011820000000000000          0000000000000000000000000000000000000000000000000010000237
100000000000000001202500017727X28472321      0000000000427098500000000000010000001   027000000 0000000000 1806030311          00000000000010000001000000000000000990123730900000403110000180000000000000000000000000000000000000000000000000000000000000000000000000009901000000000000000000000000000000000000000000000000972120000000000000          0000000000000000000000000000000000000000000000000010000238
100000000000000001202500017727X28472321      0000000000427102600000000000010000001   027000000 0000000000 1806030311          00000000000010000001000000000000000829023737900000403110000180000000000000000000000000000000000000000000000000000000000000000000000000008290000000000000000000000000000000000000000000000000811020000000000000          0000000000000000000000000000000000000000000000000010000239
100000000000000001202500017727X28472321      0000000000427111000000000000010000001   027000000 0000000000 1806030311          00000000000010000001000000000000000235023700990000403110000180000000000000000000000000000000000000000000000000000000000000000000000000002350000000000000000000000000000000000000000000000000217020000000000000          0000000000000000000000000000000000000000000000000010000240
100000000000000001202500017727X28472321      0000000000427111200000000000010000001   027000000 0000000000 1806030311          00000000000010000001000000000000000644223738570000403110000180000000000000000000000000000000000000000000000000000000000000000000000000006442000000000000000000000000000000000000000000000000626220000000000000          0000000000000000000000000000000000000000000000000010000241
100000000000000001202500017727X28472321      0000000000427114400000000000010000001   027000000 0000000000 1806030311          00000000000010000001000000000000001775123738570000403110000180000000000000000000000000000000000000000000000000000000000000000000000000017751000000000000000000000000000000000000000000000001757120000000000000          0000000000000000000000000000000000000000000000000010000242
100000000000000001202500017727X28472321      0000000000427120000000000000010000001   027000000 0000000000 1806030311          00000000000010000001000000000000000604634137630000403110000180000000000000000000000000000000000000000000000000000000000000000000000000006046000000000000000000000000000000000000000000000000586620000000000000          0000000000000000000000000000000000000000000000000010000243
100000000000000001202500017727X28472321      0000000000427121000000000000010000001   027000000 0000000000 1806030311          00000000000010000001000000000000000080834172150000403110000180000000000000000000000000000000000000000000000000000000000000000000000000000808000000000000000000000000000000000000000000000000062820000000000000          0000000000000000000000000000000000000000000000000010000244
100000000000000001202500017727X28472321      0000000000427122400000000000010000001   027000000 0000000000 1806030311          00000000000010000001000000000000000729134116600000403110000180000000000000000000000000000000000000000000000000000000000000000000000000007291000000000000000000000000000000000000000000000000711120000000000000          0000000000000000000000000000000000000000000000000010000245
100000000000000001202500017727X28472321      0000000000427136000000000000010000001   027000000 0000000000 1806030311          00000000000010000001000000000000000410203345810000403110000180000000000000000000000000000000000000000000000000000000000000000000000000004102000000000000000000000000000000000000000000000000392220000000000000          0000000000000000000000000000000000000000000000000010000246
100000000000000001202500017727X28472321      0000000000427139100000000000010000001   027000000 0000000000 1806030311          00000000000010000001000000000000000170623738570000403110000180000000000000000000000000000000000000000000000000000000000000000000000000001706000000000000000000000000000000000000000000000000152620000000000000          0000000000000000000000000000000000000000000000000010000247
100000000000000001202500017727X28472321      0000000000427143000000000000010000001   027000000 0000000000 1806030311          00000000000010000001000000000000000306234100470000403110000180000000000000000000000000000000000000000000000000000000000000000000000000003062000000000000000000000000000000000000000000000000288220000000000000          0000000000000000000000000000000000000000000000000010000248
100000000000000001202500017727X28472321      0000000000427152400000000000010000001   027000000 0000000000 1806030311          00000000000010000001000000000000002092539903190000403110000180000000000000000000000000000000000000000000000000000000000000000000000000020925000000000000000000000000000000000000000000000002074520000000000000          0000000000000000000000000000000000000000000000000010000249
