10400000         201274648000119200506              00249600300050008840FED NAC TRAB EDIF CONDOMINIOS CAIXA ECONOMICA FEDERAL                 20505201502213600180506000000                                                                     
10400011T01  030 2001274648000119200506              00249600300050008840FED NAC TRAB EDIF CONDOMINIOS 200506FED NAC TRAB EDIF CONDOMINIOS     300562CONATEC                           000000000505201500000000                                 
1040001300001T 0600249600300050008840D00000000000000000001               30042015000000000000000399009369                         090000000000541632104926414000000000097005068277000000541632110000000000000000004810000000000                 
1040001300002U 0600000000000000000000000000000000000000000517000000000000517000000000002585200000000001551200000000000000000000000000000030042015060520151900        000000000000000CIP COMPENSACAO               811                           
1040001300003T 0600249600300050008840D00000000000000000001               30042015000000000000000237031887                         090000000000541644104916414000000000097005068277000000541644110000000000000000004810000000000                 
1040001300004U 0600000000000000000000000000000000000000000146000000000000146000000000000730000000000000438000000000000000000000000000000030042015060520151900        000000000000000CIP COMPENSACAO               811                           
1040001300005T 0600249600300050008840D00000000000000000001               30042015000000000000000237019771                         090000000000541650104916414000000000097005068277000000541650110000000000000000004810000000000                 
1040001300006U 0600000000000000000000000000000000000000000779500000000000779500000000003897500000000002338500000000000000000000000000000030042015060520151900        000000000000000CIP COMPENSACAO               811                           
1040001300007T 0600249600300050008840D00000000000000000001               30042015000000000000000422000302                         090000000000541651104976414000000000097005068277000000541651110000000000000000004810000000000                 
1040001300008U 0600000000000000000000000000000000000000000180900000000000180900000000000904300000000000542500000000000000000000000000000030042015060520151900        000000000000000CIP COMPENSACAO               811                           
1040001300009T 0600249600300050008840D00000000000000000001               30042015000000000000000237027707                         090000000000541663104956414000000000097005068277000000541663110000000000000000004810000000000                 
1040001300010U 0600000000000000000000000000000000000000002650300000000002650300000000013251400000000007950800000000000000000000000000000030042015060520151900        000000000000000CIP COMPENSACAO               811                           
1040001300011T 0600249600300050008840D00000000000000000001               30042015000000000000000237019771                         090000000000541667104916414000000000097005068277000000541667110000000000000000004810000000000                 
1040001300012U 0600000000000000000000000000000000000000000300800000000000300800000000001504000000000000902400000000000000000000000000000030042015060520151900        000000000000000CIP COMPENSACAO               811                           
1040001300013T 0600249600300050008840D00000000000000000001               30042015000000000000000341074284                         090000000000541673104916414000000000097005068277000000541673110000000000000000004810000000000                 
1040001300014U 0600000000000000000000000000000000000000000261400000000000261400000000001307000000000000784200000000000000000000000000000030042015060520151900        000000000000000CIP COMPENSACAO               811                           
1040001300015T 0600249600300050008840D00000000000000000001               30042015000000000000000237001481                         090000000000541691104996414000000000097005068277000000541691110000000000000000004810000000000                 
1040001300016U 0600000000000000000000000000000000000000000554200000000000554200000000002771200000000001662800000000000000000000000000000030042015060520151900        000000000000000CIP COMPENSACAO               811                           
1040001300017T 0600249600300050008840D00000000000000000001               30042015000000000000000399009369                         090000000000541692104956414000000000097005068277000000541692110000000000000000004810000000000                 
1040001300018U 0600000000000000000000000000000000000000000283300000000000283300000000001416700000000000850100000000000000000000000000000030042015060520151900        000000000000000CIP COMPENSACAO               811                           
1040001300019T 0600249600300050008840D00000000000000000001               30042015000000000000000341006483                         090000000000541697104976414000000000097005068277000000541697110000000000000000004810000000000                 
1040001300020U 0600000000000000000000000000000000000000000292500000000000292500000000001462600000000000877600000000000000000000000000000030042015060520151900        000000000000000CIP COMPENSACAO               811                           
1040001300021T 0600249600300050008840D00000000000000000001               30042015000000000000000341074284                         090000000000541710104936414000000000097005068277000000541710110000000000000000004810000000000                 
1040001300022U 0600000000000000000000000000000000000000000072300000000000072300000000000361700000000000217100000000000000000000000000000030042015060520151900        000000000000000CIP COMPENSACAO               811                           
1040001300023T 0600249600300050008840D00000000000000000001               30042015000000000000000001002941                         090000000000541723104986414000000000097005068277000000541723110000000000000000004810000000000                 
1040001300024U 0600000000000000000000000000000000000000000069100000000000069100000000000345700000000000207500000000000000000000000000000030042015060520151900        000000000000000CIP COMPENSACAO               811                           
1040001300025T 0600249600300050008840D00000000000000000001               30042015000000000000000341064130                         090000000000541731104916414000000000097005068277000000541731110000000000000000004810000000000                 
1040001300026U 0600000000000000000000000000000000000000000077500000000000077500000000000387600000000000232600000000000000000000000000000030042015060520151900        000000000000000CIP COMPENSACAO               811                           
1040001300027T 0600249600300050008840D00000000000000000001               30042015000000000000000341001422                         090000000000541776104946414000000000097005068277000000541776110000000000000000004810000000000                 
1040001300028U 0600000000000000000000000000000000000000000075500000000000075500000000000377500000000000226500000000000000000000000000000030042015060520151900        000000000000000CIP COMPENSACAO               811                           
1040001300029T 0600249600300050008840D00000000000000000001               30042015000000000000000341048283                         090000000000541792104916414000000000097005068277000000541792110000000000000000004810000000000                 
1040001300030U 0600000000000000000000000000000000000000000676900000000000676900000000003384300000000002030500000000000000000000000000000030042015060520151900        000000000000000CIP COMPENSACAO               811                           
1040001300031T 0600249600300050008840D00000000000000000001               30042015000000000000000341007358                         090000000000541804104986414000000000097005068277000000541804110000000000000000004810000000000                 
1040001300032U 0600000000000000000000000000000000000000001363700000000001363700000000006818600000000004091200000000000000000000000000000030042015060520151900        000000000000000CIP COMPENSACAO               811                           
1040001300033T 0600249600300050008840D00000000000000000001               30042015000000000000000341055727                         090000000000541816104966414000000000097005068277000000541816110000000000000000004810000000000                 
1040001300034U 0600000000000000000000000000000000000000002778600000000002778600000000013893100000000008335900000000000000000000000000000030042015060520151900        000000000000000CIP COMPENSACAO               811                           
1040001300035T 0600249600300050008840D00000000000000000001               30042015000000000000000341003557                         090000000000541826104916414000000000097005068277000000541826110000000000000000004810000000000                 
1040001300036U 0600000000000000000000000000000000000000000739400000000000739400000000003697000000000002218200000000000000000000000000000030042015060520151900        000000000000000CIP COMPENSACAO               811                           
1040001300037T 0600249600300050008840D00000000000000000001               30042015000000000000000033044156                         090000000000541829104916414000000000097005068277000000541829110000000000000000004810000000000                 
1040001300038U 0600000000000000000000000000000000000000000075500000000000075500000000000377600000000000226600000000000000000000000000000030042015060520151900        000000000000000CIP COMPENSACAO               811                           
1040001300039T 0600249600300050008840D00000000000000000001               30042015000000000000000341000272                         090000000000541834104946414000000000097005068277000000541834110000000000000000004810000000000                 
1040001300040U 0600000000000000000000000000000000000000002343200000000002343200000000011715800000000007029400000000000000000000000000000030042015060520151900        000000000000000CIP COMPENSACAO               811                           
1040001300041T 0600249600300050008840D00000000000000000001               30042015000000000000000341001422                         090000000000541842104976414000000000097005068277000000541842110000000000000000004810000000000                 
1040001300042U 0600000000000000000000000000000000000000004410300000000004410300000000022051500000000013230900000000000000000000000000000030042015060520151900        000000000000000CIP COMPENSACAO               811                           
1040001300043T 0600249600300050008840D00000000000000000001               30042015000000000000000033003522                         090000000000541844104916414000000000097005068277000000541844110000000000000000004810000000000                 
1040001300044U 0600000000000000000000000000000000000000000692600000000000692600000000003462800000000002077600000000000000000000000000000030042015060520151900        000000000000000CIP COMPENSACAO               811                           
1040001300045T 0600249600300050008840D00000000000000000001               30042015000000000000000341007358                         090000000000541848104956414000000000097005068277000000541848110000000000000000004810000000000                 
1040001300046U 0600000000000000000000000000000000000000000104300000000000104300000000000521300000000000312700000000000000000000000000000030042015060520151900        000000000000000CIP COMPENSACAO               811                           
1040001300047T 0600249600300050008840D00000000000000000001               30042015000000000000000341047406                         090000000000541853104996414000000000097005068277000000541853110000000000000000004810000000000                 
1040001300048U 0600000000000000000000000000000000000000000214200000000000214200000000001070900000000000642500000000000000000000000000000030042015060520151900        000000000000000CIP COMPENSACAO               811                           
1040001300049T 0600249600300050008840D00000000000000000001               30042015000000000000000237001015                         090000000000541856104986414000000000097005068277000000541856110000000000000000004810000000000                 
1040001300050U 0600000000000000000000000000000000000000001521400000000001521400000000007607200000000004564400000000000000000000000000000030042015060520151900        000000000000000CIP COMPENSACAO               811                           
1040001300051T 0600249600300050008840D00000000000000000001               30042015000000000000000237017418                         090000000000541864104916414000000000097005068277000000541864110000000000000000004810000000000                 
1040001300052U 0600000000000000000000000000000000000000004170100000000004170100000000020850400000000012510200000000000000000000000000000030042015060520151900        000000000000000CIP COMPENSACAO               811                           
1040001300053T 0600249600300050008840D00000000000000000001               30042015000000000000000237035041                         090000000000541870104916414000000000097005068277000000541870110000000000000000004810000000000                 
1040001300054U 0600000000000000000000000000000000000000000221400000000000221400000000001107000000000000664200000000000000000000000000000030042015060520151900        000000000000000CIP COMPENSACAO               811                           
1040001300055T 0600249600300050008840D00000000000000000001               30042015000000000000000237014516                         090000000000541886104946414000000000097005068277000000541886110000000000000000004810000000000                 
1040001300056U 0600000000000000000000000000000000000000000399700000000000399700000000001998600000000001199200000000000000000000000000000030042015060520151900        000000000000000CIP COMPENSACAO               811                           
1040001300057T 0600249600300050008840D00000000000000000001               30042015000000000000000237035041                         090000000000541888104976414000000000097005068277000000541888110000000000000000004810000000000                 
1040001300058U 0600000000000000000000000000000000000000001033100000000001033100000000005165600000000003099400000000000000000000000000000030042015060520151900        000000000000000CIP COMPENSACAO               811                           
1040001300059T 0600249600300050008840D00000000000000000001               30042015000000000000000341003840                         090000000000541894104976414000000000097005068277000000541894110000000000000000004810000000000                 
1040001300060U 0600000000000000000000000000000000000000003554300000000003554300000000017771500000000010662900000000000000000000000000000030042015060520151900        000000000000000CIP COMPENSACAO               811                           
1040001300061T 0600249600300050008840D00000000000000000001               30042015000000000000000237033936                         090000000000541896104916414000000000097005068277000000541896110000000000000000004810000000000                 
1040001300062U 0600000000000000000000000000000000000000000620600000000000620600000000003103000000000001861800000000000000000000000000000030042015060520151900        000000000000000CIP COMPENSACAO               811                           
1040001300063T 0600249600300050008840D00000000000000000001               30042015000000000000000422000302                         090000000000541899104996414000000000097005068277000000541899110000000000000000004810000000000                 
1040001300064U 0600000000000000000000000000000000000000000177300000000000177300000000000886600000000000532000000000000000000000000000000030042015060520151900        000000000000000CIP COMPENSACAO               811                           
1040001300065T 0600249600300050008840D00000000000000000001               30042015000000000000000341001708                         090000000000541906104956414000000000097005068277000000541906110000000000000000004810000000000                 
1040001300066U 0600000000000000000000000000000000000000000699000000000000699000000000003495200000000002097200000000000000000000000000000030042015060520151900        000000000000000CIP COMPENSACAO               811                           
1040001300067T 0600249600300050008840D00000000000000000001               30042015000000000000000341076465                         090000000000541919104916414000000000097005068277000000541919110000000000000000004810000000000                 
1040001300068U 0600000000000000000000000000000000000000000466100000000000466100000000002330700000000001398500000000000000000000000000000030042015060520151900        000000000000000CIP COMPENSACAO               811                           
1040001300069T 0600249600300050008840D00000000000000000001               30042015000000000000000341074284                         090000000000541920104986414000000000097005068277000000541920110000000000000000004810000000000                 
1040001300070U 0600000000000000000000000000000000000000000385400000000000385400000000001926900000000001156100000000000000000000000000000030042015060520151900        000000000000000CIP COMPENSACAO               811                           
1040001300071T 0600249600300050008840D00000000000000000001               30042015000000000000000341030112                         090000000000541921104946414000000000097005068277000000541921110000000000000000004810000000000                 
1040001300072U 0600000000000000000000000000000000000000000069200000000000069200000000000346000000000000207600000000000000000000000000000030042015060520151900        000000000000000CIP COMPENSACAO               811                           
1040001300073T 0600249600300050008840D00000000000000000001               30042015000000000000000033044156                         090000000000541923104976414000000000097005068277000000541923110000000000000000004810000000000                 
1040001300074U 0600000000000000000000000000000000000000000072300000000000072300000000000361700000000000217100000000000000000000000000000030042015060520151900        000000000000000CIP COMPENSACAO               811                           
1040001300075T 0600249600300050008840D00000000000000000001               30042015000000000000000341084549                         090000000000541924104936414000000000097005068277000000541924110000000000000000004810000000000                 
1040001300076U 0600000000000000000000000000000000000000004822300000000004822300000000024111500000000014466900000000000000000000000000000030042015060520151900        000000000000000CIP COMPENSACAO               811                           
1040001300077T 0600249600300050008840D00000000000000000001               30042015000000000000000341084549                         090000000000541931104916414000000000097005068277000000541931110000000000000000004810000000000                 
1040001300078U 0600000000000000000000000000000000000000002069800000000002069800000000010348800000000006209200000000000000000000000000000030042015060520151900        000000000000000CIP COMPENSACAO               811                           
1040001300079T 0600249600300050008840D00000000000000000001               30042015000000000000000237031810                         090000000000541935104956414000000000097005068277000000541935110000000000000000004810000000000                 
1040001300080U 0600000000000000000000000000000000000000000608600000000000608600000000003043000000000001825800000000000000000000000000000030042015060520151900        000000000000000CIP COMPENSACAO               811                           
1040001300081T 0600249600300050008840D00000000000000000001               30042015000000000000000341074284                         090000000000541947104936414000000000097005068277000000541947110000000000000000004810000000000                 
1040001300082U 0600000000000000000000000000000000000000000506600000000000506600000000002533100000000001519900000000000000000000000000000030042015060520151900        000000000000000CIP COMPENSACAO               811                           
1040001300083T 0600249600300050008840D00000000000000000001               30042015000000000000000341074284                         090000000000541954104916414000000000097005068277000000541954110000000000000000004810000000000                 
1040001300084U 0600000000000000000000000000000000000000000517100000000000517100000000002585400000000001551200000000000000000000000000000030042015060520151900        000000000000000CIP COMPENSACAO               811                           
1040001300085T 0600249600300050008840D00000000000000000001               30042015000000000000000756030368                         090000000000544218104926414000000000097005068277000000544218110000000000000000004810000000000                 
1040001300086U 0600000000000000000000000000000000000000000079900000000000079900000000000399300000000000239500000000000000000000000000000030042015060520151900        000000000000000CIP COMPENSACAO               811                           
1040001300087T 0600249600300050008840D00000000000000000001               30042015000000000000000399001309                         090000000000544289104976414000000000097005068277000000544289110000000000000000004810000000000                 
1040001300088U 0600000000000000000000000000000000000000000348700000000000348700000000001743400000000001046000000000000000000000000000000030042015060520151900        000000000000000CIP COMPENSACAO               811                           
1040001300089T 0600249600300050008840D00000000000000000001               30042015000000000000000748015016                         090000000000544745104926414000000000097005068277000000544745110000000000000000004810000000000                 
1040001300090U 0600000000000000000000000000000000000000000185300000000000185300000000000926300000000000555700000000000000000000000000000030042015060520151900        000000000000000CIP COMPENSACAO               811                           
1040001300091T 0600249600300050008840D00000000000000000001               30042015000000000000000756027880                         090000000000544879104996414000000000097005068277000000544879110000000000000000004810000000000                 
1040001300092U 0600000000000000000000000000000000000000002902100000000002902100000000014510500000000008706300000000000000000000000000000030042015060520151900        000000000000000CIP COMPENSACAO               811                           
1040001300093T 0600249600300050008840D00000000000000000001               30042015000000000000000237003433                         090000000000544891104996414000000000097005068277000000544891110000000000000000004810000000000                 
1040001300094U 0600000000000000000000000000000000000000002676200000000002676200000000013381000000000008028600000000000000000000000000000030042015060520151900        000000000000000CIP COMPENSACAO               811                           
1040001300095T 0600249600300050008840D00000000000000000001               30042015000000000000000341071331                         090000000000545048104936414000000000097005068277000000545048110000000000000000004810000000000                 
1040001300096U 0600000000000000000000000000000000000000000174700000000000174700000000000873400000000000524000000000000000000000000000000030042015060520151900        000000000000000CIP COMPENSACAO               811                           
1040001300097T 0600249600300050008840D00000000000000000001               30042015000000000000000756027650                         090000000000545057104926414000000000097005068277000000545057110000000000000000004810000000000                 
1040001300098U 0600000000000000000000000000000000000000000035300000000000035300000000000176700000000000106100000000000000000000000000000030042015060520151900        000000000000000CIP COMPENSACAO               811                           
1040001300099T 0600249600300050008840D00000000000000000001               30042015000000000000000001043613                         090000000004134005104916414000000000097005068277000004134005110000000000000000004810000000000                 
1040001300100U 0600000000000000000000000000000000000000002109900000000002109900000000010549300000000006329500000000000000000000000000000030042015060520151900        000000000000000CIP COMPENSACAO               811                           
1040001300101T 0600249600300050008840D00000000000000000001               30042015000000000000000001000221                         090000000004134429104966414000000000097005068277000004134429110000000000000000004810000000000                 
1040001300102U 0600000000000000000000000000000000000000000271300000000000271300000000001356500000000000813900000000000000000000000000000030042015060520151900        000000000000000CIP COMPENSACAO               811                           
1040001300103T 0600249600300050008840D00000000000000000001               30042015000000000000000001020354                         090000000004134596104916414000000000097005068277000004134596110000000000000000004810000000000                 
1040001300104U 0600000000000000000000000000000000000000000052500000000000052500000000000262700000000000157700000000000000000000000000000030042015060520151900        000000000000000CIP COMPENSACAO               811                           
1040001300105T 0600249600300050008840D00000000000000000001               30042015000000000000000341071234                         090000000004134707104966414000000000097005068277000004134707110000000000000000004810000000000                 
1040001300106U 0600000000000000000000000000000000000000000289700000000000289700000000001448300000000000868900000000000000000000000000000030042015060520151900        000000000000000CIP COMPENSACAO               811                           
1040001300107T 0600249600300050008840D00000000000000000001               30042015000000000001357001080829                         090000004092510001104926414000000135797005069277004092510001490000000000000000004810000000000                 
1040001300108U 0600000000000000000000000000000000000000000027100000000000027100000000000135700000000000081500000000000000000000000000000030042015060520151900        000000000000000CIP COMPENSACAO               949                           
1040001300109T 0600249600300050008840D00000000000000000001               30042015000000000025030001035254                         090000006488770001104916414000002503097005068277006488770001110000000000000000004810000000000                 
1040001300110U 0600000000000000000000000000000000000000000500600000000000500600000000002503000000000001501800000000000000000000000000000030042015060520151900        000000000000000CIP COMPENSACAO               811                           
1040001300111T 0600249600300050008840D00000000000000000001               30042015000000000028334001005991                         090000007048770001104966414000002833497005066277007048770001820000000000000000004810000000000                 
1040001300112U 0600000000000000000000000000000000000000000566700000000000566700000000002833400000000001700000000000000000000000000000000030042015060520151900        000000000000000CIP COMPENSACAO               682                           
1040001300113T 0600249600300050008840D00000000000000000001               30042015000000000028045756041947                         090000007492030001104986414000002804597005068277007492030001110000000000000000004810000000000                 
1040001300114U 0600000000000000000000000000000000000000000560900000000000560900000000002804500000000001682700000000000000000000000000000030042015060520151900        000000000000000CIP COMPENSACAO               811                           
1040001300115T 0600249600300050008840D00000000000000000001               30042015000000000013560033043222                         090000007619970001104946414000001356097005068277007619970001110000000000000000004810000000000                 
1040001300116U 0600000000000000000000000000000000000000000271200000000000271200000000001356000000000000813600000000000000000000000000000030042015060520151900        000000000000000CIP COMPENSACAO               811                           
1040001300117T 0600249600300050008840D00000000000000000001               30042015000000000007881001000361                         090000008569169434104916414000000788197005068277008569169434110000000000000000004810000000000                 
1040001300118U 0600000000000000000000000000000000000000000157600000000000157600000000000788100000000000472900000000000000000000000000000030042015060520151900        000000000000000CIP COMPENSACAO               811                           
1040001300119T 0600249600300050008840D00000000000000000001               30042015000000000003503756030759                         090000008873350001104916414000000350397005068277008873350001110000000000000000004810000000000                 
1040001300120U 0600000000000000000000000000000000000000000070100000000000070100000000000350300000000000210100000000000000000000000000000030042015060520151900        000000000000000CIP COMPENSACAO               811                           
1040001300121T 0600249600300050008840D00000000000000000001               30042015000000000013565237028215                         090000009944890001104926414000001356597005065277009944890001510000000000000000004810000000000                 
1040001300122U 0600000000000000000000000000000000000000000271300000000000271300000000001356500000000000813900000000000000000000000000000030042015060520151900        000000000000000CIP COMPENSACAO               551                           
1040001300123T 0600249600300050008840D00000000000000000001               30042015000000000003773001003212                         090000011671830001104976414000000377397005068277011671830001110000000000000000004810000000000                 
1040001300124U 0600000000000000000000000000000000000000000075500000000000075500000000000377300000000000226300000000000000000000000000000030042015060520151900        000000000000000CIP COMPENSACAO               811                           
1040001300125T 0600249600300050008840D00000000000000000001               30042015000000000013565237030708                         090000012934660001104926414000001356597005068277012934660001110000000000000000004810000000000                 
1040001300126U 0600000000000000000000000000000000000000000271300000000000271300000000001356500000000000813900000000000000000000000000000030042015060520151900        000000000000000CIP COMPENSACAO               811                           
1040001300127T 0600249600300050008840D00000000000000000001               30042015000000000002152748015822                         090000013440100001104976414000000215297005068277013440100001110000000000000000004810000000000                 
1040001300128U 0600000000000000000000000000000000000000000043000000000000043000000000000215200000000000129200000000000000000000000000000030042015060520151900        000000000000000CIP COMPENSACAO               811                           
1040001300129T 0600249600300050008840D00000000000000000001               30042015000000001584431001037770                         090000016023610001104936414000158443197005067277016023610001810000000000000000004810000000000                 
1040001300130U 0600000000000000000000000000000000000000031688600000000031688600000000158443100000000095065900000000000000000000000000000030042015060520151900        000000000000000CIP COMPENSACAO               781                           
1040001300131T 0600249600300050008840D00000000000000000001               30042015000000000022512001043613                         090000017982670001104936414000002251297005065277017982670001210000000000000000004810000000000                 
1040001300132U 0600000000000000000000000000000000000000000450200000000000450200000000002251200000000001350800000000000000000000000000000030042015060520151900        000000000000000CIP COMPENSACAO               521                           
1040001300133T 0600249600300050008840D00000000000000000001               30042015000000000002884033032115                         090000018719080001104916414000000288497005065277018719080001590000000000000000004810000000000                 
1040001300134U 0600000000000000000000000000000000000000000057700000000000057700000000000288400000000000173000000000000000000000000000000030042015060520151900        000000000000000CIP COMPENSACAO               559                           
1040001300135T 0600249600300050008840D00000000000000000001               30042015000000000001400001005991                         090000019044860001104916414000000140097005068277019044860001110000000000000000004810000000000                 
1040001300136U 0600000000000000000000000000000000000000000028000000000000028000000000000140000000000000084000000000000000000000000000000030042015060520151900        000000000000000CIP COMPENSACAO               811                           
1040001300137T 0600249600300050008840D00000000000000000001               30042015000000000025113001048330                         090000020268200001104956414000002511397005068277020268200001120000000000000000004810000000000                 
1040001300138U 0600000000000000000000000000000000000000000502300000000000502300000000002511300000000001506700000000000000000000000000000030042015060520151900        000000000000000CIP COMPENSACAO               812                           
1040001300139T 0600249600300050008840D00000000000000000001               30042015000000000003983001018457                         090000020605340001104966414000000398397005065277020605340001510000000000000000004810000000000                 
1040001300140U 0600000000000000000000000000000000000000000079700000000000079700000000000398300000000000238900000000000000000000000000000030042015060520151900        000000000000000CIP COMPENSACAO               551                           
1040001300141T 0600249600300050008840D00000000000000000001               30042015000000000021968237030708                         090000021276930001104986414000002196897005068277021276930001110000000000000000004810000000000                 
1040001300142U 0600000000000000000000000000000000000000000439400000000000439400000000002196800000000001318000000000000000000000000000000030042015060520151900        000000000000000CIP COMPENSACAO               811                           
1040001300143T 0600249600300050008840D00000000000000000001               30042015000000000081920237021733                         090000021841670001104916414000008192097005069277021841670001490000000000000000004810000000000                 
1040001300144U 0600000000000000000000000000000000000000001638400000000001638400000000008192000000000004915200000000000000000000000000000030042015060520151900        000000000000000CIP COMPENSACAO               949                           
1040001300145T 0600249600300050008840D00000000000000000001               30042015000000000159552341071234                         090000022015350001104926414000015955297005068277022015350001020000000000000000004810000000000                 
1040001300146U 0600000000000000000000000000000000000000003191000000000003191000000000015955200000000009573200000000000000000000000000000030042015060520151900        000000000000000CIP COMPENSACAO               802                           
1040001300147T 0600249600300050008840D00000000000000000001               30042015000000000013135341071234                         090000022015350002104936414000001313597005068277022015350002010000000000000000004810000000000                 
1040001300148U 0600000000000000000000000000000000000000000262700000000000262700000000001313500000000000788100000000000000000000000000000030042015060520151900        000000000000000CIP COMPENSACAO               801                           
1040001300149T 0600249600300050008840D00000000000000000001               30042015000000000013560001000221                         090000026549080001104916414000001356097005068277026549080001110000000000000000004810000000000                 
1040001300150U 0600000000000000000000000000000000000000000271200000000000271200000000001356000000000000813600000000000000000000000000000030042015060520151900        000000000000000CIP COMPENSACAO               811                           
1040001300151T 0600249600300050008840D00000000000000000001               30042015000000000002627001044610                         090000026709270001104976414000000262797005068277026709270001110000000000000000004810000000000                 
1040001300152U 0600000000000000000000000000000000000000000052500000000000052500000000000262700000000000157700000000000000000000000000000030042015060520151900        000000000000000CIP COMPENSACAO               811                           
1040001300153T 0600249600300050008840D00000000000000000001               30042015000000000185087001015881                         090000027733120001104936414000018508797005068277027733120001290000000000000000004810000000000                 
1040001300154U 0600000000000000000000000000000000000000003701700000000003701700000000018508700000000011105300000000000000000000000000000030042015060520151900        000000000000000CIP COMPENSACAO               829                           
1040001300155T 0600249600300050008840D00000000000000000001               30042015000000000055951341016500                         090000028143470001104976414000005595197005068277028143470001110000000000000000004810000000000                 
1040001300156U 0600000000000000000000000000000000000000001119000000000001119000000000005595100000000003357100000000000000000000000000000030042015060520151900        000000000000000CIP COMPENSACAO               811                           
1040001300157T 0600249600300050008840D00000000000000000001               30042015000000000024408341086959                         090000028268310001104976414000002440897005068277028268310001110000000000000000004810000000000                 
1040001300158U 0600000000000000000000000000000000000000000488200000000000488200000000002440800000000001464400000000000000000000000000000030042015060520151900        000000000000000CIP COMPENSACAO               811                           
1040001300159T 0600249600300050008840D00000000000000000001               30042015000000000013353001083445                         090000028707960001104916414000001335397005066277028707960001810000000000000000004810000000000                 
1040001300160U 0600000000000000000000000000000000000000000267100000000000267100000000001335300000000000801100000000000000000000000000000030042015060520151900        000000000000000CIP COMPENSACAO               681                           
1040001300161T 0600249600300050008840D00000000000000000001               30042015000000000017965001035254                         090000028911860001104946414000001796597005068277028911860001110000000000000000004810000000000                 
1040001300162U 0600000000000000000000000000000000000000000359300000000000359300000000001796500000000001077900000000000000000000000000000030042015060520151900        000000000000000CIP COMPENSACAO               811                           
1040001300163T 0600249600300050008840D00000000000000000001               30042015000000000093578341093149                         090000029456220001104916414000009357897005068277029456220001210000000000000000004810000000000                 
1040001300164U 0600000000000000000000000000000000000000001871600000000001871600000000009357800000000005614600000000000000000000000000000030042015060520151900        000000000000000CIP COMPENSACAO               821                           
1040001300165T 0600249600300050008840D00000000000000000001               30042015000000000009766748015822                         090000030030340001104916414000000976697005068277030030340001110000000000000000004810000000000                 
1040001300166U 0600000000000000000000000000000000000000000195300000000000195300000000000976600000000000586000000000000000000000000000000030042015060520151900        000000000000000CIP COMPENSACAO               811                           
1040001300167T 0600249600300050008840D00000000000000000001               30042015000000000018995341003824                         090000030061150001104926414000001899597005068277030061150001110000000000000000004810000000000                 
1040001300168U 0600000000000000000000000000000000000000000379900000000000379900000000001899500000000001139700000000000000000000000000000030042015060520151900        000000000000000CIP COMPENSACAO               811                           
1040001300169T 0600249600300050008840D00000000000000000001               30042015000000000025523341003824                         090000030061200001104916414000002552397005068277030061200001110000000000000000004810000000000                 
1040001300170U 0600000000000000000000000000000000000000000510500000000000510500000000002552300000000001531300000000000000000000000000000030042015060520151900        000000000000000CIP COMPENSACAO               811                           
1040001300171T 0600249600300050008840D00000000000000000001               30042015000000000121541001015881                         090000031127130001104936414000012154197005068277031127130001290000000000000000004810000000000                 
1040001300172U 0600000000000000000000000000000000000000002430800000000002430800000000012154100000000007292500000000000000000000000000000030042015060520151900        000000000000000CIP COMPENSACAO               829                           
1040001300173T 0600249600300050008840D00000000000000000001               30042015000000000012087237030708                         090000032310450001104956414000001208797005068277032310450001110000000000000000004810000000000                 
1040001300174U 0600000000000000000000000000000000000000000241700000000000241700000000001208700000000000725300000000000000000000000000000030042015060520151900        000000000000000CIP COMPENSACAO               811                           
1040001300175T 0600249600300050008840D00000000000000000001               30042015000000000010518001052671                         090000032703480001104986414000001051897005064277032703480001110000000000000000004810000000000                 
1040001300176U 0600000000000000000000000000000000000000000210400000000000210400000000001051800000000000631000000000000000000000000000000030042015060520151900        000000000000000CIP COMPENSACAO               411                           
1040001300177T 0600249600300050008840D00000000000000000001               30042015000000000013565756041947                         090000036154040001104916414000001356597005064277036154040001120000000000000000004810000000000                 
1040001300178U 0600000000000000000000000000000000000000000271300000000000271300000000001356500000000000813900000000000000000000000000000030042015060520151900        000000000000000CIP COMPENSACAO               412                           
1040001300179T 0600249600300050008840D00000000000000000001               30042015000000000002713001035254                         090000036723560001104916414000000271397005068277036723560001110000000000000000004810000000000                 
1040001300180U 0600000000000000000000000000000000000000000054300000000000054300000000000271300000000000162700000000000000000000000000000030042015060520151900        000000000000000CIP COMPENSACAO               811                           
1040001300181T 0600249600300050008840D00000000000000000001               30042015000000000001771748015822                         090000037140620001104976414000000177197005068277037140620001110000000000000000004810000000000                 
1040001300182U 0600000000000000000000000000000000000000000035400000000000035400000000000177100000000000106300000000000000000000000000000030042015060520151900        000000000000000CIP COMPENSACAO               811                           
1040001300183T 0600249600300050008840D00000000000000000001               30042015000000000013565237030708                         090000041047200001104916414000001356597005068277041047200001110000000000000000004810000000000                 
1040001300184U 0600000000000000000000000000000000000000000271300000000000271300000000001356500000000000813900000000000000000000000000000030042015060520151900        000000000000000CIP COMPENSACAO               811                           
1040001300185T 0600249600300050008840D00000000000000000001               30042015000000000118820237021342                         090000043380730001104926414000011882097005067277043380730001820000000000000000004810000000000                 
1040001300186U 0600000000000000000000000000000000000000002376400000000002376400000000011882000000000007129200000000000000000000000000000030042015060520151900        000000000000000CIP COMPENSACAO               782                           
1040001300187T 0600249600300050008840D00000000000000000001               30042015000000000013565001000221                         090000046665880001104986414000001356597005068277046665880001110000000000000000004810000000000                 
1040001300188U 0600000000000000000000000000000000000000000271300000000000271300000000001356500000000000813900000000000000000000000000000030042015060520151900        000000000000000CIP COMPENSACAO               811                           
1040001300189T 0600249600300050008840D00000000000000000001               30042015000000000013560001037770                         090000046969810001104946414000001356097005068277046969810001110000000000000000004810000000000                 
1040001300190U 0600000000000000000000000000000000000000000271200000000000271200000000001356000000000000813600000000000000000000000000000030042015060520151900        000000000000000CIP COMPENSACAO               811                           
1040001300191T 0600249600300050008840D00000000000000000001               30042015000000000021426756033588                         090000047828990001104976414000002142697005068277047828990001110000000000000000004810000000000                 
1040001300192U 0600000000000000000000000000000000000000000428500000000000428500000000002142600000000001285600000000000000000000000000000030042015060520151900        000000000000000CIP COMPENSACAO               811                           
1040001300193T 0600249600300050008840D00000000000000000001               30042015000000000105156001037770                         090000048334130001104946414000010515697005067277048334130001810000000000000000004810000000000                 
1040001300194U 0600000000000000000000000000000000000000002103100000000002103100000000010515600000000006309400000000000000000000000000000030042015060520151900        000000000000000CIP COMPENSACAO               781                           
1040001300195T 0600249600300050008840D00000000000000000001               30042015000000000147978341087564                         090000048581870001104956414000014797897005067277048581870001820000000000000000004810000000000                 
1040001300196U 0600000000000000000000000000000000000000002959600000000002959600000000014797800000000008878600000000000000000000000000000030042015060520151900        000000000000000CIP COMPENSACAO               782                           
1040001300197T 0600249600300050008840D00000000000000000001               30042015000000000003616001069590                         090000048925930001104946414000000361697005068277048925930001110000000000000000004810000000000                 
1040001300198U 0600000000000000000000000000000000000000000072300000000000072300000000000361600000000000217000000000000000000000000000000030042015060520151900        000000000000000CIP COMPENSACAO               811                           
1040001300199T 0600249600300050008840D00000000000000000001               30042015000000000010848033046671                         090000049223230001104916414000001084897005068277049223230001110000000000000000004810000000000                 
1040001300200U 0600000000000000000000000000000000000000000217000000000000217000000000001084800000000000650800000000000000000000000000000030042015060520151900        000000000000000CIP COMPENSACAO               811                           
1040001300201T 0600249600300050008840D00000000000000000001               30042015000000000002148001018457                         090000049272530001104916414000000214897005068277049272530001110000000000000000004810000000000                 
1040001300202U 0600000000000000000000000000000000000000000043000000000000043000000000000214800000000000128800000000000000000000000000000030042015060520151900        000000000000000CIP COMPENSACAO               811                           
1040001300203T 0600249600300050008840D00000000000000000001               30042015000000000023287001047171                         090000049626940001104996414000002328797005068277049626940001110000000000000000004810000000000                 
1040001300204U 0600000000000000000000000000000000000000000465700000000000465700000000002328700000000001397300000000000000000000000000000030042015060520151900        000000000000000CIP COMPENSACAO               811                           
1040001300205T 0600249600300050008840D00000000000000000001               30042015000000000003532001035254                         090000050805870001104946414000000353297005068277050805870001630000000000000000004810000000000                 
1040001300206U 0600000000000000000000000000000000000000000070600000000000070600000000000353200000000000212000000000000000000000000000000030042015060520151900        000000000000000CIP COMPENSACAO               863                           
1040001300207T 0600249600300050008840D00000000000000000001               30042015000000000005446341003824                         090000050917450001104976414000000544697005064277050917450001120000000000000000004810000000000                 
1040001300208U 0600000000000000000000000000000000000000000108900000000000108900000000000544600000000000326800000000000000000000000000000030042015060520151900        000000000000000CIP COMPENSACAO               412                           
1040001300209T 0600249600300050008840D00000000000000000001               30042015000000000010852237030708                         090000051497580001104916414000001085297005068277051497580001110000000000000000004810000000000                 
1040001300210U 0600000000000000000000000000000000000000000217000000000000217000000000001085200000000000651200000000000000000000000000000030042015060520151900        000000000000000CIP COMPENSACAO               811                           
1040001300211T 0600249600300050008840D00000000000000000001               30042015000000000016785033007730                         090000053001660001104916414000001678597005068277053001660001110000000000000000004810000000000                 
1040001300212U 0600000000000000000000000000000000000000000335700000000000335700000000001678500000000001007100000000000000000000000000000030042015060520151900        000000000000000CIP COMPENSACAO               811                           
1040001300213T 0600249600300050008840D00000000000000000001               30042015000000000008525001052086                         090000054235600001104926414000000852597005068277054235600001110000000000000000004810000000000                 
1040001300214U 0600000000000000000000000000000000000000000170500000000000170500000000000852500000000000511500000000000000000000000000000030042015060520151900        000000000000000CIP COMPENSACAO               811                           
1040001300215T 0600249600300050008840D00000000000000000001               30042015000000000002713001048330                         090000054400730001104956414000000271397005068277054400730001110000000000000000004810000000000                 
1040001300216U 0600000000000000000000000000000000000000000054300000000000054300000000000271300000000000162700000000000000000000000000000030042015060520151900        000000000000000CIP COMPENSACAO               811                           
1040001300217T 0600249600300050008840D00000000000000000001               30042015000000000016272237021342                         090000054906910001104916414000001627297005068277054906910001110000000000000000004810000000000                 
1040001300218U 0600000000000000000000000000000000000000000325400000000000325400000000001627200000000000976400000000000000000000000000000030042015060520151900        000000000000000CIP COMPENSACAO               811                           
1040001300219T 0600249600300050008840D00000000000000000001               30042015000000000013560001016683                         090000058215270001104916414000001356097005068277058215270001110000000000000000004810000000000                 
1040001300220U 0600000000000000000000000000000000000000000271200000000000271200000000001356000000000000813600000000000000000000000000000030042015060520151900        000000000000000CIP COMPENSACAO               811                           
1040001300221T 0600249600300050008840D00000000000000000001               30042015000000000002713001015334                         090000058317160001104926414000000271397005068277058317160001110000000000000000004810000000000                 
1040001300222U 0600000000000000000000000000000000000000000054300000000000054300000000000271300000000000162700000000000000000000000000000030042015060520151900        000000000000000CIP COMPENSACAO               811                           
1040001300223T 0600249600300050008840D00000000000000000001               30042015000000000010852033043222                         090000059569570001104916414000001085297005067277059569570001040000000000000000004810000000000                 
1040001300224U 0600000000000000000000000000000000000000000217000000000000217000000000001085200000000000651200000000000000000000000000000030042015060520151900        000000000000000CIP COMPENSACAO               704                           
1040001300225T 0600249600300050008840D00000000000000000001               30042015000000000044663237030708                         090000060843090001104916414000004466397005068277060843090001110000000000000000004810000000000                 
1040001300226U 0600000000000000000000000000000000000000000893300000000000893300000000004466300000000002679700000000000000000000000000000030042015060520151900        000000000000000CIP COMPENSACAO               811                           
1040001300227T 0600249600300050008840D00000000000000000001               30042015000000000010848001031089                         090000060996450001104916414000001084897005068277060996450001110000000000000000004810000000000                 
1040001300228U 0600000000000000000000000000000000000000000217000000000000217000000000001084800000000000650800000000000000000000000000000030042015060520151900        000000000000000CIP COMPENSACAO               811                           
1040001300229T 0600249600300050008840D00000000000000000001               30042015000000000001667756030333                         090000061072860001104916414000000166797005066277061072860001820000000000000000004810000000000                 
1040001300230U 0600000000000000000000000000000000000000000033300000000000033300000000000166700000000000100100000000000000000000000000000030042015060520151900        000000000000000CIP COMPENSACAO               682                           
1040001300231T 0600249600300050008840D00000000000000000001               30042015000000000010983341093149                         090000061496590001104916414000001098397005068277061496590001110000000000000000004810000000000                 
1040001300232U 0600000000000000000000000000000000000000000219700000000000219700000000001098300000000000658900000000000000000000000000000030042015060520151900        000000000000000CIP COMPENSACAO               811                           
1040001300233T 0600249600300050008840D00000000000000000001               30042015000000000020082237030708                         090000062461660001104946414000002008297005068277062461660001110000000000000000004810000000000                 
1040001300234U 0600000000000000000000000000000000000000000401600000000000401600000000002008200000000001205000000000000000000000000000000030042015060520151900        000000000000000CIP COMPENSACAO               811                           
1040001300235T 0600249600300050008840D00000000000000000001               30042015000000000053421237021733                         090000063030730001104996414000005342197005068277063030730001110000000000000000004810000000000                 
1040001300236U 0600000000000000000000000000000000000000001068400000000001068400000000005342100000000003205300000000000000000000000000000030042015060520151900        000000000000000CIP COMPENSACAO               811                           
1040001300237T 0600249600300050008840D00000000000000000001               30042015000000000023538237003212                         090000070220400001104916414000002353897005068277070220400001110000000000000000004810000000000                 
1040001300238U 0600000000000000000000000000000000000000000470800000000000470800000000002353800000000001412200000000000000000000000000000030042015060520151900        000000000000000CIP COMPENSACAO               811                           
1040001300239T 0600249600300050008840D00000000000000000001               30042015000000000002713001037770                         090000070329520001104986414000000271397005068277070329520001110000000000000000004810000000000                 
1040001300240U 0600000000000000000000000000000000000000000054300000000000054300000000000271300000000000162700000000000000000000000000000030042015060520151900        000000000000000CIP COMPENSACAO               811                           
1040001300241T 0600249600300050008840D00000000000000000001               30042015000000000013565756044180                         090000071209280001104976414000001356597005068277071209280001110000000000000000004810000000000                 
1040001300242U 0600000000000000000000000000000000000000000271300000000000271300000000001356500000000000813900000000000000000000000000000030042015060520151900        000000000000000CIP COMPENSACAO               811                           
1040001300243T 0600249600300050008840D00000000000000000001               30042015000000000002713341003824                         090000071420680001104946414000000271397005068277071420680001110000000000000000004810000000000                 
1040001300244U 0600000000000000000000000000000000000000000054300000000000054300000000000271300000000000162700000000000000000000000000000030042015060520151900        000000000000000CIP COMPENSACAO               811                           
1040001300245T 0600249600300050008840D00000000000000000001               30042015000000000003357341093149                         090000071648230001104936414000000335797005067277071648230001040000000000000000004810000000000                 
1040001300246U 0600000000000000000000000000000000000000000067100000000000067100000000000335700000000000201500000000000000000000000000000030042015060520151900        000000000000000CIP COMPENSACAO               704                           
1040001300247T 0600249600300050008840D00000000000000000001               30042015000000000013565001037770                         090000073841100001104966414000001356597005068277073841100001110000000000000000004810000000000                 
1040001300248U 0600000000000000000000000000000000000000000271300000000000271300000000001356500000000000813900000000000000000000000000000030042015060520151900        000000000000000CIP COMPENSACAO               811                           
1040001300249T 0600249600300050008840D00000000000000000001               30042015000000000093608001000221                         090000074427310001104976414000009360897005067277074427310001820000000000000000004810000000000                 
1040001300250U 0600000000000000000000000000000000000000001872200000000001872200000000009360800000000005616400000000000000000000000000000030042015060520151900        000000000000000CIP COMPENSACAO               782                           
1040001300251T 0600249600300050008840D00000000000000000001               30042015000000000010852341086959                         090000074520050001104916414000001085297005069277074520050001430000000000000000004810000000000                 
1040001300252U 0600000000000000000000000000000000000000000217000000000000217000000000001085200000000000651200000000000000000000000000000030042015060520151900        000000000000000CIP COMPENSACAO               943                           
1040001300253T 0600249600300050008840D00000000000000000001               30042015000000000013560756033588                         090000076493070001104916414000001356097005068277076493070001110000000000000000004810000000000                 
1040001300254U 0600000000000000000000000000000000000000000271200000000000271200000000001356000000000000813600000000000000000000000000000030042015060520151900        000000000000000CIP COMPENSACAO               811                           
1040001300255T 0600249600300050008840D00000000000000000001               30042015000000000079708237006246                         090000077838320001104926414000007970897005067277077838320001820000000000000000004810000000000                 
1040001300256U 0600000000000000000000000000000000000000001594200000000001594200000000007970800000000004782400000000000000000000000000000030042015060520151900        000000000000000CIP COMPENSACAO               782                           
1040001300257T 0600249600300050008840D00000000000000000001               30042015000000000002153756030392                         090000078942520001104916414000000215397005068277078942520001110000000000000000004810000000000                 
1040001300258U 0600000000000000000000000000000000000000000043100000000000043100000000000215300000000000129100000000000000000000000000000030042015060520151900        000000000000000CIP COMPENSACAO               811                           
1040001300259T 0600249600300050008840D00000000000000000001               30042015000000000008139001057690                         090000082033260001104936414000000813997005065277082033260001610000000000000000004810000000000                 
1040001300260U 0600000000000000000000000000000000000000000162800000000000162800000000000813900000000000488300000000000000000000000000000030042015060520151900        000000000000000CIP COMPENSACAO               561                           
1040001300261T 0600249600300050008840D00000000000000000001               30042015000000000004069001048470                         090000083094340001104986414000000406997005068277083094340001110000000000000000004810000000000                 
1040001300262U 0600000000000000000000000000000000000000000081400000000000081400000000000406900000000000244100000000000000000000000000000030042015060520151900        000000000000000CIP COMPENSACAO               811                           
1040001300263T 0600249600300050008840D00000000000000000001               30042015000000000018995237003212                         090000085618160001104946414000001899597005068277085618160001110000000000000000004810000000000                 
1040001300264U 0600000000000000000000000000000000000000000379900000000000379900000000001899500000000001139700000000000000000000000000000030042015060520151900        000000000000000CIP COMPENSACAO               811                           
1040001300265T 0600249600300050008840D00000000000000000001               30042015000000000439317001043613                         090000087135660001104916414000043931797005065277087135660001210000000000000000004810000000000                 
1040001300266U 0600000000000000000000000000000000000000008786300000000008786300000000043931700000000026359100000000000000000000000000000030042015060520151900        000000000000000CIP COMPENSACAO               521                           
1040001300267T 0600249600300050008840D00000000000000000001               30042015000000000013560237032247                         090000087241590001104916414000001356097005068277087241590001110000000000000000004810000000000                 
1040001300268U 0600000000000000000000000000000000000000000271200000000000271200000000001356000000000000813600000000000000000000000000000030042015060520151900        000000000000000CIP COMPENSACAO               811                           
1040001300269T 0600249600300050008840D00000000000000000001               30042015000000000167248399007382                         090000088334570001104916414000016724897005068277088334570001110000000000000000004810000000000                 
1040001300270U 0600000000000000000000000000000000000000003345000000000003345000000000016724800000000010034800000000000000000000000000000030042015060520151900        000000000000000CIP COMPENSACAO               811                           
1040001300271T 0600249600300050008840D00000000000000000001               30042015000000000030235237030708                         090000088370360001104926414000003023597005066277088370360001820000000000000000004810000000000                 
1040001300272U 0600000000000000000000000000000000000000000604700000000000604700000000003023500000000001814100000000000000000000000000000030042015060520151900        000000000000000CIP COMPENSACAO               682                           
1040001300273T 0600249600300050008840D00000000000000000001               30042015000000000024481033045438                         090000090932070001104916414000002448197005068277090932070001110000000000000000004810000000000                 
1040001300274U 0600000000000000000000000000000000000000000489600000000000489600000000002448100000000001468900000000000000000000000000000030042015060520151900        000000000000000CIP COMPENSACAO               811                           
1040001300275T 0600249600300050008840D00000000000000000001               30042015000000000001973756030678                         090000091279540001104976414000000197397005069277091279540001490000000000000000004810000000000                 
1040001300276U 0600000000000000000000000000000000000000000039500000000000039500000000000197300000000000118300000000000000000000000000000030042015060520151900        000000000000000CIP COMPENSACAO               949                           
1040001300277T 0600249600300050008840D00000000000000000001               30042015000000000018977237032263                         090000091783900001104936414000001897797005068277091783900001110000000000000000004810000000000                 
1040001300278U 0600000000000000000000000000000000000000000379500000000000379500000000001897700000000001138700000000000000000000000000000030042015060520151900        000000000000000CIP COMPENSACAO               811                           
1040001300279T 0600249600300050008840D00000000000000000001               30042015000000000009053001043010                         090000091873220001104956414000000905397005068277091873220001110000000000000000004810000000000                 
1040001300280U 0600000000000000000000000000000000000000000181100000000000181100000000000905300000000000543100000000000000000000000000000030042015060520151900        000000000000000CIP COMPENSACAO               811                           
1040001300281T 0600249600300050008840D00000000000000000001               30042015000000000002713237021733                         090000092474900001104916414000000271397005068277092474900001110000000000000000004810000000000                 
1040001300282U 0600000000000000000000000000000000000000000054300000000000054300000000000271300000000000162700000000000000000000000000000030042015060520151900        000000000000000CIP COMPENSACAO               811                           
1040001300283T 0600249600300050008840D00000000000000000001               30042015000000000002967237030708                         090000092999300001104916414000000296797005068277092999300001110000000000000000004810000000000                 
1040001300284U 0600000000000000000000000000000000000000000059300000000000059300000000000296700000000000178100000000000000000000000000000030042015060520151900        000000000000000CIP COMPENSACAO               811                           
1040001300285T 0600249600300050008840D00000000000000000001               30042015000000000014575341071234                         090000093878600001104946414000001457597005068277093878600001110000000000000000004810000000000                 
1040001300286U 0600000000000000000000000000000000000000000291500000000000291500000000001457500000000000874500000000000000000000000000000030042015060520151900        000000000000000CIP COMPENSACAO               811                           
1040001300287T 0600249600300050008840D00000000000000000001               30042015000000000013565001044610                         090000094398120001104986414000001356597005068277094398120001110000000000000000004810000000000                 
1040001300288U 0600000000000000000000000000000000000000000271300000000000271300000000001356500000000000813900000000000000000000000000000030042015060520151900        000000000000000CIP COMPENSACAO               811                           
1040001300289T 0600249600300050008840D00000000000000000001               30042015000000000008136756041947                         090000094653820001104956414000000813697005068277094653820001110000000000000000004810000000000                 
1040001300290U 0600000000000000000000000000000000000000000162700000000000162700000000000813600000000000488200000000000000000000000000000030042015060520151900        000000000000000CIP COMPENSACAO               811                           
1040001300291T 0600249600300050008840D00000000000000000001               30042015000000000005426756041947                         090000096188900001104916414000000542697005067277096188900001040000000000000000004810000000000                 
1040001300292U 0600000000000000000000000000000000000000000108500000000000108500000000000542600000000000325600000000000000000000000000000030042015060520151900        000000000000000CIP COMPENSACAO               704                           
1040001300293T 0600249600300050008840D00000000000000000001               30042015000000000038014237030708                         090000096317090001104936414000003801497005068277096317090001110000000000000000004810000000000                 
1040001300294U 0600000000000000000000000000000000000000000760300000000000760300000000003801400000000002280800000000000000000000000000000030042015060520151900        000000000000000CIP COMPENSACAO               811                           
1040001300295T 0600249600300050008840D00000000000000000001               30042015000000000257446237029602                         090000098638530004104956414000025744697005067277098638530004810000000000000000004810000000000                 
1040001300296U 0600000000000000000000000000000000000000005148900000000005148900000000025744600000000015446800000000000000000000000000000030042015060520151900        000000000000000CIP COMPENSACAO               781                           
1040001300297T 0600249600300050008840D00000000000000000001               30042015000000000017583033032115                         090000102225770001104996414000001758397005068277102225770001110000000000000000004810000000000                 
1040001300298U 0600000000000000000000000000000000000000000351700000000000351700000000001758300000000001054900000000000000000000000000000030042015060520151900        000000000000000CIP COMPENSACAO               811                           
1040001300299T 0600249600300050008840D00000000000000000001               30042015000000000002713237021318                         090000102368810001104946414000000271397005068277102368810001110000000000000000004810000000000                 
1040001300300U 0600000000000000000000000000000000000000000054300000000000054300000000000271300000000000162700000000000000000000000000000030042015060520151900        000000000000000CIP COMPENSACAO               811                           
1040001300301T 0600249600300050008840D00000000000000000001               30042015000000000002713237030708                         090000102665980001104916414000000271397005068277102665980001110000000000000000004810000000000                 
1040001300302U 0600000000000000000000000000000000000000000054300000000000054300000000000271300000000000162700000000000000000000000000000030042015060520151900        000000000000000CIP COMPENSACAO               811                           
1040001300303T 0600249600300050008840D00000000000000000001               30042015000000000005446341016500                         090000104213300001104976414000000544697005064277104213300001120000000000000000004810000000000                 
1040001300304U 0600000000000000000000000000000000000000000108900000000000108900000000000544600000000000326800000000000000000000000000000030042015060520151900        000000000000000CIP COMPENSACAO               412                           
1040001300305T 0600249600300050008840D00000000000000000001               30042015000000000008894001052671                         090000105122600001104916414000000889497005066277105122600001810000000000000000004810000000000                 
1040001300306U 0600000000000000000000000000000000000000000177900000000000177900000000000889400000000000533600000000000000000000000000000030042015060520151900        000000000000000CIP COMPENSACAO               681                           
1040001300307T 0600249600300050008840D00000000000000000001               30042015000000000010848001010669                         090000107239010001104926414000001084897005068277107239010001110000000000000000004810000000000                 
1040001300308U 0600000000000000000000000000000000000000000217000000000000217000000000001084800000000000650800000000000000000000000000000030042015060520151900        000000000000000CIP COMPENSACAO               811                           
1040001300309T 0600249600300050008840D00000000000000000001               30042015000000000008139237030708                         090000109206800001104946414000000813997005068277109206800001110000000000000000004810000000000                 
1040001300310U 0600000000000000000000000000000000000000000162800000000000162800000000000813900000000000488300000000000000000000000000000030042015060520151900        000000000000000CIP COMPENSACAO               811                           
1040001300311T 0600249600300050008840D00000000000000000001               30042015000000000001934748015822                         090000109225110001104966414000000193497005068277109225110001110000000000000000004810000000000                 
1040001300312U 0600000000000000000000000000000000000000000038700000000000038700000000000193400000000000116000000000000000000000000000000030042015060520151900        000000000000000CIP COMPENSACAO               811                           
1040001300313T 0600249600300050008840D00000000000000000001               30042015000000000013221237030708                         090000109864620001104936414000001322197005068277109864620001110000000000000000004810000000000                 
1040001300314U 0600000000000000000000000000000000000000000264400000000000264400000000001322100000000000793300000000000000000000000000000030042015060520151900        000000000000000CIP COMPENSACAO               811                           
1040001300315T 0600249600300050008840D00000000000000000001               30042015000000000002463756030392                         090000109948780001104996414000000246397005068277109948780001110000000000000000004810000000000                 
1040001300316U 0600000000000000000000000000000000000000000049300000000000049300000000000246300000000000147700000000000000000000000000000030042015060520151900        000000000000000CIP COMPENSACAO               811                           
1040001300317T 0600249600300050008840D00000000000000000001               30042015000000000005452001016683                         090000110248840001104956414000000545297005064277110248840001710000000000000000004810000000000                 
1040001300318U 0600000000000000000000000000000000000000000109000000000000109000000000000545200000000000327200000000000000000000000000000030042015060520151900        000000000000000CIP COMPENSACAO               471                           
1040001300319T 0600249600300050008840D00000000000000000001               30042015000000000005957341071234                         090000110374950001104946414000000595797005068277110374950001110000000000000000004810000000000                 
1040001300320U 0600000000000000000000000000000000000000000119100000000000119100000000000595700000000000357500000000000000000000000000000030042015060520151900        000000000000000CIP COMPENSACAO               811                           
1040001300321T 0600249600300050008840D00000000000000000001               30042015000000000037437237033936                         090000111095660001104916414000003743797005068277111095660001110000000000000000004810000000000                 
1040001300322U 0600000000000000000000000000000000000000000748700000000000748700000000003743700000000002246300000000000000000000000000000030042015060520151900        000000000000000CIP COMPENSACAO               811                           
1040001300323T 0600249600300050008840D00000000000000000001               30042015000000000001972001083445                         090000111222860001104966414000000197297005066277111222860001810000000000000000004810000000000                 
1040001300324U 0600000000000000000000000000000000000000000039400000000000039400000000000197200000000000118400000000000000000000000000000030042015060520151900        000000000000000CIP COMPENSACAO               681                           
1040001300325T 0600249600300050008840D00000000000000000001               30042015000000000073403001000221                         090000111487330001104986414000007340397005068277111487330001120000000000000000004810000000000                 
1040001300326U 0600000000000000000000000000000000000000001468100000000001468100000000007340300000000004404100000000000000000000000000000030042015060520151900        000000000000000CIP COMPENSACAO               812                           
1040001300327T 0600249600300050008840D00000000000000000001               30042015000000000002627001015881                         090000111760790001104966414000000262797005065277111760790001590000000000000000004810000000000                 
1040001300328U 0600000000000000000000000000000000000000000052500000000000052500000000000262700000000000157700000000000000000000000000000030042015060520151900        000000000000000CIP COMPENSACAO               559                           
1040001300329T 0600249600300050008840D00000000000000000001               30042015000000000003473748015253                         090000111776240001104936414000000347397005068277111776240001110000000000000000004810000000000                 
1040001300330U 0600000000000000000000000000000000000000000069500000000000069500000000000347300000000000208300000000000000000000000000000030042015060520151900        000000000000000CIP COMPENSACAO               811                           
1040001300331T 0600249600300050008840D00000000000000000001               30042015000000000003477748015253                         090000112656360001104946414000000347797005068277112656360001110000000000000000004810000000000                 
1040001300332U 0600000000000000000000000000000000000000000069500000000000069500000000000347700000000000208700000000000000000000000000000030042015060520151900        000000000000000CIP COMPENSACAO               811                           
1040001300333T 0600249600300050008840D00000000000000000001               30042015000000000011206087016012                         090000113279240001104986414000001120697005068277113279240001110000000000000000004810000000000                 
1040001300334U 0600000000000000000000000000000000000000000224100000000000224100000000001120600000000000672400000000000000000000000000000030042015060520151900        000000000000000CIP COMPENSACAO               811                           
1040001300335T 0600249600300050008840D00000000000000000001               30042015000000000017894237021733                         090000114272880001104956414000001789497005069277114272880001490000000000000000004810000000000                 
1040001300336U 0600000000000000000000000000000000000000000357900000000000357900000000001789400000000001073600000000000000000000000000000030042015060520151900        000000000000000CIP COMPENSACAO               949                           
1040001300337T 0600249600300050008840D00000000000000000001               30042015000000000039694237030708                         090000116292380001104926414000003969497005068277116292380001110000000000000000004810000000000                 
1040001300338U 0600000000000000000000000000000000000000000793900000000000793900000000003969400000000002381600000000000000000000000000000030042015060520151900        000000000000000CIP COMPENSACAO               811                           
1040001300339T 0600249600300050008840D00000000000000000001               30042015000000000008139001015334                         090000117069140001104916414000000813997005068277117069140001110000000000000000004810000000000                 
1040001300340U 0600000000000000000000000000000000000000000162800000000000162800000000000813900000000000488300000000000000000000000000000030042015060520151900        000000000000000CIP COMPENSACAO               811                           
1040001300341T 0600249600300050008840D00000000000000000001               30042015000000000005424237030708                         090000117405130001104986414000000542497005068277117405130001110000000000000000004810000000000                 
1040001300342U 0600000000000000000000000000000000000000000108500000000000108500000000000542400000000000325400000000000000000000000000000030042015060520151900        000000000000000CIP COMPENSACAO               811                           
1040001300343T 0600249600300050008840D00000000000000000001               30042015000000000019135237030708                         090000118741560001104936414000001913597005068277118741560001110000000000000000004810000000000                 
1040001300344U 0600000000000000000000000000000000000000000382700000000000382700000000001913500000000001148100000000000000000000000000000030042015060520151900        000000000000000CIP COMPENSACAO               811                           
1040001300345T 0600249600300050008840D00000000000000000001               30042015000000000088599237028215                         090000121241620001104996414000008859997005068277121241620001110000000000000000004810000000000                 
1040001300346U 0600000000000000000000000000000000000000001772000000000001772000000000008859900000000005315900000000000000000000000000000030042015060520151900        000000000000000CIP COMPENSACAO               811                           
1040001300347T 0600249600300050008840D00000000000000000001               30042015000000000005677237031615                         090000123072710001104966414000000567797005066277123072710001820000000000000000004810000000000                 
1040001300348U 0600000000000000000000000000000000000000000113500000000000113500000000000567700000000000340700000000000000000000000000000030042015060520151900        000000000000000CIP COMPENSACAO               682                           
1040001300349T 0600249600300050008840D00000000000000000001               30042015000000000001445341003271                         090000125213690001104986414000000144597005064277125213690001110000000000000000004810000000000                 
1040001300350U 0600000000000000000000000000000000000000000028900000000000028900000000000144500000000000086700000000000000000000000000000030042015060520151900        000000000000000CIP COMPENSACAO               411                           
1040001300351T 0600249600300050008840D00000000000000000001               30042015000000000001737756030392                         090000128373900001104996414000000173797005068277128373900001110000000000000000004810000000000                 
1040001300352U 0600000000000000000000000000000000000000000034700000000000034700000000000173700000000000104300000000000000000000000000000030042015060520151900        000000000000000CIP COMPENSACAO               811                           
1040001300353T 0600249600300050008840D00000000000000000001               30042015000000000010789237030708                         090000128447330001104996414000001078997005068277128447330001110000000000000000004810000000000                 
1040001300354U 0600000000000000000000000000000000000000000215800000000000215800000000001078900000000000647300000000000000000000000000000030042015060520151900        000000000000000CIP COMPENSACAO               811                           
1040001300355T 0600249600300050008840D00000000000000000001               30042015000000000001137756030392                         090000128878850001104916414000000113797005068277128878850001110000000000000000004810000000000                 
1040001300356U 0600000000000000000000000000000000000000000022700000000000022700000000000113700000000000068300000000000000000000000000000030042015060520151900        000000000000000CIP COMPENSACAO               811                           
1040001300357T 0600249600300050008840D00000000000000000001               30042015000000000021371237030708                         090000130938650001104916414000002137197005066277130938650001820000000000000000004810000000000                 
1040001300358U 0600000000000000000000000000000000000000000427400000000000427400000000002137100000000001282300000000000000000000000000000030042015060520151900        000000000000000CIP COMPENSACAO               682                           
1040001300359T 0600249600300050008840D00000000000000000001               30042015000000000005980237030708                         090000131395160001104986414000000598097005068277131395160001110000000000000000004810000000000                 
1040001300360U 0600000000000000000000000000000000000000000119600000000000119600000000000598000000000000358800000000000000000000000000000030042015060520151900        000000000000000CIP COMPENSACAO               811                           
1040001300361T 0600249600300050008840D00000000000000000001               30042015000000000006712756033588                         090000131395400001104916414000000671297005068277131395400001110000000000000000004810000000000                 
1040001300362U 0600000000000000000000000000000000000000000134200000000000134200000000000671200000000000402800000000000000000000000000000030042015060520151900        000000000000000CIP COMPENSACAO               811                           
1040001300363T 0600249600300050008840D00000000000000000001               30042015000000000011770237021733                         090000136407770001104946414000001177097005068277136407770001110000000000000000004810000000000                 
1040001300364U 0600000000000000000000000000000000000000000235400000000000235400000000001177000000000000706200000000000000000000000000000030042015060520151900        000000000000000CIP COMPENSACAO               811                           
1040001300365T 0600249600300050008840D00000000000000000001               30042015000000000004714041008303                         090000139447780001104936414000000471497005068277139447780001110000000000000000004810000000000                 
1040001300366U 0600000000000000000000000000000000000000000094300000000000094300000000000471400000000000282800000000000000000000000000000030042015060520151900        000000000000000CIP COMPENSACAO               811                           
1040001300367T 0600249600300050008840D00000000000000000001               30042015000000000016278237030708                         090000139631800001104926414000001627897005068277139631800001110000000000000000004810000000000                 
1040001300368U 0600000000000000000000000000000000000000000325600000000000325600000000001627800000000000976600000000000000000000000000000030042015060520151900        000000000000000CIP COMPENSACAO               811                           
1040001300369T 0600249600300050008840D00000000000000000001               30042015000000000048463237030708                         090000142583420001104916414000004846397005068277142583420001110000000000000000004810000000000                 
1040001300370U 0600000000000000000000000000000000000000000969300000000000969300000000004846300000000002907700000000000000000000000000000030042015060520151900        000000000000000CIP COMPENSACAO               811                           
1040001300371T 0600249600300050008840D00000000000000000001               30042015000000000033338237030708                         090000144596370001104916414000003333897005068277144596370001110000000000000000004810000000000                 
1040001300372U 0600000000000000000000000000000000000000000666800000000000666800000000003333800000000002000200000000000000000000000000000030042015060520151900        000000000000000CIP COMPENSACAO               811                           
1040001300373T 0600249600300050008840D00000000000000000001               30042015000000000002833001015334                         090000144693460001104986414000000283397005068277144693460001110000000000000000004810000000000                 
1040001300374U 0600000000000000000000000000000000000000000056700000000000056700000000000283300000000000169900000000000000000000000000000030042015060520151900        000000000000000CIP COMPENSACAO               811                           
1040001300375T 0600249600300050008840D00000000000000000001               30042015000000000009867748015288                         090000144821720001104926414000000986797005066277144821720001820000000000000000004810000000000                 
1040001300376U 0600000000000000000000000000000000000000000197300000000000197300000000000986700000000000592100000000000000000000000000000030042015060520151900        000000000000000CIP COMPENSACAO               682                           
1040001300377T 0600249600300050008840D00000000000000000001               30042015000000000002884001043010                         090000148126020001104926414000000288497005068277148126020001110000000000000000004810000000000                 
1040001300378U 0600000000000000000000000000000000000000000057700000000000057700000000000288400000000000173000000000000000000000000000000030042015060520151900        000000000000000CIP COMPENSACAO               811                           
1040001300379T 0600249600300050008840D00000000000000000001               30042015000000000036733237028215                         090000150404920001104926414000003673397005068277150404920001110000000000000000004810000000000                 
1040001300380U 0600000000000000000000000000000000000000000734700000000000734700000000003673300000000002203900000000000000000000000000000030042015060520151900        000000000000000CIP COMPENSACAO               811                           
1040001300381T 0600249600300050008840D00000000000000000001               30042015000000000035925237003212                         090000151323180001104946414000003592597005068277151323180001110000000000000000004810000000000                 
1040001300382U 0600000000000000000000000000000000000000000718500000000000718500000000003592500000000002155500000000000000000000000000000030042015060520151900        000000000000000CIP COMPENSACAO               811                           
1040001300383T 0600249600300050008840D00000000000000000001               30042015000000000023672237030708                         090000155231010001104916414000002367297005068277155231010001110000000000000000004810000000000                 
1040001300384U 0600000000000000000000000000000000000000000473400000000000473400000000002367200000000001420400000000000000000000000000000030042015060520151900        000000000000000CIP COMPENSACAO               811                           
1040001300385T 0600249600300050008840D00000000000000000001               30042015000000000439816001018457                         090000156551120001104966414000043981697005068277156551120001120000000000000000004810000000000                 
1040001300386U 0600000000000000000000000000000000000000008796300000000008796300000000043981600000000026389000000000000000000000000000000030042015060520151900        000000000000000CIP COMPENSACAO               812                           
1040001300387T 0600249600300050008840D00000000000000000001               30042015000000000008077341065307                         090000156703370001104986414000000807797005066277156703370001820000000000000000004810000000000                 
1040001300388U 0600000000000000000000000000000000000000000161500000000000161500000000000807700000000000484700000000000000000000000000000030042015060520151900        000000000000000CIP COMPENSACAO               682                           
1040001300389T 0600249600300050008840D00000000000000000001               30042015000000000017216237030708                         090000157386410001104966414000001721697005068277157386410001110000000000000000004810000000000                 
1040001300390U 0600000000000000000000000000000000000000000344300000000000344300000000001721600000000001033000000000000000000000000000000030042015060520151900        000000000000000CIP COMPENSACAO               811                           
1040001300391T 0600249600300050008840D00000000000000000001               30042015000000000013560756033588                         090000165134580001104916414000001356097005068277165134580001110000000000000000004810000000000                 
1040001300392U 0600000000000000000000000000000000000000000271200000000000271200000000001356000000000000813600000000000000000000000000000030042015060520151900        000000000000000CIP COMPENSACAO               811                           
1040001300393T 0600249600300050008840D00000000000000000001               30042015000000000007262341093149                         090000165823050001104966414000000726297005068277165823050001110000000000000000004810000000000                 
1040001300394U 0600000000000000000000000000000000000000000145200000000000145200000000000726200000000000435800000000000000000000000000000030042015060520151900        000000000000000CIP COMPENSACAO               811                           
1040001300395T 0600249600300050008840D00000000000000000001               30042015000000000009593756041947                         090000167885760001104946414000000959397005068277167885760001110000000000000000004810000000000                 
1040001300396U 0600000000000000000000000000000000000000000191900000000000191900000000000959300000000000575500000000000000000000000000000030042015060520151900        000000000000000CIP COMPENSACAO               811                           
1040001300397T 0600249600300050008840D00000000000000000001               30042015000000000002627756040029                         090000168635640001104916414000000262797005068277168635640001110000000000000000004810000000000                 
1040001300398U 0600000000000000000000000000000000000000000052500000000000052500000000000262700000000000157700000000000000000000000000000030042015060520151900        000000000000000CIP COMPENSACAO               811                           
1040001300399T 0600249600300050008840D00000000000000000001               30042015000000000008765001047171                         090000170807250001104996414000000876597005068277170807250001110000000000000000004810000000000                 
1040001300400U 0600000000000000000000000000000000000000000175300000000000175300000000000876500000000000525900000000000000000000000000000030042015060520151900        000000000000000CIP COMPENSACAO               811                           
1040001300401T 0600249600300050008840D00000000000000000001               30042015000000000012718237030708                         090000171304010001104916414000001271897005068277171304010001110000000000000000004810000000000                 
1040001300402U 0600000000000000000000000000000000000000000254400000000000254400000000001271800000000000763000000000000000000000000000000030042015060520151900        000000000000000CIP COMPENSACAO               811                           
1040001300403T 0600249600300050008840D00000000000000000001               30042015000000000123959237021733                         090000172599170001104976414000012395997005068277172599170001110000000000000000004810000000000                 
1040001300404U 0600000000000000000000000000000000000000002479200000000002479200000000012395900000000007437500000000000000000000000000000030042015060520151900        000000000000000CIP COMPENSACAO               811                           
1040001300405T 0600249600300050008840D00000000000000000001               30042015000000000077891001043613                         090000174337340001104966414000007789197005067277174337340001830000000000000000004810000000000                 
1040001300406U 0600000000000000000000000000000000000000001557800000000001557800000000007789100000000004673500000000000000000000000000000030042015060520151900        000000000000000CIP COMPENSACAO               783                           
1040001300407T 0600249600300050008840D00000000000000000001               30042015000000000002627237008915                         090000180811467606104996414000000262797005068277180811467606110000000000000000004810000000000                 
1040001300408U 0600000000000000000000000000000000000000000052500000000000052500000000000262700000000000157700000000000000000000000000000030042015060520151900        000000000000000CIP COMPENSACAO               811                           
1040001300409T 0600249600300050008840D00000000000000000001               30042015000000000003473756030392                         090000182557400001104946414000000347397005068277182557400001110000000000000000004810000000000                 
1040001300410U 0600000000000000000000000000000000000000000069500000000000069500000000000347300000000000208300000000000000000000000000000030042015060520151900        000000000000000CIP COMPENSACAO               811                           
1040001300411T 0600249600300050008840D00000000000000000001               30042015000000000001737756030392                         090000186385470001104996414000000173797005068277186385470001110000000000000000004810000000000                 
1040001300412U 0600000000000000000000000000000000000000000034700000000000034700000000000173700000000000104300000000000000000000000000000030042015060520151900        000000000000000CIP COMPENSACAO               811                           
