10400000         201274648000119200506              00249600300050008840FED NAC TRAB EDIF CONDOMINIOS CAIXA ECONOMICA FEDERAL                 20405201503122900180406000000                                                                     
10400011T01  030 2001274648000119200506              00249600300050008840FED NAC TRAB EDIF CONDOMINIOS 200506FED NAC TRAB EDIF CONDOMINIOS     300562CONATEC                           000000000405201500000000                                 
1040001300001T 0600249600300050008840D00000000000000000001               30042015000000000000000033032077                         090000000000541635104916414000000000097005068277000000541635110000000000000000004810000000000                 
1040001300002U 0600000000000000000000000000000000000000000493100000000000493100000000002465500000000001479300000000000000000000000000000029042015050520151900        000000000000000CIP COMPENSACAO               811                           
1040001300003T 0600249600300050008840D00000000000000000001               30042015000000000000000341001422                         090000000000541640104956414000000000097005068277000000541640110000000000000000004810000000000                 
1040001300004U 0600000000000000000000000000000000000000000091400000000000091400000000000456800000000000274000000000000000000000000000000029042015050520151900        000000000000000CIP COMPENSACAO               811                           
1040001300005T 0600249600300050008840D00000000000000000001               30042015000000000000000033032077                         090000000000541642104986414000000000097005068277000000541642110000000000000000004810000000000                 
1040001300006U 0600000000000000000000000000000000000000000073500000000000073500000000000367600000000000220600000000000000000000000000000029042015050520151900        000000000000000CIP COMPENSACAO               811                           
1040001300007T 0600249600300050008840D00000000000000000001               30042015000000000000000033036200                         090000000000541659104986414000000000097005068277000000541659110000000000000000004810000000000                 
1040001300008U 0600000000000000000000000000000000000000000808700000000000808700000000004043700000000002426300000000000000000000000000000029042015050520151900        000000000000000CIP COMPENSACAO               811                           
1040001300009T 0600249600300050008840D00000000000000000001               30042015000000000000000033032077                         090000000000541660104966414000000000097005068277000000541660110000000000000000004810000000000                 
1040001300010U 0600000000000000000000000000000000000000000072300000000000072300000000000361700000000000217100000000000000000000000000000029042015050520151900        000000000000000CIP COMPENSACAO               811                           
1040001300011T 0600249600300050008840D00000000000000000001               30042015000000000000000033032077                         090000000000541671104986414000000000097005068277000000541671110000000000000000004810000000000                 
1040001300012U 0600000000000000000000000000000000000000000163500000000000163500000000000817500000000000490500000000000000000000000000000029042015050520151900        000000000000000CIP COMPENSACAO               811                           
1040001300013T 0600249600300050008840D00000000000000000001               30042015000000000000000033032077                         090000000000541672104946414000000000097005068277000000541672110000000000000000004810000000000                 
1040001300014U 0600000000000000000000000000000000000000000207500000000000207500000000001037400000000000622400000000000000000000000000000029042015050520151900        000000000000000CIP COMPENSACAO               811                           
1040001300015T 0600249600300050008840D00000000000000000001               30042015000000000000000033032077                         090000000000541674104976414000000000097005068277000000541674110000000000000000004810000000000                 
1040001300016U 0600000000000000000000000000000000000000000069200000000000069200000000000345800000000000207400000000000000000000000000000029042015050520151900        000000000000000CIP COMPENSACAO               811                           
1040001300017T 0600249600300050008840D00000000000000000001               30042015000000000000000033032077                         090000000000541679104996414000000000097005068277000000541679110000000000000000004810000000000                 
1040001300018U 0600000000000000000000000000000000000000000137400000000000137400000000000687200000000000412400000000000000000000000000000029042015050520151900        000000000000000CIP COMPENSACAO               811                           
1040001300019T 0600249600300050008840D00000000000000000001               30042015000000000000000033032077                         090000000000541717104986414000000000097005068277000000541717110000000000000000004810000000000                 
1040001300020U 0600000000000000000000000000000000000000000144700000000000144700000000000723300000000000433900000000000000000000000000000029042015050520151900        000000000000000CIP COMPENSACAO               811                           
1040001300021T 0600249600300050008840D00000000000000000001               30042015000000000000000237004073                         090000000000541722104916414000000000097005068277000000541722110000000000000000004810000000000                 
1040001300022U 0600000000000000000000000000000000000000000069100000000000069100000000000345700000000000207500000000000000000000000000000029042015050520151900        000000000000000CIP COMPENSACAO               811                           
1040001300023T 0600249600300050008840D00000000000000000001               30042015000000000000000033032077                         090000000000541745104916414000000000097005068277000000541745110000000000000000004810000000000                 
1040001300024U 0600000000000000000000000000000000000000000072400000000000072400000000000362000000000000217200000000000000000000000000000029042015050520151900        000000000000000CIP COMPENSACAO               811                           
1040001300025T 0600249600300050008840D00000000000000000001               30042015000000000000000341030368                         090000000000541759104926414000000000097005068277000000541759110000000000000000004810000000000                 
1040001300026U 0600000000000000000000000000000000000000000591600000000000591600000000002958200000000001775000000000000000000000000000000029042015050520151900        000000000000000CIP COMPENSACAO               811                           
1040001300027T 0600249600300050008840D00000000000000000001               30042015000000000000000033032077                         090000000000541775104986414000000000097005068277000000541775110000000000000000004810000000000                 
1040001300028U 0600000000000000000000000000000000000000000126400000000000126400000000000631800000000000379000000000000000000000000000000029042015050520151900        000000000000000CIP COMPENSACAO               811                           
1040001300029T 0600249600300050008840D00000000000000000001               30042015000000000000000237002550                         090000000000541788104926414000000000097005068277000000541788110000000000000000004810000000000                 
1040001300030U 0600000000000000000000000000000000000000009201800000000009201800000000046008800000000027605200000000000000000000000000000029042015050520151900        000000000000000CIP COMPENSACAO               811                           
1040001300031T 0600249600300050008840D00000000000000000001               30042015000000000000000237023736                         090000000000541818104996414000000000097005068277000000541818110000000000000000004810000000000                 
1040001300032U 0600000000000000000000000000000000000000007463500000000007463500000000037317500000000022390500000000000000000000000000000029042015050520151900        000000000000000CIP COMPENSACAO               811                           
1040001300033T 0600249600300050008840D00000000000000000001               30042015000000000000000001070211                         090000000000541823104926414000000000097005068277000000541823110000000000000000004810000000000                 
1040001300034U 0600000000000000000000000000000000000000000075500000000000075500000000000377700000000000226700000000000000000000000000000029042015050520151900        000000000000000CIP COMPENSACAO               811                           
1040001300035T 0600249600300050008840D00000000000000000001               30042015000000000000000033032077                         090000000000541839104966414000000000097005068277000000541839110000000000000000004810000000000                 
1040001300036U 0600000000000000000000000000000000000000000111700000000000111700000000000558600000000000335200000000000000000000000000000029042015050520151900        000000000000000CIP COMPENSACAO               811                           
1040001300037T 0600249600300050008840D00000000000000000001               30042015000000000000000399004782                         090000000000541846104926414000000000097005068277000000541846110000000000000000004810000000000                 
1040001300038U 0600000000000000000000000000000000000000000433700000000000433700000000002168400000000001301000000000000000000000000000000029042015050520151900        000000000000000CIP COMPENSACAO               811                           
1040001300039T 0600249600300050008840D00000000000000000001               30042015000000000000000033036200                         090000000000541865104976414000000000097005068277000000541865110000000000000000004810000000000                 
1040001300040U 0600000000000000000000000000000000000000000419000000000000419000000000002095200000000001257200000000000000000000000000000029042015050520151900        000000000000000CIP COMPENSACAO               811                           
1040001300041T 0600249600300050008840D00000000000000000001               30042015000000000000000033032077                         090000000000541872104936414000000000097005068277000000541872110000000000000000004810000000000                 
1040001300042U 0600000000000000000000000000000000000000000085900000000000085900000000000429700000000000257900000000000000000000000000000029042015050520151900        000000000000000CIP COMPENSACAO               811                           
1040001300043T 0600249600300050008840D00000000000000000001               30042015000000000000000341005533                         090000000000541876104996414000000000097005068277000000541876110000000000000000004810000000000                 
1040001300044U 0600000000000000000000000000000000000000001257400000000001257400000000006287000000000003772200000000000000000000000000000029042015050520151900        000000000000000CIP COMPENSACAO               811                           
1040001300045T 0600249600300050008840D00000000000000000001               30042015000000000000000341005533                         090000000000541902104916414000000000097005068277000000541902110000000000000000004810000000000                 
1040001300046U 0600000000000000000000000000000000000000000144700000000000144700000000000723400000000000434000000000000000000000000000000029042015050520151900        000000000000000CIP COMPENSACAO               811                           
1040001300047T 0600249600300050008840D00000000000000000001               30042015000000000000000033032077                         090000000000541913104916414000000000097005068277000000541913110000000000000000004810000000000                 
1040001300048U 0600000000000000000000000000000000000000000075500000000000075500000000000377500000000000226500000000000000000000000000000029042015050520151900        000000000000000CIP COMPENSACAO               811                           
1040001300049T 0600249600300050008840D00000000000000000001               30042015000000000000000341005533                         090000000000541929104956414000000000097005068277000000541929110000000000000000004810000000000                 
1040001300050U 0600000000000000000000000000000000000000001449500000000001449500000000007247700000000004348700000000000000000000000000000029042015050520151900        000000000000000CIP COMPENSACAO               811                           
1040001300051T 0600249600300050008840D00000000000000000001               30042015000000000000000237005843                         090000000000544960104916414000000000097005068277000000544960110000000000000000004810000000000                 
1040001300052U 0600000000000000000000000000000000000000000122000000000000122000000000000610000000000000366000000000000000000000000000000029042015050520151900        000000000000000CIP COMPENSACAO               811                           
1040001300053T 0600249600300050008840D00000000000000000001               30042015000000000013565237021342                         090000003910240001104936414000001356597005068277003910240001110000000000000000004810000000000                 
1040001300054U 0600000000000000000000000000000000000000000271300000000000271300000000001356500000000000813900000000000000000000000000000029042015050520151900        000000000000000CIP COMPENSACAO               811                           
1040001300055T 0600249600300050008840D00000000000000000001               30042015000000000013560341003824                         090000025673140001104946414000001356097005068277025673140001110000000000000000004810000000000                 
1040001300056U 0600000000000000000000000000000000000000000271200000000000271200000000001356000000000000813600000000000000000000000000000029042015050520151900        000000000000000CIP COMPENSACAO               811                           
1040001300057T 0600249600300050008840D00000000000000000001               30042015000000000090247001036986                         090000025727950001104916414000009024797005068277025727950001110000000000000000004810000000000                 
1040001300058U 0600000000000000000000000000000000000000001804900000000001804900000000009024700000000005414900000000000000000000000000000029042015050520151900        000000000000000CIP COMPENSACAO               811                           
1040001300059T 0600249600300050008840D00000000000000000001               30042015000000000007764748015024                         090000026572980001104956414000000776497005068277026572980001110000000000000000004810000000000                 
1040001300060U 0600000000000000000000000000000000000000000155300000000000155300000000000776400000000000465800000000000000000000000000000029042015050520151900        000000000000000CIP COMPENSACAO               811                           
1040001300061T 0600249600300050008840D00000000000000000001               30042015000000000013565399007382                         090000028854830001104936414000001356597005068277028854830001110000000000000000004810000000000                 
1040001300062U 0600000000000000000000000000000000000000000271300000000000271300000000001356500000000000813900000000000000000000000000000029042015050520151900        000000000000000CIP COMPENSACAO               811                           
1040001300063T 0600249600300050008840D00000000000000000001               30042015000000000316131341065307                         090000030916170001104916414000031613197005068277030916170001290000000000000000004810000000000                 
1040001300064U 0600000000000000000000000000000000000000006322600000000006322600000000031613100000000018967900000000000000000000000000000029042015050520151900        000000000000000CIP COMPENSACAO               829                           
1040001300065T 0600249600300050008840D00000000000000000001               30042015000000000008139341027464                         090000031348790002104966414000000813997005068277031348790002620000000000000000004810000000000                 
1040001300066U 0600000000000000000000000000000000000000000162800000000000162800000000000813900000000000488300000000000000000000000000000029042015050520151900        000000000000000CIP COMPENSACAO               862                           
1040001300067T 0600249600300050008840D00000000000000000001               30042015000000000013565001048330                         090000031422230001104956414000001356597005068277031422230001110000000000000000004810000000000                 
1040001300068U 0600000000000000000000000000000000000000000271300000000000271300000000001356500000000000813900000000000000000000000000000029042015050520151900        000000000000000CIP COMPENSACAO               811                           
1040001300069T 0600249600300050008840D00000000000000000001               30042015000000000009653756030368                         090000039663510001104986414000000965397005064277039663510001110000000000000000004810000000000                 
1040001300070U 0600000000000000000000000000000000000000000193100000000000193100000000000965300000000000579100000000000000000000000000000029042015050520151900        000000000000000CIP COMPENSACAO               411                           
1040001300071T 0600249600300050008840D00000000000000000001               30042015000000000033130341051683                         090000048604770001104926414000003313097005068277048604770001110000000000000000004810000000000                 
1040001300072U 0600000000000000000000000000000000000000000662600000000000662600000000003313000000000001987800000000000000000000000000000029042015050520151900        000000000000000CIP COMPENSACAO               811                           
1040001300073T 0600249600300050008840D00000000000000000001               30042015000000000008139341093149                         090000052884970001104966414000000813997005068277052884970001110000000000000000004810000000000                 
1040001300074U 0600000000000000000000000000000000000000000162800000000000162800000000000813900000000000488300000000000000000000000000000029042015050520151900        000000000000000CIP COMPENSACAO               811                           
1040001300075T 0600249600300050008840D00000000000000000001               30042015000000000013560001048330                         090000054943290001104956414000001356097005068277054943290001110000000000000000004810000000000                 
1040001300076U 0600000000000000000000000000000000000000000271200000000000271200000000001356000000000000813600000000000000000000000000000029042015050520151900        000000000000000CIP COMPENSACAO               811                           
1040001300077T 0600249600300050008840D00000000000000000001               30042015000000000013560001048330                         090000058590750001104916414000001356097005068277058590750001110000000000000000004810000000000                 
1040001300078U 0600000000000000000000000000000000000000000271200000000000271200000000001356000000000000813600000000000000000000000000000029042015050520151900        000000000000000CIP COMPENSACAO               811                           
1040001300079T 0600249600300050008840D00000000000000000001               30042015000000000028200341051683                         090000058884320001104926414000002820097005068277058884320001110000000000000000004810000000000                 
1040001300080U 0600000000000000000000000000000000000000000564000000000000564000000000002820000000000001692000000000000000000000000000000029042015050520151900        000000000000000CIP COMPENSACAO               811                           
1040001300081T 0600249600300050008840D00000000000000000001               30042015000000000055853001028746                         090000059495720001104916414000005585397005064277059495720001110000000000000000004810000000000                 
1040001300082U 0600000000000000000000000000000000000000001117100000000001117100000000005585300000000003351100000000000000000000000000000029042015050520151900        000000000000000CIP COMPENSACAO               411                           
1040001300083T 0600249600300050008840D00000000000000000001               30042015000000000001187756030767                         090000062430160001104946414000000118797005068277062430160001110000000000000000004810000000000                 
1040001300084U 0600000000000000000000000000000000000000000023700000000000023700000000000118700000000000071300000000000000000000000000000029042015050520151900        000000000000000CIP COMPENSACAO               811                           
1040001300085T 0600249600300050008840D00000000000000000001               30042015000000000002713001028746                         090000074733570001104976414000000271397005068277074733570001110000000000000000004810000000000                 
1040001300086U 0600000000000000000000000000000000000000000054300000000000054300000000000271300000000000162700000000000000000000000000000029042015050520151900        000000000000000CIP COMPENSACAO               811                           
1040001300087T 0600249600300050008840D00000000000000000001               30042015000000000008547341036196                         090000079501840001104926414000000854797005065277079501840001510000000000000000004810000000000                 
1040001300088U 0600000000000000000000000000000000000000000170900000000000170900000000000854700000000000512900000000000000000000000000000029042015050520151900        000000000000000CIP COMPENSACAO               551                           
1040001300089T 0600249600300050008840D00000000000000000001               30042015000000000023659341086959                         090000090505120001104916414000002365997005068277090505120001110000000000000000004810000000000                 
1040001300090U 0600000000000000000000000000000000000000000473200000000000473200000000002365900000000001419500000000000000000000000000000029042015050520151900        000000000000000CIP COMPENSACAO               811                           
1040001300091T 0600249600300050008840D00000000000000000001               30042015000000000021621341086959                         090000092560460001104946414000002162197005068277092560460001110000000000000000004810000000000                 
1040001300092U 0600000000000000000000000000000000000000000432400000000000432400000000002162100000000001297300000000000000000000000000000029042015050520151900        000000000000000CIP COMPENSACAO               811                           
1040001300093T 0600249600300050008840D00000000000000000001               30042015000000000003697001030040                         090000103252780001104946414000000369797005064277103252780001110000000000000000004810000000000                 
1040001300094U 0600000000000000000000000000000000000000000073900000000000073900000000000369700000000000221900000000000000000000000000000029042015050520151900        000000000000000CIP COMPENSACAO               411                           
1040001300095T 0600249600300050008840D00000000000000000001               30042015000000000015013237030708                         090000104508020001104916414000001501397005068277104508020001110000000000000000004810000000000                 
1040001300096U 0600000000000000000000000000000000000000000300300000000000300300000000001501300000000000900700000000000000000000000000000029042015050520151900        000000000000000CIP COMPENSACAO               811                           
1040001300097T 0600249600300050008840D00000000000000000001               30042015000000000003659104020443                         090000107030560001104916414000000365997005068277107030560001110000000000000000004480000000000                 
1040001300098U 0600000000000000000000000000000000000000000073200000000000073200000000000365900000000000219500000000000000000000000000000029042015050520152100        000000000000000AUTOMACAO                     811                           
1040001300099T 0600249600300050008840D00000000000000000001               30042015000000000010852104000337                         090000109868820001104956414000001085297005068277109868820001110000000000000000004480000000000                 
1040001300100U 0600000000000000000000000000000000000000000217000000000000217000000000001085200000000000651200000000000000000000000000000029042015050520152100        000000000000000AUTOMACAO                     811                           
1040001300101T 0600249600300050008840D00000000000000000001               30042015000000000001326001003212                         090000118847110001104916414000000132697005068277118847110001110000000000000000004810000000000                 
1040001300102U 0600000000000000000000000000000000000000000026500000000000026500000000000132600000000000079600000000000000000000000000000029042015050520151900        000000000000000CIP COMPENSACAO               811                           
1040001300103T 0600249600300050008840D00000000000000000001               30042015000000000003473237003433                         090000140235710001104946414000000347397005064277140235710001110000000000000000004810000000000                 
1040001300104U 0600000000000000000000000000000000000000000069500000000000069500000000000347300000000000208300000000000000000000000000000029042015050520151900        000000000000000CIP COMPENSACAO               411                           
1040001300105T 0600249600300050008840D00000000000000000001               30042015000000000002713341065307                         090000159156130001104976414000000271397005069277159156130001600000000000000000004810000000000                 
1040001300106U 0600000000000000000000000000000000000000000054300000000000054300000000000271300000000000162700000000000000000000000000000029042015050520151900        000000000000000CIP COMPENSACAO               960                           
1040001300107T 0600249600300050008840D00000000000000000001               30042015000000000002713001015881                         090000180811525506104986414000000271397005068277180811525506110000000000000000004810000000000                 
1040001300108U 0600000000000000000000000000000000000000000054300000000000054300000000000271300000000000162700000000000000000000000000000029042015050520151900        000000000000000CIP COMPENSACAO               811                           
1040001300109T 0600249600300050008840D00000000000000000001               30042015000000000007449341016500                         090000184074000001104936414000000744997005066277184074000001820000000000000000004810000000000                 
1040001300110U 0600000000000000000000000000000000000000000149000000000000149000000000000744900000000000446900000000000000000000000000000029042015050520151900        000000000000000CIP COMPENSACAO               682                           
1040001300111T 0600249600300050008840D00000000000000000001               30042015000000000001833756030325                         090000211958940001104916414000000183397005068277211958940001110000000000000000004810000000000                 
1040001300112U 0600000000000000000000000000000000000000000036700000000000036700000000000183300000000000109900000000000000000000000000000029042015050520151900        000000000000000CIP COMPENSACAO               811                           
1040001300113T 0600249600300050008840D00000000000000000001               30042015000000000001833748015210                         090000214399700001104926414000000183397005068277214399700001110000000000000000004810000000000                 
1040001300114U 0600000000000000000000000000000000000000000036700000000000036700000000000183300000000000109900000000000000000000000000000029042015050520151900        000000000000000CIP COMPENSACAO               811                           
1040001300115T 0600249600300050008840D00000000000000000001               30042015000000000045862001048330                         090000243711480001104936414000004586297005068277243711480001110000000000000000004810000000000                 
1040001300116U 0600000000000000000000000000000000000000000917200000000000917200000000004586200000000002751800000000000000000000000000000029042015050520151900        000000000000000CIP COMPENSACAO               811                           
1040001300117T 0600249600300050008840D00000000000000000001               30042015000000000013565001035254                         090000409978760001104946414000001356597005068277409978760001110000000000000000004810000000000                 
1040001300118U 0600000000000000000000000000000000000000000271300000000000271300000000001356500000000000813900000000000000000000000000000029042015050520151900        000000000000000CIP COMPENSACAO               811                           
1040001300119T 0600249600300050008840D00000000000000000001               30042015000000000017191001035254                         090000409985440001104926414000001719197005068277409985440001110000000000000000004810000000000                 
1040001300120U 0600000000000000000000000000000000000000000343800000000000343800000000001719100000000001031500000000000000000000000000000029042015050520151900        000000000000000CIP COMPENSACAO               811                           
1040001300121T 0600249600300050008840D00000000000000000001               30042015000000000006230756030333                         090000806279460001104996414000000623097005068277806279460001110000000000000000004810000000000                 
1040001300122U 0600000000000000000000000000000000000000000124600000000000124600000000000623000000000000373800000000000000000000000000000029042015050520151900        000000000000000CIP COMPENSACAO               811                           
1040001300123T 0600249600300050008840D00000000000000000001               30042015000000000000000104017876                         090000000000541683104966414000000000097005068277000000541683110000000000000000003050000000000                 
1040001300124U 0600000000000000000000000000000000000000000348000000000000348000000000001740000000000001044000000000000000000000000000000030042015050520151700        000000000000000LOTERICOS SISPL               811                           
1040001300125T 0600249600300050008840D00000000000000000001               30042015000000000000000104003506                         090000000000541751104916414000000000097005068277000000541751110000000000000000004480000000000                 
1040001300126U 0600000000000000000000000000000000000000000126600000000000126600000000000632800000000000379600000000000000000000000000000030042015050520151100        000000000000000AUTOMACAO                     811                           
1040001300127T 0600249600300050008840D00000000000000000001               30042015000000000000000104028690                         090000000000541768104916414000000000097005068277000000541768110000000000000000001800000000000                 
1040001300128U 06000000000000000000000000000000000000000000630000000000000630000000000003152000000000001892000000000000000000000000000000300420150505201512I0        000000000000000INTERNET                      811                           
1040001300129T 0600249600300050008840D00000000000000000001               30042015000000000000000104032107                         090000000000541777104916414000000000097005068277000000541777110000000000000000003050000000000                 
1040001300130U 0600000000000000000000000000000000000000000374600000000000374600000000001873000000000001123800000000000000000000000000000030042015050520151700        000000000000000LOTERICOS SISPL               811                           
1040001300131T 0600249600300050008840D00000000000000000001               30042015000000000000000104028711                         090000000000541778104976414000000000097005068277000000541778110000000000000000004480000000000                 
1040001300132U 0600000000000000000000000000000000000000000289400000000000289400000000001446800000000000868000000000000000000000000000000030042015050520151100        000000000000000AUTOMACAO                     811                           
1040001300133T 0600249600300050008840D00000000000000000001               30042015000000000000000104048500                         090000000000541874104966414000000000097005068277000000541874110000000000000000001800000000000                 
1040001300134U 06000000000000000000000000000000000000000003796000000000003796000000000018982000000000011390000000000000000000000000000000300420150505201512I0        000000000000000INTERNET                      811                           
1040001300135T 0600249600300050008840D00000000000000000001               30042015000000000000000104006424                         090000000000541944104946414000000000097005068277000000541944110000000000000000001800000000000                 
1040001300136U 06000000000000000000000000000000000000000003617000000000003617000000000018085000000000010851000000000000000000000000000000300420150505201512I0        000000000000000INTERNET                      811                           
1040001300137T 0600249600300050008840D00000000000000000001               30042015000000000000000104004146                         090000000000544129104916414000000000097005068277000000544129110000000000000000003050000000000                 
1040001300138U 0600000000000000000000000000000000000000002315400000000002315400000000011576800000000006946000000000000000000000000000000030042015050520151700        000000000000000LOTERICOS SISPL               811                           
1040001300139T 0600249600300050008840D00000000000000000001               30042015000000000000000104004146                         090000000000544183104946414000000000097005068277000000544183110000000000000000004480000000000                 
1040001300140U 0600000000000000000000000000000000000000002136900000000002136900000000010684400000000006410600000000000000000000000000000030042015050520151100        000000000000000AUTOMACAO                     811                           
1040001300141T 0600249600300050008840D00000000000000000001               30042015000000000000000104004146                         090000000000544208104976414000000000097005068277000000544208110000000000000000001800000000000                 
1040001300142U 06000000000000000000000000000000000000000099797000000000099797000000000498984000000000299390000000000000000000000000000000300420150505201512I0        000000000000000INTERNET                      811                           
1040001300143T 0600249600300050008840D00000000000000000001               30042015000000000000000104018961                         090000000000544482104916414000000000097005068277000000544482110000000000000000002190000000000                 
1040001300144U 06000000000000000000000000000000000000000001090000000000001090000000000005449000000000003269000000000000000000000000000000300420150505201512C0        000000000000000SALA DE CONVENIENCIA          811                           
1040001300145T 0600249600300050008840D00000000000000000001               30042015000000000000000104004146                         090000000000544554104926414000000000097005068277000000544554110000000000000000002190000000000                 
1040001300146U 06000000000000000000000000000000000000000000450000000000000450000000000002250000000000001350000000000000000000000000000000300420150505201512C0        000000000000000SALA DE CONVENIENCIA          811                           
1040001300147T 0600249600300050008840D00000000000000000001               30042015000000000000000104018961                         090000000000544617104946414000000000097005068277000000544617110000000000000000004480000000000                 
1040001300148U 0600000000000000000000000000000000000000000126200000000000126200000000000631200000000000378800000000000000000000000000000030042015050520151100        000000000000000AUTOMACAO                     811                           
1040001300149T 0600249600300050008840D00000000000000000001               30042015000000000000000104004146                         090000000000544924104946414000000000097005068277000000544924110000000000000000001800000000000                 
1040001300150U 06000000000000000000000000000000000000000005545000000000005545000000000027723000000000016633000000000000000000000000000000300420150505201512I0        000000000000000INTERNET                      811                           
1040001300151T 0600249600300050008840D00000000000000000001               30042015000000000000000104005606                         090000000004133939104916414000000000097005068277000004133939110000000000000000002190000000000                 
1040001300152U 06000000000000000000000000000000000000000002879000000000002879000000000014397000000000008639000000000000000000000000000000300420150505201512C0        000000000000000SALA DE CONVENIENCIA          811                           
1040001300153T 0600249600300050008840D00000000000000000001               30042015000000000000000104006491                         090000000004134221104966414000000000097005068277000004134221110000000000000000001800000000000                 
1040001300154U 06000000000000000000000000000000000000000003080000000000003080000000000015400000000000009240000000000000000000000000000000300420150505201512I0        000000000000000INTERNET                      811                           
1040001300155T 0600249600300050008840D00000000000000000001               30042015000000000000000104007595                         090000000004134634104996414000000000097005068277000004134634110000000000000000001800000000000                 
1040001300156U 06000000000000000000000000000000000000000003258000000000003258000000000016288000000000009772000000000000000000000000000000300420150505201512I0        000000000000000INTERNET                      811                           
1040001300157T 0600249600300050008840D00000000000000000001               30042015000000000010852104020443                         090000003586840001104936414000001085297005068277003586840001110000000000000000001800000000000                 
1040001300158U 06000000000000000000000000000000000000000002170000000000002170000000000010852000000000006512000000000000000000000000000000300420150505201512I0        000000000000000INTERNET                      811                           
1040001300159T 0600249600300050008840D00000000000000000001               30042015000000000005426104048836                         090000005871040001104956414000000542697005065277005871040001510000000000000000003050000000000                 
1040001300160U 0600000000000000000000000000000000000000000108500000000000108500000000000542600000000000325600000000000000000000000000000030042015050520151700        000000000000000LOTERICOS SISPL               551                           
1040001300161T 0600249600300050008840D00000000000000000001               30042015000000000013560104000353                         090000006488750001104916414000001356097005068277006488750001110000000000000000001800000000000                 
1040001300162U 06000000000000000000000000000000000000000002712000000000002712000000000013560000000000008136000000000000000000000000000000300420150505201512I0        000000000000000INTERNET                      811                           
1040001300163T 0600249600300050008840D00000000000000000001               30042015000000000014483104005398                         090000007385560001104976414000001448397005068277007385560001110000000000000000004480000000000                 
1040001300164U 0600000000000000000000000000000000000000000289700000000000289700000000001448300000000000868900000000000000000000000000000030042015050520151100        000000000000000AUTOMACAO                     811                           
1040001300165T 0600249600300050008840D00000000000000000001               30042015000000000002713104048836                         090000007720769449104916414000000271397005065277007720769449510000000000000000003050000000000                 
1040001300166U 0600000000000000000000000000000000000000000054300000000000054300000000000271300000000000162700000000000000000000000000000030042015050520151700        000000000000000LOTERICOS SISPL               551                           
1040001300167T 0600249600300050008840D00000000000000000001               30042015000000000072845104032425                         090000008983560001104986414000007284597005068277008983560001110000000000000000001800000000000                 
1040001300168U 06000000000000000000000000000000000000000014569000000000014569000000000072845000000000043707000000000000000000000000000000300420150505201512I0        000000000000000INTERNET                      811                           
1040001300169T 0600249600300050008840D00000000000000000001               30042015000000000008491104000353                         090000009324620001104936414000000849197005067277009324620001040000000000000000001800000000000                 
1040001300170U 06000000000000000000000000000000000000000001698000000000001698000000000008491000000000005095000000000000000000000000000000300420150505201512I0        000000000000000INTERNET                      704                           
1040001300171T 0600249600300050008840D00000000000000000001               30042015000000000013565104048836                         090000011030460001104916414000001356597005065277011030460001510000000000000000003050000000000                 
1040001300172U 0600000000000000000000000000000000000000000271300000000000271300000000001356500000000000813900000000000000000000000000000030042015050520151700        000000000000000LOTERICOS SISPL               551                           
1040001300173T 0600249600300050008840D00000000000000000001               30042015000000000013565104015857                         090000012059790001104916414000001356597005068277012059790001110000000000000000002190000000000                 
1040001300174U 06000000000000000000000000000000000000000002713000000000002713000000000013565000000000008139000000000000000000000000000000300420150505201512C0        000000000000000SALA DE CONVENIENCIA          811                           
1040001300175T 0600249600300050008840D00000000000000000001               30042015000000000031548104048836                         090000013143990001104946414000003154897005065277013143990001510000000000000000003050000000000                 
1040001300176U 0600000000000000000000000000000000000000000631000000000000631000000000003154800000000001892800000000000000000000000000000030042015050520151700        000000000000000LOTERICOS SISPL               551                           
1040001300177T 0600249600300050008840D00000000000000000001               30042015000000000019909104020443                         090000013552720001104916414000001990997005068277013552720001110000000000000000001800000000000                 
1040001300178U 06000000000000000000000000000000000000000003982000000000003982000000000019909000000000011945000000000000000000000000000000300420150505201512I0        000000000000000INTERNET                      811                           
1040001300179T 0600249600300050008840D00000000000000000001               30042015000000000013560104007595                         090000013757420001104936414000001356097005068277013757420001110000000000000000001800000000000                 
1040001300180U 06000000000000000000000000000000000000000002712000000000002712000000000013560000000000008136000000000000000000000000000000300420150505201512I0        000000000000000INTERNET                      811                           
1040001300181T 0600249600300050008840D00000000000000000001               30042015000000000002576104004146                         090000013784600001104916414000000257697005068277013784600001110000000000000000003050000000000                 
1040001300182U 0600000000000000000000000000000000000000000051500000000000051500000000000257600000000000154600000000000000000000000000000030042015050520151700        000000000000000LOTERICOS SISPL               811                           
1040001300183T 0600249600300050008840D00000000000000000001               30042015000000000003143104018961                         090000013847090001104986414000000314397005068277013847090001110000000000000000003050000000000                 
1040001300184U 0600000000000000000000000000000000000000000062900000000000062900000000000314300000000000188500000000000000000000000000000030042015050520151700        000000000000000LOTERICOS SISPL               811                           
1040001300185T 0600249600300050008840D00000000000000000001               30042015000000000014483104020443                         090000013860300001104966414000001448397005068277013860300001110000000000000000001800000000000                 
1040001300186U 06000000000000000000000000000000000000000002897000000000002897000000000014483000000000008689000000000000000000000000000000300420150505201512I0        000000000000000INTERNET                      811                           
1040001300187T 0600249600300050008840D00000000000000000001               30042015000000000009015104015857                         090000018843910001104946414000000901597005068277018843910001110000000000000000001800000000000                 
1040001300188U 06000000000000000000000000000000000000000001803000000000001803000000000009015000000000005409000000000000000000000000000000300420150505201512I0        000000000000000INTERNET                      811                           
1040001300189T 0600249600300050008840D00000000000000000001               30042015000000000013565104007595                         090000021243890001104986414000001356597005068277021243890001110000000000000000002190000000000                 
1040001300190U 06000000000000000000000000000000000000000002713000000000002713000000000013565000000000008139000000000000000000000000000000300420150505201512C0        000000000000000SALA DE CONVENIENCIA          811                           
1040001300191T 0600249600300050008840D00000000000000000001               30042015000000000037001104005606                         090000023071050001104976414000003700197005068277023071050001110000000000000000004480000000000                 
1040001300192U 0600000000000000000000000000000000000000000740000000000000740000000000003700100000000002220100000000000000000000000000000030042015050520151100        000000000000000AUTOMACAO                     811                           
1040001300193T 0600249600300050008840D00000000000000000001               30042015000000000018141104048852                         090000025725030001104916414000001814197005068277025725030001110000000000000000004480000000000                 
1040001300194U 0600000000000000000000000000000000000000000362800000000000362800000000001814100000000001088500000000000000000000000000000030042015050520151100        000000000000000AUTOMACAO                     811                           
1040001300195T 0600249600300050008840D00000000000000000001               30042015000000000013565104000337                         090000025829100001104956414000001356597005068277025829100001110000000000000000001800000000000                 
1040001300196U 06000000000000000000000000000000000000000002713000000000002713000000000013565000000000008139000000000000000000000000000000300420150505201512I0        000000000000000INTERNET                      811                           
1040001300197T 0600249600300050008840D00000000000000000001               30042015000000000013560104000353                         090000028537650001104916414000001356097005068277028537650001110000000000000000001800000000000                 
1040001300198U 06000000000000000000000000000000000000000002712000000000002712000000000013560000000000008136000000000000000000000000000000300420150505201512I0        000000000000000INTERNET                      811                           
1040001300199T 0600249600300050008840D00000000000000000001               30042015000000000003771104004146                         090000033533920001104926414000000377197005068277033533920001110000000000000000001800000000000                 
1040001300200U 06000000000000000000000000000000000000000000754000000000000754000000000003771000000000002263000000000000000000000000000000300420150505201512I0        000000000000000INTERNET                      811                           
1040001300201T 0600249600300050008840D00000000000000000001               30042015000000000068723104048836                         090000034998630001104916414000006872397005065277034998630001510000000000000000003050000000000                 
1040001300202U 0600000000000000000000000000000000000000001374500000000001374500000000006872300000000004123300000000000000000000000000000030042015050520151700        000000000000000LOTERICOS SISPL               551                           
1040001300203T 0600249600300050008840D00000000000000000001               30042015000000000031909104006688                         090000035038520009104986414000003190997005066277035038520009390000000000000000001800000000000                 
1040001300204U 06000000000000000000000000000000000000000006382000000000006382000000000031909000000000019145000000000000000000000000000000300420150505201512I0        000000000000000INTERNET                      639                           
1040001300205T 0600249600300050008840D00000000000000000001               30042015000000000013565104048836                         090000036667380001104986414000001356597005065277036667380001510000000000000000003050000000000                 
1040001300206U 0600000000000000000000000000000000000000000271300000000000271300000000001356500000000000813900000000000000000000000000000030042015050520151700        000000000000000LOTERICOS SISPL               551                           
1040001300207T 0600249600300050008840D00000000000000000001               30042015000000000002713104048836                         090000040868516791104946414000000271397005065277040868516791510000000000000000003050000000000                 
1040001300208U 0600000000000000000000000000000000000000000054300000000000054300000000000271300000000000162700000000000000000000000000000030042015050520151700        000000000000000LOTERICOS SISPL               551                           
1040001300209T 0600249600300050008840D00000000000000000001               30042015000000000008870104007595                         090000042799830001104996414000000887097005068277042799830001110000000000000000001800000000000                 
1040001300210U 06000000000000000000000000000000000000000001774000000000001774000000000008870000000000005322000000000000000000000000000000300420150505201512I0        000000000000000INTERNET                      811                           
1040001300211T 0600249600300050008840D00000000000000000001               30042015000000000002713104048836                         090000044497860001104916414000000271397005065277044497860001510000000000000000003050000000000                 
1040001300212U 0600000000000000000000000000000000000000000054300000000000054300000000000271300000000000162700000000000000000000000000000030042015050520151700        000000000000000LOTERICOS SISPL               551                           
1040001300213T 0600249600300050008840D00000000000000000001               30042015000000000013560104000337                         090000045250950001104966414000001356097005068277045250950001110000000000000000002190000000000                 
1040001300214U 06000000000000000000000000000000000000000002712000000000002712000000000013560000000000008136000000000000000000000000000000300420150505201512C0        000000000000000SALA DE CONVENIENCIA          811                           
1040001300215T 0600249600300050008840D00000000000000000001               30042015000000000091332104038318                         090000045752680001104926414000009133297005064277045752680001110000000000000000001800000000000                 
1040001300216U 06000000000000000000000000000000000000000018266000000000018266000000000091332000000000054800000000000000000000000000000000300420150505201512I0        000000000000000INTERNET                      411                           
1040001300217T 0600249600300050008840D00000000000000000001               30042015000000000010852104020443                         090000046833530001104986414000001085297005068277046833530001110000000000000000004480000000000                 
1040001300218U 0600000000000000000000000000000000000000000217000000000000217000000000001085200000000000651200000000000000000000000000000030042015050520151100        000000000000000AUTOMACAO                     811                           
1040001300219T 0600249600300050008840D00000000000000000001               30042015000000000036197104048836                         090000046999250001104926414000003619797005065277046999250001510000000000000000003050000000000                 
1040001300220U 0600000000000000000000000000000000000000000723900000000000723900000000003619700000000002171900000000000000000000000000000030042015050520151700        000000000000000LOTERICOS SISPL               551                           
1040001300221T 0600249600300050008840D00000000000000000001               30042015000000000002713104020443                         090000047958500001104996414000000271397005068277047958500001110000000000000000002190000000000                 
1040001300222U 06000000000000000000000000000000000000000000543000000000000543000000000002713000000000001627000000000000000000000000000000300420150505201512C0        000000000000000SALA DE CONVENIENCIA          811                           
1040001300223T 0600249600300050008840D00000000000000000001               30042015000000000005426104020443                         090000048086270001104916414000000542697005068277048086270001110000000000000000001800000000000                 
1040001300224U 06000000000000000000000000000000000000000001085000000000001085000000000005426000000000003256000000000000000000000000000000300420150505201512I0        000000000000000INTERNET                      811                           
1040001300225T 0600249600300050008840D00000000000000000001               30042015000000000045749104015857                         090000049002800001104936414000004574997005068277049002800001110000000000000000001800000000000                 
1040001300226U 06000000000000000000000000000000000000000009150000000000009150000000000045749000000000027449000000000000000000000000000000300420150505201512I0        000000000000000INTERNET                      811                           
1040001300227T 0600249600300050008840D00000000000000000001               30042015000000000003473104018848                         090000049231308904104966414000000347397005064277049231308904110000000000000000004480000000000                 
1040001300228U 0600000000000000000000000000000000000000000069500000000000069500000000000347300000000000208300000000000000000000000000000030042015050520151100        000000000000000AUTOMACAO                     411                           
1040001300229T 0600249600300050008840D00000000000000000001               30042015000000000008139104007595                         090000050556840001104916414000000813997005068277050556840001110000000000000000004480000000000                 
1040001300230U 0600000000000000000000000000000000000000000162800000000000162800000000000813900000000000488300000000000000000000000000000030042015050520151100        000000000000000AUTOMACAO                     811                           
1040001300231T 0600249600300050008840D00000000000000000001               30042015000000000026887104015857                         090000051137850001104916414000002688797005068277051137850001110000000000000000001800000000000                 
1040001300232U 06000000000000000000000000000000000000000005377000000000005377000000000026887000000000016133000000000000000000000000000000300420150505201512I0        000000000000000INTERNET                      811                           
1040001300233T 0600249600300050008840D00000000000000000001               30042015000000000005254104048836                         090000054691700001104936414000000525497005064277054691700001110000000000000000003050000000000                 
1040001300234U 0600000000000000000000000000000000000000000105100000000000105100000000000525400000000000315200000000000000000000000000000030042015050520151700        000000000000000LOTERICOS SISPL               411                           
1040001300235T 0600249600300050008840D00000000000000000001               30042015000000000008136104000345                         090000055894970001104986414000000813697005068277055894970001110000000000000000001800000000000                 
1040001300236U 06000000000000000000000000000000000000000001627000000000001627000000000008136000000000004882000000000000000000000000000000300420150505201512I0        000000000000000INTERNET                      811                           
1040001300237T 0600249600300050008840D00000000000000000001               30042015000000000010852104048836                         090000055937980001104946414000001085297005065277055937980001510000000000000000003050000000000                 
1040001300238U 0600000000000000000000000000000000000000000217000000000000217000000000001085200000000000651200000000000000000000000000000030042015050520151700        000000000000000LOTERICOS SISPL               551                           
1040001300239T 0600249600300050008840D00000000000000000001               30042015000000000002713104048836                         090000056748980001104946414000000271397005065277056748980001510000000000000000003050000000000                 
1040001300240U 0600000000000000000000000000000000000000000054300000000000054300000000000271300000000000162700000000000000000000000000000030042015050520151700        000000000000000LOTERICOS SISPL               551                           
1040001300241T 0600249600300050008840D00000000000000000001               30042015000000000013565104048836                         090000057997780001104916414000001356597005065277057997780001510000000000000000003050000000000                 
1040001300242U 0600000000000000000000000000000000000000000271300000000000271300000000001356500000000000813900000000000000000000000000000030042015050520151700        000000000000000LOTERICOS SISPL               551                           
1040001300243T 0600249600300050008840D00000000000000000001               30042015000000000003473104018961                         090000059288240001104946414000000347397005064277059288240001110000000000000000001800000000000                 
1040001300244U 06000000000000000000000000000000000000000000695000000000000695000000000003473000000000002083000000000000000000000000000000300420150505201512I0        000000000000000INTERNET                      411                           
1040001300245T 0600249600300050008840D00000000000000000001               30042015000000000008136104015857                         090000060975680001104916414000000813697005069277060975680001410000000000000000004480000000000                 
1040001300246U 0600000000000000000000000000000000000000000162700000000000162700000000000813600000000000488200000000000000000000000000000030042015050520151100        000000000000000AUTOMACAO                     941                           
1040001300247T 0600249600300050008840D00000000000000000001               30042015000000000010852104007595                         090000061010530001104916414000001085297005068277061010530001110000000000000000001800000000000                 
1040001300248U 06000000000000000000000000000000000000000002170000000000002170000000000010852000000000006512000000000000000000000000000000300420150505201512I0        000000000000000INTERNET                      811                           
1040001300249T 0600249600300050008840D00000000000000000001               30042015000000000016278104048836                         090000061865470001104956414000001627897005065277061865470001510000000000000000003050000000000                 
1040001300250U 0600000000000000000000000000000000000000000325600000000000325600000000001627800000000000976600000000000000000000000000000030042015050520151700        000000000000000LOTERICOS SISPL               551                           
1040001300251T 0600249600300050008840D00000000000000000001               30042015000000000024408104032425                         090000062017200001104916414000002440897005068277062017200001110000000000000000001800000000000                 
1040001300252U 06000000000000000000000000000000000000000004882000000000004882000000000024408000000000014644000000000000000000000000000000300420150505201512I0        000000000000000INTERNET                      811                           
1040001300253T 0600249600300050008840D00000000000000000001               30042015000000000025447104048836                         090000062448390001104926414000002544797005065277062448390001510000000000000000003050000000000                 
1040001300254U 0600000000000000000000000000000000000000000508900000000000508900000000002544700000000001526900000000000000000000000000000030042015050520151700        000000000000000LOTERICOS SISPL               551                           
1040001300255T 0600249600300050008840D00000000000000000001               30042015000000000002713104048836                         090000063112730001104966414000000271397005065277063112730001510000000000000000003050000000000                 
1040001300256U 0600000000000000000000000000000000000000000054300000000000054300000000000271300000000000162700000000000000000000000000000030042015050520151700        000000000000000LOTERICOS SISPL               551                           
1040001300257T 0600249600300050008840D00000000000000000001               30042015000000000002713104048836                         090000070478700001104986414000000271397005065277070478700001510000000000000000003050000000000                 
1040001300258U 0600000000000000000000000000000000000000000054300000000000054300000000000271300000000000162700000000000000000000000000000030042015050520151700        000000000000000LOTERICOS SISPL               551                           
1040001300259T 0600249600300050008840D00000000000000000001               30042015000000000002713104048836                         090000070680920001104916414000000271397005065277070680920001510000000000000000003050000000000                 
1040001300260U 0600000000000000000000000000000000000000000054300000000000054300000000000271300000000000162700000000000000000000000000000030042015050520151700        000000000000000LOTERICOS SISPL               551                           
1040001300261T 0600249600300050008840D00000000000000000001               30042015000000000002713104048836                         090000072109440001104926414000000271397005065277072109440001510000000000000000003050000000000                 
1040001300262U 0600000000000000000000000000000000000000000054300000000000054300000000000271300000000000162700000000000000000000000000000030042015050520151700        000000000000000LOTERICOS SISPL               551                           
1040001300263T 0600249600300050008840D00000000000000000001               30042015000000000008139104048836                         090000072155780001104936414000000813997005065277072155780001510000000000000000003050000000000                 
1040001300264U 0600000000000000000000000000000000000000000162800000000000162800000000000813900000000000488300000000000000000000000000000030042015050520151700        000000000000000LOTERICOS SISPL               551                           
1040001300265T 0600249600300050008840D00000000000000000001               30042015000000000008139104048836                         090000074645420001104976414000000813997005065277074645420001510000000000000000003050000000000                 
1040001300266U 0600000000000000000000000000000000000000000162800000000000162800000000000813900000000000488300000000000000000000000000000030042015050520151700        000000000000000LOTERICOS SISPL               551                           
1040001300267T 0600249600300050008840D00000000000000000001               30042015000000000013158104048836                         090000077543040001104956414000001315897005065277077543040001510000000000000000003050000000000                 
1040001300268U 0600000000000000000000000000000000000000000263200000000000263200000000001315800000000000789400000000000000000000000000000030042015050520151700        000000000000000LOTERICOS SISPL               551                           
1040001300269T 0600249600300050008840D00000000000000000001               30042015000000000002627104048836                         090000079039370001104956414000000262797005068277079039370001110000000000000000003050000000000                 
1040001300270U 0600000000000000000000000000000000000000000052500000000000052500000000000262700000000000157700000000000000000000000000000030042015050520151700        000000000000000LOTERICOS SISPL               811                           
1040001300271T 0600249600300050008840D00000000000000000001               30042015000000000005424104005398                         090000082836680001104976414000000542497005068277082836680001110000000000000000002190000000000                 
1040001300272U 06000000000000000000000000000000000000000001085000000000001085000000000005424000000000003254000000000000000000000000000000300420150505201512C0        000000000000000SALA DE CONVENIENCIA          811                           
1040001300273T 0600249600300050008840D00000000000000000001               30042015000000000018876104048836                         090000084665440001104976414000001887697005065277084665440001510000000000000000003050000000000                 
1040001300274U 0600000000000000000000000000000000000000000377500000000000377500000000001887600000000001132600000000000000000000000000000030042015050520151700        000000000000000LOTERICOS SISPL               551                           
1040001300275T 0600249600300050008840D00000000000000000001               30042015000000000004907104038318                         090000085464010001104966414000000490797005064277085464010001110000000000000000004480000000000                 
1040001300276U 0600000000000000000000000000000000000000000098100000000000098100000000000490700000000000294500000000000000000000000000000030042015050520151100        000000000000000AUTOMACAO                     411                           
1040001300277T 0600249600300050008840D00000000000000000001               30042015000000000098858104015857                         090000086664760001104946414000009885897005068277086664760001110000000000000000003050000000000                 
1040001300278U 0600000000000000000000000000000000000000001977200000000001977200000000009885800000000005931400000000000000000000000000000030042015050520151700        000000000000000LOTERICOS SISPL               811                           
1040001300279T 0600249600300050008840D00000000000000000001               30042015000000000005426104048836                         090000091265540001104916414000000542697005065277091265540001510000000000000000003050000000000                 
1040001300280U 0600000000000000000000000000000000000000000108500000000000108500000000000542600000000000325600000000000000000000000000000030042015050520151700        000000000000000LOTERICOS SISPL               551                           
1040001300281T 0600249600300050008840D00000000000000000001               30042015000000000008139104048836                         090000092405430001104966414000000813997005065277092405430001510000000000000000003050000000000                 
1040001300282U 0600000000000000000000000000000000000000000162800000000000162800000000000813900000000000488300000000000000000000000000000030042015050520151700        000000000000000LOTERICOS SISPL               551                           
1040001300283T 0600249600300050008840D00000000000000000001               30042015000000000005426104048836                         090000092846530001104956414000000542697005065277092846530001510000000000000000003050000000000                 
1040001300284U 0600000000000000000000000000000000000000000108500000000000108500000000000542600000000000325600000000000000000000000000000030042015050520151700        000000000000000LOTERICOS SISPL               551                           
1040001300285T 0600249600300050008840D00000000000000000001               30042015000000000003167104038334                         090000094678370001104936414000000316797005066277094678370001820000000000000000004480000000000                 
1040001300286U 0600000000000000000000000000000000000000000063300000000000063300000000000316700000000000190100000000000000000000000000000030042015050520151100        000000000000000AUTOMACAO                     682                           
1040001300287T 0600249600300050008840D00000000000000000001               30042015000000000021997104015857                         090000094983150001104966414000002199797005068277094983150001110000000000000000001800000000000                 
1040001300288U 06000000000000000000000000000000000000000004399000000000004399000000000021997000000000013199000000000000000000000000000000300420150505201512I0        000000000000000INTERNET                      811                           
1040001300289T 0600249600300050008840D00000000000000000001               30042015000000000014838104007595                         090000098156320001104996414000001483897005068277098156320001110000000000000000004480000000000                 
1040001300290U 0600000000000000000000000000000000000000000296800000000000296800000000001483800000000000890200000000000000000000000000000030042015050520151100        000000000000000AUTOMACAO                     811                           
1040001300291T 0600249600300050008840D00000000000000000001               30042015000000000006791104004146                         090000102354680001104956414000000679197005064277102354680001110000000000000000003050000000000                 
1040001300292U 0600000000000000000000000000000000000000000135800000000000135800000000000679100000000000407500000000000000000000000000000030042015050520151700        000000000000000LOTERICOS SISPL               411                           
1040001300293T 0600249600300050008840D00000000000000000001               30042015000000000006347104004146                         090000105390920001104926414000000634797005066277105390920001810000000000000000004480000000000                 
1040001300294U 0600000000000000000000000000000000000000000126900000000000126900000000000634700000000000380900000000000000000000000000000030042015050520151100        000000000000000AUTOMACAO                     681                           
1040001300295T 0600249600300050008840D00000000000000000001               30042015000000000002658104004146                         090000105843800001104916414000000265897005064277105843800001110000000000000000003050000000000                 
1040001300296U 0600000000000000000000000000000000000000000053200000000000053200000000000265800000000000159400000000000000000000000000000030042015050520151700        000000000000000LOTERICOS SISPL               411                           
1040001300297T 0600249600300050008840D00000000000000000001               30042015000000000002713104048836                         090000108610050001104986414000000271397005065277108610050001510000000000000000003050000000000                 
1040001300298U 0600000000000000000000000000000000000000000054300000000000054300000000000271300000000000162700000000000000000000000000000030042015050520151700        000000000000000LOTERICOS SISPL               551                           
1040001300299T 0600249600300050008840D00000000000000000001               30042015000000000002627104000345                         090000109087760001104966414000000262797005064277109087760001710000000000000000003050000000000                 
1040001300300U 0600000000000000000000000000000000000000000052500000000000052500000000000262700000000000157700000000000000000000000000000030042015050520151700        000000000000000LOTERICOS SISPL               471                           
1040001300301T 0600249600300050008840D00000000000000000001               30042015000000000011827104028940                         090000109964980001104916414000001182797005064277109964980001110000000000000000003210000000000                 
1040001300302U 06000000000000000000000000000000000000000002365000000000002365000000000011827000000000007097000000000000000000000000000000300420150505201512X0        000000000000000CAIXA AQUI                    411                           
1040001300303T 0600249600300050008840D00000000000000000001               30042015000000000010648104020087                         090000111873610001104926414000001064897005068277111873610001110000000000000000001800000000000                 
1040001300304U 06000000000000000000000000000000000000000002130000000000002130000000000010648000000000006388000000000000000000000000000000300420150505201512I0        000000000000000INTERNET                      811                           
1040001300305T 0600249600300050008840D00000000000000000001               30042015000000000005426104000353                         090000114362910001104986414000000542697005068277114362910001110000000000000000003050000000000                 
1040001300306U 0600000000000000000000000000000000000000000108500000000000108500000000000542600000000000325600000000000000000000000000000030042015050520151700        000000000000000LOTERICOS SISPL               811                           
1040001300307T 0600249600300050008840D00000000000000000001               30042015000000000005426104000353                         090000125516190001104936414000000542697005064277125516190001120000000000000000003050000000000                 
1040001300308U 0600000000000000000000000000000000000000000108500000000000108500000000000542600000000000325600000000000000000000000000000030042015050520151700        000000000000000LOTERICOS SISPL               412                           
1040001300309T 0600249600300050008840D00000000000000000001               30042015000000000013565104048836                         090000127450060001104946414000001356597005065277127450060001510000000000000000003050000000000                 
1040001300310U 0600000000000000000000000000000000000000000271300000000000271300000000001356500000000000813900000000000000000000000000000030042015050520151700        000000000000000LOTERICOS SISPL               551                           
1040001300311T 0600249600300050008840D00000000000000000001               30042015000000000002713104005398                         090000133184760001104946414000000271397005068277133184760001110000000000000000001800000000000                 
1040001300312U 06000000000000000000000000000000000000000000543000000000000543000000000002713000000000001627000000000000000000000000000000300420150505201512I0        000000000000000INTERNET                      811                           
1040001300313T 0600249600300050008840D00000000000000000001               30042015000000000002713104048836                         090000137597490001104936414000000271397005065277137597490001510000000000000000003050000000000                 
1040001300314U 0600000000000000000000000000000000000000000054300000000000054300000000000271300000000000162700000000000000000000000000000030042015050520151700        000000000000000LOTERICOS SISPL               551                           
1040001300315T 0600249600300050008840D00000000000000000001               30042015000000000018991104000353                         090000147825730001104996414000001899197005064277147825730001120000000000000000002190000000000                 
1040001300316U 06000000000000000000000000000000000000000003798000000000003798000000000018991000000000011395000000000000000000000000000000300420150505201512C0        000000000000000SALA DE CONVENIENCIA          412                           
1040001300317T 0600249600300050008840D00000000000000000001               30042015000000000040053104000337                         090000149117160001104976414000004005397005068277149117160001110000000000000000004480000000000                 
1040001300318U 0600000000000000000000000000000000000000000801100000000000801100000000004005300000000002403100000000000000000000000000000030042015050520151100        000000000000000AUTOMACAO                     811                           
1040001300319T 0600249600300050008840D00000000000000000001               30042015000000000002712104048828                         090000155925010001104966414000000271297005068277155925010001110000000000000000004480000000000                 
1040001300320U 0600000000000000000000000000000000000000000054200000000000054200000000000271200000000000162800000000000000000000000000000030042015050520151100        000000000000000AUTOMACAO                     811                           
1040001300321T 0600249600300050008840D00000000000000000001               30042015000000000003631104000353                         090000158288600001104996414000000363197005068277158288600001110000000000000000001800000000000                 
1040001300322U 06000000000000000000000000000000000000000000726000000000000726000000000003631000000000002179000000000000000000000000000000300420150505201512I0        000000000000000INTERNET                      811                           
1040001300323T 0600249600300050008840D00000000000000000001               30042015000000000023343104004146                         090000165947890001104996414000002334397005066277165947890001820000000000000000004480000000000                 
1040001300324U 0600000000000000000000000000000000000000000466900000000000466900000000002334300000000001400500000000000000000000000000000030042015050520151100        000000000000000AUTOMACAO                     682                           
1040001300325T 0600249600300050008840D00000000000000000001               30042015000000000005426104015857                         090000166550050001104916414000000542697005066277166550050001200000000000000000001800000000000                 
1040001300326U 06000000000000000000000000000000000000000001085000000000001085000000000005426000000000003256000000000000000000000000000000300420150505201512I0        000000000000000INTERNET                      620                           
1040001300327T 0600249600300050008840D00000000000000000001               30042015000000000008045104007013                         090000172763940001104986414000000804597005068277172763940001590000000000000000003050000000000                 
1040001300328U 0600000000000000000000000000000000000000000160900000000000160900000000000804500000000000482700000000000000000000000000000030042015050520151700        000000000000000LOTERICOS SISPL               859                           
1040001300329T 0600249600300050008840D00000000000000000001               30042015000000000002713104015857                         090000176903750001104916414000000271397005068277176903750001110000000000000000001800000000000                 
1040001300330U 06000000000000000000000000000000000000000000543000000000000543000000000002713000000000001627000000000000000000000000000000300420150505201512I0        000000000000000INTERNET                      811                           
1040001300331T 0600249600300050008840D00000000000000000001               30042015000000000034757104018961                         090000187533260001104956414000003475797005068277187533260001110000000000000000001800000000000                 
1040001300332U 06000000000000000000000000000000000000000006951000000000006951000000000034757000000000020855000000000000000000000000000000300420150505201512I0        000000000000000INTERNET                      811                           
1040001300333T 0600249600300050008840D00000000000000000001               30042015000000000016278104000337                         090000196488900001104966414000001627897005068277196488900001110000000000000000001800000000000                 
1040001300334U 06000000000000000000000000000000000000000003256000000000003256000000000016278000000000009766000000000000000000000000000000300420150505201512I0        000000000000000INTERNET                      811                           
1040001300335T 0600249600300050008840D00000000000000000001               30042015000000000013560104020443                         090000196512290001104926414000001356097005068277196512290001110000000000000000003050000000000                 
1040001300336U 0600000000000000000000000000000000000000000271200000000000271200000000001356000000000000813600000000000000000000000000000030042015050520151700        000000000000000LOTERICOS SISPL               811                           
1040001300337T 0600249600300050008840D00000000000000000001               30042015000000000003716104015857                         090000207867060001104946414000000371697005068277207867060001110000000000000000001800000000000                 
1040001300338U 06000000000000000000000000000000000000000000743000000000000743000000000003716000000000002230000000000000000000000000000000300420150505201512I0        000000000000000INTERNET                      811                           
1040001300339T 0600249600300050008840D00000000000000000001               30042015000000000013565104048828                         090000241926840001104956414000001356597005068277241926840001110000000000000000003050000000000                 
1040001300340U 0600000000000000000000000000000000000000000271300000000000271300000000001356500000000000813900000000000000000000000000000030042015050520151700        000000000000000LOTERICOS SISPL               811                           
1040001300341T 0600249600300050008840D00000000000000000001               30042015000000000008139104048836                         090000241992340001104996414000000813997005065277241992340001510000000000000000003050000000000                 
1040001300342U 0600000000000000000000000000000000000000000162800000000000162800000000000813900000000000488300000000000000000000000000000030042015050520151700        000000000000000LOTERICOS SISPL               551                           
1040001300343T 0600249600300050008840D00000000000000000001               30042015000000000013565104020443                         090000241992590001104916414000001356597005068277241992590001110000000000000000004480000000000                 
1040001300344U 0600000000000000000000000000000000000000000271300000000000271300000000001356500000000000813900000000000000000000000000000030042015050520151100        000000000000000AUTOMACAO                     811                           
1040001300345T 0600249600300050008840D00000000000000000001               30042015000000000029406104005398                         090000243707360001104916414000002940697005065277243707360001590000000000000000001800000000000                 
1040001300346U 06000000000000000000000000000000000000000005881000000000005881000000000029406000000000017644000000000000000000000000000000300420150505201512I0        000000000000000INTERNET                      559                           
1040001300347T 0600249600300050008840D00000000000000000001               30042015000000000016278104007595                         090000352732830001104916414000001627897005065277352732830001510000000000000000002190000000000                 
1040001300348U 06000000000000000000000000000000000000000003256000000000003256000000000016278000000000009766000000000000000000000000000000300420150505201512C0        000000000000000SALA DE CONVENIENCIA          551                           
1040001300349T 0600249600300050008840D00000000000000000001               30042015000000000018114104007595                         090000353026370001104986414000001811497005068277353026370001110000000000000000001800000000000                 
1040001300350U 06000000000000000000000000000000000000000003623000000000003623000000000018114000000000010868000000000000000000000000000000300420150505201512I0        000000000000000INTERNET                      811                           
1040001300351T 0600249600300050008840D00000000000000000001               30042015000000000020487104015857                         090000407563060001104996414000002048797005068277407563060001110000000000000000001800000000000                 
1040001300352U 06000000000000000000000000000000000000000004097000000000004097000000000020487000000000012293000000000000000000000000000000300420150505201512I0        000000000000000INTERNET                      811                           
1040001300353T 0600249600300050008840D00000000000000000001               30042015000000000019911104015857                         090000407563550001104916414000001991197005068277407563550001110000000000000000001800000000000                 
1040001300354U 06000000000000000000000000000000000000000003982000000000003982000000000019911000000000011947000000000000000000000000000000300420150505201512I0        000000000000000INTERNET                      811                           
1040001300355T 0600249600300050008840D00000000000000000001               30042015000000000013560104007595                         090000407718000001104916414000001356097005068277407718000001110000000000000000001800000000000                 
1040001300356U 06000000000000000000000000000000000000000002712000000000002712000000000013560000000000008136000000000000000000000000000000300420150505201512I0        000000000000000INTERNET                      811                           
1040001300357T 0600249600300050008840D00000000000000000001               30042015000000000003345104048828                         090000407718420001104936414000000334597005068277407718420001110000000000000000003050000000000                 
1040001300358U 0600000000000000000000000000000000000000000066900000000000066900000000000334500000000000200700000000000000000000000000000030042015050520151700        000000000000000LOTERICOS SISPL               811                           
1040001300359T 0600249600300050008840D00000000000000000001               30042015000000000016278104048836                         090000407718750001104976414000001627897005065277407718750001510000000000000000003050000000000                 
1040001300360U 0600000000000000000000000000000000000000000325600000000000325600000000001627800000000000976600000000000000000000000000000030042015050520151700        000000000000000LOTERICOS SISPL               551                           
1040001300361T 0600249600300050008840D00000000000000000001               30042015000000000023869104007595                         090000407992310001104976414000002386997005068277407992310001110000000000000000001800000000000                 
1040001300362U 06000000000000000000000000000000000000000004774000000000004774000000000023869000000000014321000000000000000000000000000000300420150505201512I0        000000000000000INTERNET                      811                           
1040001300363T 0600249600300050008840D00000000000000000001               30042015000000000013565104007595                         090000407996600001104936414000001356597005068277407996600001110000000000000000001800000000000                 
1040001300364U 06000000000000000000000000000000000000000002713000000000002713000000000013565000000000008139000000000000000000000000000000300420150505201512I0        000000000000000INTERNET                      811                           
1040001300365T 0600249600300050008840D00000000000000000001               30042015000000000041544104020443                         090000407997100001104946414000004154497005068277407997100001110000000000000000004480000000000                 
1040001300366U 0600000000000000000000000000000000000000000830900000000000830900000000004154400000000002492600000000000000000000000000000030042015050520151100        000000000000000AUTOMACAO                     811                           
1040001300367T 0600249600300050008840D00000000000000000001               30042015000000000010848104005398                         090000408007730001104956414000001084897005069277408007730001410000000000000000002190000000000                 
1040001300368U 06000000000000000000000000000000000000000002170000000000002170000000000010848000000000006508000000000000000000000000000000300420150505201512C0        000000000000000SALA DE CONVENIENCIA          941                           
1040001300369T 0600249600300050008840D00000000000000000001               30042015000000000016272104020443                         090000409861500001104956414000001627297005068277409861500001110000000000000000001800000000000                 
1040001300370U 06000000000000000000000000000000000000000003254000000000003254000000000016272000000000009764000000000000000000000000000000300420150505201512I0        000000000000000INTERNET                      811                           
1040001300371T 0600249600300050008840D00000000000000000001               30042015000000000013565104000353                         090000409980560001104926414000001356597005068277409980560001110000000000000000001800000000000                 
1040001300372U 06000000000000000000000000000000000000000002713000000000002713000000000013565000000000008139000000000000000000000000000000300420150505201512I0        000000000000000INTERNET                      811                           
1040001300373T 0600249600300050008840D00000000000000000001               30042015000000000454137104005398                         090000410029080001104916414000045413797005064277410029080001110000000000000000004480000000000                 
1040001300374U 0600000000000000000000000000000000000000009082700000000009082700000000045413700000000027248300000000000000000000000000000030042015050520151100        000000000000000AUTOMACAO                     411                           
1040001300375T 0600249600300050008840D00000000000000000001               30042015000000000013565104000345                         090000410077410001104956414000001356597005068277410077410001110000000000000000002190000000000                 
1040001300376U 06000000000000000000000000000000000000000002713000000000002713000000000013565000000000008139000000000000000000000000000000300420150505201512C0        000000000000000SALA DE CONVENIENCIA          811                           
1040001300377T 0600249600300050008840D00000000000000000001               30042015000000000154297104011037                         090000512582590001104916414000015429797005068277512582590001110000000000000000004480000000000                 
1040001300378U 0600000000000000000000000000000000000000003085900000000003085900000000015429700000000009257900000000000000000000000000000030042015050520151100        000000000000000AUTOMACAO                     811                           
1040001300379T 0600249600300050008840D00000000000000000001               30042015000000000002713104048836                         090000700341370001104986414000000271397005065277700341370001510000000000000000003050000000000                 
1040001300380U 0600000000000000000000000000000000000000000054300000000000054300000000000271300000000000162700000000000000000000000000000030042015050520151700        000000000000000LOTERICOS SISPL               551                           
1040001300381T 0600249600300050008840D00000000000000000001               30042015000000000008136104015857                         090000700348480001104916414000000813697005069277700348480001410000000000000000001800000000000                 
1040001300382U 06000000000000000000000000000000000000000001627000000000001627000000000008136000000000004882000000000000000000000000000000300420150505201512I0        000000000000000INTERNET                      941                           
1040001300383T 0600249600300050008840D00000000000000000001               30042015000000000014479104000345                         090000701450990001104966414000001447997005068277701450990001110000000000000000001800000000000                 
1040001300384U 06000000000000000000000000000000000000000002896000000000002896000000000014479000000000008687000000000000000000000000000000300420150505201512I0        000000000000000INTERNET                      811                           
1040001300385T 0600249600300050008840D00000000000000000001               30042015000000000016278104048836                         090000703021380001104926414000001627897005065277703021380001510000000000000000003050000000000                 
1040001300386U 0600000000000000000000000000000000000000000325600000000000325600000000001627800000000000976600000000000000000000000000000030042015050520151700        000000000000000LOTERICOS SISPL               551                           
1040001300387T 0600249600300050008840D00000000000000000001               30042015000000000003657104004146                         090000734162650001104916414000000365797005068277734162650001110000000000000000001800000000000                 
1040001300388U 06000000000000000000000000000000000000000000731000000000000731000000000003657000000000002195000000000000000000000000000000300420150505201512I0        000000000000000INTERNET                      811                           
1040001300389T 0600249600300050008840D00000000000000000001               30042015000000000011161104007013                         090000785008160001104916414000001116197005068277785008160001110000000000000000003050000000000                 
1040001300390U 0600000000000000000000000000000000000000000223200000000000223200000000001116100000000000669700000000000000000000000000000030042015050520151700        000000000000000LOTERICOS SISPL               811                           
1040001300391T 0600249600300050008840D00000000000000000001               30042015000000000013467104004146                         090000798522570001104996414000001346797005064277798522570001110000000000000000004480000000000                 
1040001300392U 0600000000000000000000000000000000000000000269300000000000269300000000001346700000000000808100000000000000000000000000000030042015050520151100        000000000000000AUTOMACAO                     411                           
1040001300393T 0600249600300050008840D00000000000000000001               30042015000000000010419104018961                         090000806241170001104996414000001041997005068277806241170001110000000000000000003050000000000                 
1040001300394U 0600000000000000000000000000000000000000000208400000000000208400000000001041900000000000625100000000000000000000000000000030042015050520151700        000000000000000LOTERICOS SISPL               811                           
1040001300395T 0600249600300050008840D00000000000000000001               30042015000000000007958104004146                         090000806241250001104936414000000795897005066277806241250001820000000000000000001800000000000                 
1040001300396U 06000000000000000000000000000000000000000001592000000000001592000000000007958000000000004774000000000000000000000000000000300420150505201512I0        000000000000000INTERNET                      682                           
1040001300397T 0600249600300050008840D00000000000000000001               30042015000000000003829104004146                         090000806347020001104976414000000382997005068277806347020001110000000000000000001800000000000                 
1040001300398U 06000000000000000000000000000000000000000000766000000000000766000000000003829000000000002297000000000000000000000000000000300420150505201512I0        000000000000000INTERNET                      811                           
1040001300399T 0600249600300050008840I10140200000027800001               00000000000000000000000000000000                         090000000000000000SINEDIFNIT                              00000000000000000000000000000000000                 
1040001300400U 0600000000000000000000000000000000000000000000000000000000000000000000000000000000000118009700000000000000000000000000000029042015050520150  0        000000000000000                              000                           
1040001300401T 0600249600300050008840I10288900000039200001               00000000000000000000000000000000                         090000000000000000SECOVIBALNCAMBORIU                      00000000000000000000000000000000000                 
1040001300402U 0600000000000000000000000000000000000000000000000000000000000000000000000000000000000060856000000000000000000000000000000029042015050520150  0        000000000000000                              000                           
1040001300403T 0600249600300050008840I10347900000055600001               00000000000000000000000000000000                         090000000000000000                                        00000000000000000000000000000000000                 
1040001300404U 0600000000000000000000000000000000000000000000000000000000000000000000000000000000000132612800000000000000000000000000000029042015050520150  0        000000000000000                              000                           
1040001300405T 0600249600300050008840I10386800000012400001               00000000000000000000000000000000                         090000000000000000                                        00000000000000000000000000000000000                 
1040001300406U 0600000000000000000000000000000000000000000000000000000000000000000000000000000000000107010500000000000000000000000000000029042015050520150  0        000000000000000                              000                           
1040001300407T 0600249600300050008840I10815700000580700001               00000000000000000000000000000000                         090000000000000000SINEMPEDIMUNRJ                          00000000000000000000000000000000000                 
1040001300408U 0600000000000000000000000000000000000000000000000000000000000000000000000000000000001921932100000000000000000000000000000029042015050520150  0        000000000000000                              000                           
1040001300409T 0600249600300050008840I18759600000227800001               00000000000000000000000000000000                         090000000000000000SEDCONRS                                00000000000000000000000000000000000                 
1040001300410U 0600000000000000000000000000000000000000000000000000000000000000000000000000000000000193486100000000000000000000000000000029042015050520150  0        000000000000000                              000                           
1040001300411T 0600249600300050008840I18881000000013600001               00000000000000000000000000000000                         090000000000000000SEEG                                    00000000000000000000000000000000000                 
1040001300412U 0600000000000000000000000000000000000000000000000000000000000000000000000000000000000042378500000000000000000000000000000029042015050520150  0        000000000000000                              000                           
