10400000         243070481000114186200              00249600300000286080SINEMPEDIFPORTCAB MUN SP      CAIXA ECONOMICA FEDERAL                 20505201004563200126106000000                                                                     
10400011T01  030 2043070481000114186200              00249600300000286080SINEMPEDIFPORTCAB MUN SP      200501                                  000000                                  000000000505201000000000                                 
1040001300001T 0600249600300000286080D00000000000000000001               30042010000000000003413237000973                         090000000000000000104944588000000341397862009177000000000000700000000000000000002220000000000                 
1040001300002U 0600000000000000000000000000068300000000000000000000000000068300000000000341300000000000204700000000000000000000000000000030042010050520101900        000000000000000CIP COMPENSACAO               970                           
1040001300003T 0600249600300000286080D00000000000000000001               30042010000000000000000399003433                         090000000000000000104914588000000000097862009177000000000000300000000000000000002220000000000                 
1040001300004U 0600000000000000000000000000151700000000000000000000000000151700000000000758600000000000455200000000000000000000000000000030042010050520101900        000000000000000CIP COMPENSACAO               930                           
1040001300005T 0600249600300000286080D00000000000000000001               30042010000000000000000399003433                         090000000000000000104914588000000000097862009177000000000000300000000000000000002220000000000                 
1040001300006U 0600000000000000000000000000140200000000000000000000000000140200000000000700800000000000420400000000000000000000000000000030042010050520101900        000000000000000CIP COMPENSACAO               930                           
1040001300007T 0600249600300000286080D00000000000000000001               30042010000000000000000237038326                         090000000000530001104954588000000000097862009177000000530001300000000000000000002220000000000                 
1040001300008U 0600000000000000000000000000268900000000000000000000000000268900000000001344300000000000806500000000000000000000000000000030042010050520101900        000000000000000CIP COMPENSACAO               930                           
1040001300009T 0600249600300000286080D00000000000000000001               30042010000000000000000341003549                         090000000001120001104934588000000000097862009177000001120001300000000000000000002220000000000                 
1040001300010U 0600000000000000000000000000315200000000000000000000000000315200000000001575800000000000945400000000000000000000000000000030042010050520101900        000000000000000CIP COMPENSACAO               930                           
1040001300011T 0600249600300000286080D00000000000000000001               07101997000000000000000341064149                         090000000001741148104900000000000000097862009177000001741148300000000000000000002220000000000                 
1040001300012U 0600000000000000000000000000045000000000000000000000000000045000000000000225000000000000135000000000000000000000000000000030042010050520101900        000000000000000CIP COMPENSACAO               930                           
1040001300013T 0600249600300000286080D00000000000000000001               30042010000000000000000237038571                         090000000003952268104964588000000000097862009177000003952268300000000000000000002220000000000                 
1040001300014U 0600000000000000000000000000049000000000000000000000000000049000000000000245000000000000147000000000000000000000000000000030042010050520101900        000000000000000CIP COMPENSACAO               930                           
1040001300015T 0600249600300000286080D00000000000000000001               07101997000000000002450356001368                         090000000007686078104900000000000245097862009177000007686078300000000000000000002220000000000                 
1040001300016U 0600000000000000000000000000049000000000000000000000000000049000000000000245000000000000147000000000000000000000000000000030042010050520101900        000000000000000CIP COMPENSACAO               930                           
1040001300017T 0600249600300000286080D00000000000000000001               30042010000000000000000341000370                         090000000007710001104914588000000000097862009177000007710001300000000000000000002220000000000                 
1040001300018U 0600000000000000000000000000044900000000000000000000000000044900000000000224500000000000134700000000000000000000000000000030042010050520101900        000000000000000CIP COMPENSACAO               930                           
1040001300019T 0600249600300000286080D00000000000000000001               30042010000000000000000237005509                         090000000010060001104914588000000000097862009177000010060001300000000000000000002220000000000                 
1040001300020U 0600000000000000000000000000262800000000000000000000000000262800000000001314200000000000788600000000000000000000000000000030042010050520101900        000000000000000CIP COMPENSACAO               930                           
1040001300021T 0600249600300000286080D00000000000000000001               30042010000000000000000237037516                         090000000021762628104914588000000000097862009177000021762628300000000000000000002220000000000                 
1040001300022U 0600000000000000000000000000046900000000000000000000000000046900000000000234700000000000140900000000000000000000000000000030042010050520101900        000000000000000CIP COMPENSACAO               930                           
1040001300023T 0600249600300000286080D00000000000000000001               30042010000000000000000341005932                         090000000028659128104954588000000000097862009177000028659128300000000000000000002220000000000                 
1040001300024U 0600000000000000000000000000164600000000000000000000000000164600000000000823000000000000493800000000000000000000000000000030042010050520101900        000000000000000CIP COMPENSACAO               930                           
1040001300025T 0600249600300000286080D00000000000000000001               30042010000000000000000033007625                         090000000043736188104974588000000000097862009177000043736188300000000000000000002220000000000                 
1040001300026U 0600000000000000000000000000049000000000000000000000000000049000000000000245000000000000147000000000000000000000000000000030042010050520101900        000000000000000CIP COMPENSACAO               930                           
1040001300027T 0600249600300000286080D00000000000000000001               30042010000000000002587341072150                         090000000051582658104914588000000258797862005177000051582658510000000000000000002220000000000                 
1040001300028U 0600000000000000000000000000051700000000000000000000000000051700000000000258700000000000155300000000000000000000000000000030042010050520101900        000000000000000CIP COMPENSACAO               551                           
1040001300029T 0600249600300000286080D00000000000000000001               30042010000000000000000237037907                         090000000059616451104994588000000000097862009177000059616451300000000000000000002220000000000                 
1040001300030U 0600000000000000000000000000049100000000000000000000000000049100000000000245300000000000147100000000000000000000000000000030042010050520101900        000000000000000CIP COMPENSACAO               930                           
1040001300031T 0600249600300000286080D00000000000000000001               30042010000000000016456341005533                         090000000076000117104914588000001645697862008177000076000117110000000000000000002220000000000                 
1040001300032U 0600000000000000000000000000329100000000000000000000000000329100000000001645600000000000987400000000000000000000000000000030042010050520101900        000000000000000CIP COMPENSACAO               811                           
1040001300033T 0600249600300000286080D00000000000000000001               30042010000000000002810341008451                         090000000105899887104914588000000281097862008177000105899887110000000000000000002220000000000                 
1040001300034U 0600000000000000000000000000056200000000000000000000000000056200000000000281000000000000168600000000000000000000000000000030042010050520101900        000000000000000CIP COMPENSACAO               811                           
1040001300035T 0600249600300000286080D00000000000000000001               30042010000000000000000356005630                         090000000169210001104904588000000000097862009177000169210001300000000000000000002220000000000                 
1040001300036U 0600000000000000000000000003376800000000000000000000000003376800000000016883800000000010130200000000000000000000000000000030042010050520101900        000000000000000CIP COMPENSACAO               930                           
1040001300037T 0600249600300000286080D00000000000000000001               30042010000000000000000341001708                         090000000422163548104924588000000000097862009177000422163548300000000000000000002220000000000                 
1040001300038U 0600000000000000000000000000060200000000000000000000000000060200000000000301000000000000180600000000000000000000000000000030042010050520101900        000000000000000CIP COMPENSACAO               930                           
1040001300039T 0600249600300000286080D00000000000000000001               07101997000000000003668356001368                         090000000435058800104900000000000366897862008177000435058800110000000000000000002220000000000                 
1040001300040U 0600000000000000000000000000073400000000000000000000000000073400000000000366800000000000220000000000000000000000000000000030042010050520101900        000000000000000CIP COMPENSACAO               811                           
1040001300041T 0600249600300000286080D00000000000000000001               07101997000000000028936356001368                         090000000435058800104900000000002893697862008177000435058800110000000000000000002220000000000                 
1040001300042U 0600000000000000000000000000578700000000000000000000000000578700000000002893600000000001736200000000000000000000000000000030042010050520101900        000000000000000CIP COMPENSACAO               811                           
1040001300043T 0600249600300000286080D00000000000000000001               07101997000000000002757356001368                         090000000435058800104900000000000275797862008177000435058800110000000000000000002220000000000                 
1040001300044U 0600000000000000000000000000055100000000000000000000000000055100000000000275700000000000165500000000000000000000000000000030042010050520101900        000000000000000CIP COMPENSACAO               811                           
1040001300045T 0600249600300000286080D00000000000000000001               30042010000000000000000341001775                         090000000559630001104994588000000000097862009177000559630001300000000000000000002220000000000                 
1040001300046U 0600000000000000000000000000067100000000000000000000000000067100000000000335300000000000201100000000000000000000000000000030042010050520101900        000000000000000CIP COMPENSACAO               930                           
1040001300047T 0600249600300000286080D00000000000000000001               30042010000000000000000237028320                         090000000560960001104964588000000000097862009177000560960001300000000000000000002220000000000                 
1040001300048U 0600000000000000000000000000107800000000000000000000000000107800000000000538800000000000323200000000000000000000000000000030042010050520101900        000000000000000CIP COMPENSACAO               930                           
1040001300049T 0600249600300000286080D00000000000000000001               30042010000000000000000356008273                         090000000573770001104904588000000000097862009177000573770001300000000000000000002220000000000                 
1040001300050U 0600000000000000000000000000044900000000000000000000000000044900000000000224500000000000134700000000000000000000000000000030042010050520101900        000000000000000CIP COMPENSACAO               930                           
1040001300051T 0600249600300000286080D00000000000000000001               30042010000000000003732237004510                         090000000577000101104944588000000373297862008177000577000101110000000000000000002220000000000                 
1040001300052U 0600000000000000000000000000074600000000000000000000000000074600000000000373200000000000224000000000000000000000000000000030042010050520101900        000000000000000CIP COMPENSACAO               811                           
1040001300053T 0600249600300000286080D00000000000000000001               30042010000000000000000237038571                         090000000604930001104934588000000000097862009177000604930001300000000000000000002220000000000                 
1040001300054U 0600000000000000000000000000088000000000000000000000000000088000000000000440000000000000264000000000000000000000000000000030042010050520101900        000000000000000CIP COMPENSACAO               930                           
1040001300055T 0600249600300000286080D00000000000000000001               07101997000000000000000341000647                         090000000608458808104900000000000000097862009177000608458808300000000000000000002220000000000                 
1040001300056U 0600000000000000000000000000098000000000000000000000000000098000000000000489800000000000293800000000000000000000000000000030042010050520101900        000000000000000CIP COMPENSACAO               930                           
1040001300057T 0600249600300000286080D00000000000000000001               30042010000000000000000341010006                         090000000615630001104934588000000000097862009177000615630001300000000000000000002220000000000                 
1040001300058U 0600000000000000000000000000504800000000000000000000000000504800000000002524200000000001514600000000000000000000000000000030042010050520101900        000000000000000CIP COMPENSACAO               930                           
1040001300059T 0600249600300000286080D00000000000000000001               07101997000000000000000341002852                         090000000615860001104900000000000000097862009177000615860001300000000000000000002220000000000                 
1040001300060U 0600000000000000000000000000346600000000000000000000000000346600000000001732900000000001039700000000000000000000000000000030042010050520101900        000000000000000CIP COMPENSACAO               930                           
1040001300061T 0600249600300000286080D00000000000000000001               30042010000000000000000237035041                         090000000616670001104924588000000000097862009177000616670001300000000000000000002220000000000                 
1040001300062U 0600000000000000000000000001028200000000000000000000000001028200000000005140900000000003084500000000000000000000000000000030042010050520101900        000000000000000CIP COMPENSACAO               930                           
1040001300063T 0600249600300000286080D00000000000000000001               30042010000000000000000237037796                         090000000650000001104924588000000000097862009177000650000001300000000000000000002220000000000                 
1040001300064U 0600000000000000000000000000222700000000000000000000000000222700000000001113600000000000668200000000000000000000000000000030042010050520101900        000000000000000CIP COMPENSACAO               930                           
1040001300065T 0600249600300000286080D00000000000000000001               30042010000000000000000356006335                         090000000660620001104904588000000000097862009177000660620001300000000000000000002220000000000                 
1040001300066U 0600000000000000000000000003141500000000000000000000000003141500000000015707600000000009424600000000000000000000000000000030042010050520101900        000000000000000CIP COMPENSACAO               930                           
1040001300067T 0600249600300000286080D00000000000000000001               30042010000000000000000341000574                         090000000674559058104974588000000000097862009177000674559058300000000000000000002220000000000                 
1040001300068U 0600000000000000000000000000326800000000000000000000000000326800000000001634200000000000980600000000000000000000000000000030042010050520101900        000000000000000CIP COMPENSACAO               930                           
1040001300069T 0600249600300000286080D00000000000000000001               30042010000000000008106237001058                         090000000676659853104914588000000810697862008177000676659853110000000000000000002220000000000                 
1040001300070U 0600000000000000000000000000162100000000000000000000000000162100000000000810600000000000486400000000000000000000000000000030042010050520101900        000000000000000CIP COMPENSACAO               811                           
1040001300071T 0600249600300000286080D00000000000000000001               30042010000000000000000237001171                         090000000679178368104914588000000000097862009177000679178368300000000000000000002220000000000                 
1040001300072U 0600000000000000000000000000085500000000000000000000000000085500000000000427500000000000256500000000000000000000000000000030042010050520101900        000000000000000CIP COMPENSACAO               930                           
1040001300073T 0600249600300000286080D00000000000000000001               30042010000000000000000237004952                         090000000743830001104994588000000000097862009177000743830001300000000000000000002220000000000                 
1040001300074U 0600000000000000000000000000439900000000000000000000000000439900000000002199300000000001319500000000000000000000000000000030042010050520101900        000000000000000CIP COMPENSACAO               930                           
1040001300075T 0600249600300000286080D00000000000000000001               07101997000000000013135356008885                         090000000743880001104900000000001313597862009177000743880001300000000000000000002220000000000                 
1040001300076U 0600000000000000000000000000262700000000000000000000000000262700000000001313500000000000788100000000000000000000000000000030042010050520101900        000000000000000CIP COMPENSACAO               930                           
1040001300077T 0600249600300000286080D00000000000000000001               30042010000000000000000399009121                         090000000743970001104914588000000000097862009177000743970001300000000000000000002220000000000                 
1040001300078U 0600000000000000000000000000056700000000000000000000000000056700000000000283300000000000169900000000000000000000000000000030042010050520101900        000000000000000CIP COMPENSACAO               930                           
1040001300079T 0600249600300000286080D00000000000000000001               30042010000000000000000341004456                         090000000744000001104944588000000000097862009177000744000001300000000000000000002220000000000                 
1040001300080U 0600000000000000000000000000515000000000000000000000000000515000000000002574800000000001544800000000000000000000000000000030042010050520101900        000000000000000CIP COMPENSACAO               930                           
1040001300081T 0600249600300000286080D00000000000000000001               30042010000000000000000341001945                         090000000755140001104924588000000000097862009177000755140001300000000000000000002220000000000                 
1040001300082U 0600000000000000000000000000074200000000000000000000000000074200000000000370800000000000222400000000000000000000000000000030042010050520101900        000000000000000CIP COMPENSACAO               930                           
1040001300083T 0600249600300000286080D00000000000000000001               30042010000000000001700237009636                         090000000763940001104974588000000170097862008177000763940001110000000000000000002220000000000                 
1040001300084U 0600000000000000000000000000034000000000000000000000000000034000000000000170000000000000102000000000000000000000000000000030042010050520101900        000000000000000CIP COMPENSACAO               811                           
1040001300085T 0600249600300000286080D00000000000000000001               30042010000000000000000341003506                         090000000764640001104914588000000000097862009177000764640001300000000000000000002220000000000                 
1040001300086U 0600000000000000000000000000516100000000000000000000000000516100000000002580400000000001548200000000000000000000000000000030042010050520101900        000000000000000CIP COMPENSACAO               930                           
1040001300087T 0600249600300000286080D00000000000000000001               30042010000000000000000341004286                         090000000776900001104994588000000000097862009177000776900001300000000000000000002220000000000                 
1040001300088U 0600000000000000000000000000157600000000000000000000000000157600000000000788100000000000472900000000000000000000000000000030042010050520101900        000000000000000CIP COMPENSACAO               930                           
1040001300089T 0600249600300000286080D00000000000000000001               30042010000000000000000341000370                         090000000822760001104994588000000000097862009177000822760001300000000000000000002220000000000                 
1040001300090U 0600000000000000000000000000147500000000000000000000000000147500000000000737600000000000442600000000000000000000000000000030042010050520101900        000000000000000CIP COMPENSACAO               930                           
1040001300091T 0600249600300000286080D00000000000000000001               07101997000000000000000341010006                         090000000846560001104900000000000000097862009177000846560001300000000000000000002220000000000                 
1040001300092U 0600000000000000000000000000213600000000000000000000000000213600000000001068000000000000640800000000000000000000000000000030042010050520101900        000000000000000CIP COMPENSACAO               930                           
1040001300093T 0600249600300000286080D00000000000000000001               30042010000000000000000341003336                         090000000879690001104994588000000000097862009177000879690001300000000000000000002220000000000                 
1040001300094U 0600000000000000000000000000070700000000000000000000000000070700000000000353300000000000211900000000000000000000000000000030042010050520101900        000000000000000CIP COMPENSACAO               930                           
1040001300095T 0600249600300000286080D00000000000000000001               30042010000000000000000237038571                         090000000890420001104974588000000000097862009177000890420001300000000000000000002220000000000                 
1040001300096U 0600000000000000000000000000246700000000000000000000000000246700000000001233600000000000740200000000000000000000000000000030042010050520101900        000000000000000CIP COMPENSACAO               930                           
1040001300097T 0600249600300000286080D00000000000000000001               30042010000000000000000237038326                         090000000890740001104984588000000000097862009177000890740001300000000000000000002220000000000                 
1040001300098U 0600000000000000000000000000271700000000000000000000000000271700000000001358600000000000815200000000000000000000000000000030042010050520101900        000000000000000CIP COMPENSACAO               930                           
1040001300099T 0600249600300000286080D00000000000000000001               30042010000000000000000237038326                         090000000904900001104944588000000000097862009177000904900001300000000000000000002220000000000                 
1040001300100U 0600000000000000000000000000265800000000000000000000000000265800000000001328800000000000797200000000000000000000000000000030042010050520101900        000000000000000CIP COMPENSACAO               930                           
1040001300101T 0600249600300000286080D00000000000000000001               30042010000000000000000237038229                         090000000915330001104974588000000000097862009177000915330001300000000000000000002220000000000                 
1040001300102U 0600000000000000000000000000303900000000000000000000000000303900000000001519700000000000911900000000000000000000000000000030042010050520101900        000000000000000CIP COMPENSACAO               930                           
1040001300103T 0600249600300000286080D00000000000000000001               07101997000000000000000341004529                         090000000924620001104900000000000000097862009177000924620001300000000000000000002220000000000                 
1040001300104U 0600000000000000000000000000077400000000000000000000000000077400000000000386800000000000232000000000000000000000000000000030042010050520101900        000000000000000CIP COMPENSACAO               930                           
1040001300105T 0600249600300000286080D00000000000000000001               30042010000000000000000341016616                         090000000925810001104984588000000000097862009177000925810001300000000000000000002220000000000                 
1040001300106U 0600000000000000000000000000044900000000000000000000000000044900000000000224700000000000134900000000000000000000000000000030042010050520101900        000000000000000CIP COMPENSACAO               930                           
1040001300107T 0600249600300000286080D00000000000000000001               30042010000000000000000237037907                         090000000928680001104984588000000000097862009177000928680001300000000000000000002220000000000                 
1040001300108U 0600000000000000000000000000350400000000000000000000000000350400000000001751900000000001051100000000000000000000000000000030042010050520101900        000000000000000CIP COMPENSACAO               930                           
1040001300109T 0600249600300000286080D00000000000000000001               30042010000000000000000341003689                         090000000937620001104914588000000000097862009177000937620001300000000000000000002220000000000                 
1040001300110U 0600000000000000000000000000077600000000000000000000000000077600000000000388100000000000232900000000000000000000000000000030042010050520101900        000000000000000CIP COMPENSACAO               930                           
1040001300111T 0600249600300000286080D00000000000000000001               30042010000000000000000341004405                         090000000937890001104934588000000000097862009177000937890001300000000000000000002220000000000                 
1040001300112U 0600000000000000000000000000346100000000000000000000000000346100000000001730300000000001038100000000000000000000000000000030042010050520101900        000000000000000CIP COMPENSACAO               930                           
1040001300113T 0600249600300000286080D00000000000000000001               30042010000000000000000341002526                         090000000945850001104934588000000000097862009177000945850001300000000000000000002220000000000                 
1040001300114U 0600000000000000000000000000142500000000000000000000000000142500000000000712400000000000427400000000000000000000000000000030042010050520101900        000000000000000CIP COMPENSACAO               930                           
1040001300115T 0600249600300000286080D00000000000000000001               30042010000000000000000237001260                         090000000970530001104934588000000000097862009177000970530001300000000000000000002220000000000                 
1040001300116U 0600000000000000000000000000398000000000000000000000000000398000000000001990100000000001194100000000000000000000000000000030042010050520101900        000000000000000CIP COMPENSACAO               930                           
1040001300117T 0600249600300000286080D00000000000000000001               30042010000000000000000341016640                         090000000979270001104924588000000000097862009177000979270001300000000000000000002220000000000                 
1040001300118U 0600000000000000000000000001972200000000000000000000000001972200000000009861100000000005916700000000000000000000000000000030042010050520101900        000000000000000CIP COMPENSACAO               930                           
1040001300119T 0600249600300000286080D00000000000000000001               30042010000000000000000237022810                         090000000994900001104914588000000000097862009177000994900001300000000000000000002220000000000                 
1040001300120U 0600000000000000000000000000085900000000000000000000000000085900000000000429300000000000257500000000000000000000000000000030042010050520101900        000000000000000CIP COMPENSACAO               930                           
1040001300121T 0600249600300000286080D00000000000000000001               30042010000000000000000341007587                         090000000994980001104914588000000000097862009177000994980001300000000000000000002220000000000                 
1040001300122U 0600000000000000000000000000388700000000000000000000000000388700000000001943300000000001165900000000000000000000000000000030042010050520101900        000000000000000CIP COMPENSACAO               930                           
1040001300123T 0600249600300000286080D00000000000000000001               30042010000000000000000237037796                         090000001016200001104934588000000000097862009177001016200001300000000000000000002220000000000                 
1040001300124U 0600000000000000000000000000093500000000000000000000000000093500000000000467300000000000280300000000000000000000000000000030042010050520101900        000000000000000CIP COMPENSACAO               930                           
1040001300125T 0600249600300000286080D00000000000000000001               30042010000000000000000341000574                         090000001028420001104964588000000000097862009177001028420001300000000000000000002220000000000                 
1040001300126U 0600000000000000000000000000133300000000000000000000000000133300000000000666600000000000400000000000000000000000000000000030042010050520101900        000000000000000CIP COMPENSACAO               930                           
1040001300127T 0600249600300000286080D00000000000000000001               30042010000000000000000341007579                         090000001078460001104934588000000000097862009177001078460001300000000000000000002220000000000                 
1040001300128U 0600000000000000000000000000061300000000000000000000000000061300000000000306500000000000183900000000000000000000000000000030042010050520101900        000000000000000CIP COMPENSACAO               930                           
1040001300129T 0600249600300000286080D00000000000000000001               30042010000000000000000237038326                         090000001085230001104944588000000000097862009177001085230001300000000000000000002220000000000                 
1040001300130U 0600000000000000000000000000343400000000000000000000000000343400000000001717200000000001030400000000000000000000000000000030042010050520101900        000000000000000CIP COMPENSACAO               930                           
1040001300131T 0600249600300000286080D00000000000000000001               30042010000000000000000341001384                         090000001115550001104914588000000000097862009177001115550001300000000000000000002220000000000                 
1040001300132U 0600000000000000000000000000342900000000000000000000000000342900000000001714400000000001028600000000000000000000000000000030042010050520101900        000000000000000CIP COMPENSACAO               930                           
1040001300133T 0600249600300000286080D00000000000000000001               30042010000000000000000341001503                         090000001137890001104984588000000000097862009177001137890001300000000000000000002220000000000                 
1040001300134U 0600000000000000000000000000492900000000000000000000000000492900000000002464300000000001478500000000000000000000000000000030042010050520101900        000000000000000CIP COMPENSACAO               930                           
1040001300135T 0600249600300000286080D00000000000000000001               30042010000000000000000237020044                         090000001138640001104994588000000000097862009177001138640001300000000000000000002220000000000                 
1040001300136U 0600000000000000000000000000341000000000000000000000000000341000000000001705100000000001023100000000000000000000000000000030042010050520101900        000000000000000CIP COMPENSACAO               930                           
1040001300137T 0600249600300000286080D00000000000000000001               30042010000000000000000341001708                         090000001138880001104934588000000000097862009177001138880001300000000000000000002220000000000                 
1040001300138U 0600000000000000000000000000049000000000000000000000000000049000000000000245000000000000147000000000000000000000000000000030042010050520101900        000000000000000CIP COMPENSACAO               930                           
1040001300139T 0600249600300000286080D00000000000000000001               07101997000000000000000341003689                         090000001176590001104900000000000000097862009177001176590001300000000000000000002220000000000                 
1040001300140U 0600000000000000000000000000352800000000000000000000000000352800000000001763800000000001058200000000000000000000000000000030042010050520101900        000000000000000CIP COMPENSACAO               930                           
1040001300141T 0600249600300000286080D00000000000000000001               30042010000000000000000341004456                         090000001190360001104974588000000000097862009177001190360001300000000000000000002220000000000                 
1040001300142U 0600000000000000000000000000249400000000000000000000000000249400000000001246900000000000748100000000000000000000000000000030042010050520101900        000000000000000CIP COMPENSACAO               930                           
1040001300143T 0600249600300000286080D00000000000000000001               30042010000000000000000237030902                         090000001190910001104944588000000000097862009177001190910001300000000000000000002220000000000                 
1040001300144U 0600000000000000000000000000494500000000000000000000000000494500000000002472300000000001483300000000000000000000000000000030042010050520101900        000000000000000CIP COMPENSACAO               930                           
1040001300145T 0600249600300000286080D00000000000000000001               30042010000000000000000341007404                         090000001193750001104964588000000000097862009177001193750001300000000000000000002220000000000                 
1040001300146U 0600000000000000000000000000337400000000000000000000000000337400000000001686800000000001012000000000000000000000000000000030042010050520101900        000000000000000CIP COMPENSACAO               930                           
1040001300147T 0600249600300000286080D00000000000000000001               30042010000000000000000341004456                         090000001235950001104994588000000000097862009177001235950001300000000000000000002220000000000                 
1040001300148U 0600000000000000000000000000586900000000000000000000000000586900000000002934700000000001760900000000000000000000000000000030042010050520101900        000000000000000CIP COMPENSACAO               930                           
1040001300149T 0600249600300000286080D00000000000000000001               30042010000000000000000237002968                         090000001264190001104994588000000000097862009177001264190001300000000000000000002220000000000                 
1040001300150U 0600000000000000000000000000691500000000000000000000000000691500000000003457300000000002074300000000000000000000000000000030042010050520101900        000000000000000CIP COMPENSACAO               930                           
1040001300151T 0600249600300000286080D00000000000000000001               30042010000000000000000341064050                         090000001266120001104964588000000000097862009177001266120001300000000000000000002220000000000                 
1040001300152U 0600000000000000000000000000550500000000000000000000000000550500000000002752500000000001651500000000000000000000000000000030042010050520101900        000000000000000CIP COMPENSACAO               930                           
1040001300153T 0600249600300000286080D00000000000000000001               30042010000000000000000341005932                         090000001277160001104924588000000000097862009177001277160001300000000000000000002220000000000                 
1040001300154U 0600000000000000000000000000120900000000000000000000000000120900000000000604400000000000362600000000000000000000000000000030042010050520101900        000000000000000CIP COMPENSACAO               930                           
1040001300155T 0600249600300000286080D00000000000000000001               30042010000000000000000001035726                         090000001277260001104944588000000000097862009177001277260001300000000000000000002220000000000                 
1040001300156U 0600000000000000000000000000097500000000000000000000000000097500000000000487300000000000292300000000000000000000000000000030042010050520101900        000000000000000CIP COMPENSACAO               930                           
1040001300157T 0600249600300000286080D00000000000000000001               30042010000000000000000341004405                         090000001295060001104994588000000000097862009177001295060001300000000000000000002220000000000                 
1040001300158U 0600000000000000000000000000376200000000000000000000000000376200000000001880800000000001128400000000000000000000000000000030042010050520101900        000000000000000CIP COMPENSACAO               930                           
1040001300159T 0600249600300000286080D00000000000000000001               30042010000000000000000341003557                         090000001386380001104974588000000000097862009177001386380001300000000000000000002220000000000                 
1040001300160U 0600000000000000000000000000060000000000000000000000000000060000000000000300000000000000180000000000000000000000000000000030042010050520101900        000000000000000CIP COMPENSACAO               930                           
1040001300161T 0600249600300000286080D00000000000000000001               30042010000000000000000104002534                         090000001463640001104994588000000000097862009177001463640001300000000000000000002180000000000                 
1040001300162U 0600000000000000000000000000312400000000000000000000000000312400000000001561900000000000937100000000000000000000000000000030042010050520102100        000000000000000AUTOMACAO                     930                           
1040001300163T 0600249600300000286080D00000000000000000001               30042010000000000000000341007579                         090000001465370001104984588000000000097862009177001465370001300000000000000000002220000000000                 
1040001300164U 0600000000000000000000000000148600000000000000000000000000148600000000000742800000000000445600000000000000000000000000000030042010050520101900        000000000000000CIP COMPENSACAO               930                           
1040001300165T 0600249600300000286080D00000000000000000001               30042010000000000000000237037907                         090000001465650001104984588000000000097862009177001465650001300000000000000000002220000000000                 
1040001300166U 0600000000000000000000000000604600000000000000000000000000604600000000003023100000000001813900000000000000000000000000000030042010050520101900        000000000000000CIP COMPENSACAO               930                           
1040001300167T 0600249600300000286080D00000000000000000001               30042010000000000000000237037907                         090000001465650001104984588000000000097862009177001465650001300000000000000000002220000000000                 
1040001300168U 0600000000000000000000000000084100000000000000000000000000084100000000000420600000000000252400000000000000000000000000000030042010050520101900        000000000000000CIP COMPENSACAO               930                           
1040001300169T 0600249600300000286080D00000000000000000001               30042010000000000000000237038229                         090000001465700001104964588000000000097862009177001465700001300000000000000000002220000000000                 
1040001300170U 0600000000000000000000000000409900000000000000000000000000409900000000002049600000000001229800000000000000000000000000000030042010050520101900        000000000000000CIP COMPENSACAO               930                           
1040001300171T 0600249600300000286080D00000000000000000001               30042010000000000000000341003506                         090000001469120001104934588000000000097862009177001469120001300000000000000000002220000000000                 
1040001300172U 0600000000000000000000000000444800000000000000000000000000444800000000002223800000000001334200000000000000000000000000000030042010050520101900        000000000000000CIP COMPENSACAO               930                           
1040001300173T 0600249600300000286080D00000000000000000001               30042010000000000026089341001805                         090000001511630001104914588000002608997862009177001511630001300000000000000000002220000000000                 
1040001300174U 0600000000000000000000000000521800000000000000000000000000521800000000002608900000000001565300000000000000000000000000000030042010050520101900        000000000000000CIP COMPENSACAO               930                           
1040001300175T 0600249600300000286080D00000000000000000001               30042010000000000000000341003506                         090000001544370001104914588000000000097862009177001544370001300000000000000000002220000000000                 
1040001300176U 0600000000000000000000000000557800000000000000000000000000557800000000002789200000000001673600000000000000000000000000000030042010050520101900        000000000000000CIP COMPENSACAO               930                           
1040001300177T 0600249600300000286080D00000000000000000001               30042010000000000000000341001384                         090000001566990001104994588000000000097862009177001566990001300000000000000000002220000000000                 
1040001300178U 0600000000000000000000000000044900000000000000000000000000044900000000000224700000000000134900000000000000000000000000000030042010050520101900        000000000000000CIP COMPENSACAO               930                           
1040001300179T 0600249600300000286080D00000000000000000001               30042010000000000000000237004952                         090000001569820001104924588000000000097862009177001569820001300000000000000000002220000000000                 
1040001300180U 0600000000000000000000000000276200000000000000000000000000276200000000001380800000000000828400000000000000000000000000000030042010050520101900        000000000000000CIP COMPENSACAO               930                           
1040001300181T 0600249600300000286080D00000000000000000001               30042010000000000000000341007625                         090000001633330001104914588000000000097862009177001633330001300000000000000000002220000000000                 
1040001300182U 0600000000000000000000000000056100000000000000000000000000056100000000000280700000000000168500000000000000000000000000000030042010050520101900        000000000000000CIP COMPENSACAO               930                           
1040001300183T 0600249600300000286080D00000000000000000001               30042010000000000000000237037907                         090000001678970001104934588000000000097862009177001678970001300000000000000000002220000000000                 
1040001300184U 0600000000000000000000000000034000000000000000000000000000034000000000000169900000000000101900000000000000000000000000000030042010050520101900        000000000000000CIP COMPENSACAO               930                           
1040001300185T 0600249600300000286080D00000000000000000001               30042010000000000057323409004820                         090000001679170001104984588000005732397862009177001679170001300000000000000000002220000000000                 
1040001300186U 0600000000000000000000000001146500000000000000000000000001146500000000005732300000000003439300000000000000000000000000000030042010050520101900        000000000000000CIP COMPENSACAO               930                           
1040001300187T 0600249600300000286080D00000000000000000001               30042010000000000000000341029254                         090000001694430001104954588000000000097862009177001694430001300000000000000000002220000000000                 
1040001300188U 0600000000000000000000000000215500000000000000000000000000215500000000001077700000000000646700000000000000000000000000000030042010050520101900        000000000000000CIP COMPENSACAO               930                           
1040001300189T 0600249600300000286080D00000000000000000001               30042010000000000000000237006564                         090000001714180001104914588000000000097862009177001714180001300000000000000000002220000000000                 
1040001300190U 0600000000000000000000000000117900000000000000000000000000117900000000000589300000000000353500000000000000000000000000000030042010050520101900        000000000000000CIP COMPENSACAO               930                           
1040001300191T 0600249600300000286080D00000000000000000001               30042010000000000000000341074578                         090000001731630001104974588000000000097862009177001731630001300000000000000000002220000000000                 
1040001300192U 0600000000000000000000000000092200000000000000000000000000092200000000000461000000000000276600000000000000000000000000000030042010050520101900        000000000000000CIP COMPENSACAO               930                           
1040001300193T 0600249600300000286080D00000000000000000001               30042010000000000000000341007358                         090000001756170001104944588000000000097862009177001756170001300000000000000000002220000000000                 
1040001300194U 0600000000000000000000000000293800000000000000000000000000293800000000001468800000000000881200000000000000000000000000000030042010050520101900        000000000000000CIP COMPENSACAO               930                           
1040001300195T 0600249600300000286080D00000000000000000001               30042010000000000000000237038571                         090000001773050001104974588000000000097862009177001773050001300000000000000000002220000000000                 
1040001300196U 0600000000000000000000000000333400000000000000000000000000333400000000001666800000000001000000000000000000000000000000000030042010050520101900        000000000000000CIP COMPENSACAO               930                           
1040001300197T 0600249600300000286080D00000000000000000001               30042010000000000000000399003522                         090000001852060001104934588000000000097862009177001852060001300000000000000000002220000000000                 
1040001300198U 0600000000000000000000000000045000000000000000000000000000045000000000000225000000000000135000000000000000000000000000000030042010050520101900        000000000000000CIP COMPENSACAO               930                           
1040001300199T 0600249600300000286080D00000000000000000001               30042010000000000000000341005258                         090000001887250001104974588000000000097862009177001887250001300000000000000000002220000000000                 
1040001300200U 0600000000000000000000000000064500000000000000000000000000064500000000000322300000000000193300000000000000000000000000000030042010050520101900        000000000000000CIP COMPENSACAO               930                           
1040001300201T 0600249600300000286080D00000000000000000001               30042010000000000000000237001970                         090000001895580001104914588000000000097862009177001895580001300000000000000000002220000000000                 
1040001300202U 0600000000000000000000000000521600000000000000000000000000521600000000002607900000000001564700000000000000000000000000000030042010050520101900        000000000000000CIP COMPENSACAO               930                           
1040001300203T 0600249600300000286080D00000000000000000001               30042010000000000000000237008303                         090000002078760001104944588000000000097862009177002078760001300000000000000000002220000000000                 
1040001300204U 0600000000000000000000000000118900000000000000000000000000118900000000000594500000000000356700000000000000000000000000000030042010050520101900        000000000000000CIP COMPENSACAO               930                           
1040001300205T 0600249600300000286080D00000000000000000001               30042010000000000000000341004286                         090000002094320001104984588000000000097862009177002094320001300000000000000000002220000000000                 
1040001300206U 0600000000000000000000000000449100000000000000000000000000449100000000002245300000000001347100000000000000000000000000000030042010050520101900        000000000000000CIP COMPENSACAO               930                           
1040001300207T 0600249600300000286080D00000000000000000001               30042010000000000010892237001058                         090000002124165887104924588000001089297862008177002124165887110000000000000000002220000000000                 
1040001300208U 0600000000000000000000000000217800000000000000000000000000217800000000001089200000000000653600000000000000000000000000000030042010050520101900        000000000000000CIP COMPENSACAO               811                           
1040001300209T 0600249600300000286080D00000000000000000001               30042010000000000000000237037907                         090000002190110637104974588000000000097862009177002190110637300000000000000000002220000000000                 
1040001300210U 0600000000000000000000000000089500000000000000000000000000089500000000000447600000000000268600000000000000000000000000000030042010050520101900        000000000000000CIP COMPENSACAO               930                           
1040001300211T 0600249600300000286080D00000000000000000001               30042010000000000000000237019984                         090000002190111126104964588000000000097862009177002190111126300000000000000000002220000000000                 
1040001300212U 0600000000000000000000000000278800000000000000000000000000278800000000001394000000000000836400000000000000000000000000000030042010050520101900        000000000000000CIP COMPENSACAO               930                           
1040001300213T 0600249600300000286080D00000000000000000001               30042010000000000000000341003930                         090000002190113218104954588000000000097862009177002190113218300000000000000000002220000000000                 
1040001300214U 0600000000000000000000000000051900000000000000000000000000051900000000000259700000000000155900000000000000000000000000000030042010050520101900        000000000000000CIP COMPENSACAO               930                           
1040001300215T 0600249600300000286080D00000000000000000001               30042010000000000000000237020621                         090000002190114148104914588000000000097862009177002190114148300000000000000000002220000000000                 
1040001300216U 0600000000000000000000000000141000000000000000000000000000141000000000000705000000000000423000000000000000000000000000000030042010050520101900        000000000000000CIP COMPENSACAO               930                           
1040001300217T 0600249600300000286080D00000000000000000001               30042010000000000000000409008397                         090000002190114371104914588000000000097862009177002190114371300000000000000000002220000000000                 
1040001300218U 0600000000000000000000000000049100000000000000000000000000049100000000000245300000000000147100000000000000000000000000000030042010050520101900        000000000000000CIP COMPENSACAO               930                           
1040001300219T 0600249600300000286080D00000000000000000001               30042010000000000000000341005932                         090000002190114578104954588000000000097862009177002190114578300000000000000000002220000000000                 
1040001300220U 0600000000000000000000000000049100000000000000000000000000049100000000000245300000000000147100000000000000000000000000000030042010050520101900        000000000000000CIP COMPENSACAO               930                           
1040001300221T 0600249600300000286080D00000000000000000001               30042010000000000000000341005932                         090000002190115716104924588000000000097862009177002190115716300000000000000000002220000000000                 
1040001300222U 0600000000000000000000000000156900000000000000000000000000156900000000000784600000000000470800000000000000000000000000000030042010050520101900        000000000000000CIP COMPENSACAO               930                           
1040001300223T 0600249600300000286080D00000000000000000001               30042010000000000000000341003832                         090000002190115727104944588000000000097862009177002190115727300000000000000000002220000000000                 
1040001300224U 0600000000000000000000000000084200000000000000000000000000084200000000000421200000000000252800000000000000000000000000000030042010050520101900        000000000000000CIP COMPENSACAO               930                           
1040001300225T 0600249600300000286080D00000000000000000001               30042010000000000000000341005932                         090000002190116965104964588000000000097862009177002190116965300000000000000000002220000000000                 
1040001300226U 0600000000000000000000000000081000000000000000000000000000081000000000000405000000000000243000000000000000000000000000000030042010050520101900        000000000000000CIP COMPENSACAO               930                           
1040001300227T 0600249600300000286080D00000000000000000001               30042010000000000000000341001902                         090000002190117622104954588000000000097862009177002190117622300000000000000000002220000000000                 
1040001300228U 0600000000000000000000000000192400000000000000000000000000192400000000000962100000000000577300000000000000000000000000000030042010050520101900        000000000000000CIP COMPENSACAO               930                           
1040001300229T 0600249600300000286080D00000000000000000001               30042010000000000000000237038571                         090000002190118293104954588000000000097862009177002190118293300000000000000000002220000000000                 
1040001300230U 0600000000000000000000000000049000000000000000000000000000049000000000000245000000000000147000000000000000000000000000000030042010050520101900        000000000000000CIP COMPENSACAO               930                           
1040001300231T 0600249600300000286080D00000000000000000001               30042010000000000000000399003433                         090000002190118397104954588000000000097862009177002190118397300000000000000000002220000000000                 
1040001300232U 0600000000000000000000000000114000000000000000000000000000114000000000000570000000000000342000000000000000000000000000000030042010050520101900        000000000000000CIP COMPENSACAO               930                           
1040001300233T 0600249600300000286080D00000000000000000001               30042010000000000000000341005932                         090000002190118651104994588000000000097862009177002190118651300000000000000000002220000000000                 
1040001300234U 0600000000000000000000000000327200000000000000000000000000327200000000001636000000000000981600000000000000000000000000000030042010050520101900        000000000000000CIP COMPENSACAO               930                           
1040001300235T 0600249600300000286080D00000000000000000001               30042010000000000000000237037907                         090000002190119362104914588000000000097862009177002190119362300000000000000000002220000000000                 
1040001300236U 0600000000000000000000000000068300000000000000000000000000068300000000000341700000000000205100000000000000000000000000000030042010050520101900        000000000000000CIP COMPENSACAO               930                           
1040001300237T 0600249600300000286080D00000000000000000001               30042010000000000000000341001708                         090000002190120079104974588000000000097862009177002190120079300000000000000000002220000000000                 
1040001300238U 0600000000000000000000000000049000000000000000000000000000049000000000000244900000000000146900000000000000000000000000000030042010050520101900        000000000000000CIP COMPENSACAO               930                           
1040001300239T 0600249600300000286080D00000000000000000001               30042010000000000000000033021997                         090000002190120610104944588000000000097862009177002190120610300000000000000000002220000000000                 
1040001300240U 0600000000000000000000000000081200000000000000000000000000081200000000000406100000000000243700000000000000000000000000000030042010050520101900        000000000000000CIP COMPENSACAO               930                           
1040001300241T 0600249600300000286080D00000000000000000001               30042010000000000000000341001708                         090000002190121112104984588000000000097862009177002190121112300000000000000000002220000000000                 
1040001300242U 0600000000000000000000000000049100000000000000000000000000049100000000000245300000000000147100000000000000000000000000000030042010050520101900        000000000000000CIP COMPENSACAO               930                           
1040001300243T 0600249600300000286080D00000000000000000001               30042010000000000000000237038229                         090000002190121294104994588000000000097862009177002190121294300000000000000000002220000000000                 
1040001300244U 0600000000000000000000000000049000000000000000000000000000049000000000000245200000000000147200000000000000000000000000000030042010050520101900        000000000000000CIP COMPENSACAO               930                           
1040001300245T 0600249600300000286080D00000000000000000001               30042010000000000000000399009172                         090000002190121362104944588000000000097862009177002190121362300000000000000000002220000000000                 
1040001300246U 0600000000000000000000000000045000000000000000000000000000045000000000000225000000000000135000000000000000000000000000000030042010050520101900        000000000000000CIP COMPENSACAO               930                           
1040001300247T 0600249600300000286080D00000000000000000001               30042010000000000000000341005932                         090000002190121404104994588000000000097862009177002190121404300000000000000000002220000000000                 
1040001300248U 0600000000000000000000000000156900000000000000000000000000156900000000000784300000000000470500000000000000000000000000000030042010050520101900        000000000000000CIP COMPENSACAO               930                           
1040001300249T 0600249600300000286080D00000000000000000001               30042010000000000000000341002372                         090000002190121523104984588000000000097862009177002190121523300000000000000000002220000000000                 
1040001300250U 0600000000000000000000000000103100000000000000000000000000103100000000000515400000000000309200000000000000000000000000000030042010050520101900        000000000000000CIP COMPENSACAO               930                           
1040001300251T 0600249600300000286080D00000000000000000001               30042010000000000000000237037907                         090000002190125691104924588000000000097862009177002190125691300000000000000000002220000000000                 
1040001300252U 0600000000000000000000000000367700000000000000000000000000367700000000001838300000000001102900000000000000000000000000000030042010050520101900        000000000000000CIP COMPENSACAO               930                           
1040001300253T 0600249600300000286080D00000000000000000001               30042010000000000000000341005932                         090000002190210969104914588000000000097862009177002190210969300000000000000000002220000000000                 
1040001300254U 0600000000000000000000000000082700000000000000000000000000082700000000000413600000000000248200000000000000000000000000000030042010050520101900        000000000000000CIP COMPENSACAO               930                           
1040001300255T 0600249600300000286080D00000000000000000001               30042010000000000000000341000574                         090000002190211001104914588000000000097862009177002190211001300000000000000000002220000000000                 
1040001300256U 0600000000000000000000000000273300000000000000000000000000273300000000001366400000000000819800000000000000000000000000000030042010050520101900        000000000000000CIP COMPENSACAO               930                           
1040001300257T 0600249600300000286080D00000000000000000001               30042010000000000000000237037907                         090000002190212338104994588000000000097862009177002190212338300000000000000000002220000000000                 
1040001300258U 0600000000000000000000000000074400000000000000000000000000074400000000000371800000000000223000000000000000000000000000000030042010050520101900        000000000000000CIP COMPENSACAO               930                           
1040001300259T 0600249600300000286080D00000000000000000001               30042010000000000000000237005002                         090000002190212624104914588000000000097862009177002190212624300000000000000000002220000000000                 
1040001300260U 0600000000000000000000000000235000000000000000000000000000235000000000001175200000000000705200000000000000000000000000000030042010050520101900        000000000000000CIP COMPENSACAO               930                           
1040001300261T 0600249600300000286080D00000000000000000001               30042010000000000000000341005932                         090000002190212807104994588000000000097862009177002190212807300000000000000000002220000000000                 
1040001300262U 0600000000000000000000000000144900000000000000000000000000144900000000000724300000000000434500000000000000000000000000000030042010050520101900        000000000000000CIP COMPENSACAO               930                           
1040001300263T 0600249600300000286080D00000000000000000001               30042010000000000000000341005932                         090000002190212852104944588000000000097862009177002190212852300000000000000000002220000000000                 
1040001300264U 0600000000000000000000000000126500000000000000000000000000126500000000000632600000000000379600000000000000000000000000000030042010050520101900        000000000000000CIP COMPENSACAO               930                           
1040001300265T 0600249600300000286080D00000000000000000001               30042010000000000000000237038571                         090000002190212857104964588000000000097862009177002190212857300000000000000000002220000000000                 
1040001300266U 0600000000000000000000000000118300000000000000000000000000118300000000000591700000000000355100000000000000000000000000000030042010050520101900        000000000000000CIP COMPENSACAO               930                           
1040001300267T 0600249600300000286080D00000000000000000001               30042010000000000000000341005932                         090000002190212858104924588000000000097862009177002190212858300000000000000000002220000000000                 
1040001300268U 0600000000000000000000000000318100000000000000000000000000318100000000001590300000000000954100000000000000000000000000000030042010050520101900        000000000000000CIP COMPENSACAO               930                           
1040001300269T 0600249600300000286080D00000000000000000001               30042010000000000000000237037907                         090000002190212885104914588000000000097862009177002190212885300000000000000000002220000000000                 
1040001300270U 0600000000000000000000000000049000000000000000000000000000049000000000000245200000000000147200000000000000000000000000000030042010050520101900        000000000000000CIP COMPENSACAO               930                           
1040001300271T 0600249600300000286080D00000000000000000001               30042010000000000000000341005932                         090000002190213182104924588000000000097862009177002190213182300000000000000000002220000000000                 
1040001300272U 0600000000000000000000000000047000000000000000000000000000047000000000000235000000000000141000000000000000000000000000000030042010050520101900        000000000000000CIP COMPENSACAO               930                           
1040001300273T 0600249600300000286080D00000000000000000001               30042010000000000000000237031143                         090000002190213507104994588000000000097862009177002190213507300000000000000000002220000000000                 
1040001300274U 0600000000000000000000000000049000000000000000000000000000049000000000000244900000000000146900000000000000000000000000000030042010050520101900        000000000000000CIP COMPENSACAO               930                           
1040001300275T 0600249600300000286080D00000000000000000001               30042010000000000000000356001031                         090000002190214024104904588000000000097862009177002190214024300000000000000000002220000000000                 
1040001300276U 0600000000000000000000000000190000000000000000000000000000190000000000000950000000000000570000000000000000000000000000000030042010050520101900        000000000000000CIP COMPENSACAO               930                           
1040001300277T 0600249600300000286080D00000000000000000001               30042010000000000000000341001708                         090000002190214170104984588000000000097862009177002190214170300000000000000000002220000000000                 
1040001300278U 0600000000000000000000000000279900000000000000000000000000279900000000001399300000000000839500000000000000000000000000000030042010050520101900        000000000000000CIP COMPENSACAO               930                           
1040001300279T 0600249600300000286080D00000000000000000001               30042010000000000000000237037907                         090000002190214251104984588000000000097862009177002190214251300000000000000000002220000000000                 
1040001300280U 0600000000000000000000000000589200000000000000000000000000589200000000002946000000000001767600000000000000000000000000000030042010050520101900        000000000000000CIP COMPENSACAO               930                           
1040001300281T 0600249600300000286080D00000000000000000001               30042010000000000000000341005932                         090000002190214274104984588000000000097862009177002190214274300000000000000000002220000000000                 
1040001300282U 0600000000000000000000000000232900000000000000000000000000232900000000001164500000000000698700000000000000000000000000000030042010050520101900        000000000000000CIP COMPENSACAO               930                           
1040001300283T 0600249600300000286080D00000000000000000001               30042010000000000000000237001317                         090000002190214299104914588000000000097862009177002190214299300000000000000000002220000000000                 
1040001300284U 0600000000000000000000000000131700000000000000000000000000131700000000000658700000000000395300000000000000000000000000000030042010050520101900        000000000000000CIP COMPENSACAO               930                           
1040001300285T 0600249600300000286080D00000000000000000001               30042010000000000000000356001031                         090000002190214882104904588000000000097862009177002190214882300000000000000000002220000000000                 
1040001300286U 0600000000000000000000000000207800000000000000000000000000207800000000001038800000000000623200000000000000000000000000000030042010050520101900        000000000000000CIP COMPENSACAO               930                           
1040001300287T 0600249600300000286080D00000000000000000001               30042010000000000000000341005932                         090000002190214884104914588000000000097862009177002190214884300000000000000000002220000000000                 
1040001300288U 0600000000000000000000000000458300000000000000000000000000458300000000002291500000000001374900000000000000000000000000000030042010050520101900        000000000000000CIP COMPENSACAO               930                           
1040001300289T 0600249600300000286080D00000000000000000001               30042010000000000000000356004103                         090000002190214887104904588000000000097862009177002190214887300000000000000000002220000000000                 
1040001300290U 0600000000000000000000000000172900000000000000000000000000172900000000000864700000000000518900000000000000000000000000000030042010050520101900        000000000000000CIP COMPENSACAO               930                           
1040001300291T 0600249600300000286080D00000000000000000001               30042010000000000000000033001430                         090000002190215118104914588000000000097862009177002190215118300000000000000000002220000000000                 
1040001300292U 0600000000000000000000000000161800000000000000000000000000161800000000000809200000000000485600000000000000000000000000000030042010050520101900        000000000000000CIP COMPENSACAO               930                           
1040001300293T 0600249600300000286080D00000000000000000001               30042010000000000000000341003506                         090000002190215257104914588000000000097862009177002190215257300000000000000000002220000000000                 
1040001300294U 0600000000000000000000000000340600000000000000000000000000340600000000001702800000000001021600000000000000000000000000000030042010050520101900        000000000000000CIP COMPENSACAO               930                           
1040001300295T 0600249600300000286080D00000000000000000001               30042010000000000000000341005932                         090000002190215903104994588000000000097862009177002190215903300000000000000000002220000000000                 
1040001300296U 0600000000000000000000000000195200000000000000000000000000195200000000000976000000000000585600000000000000000000000000000030042010050520101900        000000000000000CIP COMPENSACAO               930                           
1040001300297T 0600249600300000286080D00000000000000000001               30042010000000000000000341001775                         090000002190216342104914588000000000097862009177002190216342300000000000000000002220000000000                 
1040001300298U 0600000000000000000000000000049100000000000000000000000000049100000000000245300000000000147100000000000000000000000000000030042010050520101900        000000000000000CIP COMPENSACAO               930                           
1040001300299T 0600249600300000286080D00000000000000000001               30042010000000000000000341001708                         090000002190218167104914588000000000097862009177002190218167300000000000000000002220000000000                 
1040001300300U 0600000000000000000000000000049100000000000000000000000000049100000000000245300000000000147100000000000000000000000000000030042010050520101900        000000000000000CIP COMPENSACAO               930                           
1040001300301T 0600249600300000286080D00000000000000000001               30042010000000000000000341007358                         090000002190218488104924588000000000097862009177002190218488300000000000000000002220000000000                 
1040001300302U 0600000000000000000000000000281600000000000000000000000000281600000000001408200000000000845000000000000000000000000000000030042010050520101900        000000000000000CIP COMPENSACAO               930                           
1040001300303T 0600249600300000286080D00000000000000000001               30042010000000000000000341029653                         090000002190219210104984588000000000097862009177002190219210300000000000000000002220000000000                 
1040001300304U 0600000000000000000000000000094000000000000000000000000000094000000000000470000000000000282000000000000000000000000000000030042010050520101900        000000000000000CIP COMPENSACAO               930                           
1040001300305T 0600249600300000286080D00000000000000000001               30042010000000000000000341005932                         090000002190219213104974588000000000097862009177002190219213300000000000000000002220000000000                 
1040001300306U 0600000000000000000000000000965900000000000000000000000000965900000000004829500000000002897700000000000000000000000000000030042010050520101900        000000000000000CIP COMPENSACAO               930                           
1040001300307T 0600249600300000286080D00000000000000000001               30042010000000000000000356008290                         090000002190219266104904588000000000097862009177002190219266300000000000000000002220000000000                 
1040001300308U 0600000000000000000000000000057700000000000000000000000000057700000000000288700000000000173300000000000000000000000000000030042010050520101900        000000000000000CIP COMPENSACAO               930                           
1040001300309T 0600249600300000286080D00000000000000000001               30042010000000000000000341030996                         090000002190219358104954588000000000097862009177002190219358300000000000000000002220000000000                 
1040001300310U 0600000000000000000000000000507900000000000000000000000000507900000000002539300000000001523500000000000000000000000000000030042010050520101900        000000000000000CIP COMPENSACAO               930                           
1040001300311T 0600249600300000286080D00000000000000000001               30042010000000000000000237038571                         090000002190219424104984588000000000097862009177002190219424300000000000000000002220000000000                 
1040001300312U 0600000000000000000000000000198100000000000000000000000000198100000000000990700000000000594500000000000000000000000000000030042010050520101900        000000000000000CIP COMPENSACAO               930                           
1040001300313T 0600249600300000286080D00000000000000000001               30042010000000000000000341001708                         090000002190220846104914588000000000097862009177002190220846300000000000000000002220000000000                 
1040001300314U 0600000000000000000000000000358900000000000000000000000000358900000000001794400000000001076600000000000000000000000000000030042010050520101900        000000000000000CIP COMPENSACAO               930                           
1040001300315T 0600249600300000286080D00000000000000000001               30042010000000000000000341000370                         090000002190221127104974588000000000097862009177002190221127300000000000000000002220000000000                 
1040001300316U 0600000000000000000000000000053200000000000000000000000000053200000000000265800000000000159400000000000000000000000000000030042010050520101900        000000000000000CIP COMPENSACAO               930                           
1040001300317T 0600249600300000286080D00000000000000000001               07101997000000000019753356001368                         090000002190221219104900000000001975397862009177002190221219300000000000000000002220000000000                 
1040001300318U 0600000000000000000000000000395100000000000000000000000000395100000000001975300000000001185100000000000000000000000000000030042010050520101900        000000000000000CIP COMPENSACAO               930                           
1040001300319T 0600249600300000286080D00000000000000000001               30042010000000000000000341002372                         090000002190221760104914588000000000097862009177002190221760300000000000000000002220000000000                 
1040001300320U 0600000000000000000000000000141100000000000000000000000000141100000000000705300000000000423100000000000000000000000000000030042010050520101900        000000000000000CIP COMPENSACAO               930                           
1040001300321T 0600249600300000286080D00000000000000000001               30042010000000000000000341007358                         090000002190223767104934588000000000097862009177002190223767300000000000000000002220000000000                 
1040001300322U 0600000000000000000000000000053300000000000000000000000000053300000000000266600000000000160000000000000000000000000000000030042010050520101900        000000000000000CIP COMPENSACAO               930                           
1040001300323T 0600249600300000286080D00000000000000000001               30042010000000000000000341081795                         090000002190224129104914588000000000097862009177002190224129300000000000000000002220000000000                 
1040001300324U 0600000000000000000000000000090800000000000000000000000000090800000000000454200000000000272600000000000000000000000000000030042010050520101900        000000000000000CIP COMPENSACAO               930                           
1040001300325T 0600249600300000286080D00000000000000000001               30042010000000000000000341007358                         090000002190224344104994588000000000097862009177002190224344300000000000000000002220000000000                 
1040001300326U 0600000000000000000000000000191400000000000000000000000000191400000000000957200000000000574400000000000000000000000000000030042010050520101900        000000000000000CIP COMPENSACAO               930                           
1040001300327T 0600249600300000286080D00000000000000000001               30042010000000000000000341000370                         090000002190224706104984588000000000097862009177002190224706300000000000000000002220000000000                 
1040001300328U 0600000000000000000000000000197600000000000000000000000000197600000000000988200000000000593000000000000000000000000000000030042010050520101900        000000000000000CIP COMPENSACAO               930                           
1040001300329T 0600249600300000286080D00000000000000000001               30042010000000000000000341005932                         090000002190303285104954588000000000097862009177002190303285300000000000000000002220000000000                 
1040001300330U 0600000000000000000000000000045000000000000000000000000000045000000000000225000000000000135000000000000000000000000000000030042010050520101900        000000000000000CIP COMPENSACAO               930                           
1040001300331T 0600249600300000286080D00000000000000000001               30042010000000000000000341002372                         090000002190306667104964588000000000097862009177002190306667300000000000000000002220000000000                 
1040001300332U 0600000000000000000000000000151700000000000000000000000000151700000000000758700000000000455300000000000000000000000000000030042010050520101900        000000000000000CIP COMPENSACAO               930                           
1040001300333T 0600249600300000286080D00000000000000000001               30042010000000000000000341002526                         090000002190311838104914588000000000097862009177002190311838300000000000000000002220000000000                 
1040001300334U 0600000000000000000000000000150300000000000000000000000000150300000000000751600000000000451000000000000000000000000000000030042010050520101900        000000000000000CIP COMPENSACAO               930                           
1040001300335T 0600249600300000286080D00000000000000000001               30042010000000000000000237038237                         090000002190314053104934588000000000097862009177002190314053300000000000000000002220000000000                 
1040001300336U 0600000000000000000000000000030300000000000000000000000000030300000000000151500000000000090900000000000000000000000000000030042010050520101900        000000000000000CIP COMPENSACAO               930                           
1040001300337T 0600249600300000286080D00000000000000000001               30042010000000000000000399002232                         090000002190314163104934588000000000097862009177002190314163300000000000000000002220000000000                 
1040001300338U 0600000000000000000000000000070700000000000000000000000000070700000000000353300000000000211900000000000000000000000000000030042010050520101900        000000000000000CIP COMPENSACAO               930                           
1040001300339T 0600249600300000286080D00000000000000000001               07101997000000000021384356001368                         090000002190314928104900000000002138497862009177002190314928300000000000000000002220000000000                 
1040001300340U 0600000000000000000000000000427700000000000000000000000000427700000000002138400000000001283000000000000000000000000000000030042010050520101900        000000000000000CIP COMPENSACAO               930                           
1040001300341T 0600249600300000286080D00000000000000000001               30042010000000000000000341000370                         090000002190315116104994588000000000097862009177002190315116300000000000000000002220000000000                 
1040001300342U 0600000000000000000000000000072500000000000000000000000000072500000000000362700000000000217700000000000000000000000000000030042010050520101900        000000000000000CIP COMPENSACAO               930                           
1040001300343T 0600249600300000286080D00000000000000000001               30042010000000000000000341005932                         090000002190315159104914588000000000097862009177002190315159300000000000000000002220000000000                 
1040001300344U 0600000000000000000000000000141000000000000000000000000000141000000000000704900000000000422900000000000000000000000000000030042010050520101900        000000000000000CIP COMPENSACAO               930                           
1040001300345T 0600249600300000286080D00000000000000000001               30042010000000000000000237037788                         090000002190315968104954588000000000097862009177002190315968300000000000000000002220000000000                 
1040001300346U 0600000000000000000000000000049000000000000000000000000000049000000000000245000000000000147000000000000000000000000000000030042010050520101900        000000000000000CIP COMPENSACAO               930                           
1040001300347T 0600249600300000286080D00000000000000000001               30042010000000000000000341005932                         090000002190316154104914588000000000097862009177002190316154300000000000000000002220000000000                 
1040001300348U 0600000000000000000000000000060700000000000000000000000000060700000000000303300000000000181900000000000000000000000000000030042010050520101900        000000000000000CIP COMPENSACAO               930                           
1040001300349T 0600249600300000286080D00000000000000000001               30042010000000000000000341000370                         090000002190316301104944588000000000097862009177002190316301300000000000000000002220000000000                 
1040001300350U 0600000000000000000000000000049000000000000000000000000000049000000000000244900000000000146900000000000000000000000000000030042010050520101900        000000000000000CIP COMPENSACAO               930                           
1040001300351T 0600249600300000286080D00000000000000000001               30042010000000000000000341005932                         090000002190316582104934588000000000097862009177002190316582300000000000000000002220000000000                 
1040001300352U 0600000000000000000000000000049100000000000000000000000000049100000000000245300000000000147100000000000000000000000000000030042010050520101900        000000000000000CIP COMPENSACAO               930                           
1040001300353T 0600249600300000286080D00000000000000000001               07101997000000000002670356008885                         090000002190317920104900000000000267097862009177002190317920300000000000000000002220000000000                 
1040001300354U 0600000000000000000000000000053400000000000000000000000000053400000000000267000000000000160200000000000000000000000000000030042010050520101900        000000000000000CIP COMPENSACAO               930                           
1040001300355T 0600249600300000286080D00000000000000000001               07101997000000000002540356008885                         090000002190317921104900000000000254097862009177002190317921300000000000000000002220000000000                 
1040001300356U 0600000000000000000000000000050800000000000000000000000000050800000000000254000000000000152400000000000000000000000000000030042010050520101900        000000000000000CIP COMPENSACAO               930                           
1040001300357T 0600249600300000286080D00000000000000000001               30042010000000000000000341005932                         090000002190318071104964588000000000097862009177002190318071300000000000000000002220000000000                 
1040001300358U 0600000000000000000000000000204600000000000000000000000000204600000000001023200000000000614000000000000000000000000000000030042010050520101900        000000000000000CIP COMPENSACAO               930                           
1040001300359T 0600249600300000286080D00000000000000000001               30042010000000000000000341004405                         090000002190318649104984588000000000097862009177002190318649300000000000000000002220000000000                 
1040001300360U 0600000000000000000000000000044900000000000000000000000000044900000000000224600000000000134800000000000000000000000000000030042010050520101900        000000000000000CIP COMPENSACAO               930                           
1040001300361T 0600249600300000286080D00000000000000000001               30042010000000000000000341080985                         090000002190319029104934588000000000097862009177002190319029300000000000000000002220000000000                 
1040001300362U 0600000000000000000000000000065300000000000000000000000000065300000000000326300000000000195700000000000000000000000000000030042010050520101900        000000000000000CIP COMPENSACAO               930                           
1040001300363T 0600249600300000286080D00000000000000000001               30042010000000000000000341005533                         090000002190319871104964588000000000097862009177002190319871300000000000000000002220000000000                 
1040001300364U 0600000000000000000000000000198300000000000000000000000000198300000000000991600000000000595000000000000000000000000000000030042010050520101900        000000000000000CIP COMPENSACAO               930                           
1040001300365T 0600249600300000286080D00000000000000000001               30042010000000000000000341007358                         090000002190322134104994588000000000097862009177002190322134300000000000000000002220000000000                 
1040001300366U 0600000000000000000000000000021500000000000000000000000000021500000000000107500000000000064500000000000000000000000000000030042010050520101900        000000000000000CIP COMPENSACAO               930                           
1040001300367T 0600249600300000286080D00000000000000000001               30042010000000000000000151003905                         090000002190413659104974588000000000097862009177002190413659300000000000000000002220000000000                 
1040001300368U 0600000000000000000000000000051300000000000000000000000000051300000000000256400000000000153800000000000000000000000000000030042010050520101900        000000000000000CIP COMPENSACAO               930                           
1040001300369T 0600249600300000286080D00000000000000000001               30042010000000000000000237001147                         090000002190413663104944588000000000097862009177002190413663300000000000000000002220000000000                 
1040001300370U 0600000000000000000000000000076900000000000000000000000000076900000000000384500000000000230700000000000000000000000000000030042010050520101900        000000000000000CIP COMPENSACAO               930                           
1040001300371T 0600249600300000286080D00000000000000000001               30042010000000000000000341002526                         090000002190420533104954588000000000097862009177002190420533300000000000000000002220000000000                 
1040001300372U 0600000000000000000000000000052000000000000000000000000000052000000000000260000000000000156000000000000000000000000000000030042010050520101900        000000000000000CIP COMPENSACAO               930                           
1040001300373T 0600249600300000286080D00000000000000000001               30042010000000000000000237001147                         090000002190421664104964588000000000097862009177002190421664300000000000000000002220000000000                 
1040001300374U 0600000000000000000000000000058900000000000000000000000000058900000000000294300000000000176500000000000000000000000000000030042010050520101900        000000000000000CIP COMPENSACAO               930                           
1040001300375T 0600249600300000286080D00000000000000000001               30042010000000000000000237001147                         090000002190421753104994588000000000097862009177002190421753300000000000000000002220000000000                 
1040001300376U 0600000000000000000000000000058800000000000000000000000000058800000000000294000000000000176400000000000000000000000000000030042010050520101900        000000000000000CIP COMPENSACAO               930                           
1040001300377T 0600249600300000286080D00000000000000000001               30042010000000000000000237001147                         090000002190428984104964588000000000097862009177002190428984300000000000000000002220000000000                 
1040001300378U 0600000000000000000000000000058000000000000000000000000000058000000000000289900000000000173900000000000000000000000000000030042010050520101900        000000000000000CIP COMPENSACAO               930                           
1040001300379T 0600249600300000286080D00000000000000000001               30042010000000000000000237023639                         090000002190430245104924588000000000097862009177002190430245300000000000000000002220000000000                 
1040001300380U 0600000000000000000000000000239300000000000000000000000000239300000000001196600000000000718000000000000000000000000000000030042010050520101900        000000000000000CIP COMPENSACAO               930                           
1040001300381T 0600249600300000286080D00000000000000000001               30042010000000000000000237001147                         090000002190430775104914588000000000097862009177002190430775300000000000000000002220000000000                 
1040001300382U 0600000000000000000000000000065400000000000000000000000000065400000000000327100000000000196300000000000000000000000000000030042010050520101900        000000000000000CIP COMPENSACAO               930                           
1040001300383T 0600249600300000286080D00000000000000000001               07101997000000000000000341001929                         090000002190515245104900000000000000097862009177002190515245300000000000000000002220000000000                 
1040001300384U 0600000000000000000000000000049000000000000000000000000000049000000000000244900000000000146900000000000000000000000000000030042010050520101900        000000000000000CIP COMPENSACAO               930                           
1040001300385T 0600249600300000286080D00000000000000000001               30042010000000000000000341002852                         090000002190518801104984588000000000097862009177002190518801300000000000000000002220000000000                 
1040001300386U 0600000000000000000000000000249000000000000000000000000000249000000000001245100000000000747100000000000000000000000000000030042010050520101900        000000000000000CIP COMPENSACAO               930                           
1040001300387T 0600249600300000286080D00000000000000000001               30042010000000000000000341002526                         090000002190518827104974588000000000097862009177002190518827300000000000000000002220000000000                 
1040001300388U 0600000000000000000000000000024700000000000000000000000000024700000000000123300000000000073900000000000000000000000000000030042010050520101900        000000000000000CIP COMPENSACAO               930                           
1040001300389T 0600249600300000286080D00000000000000000001               30042010000000000000000341093203                         090000002190525096104944588000000000097862009177002190525096300000000000000000002220000000000                 
1040001300390U 0600000000000000000000000000049000000000000000000000000000049000000000000244900000000000146900000000000000000000000000000030042010050520101900        000000000000000CIP COMPENSACAO               930                           
1040001300391T 0600249600300000286080D00000000000000000001               30042010000000000000000356008753                         090000002190525955104904588000000000097862009177002190525955300000000000000000002220000000000                 
1040001300392U 0600000000000000000000000000113300000000000000000000000000113300000000000566300000000000339700000000000000000000000000000030042010050520101900        000000000000000CIP COMPENSACAO               930                           
1040001300393T 0600249600300000286080D00000000000000000001               30042010000000000000000237005509                         090000002190620856104924588000000000097862009177002190620856300000000000000000002220000000000                 
1040001300394U 0600000000000000000000000000191400000000000000000000000000191400000000000957000000000000574200000000000000000000000000000030042010050520101900        000000000000000CIP COMPENSACAO               930                           
1040001300395T 0600249600300000286080D00000000000000000001               30042010000000000000000341000744                         090000002190624184104994588000000000097862009177002190624184300000000000000000002220000000000                 
1040001300396U 0600000000000000000000000000140800000000000000000000000000140800000000000704100000000000422500000000000000000000000000000030042010050520101900        000000000000000CIP COMPENSACAO               930                           
1040001300397T 0600249600300000286080D00000000000000000001               30042010000000000000000341001805                         090000002190707493104994588000000000097862009177002190707493300000000000000000002220000000000                 
1040001300398U 0600000000000000000000000000049100000000000000000000000000049100000000000245300000000000147100000000000000000000000000000030042010050520101900        000000000000000CIP COMPENSACAO               930                           
1040001300399T 0600249600300000286080D00000000000000000001               30042010000000000000000341007404                         090000002190710139104984588000000000097862009177002190710139300000000000000000002220000000000                 
1040001300400U 0600000000000000000000000000105000000000000000000000000000105000000000000525000000000000315000000000000000000000000000000030042010050520101900        000000000000000CIP COMPENSACAO               930                           
1040001300401T 0600249600300000286080D00000000000000000001               30042010000000000000000389001546                         090000002190710665104914588000000000097862009177002190710665300000000000000000002220000000000                 
1040001300402U 0600000000000000000000000000114300000000000000000000000000114300000000000571700000000000343100000000000000000000000000000030042010050520101900        000000000000000CIP COMPENSACAO               930                           
1040001300403T 0600249600300000286080D00000000000000000001               30042010000000000000000237037907                         090000002190711715104924588000000000097862009177002190711715300000000000000000002220000000000                 
1040001300404U 0600000000000000000000000000070600000000000000000000000000070600000000000353100000000000211900000000000000000000000000000030042010050520101900        000000000000000CIP COMPENSACAO               930                           
1040001300405T 0600249600300000286080D00000000000000000001               07101997000000000000000341084999                         090000002190711822104900000000000000097862009177002190711822300000000000000000002220000000000                 
1040001300406U 0600000000000000000000000000059300000000000000000000000000059300000000000296300000000000177700000000000000000000000000000030042010050520101900        000000000000000CIP COMPENSACAO               930                           
1040001300407T 0600249600300000286080D00000000000000000001               30042010000000000000000409070076                         090000002190712135104914588000000000097862009177002190712135300000000000000000002220000000000                 
1040001300408U 0600000000000000000000000000074700000000000000000000000000074700000000000373500000000000224100000000000000000000000000000030042010050520101900        000000000000000CIP COMPENSACAO               930                           
1040001300409T 0600249600300000286080D00000000000000000001               30042010000000000000000341000671                         090000002190712494104914588000000000097862009177002190712494300000000000000000002220000000000                 
1040001300410U 0600000000000000000000000000131200000000000000000000000000131200000000000656200000000000393800000000000000000000000000000030042010050520101900        000000000000000CIP COMPENSACAO               930                           
1040001300411T 0600249600300000286080D00000000000000000001               30042010000000000000000409070076                         090000002190712738104964588000000000097862009177002190712738300000000000000000002220000000000                 
1040001300412U 0600000000000000000000000000077400000000000000000000000000077400000000000386800000000000232000000000000000000000000000000030042010050520101900        000000000000000CIP COMPENSACAO               930                           
