10400000         243070481000114186200              00249600300000286080SINEMPEDIFPORTCAB MUN SP      CAIXA ECONOMICA FEDERAL                 22806201005004200129706000000                                                                     
10400011T01  030 2043070481000114186200              00249600300000286080SINEMPEDIFPORTCAB MUN SP      200501                                  000000                                  000000002806201000000000                                 
1040001304226U 0600000000000000000000000000088300000000000000000000000000088300000000000441700000000000265100000000000000000000000000000030042010050520101900        000000000000000CIP COMPENSACAO               811                           
1040001304227T 0600249600300000286080D00000000000000000001               07101997000000000212864356008885                         090000078789510001104900000000021286497862009177078789510001300000000000000000002220000000000                 
10400014         00001200000000000000000000000000000000000000000000000000000000000000000000000000000000000000018894                           00000000000000000000000000000                                                                     
10400015         000001000016000000000              00000 000000000000                                                                        00000000000000000000000000000                                                                     
