10400000         243070481000114186200              00249600300000286080SINEMPEDIFPORTCAB MUN SP      CAIXA ECONOMICA FEDERAL                 22904201005220000125806000000                                                                     
10400011T01  030 2043070481000114186200              00249600300000286080SINEMPEDIFPORTCAB MUN SP      200501                                  000000                                  000000002904201000000000                                 
1040001300001T 0600249600300000286080D00000000000000000001               30042010000000000000000033006637                         090000000002640001104964588000000000097862009177000002640001300000000000000000002220000000000                 
1040001300002U 0600000000000000000000000000262100000000000000000000000000262100000000001310600000000000786400000000000000000000000000000027042010300420101900        000000000000000CIP COMPENSACAO               930                           
1040001300003T 0600249600300000286080D00000000000000000001               30042010000000000000000341000370                         090000000003196518104934588000000000097862009177000003196518300000000000000000002220000000000                 
1040001300004U 0600000000000000000000000000130000000000000000000000000000130000000000000650000000000000390000000000000000000000000000000027042010300420101900        000000000000000CIP COMPENSACAO               930                           
1040001300005T 0600249600300000286080D00000000000000000001               30042010000000000012362237038571                         090000000169280001104954588000001236297862008177000169280001110000000000000000002220000000000                 
1040001300006U 0600000000000000000000000000247200000000000000000000000000247200000000001236200000000000741800000000000000000000000000000027042010300420101900        000000000000000CIP COMPENSACAO               811                           
1040001300007T 0600249600300000286080D00000000000000000001               30042010000000000000000341006483                         090000000733820001104994588000000000097862009177000733820001300000000000000000002220000000000                 
1040001300008U 0600000000000000000000000000052200000000000000000000000000052200000000000261100000000000156700000000000000000000000000000027042010300420101900        000000000000000CIP COMPENSACAO               930                           
1040001300009T 0600249600300000286080D00000000000000000001               30042010000000000000000341084999                         090000001264630001104914588000000000097862009177001264630001300000000000000000002220000000000                 
1040001300010U 0600000000000000000000000000044900000000000000000000000000044900000000000224500000000000134700000000000000000000000000000027042010300420101900        000000000000000CIP COMPENSACAO               930                           
1040001300011T 0600249600300000286080D00000000000000000001               30042010000000000000000237017884                         090000001267000001104974588000000000097862009177001267000001300000000000000000002220000000000                 
1040001300012U 0600000000000000000000000000406800000000000000000000000000406800000000002033800000000001220200000000000000000000000000000027042010300420101900        000000000000000CIP COMPENSACAO               930                           
1040001300013T 0600249600300000286080D00000000000000000001               30042010000000000000000033004383                         090000001277150001104914588000000000097862009177001277150001300000000000000000002220000000000                 
1040001300014U 0600000000000000000000000000526400000000000000000000000000526400000000002632000000000001579200000000000000000000000000000027042010300420101900        000000000000000CIP COMPENSACAO               930                           
1040001300015T 0600249600300000286080D00000000000000000001               30042010000000000000000341007099                         090000001810070001104914588000000000097862009177001810070001300000000000000000002220000000000                 
1040001300016U 0600000000000000000000000000408300000000000000000000000000408300000000002041500000000001224900000000000000000000000000000027042010300420101900        000000000000000CIP COMPENSACAO               930                           
1040001300017T 0600249600300000286080D00000000000000000001               30042010000000000000000237037907                         090000002190121241104924588000000000097862009177002190121241300000000000000000002220000000000                 
1040001300018U 0600000000000000000000000000447100000000000000000000000000447100000000002235300000000001341100000000000000000000000000000027042010300420101900        000000000000000CIP COMPENSACAO               930                           
1040001300019T 0600249600300000286080D00000000000000000001               30042010000000000000000237018333                         090000002190121768104914588000000000097862009177002190121768300000000000000000002220000000000                 
1040001300020U 0600000000000000000000000000049100000000000000000000000000049100000000000245300000000000147100000000000000000000000000000027042010300420101900        000000000000000CIP COMPENSACAO               930                           
1040001300021T 0600249600300000286080D00000000000000000001               30042010000000000000000341003786                         090000002190215509104994588000000000097862009177002190215509300000000000000000002220000000000                 
1040001300022U 0600000000000000000000000000049000000000000000000000000000049000000000000244900000000000146900000000000000000000000000000027042010300420101900        000000000000000CIP COMPENSACAO               930                           
1040001300023T 0600249600300000286080D00000000000000000001               30042010000000000000000341000574                         090000002190712023104974588000000000097862009177002190712023300000000000000000002220000000000                 
1040001300024U 0600000000000000000000000000044900000000000000000000000000044900000000000224600000000000134800000000000000000000000000000027042010300420101900        000000000000000CIP COMPENSACAO               930                           
1040001300025T 0600249600300000286080D00000000000000000001               30042010000000000000000399015920                         090000002711360001104914588000000000097862009177002711360001300000000000000000002220000000000                 
1040001300026U 0600000000000000000000000000098000000000000000000000000000098000000000000490000000000000294000000000000000000000000000000027042010300420101900        000000000000000CIP COMPENSACAO               930                           
1040001300027T 0600249600300000286080D00000000000000000001               30042010000000000000000399015920                         090000003253580001104994588000000000097862009177003253580001300000000000000000002220000000000                 
1040001300028U 0600000000000000000000000000441900000000000000000000000000441900000000002209600000000001325800000000000000000000000000000027042010300420101900        000000000000000CIP COMPENSACAO               930                           
1040001300029T 0600249600300000286080D00000000000000000001               30042010000000000000000341084999                         090000003555010001104964588000000000097862009177003555010001300000000000000000002220000000000                 
1040001300030U 0600000000000000000000000000551600000000000000000000000000551600000000002757800000000001654600000000000000000000000000000027042010300420101900        000000000000000CIP COMPENSACAO               930                           
1040001300031T 0600249600300000286080D00000000000000000001               30052010000000000000000399003336                         090000003795910001104964618000000000097862009177003795910001300000000000000000002220000000000                 
1040001300032U 0600000000000000000000000000047000000000000000000000000000047000000000000235000000000000141000000000000000000000000000000027042010300420101900        000000000000000CIP COMPENSACAO               930                           
1040001300033T 0600249600300000286080D00000000000000000001               30042010000000000000000341007099                         090000003833160001104914588000000000097862009177003833160001300000000000000000002220000000000                 
1040001300034U 0600000000000000000000000000349500000000000000000000000000349500000000001747300000000001048300000000000000000000000000000027042010300420101900        000000000000000CIP COMPENSACAO               930                           
1040001300035T 0600249600300000286080D00000000000000000001               30042010000000000000000399015920                         090000004594090001104944588000000000097862009177004594090001300000000000000000002220000000000                 
1040001300036U 0600000000000000000000000000060000000000000000000000000000060000000000000299900000000000179900000000000000000000000000000027042010300420101900        000000000000000CIP COMPENSACAO               930                           
1040001300037T 0600249600300000286080D00000000000000000001               30042010000000000000000237037907                         090000005000871024104924588000000000097862009177005000871024300000000000000000002220000000000                 
1040001300038U 0600000000000000000000000000044900000000000000000000000000044900000000000224500000000000134700000000000000000000000000000027042010300420101900        000000000000000CIP COMPENSACAO               930                           
1040001300039T 0600249600300000286080D00000000000000000001               30042010000000000000000341067482                         090000005114060001104984588000000000097862009177005114060001300000000000000000002220000000000                 
1040001300040U 0600000000000000000000000001737300000000000000000000000001737300000000008686300000000005211700000000000000000000000000000027042010300420101900        000000000000000CIP COMPENSACAO               930                           
1040001300041T 0600249600300000286080D00000000000000000001               30042010000000000000000341001910                         090000005278180001104984588000000000097862009177005278180001300000000000000000002220000000000                 
1040001300042U 0600000000000000000000000000373900000000000000000000000000373900000000001869400000000001121600000000000000000000000000000027042010300420101900        000000000000000CIP COMPENSACAO               930                           
1040001300043T 0600249600300000286080D00000000000000000001               30042010000000000000000341000574                         090000005774960001104964588000000000097862009177005774960001300000000000000000002220000000000                 
1040001300044U 0600000000000000000000000000071300000000000000000000000000071300000000000356600000000000214000000000000000000000000000000027042010300420101900        000000000000000CIP COMPENSACAO               930                           
1040001300045T 0600249600300000286080D00000000000000000001               30042010000000000000000341005932                         090000006006340001104964588000000000097862009177006006340001300000000000000000002220000000000                 
1040001300046U 0600000000000000000000000000126300000000000000000000000000126300000000000631400000000000378800000000000000000000000000000027042010300420101900        000000000000000CIP COMPENSACAO               930                           
1040001300047T 0600249600300000286080D00000000000000000001               30042010000000000000000356000043                         090000006288450001104904588000000000097862009177006288450001300000000000000000002220000000000                 
1040001300048U 0600000000000000000000000000140800000000000000000000000000140800000000000704100000000000422500000000000000000000000000000027042010300420101900        000000000000000CIP COMPENSACAO               930                           
1040001300049T 0600249600300000286080D00000000000000000001               30042010000000000000000237003689                         090000007095410001104924588000000000097862009177007095410001300000000000000000002220000000000                 
1040001300050U 0600000000000000000000000000599000000000000000000000000000599000000000002995000000000001797000000000000000000000000000000027042010300420101900        000000000000000CIP COMPENSACAO               930                           
1040001300051T 0600249600300000286080D00000000000000000001               30042010000000000000000399015920                         090000007323260001104944588000000000097862009177007323260001300000000000000000002220000000000                 
1040001300052U 0600000000000000000000000000060000000000000000000000000000060000000000000300000000000000180000000000000000000000000000000027042010300420101900        000000000000000CIP COMPENSACAO               930                           
1040001300053T 0600249600300000286080D00000000000000000001               30042010000000000000000341000574                         090000007801090001104914588000000000097862009177007801090001300000000000000000002220000000000                 
1040001300054U 0600000000000000000000000000056500000000000000000000000000056500000000000282600000000000169600000000000000000000000000000027042010300420101900        000000000000000CIP COMPENSACAO               930                           
1040001300055T 0600249600300000286080D00000000000000000001               30042010000000000016446033021733                         090000007884690001104914588000001644697862008177007884690001110000000000000000002220000000000                 
1040001300056U 0600000000000000000000000000328900000000000000000000000000328900000000001644600000000000986800000000000000000000000000000027042010300420101900        000000000000000CIP COMPENSACAO               811                           
1040001300057T 0600249600300000286080D00000000000000000001               30042010000000000000000237029769                         090000009427160001104924588000000000097862009177009427160001300000000000000000002220000000000                 
1040001300058U 0600000000000000000000000000112100000000000000000000000000112100000000000560300000000000336100000000000000000000000000000027042010300420101900        000000000000000CIP COMPENSACAO               930                           
1040001300059T 0600249600300000286080D00000000000000000001               30042010000000000000000399015920                         090000010030990001104954588000000000097862009177010030990001300000000000000000002220000000000                 
1040001300060U 0600000000000000000000000000362000000000000000000000000000362000000000001809900000000001085900000000000000000000000000000027042010300420101900        000000000000000CIP COMPENSACAO               930                           
1040001300061T 0600249600300000286080D00000000000000000001               30042010000000000000000341000574                         090000011452800001104914588000000000097862009177011452800001300000000000000000002220000000000                 
1040001300062U 0600000000000000000000000000469200000000000000000000000000469200000000002346100000000001407700000000000000000000000000000027042010300420101900        000000000000000CIP COMPENSACAO               930                           
1040001300063T 0600249600300000286080D00000000000000000001               30042010000000000000000033004383                         090000011986380001104914588000000000097862009177011986380001300000000000000000002220000000000                 
1040001300064U 0600000000000000000000000000534000000000000000000000000000534000000000002669900000000001601900000000000000000000000000000027042010300420101900        000000000000000CIP COMPENSACAO               930                           
1040001300065T 0600249600300000286080D00000000000000000001               30042010000000000000000341000574                         090000013097650001104964588000000000097862009177013097650001300000000000000000002220000000000                 
1040001300066U 0600000000000000000000000000286000000000000000000000000000286000000000001430000000000000858000000000000000000000000000000027042010300420101900        000000000000000CIP COMPENSACAO               930                           
1040001300067T 0600249600300000286080D00000000000000000001               30042010000000000000000341001775                         090000013251120001104934588000000000097862009177013251120001300000000000000000002220000000000                 
1040001300068U 0600000000000000000000000000409400000000000000000000000000409400000000002047100000000001228300000000000000000000000000000027042010300420101900        000000000000000CIP COMPENSACAO               930                           
1040001300069T 0600249600300000286080D00000000000000000001               30042010000000000000000341003832                         090000013302370001104994588000000000097862009177013302370001300000000000000000002220000000000                 
1040001300070U 0600000000000000000000000000025500000000000000000000000000025500000000000127600000000000076600000000000000000000000000000027042010300420101900        000000000000000CIP COMPENSACAO               930                           
1040001300071T 0600249600300000286080D00000000000000000001               30042010000000000000000341007722                         090000013393690001104934588000000000097862009177013393690001300000000000000000002220000000000                 
1040001300072U 0600000000000000000000000000170600000000000000000000000000170600000000000853100000000000511900000000000000000000000000000027042010300420101900        000000000000000CIP COMPENSACAO               930                           
1040001300073T 0600249600300000286080D00000000000000000001               30042010000000000000000341005533                         090000014540600001104964588000000000097862009177014540600001300000000000000000002220000000000                 
1040001300074U 0600000000000000000000000000048800000000000000000000000000048800000000000244000000000000146400000000000000000000000000000027042010300420101900        000000000000000CIP COMPENSACAO               930                           
1040001300075T 0600249600300000286080D00000000000000000001               30042010000000000000000237037907                         090000015284560001104994588000000000097862009177015284560001300000000000000000002220000000000                 
1040001300076U 0600000000000000000000000000990800000000000000000000000000990800000000004954200000000002972600000000000000000000000000000027042010300420101900        000000000000000CIP COMPENSACAO               930                           
1040001300077T 0600249600300000286080D00000000000000000001               30042010000000000000000033001120                         090000015383550001104944588000000000097862009177015383550001300000000000000000002220000000000                 
1040001300078U 0600000000000000000000000000365300000000000000000000000000365300000000001826300000000001095700000000000000000000000000000027042010300420101900        000000000000000CIP COMPENSACAO               930                           
1040001300079T 0600249600300000286080D00000000000000000001               30042010000000000000000104029424                         090000016374920001104914588000000000097862009177016374920001300000000000000000002180000000000                 
1040001300080U 0600000000000000000000000000057100000000000000000000000000057100000000000285500000000000171300000000000000000000000000000027042010300420102100        000000000000000AUTOMACAO                     930                           
1040001300081T 0600249600300000286080D00000000000000000001               30042010000000000000000341007579                         090000016647320001104914588000000000097862009177016647320001300000000000000000002220000000000                 
1040001300082U 0600000000000000000000000000360200000000000000000000000000360200000000001801000000000001080600000000000000000000000000000027042010300420101900        000000000000000CIP COMPENSACAO               930                           
1040001300083T 0600249600300000286080D00000000000000000001               30042010000000000000000341006483                         090000017993950001104984588000000000097862009177017993950001300000000000000000002220000000000                 
1040001300084U 0600000000000000000000000000236700000000000000000000000000236700000000001183700000000000710300000000000000000000000000000027042010300420101900        000000000000000CIP COMPENSACAO               930                           
1040001300085T 0600249600300000286080D00000000000000000001               30042010000000000000000341084999                         090000018089200001104914588000000000097862009177018089200001300000000000000000002220000000000                 
1040001300086U 0600000000000000000000000000921300000000000000000000000000921300000000004606300000000002763700000000000000000000000000000027042010300420101900        000000000000000CIP COMPENSACAO               930                           
1040001300087T 0600249600300000286080D00000000000000000001               30042010000000000000000341001775                         090000019711100001104934588000000000097862009177019711100001300000000000000000002220000000000                 
1040001300088U 0600000000000000000000000000080900000000000000000000000000080900000000000404400000000000242600000000000000000000000000000027042010300420101900        000000000000000CIP COMPENSACAO               930                           
1040001300089T 0600249600300000286080D00000000000000000001               30042010000000000000000399015920                         090000019884750001104914588000000000097862009177019884750001300000000000000000002220000000000                 
1040001300090U 0600000000000000000000000000552600000000000000000000000000552600000000002763200000000001658000000000000000000000000000000027042010300420101900        000000000000000CIP COMPENSACAO               930                           
1040001300091T 0600249600300000286080D00000000000000000001               30042010000000000000000237037907                         090000021303930001104914588000000000097862009177021303930001300000000000000000002220000000000                 
1040001300092U 0600000000000000000000000000195200000000000000000000000000195200000000000975800000000000585400000000000000000000000000000027042010300420101900        000000000000000CIP COMPENSACAO               930                           
1040001300093T 0600249600300000286080D00000000000000000001               30042010000000000000000341029254                         090000023211040001104924588000000000097862009177023211040001300000000000000000002220000000000                 
1040001300094U 0600000000000000000000000000275600000000000000000000000000275600000000001377800000000000826600000000000000000000000000000027042010300420101900        000000000000000CIP COMPENSACAO               930                           
1040001300095T 0600249600300000286080D00000000000000000001               30042010000000000000000341001880                         090000024241950001104994588000000000097862009177024241950001300000000000000000002220000000000                 
1040001300096U 0600000000000000000000000000233300000000000000000000000000233300000000001166500000000000699900000000000000000000000000000027042010300420101900        000000000000000CIP COMPENSACAO               930                           
1040001300097T 0600249600300000286080D00000000000000000001               30042010000000000000000341084999                         090000024566370001104984588000000000097862009177024566370001300000000000000000002220000000000                 
1040001300098U 0600000000000000000000000000576800000000000000000000000000576800000000002883800000000001730200000000000000000000000000000027042010300420101900        000000000000000CIP COMPENSACAO               930                           
1040001300099T 0600249600300000286080D00000000000000000001               30042010000000000000000341001708                         090000024647080001104954588000000000097862009177024647080001300000000000000000002220000000000                 
1040001300100U 0600000000000000000000000000050100000000000000000000000000050100000000000250600000000000150400000000000000000000000000000027042010300420101900        000000000000000CIP COMPENSACAO               930                           
1040001300101T 0600249600300000286080D00000000000000000001               30042010000000000000000341001376                         090000025925610001104914588000000000097862009177025925610001300000000000000000002220000000000                 
1040001300102U 0600000000000000000000000000141000000000000000000000000000141000000000000705000000000000423000000000000000000000000000000027042010300420101900        000000000000000CIP COMPENSACAO               930                           
1040001300103T 0600249600300000286080D00000000000000000001               30042010000000000000000341003751                         090000025937310001104994588000000000097862009177025937310001300000000000000000002220000000000                 
1040001300104U 0600000000000000000000000000069400000000000000000000000000069400000000000347000000000000208200000000000000000000000000000027042010300420101900        000000000000000CIP COMPENSACAO               930                           
1040001300105T 0600249600300000286080D00000000000000000001               30042010000000000000000341001775                         090000026032080001104914588000000000097862009177026032080001300000000000000000002220000000000                 
1040001300106U 0600000000000000000000000000141800000000000000000000000000141800000000000708900000000000425300000000000000000000000000000027042010300420101900        000000000000000CIP COMPENSACAO               930                           
1040001300107T 0600249600300000286080D00000000000000000001               30042010000000000000000033002208                         090000026128370001104914588000000000097862009177026128370001300000000000000000002220000000000                 
1040001300108U 0600000000000000000000000000208800000000000000000000000000208800000000001044000000000000626400000000000000000000000000000027042010300420101900        000000000000000CIP COMPENSACAO               930                           
1040001300109T 0600249600300000286080D00000000000000000001               30042010000000000000000341007544                         090000026328490001104914588000000000097862009177026328490001300000000000000000002220000000000                 
1040001300110U 0600000000000000000000000000478900000000000000000000000000478900000000002394700000000001436900000000000000000000000000000027042010300420101900        000000000000000CIP COMPENSACAO               930                           
1040001300111T 0600249600300000286080D00000000000000000001               30042010000000000000000341006467                         090000029230940001104984588000000000097862009177029230940001300000000000000000002220000000000                 
1040001300112U 0600000000000000000000000000325400000000000000000000000000325400000000001626800000000000976000000000000000000000000000000027042010300420101900        000000000000000CIP COMPENSACAO               930                           
1040001300113T 0600249600300000286080D00000000000000000001               30042010000000000000000341084999                         090000029737850001104984588000000000097862009177029737850001300000000000000000002220000000000                 
1040001300114U 0600000000000000000000000000359300000000000000000000000000359300000000001796600000000001078000000000000000000000000000000027042010300420101900        000000000000000CIP COMPENSACAO               930                           
1040001300115T 0600249600300000286080D00000000000000000001               30042010000000000000000341007480                         090000030194400001104934588000000000097862009177030194400001300000000000000000002220000000000                 
1040001300116U 0600000000000000000000000000076700000000000000000000000000076700000000000383300000000000229900000000000000000000000000000027042010300420101900        000000000000000CIP COMPENSACAO               930                           
1040001300117T 0600249600300000286080D00000000000000000001               30042010000000000000000033001082                         090000030431690001104924588000000000097862009177030431690001300000000000000000002220000000000                 
1040001300118U 0600000000000000000000000000097400000000000000000000000000097400000000000487000000000000292200000000000000000000000000000027042010300420101900        000000000000000CIP COMPENSACAO               930                           
1040001300119T 0600249600300000286080D00000000000000000001               30042010000000000000000341001775                         090000033015370001104914588000000000097862009177033015370001300000000000000000002220000000000                 
1040001300120U 0600000000000000000000000000635500000000000000000000000000635500000000003177600000000001906600000000000000000000000000000027042010300420101900        000000000000000CIP COMPENSACAO               930                           
1040001300121T 0600249600300000286080D00000000000000000001               30042010000000000000000341007099                         090000033255950001104984588000000000097862009177033255950001300000000000000000002220000000000                 
1040001300122U 0600000000000000000000000000055200000000000000000000000000055200000000000276000000000000165600000000000000000000000000000027042010300420101900        000000000000000CIP COMPENSACAO               930                           
1040001300123T 0600249600300000286080D00000000000000000001               30042010000000000000000399015920                         090000033647660001104914588000000000097862009177033647660001300000000000000000002220000000000                 
1040001300124U 0600000000000000000000000000410700000000000000000000000000410700000000002053300000000001231900000000000000000000000000000027042010300420101900        000000000000000CIP COMPENSACAO               930                           
1040001300125T 0600249600300000286080D00000000000000000001               30042010000000000000000341001880                         090000034952940001104914588000000000097862009177034952940001300000000000000000002220000000000                 
1040001300126U 0600000000000000000000000000508900000000000000000000000000508900000000002544600000000001526800000000000000000000000000000027042010300420101900        000000000000000CIP COMPENSACAO               930                           
1040001300127T 0600249600300000286080D00000000000000000001               30042010000000000000000104029424                         090000035238220001104984588000000000097862009177035238220001300000000000000000002180000000000                 
1040001300128U 0600000000000000000000000000586200000000000000000000000000586200000000002930800000000001758400000000000000000000000000000027042010300420102100        000000000000000AUTOMACAO                     930                           
1040001300129T 0600249600300000286080D00000000000000000001               30042010000000000000000341084999                         090000035341570001104934588000000000097862009177035341570001300000000000000000002220000000000                 
1040001300130U 0600000000000000000000000000663300000000000000000000000000663300000000003316600000000001990000000000000000000000000000000027042010300420101900        000000000000000CIP COMPENSACAO               930                           
1040001300131T 0600249600300000286080D00000000000000000001               30042010000000000000000104016551                         090000038832300001104914588000000000097862009177038832300001300000000000000000002180000000000                 
1040001300132U 0600000000000000000000000000513600000000000000000000000000513600000000002567900000000001540700000000000000000000000000000027042010300420102100        000000000000000AUTOMACAO                     930                           
1040001300133T 0600249600300000286080D00000000000000000001               30042010000000000000000341001880                         090000040199420001104944588000000000097862009177040199420001300000000000000000002220000000000                 
1040001300134U 0600000000000000000000000000385300000000000000000000000000385300000000001926500000000001155900000000000000000000000000000027042010300420101900        000000000000000CIP COMPENSACAO               930                           
1040001300135T 0600249600300000286080D00000000000000000001               30042010000000000000000237037907                         090000040483200001104984588000000000097862009177040483200001300000000000000000002220000000000                 
1040001300136U 0600000000000000000000000000198100000000000000000000000000198100000000000990700000000000594500000000000000000000000000000027042010300420101900        000000000000000CIP COMPENSACAO               930                           
1040001300137T 0600249600300000286080D00000000000000000001               30042010000000000009886033004383                         090000040905760001104954588000000988697862006177040905760001810000000000000000002220000000000                 
1040001300138U 0600000000000000000000000000197700000000000000000000000000197700000000000988600000000000593200000000000000000000000000000027042010300420101900        000000000000000CIP COMPENSACAO               681                           
1040001300139T 0600249600300000286080D00000000000000000001               30042010000000000000000399015920                         090000041246170001104934588000000000097862009177041246170001300000000000000000002220000000000                 
1040001300140U 0600000000000000000000000000056700000000000000000000000000056700000000000283300000000000169900000000000000000000000000000027042010300420101900        000000000000000CIP COMPENSACAO               930                           
1040001300141T 0600249600300000286080D00000000000000000001               30042010000000000000000341084999                         090000041485670001104964588000000000097862009177041485670001300000000000000000002220000000000                 
1040001300142U 0600000000000000000000000000123200000000000000000000000000123200000000000616200000000000369800000000000000000000000000000027042010300420101900        000000000000000CIP COMPENSACAO               930                           
1040001300143T 0600249600300000286080D00000000000000000001               30042010000000000000000399015920                         090000041617680001104974588000000000097862009177041617680001300000000000000000002220000000000                 
1040001300144U 0600000000000000000000000000185400000000000000000000000000185400000000000927000000000000556200000000000000000000000000000027042010300420101900        000000000000000CIP COMPENSACAO               930                           
1040001300145T 0600249600300000286080D00000000000000000001               30042010000000000000000104016551                         090000042750880001104944588000000000097862009177042750880001300000000000000000002180000000000                 
1040001300146U 0600000000000000000000000000252900000000000000000000000000252900000000001264300000000000758500000000000000000000000000000027042010300420102100        000000000000000AUTOMACAO                     930                           
1040001300147T 0600249600300000286080D00000000000000000001               30042010000000000000000399015920                         090000042793550001104944588000000000097862009177042793550001300000000000000000002220000000000                 
1040001300148U 0600000000000000000000000000289300000000000000000000000000289300000000001446400000000000867800000000000000000000000000000027042010300420101900        000000000000000CIP COMPENSACAO               930                           
1040001300149T 0600249600300000286080D00000000000000000001               30042010000000000000000341000574                         090000043242550001104934588000000000097862009177043242550001300000000000000000002220000000000                 
1040001300150U 0600000000000000000000000000628900000000000000000000000000628900000000003144700000000001886900000000000000000000000000000027042010300420101900        000000000000000CIP COMPENSACAO               930                           
1040001300151T 0600249600300000286080D00000000000000000001               30042010000000000000000237014958                         090000043962210001104964588000000000097862009177043962210001300000000000000000002220000000000                 
1040001300152U 0600000000000000000000000000046900000000000000000000000000046900000000000234700000000000140900000000000000000000000000000027042010300420101900        000000000000000CIP COMPENSACAO               930                           
1040001300153T 0600249600300000286080D00000000000000000001               30042010000000000000000237028614                         090000044099210001104934588000000000097862009177044099210001300000000000000000002220000000000                 
1040001300154U 0600000000000000000000000005337200000000000000000000000005337200000000026686100000000016011700000000000000000000000000000027042010300420101900        000000000000000CIP COMPENSACAO               930                           
1040001300155T 0600249600300000286080D00000000000000000001               30042010000000000000000237019925                         090000045424960001104994588000000000097862009177045424960001300000000000000000002220000000000                 
1040001300156U 0600000000000000000000000000478700000000000000000000000000478700000000002393400000000001436000000000000000000000000000000027042010300420101900        000000000000000CIP COMPENSACAO               930                           
1040001300157T 0600249600300000286080D00000000000000000001               30042010000000000000000104029424                         090000045456600001104954588000000000097862009177045456600001300000000000000000002180000000000                 
1040001300158U 0600000000000000000000000000183800000000000000000000000000183800000000000919100000000000551500000000000000000000000000000027042010300420102100        000000000000000AUTOMACAO                     930                           
1040001300159T 0600249600300000286080D00000000000000000001               30042010000000000000000237001988                         090000047429830001104914588000000000097862009177047429830001300000000000000000002220000000000                 
1040001300160U 0600000000000000000000000000071700000000000000000000000000071700000000000358400000000000215000000000000000000000000000000027042010300420101900        000000000000000CIP COMPENSACAO               930                           
1040001300161T 0600249600300000286080D00000000000000000001               30042010000000000000000237005010                         090000047496350001104934588000000000097862009177047496350001300000000000000000002220000000000                 
1040001300162U 0600000000000000000000000000044900000000000000000000000000044900000000000224500000000000134700000000000000000000000000000027042010300420101900        000000000000000CIP COMPENSACAO               930                           
1040001300163T 0600249600300000286080D00000000000000000001               30042010000000000002650237014435                         090000048256150001104934588000000265097862008177048256150001110000000000000000002220000000000                 
1040001300164U 0600000000000000000000000000053000000000000000000000000000053000000000000265000000000000159000000000000000000000000000000027042010300420101900        000000000000000CIP COMPENSACAO               811                           
1040001300165T 0600249600300000286080D00000000000000000001               30042010000000000000000399015920                         090000048940300001104914588000000000097862009177048940300001300000000000000000002220000000000                 
1040001300166U 0600000000000000000000000000346600000000000000000000000000346600000000001733100000000001039900000000000000000000000000000027042010300420101900        000000000000000CIP COMPENSACAO               930                           
1040001300167T 0600249600300000286080D00000000000000000001               07101997000000000004282356001368                         090000049267980001104900000000000428297862009177049267980001300000000000000000002220000000000                 
1040001300168U 0600000000000000000000000000085600000000000000000000000000085600000000000428200000000000257000000000000000000000000000000027042010300420101900        000000000000000CIP COMPENSACAO               930                           
1040001300169T 0600249600300000286080D00000000000000000001               30042010000000000000000104029424                         090000049839130001104914588000000000097862009177049839130001300000000000000000002180000000000                 
1040001300170U 0600000000000000000000000000284400000000000000000000000000284400000000001422100000000000853300000000000000000000000000000027042010300420102100        000000000000000AUTOMACAO                     930                           
1040001300171T 0600249600300000286080D00000000000000000001               30042010000000000000000237008150                         090000049844370001104924588000000000097862009177049844370001300000000000000000002220000000000                 
1040001300172U 0600000000000000000000000000227300000000000000000000000000227300000000001136600000000000682000000000000000000000000000000027042010300420101900        000000000000000CIP COMPENSACAO               930                           
1040001300173T 0600249600300000286080D00000000000000000001               30042010000000000000000399015920                         090000050035080001104954588000000000097862009177050035080001300000000000000000002220000000000                 
1040001300174U 0600000000000000000000000000160000000000000000000000000000160000000000000799900000000000479900000000000000000000000000000027042010300420101900        000000000000000CIP COMPENSACAO               930                           
1040001300175T 0600249600300000286080D00000000000000000001               30042010000000000000000341007099                         090000052543220001104964588000000000097862009177052543220001300000000000000000002220000000000                 
1040001300176U 0600000000000000000000000000544900000000000000000000000000544900000000002724300000000001634500000000000000000000000000000027042010300420101900        000000000000000CIP COMPENSACAO               930                           
1040001300177T 0600249600300000286080D00000000000000000001               30042010000000000000000341003751                         090000052593340001104914588000000000097862009177052593340001300000000000000000002220000000000                 
1040001300178U 0600000000000000000000000000285500000000000000000000000000285500000000001427600000000000856600000000000000000000000000000027042010300420101900        000000000000000CIP COMPENSACAO               930                           
1040001300179T 0600249600300000286080D00000000000000000001               30042010000000000000000237029769                         090000052644080001104934588000000000097862009177052644080001300000000000000000002220000000000                 
1040001300180U 0600000000000000000000000000344600000000000000000000000000344600000000001723000000000001033800000000000000000000000000000027042010300420101900        000000000000000CIP COMPENSACAO               930                           
1040001300181T 0600249600300000286080D00000000000000000001               30042010000000000000000399015920                         090000054137900001104944588000000000097862009177054137900001300000000000000000002220000000000                 
1040001300182U 0600000000000000000000000000284600000000000000000000000000284600000000001423100000000000853900000000000000000000000000000027042010300420101900        000000000000000CIP COMPENSACAO               930                           
1040001300183T 0600249600300000286080D00000000000000000001               30042010000000000000000341003751                         090000054871140001104954588000000000097862009177054871140001300000000000000000002220000000000                 
1040001300184U 0600000000000000000000000000348200000000000000000000000000348200000000001741100000000001044700000000000000000000000000000027042010300420101900        000000000000000CIP COMPENSACAO               930                           
1040001300185T 0600249600300000286080D00000000000000000001               30042010000000000000000341007587                         090000056631210001104984588000000000097862009177056631210001300000000000000000002220000000000                 
1040001300186U 0600000000000000000000000000141300000000000000000000000000141300000000000706700000000000424100000000000000000000000000000027042010300420101900        000000000000000CIP COMPENSACAO               930                           
1040001300187T 0600249600300000286080D00000000000000000001               30042010000000000000000341001775                         090000058152420001104964588000000000097862009177058152420001300000000000000000002220000000000                 
1040001300188U 0600000000000000000000000000116200000000000000000000000000116200000000000580800000000000348400000000000000000000000000000027042010300420101900        000000000000000CIP COMPENSACAO               930                           
1040001300189T 0600249600300000286080D00000000000000000001               30042010000000000000000341002119                         090000059162710001104914588000000000097862009177059162710001300000000000000000002220000000000                 
1040001300190U 0600000000000000000000000000047000000000000000000000000000047000000000000235000000000000141000000000000000000000000000000027042010300420101900        000000000000000CIP COMPENSACAO               930                           
1040001300191T 0600249600300000286080D00000000000000000001               30042010000000000000000341000744                         090000060448290001104934588000000000097862009177060448290001300000000000000000002220000000000                 
1040001300192U 0600000000000000000000000000093900000000000000000000000000093900000000000469400000000000281600000000000000000000000000000027042010300420101900        000000000000000CIP COMPENSACAO               930                           
1040001300193T 0600249600300000286080D00000000000000000001               30042010000000000005570409001201                         090000070288370001104954588000000557097862009177070288370001300000000000000000002220000000000                 
1040001300194U 0600000000000000000000000000111400000000000000000000000000111400000000000557000000000000334200000000000000000000000000000027042010300420101900        000000000000000CIP COMPENSACAO               930                           
1040001300195T 0600249600300000286080D00000000000000000001               30042010000000000000000341007099                         090000070426840001104944588000000000097862009177070426840001300000000000000000002220000000000                 
1040001300196U 0600000000000000000000000000089300000000000000000000000000089300000000000446700000000000268100000000000000000000000000000027042010300420101900        000000000000000CIP COMPENSACAO               930                           
1040001300197T 0600249600300000286080D00000000000000000001               30042010000000000000000104016551                         090000070926160001104994588000000000097862009177070926160001300000000000000000002180000000000                 
1040001300198U 0600000000000000000000000000353000000000000000000000000000353000000000001765000000000001059000000000000000000000000000000027042010300420102100        000000000000000AUTOMACAO                     930                           
1040001300199T 0600249600300000286080D00000000000000000001               07101997000000000000000341000655                         090000072559810001104900000000000000097862008177072559810001110000000000000000002220000000000                 
1040001300200U 0600000000000000000000000000602000000000000000000000000000602000000000003009900000000001805900000000000000000000000000000027042010300420101900        000000000000000CIP COMPENSACAO               811                           
1040001300201T 0600249600300000286080D00000000000000000001               30042010000000000000000341003751                         090000073016830001104954588000000000097862009177073016830001300000000000000000002220000000000                 
1040001300202U 0600000000000000000000000000133000000000000000000000000000133000000000000664900000000000398900000000000000000000000000000027042010300420101900        000000000000000CIP COMPENSACAO               930                           
1040001300203T 0600249600300000286080D00000000000000000001               30042010000000000000000341003751                         090000073271540001104984588000000000097862009177073271540001300000000000000000002220000000000                 
1040001300204U 0600000000000000000000000000495400000000000000000000000000495400000000002477000000000001486200000000000000000000000000000027042010300420101900        000000000000000CIP COMPENSACAO               930                           
1040001300205T 0600249600300000286080D00000000000000000001               30042010000000000000000151008648                         090000075795020001104934588000000000097862009177075795020001300000000000000000002220000000000                 
1040001300206U 0600000000000000000000000000093900000000000000000000000000093900000000000469500000000000281700000000000000000000000000000027042010300420101900        000000000000000CIP COMPENSACAO               930                           
1040001300207T 0600249600300000286080D00000000000000000001               30042010000000000000000399015920                         090000075886440001104934588000000000097862009177075886440001300000000000000000002220000000000                 
1040001300208U 0600000000000000000000000000090700000000000000000000000000090700000000000453300000000000271900000000000000000000000000000027042010300420101900        000000000000000CIP COMPENSACAO               930                           
1040001300209T 0600249600300000286080D00000000000000000001               30042010000000000000000341043001                         090000076572010001104944588000000000097862009177076572010001300000000000000000002220000000000                 
1040001300210U 0600000000000000000000000000305200000000000000000000000000305200000000001525800000000000915400000000000000000000000000000027042010300420101900        000000000000000CIP COMPENSACAO               930                           
1040001300211T 0600249600300000286080D00000000000000000001               30042010000000000000000341003751                         090000077284190001104984588000000000097862009177077284190001300000000000000000002220000000000                 
1040001300212U 0600000000000000000000000000195800000000000000000000000000195800000000000979000000000000587400000000000000000000000000000027042010300420101900        000000000000000CIP COMPENSACAO               930                           
1040001300213T 0600249600300000286080D00000000000000000001               30042010000000000000000399015920                         090000078520680001104924588000000000097862009177078520680001300000000000000000002220000000000                 
1040001300214U 0600000000000000000000000000106000000000000000000000000000106000000000000529900000000000317900000000000000000000000000000027042010300420101900        000000000000000CIP COMPENSACAO               930                           
1040001300215T 0600249600300000286080D00000000000000000001               30042010000000000000000341007587                         090000078956680001104994588000000000097862009177078956680001300000000000000000002220000000000                 
1040001300216U 0600000000000000000000000000099700000000000000000000000000099700000000000498700000000000299300000000000000000000000000000027042010300420101900        000000000000000CIP COMPENSACAO               930                           
1040001300217T 0600249600300000286080D00000000000000000001               30042010000000000000000341003492                         090000079141280001104984588000000000097862009177079141280001300000000000000000002220000000000                 
1040001300218U 0600000000000000000000000000671100000000000000000000000000671100000000003355700000000002013500000000000000000000000000000027042010300420101900        000000000000000CIP COMPENSACAO               930                           
1040001300219T 0600249600300000286080D00000000000000000001               30042010000000000000000341001775                         090000079187840001104964588000000000097862009177079187840001300000000000000000002220000000000                 
1040001300220U 0600000000000000000000000000136100000000000000000000000000136100000000000680500000000000408300000000000000000000000000000027042010300420101900        000000000000000CIP COMPENSACAO               930                           
1040001300221T 0600249600300000286080D00000000000000000001               30042010000000000000000237038326                         090000079188520001104934588000000000097862009177079188520001300000000000000000002220000000000                 
1040001300222U 0600000000000000000000000000515000000000000000000000000000515000000000002574800000000001544800000000000000000000000000000027042010300420101900        000000000000000CIP COMPENSACAO               930                           
1040001300223T 0600249600300000286080D00000000000000000001               30042010000000000000000341030996                         090000082621890001104954588000000000097862009177082621890001300000000000000000002220000000000                 
1040001300224U 0600000000000000000000000000053900000000000000000000000000053900000000000269700000000000161900000000000000000000000000000027042010300420101900        000000000000000CIP COMPENSACAO               930                           
1040001300225T 0600249600300000286080D00000000000000000001               30042010000000000000000341029777                         090000086470080001104954588000000000097862009177086470080001300000000000000000002220000000000                 
1040001300226U 0600000000000000000000000000293200000000000000000000000000293200000000001466000000000000879600000000000000000000000000000027042010300420101900        000000000000000CIP COMPENSACAO               930                           
1040001300227T 0600249600300000286080D00000000000000000001               30042010000000000000000237028576                         090000088374050001104944588000000000097862009177088374050001300000000000000000002220000000000                 
1040001300228U 0600000000000000000000000000232700000000000000000000000000232700000000001163300000000000697900000000000000000000000000000027042010300420101900        000000000000000CIP COMPENSACAO               930                           
1040001300229T 0600249600300000286080D00000000000000000001               30042010000000000000000341003751                         090000092617860001104934588000000000097862009177092617860001300000000000000000002220000000000                 
1040001300230U 0600000000000000000000000000084800000000000000000000000000084800000000000424000000000000254400000000000000000000000000000027042010300420101900        000000000000000CIP COMPENSACAO               930                           
1040001300231T 0600249600300000286080D00000000000000000001               30042010000000000000000341007587                         090000093312820001104984588000000000097862009177093312820001300000000000000000002220000000000                 
1040001300232U 0600000000000000000000000000189300000000000000000000000000189300000000000946600000000000568000000000000000000000000000000027042010300420101900        000000000000000CIP COMPENSACAO               930                           
1040001300233T 0600249600300000286080D00000000000000000001               30042010000000000002449001003840                         090000095499440001104964588000000244997862004177095499440001120000000000000000002220000000000                 
1040001300234U 0600000000000000000000000000049000000000000000000000000000049000000000000244900000000000146900000000000000000000000000000027042010300420101900        000000000000000CIP COMPENSACAO               412                           
1040001300235T 0600249600300000286080D00000000000000000001               30042010000000000000000341003832                         090000096042350001104964588000000000097862009177096042350001300000000000000000002220000000000                 
1040001300236U 0600000000000000000000000000044900000000000000000000000000044900000000000224500000000000134700000000000000000000000000000027042010300420101900        000000000000000CIP COMPENSACAO               930                           
1040001300237T 0600249600300000286080D00000000000000000001               30042010000000000002695341007579                         090000096149480001104964588000000269597862009177096149480001490000000000000000002220000000000                 
1040001300238U 0600000000000000000000000000053900000000000000000000000000053900000000000269500000000000161700000000000000000000000000000027042010300420101900        000000000000000CIP COMPENSACAO               949                           
1040001300239T 0600249600300000286080D00000000000000000001               30042010000000000000000341084999                         090000096296730001104914588000000000097862009177096296730001300000000000000000002220000000000                 
1040001300240U 0600000000000000000000000000094800000000000000000000000000094800000000000473800000000000284200000000000000000000000000000027042010300420101900        000000000000000CIP COMPENSACAO               930                           
1040001300241T 0600249600300000286080D00000000000000000001               30042010000000000000000341000574                         090000112944480001104954588000000000097862009177112944480001300000000000000000002220000000000                 
1040001300242U 0600000000000000000000000000044900000000000000000000000000044900000000000224600000000000134800000000000000000000000000000027042010300420101900        000000000000000CIP COMPENSACAO               930                           
1040001300243T 0600249600300000286080D00000000000000000001               30042010000000000004757237001074                         090000219051350107104914588000000475797862008177219051350107110000000000000000002220000000000                 
1040001300244U 0600000000000000000000000000095100000000000000000000000000095100000000000475700000000000285500000000000000000000000000000027042010300420101900        000000000000000CIP COMPENSACAO               811                           
1040001300245T 0600249600300000286080D00000000000000000001               30042010000000000000000237002771                         090000388774520001104914588000000000097862009177388774520001300000000000000000002220000000000                 
1040001300246U 0600000000000000000000000000237000000000000000000000000000237000000000001185200000000000711200000000000000000000000000000027042010300420101900        000000000000000CIP COMPENSACAO               930                           
1040001300247T 0600249600300000286080D00000000000000000001               30042010000000000000000341007579                         090000388791850001104954588000000000097862009177388791850001300000000000000000002220000000000                 
1040001300248U 0600000000000000000000000000044900000000000000000000000000044900000000000224500000000000134700000000000000000000000000000027042010300420101900        000000000000000CIP COMPENSACAO               930                           
1040001300249T 0600249600300000286080D00000000000000000001               30042010000000000000000341001775                         090000388843000001104934588000000000097862009177388843000001300000000000000000002220000000000                 
1040001300250U 0600000000000000000000000000228300000000000000000000000000228300000000001141600000000000685000000000000000000000000000000027042010300420101900        000000000000000CIP COMPENSACAO               930                           
1040001300251T 0600249600300000286080D00000000000000000001               30042010000000000000000341001775                         090000388873450001104964588000000000097862009177388873450001300000000000000000002220000000000                 
1040001300252U 0600000000000000000000000000948100000000000000000000000000948100000000004740600000000002844400000000000000000000000000000027042010300420101900        000000000000000CIP COMPENSACAO               930                           
1040001300253T 0600249600300000286080D00000000000000000001               30042010000000000002350237011916                         090000499345080001104914588000000235097862006177499345080001820000000000000000002220000000000                 
1040001300254U 0600000000000000000000000000047000000000000000000000000000047000000000000235000000000000141000000000000000000000000000000027042010300420101900        000000000000000CIP COMPENSACAO               682                           
1040001300255T 0600249600300000286080D00000000000000000001               30042010000000000000000237037907                         090000532544050002104944588000000000097862009177532544050002300000000000000000002220000000000                 
1040001300256U 0600000000000000000000000000081600000000000000000000000000081600000000000408000000000000244800000000000000000000000000000027042010300420101900        000000000000000CIP COMPENSACAO               930                           
1040001300257T 0600249600300000286080D00000000000000000001               30042010000000000000000237037907                         090000532544050002104944588000000000097862009177532544050002300000000000000000002220000000000                 
1040001300258U 0600000000000000000000000000570200000000000000000000000000570200000000002851200000000001710800000000000000000000000000000027042010300420101900        000000000000000CIP COMPENSACAO               930                           
1040001300259T 0600249600300000286080D00000000000000000001               30042010000000000000000341005932                         090000538173830001104984588000000000097862009177538173830001300000000000000000002220000000000                 
1040001300260U 0600000000000000000000000000136700000000000000000000000000136700000000000683700000000000410300000000000000000000000000000027042010300420101900        000000000000000CIP COMPENSACAO               930                           
1040001300261T 0600249600300000286080D00000000000000000001               30042010000000000000000341007366                         090000538181750001104924588000000000097862009177538181750001300000000000000000002220000000000                 
1040001300262U 0600000000000000000000000003266900000000000000000000000003266900000000016334700000000009800900000000000000000000000000000027042010300420101900        000000000000000CIP COMPENSACAO               930                           
1040001300263T 0600249600300000286080D00000000000000000001               30042010000000000000000341001775                         090000538204370001104934588000000000097862009177538204370001300000000000000000002220000000000                 
1040001300264U 0600000000000000000000000000735900000000000000000000000000735900000000003679600000000002207800000000000000000000000000000027042010300420101900        000000000000000CIP COMPENSACAO               930                           
1040001300265T 0600249600300000286080D00000000000000000001               30042010000000000000000341001708                         090000538224740001104974588000000000097862009177538224740001300000000000000000002220000000000                 
1040001300266U 0600000000000000000000000000045000000000000000000000000000045000000000000225000000000000135000000000000000000000000000000027042010300420101900        000000000000000CIP COMPENSACAO               930                           
1040001300267T 0600249600300000286080D00000000000000000001               07101997000000000000000341007587                         090000538228880001104900000000000000097862009177538228880001300000000000000000002220000000000                 
1040001300268U 0600000000000000000000000001999700000000000000000000000001999700000000009998400000000005999000000000000000000000000000000027042010300420101900        000000000000000CIP COMPENSACAO               930                           
1040001300269T 0600249600300000286080D00000000000000000001               30042010000000000000000341001775                         090000538229790001104914588000000000097862009177538229790001300000000000000000002220000000000                 
1040001300270U 0600000000000000000000000000388300000000000000000000000000388300000000001941300000000001164700000000000000000000000000000027042010300420101900        000000000000000CIP COMPENSACAO               930                           
1040001300271T 0600249600300000286080D00000000000000000001               30042010000000000000000341003751                         090000538230840001104934588000000000097862009177538230840001300000000000000000002220000000000                 
1040001300272U 0600000000000000000000000001419100000000000000000000000001419100000000007095300000000004257100000000000000000000000000000027042010300420101900        000000000000000CIP COMPENSACAO               930                           
1040001300273T 0600249600300000286080D00000000000000000001               30042010000000000000000341016187                         090000538249000001104994588000000000097862009177538249000001300000000000000000002220000000000                 
1040001300274U 0600000000000000000000000000289300000000000000000000000000289300000000001446300000000000867700000000000000000000000000000027042010300420101900        000000000000000CIP COMPENSACAO               930                           
1040001300275T 0600249600300000286080D00000000000000000001               30042010000000000000000001048666                         090000538260610001104934588000000000097862009177538260610001300000000000000000002220000000000                 
1040001300276U 0600000000000000000000000001493300000000000000000000000001493300000000007466400000000004479800000000000000000000000000000027042010300420101900        000000000000000CIP COMPENSACAO               930                           
1040001300277T 0600249600300000286080D00000000000000000001               30042010000000000000000237037907                         090000538261780001104924588000000000097862009177538261780001300000000000000000002220000000000                 
1040001300278U 0600000000000000000000000000076600000000000000000000000000076600000000000382800000000000229600000000000000000000000000000027042010300420101900        000000000000000CIP COMPENSACAO               930                           
1040001300279T 0600249600300000286080D00000000000000000001               30042010000000000000000104029424                         090000538279860001104914588000000000097862009177538279860001300000000000000000002180000000000                 
1040001300280U 0600000000000000000000000000091800000000000000000000000000091800000000000459200000000000275600000000000000000000000000000027042010300420102100        000000000000000AUTOMACAO                     930                           
1040001300281T 0600249600300000286080D00000000000000000001               30042010000000000000000104029424                         090000538280910001104934588000000000097862009177538280910001300000000000000000002180000000000                 
1040001300282U 0600000000000000000000000000098500000000000000000000000000098500000000000492700000000000295700000000000000000000000000000027042010300420102100        000000000000000AUTOMACAO                     930                           
1040001300283T 0600249600300000286080D00000000000000000001               30042010000000000000000341001775                         090000538295520001104974588000000000097862009177538295520001300000000000000000002220000000000                 
1040001300284U 0600000000000000000000000001808400000000000000000000000001808400000000009042100000000005425300000000000000000000000000000027042010300420101900        000000000000000CIP COMPENSACAO               930                           
1040001300285T 0600249600300000286080D00000000000000000001               30042010000000000000000237037907                         090000538296280001104964588000000000097862009177538296280001300000000000000000002220000000000                 
1040001300286U 0600000000000000000000000000568900000000000000000000000000568900000000002844400000000001706600000000000000000000000000000027042010300420101900        000000000000000CIP COMPENSACAO               930                           
1040001300287T 0600249600300000286080D00000000000000000001               30042010000000000014600341010006                         090000538325490001104914588000001460097862008177538325490001110000000000000000002220000000000                 
1040001300288U 0600000000000000000000000000292000000000000000000000000000292000000000001460000000000000876000000000000000000000000000000027042010300420101900        000000000000000CIP COMPENSACAO               811                           
1040001300289T 0600249600300000286080D00000000000000000001               30042010000000000000000237020621                         090000538340650001104964588000000000097862009177538340650001300000000000000000002220000000000                 
1040001300290U 0600000000000000000000000000062000000000000000000000000000062000000000000310100000000000186100000000000000000000000000000027042010300420101900        000000000000000CIP COMPENSACAO               930                           
1040001300291T 0600249600300000286080D00000000000000000001               30042010000000000000000341084999                         090000539853470001104974588000000000097862009177539853470001300000000000000000002220000000000                 
1040001300292U 0600000000000000000000000000527900000000000000000000000000527900000000002639400000000001583600000000000000000000000000000027042010300420101900        000000000000000CIP COMPENSACAO               930                           
1040001300293T 0600249600300000286080D00000000000000000001               30042010000000000076210356016020                         090000539853880001104904588000007621097862008177539853880001110000000000000000002220000000000                 
1040001300294U 0600000000000000000000000001524200000000000000000000000001524200000000007621000000000004572600000000000000000000000000000027042010300420101900        000000000000000CIP COMPENSACAO               811                           
1040001300295T 0600249600300000286080D00000000000000000001               30042010000000000000000033002208                         090000539861700001104944588000000000097862009177539861700001300000000000000000002220000000000                 
1040001300296U 0600000000000000000000000000406100000000000000000000000000406100000000002030500000000001218300000000000000000000000000000027042010300420101900        000000000000000CIP COMPENSACAO               930                           
1040001300297T 0600249600300000286080D00000000000000000001               30042010000000000000000341003751                         090000539878710001104914588000000000097862009177539878710001300000000000000000002220000000000                 
1040001300298U 0600000000000000000000000000220300000000000000000000000000220300000000001101400000000000660800000000000000000000000000000027042010300420101900        000000000000000CIP COMPENSACAO               930                           
1040001300299T 0600249600300000286080D00000000000000000001               30042010000000000000000237037907                         090000539900240001104914588000000000097862009177539900240001300000000000000000002220000000000                 
1040001300300U 0600000000000000000000000000715200000000000000000000000000715200000000003576200000000002145800000000000000000000000000000027042010300420101900        000000000000000CIP COMPENSACAO               930                           
1040001300301T 0600249600300000286080D00000000000000000001               30042010000000000000000341003492                         090000539912530001104974588000000000097862009177539912530001300000000000000000002220000000000                 
1040001300302U 0600000000000000000000000001601200000000000000000000000001601200000000008006200000000004803800000000000000000000000000000027042010300420101900        000000000000000CIP COMPENSACAO               930                           
1040001300303T 0600249600300000286080D00000000000000000001               30042010000000000000000237037907                         090000539913600001104994588000000000097862009177539913600001300000000000000000002220000000000                 
1040001300304U 0600000000000000000000000000189500000000000000000000000000189500000000000947600000000000568600000000000000000000000000000027042010300420101900        000000000000000CIP COMPENSACAO               930                           
1040001300305T 0600249600300000286080D00000000000000000001               30042010000000000000000341007587                         090000539921860001104914588000000000097862009177539921860001300000000000000000002220000000000                 
1040001300306U 0600000000000000000000000000336500000000000000000000000000336500000000001682700000000001009700000000000000000000000000000027042010300420101900        000000000000000CIP COMPENSACAO               930                           
1040001300307T 0600249600300000286080D00000000000000000001               30042010000000000000000341084999                         090000539922100001104994588000000000097862009177539922100001300000000000000000002220000000000                 
1040001300308U 0600000000000000000000000000399700000000000000000000000000399700000000001998500000000001199100000000000000000000000000000027042010300420101900        000000000000000CIP COMPENSACAO               930                           
1040001300309T 0600249600300000286080D00000000000000000001               30042010000000000000000033004383                         090000540021420001104914588000000000097862009177540021420001300000000000000000002220000000000                 
1040001300310U 0600000000000000000000000001076800000000000000000000000001076800000000005384100000000003230500000000000000000000000000000027042010300420101900        000000000000000CIP COMPENSACAO               930                           
1040001300311T 0600249600300000286080D00000000000000000001               30042010000000000000000341080985                         090000540034700001104914588000000000097862009177540034700001300000000000000000002220000000000                 
1040001300312U 0600000000000000000000000000317500000000000000000000000000317500000000001587700000000000952700000000000000000000000000000027042010300420101900        000000000000000CIP COMPENSACAO               930                           
1040001300313T 0600249600300000286080D00000000000000000001               30042010000000000000000399015920                         090000540072080001104934588000000000097862009177540072080001300000000000000000002220000000000                 
1040001300314U 0600000000000000000000000000324600000000000000000000000000324600000000001623200000000000974000000000000000000000000000000027042010300420101900        000000000000000CIP COMPENSACAO               930                           
1040001300315T 0600249600300000286080D00000000000000000001               30042010000000000000000341006688                         090000540223060001104924588000000000097862009177540223060001300000000000000000002220000000000                 
1040001300316U 0600000000000000000000000000450200000000000000000000000000450200000000002251100000000001350700000000000000000000000000000027042010300420101900        000000000000000CIP COMPENSACAO               930                           
1040001300317T 0600249600300000286080D00000000000000000001               30042010000000000000000341006483                         090000540225380001104914588000000000097862009177540225380001300000000000000000002220000000000                 
1040001300318U 0600000000000000000000000000336900000000000000000000000000336900000000001684700000000001010900000000000000000000000000000027042010300420101900        000000000000000CIP COMPENSACAO               930                           
1040001300319T 0600249600300000286080D00000000000000000001               30042010000000000000000237037907                         090000540278910001104924588000000000097862009177540278910001300000000000000000002220000000000                 
1040001300320U 0600000000000000000000000000576500000000000000000000000000576500000000002882300000000001729300000000000000000000000000000027042010300420101900        000000000000000CIP COMPENSACAO               930                           
1040001300321T 0600249600300000286080D00000000000000000001               30042010000000000000000341003832                         090000540607440001104984588000000000097862009177540607440001300000000000000000002220000000000                 
1040001300322U 0600000000000000000000000000189900000000000000000000000000189900000000000949500000000000569700000000000000000000000000000027042010300420101900        000000000000000CIP COMPENSACAO               930                           
1040001300323T 0600249600300000286080D00000000000000000001               30042010000000000000000399015920                         090000540616920001104914588000000000097862009177540616920001300000000000000000002220000000000                 
1040001300324U 0600000000000000000000000000128000000000000000000000000000128000000000000640000000000000384000000000000000000000000000000027042010300420101900        000000000000000CIP COMPENSACAO               930                           
1040001300325T 0600249600300000286080D00000000000000000001               30042010000000000000000341001775                         090000540619990001104944588000000000097862009177540619990001300000000000000000002220000000000                 
1040001300326U 0600000000000000000000000000372000000000000000000000000000372000000000001860100000000001116100000000000000000000000000000027042010300420101900        000000000000000CIP COMPENSACAO               930                           
1040001300327T 0600249600300000286080D00000000000000000001               30042010000000000000000341001775                         090000540629140001104934588000000000097862009177540629140001300000000000000000002220000000000                 
1040001300328U 0600000000000000000000000000346600000000000000000000000000346600000000001733200000000001040000000000000000000000000000000027042010300420101900        000000000000000CIP COMPENSACAO               930                           
1040001300329T 0600249600300000286080D00000000000000000001               30042010000000000000000356005630                         090000540634250001104904588000000000097862009177540634250001300000000000000000002220000000000                 
1040001300330U 0600000000000000000000000000288900000000000000000000000000288900000000001444700000000000866900000000000000000000000000000027042010300420101900        000000000000000CIP COMPENSACAO               930                           
1040001300331T 0600249600300000286080D00000000000000000001               30042010000000000000000341003751                         090000540644310001104924588000000000097862009177540644310001300000000000000000002220000000000                 
1040001300332U 0600000000000000000000000000133600000000000000000000000000133600000000000667900000000000400700000000000000000000000000000027042010300420101900        000000000000000CIP COMPENSACAO               930                           
1040001300333T 0600249600300000286080D00000000000000000001               30042010000000000000000341000779                         090000540650240001104934588000000000097862009177540650240001300000000000000000002220000000000                 
1040001300334U 0600000000000000000000000000284100000000000000000000000000284100000000001420300000000000852100000000000000000000000000000027042010300420101900        000000000000000CIP COMPENSACAO               930                           
1040001300335T 0600249600300000286080D00000000000000000001               30042010000000000000000356000043                         090000540657270001104904588000000000097862009177540657270001300000000000000000002220000000000                 
1040001300336U 0600000000000000000000000000415100000000000000000000000000415100000000002075700000000001245500000000000000000000000000000027042010300420101900        000000000000000CIP COMPENSACAO               930                           
1040001300337T 0600249600300000286080D00000000000000000001               30042010000000000000000341006483                         090000540669310001104984588000000000097862009177540669310001300000000000000000002220000000000                 
1040001300338U 0600000000000000000000000000072300000000000000000000000000072300000000000361600000000000217000000000000000000000000000000027042010300420101900        000000000000000CIP COMPENSACAO               930                           
1040001300339T 0600249600300000286080D00000000000000000001               30042010000000000000000341007587                         090000540685230001104934588000000000097862009177540685230001300000000000000000002220000000000                 
1040001300340U 0600000000000000000000000000557400000000000000000000000000557400000000002787100000000001672300000000000000000000000000000027042010300420101900        000000000000000CIP COMPENSACAO               930                           
1040001300341T 0600249600300000286080D00000000000000000001               30042010000000000000000341001775                         090000540686140001104924588000000000097862009177540686140001300000000000000000002220000000000                 
1040001300342U 0600000000000000000000000000819000000000000000000000000000819000000000004095100000000002457100000000000000000000000000000027042010300420101900        000000000000000CIP COMPENSACAO               930                           
1040001300343T 0600249600300000286080D00000000000000000001               30042010000000000000000033004383                         090000540707840001104914588000000000097862009177540707840001300000000000000000002220000000000                 
1040001300344U 0600000000000000000000000000337100000000000000000000000000337100000000001685700000000001011500000000000000000000000000000027042010300420101900        000000000000000CIP COMPENSACAO               930                           
1040001300345T 0600249600300000286080D00000000000000000001               30042010000000000000000341084999                         090000540708260001104944588000000000097862009177540708260001300000000000000000002220000000000                 
1040001300346U 0600000000000000000000000000580600000000000000000000000000580600000000002902800000000001741600000000000000000000000000000027042010300420101900        000000000000000CIP COMPENSACAO               930                           
1040001300347T 0600249600300000286080D00000000000000000001               30042010000000000000000409073512                         090000540713780001104954588000000000097862009177540713780001300000000000000000002220000000000                 
1040001300348U 0600000000000000000000000000431100000000000000000000000000431100000000002155700000000001293500000000000000000000000000000027042010300420101900        000000000000000CIP COMPENSACAO               930                           
1040001300349T 0600249600300000286080D00000000000000000001               30042010000000000000000341001902                         090000540713940001104984588000000000097862009177540713940001300000000000000000002220000000000                 
1040001300350U 0600000000000000000000000000502700000000000000000000000000502700000000002513700000000001508300000000000000000000000000000027042010300420101900        000000000000000CIP COMPENSACAO               930                           
1040001300351T 0600249600300000286080D00000000000000000001               30042010000000000000000033004383                         090000540724750001104924588000000000097862009177540724750001300000000000000000002220000000000                 
1040001300352U 0600000000000000000000000000249500000000000000000000000000249500000000001247300000000000748300000000000000000000000000000027042010300420101900        000000000000000CIP COMPENSACAO               930                           
1040001300353T 0600249600300000286080D00000000000000000001               30042010000000000000000341084999                         090000540725330001104984588000000000097862009177540725330001300000000000000000002220000000000                 
1040001300354U 0600000000000000000000000000097100000000000000000000000000097100000000000485700000000000291500000000000000000000000000000027042010300420101900        000000000000000CIP COMPENSACAO               930                           
1040001300355T 0600249600300000286080D00000000000000000001               30042010000000000017995341084999                         090000540726320001104984588000001799597862008177540726320001110000000000000000002220000000000                 
1040001300356U 0600000000000000000000000000359900000000000000000000000000359900000000001799500000000001079700000000000000000000000000000027042010300420101900        000000000000000CIP COMPENSACAO               811                           
1040001300357T 0600249600300000286080D00000000000000000001               30042010000000000000000237037907                         090000540727980001104994588000000000097862009177540727980001300000000000000000002220000000000                 
1040001300358U 0600000000000000000000000000747000000000000000000000000000747000000000003735100000000002241100000000000000000000000000000027042010300420101900        000000000000000CIP COMPENSACAO               930                           
1040001300359T 0600249600300000286080D00000000000000000001               30042010000000000000000237037907                         090000540728140001104914588000000000097862009177540728140001300000000000000000002220000000000                 
1040001300360U 0600000000000000000000000000684900000000000000000000000000684900000000003424700000000002054900000000000000000000000000000027042010300420101900        000000000000000CIP COMPENSACAO               930                           
1040001300361T 0600249600300000286080D00000000000000000001               30042010000000000000000341084999                         090000540733090001104914588000000000097862009177540733090001300000000000000000002220000000000                 
1040001300362U 0600000000000000000000000000414800000000000000000000000000414800000000002074000000000001244400000000000000000000000000000027042010300420101900        000000000000000CIP COMPENSACAO               930                           
1040001300363T 0600249600300000286080D00000000000000000001               30042010000000000000000341000574                         090000541984290001104964588000000000097862009177541984290001300000000000000000002220000000000                 
1040001300364U 0600000000000000000000000000096700000000000000000000000000096700000000000483300000000000289900000000000000000000000000000027042010300420101900        000000000000000CIP COMPENSACAO               930                           
1040001300365T 0600249600300000286080D00000000000000000001               30042010000000000000000341029238                         090000541990390001104924588000000000097862009177541990390001300000000000000000002220000000000                 
1040001300366U 0600000000000000000000000000438900000000000000000000000000438900000000002194500000000001316700000000000000000000000000000027042010300420101900        000000000000000CIP COMPENSACAO               930                           
1040001300367T 0600249600300000286080D00000000000000000001               30042010000000000000000033004383                         090000541995340001104914588000000000097862009177541995340001300000000000000000002220000000000                 
1040001300368U 0600000000000000000000000000432500000000000000000000000000432500000000002162600000000001297600000000000000000000000000000027042010300420101900        000000000000000CIP COMPENSACAO               930                           
1040001300369T 0600249600300000286080D00000000000000000001               30042010000000000000000341084999                         090000541995830001104964588000000000097862009177541995830001300000000000000000002220000000000                 
1040001300370U 0600000000000000000000000000549800000000000000000000000000549800000000002749000000000001649400000000000000000000000000000027042010300420101900        000000000000000CIP COMPENSACAO               930                           
1040001300371T 0600249600300000286080D00000000000000000001               30042010000000000000000341000574                         090000542009360001104914588000000000097862009177542009360001300000000000000000002220000000000                 
1040001300372U 0600000000000000000000000000315900000000000000000000000000315900000000001579300000000000947500000000000000000000000000000027042010300420101900        000000000000000CIP COMPENSACAO               930                           
1040001300373T 0600249600300000286080D00000000000000000001               30042010000000000000000104029424                         090000542012800001104934588000000000097862009177542012800001300000000000000000002180000000000                 
1040001300374U 0600000000000000000000000000525800000000000000000000000000525800000000002629100000000001577500000000000000000000000000000027042010300420102100        000000000000000AUTOMACAO                     930                           
1040001300375T 0600249600300000286080D00000000000000000001               30042010000000000000000399015920                         090000542019420001104994588000000000097862009177542019420001300000000000000000002220000000000                 
1040001300376U 0600000000000000000000000000249900000000000000000000000000249900000000001249700000000000749900000000000000000000000000000027042010300420101900        000000000000000CIP COMPENSACAO               930                           
1040001300377T 0600249600300000286080D00000000000000000001               30042010000000000000000033002208                         090000542027000001104974588000000000097862009177542027000001300000000000000000002220000000000                 
1040001300378U 0600000000000000000000000000060900000000000000000000000000060900000000000304300000000000182500000000000000000000000000000027042010300420101900        000000000000000CIP COMPENSACAO               930                           
1040001300379T 0600249600300000286080D00000000000000000001               30042010000000000000000104029424                         090000542029730001104944588000000000097862009177542029730001300000000000000000002180000000000                 
1040001300380U 0600000000000000000000000000418100000000000000000000000000418100000000002090600000000001254400000000000000000000000000000027042010300420102100        000000000000000AUTOMACAO                     930                           
1040001300381T 0600249600300000286080D00000000000000000001               07101997000000000000000341000647                         090000542052730001104900000000000000097862009177542052730001300000000000000000002220000000000                 
1040001300382U 0600000000000000000000000000065000000000000000000000000000065000000000000324900000000000194900000000000000000000000000000027042010300420101900        000000000000000CIP COMPENSACAO               930                           
1040001300383T 0600249600300000286080D00000000000000000001               30042010000000000000000341001775                         090000542064530001104994588000000000097862009177542064530001300000000000000000002220000000000                 
1040001300384U 0600000000000000000000000000204400000000000000000000000000204400000000001021800000000000613000000000000000000000000000000027042010300420101900        000000000000000CIP COMPENSACAO               930                           
1040001300385T 0600249600300000286080D00000000000000000001               30042010000000000000000341084999                         090000542081450001104924588000000000097862009177542081450001300000000000000000002220000000000                 
1040001300386U 0600000000000000000000000000370400000000000000000000000000370400000000001852200000000001111400000000000000000000000000000027042010300420101900        000000000000000CIP COMPENSACAO               930                           
1040001300387T 0600249600300000286080D00000000000000000001               30042010000000000000000341000370                         090000542091500001104984588000000000097862009177542091500001300000000000000000002220000000000                 
1040001300388U 0600000000000000000000000000500500000000000000000000000000500500000000002502600000000001501600000000000000000000000000000027042010300420101900        000000000000000CIP COMPENSACAO               930                           
1040001300389T 0600249600300000286080D00000000000000000001               30042010000000000000000104029424                         090000542194490001104914588000000000097862009177542194490001300000000000000000002180000000000                 
1040001300390U 0600000000000000000000000000386000000000000000000000000000386000000000001930000000000001158000000000000000000000000000000027042010300420102100        000000000000000AUTOMACAO                     930                           
1040001300391T 0600249600300000286080D00000000000000000001               30042010000000000000000033004383                         090000542210310001104934588000000000097862009177542210310001300000000000000000002220000000000                 
1040001300392U 0600000000000000000000000000399900000000000000000000000000399900000000001999600000000001199800000000000000000000000000000027042010300420101900        000000000000000CIP COMPENSACAO               930                           
1040001300393T 0600249600300000286080D00000000000000000001               30042010000000000000000341002372                         090000542216190001104914588000000000097862009177542216190001300000000000000000002220000000000                 
1040001300394U 0600000000000000000000000000212000000000000000000000000000212000000000001060200000000000636200000000000000000000000000000027042010300420101900        000000000000000CIP COMPENSACAO               930                           
1040001300395T 0600249600300000286080D00000000000000000001               30042010000000000000000237001368                         090000542241180001104994588000000000097862009177542241180001300000000000000000002220000000000                 
1040001300396U 0600000000000000000000000000047000000000000000000000000000047000000000000235000000000000141000000000000000000000000000000027042010300420101900        000000000000000CIP COMPENSACAO               930                           
1040001300397T 0600249600300000286080D00000000000000000001               30042010000000000000000341001775                         090000542266260001104914588000000000097862009177542266260001300000000000000000002220000000000                 
1040001300398U 0600000000000000000000000000341600000000000000000000000000341600000000001708200000000001025000000000000000000000000000000027042010300420101900        000000000000000CIP COMPENSACAO               930                           
1040001300399T 0600249600300000286080D00000000000000000001               30042010000000000000000104029424                         090000542392490001104984588000000000097862009177542392490001300000000000000000002180000000000                 
1040001300400U 0600000000000000000000000000083300000000000000000000000000083300000000000416700000000000250100000000000000000000000000000027042010300420102100        000000000000000AUTOMACAO                     930                           
1040001300401T 0600249600300000286080D00000000000000000001               30042010000000000000000237005169                         090000542393140001104974588000000000097862009177542393140001300000000000000000002220000000000                 
1040001300402U 0600000000000000000000000000382700000000000000000000000000382700000000001913500000000001148100000000000000000000000000000027042010300420101900        000000000000000CIP COMPENSACAO               930                           
1040001300403T 0600249600300000286080D00000000000000000001               30042010000000000000000341001708                         090000542402470001104934588000000000097862009177542402470001300000000000000000002220000000000                 
1040001300404U 0600000000000000000000000000062500000000000000000000000000062500000000000312600000000000187600000000000000000000000000000027042010300420101900        000000000000000CIP COMPENSACAO               930                           
1040001300405T 0600249600300000286080D00000000000000000001               07101997000000000000000341000647                         090000542405440001104900000000000000097862009177542405440001300000000000000000002220000000000                 
1040001300406U 0600000000000000000000000000107700000000000000000000000000107700000000000538300000000000322900000000000000000000000000000027042010300420101900        000000000000000CIP COMPENSACAO               930                           
1040001300407T 0600249600300000286080D00000000000000000001               30042010000000000000000341001775                         090000542409240001104994588000000000097862009177542409240001300000000000000000002220000000000                 
1040001300408U 0600000000000000000000000000605900000000000000000000000000605900000000003029700000000001817900000000000000000000000000000027042010300420101900        000000000000000CIP COMPENSACAO               930                           
1040001300409T 0600249600300000286080D00000000000000000001               30042010000000000000000399004782                         090000542414190001104974588000000000097862009177542414190001300000000000000000002220000000000                 
1040001300410U 0600000000000000000000000000323100000000000000000000000000323100000000001615300000000000969100000000000000000000000000000027042010300420101900        000000000000000CIP COMPENSACAO               930                           
1040001300411T 0600249600300000286080D00000000000000000001               30042010000000000000000237001368                         090000542414430001104964588000000000097862009177542414430001300000000000000000002220000000000                 
1040001300412U 0600000000000000000000000000239700000000000000000000000000239700000000001198400000000000719000000000000000000000000000000027042010300420101900        000000000000000CIP COMPENSACAO               930                           
