10400000         243070481000114186200              00249600300000286080SINEMPEDIFPORTCAB MUN SP      CAIXA ECONOMICA FEDERAL                 22604201004420600125406000000                                                                     
10400011T01  030 2043070481000114186200              00249600300000286080SINEMPEDIFPORTCAB MUN SP      200501                                  000000                                  000000002604201000000000                                 
1040001300001T 0600249600300000286080D00000000000000000001               30042010000000000000000341006467                         090000000000210001104944588000000000097862009177000000210001300000000000000000002220000000000                 
1040001300002U 0600000000000000000000000000075100000000000000000000000000075100000000000375400000000000225200000000000000000000000000000020042010260420101900        000000000000000CIP COMPENSACAO               930                           
1040001300003T 0600249600300000286080D00000000000000000001               30042010000000000001840341007609                         090000000773120001104954588000000184097862008177000773120001110000000000000000002220000000000                 
1040001300004U 0600000000000000000000000000036800000000000000000000000000036800000000000184000000000000110400000000000000000000000000000020042010260420101900        000000000000000CIP COMPENSACAO               811                           
1040001300005T 0600249600300000286080D00000000000000000001               30042010000000000000000341007757                         090000001718130001104914588000000000097862009177001718130001300000000000000000002220000000000                 
1040001300006U 0600000000000000000000000000240300000000000000000000000000240300000000001201500000000000720900000000000000000000000000000020042010260420101900        000000000000000CIP COMPENSACAO               930                           
1040001300007T 0600249600300000286080D00000000000000000001               07101997000000000043707356001368                         090000001730520001104900000000004370797862009177001730520001300000000000000000002220000000000                 
1040001300008U 0600000000000000000000000000874100000000000000000000000000874100000000004370700000000002622500000000000000000000000000000020042010260420101900        000000000000000CIP COMPENSACAO               930                           
1040001300009T 0600249600300000286080D00000000000000000001               30042010000000000000000341002372                         090000002190213003104914588000000000097862009177002190213003300000000000000000002220000000000                 
1040001300010U 0600000000000000000000000000049000000000000000000000000000049000000000000244900000000000146900000000000000000000000000000020042010260420101900        000000000000000CIP COMPENSACAO               930                           
1040001300011T 0600249600300000286080D00000000000000000001               30042010000000000000000409073512                         090000002190213607104934588000000000097862009177002190213607300000000000000000002220000000000                 
1040001300012U 0600000000000000000000000000285700000000000000000000000000285700000000001428500000000000857100000000000000000000000000000020042010260420101900        000000000000000CIP COMPENSACAO               930                           
1040001300013T 0600249600300000286080D00000000000000000001               30042010000000000000000341005932                         090000002190214124104964588000000000097862009177002190214124300000000000000000002220000000000                 
1040001300014U 0600000000000000000000000000717500000000000000000000000000717500000000003587300000000002152300000000000000000000000000000020042010260420101900        000000000000000CIP COMPENSACAO               930                           
1040001300015T 0600249600300000286080D00000000000000000001               30042010000000000000000341000574                         090000002190214600104924588000000000097862009177002190214600300000000000000000002220000000000                 
1040001300016U 0600000000000000000000000000246300000000000000000000000000246300000000001231600000000000739000000000000000000000000000000020042010260420101900        000000000000000CIP COMPENSACAO               930                           
1040001300017T 0600249600300000286080D00000000000000000001               30042010000000000000000341000574                         090000002190215255104974588000000000097862009177002190215255300000000000000000002220000000000                 
1040001300018U 0600000000000000000000000000127100000000000000000000000000127100000000000635500000000000381300000000000000000000000000000020042010260420101900        000000000000000CIP COMPENSACAO               930                           
1040001300019T 0600249600300000286080D00000000000000000001               30042010000000000000000341000574                         090000002190215621104934588000000000097862009177002190215621300000000000000000002220000000000                 
1040001300020U 0600000000000000000000000000205500000000000000000000000000205500000000001027600000000000616600000000000000000000000000000020042010260420101900        000000000000000CIP COMPENSACAO               930                           
1040001300021T 0600249600300000286080D00000000000000000001               30042010000000000000000399004782                         090000002190220561104954588000000000097862009177002190220561300000000000000000002220000000000                 
1040001300022U 0600000000000000000000000000126100000000000000000000000000126100000000000630400000000000378200000000000000000000000000000020042010260420101900        000000000000000CIP COMPENSACAO               930                           
1040001300023T 0600249600300000286080D00000000000000000001               30042010000000000000000341000574                         090000002190715201104934588000000000097862009177002190715201300000000000000000002220000000000                 
1040001300024U 0600000000000000000000000000088100000000000000000000000000088100000000000440300000000000264100000000000000000000000000000020042010260420101900        000000000000000CIP COMPENSACAO               930                           
1040001300025T 0600249600300000286080D00000000000000000001               30042010000000000000000341087203                         090000002657830001104934588000000000097862009177002657830001300000000000000000002220000000000                 
1040001300026U 0600000000000000000000000000066300000000000000000000000000066300000000000331600000000000199000000000000000000000000000000020042010260420101900        000000000000000CIP COMPENSACAO               930                           
1040001300027T 0600249600300000286080D00000000000000000001               07101997000000000000000341001740                         090000003656110001104900000000000000097862009177003656110001300000000000000000002220000000000                 
1040001300028U 0600000000000000000000000000062000000000000000000000000000062000000000000309900000000000185900000000000000000000000000000020042010260420101900        000000000000000CIP COMPENSACAO               930                           
1040001300029T 0600249600300000286080D00000000000000000001               30042010000000000000000237038229                         090000003872010001104954588000000000097862009177003872010001300000000000000000002220000000000                 
1040001300030U 0600000000000000000000000000044900000000000000000000000000044900000000000224500000000000134700000000000000000000000000000020042010260420101900        000000000000000CIP COMPENSACAO               930                           
1040001300031T 0600249600300000286080D00000000000000000001               07101997000000000008724356001368                         090000005231300001104900000000000872497862009177005231300001300000000000000000002220000000000                 
1040001300032U 0600000000000000000000000000174500000000000000000000000000174500000000000872400000000000523400000000000000000000000000000020042010260420101900        000000000000000CIP COMPENSACAO               930                           
1040001300033T 0600249600300000286080D00000000000000000001               07101997000000000018518356001368                         090000005505440001104900000000001851897862009177005505440001300000000000000000002220000000000                 
1040001300034U 0600000000000000000000000000370400000000000000000000000000370400000000001851800000000001111000000000000000000000000000000020042010260420101900        000000000000000CIP COMPENSACAO               930                           
1040001300035T 0600249600300000286080D00000000000000000001               30042010000000000000000341003000                         090000005568390001104964588000000000097862009177005568390001300000000000000000002220000000000                 
1040001300036U 0600000000000000000000000000044900000000000000000000000000044900000000000224500000000000134700000000000000000000000000000020042010260420101900        000000000000000CIP COMPENSACAO               930                           
1040001300037T 0600249600300000286080D00000000000000000001               30042010000000000002593341003506                         090000006981135868104984588000000259397862008177006981135868110000000000000000002220000000000                 
1040001300038U 0600000000000000000000000000051900000000000000000000000000051900000000000259300000000000155500000000000000000000000000000020042010260420101900        000000000000000CIP COMPENSACAO               811                           
1040001300039T 0600249600300000286080D00000000000000000001               30042010000000000000000341016080                         090000007108920001104914588000000000097862009177007108920001300000000000000000002220000000000                 
1040001300040U 0600000000000000000000000000250600000000000000000000000000250600000000001253100000000000751900000000000000000000000000000020042010260420101900        000000000000000CIP COMPENSACAO               930                           
1040001300041T 0600249600300000286080D00000000000000000001               30042010000000000000000341005347                         090000007562870001104914588000000000097862009177007562870001300000000000000000002220000000000                 
1040001300042U 0600000000000000000000000000072100000000000000000000000000072100000000000360400000000000216200000000000000000000000000000020042010260420101900        000000000000000CIP COMPENSACAO               930                           
1040001300043T 0600249600300000286080D00000000000000000001               30042010000000000000000341004405                         090000010416660001104914588000000000097862009177010416660001300000000000000000002220000000000                 
1040001300044U 0600000000000000000000000000619500000000000000000000000000619500000000003097500000000001858500000000000000000000000000000020042010260420101900        000000000000000CIP COMPENSACAO               930                           
1040001300045T 0600249600300000286080D00000000000000000001               30042010000000000000000341000647                         090000010907050001104914588000000000097862009177010907050001300000000000000000002220000000000                 
1040001300046U 0600000000000000000000000000058500000000000000000000000000058500000000000292700000000000175700000000000000000000000000000020042010260420101900        000000000000000CIP COMPENSACAO               930                           
1040001300047T 0600249600300000286080D00000000000000000001               30042010000000000000000341003557                         090000012170050001104944588000000000097862009177012170050001300000000000000000002220000000000                 
1040001300048U 0600000000000000000000000000388900000000000000000000000000388900000000001944500000000001166700000000000000000000000000000020042010260420101900        000000000000000CIP COMPENSACAO               930                           
1040001300049T 0600249600300000286080D00000000000000000001               30042010000000000000000341087203                         090000014528520001104914588000000000097862009177014528520001300000000000000000002220000000000                 
1040001300050U 0600000000000000000000000000034000000000000000000000000000034000000000000170000000000000102000000000000000000000000000000020042010260420101900        000000000000000CIP COMPENSACAO               930                           
1040001300051T 0600249600300000286080D00000000000000000001               30042010000000000002358033022284                         090000018592500001104914588000000235897862008177018592500001110000000000000000002220000000000                 
1040001300052U 0600000000000000000000000000047200000000000000000000000000047200000000000235800000000000141400000000000000000000000000000020042010260420101900        000000000000000CIP COMPENSACAO               811                           
1040001300053T 0600249600300000286080D00000000000000000001               30042010000000000000000001003840                         090000018652190001104934588000000000097862009177018652190001300000000000000000002220000000000                 
1040001300054U 0600000000000000000000000000540600000000000000000000000000540600000000002703100000000001621900000000000000000000000000000020042010260420101900        000000000000000CIP COMPENSACAO               930                           
1040001300055T 0600249600300000286080D00000000000000000001               30042010000000000000000341087203                         090000020165430001104934588000000000097862009177020165430001300000000000000000002220000000000                 
1040001300056U 0600000000000000000000000000281600000000000000000000000000281600000000001408200000000000845000000000000000000000000000000020042010260420101900        000000000000000CIP COMPENSACAO               930                           
1040001300057T 0600249600300000286080D00000000000000000001               30042010000000000000000237023027                         090000020206780001104934588000000000097862009177020206780001300000000000000000002220000000000                 
1040001300058U 0600000000000000000000000000500100000000000000000000000000500100000000002500400000000001500200000000000000000000000000000020042010260420101900        000000000000000CIP COMPENSACAO               930                           
1040001300059T 0600249600300000286080D00000000000000000001               30042010000000000000000237037907                         090000020509550001104954588000000000097862009177020509550001300000000000000000002220000000000                 
1040001300060U 0600000000000000000000000000104000000000000000000000000000104000000000000520000000000000312000000000000000000000000000000020042010260420101900        000000000000000CIP COMPENSACAO               930                           
1040001300061T 0600249600300000286080D00000000000000000001               30042010000000000000000341003603                         090000021060740001104914588000000000097862009177021060740001300000000000000000002220000000000                 
1040001300062U 0600000000000000000000000000396700000000000000000000000000396700000000001983300000000001189900000000000000000000000000000020042010260420101900        000000000000000CIP COMPENSACAO               930                           
1040001300063T 0600249600300000286080D00000000000000000001               30042010000000000000000001003840                         090000026180850001104924588000000000097862009177026180850001300000000000000000002220000000000                 
1040001300064U 0600000000000000000000000000044900000000000000000000000000044900000000000224500000000000134700000000000000000000000000000020042010260420101900        000000000000000CIP COMPENSACAO               930                           
1040001300065T 0600249600300000286080D00000000000000000001               30042010000000000000000341004405                         090000028480240001104994588000000000097862009177028480240001300000000000000000002220000000000                 
1040001300066U 0600000000000000000000000000209800000000000000000000000000209800000000001048900000000000629300000000000000000000000000000020042010260420101900        000000000000000CIP COMPENSACAO               930                           
1040001300067T 0600249600300000286080D00000000000000000001               30042010000000000000000341001392                         090000029269790001104934588000000000097862009177029269790001300000000000000000002220000000000                 
1040001300068U 0600000000000000000000000000092700000000000000000000000000092700000000000463300000000000277900000000000000000000000000000020042010260420101900        000000000000000CIP COMPENSACAO               930                           
1040001300069T 0600249600300000286080D00000000000000000001               30042010000000000000000341004456                         090000029956670001104994588000000000097862009177029956670001300000000000000000002220000000000                 
1040001300070U 0600000000000000000000000000142700000000000000000000000000142700000000000713700000000000428300000000000000000000000000000020042010260420101900        000000000000000CIP COMPENSACAO               930                           
1040001300071T 0600249600300000286080D00000000000000000001               30042010000000000000000341004456                         090000030597830001104994588000000000097862009177030597830001300000000000000000002220000000000                 
1040001300072U 0600000000000000000000000000146700000000000000000000000000146700000000000733300000000000439900000000000000000000000000000020042010260420101900        000000000000000CIP COMPENSACAO               930                           
1040001300073T 0600249600300000286080D00000000000000000001               30042010000000000000000237019984                         090000030992400001104984588000000000097862009177030992400001300000000000000000002220000000000                 
1040001300074U 0600000000000000000000000000297200000000000000000000000000297200000000001485800000000000891400000000000000000000000000000020042010260420101900        000000000000000CIP COMPENSACAO               930                           
1040001300075T 0600249600300000286080D00000000000000000001               30042010000000000000000356017795                         090000031429960001104904588000000000097862009177031429960001300000000000000000002220000000000                 
1040001300076U 0600000000000000000000000000074000000000000000000000000000074000000000000370200000000000222200000000000000000000000000000020042010260420101900        000000000000000CIP COMPENSACAO               930                           
1040001300077T 0600249600300000286080D00000000000000000001               30042010000000000000000341002100                         090000032694650001104934588000000000097862009177032694650001300000000000000000002220000000000                 
1040001300078U 0600000000000000000000000000125300000000000000000000000000125300000000000626600000000000376000000000000000000000000000000020042010260420101900        000000000000000CIP COMPENSACAO               930                           
1040001300079T 0600249600300000286080D00000000000000000001               30042010000000000000000341001902                         090000033048950001104924588000000000097862009177033048950001300000000000000000002220000000000                 
1040001300080U 0600000000000000000000000000351400000000000000000000000000351400000000001757000000000001054200000000000000000000000000000020042010260420101900        000000000000000CIP COMPENSACAO               930                           
1040001300081T 0600249600300000286080D00000000000000000001               30042010000000000000000341007862                         090000033072280001104914588000000000097862009177033072280001300000000000000000002220000000000                 
1040001300082U 0600000000000000000000000000063600000000000000000000000000063600000000000318000000000000190800000000000000000000000000000020042010260420101900        000000000000000CIP COMPENSACAO               930                           
1040001300083T 0600249600300000286080D00000000000000000001               30042010000000000000000237001996                         090000035154130001104944588000000000097862009177035154130001300000000000000000002220000000000                 
1040001300084U 0600000000000000000000000000249300000000000000000000000000249300000000001246500000000000747900000000000000000000000000000020042010260420101900        000000000000000CIP COMPENSACAO               930                           
1040001300085T 0600249600300000286080D00000000000000000001               30042010000000000000000341007757                         090000036470950001104914588000000000097862009177036470950001300000000000000000002220000000000                 
1040001300086U 0600000000000000000000000000373100000000000000000000000000373100000000001865400000000001119200000000000000000000000000000020042010260420101900        000000000000000CIP COMPENSACAO               930                           
1040001300087T 0600249600300000286080D00000000000000000001               30042010000000000000000409004871                         090000036928330001104954588000000000097862009177036928330001300000000000000000002220000000000                 
1040001300088U 0600000000000000000000000000093900000000000000000000000000093900000000000469400000000000281600000000000000000000000000000020042010260420101900        000000000000000CIP COMPENSACAO               930                           
1040001300089T 0600249600300000286080D00000000000000000001               30042010000000000001962399017914                         090000037245520001104914588000000196297862008177037245520001110000000000000000002220000000000                 
1040001300090U 0600000000000000000000000000039200000000000000000000000000039200000000000196200000000000117800000000000000000000000000000020042010260420101900        000000000000000CIP COMPENSACAO               811                           
1040001300091T 0600249600300000286080D00000000000000000001               30042010000000000000000237001147                         090000040321670001104984588000000000097862009177040321670001300000000000000000002220000000000                 
1040001300092U 0600000000000000000000000000070900000000000000000000000000070900000000000354400000000000212600000000000000000000000000000020042010260420101900        000000000000000CIP COMPENSACAO               930                           
1040001300093T 0600249600300000286080D00000000000000000001               30042010000000000000000341066648                         090000040938900001104974588000000000097862009177040938900001300000000000000000002220000000000                 
1040001300094U 0600000000000000000000000000074000000000000000000000000000074000000000000369900000000000221900000000000000000000000000000020042010260420101900        000000000000000CIP COMPENSACAO               930                           
1040001300095T 0600249600300000286080D00000000000000000001               07101997000000000017545356001368                         090000041841540001104900000000001754597862009177041841540001300000000000000000002220000000000                 
1040001300096U 0600000000000000000000000000350900000000000000000000000000350900000000001754500000000001052700000000000000000000000000000020042010260420101900        000000000000000CIP COMPENSACAO               930                           
1040001300097T 0600249600300000286080D00000000000000000001               30042010000000000000000341029580                         090000044064050001104984588000000000097862009177044064050001300000000000000000002220000000000                 
1040001300098U 0600000000000000000000000001214700000000000000000000000001214700000000006073700000000003644300000000000000000000000000000020042010260420101900        000000000000000CIP COMPENSACAO               930                           
1040001300099T 0600249600300000286080D00000000000000000001               30042010000000000000000341002658                         090000049505480001104974588000000000097862009177049505480001300000000000000000002220000000000                 
1040001300100U 0600000000000000000000000000336200000000000000000000000000336200000000001681000000000001008600000000000000000000000000000020042010260420101900        000000000000000CIP COMPENSACAO               930                           
1040001300101T 0600249600300000286080D00000000000000000001               30042010000000000002250237033227                         090000050685930001104914588000000225097862008177050685930001510000000000000000002220000000000                 
1040001300102U 0600000000000000000000000000045000000000000000000000000000045000000000000225000000000000135000000000000000000000000000000020042010260420101900        000000000000000CIP COMPENSACAO               851                           
1040001300103T 0600249600300000286080D00000000000000000001               30042010000000000000000341004456                         090000053471950001104914588000000000097862009177053471950001300000000000000000002220000000000                 
1040001300104U 0600000000000000000000000000177600000000000000000000000000177600000000000887900000000000532700000000000000000000000000000020042010260420101900        000000000000000CIP COMPENSACAO               930                           
1040001300105T 0600249600300000286080D00000000000000000001               30042010000000000000000341004456                         090000053474190001104924588000000000097862009177053474190001300000000000000000002220000000000                 
1040001300106U 0600000000000000000000000000166700000000000000000000000000166700000000000833300000000000499900000000000000000000000000000020042010260420101900        000000000000000CIP COMPENSACAO               930                           
1040001300107T 0600249600300000286080D00000000000000000001               30042010000000000000000341000744                         090000054704920001104914588000000000097862009177054704920001300000000000000000002220000000000                 
1040001300108U 0600000000000000000000000000815000000000000000000000000000815000000000004074800000000002444800000000000000000000000000000020042010260420101900        000000000000000CIP COMPENSACAO               930                           
1040001300109T 0600249600300000286080D00000000000000000001               30042010000000000000000341015539                         090000065557200001104914588000000000097862009177065557200001300000000000000000002220000000000                 
1040001300110U 0600000000000000000000000000049000000000000000000000000000049000000000000244900000000000146900000000000000000000000000000020042010260420101900        000000000000000CIP COMPENSACAO               930                           
1040001300111T 0600249600300000286080D00000000000000000001               30042010000000000000000341071455                         090000069262600001104984588000000000097862009177069262600001300000000000000000002220000000000                 
1040001300112U 0600000000000000000000000000326500000000000000000000000000326500000000001632700000000000979700000000000000000000000000000020042010260420101900        000000000000000CIP COMPENSACAO               930                           
1040001300113T 0600249600300000286080D00000000000000000001               30042010000000000000000341001880                         090000071915370001104954588000000000097862009177071915370001300000000000000000002220000000000                 
1040001300114U 0600000000000000000000000000417700000000000000000000000000417700000000002088500000000001253100000000000000000000000000000020042010260420101900        000000000000000CIP COMPENSACAO               930                           
1040001300115T 0600249600300000286080D00000000000000000001               30042010000000000004280341001686                         090000072917260001104944588000000428097862007177072917260001010000000000000000002220000000000                 
1040001300116U 0600000000000000000000000000085600000000000000000000000000085600000000000428000000000000256800000000000000000000000000000020042010260420101900        000000000000000CIP COMPENSACAO               701                           
1040001300117T 0600249600300000286080D00000000000000000001               30042010000000000000000341073482                         090000074519680001104974588000000000097862009177074519680001300000000000000000002220000000000                 
1040001300118U 0600000000000000000000000000236800000000000000000000000000236800000000001184200000000000710600000000000000000000000000000020042010260420101900        000000000000000CIP COMPENSACAO               930                           
1040001300119T 0600249600300000286080D00000000000000000001               30042010000000000000000341004456                         090000077485370001104974588000000000097862009177077485370001300000000000000000002220000000000                 
1040001300120U 0600000000000000000000000000166700000000000000000000000000166700000000000833300000000000499900000000000000000000000000000020042010260420101900        000000000000000CIP COMPENSACAO               930                           
1040001300121T 0600249600300000286080D00000000000000000001               30042010000000000000000001003840                         090000078588150001104944588000000000097862009177078588150001300000000000000000002220000000000                 
1040001300122U 0600000000000000000000000000049000000000000000000000000000049000000000000245000000000000147000000000000000000000000000000020042010260420101900        000000000000000CIP COMPENSACAO               930                           
1040001300123T 0600249600300000286080D00000000000000000001               30042010000000000000000237019984                         090000079925810001104994588000000000097862009177079925810001300000000000000000002220000000000                 
1040001300124U 0600000000000000000000000000299300000000000000000000000000299300000000001496500000000000897900000000000000000000000000000020042010260420101900        000000000000000CIP COMPENSACAO               930                           
1040001300125T 0600249600300000286080D00000000000000000001               30042010000000000000000341007757                         090000082613260001104954588000000000097862009177082613260001300000000000000000002220000000000                 
1040001300126U 0600000000000000000000000000068700000000000000000000000000068700000000000343600000000000206200000000000000000000000000000020042010260420101900        000000000000000CIP COMPENSACAO               930                           
1040001300127T 0600249600300000286080D00000000000000000001               30042010000000000000000341002658                         090000083193330001104914588000000000097862009177083193330001300000000000000000002220000000000                 
1040001300128U 0600000000000000000000000000324000000000000000000000000000324000000000001620100000000000972100000000000000000000000000000020042010260420101900        000000000000000CIP COMPENSACAO               930                           
1040001300129T 0600249600300000286080D00000000000000000001               30042010000000000000000341006467                         090000086874640001104934588000000000097862009177086874640001300000000000000000002220000000000                 
1040001300130U 0600000000000000000000000000159400000000000000000000000000159400000000000797100000000000478300000000000000000000000000000020042010260420101900        000000000000000CIP COMPENSACAO               930                           
1040001300131T 0600249600300000286080D00000000000000000001               30042010000000000000000237001082                         090000087676620001104974588000000000097862009177087676620001300000000000000000002220000000000                 
1040001300132U 0600000000000000000000000000350800000000000000000000000000350800000000001754000000000001052400000000000000000000000000000020042010260420101900        000000000000000CIP COMPENSACAO               930                           
1040001300133T 0600249600300000286080D00000000000000000001               30042010000000000000000341006467                         090000088304670001104914588000000000097862009177088304670001300000000000000000002220000000000                 
1040001300134U 0600000000000000000000000000049000000000000000000000000000049000000000000245000000000000147000000000000000000000000000000020042010260420101900        000000000000000CIP COMPENSACAO               930                           
1040001300135T 0600249600300000286080D00000000000000000001               07101997000000000001530356001368                         090000089037010001104900000000000153097862008177089037010001110000000000000000002220000000000                 
1040001300136U 0600000000000000000000000000030600000000000000000000000000030600000000000153000000000000091800000000000000000000000000000020042010260420101900        000000000000000CIP COMPENSACAO               811                           
1040001300137T 0600249600300000286080D00000000000000000001               30042010000000000000000341015741                         090000092577150001104954588000000000097862009177092577150001300000000000000000002220000000000                 
1040001300138U 0600000000000000000000000000044900000000000000000000000000044900000000000224500000000000134700000000000000000000000000000020042010260420101900        000000000000000CIP COMPENSACAO               930                           
1040001300139T 0600249600300000286080D00000000000000000001               30042010000000000000000001003840                         090000092622010001104914588000000000097862009177092622010001300000000000000000002220000000000                 
1040001300140U 0600000000000000000000000000045000000000000000000000000000045000000000000225000000000000135000000000000000000000000000000020042010260420101900        000000000000000CIP COMPENSACAO               930                           
1040001300141T 0600249600300000286080D00000000000000000001               30042010000000000000000341007757                         090000107513890001104924588000000000097862009177107513890001300000000000000000002220000000000                 
1040001300142U 0600000000000000000000000000023000000000000000000000000000023000000000000114800000000000068800000000000000000000000000000020042010260420101900        000000000000000CIP COMPENSACAO               930                           
1040001300143T 0600249600300000286080D00000000000000000001               07101997000000000018560356001368                         090000111065900001104900000000001856097862009177111065900001300000000000000000002220000000000                 
1040001300144U 0600000000000000000000000000371200000000000000000000000000371200000000001856000000000001113600000000000000000000000000000020042010260420101900        000000000000000CIP COMPENSACAO               930                           
1040001300145T 0600249600300000286080D00000000000000000001               30042010000000000003344341016608                         090000219071555701104914588000000334497862008177219071555701110000000000000000002220000000000                 
1040001300146U 0600000000000000000000000000066900000000000000000000000000066900000000000334400000000000200600000000000000000000000000000020042010260420101900        000000000000000CIP COMPENSACAO               811                           
1040001300147T 0600249600300000286080D00000000000000000001               30042010000000000000000237002003                         090000388880790001104954588000000000097862009177388880790001300000000000000000002220000000000                 
1040001300148U 0600000000000000000000000000305000000000000000000000000000305000000000001524900000000000914900000000000000000000000000000020042010260420101900        000000000000000CIP COMPENSACAO               930                           
1040001300149T 0600249600300000286080D00000000000000000001               30042010000000000000000341000574                         090000502261170001104924588000000000097862009177502261170001300000000000000000002220000000000                 
1040001300150U 0600000000000000000000000000346900000000000000000000000000346900000000001734400000000001040600000000000000000000000000000020042010260420101900        000000000000000CIP COMPENSACAO               930                           
1040001300151T 0600249600300000286080D00000000000000000001               30042010000000000000000341000574                         090000502261170001104924588000000000097862009177502261170001300000000000000000002220000000000                 
1040001300152U 0600000000000000000000000000127800000000000000000000000000127800000000000638900000000000383300000000000000000000000000000020042010260420101900        000000000000000CIP COMPENSACAO               930                           
1040001300153T 0600249600300000286080D00000000000000000001               30042010000000000000000341000574                         090000502261170001104924588000000000097862009177502261170001300000000000000000002220000000000                 
1040001300154U 0600000000000000000000000000063800000000000000000000000000063800000000000318900000000000191300000000000000000000000000000020042010260420101900        000000000000000CIP COMPENSACAO               930                           
1040001300155T 0600249600300000286080D00000000000000000001               30042010000000000000000341006467                         090000538215340001104914588000000000097862009177538215340001300000000000000000002220000000000                 
1040001300156U 0600000000000000000000000000429500000000000000000000000000429500000000002147400000000001288400000000000000000000000000000020042010260420101900        000000000000000CIP COMPENSACAO               930                           
1040001300157T 0600249600300000286080D00000000000000000001               30042010000000000000000237037907                         090000538233080001104944588000000000097862009177538233080001300000000000000000002220000000000                 
1040001300158U 0600000000000000000000000003232600000000000000000000000003232600000000016162800000000009697600000000000000000000000000000020042010260420101900        000000000000000CIP COMPENSACAO               930                           
1040001300159T 0600249600300000286080D00000000000000000001               30042010000000000000000341003930                         090000538336530001104914588000000000097862009177538336530001300000000000000000002220000000000                 
1040001300160U 0600000000000000000000000000442000000000000000000000000000442000000000002209900000000001325900000000000000000000000000000020042010260420101900        000000000000000CIP COMPENSACAO               930                           
1040001300161T 0600249600300000286080D00000000000000000001               07101997000000000000000341000612                         090000538343130001104900000000000000097862009177538343130001300000000000000000002220000000000                 
1040001300162U 0600000000000000000000000000736400000000000000000000000000736400000000003681800000000002209000000000000000000000000000000020042010260420101900        000000000000000CIP COMPENSACAO               930                           
1040001300163T 0600249600300000286080D00000000000000000001               30042010000000000000000341006467                         090000538346930001104954588000000000097862009177538346930001300000000000000000002220000000000                 
1040001300164U 0600000000000000000000000001158500000000000000000000000001158500000000005792500000000003475500000000000000000000000000000020042010260420101900        000000000000000CIP COMPENSACAO               930                           
1040001300165T 0600249600300000286080D00000000000000000001               30042010000000000000000341007757                         090000538358150001104914588000000000097862009177538358150001300000000000000000002220000000000                 
1040001300166U 0600000000000000000000000000100300000000000000000000000000100300000000000501700000000000301100000000000000000000000000000020042010260420101900        000000000000000CIP COMPENSACAO               930                           
1040001300167T 0600249600300000286080D00000000000000000001               30042010000000000000000341006467                         090000538359480001104914588000000000097862009177538359480001300000000000000000002220000000000                 
1040001300168U 0600000000000000000000000000187800000000000000000000000000187800000000000939000000000000563400000000000000000000000000000020042010260420101900        000000000000000CIP COMPENSACAO               930                           
1040001300169T 0600249600300000286080D00000000000000000001               30042010000000000000000341007757                         090000538363670001104914588000000000097862009177538363670001300000000000000000002220000000000                 
1040001300170U 0600000000000000000000000000354900000000000000000000000000354900000000001774600000000001064800000000000000000000000000000020042010260420101900        000000000000000CIP COMPENSACAO               930                           
1040001300171T 0600249600300000286080D00000000000000000001               30042010000000000000000341016640                         090000539839460001104994588000000000097862009177539839460001300000000000000000002220000000000                 
1040001300172U 0600000000000000000000000000388500000000000000000000000000388500000000001942700000000001165700000000000000000000000000000020042010260420101900        000000000000000CIP COMPENSACAO               930                           
1040001300173T 0600249600300000286080D00000000000000000001               07101997000000000018590356001368                         090000539853210001104900000000001859097862009177539853210001300000000000000000002220000000000                 
1040001300174U 0600000000000000000000000000371800000000000000000000000000371800000000001859000000000001115400000000000000000000000000000020042010260420101900        000000000000000CIP COMPENSACAO               930                           
1040001300175T 0600249600300000286080D00000000000000000001               30042010000000000000000409073512                         090000539876080001104914588000000000097862009177539876080001300000000000000000002220000000000                 
1040001300176U 0600000000000000000000000000588300000000000000000000000000588300000000002941400000000001764800000000000000000000000000000020042010260420101900        000000000000000CIP COMPENSACAO               930                           
1040001300177T 0600249600300000286080D00000000000000000001               30042010000000000000000341000744                         090000539879880001104914588000000000097862009177539879880001300000000000000000002220000000000                 
1040001300178U 0600000000000000000000000000327800000000000000000000000000327800000000001638800000000000983200000000000000000000000000000020042010260420101900        000000000000000CIP COMPENSACAO               930                           
1040001300179T 0600249600300000286080D00000000000000000001               30042010000000000000000341007757                         090000539990090001104964588000000000097862009177539990090001300000000000000000002220000000000                 
1040001300180U 0600000000000000000000000000098900000000000000000000000000098900000000000494400000000000296600000000000000000000000000000020042010260420101900        000000000000000CIP COMPENSACAO               930                           
1040001300181T 0600249600300000286080D00000000000000000001               30042010000000000000000341007757                         090000539994540001104944588000000000097862009177539994540001300000000000000000002220000000000                 
1040001300182U 0600000000000000000000000000049800000000000000000000000000049800000000000249100000000000149500000000000000000000000000000020042010260420101900        000000000000000CIP COMPENSACAO               930                           
1040001300183T 0600249600300000286080D00000000000000000001               30042010000000000000000237037796                         090000540020920001104914588000000000097862009177540020920001300000000000000000002220000000000                 
1040001300184U 0600000000000000000000000000507200000000000000000000000000507200000000002536000000000001521600000000000000000000000000000020042010260420101900        000000000000000CIP COMPENSACAO               930                           
1040001300185T 0600249600300000286080D00000000000000000001               30042010000000000000000341007757                         090000540031320001104954588000000000097862009177540031320001300000000000000000002220000000000                 
1040001300186U 0600000000000000000000000000049000000000000000000000000000049000000000000244900000000000146900000000000000000000000000000020042010260420101900        000000000000000CIP COMPENSACAO               930                           
1040001300187T 0600249600300000286080D00000000000000000001               30042010000000000000000341001376                         090000540037360001104954588000000000097862009177540037360001300000000000000000002220000000000                 
1040001300188U 0600000000000000000000000000280100000000000000000000000000280100000000001400500000000000840300000000000000000000000000000020042010260420101900        000000000000000CIP COMPENSACAO               930                           
1040001300189T 0600249600300000286080D00000000000000000001               30042010000000000000000341007757                         090000540240130001104964588000000000097862009177540240130001300000000000000000002220000000000                 
1040001300190U 0600000000000000000000000000049500000000000000000000000000049500000000000247300000000000148300000000000000000000000000000020042010260420101900        000000000000000CIP COMPENSACAO               930                           
1040001300191T 0600249600300000286080D00000000000000000001               30042010000000000000000341007757                         090000540273700001104954588000000000097862009177540273700001300000000000000000002220000000000                 
1040001300192U 0600000000000000000000000000262400000000000000000000000000262400000000001311800000000000787000000000000000000000000000000020042010260420101900        000000000000000CIP COMPENSACAO               930                           
1040001300193T 0600249600300000286080D00000000000000000001               30042010000000000000000341000663                         090000540296650001104964588000000000097862009177540296650001300000000000000000002220000000000                 
1040001300194U 0600000000000000000000000000366800000000000000000000000000366800000000001834100000000001100500000000000000000000000000000020042010260420101900        000000000000000CIP COMPENSACAO               930                           
1040001300195T 0600249600300000286080D00000000000000000001               30042010000000000000000341007757                         090000540583750001104954588000000000097862009177540583750001300000000000000000002220000000000                 
1040001300196U 0600000000000000000000000000260600000000000000000000000000260600000000001303100000000000781900000000000000000000000000000020042010260420101900        000000000000000CIP COMPENSACAO               930                           
1040001300197T 0600249600300000286080D00000000000000000001               30042010000000000000000341007757                         090000540604470001104914588000000000097862009177540604470001300000000000000000002220000000000                 
1040001300198U 0600000000000000000000000000199400000000000000000000000000199400000000000997200000000000598400000000000000000000000000000020042010260420101900        000000000000000CIP COMPENSACAO               930                           
1040001300199T 0600249600300000286080D00000000000000000001               30042010000000000012322341001767                         090000540610640001104944588000001232297862008177540610640001110000000000000000002220000000000                 
1040001300200U 0600000000000000000000000000246400000000000000000000000000246400000000001232200000000000739400000000000000000000000000000020042010260420101900        000000000000000CIP COMPENSACAO               811                           
1040001300201T 0600249600300000286080D00000000000000000001               30042010000000000000000341043001                         090000540618820001104954588000000000097862009177540618820001300000000000000000002220000000000                 
1040001300202U 0600000000000000000000000000188200000000000000000000000000188200000000000941200000000000564800000000000000000000000000000020042010260420101900        000000000000000CIP COMPENSACAO               930                           
1040001300203T 0600249600300000286080D00000000000000000001               30042010000000000000000341006467                         090000540644070001104934588000000000097862009177540644070001300000000000000000002220000000000                 
1040001300204U 0600000000000000000000000000652000000000000000000000000000652000000000003259800000000001955800000000000000000000000000000020042010260420101900        000000000000000CIP COMPENSACAO               930                           
1040001300205T 0600249600300000286080D00000000000000000001               07101997000000000023181356001368                         090000540660550001104900000000002318197862009177540660550001300000000000000000002220000000000                 
1040001300206U 0600000000000000000000000000463600000000000000000000000000463600000000002318100000000001390900000000000000000000000000000020042010260420101900        000000000000000CIP COMPENSACAO               930                           
1040001300207T 0600249600300000286080D00000000000000000001               30042010000000000011550341001805                         090000541991530001104914588000001155097862008177541991530001110000000000000000002220000000000                 
1040001300208U 0600000000000000000000000000231000000000000000000000000000231000000000001155000000000000693000000000000000000000000000000020042010260420101900        000000000000000CIP COMPENSACAO               811                           
1040001300209T 0600249600300000286080D00000000000000000001               07101997000000000015617356001368                         090000542001180001104900000000001561797862009177542001180001300000000000000000002220000000000                 
1040001300210U 0600000000000000000000000000312300000000000000000000000000312300000000001561700000000000937100000000000000000000000000000020042010260420101900        000000000000000CIP COMPENSACAO               930                           
1040001300211T 0600249600300000286080D00000000000000000001               07101997000000000010037356001368                         090000542037990001104900000000001003797862009177542037990001300000000000000000002220000000000                 
1040001300212U 0600000000000000000000000000200700000000000000000000000000200700000000001003700000000000602300000000000000000000000000000020042010260420101900        000000000000000CIP COMPENSACAO               930                           
1040001300213T 0600249600300000286080D00000000000000000001               30042010000000000004798341003883                         090000542048960001104914588000000479897862008177542048960001110000000000000000002220000000000                 
1040001300214U 0600000000000000000000000000096000000000000000000000000000096000000000000479800000000000287800000000000000000000000000000020042010260420101900        000000000000000CIP COMPENSACAO               811                           
1040001300215T 0600249600300000286080D00000000000000000001               30042010000000000000000104040509                         090000542064380001104994588000000000097862009177542064380001300000000000000000002180000000000                 
1040001300216U 0600000000000000000000000000235000000000000000000000000000235000000000001175000000000000705000000000000000000000000000000020042010260420102100        000000000000000AUTOMACAO                     930                           
1040001300217T 0600249600300000286080D00000000000000000001               30042010000000000000000341007757                         090000542065370001104944588000000000097862009177542065370001300000000000000000002220000000000                 
1040001300218U 0600000000000000000000000000166300000000000000000000000000166300000000000831600000000000499000000000000000000000000000000020042010260420101900        000000000000000CIP COMPENSACAO               930                           
1040001300219T 0600249600300000286080D00000000000000000001               30042010000000000000000341006467                         090000542079070001104994588000000000097862009177542079070001300000000000000000002220000000000                 
1040001300220U 0600000000000000000000000000530700000000000000000000000000530700000000002653600000000001592200000000000000000000000000000020042010260420101900        000000000000000CIP COMPENSACAO               930                           
1040001300221T 0600249600300000286080D00000000000000000001               30042010000000000000000409072796                         090000542189950001104934588000000000097862009177542189950001300000000000000000002220000000000                 
1040001300222U 0600000000000000000000000000482700000000000000000000000000482700000000002413300000000001447900000000000000000000000000000020042010260420101900        000000000000000CIP COMPENSACAO               930                           
1040001300223T 0600249600300000286080D00000000000000000001               30042010000000000000000341087203                         090000542202070001104934588000000000097862009177542202070001300000000000000000002220000000000                 
1040001300224U 0600000000000000000000000000350100000000000000000000000000350100000000001750500000000001050300000000000000000000000000000020042010260420101900        000000000000000CIP COMPENSACAO               930                           
1040001300225T 0600249600300000286080D00000000000000000001               30042010000000000000000341042854                         090000542202720001104924588000000000097862009177542202720001300000000000000000002220000000000                 
1040001300226U 0600000000000000000000000000378600000000000000000000000000378600000000001893100000000001135900000000000000000000000000000020042010260420101900        000000000000000CIP COMPENSACAO               930                           
1040001300227T 0600249600300000286080D00000000000000000001               30042010000000000000000341002372                         090000542233910001104934588000000000097862009177542233910001300000000000000000002220000000000                 
1040001300228U 0600000000000000000000000001151500000000000000000000000001151500000000005757600000000003454600000000000000000000000000000020042010260420101900        000000000000000CIP COMPENSACAO               930                           
1040001300229T 0600249600300000286080D00000000000000000001               30042010000000000000000237002968                         090000542242090001104984588000000000097862009177542242090001300000000000000000002220000000000                 
1040001300230U 0600000000000000000000000000215100000000000000000000000000215100000000001075600000000000645400000000000000000000000000000020042010260420101900        000000000000000CIP COMPENSACAO               930                           
1040001300231T 0600249600300000286080D00000000000000000001               30042010000000000000000237011916                         090000542249440001104994588000000000097862009177542249440001300000000000000000002220000000000                 
1040001300232U 0600000000000000000000000000254000000000000000000000000000254000000000001270200000000000762200000000000000000000000000000020042010260420101900        000000000000000CIP COMPENSACAO               930                           
1040001300233T 0600249600300000286080D00000000000000000001               30042010000000000000000237037796                         090000542393630001104934588000000000097862009177542393630001300000000000000000002220000000000                 
1040001300234U 0600000000000000000000000000380800000000000000000000000000380800000000001903800000000001142200000000000000000000000000000020042010260420101900        000000000000000CIP COMPENSACAO               930                           
1040001300235T 0600249600300000286080D00000000000000000001               30042010000000000000000341006467                         090000542393710001104914588000000000097862009177542393710001300000000000000000002220000000000                 
1040001300236U 0600000000000000000000000000331300000000000000000000000000331300000000001656500000000000993900000000000000000000000000000020042010260420101900        000000000000000CIP COMPENSACAO               930                           
1040001300237T 0600249600300000286080D00000000000000000001               07101997000000000000000341000370                         090000542399340001104900000000000000097862008177542399340001110000000000000000002220000000000                 
1040001300238U 0600000000000000000000000000250000000000000000000000000000250000000000001250000000000000750000000000000000000000000000000020042010260420101900        000000000000000CIP COMPENSACAO               811                           
1040001300239T 0600249600300000286080D00000000000000000001               07101997000000000018146356001368                         090000542413360001104900000000001814697862009177542413360001300000000000000000002220000000000                 
1040001300240U 0600000000000000000000000000362900000000000000000000000000362900000000001814600000000001088800000000000000000000000000000020042010260420101900        000000000000000CIP COMPENSACAO               930                           
1040001300241T 0600249600300000286080D00000000000000000001               30042010000000000000000341006467                         090000542771730001104914588000000000097862009177542771730001300000000000000000002220000000000                 
1040001300242U 0600000000000000000000000000289100000000000000000000000000289100000000001445400000000000867200000000000000000000000000000020042010260420101900        000000000000000CIP COMPENSACAO               930                           
1040001300243T 0600249600300000286080D00000000000000000001               30042010000000000000000341007757                         090000542793020001104954588000000000097862009177542793020001300000000000000000002220000000000                 
1040001300244U 0600000000000000000000000000253400000000000000000000000000253400000000001267200000000000760400000000000000000000000000000020042010260420101900        000000000000000CIP COMPENSACAO               930                           
1040001300245T 0600249600300000286080D00000000000000000001               30042010000000000000000341002852                         090000542805730001104984588000000000097862009177542805730001300000000000000000002220000000000                 
1040001300246U 0600000000000000000000000000333000000000000000000000000000333000000000001665000000000000999000000000000000000000000000000020042010260420101900        000000000000000CIP COMPENSACAO               930                           
1040001300247T 0600249600300000286080D00000000000000000001               30042010000000000000000341005932                         090000542815140001104974588000000000097862009177542815140001300000000000000000002220000000000                 
1040001300248U 0600000000000000000000000000047300000000000000000000000000047300000000000236300000000000141700000000000000000000000000000020042010260420101900        000000000000000CIP COMPENSACAO               930                           
1040001300249T 0600249600300000286080D00000000000000000001               30042010000000000000000341006467                         090000542821990001104914588000000000097862009177542821990001300000000000000000002220000000000                 
1040001300250U 0600000000000000000000000000236000000000000000000000000000236000000000001180100000000000708100000000000000000000000000000020042010260420101900        000000000000000CIP COMPENSACAO               930                           
1040001300251T 0600249600300000286080D00000000000000000001               30042010000000000000000341005533                         090000542825460001104954588000000000097862009177542825460001300000000000000000002220000000000                 
1040001300252U 0600000000000000000000000000046900000000000000000000000000046900000000000234700000000000140900000000000000000000000000000020042010260420101900        000000000000000CIP COMPENSACAO               930                           
1040001300253T 0600249600300000286080D00000000000000000001               07101997000000000021998356001368                         090000542828430001104900000000002199897862009177542828430001300000000000000000002220000000000                 
1040001300254U 0600000000000000000000000000440000000000000000000000000000440000000000002199800000000001319800000000000000000000000000000020042010260420101900        000000000000000CIP COMPENSACAO               930                           
1040001300255T 0600249600300000286080D00000000000000000001               30042010000000000000000341016187                         090000542839160001104914588000000000097862009177542839160001300000000000000000002220000000000                 
1040001300256U 0600000000000000000000000000114400000000000000000000000000114400000000000571800000000000343000000000000000000000000000000020042010260420101900        000000000000000CIP COMPENSACAO               930                           
1040001300257T 0600249600300000286080D00000000000000000001               30042010000000000000000341029238                         090000543277050001104954588000000000097862009177543277050001300000000000000000002220000000000                 
1040001300258U 0600000000000000000000000000187900000000000000000000000000187900000000000939600000000000563800000000000000000000000000000020042010260420101900        000000000000000CIP COMPENSACAO               930                           
1040001300259T 0600249600300000286080D00000000000000000001               30042010000000000000000001015148                         090000543614070001104984588000000000097862009177543614070001300000000000000000002220000000000                 
1040001300260U 0600000000000000000000000000304300000000000000000000000000304300000000001521400000000000912800000000000000000000000000000020042010260420101900        000000000000000CIP COMPENSACAO               930                           
1040001300261T 0600249600300000286080D00000000000000000001               07101997000000000013883356001368                         090000543664550001104900000000001388397862009177543664550001300000000000000000002220000000000                 
1040001300262U 0600000000000000000000000000277700000000000000000000000000277700000000001388300000000000832900000000000000000000000000000020042010260420101900        000000000000000CIP COMPENSACAO               930                           
1040001300263T 0600249600300000286080D00000000000000000001               30042010000000000000000237002003                         090000543677430001104924588000000000097862009177543677430001300000000000000000002220000000000                 
1040001300264U 0600000000000000000000000000351500000000000000000000000000351500000000001757500000000001054500000000000000000000000000000020042010260420101900        000000000000000CIP COMPENSACAO               930                           
1040001300265T 0600249600300000286080D00000000000000000001               30042010000000000000000341007757                         090000543699210001104944588000000000097862009177543699210001300000000000000000002220000000000                 
1040001300266U 0600000000000000000000000000372900000000000000000000000000372900000000001864300000000001118500000000000000000000000000000020042010260420101900        000000000000000CIP COMPENSACAO               930                           
1040001300267T 0600249600300000286080D00000000000000000001               30042010000000000000000341004456                         090000544160520001104914588000000000097862009177544160520001300000000000000000002220000000000                 
1040001300268U 0600000000000000000000000000702200000000000000000000000000702200000000003511000000000002106600000000000000000000000000000020042010260420101900        000000000000000CIP COMPENSACAO               930                           
1040001300269T 0600249600300000286080D00000000000000000001               30042010000000000000000341007757                         090000544164250001104964588000000000097862009177544164250001300000000000000000002220000000000                 
1040001300270U 0600000000000000000000000000093900000000000000000000000000093900000000000469400000000000281600000000000000000000000000000020042010260420101900        000000000000000CIP COMPENSACAO               930                           
1040001300271T 0600249600300000286080D00000000000000000001               30042010000000000000000001003840                         090000544584430001104944588000000000097862009177544584430001300000000000000000002220000000000                 
1040001300272U 0600000000000000000000000000282700000000000000000000000000282700000000001413600000000000848200000000000000000000000000000020042010260420101900        000000000000000CIP COMPENSACAO               930                           
1040001300273T 0600249600300000286080D00000000000000000001               07101997000000000014485356001368                         090000544589060001104900000000001448597862009177544589060001300000000000000000002220000000000                 
1040001300274U 0600000000000000000000000000289700000000000000000000000000289700000000001448500000000000869100000000000000000000000000000020042010260420101900        000000000000000CIP COMPENSACAO               930                           
1040001300275T 0600249600300000286080D00000000000000000001               30042010000000000000000341007420                         090000544594580001104974588000000000097862009177544594580001300000000000000000002220000000000                 
1040001300276U 0600000000000000000000000001238900000000000000000000000001238900000000006194600000000003716800000000000000000000000000000020042010260420101900        000000000000000CIP COMPENSACAO               930                           
1040001300277T 0600249600300000286080D00000000000000000001               30042010000000000000000033006661                         090000544614470001104914588000000000097862009177544614470001300000000000000000002220000000000                 
1040001300278U 0600000000000000000000000000327300000000000000000000000000327300000000001636700000000000982100000000000000000000000000000020042010260420101900        000000000000000CIP COMPENSACAO               930                           
1040001300279T 0600249600300000286080D00000000000000000001               30042010000000000000000399002232                         090000544631530001104914588000000000097862009177544631530001300000000000000000002220000000000                 
1040001300280U 0600000000000000000000000000221200000000000000000000000000221200000000001105800000000000663400000000000000000000000000000020042010260420101900        000000000000000CIP COMPENSACAO               930                           
1040001300281T 0600249600300000286080D00000000000000000001               30042010000000000000000341007757                         090000544877490001104974588000000000097862009177544877490001300000000000000000002220000000000                 
1040001300282U 0600000000000000000000000000272100000000000000000000000000272100000000001360300000000000816100000000000000000000000000000020042010260420101900        000000000000000CIP COMPENSACAO               930                           
1040001300283T 0600249600300000286080D00000000000000000001               30042010000000000000000033021040                         090000545318680001104964588000000000097862009177545318680001300000000000000000002220000000000                 
1040001300284U 0600000000000000000000000000106100000000000000000000000000106100000000000530600000000000318400000000000000000000000000000020042010260420101900        000000000000000CIP COMPENSACAO               930                           
1040001300285T 0600249600300000286080D00000000000000000001               30042010000000000000000341091022                         090000545359920001104924588000000000097862009177545359920001300000000000000000002220000000000                 
1040001300286U 0600000000000000000000000000093900000000000000000000000000093900000000000469400000000000281600000000000000000000000000000020042010260420101900        000000000000000CIP COMPENSACAO               930                           
1040001300287T 0600249600300000286080D00000000000000000001               30042010000000000000000237014451                         090000545723590001104994588000000000097862009177545723590001300000000000000000002220000000000                 
1040001300288U 0600000000000000000000000000291400000000000000000000000000291400000000001457000000000000874200000000000000000000000000000020042010260420101900        000000000000000CIP COMPENSACAO               930                           
1040001300289T 0600249600300000286080D00000000000000000001               30042010000000000003201341001767                         090000545812280001104914588000000320197862008177545812280001110000000000000000002220000000000                 
1040001300290U 0600000000000000000000000000064000000000000000000000000000064000000000000320100000000000192100000000000000000000000000000020042010260420101900        000000000000000CIP COMPENSACAO               811                           
1040001300291T 0600249600300000286080D00000000000000000001               30042010000000000000000341027243                         090000546409900001104924588000000000097862009177546409900001300000000000000000002220000000000                 
1040001300292U 0600000000000000000000000007802600000000000000000000000007802600000000039012800000000023407600000000000000000000000000000020042010260420101900        000000000000000CIP COMPENSACAO               930                           
1040001300293T 0600249600300000286080D00000000000000000001               30042010000000000000000341029262                         090000547520350001104984588000000000097862009177547520350001300000000000000000002220000000000                 
1040001300294U 0600000000000000000000000000390000000000000000000000000000390000000000001949800000000001169800000000000000000000000000000020042010260420101900        000000000000000CIP COMPENSACAO               930                           
1040001300295T 0600249600300000286080D00000000000000000001               30042010000000000000000341003670                         090000547537360001104954588000000000097862009177547537360001300000000000000000002220000000000                 
1040001300296U 0600000000000000000000000000300300000000000000000000000000300300000000001501500000000000900900000000000000000000000000000020042010260420101900        000000000000000CIP COMPENSACAO               930                           
1040001300297T 0600249600300000286080D00000000000000000001               30042010000000000000000237024775                         090000549331140001104954588000000000097862009177549331140001300000000000000000002220000000000                 
1040001300298U 0600000000000000000000000000070400000000000000000000000000070400000000000351900000000000211100000000000000000000000000000020042010260420101900        000000000000000CIP COMPENSACAO               930                           
1040001300299T 0600249600300000286080D00000000000000000001               30042010000000000000000341007757                         090000549576910001104944588000000000097862009177549576910001300000000000000000002220000000000                 
1040001300300U 0600000000000000000000000000107300000000000000000000000000107300000000000536300000000000321700000000000000000000000000000020042010260420101900        000000000000000CIP COMPENSACAO               930                           
1040001300301T 0600249600300000286080D00000000000000000001               30042010000000000000000341007757                         090000550676800001104914588000000000097862009177550676800001300000000000000000002220000000000                 
1040001300302U 0600000000000000000000000000023000000000000000000000000000023000000000000114800000000000068800000000000000000000000000000020042010260420101900        000000000000000CIP COMPENSACAO               930                           
1040001300303T 0600249600300000286080D00000000000000000001               30042010000000000000000341007757                         090000550677060001104914588000000000097862009177550677060001300000000000000000002220000000000                 
1040001300304U 0600000000000000000000000000051000000000000000000000000000051000000000000255200000000000153200000000000000000000000000000020042010260420101900        000000000000000CIP COMPENSACAO               930                           
1040001300305T 0600249600300000286080D00000000000000000001               07101997000000000012365356001368                         090000551506920001104900000000001236597862009177551506920001300000000000000000002220000000000                 
1040001300306U 0600000000000000000000000000247300000000000000000000000000247300000000001236500000000000741900000000000000000000000000000020042010260420101900        000000000000000CIP COMPENSACAO               930                           
1040001300307T 0600249600300000286080D00000000000000000001               30042010000000000000000237011916                         090000551687690001104934588000000000097862009177551687690001300000000000000000002220000000000                 
1040001300308U 0600000000000000000000000000081200000000000000000000000000081200000000000406000000000000243600000000000000000000000000000020042010260420101900        000000000000000CIP COMPENSACAO               930                           
1040001300309T 0600249600300000286080D00000000000000000001               30042010000000000000000341006467                         090000552123100001104974588000000000097862009177552123100001300000000000000000002220000000000                 
1040001300310U 0600000000000000000000000000062000000000000000000000000000062000000000000310000000000000186000000000000000000000000000000020042010260420101900        000000000000000CIP COMPENSACAO               930                           
1040001300311T 0600249600300000286080D00000000000000000001               30042010000000000000000001003840                         090000552151720001104994588000000000097862009177552151720001300000000000000000002220000000000                 
1040001300312U 0600000000000000000000000000091800000000000000000000000000091800000000000459200000000000275600000000000000000000000000000020042010260420101900        000000000000000CIP COMPENSACAO               930                           
1040001300313T 0600249600300000286080D00000000000000000001               30042010000000000000000237026913                         090000552198440001104954588000000000097862009177552198440001300000000000000000002220000000000                 
1040001300314U 0600000000000000000000000000221500000000000000000000000000221500000000001107700000000000664700000000000000000000000000000020042010260420101900        000000000000000CIP COMPENSACAO               930                           
1040001300315T 0600249600300000286080D00000000000000000001               30042010000000000000000341064360                         090000553624530001104984588000000000097862009177553624530001300000000000000000002220000000000                 
1040001300316U 0600000000000000000000000000307100000000000000000000000000307100000000001535400000000000921200000000000000000000000000000020042010260420101900        000000000000000CIP COMPENSACAO               930                           
1040001300317T 0600249600300000286080D00000000000000000001               30042010000000000000000341016659                         090000553977230001104924588000000000097862009177553977230001300000000000000000002220000000000                 
1040001300318U 0600000000000000000000000000074900000000000000000000000000074900000000000374400000000000224600000000000000000000000000000020042010260420101900        000000000000000CIP COMPENSACAO               930                           
1040001300319T 0600249600300000286080D00000000000000000001               07101997000000000018935356001368                         090000553977560001104900000000001893597862009177553977560001300000000000000000002220000000000                 
1040001300320U 0600000000000000000000000000378700000000000000000000000000378700000000001893500000000001136100000000000000000000000000000020042010260420101900        000000000000000CIP COMPENSACAO               930                           
1040001300321T 0600249600300000286080D00000000000000000001               30042010000000000000000356003735                         090000553987210001104904588000000000097862009177553987210001300000000000000000002220000000000                 
1040001300322U 0600000000000000000000000000161200000000000000000000000000161200000000000806200000000000483800000000000000000000000000000020042010260420101900        000000000000000CIP COMPENSACAO               930                           
1040001300323T 0600249600300000286080D00000000000000000001               30042010000000000029864237005282                         090000553989290001104934588000002986497862009177553989290001600000000000000000002220000000000                 
1040001300324U 0600000000000000000000000000597300000000000000000000000000597300000000002986400000000001791800000000000000000000000000000020042010260420101900        000000000000000CIP COMPENSACAO               960                           
1040001300325T 0600249600300000286080D00000000000000000001               30042010000000000008756409005525                         090000554390040001104924588000000875697862008177554390040001110000000000000000002220000000000                 
1040001300326U 0600000000000000000000000000175100000000000000000000000000175100000000000875600000000000525400000000000000000000000000000020042010260420101900        000000000000000CIP COMPENSACAO               811                           
1040001300327T 0600249600300000286080D00000000000000000001               30042010000000000000000409073512                         090000554415050001104984588000000000097862009177554415050001300000000000000000002220000000000                 
1040001300328U 0600000000000000000000000000220900000000000000000000000000220900000000001104500000000000662700000000000000000000000000000020042010260420101900        000000000000000CIP COMPENSACAO               930                           
1040001300329T 0600249600300000286080D00000000000000000001               30042010000000000012813341029483                         090000554420160001104914588000001281397862008177554420160001110000000000000000002220000000000                 
1040001300330U 0600000000000000000000000000256300000000000000000000000000256300000000001281300000000000768700000000000000000000000000000020042010260420101900        000000000000000CIP COMPENSACAO               811                           
1040001300331T 0600249600300000286080D00000000000000000001               30042010000000000000000341044652                         090000556857390001104964588000000000097862009177556857390001300000000000000000002220000000000                 
1040001300332U 0600000000000000000000000000049000000000000000000000000000049000000000000244900000000000146900000000000000000000000000000020042010260420101900        000000000000000CIP COMPENSACAO               930                           
1040001300333T 0600249600300000286080D00000000000000000001               07101997000000000021400356001368                         090000562767280001104900000000002140097862009177562767280001300000000000000000002220000000000                 
1040001300334U 0600000000000000000000000000428000000000000000000000000000428000000000002140000000000001284000000000000000000000000000000020042010260420101900        000000000000000CIP COMPENSACAO               930                           
1040001300335T 0600249600300000286080D00000000000000000001               30042010000000000000000409073512                         090000567106190001104934588000000000097862009177567106190001300000000000000000002220000000000                 
1040001300336U 0600000000000000000000000000452300000000000000000000000000452300000000002261300000000001356700000000000000000000000000000020042010260420101900        000000000000000CIP COMPENSACAO               930                           
1040001300337T 0600249600300000286080D00000000000000000001               30042010000000000000000341007757                         090000568135790001104934588000000000097862009177568135790001300000000000000000002220000000000                 
1040001300338U 0600000000000000000000000000349200000000000000000000000000349200000000001745900000000001047500000000000000000000000000000020042010260420101900        000000000000000CIP COMPENSACAO               930                           
1040001300339T 0600249600300000286080D00000000000000000001               30042010000000000000000151012017                         090000569517260001104994588000000000097862009177569517260001300000000000000000002220000000000                 
1040001300340U 0600000000000000000000000000364300000000000000000000000000364300000000001821300000000001092700000000000000000000000000000020042010260420101900        000000000000000CIP COMPENSACAO               930                           
1040001300341T 0600249600300000286080D00000000000000000001               30042010000000000000000237023264                         090000570651200001104944588000000000097862009177570651200001300000000000000000002220000000000                 
1040001300342U 0600000000000000000000000000044900000000000000000000000000044900000000000224500000000000134700000000000000000000000000000020042010260420101900        000000000000000CIP COMPENSACAO               930                           
1040001300343T 0600249600300000286080D00000000000000000001               30042010000000000000000033006564                         090000571224670001104934588000000000097862009177571224670001300000000000000000002220000000000                 
1040001300344U 0600000000000000000000000000044900000000000000000000000000044900000000000224500000000000134700000000000000000000000000000020042010260420101900        000000000000000CIP COMPENSACAO               930                           
1040001300345T 0600249600300000286080D00000000000000000001               30042010000000000000000237000957                         090000572841010001104914588000000000097862009177572841010001300000000000000000002220000000000                 
1040001300346U 0600000000000000000000000001451300000000000000000000000001451300000000007256300000000004353700000000000000000000000000000020042010260420101900        000000000000000CIP COMPENSACAO               930                           
1040001300347T 0600249600300000286080D00000000000000000001               30042010000000000000000237001066                         090000572846060001104944588000000000097862009177572846060001300000000000000000002220000000000                 
1040001300348U 0600000000000000000000000000091800000000000000000000000000091800000000000459200000000000275600000000000000000000000000000020042010260420101900        000000000000000CIP COMPENSACAO               930                           
1040001300349T 0600249600300000286080D00000000000000000001               30042010000000000000000409073512                         090000577495900001104944588000000000097862009177577495900001300000000000000000002220000000000                 
1040001300350U 0600000000000000000000000000296200000000000000000000000000296200000000001481000000000000888600000000000000000000000000000020042010260420101900        000000000000000CIP COMPENSACAO               930                           
1040001300351T 0600249600300000286080D00000000000000000001               07101997000000000023747356001368                         090000578066550001104900000000002374797862009177578066550001300000000000000000002220000000000                 
1040001300352U 0600000000000000000000000000474900000000000000000000000000474900000000002374700000000001424900000000000000000000000000000020042010260420101900        000000000000000CIP COMPENSACAO               930                           
1040001300353T 0600249600300000286080D00000000000000000001               07101997000000000000000341007862                         090000579999970001104900000000000000097862009177579999970001300000000000000000002220000000000                 
1040001300354U 0600000000000000000000000000341600000000000000000000000000341600000000001708000000000001024800000000000000000000000000000020042010260420101900        000000000000000CIP COMPENSACAO               930                           
1040001300355T 0600249600300000286080D00000000000000000001               07101997000000000015889356001368                         090000580047300001104900000000001588997862009177580047300001300000000000000000002220000000000                 
1040001300356U 0600000000000000000000000000317800000000000000000000000000317800000000001588900000000000953300000000000000000000000000000020042010260420101900        000000000000000CIP COMPENSACAO               930                           
1040001300357T 0600249600300000286080D00000000000000000001               30042010000000000000000341006467                         090000581011630001104924588000000000097862009177581011630001300000000000000000002220000000000                 
1040001300358U 0600000000000000000000000000097500000000000000000000000000097500000000000487700000000000292700000000000000000000000000000020042010260420101900        000000000000000CIP COMPENSACAO               930                           
1040001300359T 0600249600300000286080D00000000000000000001               30042010000000000000000237002968                         090000581193630001104934588000000000097862009177581193630001300000000000000000002220000000000                 
1040001300360U 0600000000000000000000000000049000000000000000000000000000049000000000000244900000000000146900000000000000000000000000000020042010260420101900        000000000000000CIP COMPENSACAO               930                           
1040001300361T 0600249600300000286080D00000000000000000001               30042010000000000000000341001880                         090000584091600001104994588000000000097862009177584091600001300000000000000000002220000000000                 
1040001300362U 0600000000000000000000000000390800000000000000000000000000390800000000001953800000000001172200000000000000000000000000000020042010260420101900        000000000000000CIP COMPENSACAO               930                           
1040001300363T 0600249600300000286080D00000000000000000001               30042010000000000000000001003840                         090000584137170001104914588000000000097862009177584137170001300000000000000000002220000000000                 
1040001300364U 0600000000000000000000000000238400000000000000000000000000238400000000001192200000000000715400000000000000000000000000000020042010260420101900        000000000000000CIP COMPENSACAO               930                           
1040001300365T 0600249600300000286080D00000000000000000001               30042010000000000000000399004685                         090000586233070001104934588000000000097862009177586233070001300000000000000000002220000000000                 
1040001300366U 0600000000000000000000000000023100000000000000000000000000023100000000000115400000000000069200000000000000000000000000000020042010260420101900        000000000000000CIP COMPENSACAO               930                           
1040001300367T 0600249600300000286080D00000000000000000001               30042010000000000000000237002976                         090000586245450001104994588000000000097862009177586245450001300000000000000000002220000000000                 
1040001300368U 0600000000000000000000000000294700000000000000000000000000294700000000001473400000000000884000000000000000000000000000000020042010260420101900        000000000000000CIP COMPENSACAO               930                           
1040001300369T 0600249600300000286080D00000000000000000001               30042010000000000000000341007757                         090000587257550001104914588000000000097862009177587257550001300000000000000000002220000000000                 
1040001300370U 0600000000000000000000000000153600000000000000000000000000153600000000000768100000000000460900000000000000000000000000000020042010260420101900        000000000000000CIP COMPENSACAO               930                           
1040001300371T 0600249600300000286080D00000000000000000001               30042010000000000000000237003123                         090000587263570001104914588000000000097862009177587263570001300000000000000000002220000000000                 
1040001300372U 0600000000000000000000000000324500000000000000000000000000324500000000001622500000000000973500000000000000000000000000000020042010260420101900        000000000000000CIP COMPENSACAO               930                           
1040001300373T 0600249600300000286080D00000000000000000001               30042010000000000000000341000744                         090000587275120001104924588000000000097862009177587275120001300000000000000000002220000000000                 
1040001300374U 0600000000000000000000000000335900000000000000000000000000335900000000001679700000000001007900000000000000000000000000000020042010260420101900        000000000000000CIP COMPENSACAO               930                           
1040001300375T 0600249600300000286080D00000000000000000001               30042010000000000000000237000981                         090000588022160001104954588000000000097862009177588022160001300000000000000000002220000000000                 
1040001300376U 0600000000000000000000000000093900000000000000000000000000093900000000000469400000000000281600000000000000000000000000000020042010260420101900        000000000000000CIP COMPENSACAO               930                           
1040001300377T 0600249600300000286080D00000000000000000001               30042010000000000008578237008222                         090000589175840001104984588000000857897862008177589175840001110000000000000000002220000000000                 
1040001300378U 0600000000000000000000000000171600000000000000000000000000171600000000000857800000000000514600000000000000000000000000000020042010260420101900        000000000000000CIP COMPENSACAO               811                           
1040001300379T 0600249600300000286080D00000000000000000001               30042010000000000000000341002372                         090000589250330001104944588000000000097862009177589250330001300000000000000000002220000000000                 
1040001300380U 0600000000000000000000000000430600000000000000000000000000430600000000002153100000000001291900000000000000000000000000000020042010260420101900        000000000000000CIP COMPENSACAO               930                           
1040001300381T 0600249600300000286080D00000000000000000001               30042010000000000000000151003905                         090000589259830001104974588000000000097862009177589259830001300000000000000000002220000000000                 
1040001300382U 0600000000000000000000000000061200000000000000000000000000061200000000000306200000000000183800000000000000000000000000000020042010260420101900        000000000000000CIP COMPENSACAO               930                           
1040001300383T 0600249600300000286080D00000000000000000001               30042010000000000000000001029629                         090000590875360001104914588000000000097862009177590875360001300000000000000000002220000000000                 
1040001300384U 0600000000000000000000000001077800000000000000000000000001077800000000005389200000000003233600000000000000000000000000000020042010260420101900        000000000000000CIP COMPENSACAO               930                           
1040001300385T 0600249600300000286080D00000000000000000001               30042010000000000000000341087203                         090000590901670001104924588000000000097862009177590901670001300000000000000000002220000000000                 
1040001300386U 0600000000000000000000000000480100000000000000000000000000480100000000002400300000000001440100000000000000000000000000000020042010260420101900        000000000000000CIP COMPENSACAO               930                           
1040001300387T 0600249600300000286080D00000000000000000001               30042010000000000000000409073512                         090000591748700001104944588000000000097862009177591748700001300000000000000000002220000000000                 
1040001300388U 0600000000000000000000000000298800000000000000000000000000298800000000001494200000000000896600000000000000000000000000000020042010260420101900        000000000000000CIP COMPENSACAO               930                           
1040001300389T 0600249600300000286080D00000000000000000001               30042010000000000000000341007757                         090000591776590001104914588000000000097862009177591776590001300000000000000000002220000000000                 
1040001300390U 0600000000000000000000000000077300000000000000000000000000077300000000000386400000000000231800000000000000000000000000000020042010260420101900        000000000000000CIP COMPENSACAO               930                           
1040001300391T 0600249600300000286080D00000000000000000001               30042010000000000000000341003549                         090000592740190001104984588000000000097862009177592740190001300000000000000000002220000000000                 
1040001300392U 0600000000000000000000000000201800000000000000000000000000201800000000001008800000000000605200000000000000000000000000000020042010260420101900        000000000000000CIP COMPENSACAO               930                           
1040001300393T 0600249600300000286080D00000000000000000001               30042010000000000014676237002003                         090000593976200001104934588000001467697862008177593976200001110000000000000000002220000000000                 
1040001300394U 0600000000000000000000000000293500000000000000000000000000293500000000001467600000000000880600000000000000000000000000000020042010260420101900        000000000000000CIP COMPENSACAO               811                           
1040001300395T 0600249600300000286080D00000000000000000001               30042010000000000002710399003514                         090000594800950001104914588000000271097862008177594800950001110000000000000000002220000000000                 
1040001300396U 0600000000000000000000000000054200000000000000000000000000054200000000000271000000000000162600000000000000000000000000000020042010260420101900        000000000000000CIP COMPENSACAO               811                           
1040001300397T 0600249600300000286080D00000000000000000001               30042010000000000000000033002607                         090000594825880001104914588000000000097862009177594825880001300000000000000000002220000000000                 
1040001300398U 0600000000000000000000000000053400000000000000000000000000053400000000000267100000000000160300000000000000000000000000000020042010260420101900        000000000000000CIP COMPENSACAO               930                           
1040001300399T 0600249600300000286080D00000000000000000001               07101997000000000016226356001368                         090000595782860001104900000000001622697862009177595782860001300000000000000000002220000000000                 
1040001300400U 0600000000000000000000000000324500000000000000000000000000324500000000001622600000000000973600000000000000000000000000000020042010260420101900        000000000000000CIP COMPENSACAO               930                           
1040001300401T 0600249600300000286080D00000000000000000001               30042010000000000000000341087203                         090000595856950001104914588000000000097862009177595856950001300000000000000000002220000000000                 
1040001300402U 0600000000000000000000000000293200000000000000000000000000293200000000001465900000000000879500000000000000000000000000000020042010260420101900        000000000000000CIP COMPENSACAO               930                           
1040001300403T 0600249600300000286080D00000000000000000001               30042010000000000000000341004456                         090000599519620001104954588000000000097862009177599519620001300000000000000000002220000000000                 
1040001300404U 0600000000000000000000000000146700000000000000000000000000146700000000000733300000000000439900000000000000000000000000000020042010260420101900        000000000000000CIP COMPENSACAO               930                           
1040001300405T 0600249600300000286080D00000000000000000001               30042010000000000000000341006467                         090000602588110001104914588000000000097862009177602588110001300000000000000000002220000000000                 
1040001300406U 0600000000000000000000000000343800000000000000000000000000343800000000001718900000000001031300000000000000000000000000000020042010260420101900        000000000000000CIP COMPENSACAO               930                           
1040001300407T 0600249600300000286080D00000000000000000001               30042010000000000000000341006467                         090000602591730001104974588000000000097862009177602591730001300000000000000000002220000000000                 
1040001300408U 0600000000000000000000000000216700000000000000000000000000216700000000001083600000000000650200000000000000000000000000000020042010260420101900        000000000000000CIP COMPENSACAO               930                           
1040001300409T 0600249600300000286080D00000000000000000001               30042010000000000000000341001880                         090000602622270001104924588000000000097862009177602622270001300000000000000000002220000000000                 
1040001300410U 0600000000000000000000000000439000000000000000000000000000439000000000002195000000000001317000000000000000000000000000000020042010260420101900        000000000000000CIP COMPENSACAO               930                           
1040001300411T 0600249600300000286080D00000000000000000001               30042010000000000000000001003840                         090000602642720001104924588000000000097862009177602642720001300000000000000000002220000000000                 
1040001300412U 0600000000000000000000000000074000000000000000000000000000074000000000000370000000000000222000000000000000000000000000000020042010260420101900        000000000000000CIP COMPENSACAO               930                           
