10400000         243070481000114186200              00249600300000286080SINEMPEDIFPORTCAB MUN SP      CAIXA ECONOMICA FEDERAL                 20507201004183400130206000000                                                                     
10400011T01  030 2043070481000114186200              00249600300000286080SINEMPEDIFPORTCAB MUN SP      200501                                  000000                                  000000000507201000000000                                 
1040001300001T 0600249600300000286080D00000000000000000001               30062010000000000002896341000485                         090000000352270001104914649000000289697862006177000352270001810000000000000000002220000000000                 
1040001300002U 0600000000000000000000000000057900000000000000000000000000057900000000000289600000000000173800000000000000000000000000000030062010050720101900        000000000000000CIP COMPENSACAO               681                           
1040001300003T 0600249600300000286080D00000000000000000001               07101997000000000002250356001368                         090000000435058800104900000000000225097862008177000435058800110000000000000000002220000000000                 
1040001300004U 0600000000000000000000000000045000000000000000000000000000045000000000000225000000000000135000000000000000000000000000000030062010050720101900        000000000000000CIP COMPENSACAO               811                           
1040001300005T 0600249600300000286080D00000000000000000001               30072010000000000000000237001317                         090000002190206050104914679000000000097862009177002190206050300000000000000000002220000000000                 
1040001300006U 0600000000000000000000000000050000000000000000000000000000050000000000000249900000000000149900000000000000000000000000000030062010050720101900        000000000000000CIP COMPENSACAO               930                           
1040001300007T 0600249600300000286080D00000000000000000001               30072010000000000000000422000345                         090000003515340001104954679000000000097862009177003515340001300000000000000000002220000000000                 
1040001300008U 0600000000000000000000000000044900000000000000000000000000044900000000000224500000000000134700000000000000000000000000000030062010050720101900        000000000000000CIP COMPENSACAO               930                           
1040001300009T 0600249600300000286080D00000000000000000001               30062010000000000002650422000183                         090000004614790010104924649000000265097862006177004614790010550000000000000000002220000000000                 
1040001300010U 0600000000000000000000000000053000000000000000000000000000053000000000000265000000000000159000000000000000000000000000000030062010050720101900        000000000000000CIP COMPENSACAO               655                           
1040001300011T 0600249600300000286080D00000000000000000001               30062010000000000003936237019453                         090000004647330001104914649000000393697862008177004647330001110000000000000000002220000000000                 
1040001300012U 0600000000000000000000000000078700000000000000000000000000078700000000000393600000000000236200000000000000000000000000000030062010050720101900        000000000000000CIP COMPENSACAO               811                           
1040001300013T 0600249600300000286080D00000000000000000001               30062010000000000000000237012297                         090000007154280001104984649000000000097862009177007154280001300000000000000000002220000000000                 
1040001300014U 0600000000000000000000000000049900000000000000000000000000049900000000000249400000000000149600000000000000000000000000000030062010050720101900        000000000000000CIP COMPENSACAO               930                           
1040001300015T 0600249600300000286080D00000000000000000001               07101997000000000000000341001856                         090000007387720001104900000000000000097862008177007387720001110000000000000000002220000000000                 
1040001300016U 0600000000000000000000000000046700000000000000000000000000046700000000000233300000000000139900000000000000000000000000000030062010050720101900        000000000000000CIP COMPENSACAO               811                           
1040001300017T 0600249600300000286080D00000000000000000001               30062010000000000002323237031917                         090000013147880001104954649000000232397862008177013147880001110000000000000000002220000000000                 
1040001300018U 0600000000000000000000000000046500000000000000000000000000046500000000000232300000000000139300000000000000000000000000000030062010050720101900        000000000000000CIP COMPENSACAO               811                           
1040001300019T 0600249600300000286080D00000000000000000001               30062010000000000002696237032964                         090000013920600001104914649000000269697862008177013920600001110000000000000000002220000000000                 
1040001300020U 0600000000000000000000000000053900000000000000000000000000053900000000000269600000000000161800000000000000000000000000000030062010050720101900        000000000000000CIP COMPENSACAO               811                           
1040001300021T 0600249600300000286080D00000000000000000001               30062010000000000000000237037796                         090000014069010001104954649000000000097862009177014069010001300000000000000000002220000000000                 
1040001300022U 0600000000000000000000000000051700000000000000000000000000051700000000000258600000000000155200000000000000000000000000000030062010050720101900        000000000000000CIP COMPENSACAO               930                           
1040001300023T 0600249600300000286080D00000000000000000001               30062010000000000003374341001708                         090000015256280001104944649000000337497862008177015256280001110000000000000000002220000000000                 
1040001300024U 0600000000000000000000000000067500000000000000000000000000067500000000000337400000000000202400000000000000000000000000000030062010050720101900        000000000000000CIP COMPENSACAO               811                           
1040001300025T 0600249600300000286080D00000000000000000001               30062010000000000002245341007358                         090000015578110001104914649000000224597862008177015578110001110000000000000000002220000000000                 
1040001300026U 0600000000000000000000000000044900000000000000000000000000044900000000000224500000000000134700000000000000000000000000000030062010050720101900        000000000000000CIP COMPENSACAO               811                           
1040001300027T 0600249600300000286080D00000000000000000001               30062010000000000002245356012050                         090000015797940001104904649000000224597862008177015797940001110000000000000000002220000000000                 
1040001300028U 0600000000000000000000000000044900000000000000000000000000044900000000000224500000000000134700000000000000000000000000000030062010050720101900        000000000000000CIP COMPENSACAO               811                           
1040001300029T 0600249600300000286080D00000000000000000001               30062010000000000002250341000370                         090000016026458840104914649000000225097862008177016026458840110000000000000000002220000000000                 
1040001300030U 0600000000000000000000000000045000000000000000000000000000045000000000000225000000000000135000000000000000000000000000000030062010050720101900        000000000000000CIP COMPENSACAO               811                           
1040001300031T 0600249600300000286080D00000000000000000001               30062010000000000000000237037907                         090000017158630001104994649000000000097862009177017158630001300000000000000000002220000000000                 
1040001300032U 0600000000000000000000000000047000000000000000000000000000047000000000000235000000000000141000000000000000000000000000000030062010050720101900        000000000000000CIP COMPENSACAO               930                           
1040001300033T 0600249600300000286080D00000000000000000001               30062010000000000005357341003336                         090000017687320001104944649000000535797862008177017687320001110000000000000000002220000000000                 
1040001300034U 0600000000000000000000000000107100000000000000000000000000107100000000000535700000000000321500000000000000000000000000000030062010050720101900        000000000000000CIP COMPENSACAO               811                           
1040001300035T 0600249600300000286080D00000000000000000001               30062010000000000006650341002623                         090000023955940001104944649000000665097862008177023955940001110000000000000000002220000000000                 
1040001300036U 0600000000000000000000000000133000000000000000000000000000133000000000000665000000000000399000000000000000000000000000000030062010050720101900        000000000000000CIP COMPENSACAO               811                           
1040001300037T 0600249600300000286080D00000000000000000001               30062010000000000002579341003506                         090000026793180001104914649000000257997862008177026793180001110000000000000000002220000000000                 
1040001300038U 0600000000000000000000000000051600000000000000000000000000051600000000000257900000000000154700000000000000000000000000000030062010050720101900        000000000000000CIP COMPENSACAO               811                           
1040001300039T 0600249600300000286080D00000000000000000001               30062010000000000012579237038571                         090000027251510001104914649000001257997862008177027251510001110000000000000000002220000000000                 
1040001300040U 0600000000000000000000000000251600000000000000000000000000251600000000001257900000000000754700000000000000000000000000000030062010050720101900        000000000000000CIP COMPENSACAO               811                           
1040001300041T 0600249600300000286080D00000000000000000001               30062010000000000000000341001902                         090000030709650001104954649000000000097862009177030709650001300000000000000000002220000000000                 
1040001300042U 0600000000000000000000000000304200000000000000000000000000304200000000001520800000000000912400000000000000000000000000000030062010050720101900        000000000000000CIP COMPENSACAO               930                           
1040001300043T 0600249600300000286080D00000000000000000001               30062010000000000002800033022713                         090000031666930001104924649000000280097862008177031666930001110000000000000000002220000000000                 
1040001300044U 0600000000000000000000000000056000000000000000000000000000056000000000000280000000000000168000000000000000000000000000000030062010050720101900        000000000000000CIP COMPENSACAO               811                           
1040001300045T 0600249600300000286080D00000000000000000001               30062010000000000000000237033804                         090000031666980001104974649000000000097862009177031666980001300000000000000000002220000000000                 
1040001300046U 0600000000000000000000000000109100000000000000000000000000109100000000000545500000000000327300000000000000000000000000000030062010050720101900        000000000000000CIP COMPENSACAO               930                           
1040001300047T 0600249600300000286080D00000000000000000001               30062010000000000007544341029378                         090000035268310001104914649000000754497862008177035268310001110000000000000000002220000000000                 
1040001300048U 0600000000000000000000000000150900000000000000000000000000150900000000000754400000000000452600000000000000000000000000000030062010050720101900        000000000000000CIP COMPENSACAO               811                           
1040001300049T 0600249600300000286080D00000000000000000001               30062010000000000000000237037907                         090000035467370001104914649000000000097862009177035467370001300000000000000000002220000000000                 
1040001300050U 0600000000000000000000000000058000000000000000000000000000058000000000000290000000000000174000000000000000000000000000000030062010050720101900        000000000000000CIP COMPENSACAO               930                           
1040001300051T 0600249600300000286080D00000000000000000001               30062010000000000002350341001805                         090000035928860001104974649000000235097862007177035928860001010000000000000000002220000000000                 
1040001300052U 0600000000000000000000000000047000000000000000000000000000047000000000000235000000000000141000000000000000000000000000000030062010050720101900        000000000000000CIP COMPENSACAO               701                           
1040001300053T 0600249600300000286080D00000000000000000001               30062010000000000007030341016640                         090000036737190001104924649000000703097862008177036737190001110000000000000000002220000000000                 
1040001300054U 0600000000000000000000000000140600000000000000000000000000140600000000000703000000000000421800000000000000000000000000000030062010050720101900        000000000000000CIP COMPENSACAO               811                           
1040001300055T 0600249600300000286080D00000000000000000001               30062010000000000002245341020001                         090000037471040001104944649000000224597862008177037471040001110000000000000000002220000000000                 
1040001300056U 0600000000000000000000000000044900000000000000000000000000044900000000000224500000000000134700000000000000000000000000000030062010050720101900        000000000000000CIP COMPENSACAO               811                           
1040001300057T 0600249600300000286080D00000000000000000001               30062010000000000000000356006890                         090000037543830001104904649000000000097862009177037543830001300000000000000000002220000000000                 
1040001300058U 0600000000000000000000000000066000000000000000000000000000066000000000000330000000000000198000000000000000000000000000000030062010050720101900        000000000000000CIP COMPENSACAO               930                           
1040001300059T 0600249600300000286080D00000000000000000001               30062010000000000009982341016080                         090000037683340001104914649000000998297862008177037683340001110000000000000000002220000000000                 
1040001300060U 0600000000000000000000000000199600000000000000000000000000199600000000000998200000000000599000000000000000000000000000000030062010050720101900        000000000000000CIP COMPENSACAO               811                           
1040001300061T 0600249600300000286080D00000000000000000001               30062010000000000000000356005630                         090000038192890001104904649000000000097862009177038192890001300000000000000000002220000000000                 
1040001300062U 0600000000000000000000000000142900000000000000000000000000142900000000000714500000000000428700000000000000000000000000000030062010050720101900        000000000000000CIP COMPENSACAO               930                           
1040001300063T 0600249600300000286080D00000000000000000001               30062010000000000000000237002968                         090000038444350001104924649000000000097862009177038444350001300000000000000000002220000000000                 
1040001300064U 0600000000000000000000000000049500000000000000000000000000049500000000000247300000000000148300000000000000000000000000000030062010050720101900        000000000000000CIP COMPENSACAO               930                           
1040001300065T 0600249600300000286080D00000000000000000001               30062010000000000005671341007420                         090000038591510001104974649000000567197862008177038591510001110000000000000000002220000000000                 
1040001300066U 0600000000000000000000000000113400000000000000000000000000113400000000000567100000000000340300000000000000000000000000000030062010050720101900        000000000000000CIP COMPENSACAO               811                           
1040001300067T 0600249600300000286080D00000000000000000001               30062010000000000000000237025747                         090000039039140001104914649000000000097862009177039039140001300000000000000000002220000000000                 
1040001300068U 0600000000000000000000000000133900000000000000000000000000133900000000000669600000000000401800000000000000000000000000000030062010050720101900        000000000000000CIP COMPENSACAO               930                           
1040001300069T 0600249600300000286080D00000000000000000001               30062010000000000000000237025747                         090000039039140001104914649000000000097862009177039039140001300000000000000000002220000000000                 
1040001300070U 0600000000000000000000000000060200000000000000000000000000060200000000000300900000000000180500000000000000000000000000000030062010050720101900        000000000000000CIP COMPENSACAO               930                           
1040001300071T 0600249600300000286080D00000000000000000001               30062010000000000005114033022713                         090000039181210001104914649000000511497862008177039181210001110000000000000000002220000000000                 
1040001300072U 0600000000000000000000000000102300000000000000000000000000102300000000000511400000000000306800000000000000000000000000000030062010050720101900        000000000000000CIP COMPENSACAO               811                           
1040001300073T 0600249600300000286080D00000000000000000001               30062010000000000006000237033910                         090000039195070001104974649000000600097862008177039195070001110000000000000000002220000000000                 
1040001300074U 0600000000000000000000000000120000000000000000000000000000120000000000000600000000000000360000000000000000000000000000000030062010050720101900        000000000000000CIP COMPENSACAO               811                           
1040001300075T 0600249600300000286080D00000000000000000001               30062010000000000003124341007358                         090000039483440001104954649000000312497862008177039483440001110000000000000000002220000000000                 
1040001300076U 0600000000000000000000000000062500000000000000000000000000062500000000000312400000000000187400000000000000000000000000000030062010050720101900        000000000000000CIP COMPENSACAO               811                           
1040001300077T 0600249600300000286080D00000000000000000001               30062010000000000013921341002852                         090000039889800001104914649000001392197862008177039889800001110000000000000000002220000000000                 
1040001300078U 0600000000000000000000000000278400000000000000000000000000278400000000001392100000000000835300000000000000000000000000000030062010050720101900        000000000000000CIP COMPENSACAO               811                           
1040001300079T 0600249600300000286080D00000000000000000001               30062010000000000003174356009644                         090000039940070001104904649000000317497862008177039940070001110000000000000000002220000000000                 
1040001300080U 0600000000000000000000000000063500000000000000000000000000063500000000000317400000000000190400000000000000000000000000000030062010050720101900        000000000000000CIP COMPENSACAO               811                           
1040001300081T 0600249600300000286080D00000000000000000001               30062010000000000000000356004090                         090000040008450001104904649000000000097862009177040008450001300000000000000000002220000000000                 
1040001300082U 0600000000000000000000000000191900000000000000000000000000191900000000000959400000000000575600000000000000000000000000000030062010050720101900        000000000000000CIP COMPENSACAO               930                           
1040001300083T 0600249600300000286080D00000000000000000001               30062010000000000000000356008532                         090000040096620001104904649000000000097862009177040096620001300000000000000000002220000000000                 
1040001300084U 0600000000000000000000000000093900000000000000000000000000093900000000000469600000000000281800000000000000000000000000000030062010050720101900        000000000000000CIP COMPENSACAO               930                           
1040001300085T 0600249600300000286080D00000000000000000001               30062010000000000002478341004405                         090000040725790001104914649000000247897862009177040725790001430000000000000000002220000000000                 
1040001300086U 0600000000000000000000000000049600000000000000000000000000049600000000000247800000000000148600000000000000000000000000000030062010050720101900        000000000000000CIP COMPENSACAO               943                           
1040001300087T 0600249600300000286080D00000000000000000001               30062010000000000000000237028975                         090000040822170001104914649000000000097862009177040822170001300000000000000000002220000000000                 
1040001300088U 0600000000000000000000000000091400000000000000000000000000091400000000000457100000000000274300000000000000000000000000000030062010050720101900        000000000000000CIP COMPENSACAO               930                           
1040001300089T 0600249600300000286080D00000000000000000001               30062010000000000000000356012050                         090000041517760001104904649000000000097862009177041517760001300000000000000000002220000000000                 
1040001300090U 0600000000000000000000000000106300000000000000000000000000106300000000000531700000000000319100000000000000000000000000000030062010050720101900        000000000000000CIP COMPENSACAO               930                           
1040001300091T 0600249600300000286080D00000000000000000001               07101997000000000000000341005932                         090000041597610001104900000000000000097862009177041597610001300000000000000000002220000000000                 
1040001300092U 0600000000000000000000000000094900000000000000000000000000094900000000000474600000000000284800000000000000000000000000000030062010050720101900        000000000000000CIP COMPENSACAO               930                           
1040001300093T 0600249600300000286080D00000000000000000001               30062010000000000000000237008958                         090000042177990001104934649000000000097862009177042177990001300000000000000000002220000000000                 
1040001300094U 0600000000000000000000000000184800000000000000000000000000184800000000000924000000000000554400000000000000000000000000000030062010050720101900        000000000000000CIP COMPENSACAO               930                           
1040001300095T 0600249600300000286080D00000000000000000001               30062010000000000010508237004200                         090000042350690001104944649000001050897862008177042350690001110000000000000000002220000000000                 
1040001300096U 0600000000000000000000000000210200000000000000000000000000210200000000001050800000000000630400000000000000000000000000000030062010050720101900        000000000000000CIP COMPENSACAO               811                           
1040001300097T 0600249600300000286080D00000000000000000001               30062010000000000000000356008788                         090000043009170001104904649000000000097862009177043009170001300000000000000000002220000000000                 
1040001300098U 0600000000000000000000000000276000000000000000000000000000276000000000001380100000000000828100000000000000000000000000000030062010050720101900        000000000000000CIP COMPENSACAO               930                           
1040001300099T 0600249600300000286080D00000000000000000001               30062010000000000008250341007455                         090000043120440001104984649000000825097862008177043120440001110000000000000000002220000000000                 
1040001300100U 0600000000000000000000000000165000000000000000000000000000165000000000000825000000000000495000000000000000000000000000000030062010050720101900        000000000000000CIP COMPENSACAO               811                           
1040001300101T 0600249600300000286080D00000000000000000001               30062010000000000000000237033910                         090000044743010001104914649000000000097862009177044743010001300000000000000000002220000000000                 
1040001300102U 0600000000000000000000000000260900000000000000000000000000260900000000001304600000000000782800000000000000000000000000000030062010050720101900        000000000000000CIP COMPENSACAO               930                           
1040001300103T 0600249600300000286080D00000000000000000001               30062010000000000022126033022713                         090000044984750001104984649000002212697862008177044984750001110000000000000000002220000000000                 
1040001300104U 0600000000000000000000000000442500000000000000000000000000442500000000002212600000000001327600000000000000000000000000000030062010050720101900        000000000000000CIP COMPENSACAO               811                           
1040001300105T 0600249600300000286080D00000000000000000001               30062010000000000002245237019453                         090000045693400001104984649000000224597862008177045693400001110000000000000000002220000000000                 
1040001300106U 0600000000000000000000000000044900000000000000000000000000044900000000000224500000000000134700000000000000000000000000000030062010050720101900        000000000000000CIP COMPENSACAO               811                           
1040001300107T 0600249600300000286080D00000000000000000001               30062010000000000000000237037907                         090000047706710001104944649000000000097862009177047706710001300000000000000000002220000000000                 
1040001300108U 0600000000000000000000000000046900000000000000000000000000046900000000000234700000000000140900000000000000000000000000000030062010050720101900        000000000000000CIP COMPENSACAO               930                           
1040001300109T 0600249600300000286080D00000000000000000001               30072010000000000000000356009296                         090000048453410001104904679000000000097862009177048453410001300000000000000000002220000000000                 
1040001300110U 0600000000000000000000000000044900000000000000000000000000044900000000000224500000000000134700000000000000000000000000000030062010050720101900        000000000000000CIP COMPENSACAO               930                           
1040001300111T 0600249600300000286080D00000000000000000001               30062010000000000002350237008370                         090000048889350001104914649000000235097862009177048889350001490000000000000000002220000000000                 
1040001300112U 0600000000000000000000000000047000000000000000000000000000047000000000000235000000000000141000000000000000000000000000000030062010050720101900        000000000000000CIP COMPENSACAO               949                           
1040001300113T 0600249600300000286080D00000000000000000001               30072010000000000000000237033120                         090000050399730001104944679000000000097862009177050399730001300000000000000000002220000000000                 
1040001300114U 0600000000000000000000000000144300000000000000000000000000144300000000000721700000000000433100000000000000000000000000000030062010050720101900        000000000000000CIP COMPENSACAO               930                           
1040001300115T 0600249600300000286080D00000000000000000001               30062010000000000023723237025747                         090000050579050001104914649000002372397862008177050579050001110000000000000000002220000000000                 
1040001300116U 0600000000000000000000000000474500000000000000000000000000474500000000002372300000000001423300000000000000000000000000000030062010050720101900        000000000000000CIP COMPENSACAO               811                           
1040001300117T 0600249600300000286080D00000000000000000001               30062010000000000005144237019453                         090000054067090001104984649000000514497862008177054067090001110000000000000000002220000000000                 
1040001300118U 0600000000000000000000000000102900000000000000000000000000102900000000000514400000000000308600000000000000000000000000000030062010050720101900        000000000000000CIP COMPENSACAO               811                           
1040001300119T 0600249600300000286080D00000000000000000001               30062010000000000002333341007099                         090000054358500001104994649000000233397862005177054358500001590000000000000000002220000000000                 
1040001300120U 0600000000000000000000000000046700000000000000000000000000046700000000000233300000000000139900000000000000000000000000000030062010050720101900        000000000000000CIP COMPENSACAO               559                           
1040001300121T 0600249600300000286080D00000000000000000001               30062010000000000009794033022713                         090000055923690001104924649000000979497862008177055923690001110000000000000000002220000000000                 
1040001300122U 0600000000000000000000000000195900000000000000000000000000195900000000000979400000000000587600000000000000000000000000000030062010050720101900        000000000000000CIP COMPENSACAO               811                           
1040001300123T 0600249600300000286080D00000000000000000001               30062010000000000018767033022713                         090000056716210001104954649000001876797862008177056716210001110000000000000000002220000000000                 
1040001300124U 0600000000000000000000000000375300000000000000000000000000375300000000001876700000000001126100000000000000000000000000000030062010050720101900        000000000000000CIP COMPENSACAO               811                           
1040001300125T 0600249600300000286080D00000000000000000001               30062010000000000002497237033910                         090000058033180001104914649000000249797862008177058033180001110000000000000000002220000000000                 
1040001300126U 0600000000000000000000000000049900000000000000000000000000049900000000000249700000000000149900000000000000000000000000000030062010050720101900        000000000000000CIP COMPENSACAO               811                           
1040001300127T 0600249600300000286080D00000000000000000001               30062010000000000023341033022713                         090000058231220001104934649000002334197862008177058231220001110000000000000000002220000000000                 
1040001300128U 0600000000000000000000000000466800000000000000000000000000466800000000002334100000000001400500000000000000000000000000000030062010050720101900        000000000000000CIP COMPENSACAO               811                           
1040001300129T 0600249600300000286080D00000000000000000001               30062010000000000000000237004952                         090000059743370001104934649000000000097862009177059743370001300000000000000000002220000000000                 
1040001300130U 0600000000000000000000000000077000000000000000000000000000077000000000000384800000000000230800000000000000000000000000000030062010050720101900        000000000000000CIP COMPENSACAO               930                           
1040001300131T 0600249600300000286080D00000000000000000001               30062010000000000004676399004090                         090000063314470001104934649000000467697862008177063314470001110000000000000000002220000000000                 
1040001300132U 0600000000000000000000000000093500000000000000000000000000093500000000000467600000000000280600000000000000000000000000000030062010050720101900        000000000000000CIP COMPENSACAO               811                           
1040001300133T 0600249600300000286080D00000000000000000001               07101997000000000002841356008885                         090000070950540001104900000000000284197862008177070950540001110000000000000000002220000000000                 
1040001300134U 0600000000000000000000000000056800000000000000000000000000056800000000000284100000000000170500000000000000000000000000000030062010050720101900        000000000000000CIP COMPENSACAO               811                           
1040001300135T 0600249600300000286080D00000000000000000001               30062010000000000005861237019453                         090000072265180001104914649000000586197862008177072265180001110000000000000000002220000000000                 
1040001300136U 0600000000000000000000000000117200000000000000000000000000117200000000000586100000000000351700000000000000000000000000000030062010050720101900        000000000000000CIP COMPENSACAO               811                           
1040001300137T 0600249600300000286080D00000000000000000001               30082010000000000000000237026883                         090000073931950001104954710000000000097862009177073931950001300000000000000000002220000000000                 
1040001300138U 0600000000000000000000000000045000000000000000000000000000045000000000000225000000000000135000000000000000000000000000000030062010050720101900        000000000000000CIP COMPENSACAO               930                           
1040001300139T 0600249600300000286080D00000000000000000001               30062010000000000000000237026883                         090000073931950001104944649000000000097862009177073931950001300000000000000000002220000000000                 
1040001300140U 0600000000000000000000000000045000000000000000000000000000045000000000000225000000000000135000000000000000000000000000000030062010050720101900        000000000000000CIP COMPENSACAO               930                           
1040001300141T 0600249600300000286080D00000000000000000001               30062010000000000000000237037907                         090000074487630001104924649000000000097862009177074487630001300000000000000000002220000000000                 
1040001300142U 0600000000000000000000000000044900000000000000000000000000044900000000000224500000000000134700000000000000000000000000000030062010050720101900        000000000000000CIP COMPENSACAO               930                           
1040001300143T 0600249600300000286080D00000000000000000001               30062010000000000003333341001708                         090000074567560001104984649000000333397862008177074567560001110000000000000000002220000000000                 
1040001300144U 0600000000000000000000000000066700000000000000000000000000066700000000000333300000000000199900000000000000000000000000000030062010050720101900        000000000000000CIP COMPENSACAO               811                           
1040001300145T 0600249600300000286080D00000000000000000001               30062010000000000003333341003336                         090000079149380001104934649000000333397862008177079149380001110000000000000000002220000000000                 
1040001300146U 0600000000000000000000000000066700000000000000000000000000066700000000000333300000000000199900000000000000000000000000000030062010050720101900        000000000000000CIP COMPENSACAO               811                           
1040001300147T 0600249600300000286080D00000000000000000001               07101997000000000004333356001368                         090000080778790001104900000000000433397862008177080778790001110000000000000000002220000000000                 
1040001300148U 0600000000000000000000000000086700000000000000000000000000086700000000000433300000000000259900000000000000000000000000000030062010050720101900        000000000000000CIP COMPENSACAO               811                           
1040001300149T 0600249600300000286080D00000000000000000001               30062010000000000002582341004448                         090000082557820001104914649000000258297862008177082557820001110000000000000000002220000000000                 
1040001300150U 0600000000000000000000000000051600000000000000000000000000051600000000000258200000000000155000000000000000000000000000000030062010050720101900        000000000000000CIP COMPENSACAO               811                           
1040001300151T 0600249600300000286080D00000000000000000001               30042010000000000025195104029947                         090000083335820001104984588000002519597862008177083335820001110000000000000000002180000000000                 
1040001300152U 0600000000000302300000000000503900000000000000000000000000503900000000002821800000000001814000000000000000000000000000000030062010050720102100        000000000000000AUTOMACAO                     811                           
1040001300153T 0600249600300000286080D00000000000000000001               30062010000000000006116341007587                         090000096219180001104994649000000611697862008177096219180001110000000000000000002220000000000                 
1040001300154U 0600000000000000000000000000122300000000000000000000000000122300000000000611600000000000367000000000000000000000000000000030062010050720101900        000000000000000CIP COMPENSACAO               811                           
1040001300155T 0600249600300000286080D00000000000000000001               30062010000000000002909341007587                         090000102024820001104914649000000290997862008177102024820001110000000000000000002220000000000                 
1040001300156U 0600000000000000000000000000058200000000000000000000000000058200000000000290900000000000174500000000000000000000000000000030062010050720101900        000000000000000CIP COMPENSACAO               811                           
1040001300157T 0600249600300000286080D00000000000000000001               30062010000000000007803341087580                         090000103416840001104914649000000780397862008177103416840001110000000000000000002220000000000                 
1040001300158U 0600000000000000000000000000156100000000000000000000000000156100000000000780300000000000468100000000000000000000000000000030062010050720101900        000000000000000CIP COMPENSACAO               811                           
1040001300159T 0600249600300000286080D00000000000000000001               30062010000000000002680237001058                         090000103857180001104964649000000268097862008177103857180001110000000000000000002220000000000                 
1040001300160U 0600000000000000000000000000053600000000000000000000000000053600000000000268000000000000160800000000000000000000000000000030062010050720101900        000000000000000CIP COMPENSACAO               811                           
1040001300161T 0600249600300000286080D00000000000000000001               30062010000000000003333237019453                         090000104712070001104994649000000333397862008177104712070001110000000000000000002220000000000                 
1040001300162U 0600000000000000000000000000066700000000000000000000000000066700000000000333300000000000199900000000000000000000000000000030062010050720101900        000000000000000CIP COMPENSACAO               811                           
1040001300163T 0600249600300000286080D00000000000000000001               30062010000000000003083341005932                         090000105435270001104934649000000308397862008177105435270001110000000000000000002220000000000                 
1040001300164U 0600000000000000000000000000061700000000000000000000000000061700000000000308300000000000184900000000000000000000000000000030062010050720101900        000000000000000CIP COMPENSACAO               811                           
1040001300165T 0600249600300000286080D00000000000000000001               30062010000000000004946341001503                         090000105807700001104934649000000494697862008177105807700001110000000000000000002220000000000                 
1040001300166U 0600000000000000000000000000098900000000000000000000000000098900000000000494600000000000296800000000000000000000000000000030062010050720101900        000000000000000CIP COMPENSACAO               811                           
1040001300167T 0600249600300000286080D00000000000000000001               30062010000000000002243341083542                         090000106160420001104914649000000224397862008177106160420001110000000000000000002220000000000                 
1040001300168U 0600000000000000000000000000044900000000000000000000000000044900000000000224300000000000134500000000000000000000000000000030062010050720101900        000000000000000CIP COMPENSACAO               811                           
1040001300169T 0600249600300000286080D00000000000000000001               30062010000000000010403356006890                         090000107397810001104904649000001040397862004177107397810001110000000000000000002220000000000                 
1040001300170U 0600000000000000000000000000208100000000000000000000000000208100000000001040300000000000624100000000000000000000000000000030062010050720101900        000000000000000CIP COMPENSACAO               411                           
1040001300171T 0600249600300000286080D00000000000000000001               30062010000000000002826237001058                         090000107911380001104964649000000282697862008177107911380001110000000000000000002220000000000                 
1040001300172U 0600000000000000000000000000056500000000000000000000000000056500000000000282600000000000169600000000000000000000000000000030062010050720101900        000000000000000CIP COMPENSACAO               811                           
1040001300173T 0600249600300000286080D00000000000000000001               30062010000000000000000237014168                         090000109332120001104964649000000000097862009177109332120001300000000000000000002220000000000                 
1040001300174U 0600000000000000000000000000059400000000000000000000000000059400000000000296800000000000178000000000000000000000000000000030062010050720101900        000000000000000CIP COMPENSACAO               930                           
1040001300175T 0600249600300000286080D00000000000000000001               30062010000000000002350237001384                         090000109373750001104964649000000235097862008177109373750001110000000000000000002220000000000                 
1040001300176U 0600000000000000000000000000047000000000000000000000000000047000000000000235000000000000141000000000000000000000000000000030062010050720101900        000000000000000CIP COMPENSACAO               811                           
1040001300177T 0600249600300000286080D00000000000000000001               30062010000000000004700237001058                         090000109440100001104914649000000470097862008177109440100001110000000000000000002220000000000                 
1040001300178U 0600000000000000000000000000094000000000000000000000000000094000000000000470000000000000282000000000000000000000000000000030062010050720101900        000000000000000CIP COMPENSACAO               811                           
1040001300179T 0600249600300000286080D00000000000000000001               30062010000000000002326341005533                         090000110696500012104994649000000232697862008177110696500012110000000000000000002220000000000                 
1040001300180U 0600000000000000000000000000046500000000000000000000000000046500000000000232600000000000139600000000000000000000000000000030062010050720101900        000000000000000CIP COMPENSACAO               811                           
1040001300181T 0600249600300000286080D00000000000000000001               30062010000000000005000341007625                         090000112662820001104954649000000500097862008177112662820001110000000000000000002220000000000                 
1040001300182U 0600000000000000000000000000100000000000000000000000000000100000000000000500000000000000300000000000000000000000000000000030062010050720101900        000000000000000CIP COMPENSACAO               811                           
1040001300183T 0600249600300000286080D00000000000000000001               30062010000000000002250237001058                         090000113751300010104954649000000225097862008177113751300010110000000000000000002220000000000                 
1040001300184U 0600000000000000000000000000045000000000000000000000000000045000000000000225000000000000135000000000000000000000000000000030062010050720101900        000000000000000CIP COMPENSACAO               811                           
1040001300185T 0600249600300000286080D00000000000000000001               30062010000000000004486341010111                         090000114243070001104914649000000448697862004177114243070001710000000000000000002220000000000                 
1040001300186U 0600000000000000000000000000089700000000000000000000000000089700000000000448600000000000269200000000000000000000000000000030062010050720101900        000000000000000CIP COMPENSACAO               471                           
1040001300187T 0600249600300000286080D00000000000000000001               07101997000000000000000341007722                         090000117381700001104900000000000000097862009177117381700001300000000000000000002220000000000                 
1040001300188U 0600000000000000000000000000066700000000000000000000000000066700000000000333300000000000199900000000000000000000000000000030062010050720101900        000000000000000CIP COMPENSACAO               930                           
1040001300189T 0600249600300000286080D00000000000000000001               30062010000000000006334237019453                         090000118005030001104984649000000633497862008177118005030001110000000000000000002220000000000                 
1040001300190U 0600000000000000000000000000126700000000000000000000000000126700000000000633400000000000380000000000000000000000000000000030062010050720101900        000000000000000CIP COMPENSACAO               811                           
1040001300191T 0600249600300000286080D00000000000000000001               30062010000000000002250341005932                         090000194118800013104954649000000225097862008177194118800013110000000000000000002220000000000                 
1040001300192U 0600000000000000000000000000045000000000000000000000000000045000000000000225000000000000135000000000000000000000000000000030062010050720101900        000000000000000CIP COMPENSACAO               811                           
1040001300193T 0600249600300000286080D00000000000000000001               30062010000000000002250237004952                         090000240953000127104944649000000225097862008177240953000127110000000000000000002220000000000                 
1040001300194U 0600000000000000000000000000045000000000000000000000000000045000000000000225000000000000135000000000000000000000000000000030062010050720101900        000000000000000CIP COMPENSACAO               811                           
1040001300195T 0600249600300000286080D00000000000000000001               30062010000000000012586237001058                         090000263856100014104934649000001258697862008177263856100014110000000000000000002220000000000                 
1040001300196U 0600000000000000000000000000251700000000000000000000000000251700000000001258600000000000755200000000000000000000000000000030062010050720101900        000000000000000CIP COMPENSACAO               811                           
1040001300197T 0600249600300000286080D00000000000000000001               30062010000000000002966341005932                         090000289875300019104924649000000296697862008177289875300019110000000000000000002220000000000                 
1040001300198U 0600000000000000000000000000059300000000000000000000000000059300000000000296600000000000178000000000000000000000000000000030062010050720101900        000000000000000CIP COMPENSACAO               811                           
1040001300199T 0600249600300000286080D00000000000000000001               30062010000000000003243237001058                         090000299534000012104924649000000324397862008177299534000012110000000000000000002220000000000                 
1040001300200U 0600000000000000000000000000064900000000000000000000000000064900000000000324300000000000194500000000000000000000000000000030062010050720101900        000000000000000CIP COMPENSACAO               811                           
1040001300201T 0600249600300000286080D00000000000000000001               30062010000000000002493341003492                         090000309189300011104944649000000249397862008177309189300011110000000000000000002220000000000                 
1040001300202U 0600000000000000000000000000049900000000000000000000000000049900000000000249300000000000149500000000000000000000000000000030062010050720101900        000000000000000CIP COMPENSACAO               811                           
1040001300203T 0600249600300000286080D00000000000000000001               30062010000000000002436237001058                         090000323754600015104914649000000243697862008177323754600015110000000000000000002220000000000                 
1040001300204U 0600000000000000000000000000048700000000000000000000000000048700000000000243600000000000146200000000000000000000000000000030062010050720101900        000000000000000CIP COMPENSACAO               811                           
1040001300205T 0600249600300000286080D00000000000000000001               30062010000000000003219341004456                         090000333269000017104964649000000321997862008177333269000017110000000000000000002220000000000                 
1040001300206U 0600000000000000000000000000064400000000000000000000000000064400000000000321900000000000193100000000000000000000000000000030062010050720101900        000000000000000CIP COMPENSACAO               811                           
1040001300207T 0600249600300000286080D00000000000000000001               30062010000000000002250341001902                         090000340371000015104954649000000225097862008177340371000015110000000000000000002220000000000                 
1040001300208U 0600000000000000000000000000045000000000000000000000000000045000000000000225000000000000135000000000000000000000000000000030062010050720101900        000000000000000CIP COMPENSACAO               811                           
1040001300209T 0600249600300000286080D00000000000000000001               07101997000000000002866356001368                         090000343569800016104900000000000286697862008177343569800016110000000000000000002220000000000                 
1040001300210U 0600000000000000000000000000057300000000000000000000000000057300000000000286600000000000172000000000000000000000000000000030062010050720101900        000000000000000CIP COMPENSACAO               811                           
1040001300211T 0600249600300000286080D00000000000000000001               30062010000000000003521237034843                         090000427781830001104964649000000352197862006177427781830001200000000000000000002220000000000                 
1040001300212U 0600000000000000000000000000070400000000000000000000000000070400000000000352100000000000211300000000000000000000000000000030062010050720101900        000000000000000CIP COMPENSACAO               620                           
1040001300213T 0600249600300000286080D00000000000000000001               30062010000000000012074341004456                         090000446161300018104914649000001207497862008177446161300018110000000000000000002220000000000                 
1040001300214U 0600000000000000000000000000241500000000000000000000000000241500000000001207400000000000724400000000000000000000000000000030062010050720101900        000000000000000CIP COMPENSACAO               811                           
1040001300215T 0600249600300000286080D00000000000000000001               30062010000000000002500237001058                         090000446719600018104934649000000250097862008177446719600018110000000000000000002220000000000                 
1040001300216U 0600000000000000000000000000050000000000000000000000000000050000000000000250000000000000150000000000000000000000000000000030062010050720101900        000000000000000CIP COMPENSACAO               811                           
1040001300217T 0600249600300000286080D00000000000000000001               30062010000000000004492237001058                         090000470607000011104944649000000449297862008177470607000011110000000000000000002220000000000                 
1040001300218U 0600000000000000000000000000089800000000000000000000000000089800000000000449200000000000269600000000000000000000000000000030062010050720101900        000000000000000CIP COMPENSACAO               811                           
1040001300219T 0600249600300000286080D00000000000000000001               07101997000000000002500356001368                         090000470923700010104900000000000250097862008177470923700010110000000000000000002220000000000                 
1040001300220U 0600000000000000000000000000050000000000000000000000000000050000000000000250000000000000150000000000000000000000000000000030062010050720101900        000000000000000CIP COMPENSACAO               811                           
1040001300221T 0600249600300000286080D00000000000000000001               07101997000000000002453356001368                         090000485530500013104900000000000245397862008177485530500013110000000000000000002220000000000                 
1040001300222U 0600000000000000000000000000049100000000000000000000000000049100000000000245300000000000147100000000000000000000000000000030062010050720101900        000000000000000CIP COMPENSACAO               811                           
1040001300223T 0600249600300000286080D00000000000000000001               30062010000000000003226237001058                         090000504171700010104934649000000322697862008177504171700010110000000000000000002220000000000                 
1040001300224U 0600000000000000000000000000064500000000000000000000000000064500000000000322600000000000193600000000000000000000000000000030062010050720101900        000000000000000CIP COMPENSACAO               811                           
1040001300225T 0600249600300000286080D00000000000000000001               30062010000000000002350237001058                         090000515674700015104984649000000235097862008177515674700015110000000000000000002220000000000                 
1040001300226U 0600000000000000000000000000047000000000000000000000000000047000000000000235000000000000141000000000000000000000000000000030062010050720101900        000000000000000CIP COMPENSACAO               811                           
1040001300227T 0600249600300000286080D00000000000000000001               30062010000000000002816237005045                         090000524002070001104944649000000281697862009177524002070001310000000000000000002220000000000                 
1040001300228U 0600000000000000000000000000056300000000000000000000000000056300000000000281600000000000169000000000000000000000000000000030062010050720101900        000000000000000CIP COMPENSACAO               931                           
1040001300229T 0600249600300000286080D00000000000000000001               30062010000000000002680356006343                         090000527074600013104904649000000268097862008177527074600013110000000000000000002220000000000                 
1040001300230U 0600000000000000000000000000053600000000000000000000000000053600000000000268000000000000160800000000000000000000000000000030062010050720101900        000000000000000CIP COMPENSACAO               811                           
1040001300231T 0600249600300000286080D00000000000000000001               30062010000000000002676237001058                         090000538188780001104954649000000267697862008177538188780001110000000000000000002220000000000                 
1040001300232U 0600000000000000000000000000053500000000000000000000000000053500000000000267600000000000160600000000000000000000000000000030062010050720101900        000000000000000CIP COMPENSACAO               811                           
1040001300233T 0600249600300000286080D00000000000000000001               30062010000000000005250341000370                         090000538190660001104954649000000525097862008177538190660001110000000000000000002220000000000                 
1040001300234U 0600000000000000000000000000105000000000000000000000000000105000000000000525000000000000315000000000000000000000000000000030062010050720101900        000000000000000CIP COMPENSACAO               811                           
1040001300235T 0600249600300000286080D00000000000000000001               07101997000000000002534356001368                         090000538214270001104900000000000253497862009177538214270001300000000000000000002220000000000                 
1040001300236U 0600000000000000000000000000050700000000000000000000000000050700000000000253400000000000152000000000000000000000000000000030062010050720101900        000000000000000CIP COMPENSACAO               930                           
1040001300237T 0600249600300000286080D00000000000000000001               30062010000000000000000237038040                         090000538220030001104914649000000000097862009177538220030001300000000000000000002220000000000                 
1040001300238U 0600000000000000000000000000095200000000000000000000000000095200000000000476200000000000285800000000000000000000000000000030062010050720101900        000000000000000CIP COMPENSACAO               930                           
1040001300239T 0600249600300000286080D00000000000000000001               07101997000000000002840356001368                         090000538225160001104900000000000284097862008177538225160001110000000000000000002220000000000                 
1040001300240U 0600000000000000000000000000056800000000000000000000000000056800000000000284000000000000170400000000000000000000000000000030062010050720101900        000000000000000CIP COMPENSACAO               811                           
1040001300241T 0600249600300000286080D00000000000000000001               30062010000000000003343237001058                         090000538231000001104914649000000334397862008177538231000001110000000000000000002220000000000                 
1040001300242U 0600000000000000000000000000066900000000000000000000000000066900000000000334300000000000200500000000000000000000000000000030062010050720101900        000000000000000CIP COMPENSACAO               811                           
1040001300243T 0600249600300000286080D00000000000000000001               30062010000000000003023341087297                         090000538286870001104924649000000302397862008177538286870001110000000000000000002220000000000                 
1040001300244U 0600000000000000000000000000060500000000000000000000000000060500000000000302300000000000181300000000000000000000000000000030062010050720101900        000000000000000CIP COMPENSACAO               811                           
1040001300245T 0600249600300000286080D00000000000000000001               30062010000000000002333237038040                         090000538312850001104984649000000233397862008177538312850001110000000000000000002220000000000                 
1040001300246U 0600000000000000000000000000046700000000000000000000000000046700000000000233300000000000139900000000000000000000000000000030062010050720101900        000000000000000CIP COMPENSACAO               811                           
1040001300247T 0600249600300000286080D00000000000000000001               30062010000000000002250341003492                         090000538331090001104964649000000225097862008177538331090001110000000000000000002220000000000                 
1040001300248U 0600000000000000000000000000045000000000000000000000000000045000000000000225000000000000135000000000000000000000000000000030062010050720101900        000000000000000CIP COMPENSACAO               811                           
1040001300249T 0600249600300000286080D00000000000000000001               30062010000000000002250237001058                         090000538341490001104914649000000225097862008177538341490001110000000000000000002220000000000                 
1040001300250U 0600000000000000000000000000045000000000000000000000000000045000000000000225000000000000135000000000000000000000000000000030062010050720101900        000000000000000CIP COMPENSACAO               811                           
1040001300251T 0600249600300000286080D00000000000000000001               30062010000000000002911341007587                         090000539852970001104974649000000291197862008177539852970001110000000000000000002220000000000                 
1040001300252U 0600000000000000000000000000058200000000000000000000000000058200000000000291100000000000174700000000000000000000000000000030062010050720101900        000000000000000CIP COMPENSACAO               811                           
1040001300253T 0600249600300000286080D00000000000000000001               30062010000000000002350237001058                         090000539899840001104994649000000235097862008177539899840001110000000000000000002220000000000                 
1040001300254U 0600000000000000000000000000047000000000000000000000000000047000000000000235000000000000141000000000000000000000000000000030062010050720101900        000000000000000CIP COMPENSACAO               811                           
1040001300255T 0600249600300000286080D00000000000000000001               30062010000000000002367341087297                         090000540007400001104914649000000236797862008177540007400001110000000000000000002220000000000                 
1040001300256U 0600000000000000000000000000047300000000000000000000000000047300000000000236700000000000142100000000000000000000000000000030062010050720101900        000000000000000CIP COMPENSACAO               811                           
1040001300257T 0600249600300000286080D00000000000000000001               30062010000000000002333237001058                         090000540300690001104924649000000233397862008177540300690001110000000000000000002220000000000                 
1040001300258U 0600000000000000000000000000046700000000000000000000000000046700000000000233300000000000139900000000000000000000000000000030062010050720101900        000000000000000CIP COMPENSACAO               811                           
1040001300259T 0600249600300000286080D00000000000000000001               30062010000000000000000237000310                         090000540623510001104944649000000000097862009177540623510001300000000000000000002220000000000                 
1040001300260U 0600000000000000000000000000135700000000000000000000000000135700000000000678400000000000407000000000000000000000000000000030062010050720101900        000000000000000CIP COMPENSACAO               930                           
1040001300261T 0600249600300000286080D00000000000000000001               30062010000000000003441341007358                         090000540635730001104914649000000344197862008177540635730001110000000000000000002220000000000                 
1040001300262U 0600000000000000000000000000068800000000000000000000000000068800000000000344100000000000206500000000000000000000000000000030062010050720101900        000000000000000CIP COMPENSACAO               811                           
1040001300263T 0600249600300000286080D00000000000000000001               30062010000000000000000237037788                         090000540647530001104974649000000000097862009177540647530001300000000000000000002220000000000                 
1040001300264U 0600000000000000000000000000046600000000000000000000000000046600000000000233200000000000140000000000000000000000000000000030062010050720101900        000000000000000CIP COMPENSACAO               930                           
1040001300265T 0600249600300000286080D00000000000000000001               30062010000000000003173341001775                         090000540648520001104924649000000317397862008177540648520001120000000000000000002220000000000                 
1040001300266U 0600000000000000000000000000063500000000000000000000000000063500000000000317300000000000190300000000000000000000000000000030062010050720101900        000000000000000CIP COMPENSACAO               812                           
1040001300267T 0600249600300000286080D00000000000000000001               07101997000000000003667356001368                         090000540694890001104900000000000366797862009177540694890001300000000000000000002220000000000                 
1040001300268U 0600000000000000000000000000073300000000000000000000000000073300000000000366700000000000220100000000000000000000000000000030062010050720101900        000000000000000CIP COMPENSACAO               930                           
1040001300269T 0600249600300000286080D00000000000000000001               30062010000000000002746237019453                         090000540696870001104944649000000274697862008177540696870001110000000000000000002220000000000                 
1040001300270U 0600000000000000000000000000054900000000000000000000000000054900000000000274600000000000164800000000000000000000000000000030062010050720101900        000000000000000CIP COMPENSACAO               811                           
1040001300271T 0600249600300000286080D00000000000000000001               30062010000000000002510341000574                         090000540721290001104914649000000251097862008177540721290001110000000000000000002220000000000                 
1040001300272U 0600000000000000000000000000050200000000000000000000000000050200000000000251000000000000150600000000000000000000000000000030062010050720101900        000000000000000CIP COMPENSACAO               811                           
1040001300273T 0600249600300000286080D00000000000000000001               30062010000000000002335341085529                         090000541996580001104914649000000233597862008177541996580001110000000000000000002220000000000                 
1040001300274U 0600000000000000000000000000046700000000000000000000000000046700000000000233500000000000140100000000000000000000000000000030062010050720101900        000000000000000CIP COMPENSACAO               811                           
1040001300275T 0600249600300000286080D00000000000000000001               30062010000000000000000237002968                         090000542002660001104914649000000000097862009177542002660001300000000000000000002220000000000                 
1040001300276U 0600000000000000000000000000078300000000000000000000000000078300000000000391600000000000235000000000000000000000000000000030062010050720101900        000000000000000CIP COMPENSACAO               930                           
1040001300277T 0600249600300000286080D00000000000000000001               30062010000000000002500341004405                         090000542008940001104914649000000250097862008177542008940001110000000000000000002220000000000                 
1040001300278U 0600000000000000000000000000050000000000000000000000000000050000000000000250000000000000150000000000000000000000000000000030062010050720101900        000000000000000CIP COMPENSACAO               811                           
1040001300279T 0600249600300000286080D00000000000000000001               30062010000000000008028341007358                         090000542029570001104964649000000802897862008177542029570001110000000000000000002220000000000                 
1040001300280U 0600000000000000000000000000160600000000000000000000000000160600000000000802800000000000481600000000000000000000000000000030062010050720101900        000000000000000CIP COMPENSACAO               811                           
1040001300281T 0600249600300000286080D00000000000000000001               30062010000000000002247237037796                         090000542036900001104964649000000224797862008177542036900001110000000000000000002220000000000                 
1040001300282U 0600000000000000000000000000044900000000000000000000000000044900000000000224700000000000134900000000000000000000000000000030062010050720101900        000000000000000CIP COMPENSACAO               811                           
1040001300283T 0600249600300000286080D00000000000000000001               30062010000000000005009341005533                         090000542045160001104994649000000500997862008177542045160001110000000000000000002220000000000                 
1040001300284U 0600000000000000000000000000100200000000000000000000000000100200000000000500900000000000300500000000000000000000000000000030062010050720101900        000000000000000CIP COMPENSACAO               811                           
1040001300285T 0600249600300000286080D00000000000000000001               30062010000000000002347341007358                         090000542183340001104914649000000234797862008177542183340001110000000000000000002220000000000                 
1040001300286U 0600000000000000000000000000046900000000000000000000000000046900000000000234700000000000140900000000000000000000000000000030062010050720101900        000000000000000CIP COMPENSACAO               811                           
1040001300287T 0600249600300000286080D00000000000000000001               30062010000000000003000341007722                         090000542234410001104934649000000300097862008177542234410001110000000000000000002220000000000                 
1040001300288U 0600000000000000000000000000060000000000000000000000000000060000000000000300000000000000180000000000000000000000000000000030062010050720101900        000000000000000CIP COMPENSACAO               811                           
1040001300289T 0600249600300000286080D00000000000000000001               30062010000000000000000341001678                         090000542789320001104934649000000000097862009177542789320001300000000000000000002220000000000                 
1040001300290U 0600000000000000000000000000053300000000000000000000000000053300000000000266600000000000160000000000000000000000000000000030062010050720101900        000000000000000CIP COMPENSACAO               930                           
1040001300291T 0600249600300000286080D00000000000000000001               30062010000000000000000237037796                         090000542811590001104964649000000000097862009177542811590001300000000000000000002220000000000                 
1040001300292U 0600000000000000000000000000047000000000000000000000000000047000000000000235000000000000141000000000000000000000000000000030062010050720101900        000000000000000CIP COMPENSACAO               930                           
1040001300293T 0600249600300000286080D00000000000000000001               30062010000000000003526237001058                         090000542818780001104984649000000352697862008177542818780001110000000000000000002220000000000                 
1040001300294U 0600000000000000000000000000070500000000000000000000000000070500000000000352600000000000211600000000000000000000000000000030062010050720101900        000000000000000CIP COMPENSACAO               811                           
1040001300295T 0600249600300000286080D00000000000000000001               30062010000000000000000237006149                         090000542830980001104974649000000000097862009177542830980001300000000000000000002220000000000                 
1040001300296U 0600000000000000000000000000044900000000000000000000000000044900000000000224500000000000134700000000000000000000000000000030062010050720101900        000000000000000CIP COMPENSACAO               930                           
1040001300297T 0600249600300000286080D00000000000000000001               30042010000000000000000104012300                         090000542850510001104944588000000000097862009177542850510001300000000000000000002180000000000                 
1040001300298U 0600000000000000000000000000054800000000000000000000000000054800000000000273900000000000164300000000000000000000000000000030062010050720102100        000000000000000AUTOMACAO                     930                           
1040001300299T 0600249600300000286080D00000000000000000001               30062010000000000004231341007358                         090000542851350001104924649000000423197862008177542851350001110000000000000000002220000000000                 
1040001300300U 0600000000000000000000000000084600000000000000000000000000084600000000000423100000000000253900000000000000000000000000000030062010050720101900        000000000000000CIP COMPENSACAO               811                           
1040001300301T 0600249600300000286080D00000000000000000001               30062010000000000002833341001856                         090000543241400001104994649000000283397862008177543241400001110000000000000000002220000000000                 
1040001300302U 0600000000000000000000000000056700000000000000000000000000056700000000000283300000000000169900000000000000000000000000000030062010050720101900        000000000000000CIP COMPENSACAO               811                           
1040001300303T 0600249600300000286080D00000000000000000001               07101997000000000002333356001368                         090000543632210001104900000000000233397862008177543632210001110000000000000000002220000000000                 
1040001300304U 0600000000000000000000000000046700000000000000000000000000046700000000000233300000000000139900000000000000000000000000000030062010050720101900        000000000000000CIP COMPENSACAO               811                           
1040001300305T 0600249600300000286080D00000000000000000001               30062010000000000002666422001244                         090000543653900001104974649000000266697862008177543653900001110000000000000000002220000000000                 
1040001300306U 0600000000000000000000000000053300000000000000000000000000053300000000000266600000000000160000000000000000000000000000000030062010050720101900        000000000000000CIP COMPENSACAO               811                           
1040001300307T 0600249600300000286080D00000000000000000001               30062010000000000002347341007358                         090000544634760001104974649000000234797862008177544634760001110000000000000000002220000000000                 
1040001300308U 0600000000000000000000000000046900000000000000000000000000046900000000000234700000000000140900000000000000000000000000000030062010050720101900        000000000000000CIP COMPENSACAO               811                           
1040001300309T 0600249600300000286080D00000000000000000001               30062010000000000002533341002623                         090000544641850001104944649000000253397862008177544641850001110000000000000000002220000000000                 
1040001300310U 0600000000000000000000000000050700000000000000000000000000050700000000000253300000000000151900000000000000000000000000000030062010050720101900        000000000000000CIP COMPENSACAO               811                           
1040001300311T 0600249600300000286080D00000000000000000001               30062010000000000000000341003557                         090000544872100001104974649000000000097862009177544872100001300000000000000000002220000000000                 
1040001300312U 0600000000000000000000000000049000000000000000000000000000049000000000000244900000000000146900000000000000000000000000000030062010050720101900        000000000000000CIP COMPENSACAO               930                           
1040001300313T 0600249600300000286080D00000000000000000001               30072010000000000000000001048666                         090000545358280001104924679000000000097862009177545358280001300000000000000000002220000000000                 
1040001300314U 0600000000000000000000000000142600000000000000000000000000142600000000000712800000000000427600000000000000000000000000000030062010050720101900        000000000000000CIP COMPENSACAO               930                           
1040001300315T 0600249600300000286080D00000000000000000001               30062010000000000002573237001384                         090000545738520001104984649000000257397862008177545738520001110000000000000000002220000000000                 
1040001300316U 0600000000000000000000000000051500000000000000000000000000051500000000000257300000000000154300000000000000000000000000000030062010050720101900        000000000000000CIP COMPENSACAO               811                           
1040001300317T 0600249600300000286080D00000000000000000001               30062010000000000002661237019453                         090000545739510001104984649000000266197862008177545739510001110000000000000000002220000000000                 
1040001300318U 0600000000000000000000000000053200000000000000000000000000053200000000000266100000000000159700000000000000000000000000000030062010050720101900        000000000000000CIP COMPENSACAO               811                           
1040001300319T 0600249600300000286080D00000000000000000001               30062010000000000003257341007358                         090000546058450001104944649000000325797862008177546058450001110000000000000000002220000000000                 
1040001300320U 0600000000000000000000000000065100000000000000000000000000065100000000000325700000000000195500000000000000000000000000000030062010050720101900        000000000000000CIP COMPENSACAO               811                           
1040001300321T 0600249600300000286080D00000000000000000001               30062010000000000002347341005533                         090000546635050001104914649000000234797862008177546635050001110000000000000000002220000000000                 
1040001300322U 0600000000000000000000000000046900000000000000000000000000046900000000000234700000000000140900000000000000000000000000000030062010050720101900        000000000000000CIP COMPENSACAO               811                           
1040001300323T 0600249600300000286080D00000000000000000001               30062010000000000002664237019453                         090000547448910001104984649000000266497862008177547448910001110000000000000000002220000000000                 
1040001300324U 0600000000000000000000000000053300000000000000000000000000053300000000000266400000000000159800000000000000000000000000000030062010050720101900        000000000000000CIP COMPENSACAO               811                           
1040001300325T 0600249600300000286080D00000000000000000001               30062010000000000002860341030953                         090000547457400001104974649000000286097862008177547457400001110000000000000000002220000000000                 
1040001300326U 0600000000000000000000000000057200000000000000000000000000057200000000000286000000000000171600000000000000000000000000000030062010050720101900        000000000000000CIP COMPENSACAO               811                           
1040001300327T 0600249600300000286080D00000000000000000001               30062010000000000002245237004952                         090000547534470001104944649000000224597862008177547534470001110000000000000000002220000000000                 
1040001300328U 0600000000000000000000000000044900000000000000000000000000044900000000000224500000000000134700000000000000000000000000000030062010050720101900        000000000000000CIP COMPENSACAO               811                           
1040001300329T 0600249600300000286080D00000000000000000001               07101997000000000002336356001368                         090000547542620001104900000000000233697862008177547542620001110000000000000000002220000000000                 
1040001300330U 0600000000000000000000000000046700000000000000000000000000046700000000000233600000000000140200000000000000000000000000000030062010050720101900        000000000000000CIP COMPENSACAO               811                           
1040001300331T 0600249600300000286080D00000000000000000001               07101997000000000000000341003557                         090000549595800001104900000000000000097862009177549595800001300000000000000000002220000000000                 
1040001300332U 0600000000000000000000000000058700000000000000000000000000058700000000000293300000000000175900000000000000000000000000000030062010050720101900        000000000000000CIP COMPENSACAO               930                           
1040001300333T 0600249600300000286080D00000000000000000001               30062010000000000002834341005533                         090000551675060001104994649000000283497862008177551675060001110000000000000000002220000000000                 
1040001300334U 0600000000000000000000000000056700000000000000000000000000056700000000000283400000000000170000000000000000000000000000000030062010050720101900        000000000000000CIP COMPENSACAO               811                           
1040001300335T 0600249600300000286080D00000000000000000001               07101997000000000002560356001368                         090000552126660001104900000000000256097862008177552126660001110000000000000000002220000000000                 
1040001300336U 0600000000000000000000000000051200000000000000000000000000051200000000000256000000000000153600000000000000000000000000000030062010050720101900        000000000000000CIP COMPENSACAO               811                           
1040001300337T 0600249600300000286080D00000000000000000001               30062010000000000002500001028096                         090000552235980001104914649000000250097862009177552235980001300000000000000000002220000000000                 
1040001300338U 0600000000000000000000000000050000000000000000000000000000050000000000000250000000000000150000000000000000000000000000000030062010050720101900        000000000000000CIP COMPENSACAO               930                           
1040001300339T 0600249600300000286080D00000000000000000001               30062010000000000006986341004405                         090000553986890001104974649000000698697862008177553986890001110000000000000000002220000000000                 
1040001300340U 0600000000000000000000000000139700000000000000000000000000139700000000000698600000000000419200000000000000000000000000000030062010050720101900        000000000000000CIP COMPENSACAO               811                           
1040001300341T 0600249600300000286080D00000000000000000001               30062010000000000000000237014419                         090000553995540001104914649000000000097862009177553995540001300000000000000000002220000000000                 
1040001300342U 0600000000000000000000000000048900000000000000000000000000048900000000000244500000000000146700000000000000000000000000000030062010050720101900        000000000000000CIP COMPENSACAO               930                           
1040001300343T 0600249600300000286080D00000000000000000001               30062010000000000000000237037907                         090000554440200001104914649000000000097862009177554440200001300000000000000000002220000000000                 
1040001300344U 0600000000000000000000000000053400000000000000000000000000053400000000000267000000000000160200000000000000000000000000000030062010050720101900        000000000000000CIP COMPENSACAO               930                           
1040001300345T 0600249600300000286080D00000000000000000001               30062010000000000003263237001058                         090000554451000001104924649000000326397862008177554451000001110000000000000000002220000000000                 
1040001300346U 0600000000000000000000000000065300000000000000000000000000065300000000000326300000000000195700000000000000000000000000000030062010050720101900        000000000000000CIP COMPENSACAO               811                           
1040001300347T 0600249600300000286080D00000000000000000001               30062010000000000002726341006602                         090000554920450001104944649000000272697862008177554920450001110000000000000000002220000000000                 
1040001300348U 0600000000000000000000000000054500000000000000000000000000054500000000000272600000000000163600000000000000000000000000000030062010050720101900        000000000000000CIP COMPENSACAO               811                           
1040001300349T 0600249600300000286080D00000000000000000001               30062010000000000002333237001058                         090000555164470001104994649000000233397862008177555164470001110000000000000000002220000000000                 
1040001300350U 0600000000000000000000000000046700000000000000000000000000046700000000000233300000000000139900000000000000000000000000000030062010050720101900        000000000000000CIP COMPENSACAO               811                           
1040001300351T 0600249600300000286080D00000000000000000001               30062010000000000003190341000370                         090000555555900010104944649000000319097862008177555555900010110000000000000000002220000000000                 
1040001300352U 0600000000000000000000000000063800000000000000000000000000063800000000000319000000000000191400000000000000000000000000000030062010050720101900        000000000000000CIP COMPENSACAO               811                           
1040001300353T 0600249600300000286080D00000000000000000001               30062010000000000000000237037788                         090000556495520001104994649000000000097862009177556495520001300000000000000000002220000000000                 
1040001300354U 0600000000000000000000000000045000000000000000000000000000045000000000000225000000000000135000000000000000000000000000000030062010050720101900        000000000000000CIP COMPENSACAO               930                           
1040001300355T 0600249600300000286080D00000000000000000001               30062010000000000002583341000817                         090000559469250001104944649000000258397862008177559469250001110000000000000000002220000000000                 
1040001300356U 0600000000000000000000000000051700000000000000000000000000051700000000000258300000000000154900000000000000000000000000000030062010050720101900        000000000000000CIP COMPENSACAO               811                           
1040001300357T 0600249600300000286080D00000000000000000001               30062010000000000005761341010006                         090000560950860001104914649000000576197862008177560950860001110000000000000000002220000000000                 
1040001300358U 0600000000000000000000000000115200000000000000000000000000115200000000000576100000000000345700000000000000000000000000000030062010050720101900        000000000000000CIP COMPENSACAO               811                           
1040001300359T 0600249600300000286080D00000000000000000001               30062010000000000007680237004510                         090000561002410001104984649000000768097862008177561002410001110000000000000000002220000000000                 
1040001300360U 0600000000000000000000000000153600000000000000000000000000153600000000000768000000000000460800000000000000000000000000000030062010050720101900        000000000000000CIP COMPENSACAO               811                           
1040001300361T 0600249600300000286080D00000000000000000001               30062010000000000002250341005932                         090000561007040001104964649000000225097862008177561007040001110000000000000000002220000000000                 
1040001300362U 0600000000000000000000000000045000000000000000000000000000045000000000000225000000000000135000000000000000000000000000000030062010050720101900        000000000000000CIP COMPENSACAO               811                           
1040001300363T 0600249600300000286080D00000000000000000001               30062010000000000000000237002968                         090000562687090001104934649000000000097862009177562687090001300000000000000000002220000000000                 
1040001300364U 0600000000000000000000000000047000000000000000000000000000047000000000000235000000000000141000000000000000000000000000000030062010050720101900        000000000000000CIP COMPENSACAO               930                           
1040001300365T 0600249600300000286080D00000000000000000001               30062010000000000007445356004090                         090000563167630001104904649000000744597862008177563167630001110000000000000000002220000000000                 
1040001300366U 0600000000000000000000000000148900000000000000000000000000148900000000000744500000000000446700000000000000000000000000000030062010050720101900        000000000000000CIP COMPENSACAO               811                           
1040001300367T 0600249600300000286080D00000000000000000001               30062010000000000005206237001058                         090000563198740001104954649000000520697862008177563198740001110000000000000000002220000000000                 
1040001300368U 0600000000000000000000000000104100000000000000000000000000104100000000000520600000000000312400000000000000000000000000000030062010050720101900        000000000000000CIP COMPENSACAO               811                           
1040001300369T 0600249600300000286080D00000000000000000001               30062010000000000000000237002968                         090000565635130001104924649000000000097862009177565635130001300000000000000000002220000000000                 
1040001300370U 0600000000000000000000000000045000000000000000000000000000045000000000000225000000000000135000000000000000000000000000000030062010050720101900        000000000000000CIP COMPENSACAO               930                           
1040001300371T 0600249600300000286080D00000000000000000001               30062010000000000005000341005533                         090000568939700019104994649000000500097862008177568939700019110000000000000000002220000000000                 
1040001300372U 0600000000000000000000000000100000000000000000000000000000100000000000000500000000000000300000000000000000000000000000000030062010050720101900        000000000000000CIP COMPENSACAO               811                           
1040001300373T 0600249600300000286080D00000000000000000001               07101997000000000000000341005932                         090000571212790001104900000000000000097862009177571212790001300000000000000000002220000000000                 
1040001300374U 0600000000000000000000000000199400000000000000000000000000199400000000000997200000000000598400000000000000000000000000000030062010050720101900        000000000000000CIP COMPENSACAO               930                           
1040001300375T 0600249600300000286080D00000000000000000001               30062010000000000002250341016080                         090000571834850001104924649000000225097862006177571834850001810000000000000000002220000000000                 
1040001300376U 0600000000000000000000000000045000000000000000000000000000045000000000000225000000000000135000000000000000000000000000000030062010050720101900        000000000000000CIP COMPENSACAO               681                           
1040001300377T 0600249600300000286080D00000000000000000001               30062010000000000002676237001058                         090000571862230001104934649000000267697862008177571862230001110000000000000000002220000000000                 
1040001300378U 0600000000000000000000000000053500000000000000000000000000053500000000000267600000000000160600000000000000000000000000000030062010050720101900        000000000000000CIP COMPENSACAO               811                           
1040001300379T 0600249600300000286080D00000000000000000001               30062010000000000002789399002216                         090000572823370001104944649000000278997862008177572823370001110000000000000000002220000000000                 
1040001300380U 0600000000000000000000000000055800000000000000000000000000055800000000000278900000000000167300000000000000000000000000000030062010050720101900        000000000000000CIP COMPENSACAO               811                           
1040001300381T 0600249600300000286080D00000000000000000001               30062010000000000002683341005932                         090000572826670001104954649000000268397862008177572826670001110000000000000000002220000000000                 
1040001300382U 0600000000000000000000000000053700000000000000000000000000053700000000000268300000000000160900000000000000000000000000000030062010050720101900        000000000000000CIP COMPENSACAO               811                           
1040001300383T 0600249600300000286080D00000000000000000001               07101997000000000000000341010006                         090000576522160001104900000000000000097862008177576522160001110000000000000000002220000000000                 
1040001300384U 0600000000000000000000000000044900000000000000000000000000044900000000000224500000000000134700000000000000000000000000000030062010050720101900        000000000000000CIP COMPENSACAO               811                           
1040001300385T 0600249600300000286080D00000000000000000001               30062010000000000000000237037907                         090000577441950001104914649000000000097862009177577441950001300000000000000000002220000000000                 
1040001300386U 0600000000000000000000000000076000000000000000000000000000076000000000000379900000000000227900000000000000000000000000000030062010050720101900        000000000000000CIP COMPENSACAO               930                           
1040001300387T 0600249600300000286080D00000000000000000001               30062010000000000002246237001058                         090000578596880001104914649000000224697862008177578596880001110000000000000000002220000000000                 
1040001300388U 0600000000000000000000000000044900000000000000000000000000044900000000000224600000000000134800000000000000000000000000000030062010050720101900        000000000000000CIP COMPENSACAO               811                           
1040001300389T 0600249600300000286080D00000000000000000001               30062010000000000002246341007455                         090000578596880001104914649000000224697862008177578596880001110000000000000000002220000000000                 
1040001300390U 0600000000000000000000000000044900000000000000000000000000044900000000000224600000000000134800000000000000000000000000000030062010050720101900        000000000000000CIP COMPENSACAO               811                           
1040001300391T 0600249600300000286080D00000000000000000001               30062010000000000002643237001058                         090000578646620001104914649000000264397862008177578646620001110000000000000000002220000000000                 
1040001300392U 0600000000000000000000000000052900000000000000000000000000052900000000000264300000000000158500000000000000000000000000000030062010050720101900        000000000000000CIP COMPENSACAO               811                           
1040001300393T 0600249600300000286080D00000000000000000001               30062010000000000004688237019453                         090000587236100001104934649000000468897862008177587236100001110000000000000000002220000000000                 
1040001300394U 0600000000000000000000000000093800000000000000000000000000093800000000000468800000000000281200000000000000000000000000000030062010050720101900        000000000000000CIP COMPENSACAO               811                           
1040001300395T 0600249600300000286080D00000000000000000001               30062010000000000004000237001058                         090000587870200019104984649000000400097862008177587870200019110000000000000000002220000000000                 
1040001300396U 0600000000000000000000000000080000000000000000000000000000080000000000000400000000000000240000000000000000000000000000000030062010050720101900        000000000000000CIP COMPENSACAO               811                           
1040001300397T 0600249600300000286080D00000000000000000001               30062010000000000002584237019453                         090000594904820001104924649000000258497862008177594904820001110000000000000000002220000000000                 
1040001300398U 0600000000000000000000000000051700000000000000000000000000051700000000000258400000000000155000000000000000000000000000000030062010050720101900        000000000000000CIP COMPENSACAO               811                           
1040001300399T 0600249600300000286080D00000000000000000001               30062010000000000002347341004286                         090000595746990001104974649000000234797862008177595746990001110000000000000000002220000000000                 
1040001300400U 0600000000000000000000000000046900000000000000000000000000046900000000000234700000000000140900000000000000000000000000000030062010050720101900        000000000000000CIP COMPENSACAO               811                           
1040001300401T 0600249600300000286080D00000000000000000001               30062010000000000003081341007358                         090000598391000001104924649000000308197862008177598391000001110000000000000000002220000000000                 
1040001300402U 0600000000000000000000000000061600000000000000000000000000061600000000000308100000000000184900000000000000000000000000000030062010050720101900        000000000000000CIP COMPENSACAO               811                           
1040001300403T 0600249600300000286080D00000000000000000001               30062010000000000002245341007358                         090000599450300001104924649000000224597862008177599450300001110000000000000000002220000000000                 
1040001300404U 0600000000000000000000000000044900000000000000000000000000044900000000000224500000000000134700000000000000000000000000000030062010050720101900        000000000000000CIP COMPENSACAO               811                           
1040001300405T 0600249600300000286080D00000000000000000001               30062010000000000004490237000558                         090000604433140001104974649000000449097862006177604433140001810000000000000000002220000000000                 
1040001300406U 0600000000000000000000000000089800000000000000000000000000089800000000000449000000000000269400000000000000000000000000000030062010050720101900        000000000000000CIP COMPENSACAO               681                           
1040001300407T 0600249600300000286080D00000000000000000001               30062010000000000002247341007757                         090000607375410001104924649000000224797862008177607375410001110000000000000000002220000000000                 
1040001300408U 0600000000000000000000000000044900000000000000000000000000044900000000000224700000000000134900000000000000000000000000000030062010050720101900        000000000000000CIP COMPENSACAO               811                           
1040001300409T 0600249600300000286080D00000000000000000001               30062010000000000007589237037907                         090000609029390001104984649000000758997862008177609029390001120000000000000000002220000000000                 
1040001300410U 0600000000000000000000000000151800000000000000000000000000151800000000000758900000000000455300000000000000000000000000000030062010050720101900        000000000000000CIP COMPENSACAO               812                           
1040001300411T 0600249600300000286080D00000000000000000001               30062010000000000002318237013226                         090000609203450001104944649000000231897862009177609203450001320000000000000000002220000000000                 
1040001300412U 0600000000000000000000000000046400000000000000000000000000046400000000000231800000000000139000000000000000000000000000000030062010050720101900        000000000000000CIP COMPENSACAO               932                           
