1040001304227T 0600249600300000286080D00000000000000000001               07101997000000000212864356008885                         090000078789510001104900000000021286497862009177078789510001300000000000000000002220000000000                 
1040001304228U 0600000000000000000000000004257300000000000000000000000004257300000000021286400000000012771800000000000000000000000000000030042010050520101900        000000000000000CIP COMPENSACAO               930                           
1040001304227T 0600249600300000286080D00000000000000000001               07101997000000000212864356008885                         090000078789510001104900000000021286497862009177078789510001300000000000000000002220000000000                 
1040001304228U 0600000000000000000000000004257300000000000000000000000004257300000000021286400000000012771800000000000000000000000000000030042010050520101900        000000000000000CIP COMPENSACAO               930                           
1040001304227T 0600249600300000286080D00000000000000000001               07101997000000000212864356008885                         090000078789510001104900000000021286497862009177078789510001300000000000000000002220000000000                 
1040001304228U 0600000000000000000000000004257300000000000000000000000004257300000000021286400000000012771800000000000000000000000000000030042010050520101900        000000000000000CIP COMPENSACAO               930                           
