10400000         243070481000114186200              00249600300000286080SINEMPEDIFPORTCAB MUN SP      CAIXA ECONOMICA FEDERAL                 22804201005094200125706000000                                                                     
10400011T01  030 2043070481000114186200              00249600300000286080SINEMPEDIFPORTCAB MUN SP      200501                                  000000                                  000000002804201000000000                                 
1040001300001T 0600249600300000286080D00000000000000000001               30042010000000000000000341006602                         090000000003252018104974588000000000097862009177000003252018300000000000000000002220000000000                 
1040001300002U 0600000000000000000000000000170000000000000000000000000000170000000000000850100000000000510100000000000000000000000000000026042010290420101900        000000000000000CIP COMPENSACAO               930                           
1040001300003T 0600249600300000286080D00000000000000000001               30042010000000000000000341076813                         090000000616650001104974588000000000097862009177000616650001300000000000000000002220000000000                 
1040001300004U 0600000000000000000000000000286000000000000000000000000000286000000000001430000000000000858000000000000000000000000000000026042010290420101900        000000000000000CIP COMPENSACAO               930                           
1040001300005T 0600249600300000286080D00000000000000000001               30042010000000000000000341066648                         090000000890470001104914588000000000097862009177000890470001300000000000000000002220000000000                 
1040001300006U 0600000000000000000000000000112900000000000000000000000000112900000000000564600000000000338800000000000000000000000000000026042010290420101900        000000000000000CIP COMPENSACAO               930                           
1040001300007T 0600249600300000286080D00000000000000000001               30042010000000000000000341064360                         090000001104530001104914588000000000097862009177001104530001300000000000000000002220000000000                 
1040001300008U 0600000000000000000000000000049000000000000000000000000000049000000000000244900000000000146900000000000000000000000000000026042010290420101900        000000000000000CIP COMPENSACAO               930                           
1040001300009T 0600249600300000286080D00000000000000000001               30042010000000000000000341007633                         090000001115480001104974588000000000097862009177001115480001300000000000000000002220000000000                 
1040001300010U 0600000000000000000000000000316800000000000000000000000000316800000000001584000000000000950400000000000000000000000000000026042010290420101900        000000000000000CIP COMPENSACAO               930                           
1040001300011T 0600249600300000286080D00000000000000000001               30042010000000000000000341000370                         090000001593890001104944588000000000097862009177001593890001300000000000000000002220000000000                 
1040001300012U 0600000000000000000000000000064000000000000000000000000000064000000000000320200000000000192200000000000000000000000000000026042010290420101900        000000000000000CIP COMPENSACAO               930                           
1040001300013T 0600249600300000286080D00000000000000000001               30042010000000000000000341001775                         090000001630330001104974588000000000097862009177001630330001300000000000000000002220000000000                 
1040001300014U 0600000000000000000000000000242100000000000000000000000000242100000000001210400000000000726200000000000000000000000000000026042010290420101900        000000000000000CIP COMPENSACAO               930                           
1040001300015T 0600249600300000286080D00000000000000000001               30042010000000000000000341000663                         090000001694380001104974588000000000097862009177001694380001300000000000000000002220000000000                 
1040001300016U 0600000000000000000000000000505300000000000000000000000000505300000000002526300000000001515700000000000000000000000000000026042010290420101900        000000000000000CIP COMPENSACAO               930                           
1040001300017T 0600249600300000286080D00000000000000000001               30042010000000000000000341000027                         090000001754110001104914588000000000097862009177001754110001300000000000000000002220000000000                 
1040001300018U 0600000000000000000000000000353600000000000000000000000000353600000000001768000000000001060800000000000000000000000000000026042010290420101900        000000000000000CIP COMPENSACAO               930                           
1040001300019T 0600249600300000286080D00000000000000000001               30042010000000000000000341007633                         090000001773240001104984588000000000097862009177001773240001300000000000000000002220000000000                 
1040001300020U 0600000000000000000000000000388000000000000000000000000000388000000000001939900000000001163900000000000000000000000000000026042010290420101900        000000000000000CIP COMPENSACAO               930                           
1040001300021T 0600249600300000286080D00000000000000000001               30042010000000000000000237002780                         090000002026160001104914588000000000097862009177002026160001300000000000000000002220000000000                 
1040001300022U 0600000000000000000000000000095100000000000000000000000000095100000000000475400000000000285200000000000000000000000000000026042010290420101900        000000000000000CIP COMPENSACAO               930                           
1040001300023T 0600249600300000286080D00000000000000000001               26042010000000000003450341001880                         090000002190111845104984584000000345097862009177002190111845300000000000000000002220000000000                 
1040001300024U 0600000000000000000000000000069000000000000000000000000000069000000000000345000000000000207000000000000000000000000000000026042010290420101900        000000000000000CIP COMPENSACAO               930                           
1040001300025T 0600249600300000286080D00000000000000000001               26042010000000000003820341001880                         090000002190114612104974584000000382097862009177002190114612300000000000000000002220000000000                 
1040001300026U 0600000000000000000000000000076400000000000000000000000000076400000000000382000000000000229200000000000000000000000000000026042010290420101900        000000000000000CIP COMPENSACAO               930                           
1040001300027T 0600249600300000286080D00000000000000000001               30042010000000000000000237002879                         090000002190115657104964588000000000097862009177002190115657300000000000000000002220000000000                 
1040001300028U 0600000000000000000000000000060000000000000000000000000000060000000000000300000000000000180000000000000000000000000000000026042010290420101900        000000000000000CIP COMPENSACAO               930                           
1040001300029T 0600249600300000286080D00000000000000000001               30042010000000000000000001006351                         090000002190120352104954588000000000097862009177002190120352300000000000000000002220000000000                 
1040001300030U 0600000000000000000000000000095500000000000000000000000000095500000000000477400000000000286400000000000000000000000000000026042010290420101900        000000000000000CIP COMPENSACAO               930                           
1040001300031T 0600249600300000286080D00000000000000000001               30042010000000000000000341002526                         090000002190131570104994588000000000097862009177002190131570300000000000000000002220000000000                 
1040001300032U 0600000000000000000000000000388900000000000000000000000000388900000000001944700000000001166900000000000000000000000000000026042010290420101900        000000000000000CIP COMPENSACAO               930                           
1040001300033T 0600249600300000286080D00000000000000000001               07101997000000000004677356001368                         090000002190213578104900000000000467797862009177002190213578300000000000000000002220000000000                 
1040001300034U 0600000000000000000000000000093500000000000000000000000000093500000000000467700000000000280700000000000000000000000000000026042010290420101900        000000000000000CIP COMPENSACAO               930                           
1040001300035T 0600249600300000286080D00000000000000000001               26042010000000000008679341001880                         090000002190233307104924584000000867997862009177002190233307300000000000000000002220000000000                 
1040001300036U 0600000000000000000000000000173600000000000000000000000000173600000000000867900000000000520700000000000000000000000000000026042010290420101900        000000000000000CIP COMPENSACAO               930                           
1040001300037T 0600249600300000286080D00000000000000000001               30042010000000000000000356001031                         090000002190411499104904588000000000097862009177002190411499300000000000000000002220000000000                 
1040001300038U 0600000000000000000000000000049100000000000000000000000000049100000000000245300000000000147100000000000000000000000000000026042010290420101900        000000000000000CIP COMPENSACAO               930                           
1040001300039T 0600249600300000286080D00000000000000000001               30042010000000000000000237017671                         090000002190717686104944588000000000097862009177002190717686300000000000000000002220000000000                 
1040001300040U 0600000000000000000000000000053300000000000000000000000000053300000000000266600000000000160000000000000000000000000000000026042010290420101900        000000000000000CIP COMPENSACAO               930                           
1040001300041T 0600249600300000286080D00000000000000000001               30042010000000000000000409004936                         090000002190813979104994588000000000097862009177002190813979300000000000000000002220000000000                 
1040001300042U 0600000000000000000000000000065900000000000000000000000000065900000000000329300000000000197500000000000000000000000000000026042010290420101900        000000000000000CIP COMPENSACAO               930                           
1040001300043T 0600249600300000286080D00000000000000000001               30042010000000000000000341000744                         090000002419180001104994588000000000097862009177002419180001300000000000000000002220000000000                 
1040001300044U 0600000000000000000000000000404200000000000000000000000000404200000000002020800000000001212400000000000000000000000000000026042010290420101900        000000000000000CIP COMPENSACAO               930                           
1040001300045T 0600249600300000286080D00000000000000000001               30042010000000000000000341002372                         090000003308350001104984588000000000097862009177003308350001300000000000000000002220000000000                 
1040001300046U 0600000000000000000000000000506600000000000000000000000000506600000000002533200000000001520000000000000000000000000000000026042010290420101900        000000000000000CIP COMPENSACAO               930                           
1040001300047T 0600249600300000286080D00000000000000000001               26042010000000000012011341001880                         090000003738020001104964584000001201197862009177003738020001300000000000000000002220000000000                 
1040001300048U 0600000000000000000000000000240200000000000000000000000000240200000000001201100000000000720700000000000000000000000000000026042010290420101900        000000000000000CIP COMPENSACAO               930                           
1040001300049T 0600249600300000286080D00000000000000000001               26042010000000000002463341001880                         090000003738040001104964584000000246397862009177003738040001300000000000000000002220000000000                 
1040001300050U 0600000000000000000000000000049300000000000000000000000000049300000000000246300000000000147700000000000000000000000000000026042010290420101900        000000000000000CIP COMPENSACAO               930                           
1040001300051T 0600249600300000286080D00000000000000000001               30042010000000000000000033021776                         090000003775260001104914588000000000097862009177003775260001300000000000000000002220000000000                 
1040001300052U 0600000000000000000000000000072400000000000000000000000000072400000000000361800000000000217000000000000000000000000000000026042010290420101900        000000000000000CIP COMPENSACAO               930                           
1040001300053T 0600249600300000286080D00000000000000000001               30042010000000000014880341001732                         090000003921548200104994588000001488097862008177003921548200110000000000000000002220000000000                 
1040001300054U 0600000000000000000000000000297600000000000000000000000000297600000000001488000000000000892800000000000000000000000000000026042010290420101900        000000000000000CIP COMPENSACAO               811                           
1040001300055T 0600249600300000286080D00000000000000000001               30042010000000000002656341001732                         090000003921548200104914588000000265697862008177003921548200110000000000000000002220000000000                 
1040001300056U 0600000000000000000000000000053100000000000000000000000000053100000000000265600000000000159400000000000000000000000000000026042010290420101900        000000000000000CIP COMPENSACAO               811                           
1040001300057T 0600249600300000286080D00000000000000000001               30042010000000000000000341007587                         090000004175980001104964588000000000097862009177004175980001300000000000000000002220000000000                 
1040001300058U 0600000000000000000000000000440600000000000000000000000000440600000000002202900000000001321700000000000000000000000000000026042010290420101900        000000000000000CIP COMPENSACAO               930                           
1040001300059T 0600249600300000286080D00000000000000000001               30042010000000000000000341000744                         090000004478750001104984588000000000097862009177004478750001300000000000000000002220000000000                 
1040001300060U 0600000000000000000000000000373800000000000000000000000000373800000000001868900000000001121300000000000000000000000000000026042010290420101900        000000000000000CIP COMPENSACAO               930                           
1040001300061T 0600249600300000286080D00000000000000000001               30042010000000000000000341004529                         090000004735100001104994588000000000097862009177004735100001300000000000000000002220000000000                 
1040001300062U 0600000000000000000000000000059400000000000000000000000000059400000000000297000000000000178200000000000000000000000000000026042010290420101900        000000000000000CIP COMPENSACAO               930                           
1040001300063T 0600249600300000286080D00000000000000000001               30042010000000000000000356015814                         090000005002264890104904588000000000097862009177005002264890300000000000000000002220000000000                 
1040001300064U 0600000000000000000000000000049100000000000000000000000000049100000000000245300000000000147100000000000000000000000000000026042010290420101900        000000000000000CIP COMPENSACAO               930                           
1040001300065T 0600249600300000286080D00000000000000000001               07101997000000000000000341001880                         090000005002302699104900000000000000097862009177005002302699300000000000000000002220000000000                 
1040001300066U 0600000000000000000000000000093300000000000000000000000000093300000000000466600000000000280000000000000000000000000000000026042010290420101900        000000000000000CIP COMPENSACAO               930                           
1040001300067T 0600249600300000286080D00000000000000000001               26042010000000000012570341001880                         090000005002417360104914584000001257097862009177005002417360300000000000000000002220000000000                 
1040001300068U 0600000000000000000000000000251400000000000000000000000000251400000000001257000000000000754200000000000000000000000000000026042010290420101900        000000000000000CIP COMPENSACAO               930                           
1040001300069T 0600249600300000286080D00000000000000000001               30042010000000000000000341007374                         090000005120026448104984588000000000097862009177005120026448300000000000000000002220000000000                 
1040001300070U 0600000000000000000000000000196600000000000000000000000000196600000000000982900000000000589700000000000000000000000000000026042010290420101900        000000000000000CIP COMPENSACAO               930                           
1040001300071T 0600249600300000286080D00000000000000000001               30042010000000000093347341029238                         090000005473760001104914588000009334797862008177005473760001110000000000000000002220000000000                 
1040001300072U 0600000000000000000000000001866900000000000000000000000001866900000000009334700000000005600900000000000000000000000000000026042010290420101900        000000000000000CIP COMPENSACAO               811                           
1040001300073T 0600249600300000286080D00000000000000000001               26042010000000000005610341001880                         090000005702500001104954584000000561097862009177005702500001300000000000000000002220000000000                 
1040001300074U 0600000000000000000000000000112200000000000000000000000000112200000000000561000000000000336600000000000000000000000000000026042010290420101900        000000000000000CIP COMPENSACAO               930                           
1040001300075T 0600249600300000286080D00000000000000000001               30042010000000000000000237022209                         090000005756110001104914588000000000097862009177005756110001300000000000000000002220000000000                 
1040001300076U 0600000000000000000000000000232700000000000000000000000000232700000000001163300000000000697900000000000000000000000000000026042010290420101900        000000000000000CIP COMPENSACAO               930                           
1040001300077T 0600249600300000286080D00000000000000000001               30042010000000000000000237005010                         090000005756170001104964588000000000097862009177005756170001300000000000000000002220000000000                 
1040001300078U 0600000000000000000000000000132300000000000000000000000000132300000000000661700000000000397100000000000000000000000000000026042010290420101900        000000000000000CIP COMPENSACAO               930                           
1040001300079T 0600249600300000286080D00000000000000000001               30042010000000000000000237000981                         090000006245580001104944588000000000097862009177006245580001300000000000000000002220000000000                 
1040001300080U 0600000000000000000000000000044900000000000000000000000000044900000000000224500000000000134700000000000000000000000000000026042010290420101900        000000000000000CIP COMPENSACAO               930                           
1040001300081T 0600249600300000286080D00000000000000000001               26042010000000000027963341001880                         090000006644920001104994584000002796397862009177006644920001300000000000000000002220000000000                 
1040001300082U 0600000000000000000000000000559300000000000000000000000000559300000000002796300000000001677700000000000000000000000000000026042010290420101900        000000000000000CIP COMPENSACAO               930                           
1040001300083T 0600249600300000286080D00000000000000000001               26042010000000000002936341001880                         090000006700970001104914584000000293697862009177006700970001300000000000000000002220000000000                 
1040001300084U 0600000000000000000000000000058700000000000000000000000000058700000000000293600000000000176200000000000000000000000000000026042010290420101900        000000000000000CIP COMPENSACAO               930                           
1040001300085T 0600249600300000286080D00000000000000000001               26042010000000000016856341001880                         090000007177300001104944584000001685697862009177007177300001300000000000000000002220000000000                 
1040001300086U 0600000000000000000000000000337100000000000000000000000000337100000000001685600000000001011400000000000000000000000000000026042010290420101900        000000000000000CIP COMPENSACAO               930                           
1040001300087T 0600249600300000286080D00000000000000000001               30042010000000000000000341016268                         090000007536250001104964588000000000097862009177007536250001300000000000000000002220000000000                 
1040001300088U 0600000000000000000000000000111900000000000000000000000000111900000000000559400000000000335600000000000000000000000000000026042010290420101900        000000000000000CIP COMPENSACAO               930                           
1040001300089T 0600249600300000286080D00000000000000000001               30042010000000000000000341007587                         090000008072610001104924588000000000097862009177008072610001300000000000000000002220000000000                 
1040001300090U 0600000000000000000000000000617500000000000000000000000000617500000000003087500000000001852500000000000000000000000000000026042010290420101900        000000000000000CIP COMPENSACAO               930                           
1040001300091T 0600249600300000286080D00000000000000000001               30042010000000000000000341001902                         090000008277300001104984588000000000097862009177008277300001300000000000000000002220000000000                 
1040001300092U 0600000000000000000000000000432300000000000000000000000000432300000000002161700000000001297100000000000000000000000000000026042010290420101900        000000000000000CIP COMPENSACAO               930                           
1040001300093T 0600249600300000286080D00000000000000000001               30042010000000000000000341007463                         090000008406670001104964588000000000097862009177008406670001300000000000000000002220000000000                 
1040001300094U 0600000000000000000000000000260300000000000000000000000000260300000000001301500000000000780900000000000000000000000000000026042010290420101900        000000000000000CIP COMPENSACAO               930                           
1040001300095T 0600249600300000286080D00000000000000000001               30042010000000000000000237001376                         090000008468750001104924588000000000097862009177008468750001300000000000000000002220000000000                 
1040001300096U 0600000000000000000000000000645000000000000000000000000000645000000000003225000000000001935000000000000000000000000000000026042010290420101900        000000000000000CIP COMPENSACAO               930                           
1040001300097T 0600249600300000286080D00000000000000000001               30042010000000000000000341007587                         090000009043450001104914588000000000097862009177009043450001300000000000000000002220000000000                 
1040001300098U 0600000000000000000000000000294000000000000000000000000000294000000000001470100000000000882100000000000000000000000000000026042010290420101900        000000000000000CIP COMPENSACAO               930                           
1040001300099T 0600249600300000286080D00000000000000000001               30042010000000000000000341000817                         090000009292000001104914588000000000097862009177009292000001300000000000000000002220000000000                 
1040001300100U 0600000000000000000000000000068200000000000000000000000000068200000000000341000000000000204600000000000000000000000000000026042010290420101900        000000000000000CIP COMPENSACAO               930                           
1040001300101T 0600249600300000286080D00000000000000000001               30042010000000000000000237029769                         090000009461170001104954588000000000097862009177009461170001300000000000000000002220000000000                 
1040001300102U 0600000000000000000000000000508300000000000000000000000000508300000000002541300000000001524700000000000000000000000000000026042010290420101900        000000000000000CIP COMPENSACAO               930                           
1040001300103T 0600249600300000286080D00000000000000000001               30042010000000000015480409001201                         090000010561240001104914588000001548097862009177010561240001300000000000000000002220000000000                 
1040001300104U 0600000000000000000000000000309600000000000000000000000000309600000000001548000000000000928800000000000000000000000000000026042010290420101900        000000000000000CIP COMPENSACAO               930                           
1040001300105T 0600249600300000286080D00000000000000000001               30042010000000000000000341004448                         090000011144330001104914588000000000097862009177011144330001300000000000000000002220000000000                 
1040001300106U 0600000000000000000000000000247900000000000000000000000000247900000000001239400000000000743600000000000000000000000000000026042010290420101900        000000000000000CIP COMPENSACAO               930                           
1040001300107T 0600249600300000286080D00000000000000000001               30042010000000000000000341055743                         090000011487980001104974588000000000097862009177011487980001300000000000000000002220000000000                 
1040001300108U 0600000000000000000000000000140800000000000000000000000000140800000000000704200000000000422600000000000000000000000000000026042010290420101900        000000000000000CIP COMPENSACAO               930                           
1040001300109T 0600249600300000286080D00000000000000000001               30042010000000000000000341030953                         090000012166670001104924588000000000097862009177012166670001300000000000000000002220000000000                 
1040001300110U 0600000000000000000000000000084400000000000000000000000000084400000000000422100000000000253300000000000000000000000000000026042010290420101900        000000000000000CIP COMPENSACAO               930                           
1040001300111T 0600249600300000286080D00000000000000000001               30042010000000000000000341000663                         090000012379550001104914588000000000097862009177012379550001300000000000000000002220000000000                 
1040001300112U 0600000000000000000000000000409400000000000000000000000000409400000000002047100000000001228300000000000000000000000000000026042010290420101900        000000000000000CIP COMPENSACAO               930                           
1040001300113T 0600249600300000286080D00000000000000000001               07101997000000000031591356001368                         090000012535590001104900000000003159197862009177012535590001300000000000000000002220000000000                 
1040001300114U 0600000000000000000000000000631800000000000000000000000000631800000000003159100000000001895500000000000000000000000000000026042010290420101900        000000000000000CIP COMPENSACAO               930                           
1040001300115T 0600249600300000286080D00000000000000000001               30042010000000000000000341007587                         090000013233200001104914588000000000097862009177013233200001300000000000000000002220000000000                 
1040001300116U 0600000000000000000000000000294700000000000000000000000000294700000000001473400000000000884000000000000000000000000000000026042010290420101900        000000000000000CIP COMPENSACAO               930                           
1040001300117T 0600249600300000286080D00000000000000000001               30042010000000000000000341000744                         090000013782740001104914588000000000097862009177013782740001300000000000000000002220000000000                 
1040001300118U 0600000000000000000000000000138500000000000000000000000000138500000000000692400000000000415400000000000000000000000000000026042010290420101900        000000000000000CIP COMPENSACAO               930                           
1040001300119T 0600249600300000286080D00000000000000000001               30042010000000000000000341000663                         090000013967660001104944588000000000097862009177013967660001300000000000000000002220000000000                 
1040001300120U 0600000000000000000000000000368900000000000000000000000000368900000000001844400000000001106600000000000000000000000000000026042010290420101900        000000000000000CIP COMPENSACAO               930                           
1040001300121T 0600249600300000286080D00000000000000000001               30042010000000000000000341080985                         090000014490090001104914588000000000097862009177014490090001300000000000000000002220000000000                 
1040001300122U 0600000000000000000000000000155000000000000000000000000000155000000000000775000000000000465000000000000000000000000000000026042010290420101900        000000000000000CIP COMPENSACAO               930                           
1040001300123T 0600249600300000286080D00000000000000000001               30042010000000000000000237001376                         090000014540450001104964588000000000097862009177014540450001300000000000000000002220000000000                 
1040001300124U 0600000000000000000000000000065200000000000000000000000000065200000000000325800000000000195400000000000000000000000000000026042010290420101900        000000000000000CIP COMPENSACAO               930                           
1040001300125T 0600249600300000286080D00000000000000000001               30042010000000000000000341007587                         090000014840060001104914588000000000097862009177014840060001300000000000000000002220000000000                 
1040001300126U 0600000000000000000000000000068900000000000000000000000000068900000000000344600000000000206800000000000000000000000000000026042010290420101900        000000000000000CIP COMPENSACAO               930                           
1040001300127T 0600249600300000286080D00000000000000000001               30042010000000000000000341000744                         090000015293580001104934588000000000097862009177015293580001300000000000000000002220000000000                 
1040001300128U 0600000000000000000000000000364300000000000000000000000000364300000000001821700000000001093100000000000000000000000000000026042010290420101900        000000000000000CIP COMPENSACAO               930                           
1040001300129T 0600249600300000286080D00000000000000000001               30042010000000000000000341007650                         090000015353390001104914588000000000097862009177015353390001300000000000000000002220000000000                 
1040001300130U 0600000000000000000000000000411500000000000000000000000000411500000000002057300000000001234300000000000000000000000000000026042010290420101900        000000000000000CIP COMPENSACAO               930                           
1040001300131T 0600249600300000286080D00000000000000000001               30042010000000000000000341000744                         090000015627800001104944588000000000097862009177015627800001300000000000000000002220000000000                 
1040001300132U 0600000000000000000000000000492700000000000000000000000000492700000000002463700000000001478300000000000000000000000000000026042010290420101900        000000000000000CIP COMPENSACAO               930                           
1040001300133T 0600249600300000286080D00000000000000000001               30042010000000000000000341000647                         090000016512300001104964588000000000097862009177016512300001300000000000000000002220000000000                 
1040001300134U 0600000000000000000000000000047300000000000000000000000000047300000000000236700000000000142100000000000000000000000000000026042010290420101900        000000000000000CIP COMPENSACAO               930                           
1040001300135T 0600249600300000286080D00000000000000000001               30042010000000000000000237011916                         090000016826780001104944588000000000097862009177016826780001300000000000000000002220000000000                 
1040001300136U 0600000000000000000000000000100300000000000000000000000000100300000000000501700000000000301100000000000000000000000000000026042010290420101900        000000000000000CIP COMPENSACAO               930                           
1040001300137T 0600249600300000286080D00000000000000000001               30042010000000000000000341002518                         090000016972020001104954588000000000097862009177016972020001300000000000000000002220000000000                 
1040001300138U 0600000000000000000000000000044900000000000000000000000000044900000000000224500000000000134700000000000000000000000000000026042010290420101900        000000000000000CIP COMPENSACAO               930                           
1040001300139T 0600249600300000286080D00000000000000000001               30042010000000000000000001028827                         090000017080300001104944588000000000097862009177017080300001300000000000000000002220000000000                 
1040001300140U 0600000000000000000000000000183200000000000000000000000000183200000000000916200000000000549800000000000000000000000000000026042010290420101900        000000000000000CIP COMPENSACAO               930                           
1040001300141T 0600249600300000286080D00000000000000000001               30042010000000000023749341004456                         090000017503560001104994588000002374997862008177017503560001110000000000000000002220000000000                 
1040001300142U 0600000000000000000000000000475000000000000000000000000000475000000000002374900000000001424900000000000000000000000000000026042010290420101900        000000000000000CIP COMPENSACAO               811                           
1040001300143T 0600249600300000286080D00000000000000000001               30042010000000000000000409001180                         090000017560370001104914588000000000097862009177017560370001300000000000000000002220000000000                 
1040001300144U 0600000000000000000000000000185900000000000000000000000000185900000000000929300000000000557500000000000000000000000000000026042010290420101900        000000000000000CIP COMPENSACAO               930                           
1040001300145T 0600249600300000286080D00000000000000000001               30042010000000000000000341003506                         090000017626170001104934588000000000097862009177017626170001300000000000000000002220000000000                 
1040001300146U 0600000000000000000000000000145700000000000000000000000000145700000000000728500000000000437100000000000000000000000000000026042010290420101900        000000000000000CIP COMPENSACAO               930                           
1040001300147T 0600249600300000286080D00000000000000000001               26042010000000000008306341001880                         090000019893730001104984584000000830697862009177019893730001300000000000000000002220000000000                 
1040001300148U 0600000000000000000000000000166100000000000000000000000000166100000000000830600000000000498400000000000000000000000000000026042010290420101900        000000000000000CIP COMPENSACAO               930                           
1040001300149T 0600249600300000286080D00000000000000000001               30042010000000000000000033007927                         090000020090040001104934588000000000097862009177020090040001300000000000000000002220000000000                 
1040001300150U 0600000000000000000000000000060400000000000000000000000000060400000000000301800000000000181000000000000000000000000000000026042010290420101900        000000000000000CIP COMPENSACAO               930                           
1040001300151T 0600249600300000286080D00000000000000000001               30042010000000000000000341000663                         090000020236440001104994588000000000097862009177020236440001300000000000000000002220000000000                 
1040001300152U 0600000000000000000000000000467400000000000000000000000000467400000000002337000000000001402200000000000000000000000000000026042010290420101900        000000000000000CIP COMPENSACAO               930                           
1040001300153T 0600249600300000286080D00000000000000000001               30042010000000000000000341007722                         090000020429480001104914588000000000097862009177020429480001300000000000000000002220000000000                 
1040001300154U 0600000000000000000000000000067100000000000000000000000000067100000000000335600000000000201400000000000000000000000000000026042010290420101900        000000000000000CIP COMPENSACAO               930                           
1040001300155T 0600249600300000286080D00000000000000000001               30042010000000000015271341031500                         090000020564280001104964588000001527197862008177020564280001110000000000000000002220000000000                 
1040001300156U 0600000000000000000000000000305400000000000000000000000000305400000000001527100000000000916300000000000000000000000000000026042010290420101900        000000000000000CIP COMPENSACAO               811                           
1040001300157T 0600249600300000286080D00000000000000000001               30042010000000000000000237001376                         090000020989100001104984588000000000097862009177020989100001300000000000000000002220000000000                 
1040001300158U 0600000000000000000000000000078600000000000000000000000000078600000000000392800000000000235600000000000000000000000000000026042010290420101900        000000000000000CIP COMPENSACAO               930                           
1040001300159T 0600249600300000286080D00000000000000000001               30042010000000000000000341000744                         090000021869240001104954588000000000097862009177021869240001300000000000000000002220000000000                 
1040001300160U 0600000000000000000000000000411000000000000000000000000000411000000000002054900000000001232900000000000000000000000000000026042010290420101900        000000000000000CIP COMPENSACAO               930                           
1040001300161T 0600249600300000286080D00000000000000000001               07101997000000000000000341000272                         090000022227870001104900000000000000097862009177022227870001300000000000000000002220000000000                 
1040001300162U 0600000000000000000000000000110600000000000000000000000000110600000000000553000000000000331800000000000000000000000000000026042010290420101900        000000000000000CIP COMPENSACAO               930                           
1040001300163T 0600249600300000286080D00000000000000000001               30042010000000000000000341004286                         090000023507980001104914588000000000097862009177023507980001300000000000000000002220000000000                 
1040001300164U 0600000000000000000000000000274900000000000000000000000000274900000000001374300000000000824500000000000000000000000000000026042010290420101900        000000000000000CIP COMPENSACAO               930                           
1040001300165T 0600249600300000286080D00000000000000000001               30042010000000000000000001028827                         090000024720800001104924588000000000097862009177024720800001300000000000000000002220000000000                 
1040001300166U 0600000000000000000000000000195100000000000000000000000000195100000000000975600000000000585400000000000000000000000000000026042010290420101900        000000000000000CIP COMPENSACAO               930                           
1040001300167T 0600249600300000286080D00000000000000000001               30042010000000000000000399002682                         090000024767500001104934588000000000097862009177024767500001300000000000000000002220000000000                 
1040001300168U 0600000000000000000000000000049900000000000000000000000000049900000000000249700000000000149900000000000000000000000000000026042010290420101900        000000000000000CIP COMPENSACAO               930                           
1040001300169T 0600249600300000286080D00000000000000000001               26042010000000000022694341001880                         090000025153380001104924584000002269497862009177025153380001300000000000000000002220000000000                 
1040001300170U 0600000000000000000000000000453900000000000000000000000000453900000000002269400000000001361600000000000000000000000000000026042010290420101900        000000000000000CIP COMPENSACAO               930                           
1040001300171T 0600249600300000286080D00000000000000000001               30042010000000000000000341030953                         090000027880300001104914588000000000097862009177027880300001300000000000000000002220000000000                 
1040001300172U 0600000000000000000000000000069600000000000000000000000000069600000000000348000000000000208800000000000000000000000000000026042010290420101900        000000000000000CIP COMPENSACAO               930                           
1040001300173T 0600249600300000286080D00000000000000000001               30042010000000000000000341004286                         090000028517550001104914588000000000097862009177028517550001300000000000000000002220000000000                 
1040001300174U 0600000000000000000000000000405600000000000000000000000000405600000000002028000000000001216800000000000000000000000000000026042010290420101900        000000000000000CIP COMPENSACAO               930                           
1040001300175T 0600249600300000286080D00000000000000000001               30042010000000000000000409001392                         090000029788900001104914588000000000097862009177029788900001300000000000000000002220000000000                 
1040001300176U 0600000000000000000000000000166600000000000000000000000000166600000000000833200000000000500000000000000000000000000000000026042010290420101900        000000000000000CIP COMPENSACAO               930                           
1040001300177T 0600249600300000286080D00000000000000000001               30042010000000000003383341031291                         090000029804480001104934588000000338397862009177029804480001600000000000000000002220000000000                 
1040001300178U 0600000000000000000000000000067700000000000000000000000000067700000000000338300000000000202900000000000000000000000000000026042010290420101900        000000000000000CIP COMPENSACAO               960                           
1040001300179T 0600249600300000286080D00000000000000000001               30042010000000000000000341002372                         090000030518670001104964588000000000097862009177030518670001300000000000000000002220000000000                 
1040001300180U 0600000000000000000000000000110300000000000000000000000000110300000000000551500000000000330900000000000000000000000000000026042010290420101900        000000000000000CIP COMPENSACAO               930                           
1040001300181T 0600249600300000286080D00000000000000000001               30042010000000000000000237029769                         090000030627060001104984588000000000097862009177030627060001300000000000000000002220000000000                 
1040001300182U 0600000000000000000000000000448200000000000000000000000000448200000000002240800000000001344400000000000000000000000000000026042010290420101900        000000000000000CIP COMPENSACAO               930                           
1040001300183T 0600249600300000286080D00000000000000000001               30042010000000000007041341004456                         090000030926350001104924588000000704197862008177030926350001110000000000000000002220000000000                 
1040001300184U 0600000000000000000000000000140800000000000000000000000000140800000000000704100000000000422500000000000000000000000000000026042010290420101900        000000000000000CIP COMPENSACAO               811                           
1040001300185T 0600249600300000286080D00000000000000000001               07101997000000000152913356001368                         090000031033940001104900000000015291397862009177031033940001300000000000000000002220000000000                 
1040001300186U 0600000000000000000000000003058300000000000000000000000003058300000000015291300000000009174700000000000000000000000000000026042010290420101900        000000000000000CIP COMPENSACAO               930                           
1040001300187T 0600249600300000286080D00000000000000000001               30042010000000000003382341004456                         090000033005310001104994588000000338297862008177033005310001110000000000000000002220000000000                 
1040001300188U 0600000000000000000000000000067600000000000000000000000000067600000000000338200000000000203000000000000000000000000000000026042010290420101900        000000000000000CIP COMPENSACAO               811                           
1040001300189T 0600249600300000286080D00000000000000000001               30042010000000000000000341007455                         090000033050890001104934588000000000097862009177033050890001300000000000000000002220000000000                 
1040001300190U 0600000000000000000000000002812700000000000000000000000002812700000000014063400000000008438000000000000000000000000000000026042010290420101900        000000000000000CIP COMPENSACAO               930                           
1040001300191T 0600249600300000286080D00000000000000000001               30042010000000000000000341030953                         090000033384010001104914588000000000097862009177033384010001300000000000000000002220000000000                 
1040001300192U 0600000000000000000000000001360700000000000000000000000001360700000000006803700000000004082300000000000000000000000000000026042010290420101900        000000000000000CIP COMPENSACAO               930                           
1040001300193T 0600249600300000286080D00000000000000000001               30042010000000000000000399004057                         090000033711220001104974588000000000097862009177033711220001300000000000000000002220000000000                 
1040001300194U 0600000000000000000000000000221600000000000000000000000000221600000000001107800000000000664600000000000000000000000000000026042010290420101900        000000000000000CIP COMPENSACAO               930                           
1040001300195T 0600249600300000286080D00000000000000000001               30042010000000000000000341001902                         090000034382330001104914588000000000097862009177034382330001300000000000000000002220000000000                 
1040001300196U 0600000000000000000000000000396000000000000000000000000000396000000000001979900000000001187900000000000000000000000000000026042010290420101900        000000000000000CIP COMPENSACAO               930                           
1040001300197T 0600249600300000286080D00000000000000000001               30042010000000000000000237012211                         090000034480680001104914588000000000097862009177034480680001300000000000000000002220000000000                 
1040001300198U 0600000000000000000000000000242500000000000000000000000000242500000000001212300000000000727300000000000000000000000000000026042010290420101900        000000000000000CIP COMPENSACAO               930                           
1040001300199T 0600249600300000286080D00000000000000000001               30042010000000000000000237001287                         090000034550470001104984588000000000097862009177034550470001300000000000000000002220000000000                 
1040001300200U 0600000000000000000000000000363600000000000000000000000000363600000000001818100000000001090900000000000000000000000000000026042010290420101900        000000000000000CIP COMPENSACAO               930                           
1040001300201T 0600249600300000286080D00000000000000000001               30042010000000000000000341000647                         090000034675830001104964588000000000097862009177034675830001300000000000000000002220000000000                 
1040001300202U 0600000000000000000000000000365600000000000000000000000000365600000000001828100000000001096900000000000000000000000000000026042010290420101900        000000000000000CIP COMPENSACAO               930                           
1040001300203T 0600249600300000286080D00000000000000000001               30042010000000000000000001035670                         090000034867030001104934588000000000097862009177034867030001300000000000000000002220000000000                 
1040001300204U 0600000000000000000000000000185900000000000000000000000000185900000000000929700000000000557900000000000000000000000000000026042010290420101900        000000000000000CIP COMPENSACAO               930                           
1040001300205T 0600249600300000286080D00000000000000000001               30042010000000000015631341001767                         090000035812700001104984588000001563197862008177035812700001110000000000000000002220000000000                 
1040001300206U 0600000000000000000000000000312600000000000000000000000000312600000000001563100000000000937900000000000000000000000000000026042010290420101900        000000000000000CIP COMPENSACAO               811                           
1040001300207T 0600249600300000286080D00000000000000000001               30042010000000000000000341000663                         090000036739070001104934588000000000097862009177036739070001300000000000000000002220000000000                 
1040001300208U 0600000000000000000000000000291600000000000000000000000000291600000000001457800000000000874600000000000000000000000000000026042010290420101900        000000000000000CIP COMPENSACAO               930                           
1040001300209T 0600249600300000286080D00000000000000000001               30042010000000000000000237038326                         090000036797900001104984588000000000097862009177036797900001300000000000000000002220000000000                 
1040001300210U 0600000000000000000000000000616100000000000000000000000000616100000000003080300000000001848100000000000000000000000000000026042010290420101900        000000000000000CIP COMPENSACAO               930                           
1040001300211T 0600249600300000286080D00000000000000000001               30042010000000000000000341007587                         090000036846260001104934588000000000097862009177036846260001300000000000000000002220000000000                 
1040001300212U 0600000000000000000000000000098000000000000000000000000000098000000000000490000000000000294000000000000000000000000000000026042010290420101900        000000000000000CIP COMPENSACAO               930                           
1040001300213T 0600249600300000286080D00000000000000000001               07101997000000000000000341016187                         090000037480220001104900000000000000097862009177037480220001300000000000000000002220000000000                 
1040001300214U 0600000000000000000000000000705400000000000000000000000000705400000000003526800000000002116000000000000000000000000000000026042010290420101900        000000000000000CIP COMPENSACAO               930                           
1040001300215T 0600249600300000286080D00000000000000000001               30042010000000000003771341004456                         090000038201630001104954588000000377197862008177038201630001110000000000000000002220000000000                 
1040001300216U 0600000000000000000000000000075400000000000000000000000000075400000000000377100000000000226300000000000000000000000000000026042010290420101900        000000000000000CIP COMPENSACAO               811                           
1040001300217T 0600249600300000286080D00000000000000000001               30042010000000000000000237001171                         090000039784880001104924588000000000097862009177039784880001300000000000000000002220000000000                 
1040001300218U 0600000000000000000000000000049400000000000000000000000000049400000000000247000000000000148200000000000000000000000000000026042010290420101900        000000000000000CIP COMPENSACAO               930                           
1040001300219T 0600249600300000286080D00000000000000000001               30042010000000000000000341003832                         090000039977240001104914588000000000097862009177039977240001300000000000000000002220000000000                 
1040001300220U 0600000000000000000000000000130000000000000000000000000000130000000000000650000000000000390000000000000000000000000000000026042010290420101900        000000000000000CIP COMPENSACAO               930                           
1040001300221T 0600249600300000286080D00000000000000000001               26042010000000000008659341001880                         090000040366700001104954584000000865997862009177040366700001300000000000000000002220000000000                 
1040001300222U 0600000000000000000000000000173200000000000000000000000000173200000000000865900000000000519500000000000000000000000000000026042010290420101900        000000000000000CIP COMPENSACAO               930                           
1040001300223T 0600249600300000286080D00000000000000000001               30042010000000000000000341007250                         090000041156880001104914588000000000097862009177041156880001300000000000000000002220000000000                 
1040001300224U 0600000000000000000000000000185700000000000000000000000000185700000000000928600000000000557200000000000000000000000000000026042010290420101900        000000000000000CIP COMPENSACAO               930                           
1040001300225T 0600249600300000286080D00000000000000000001               30042010000000000000000033001074                         090000041277870001104964588000000000097862009177041277870001300000000000000000002220000000000                 
1040001300226U 0600000000000000000000000000066700000000000000000000000000066700000000000333300000000000199900000000000000000000000000000026042010290420101900        000000000000000CIP COMPENSACAO               930                           
1040001300227T 0600249600300000286080D00000000000000000001               30042010000000000005286341000744                         090000041862860001104934588000000528697862009177041862860001600000000000000000002220000000000                 
1040001300228U 0600000000000000000000000000105700000000000000000000000000105700000000000528600000000000317200000000000000000000000000000026042010290420101900        000000000000000CIP COMPENSACAO               960                           
1040001300229T 0600249600300000286080D00000000000000000001               30042010000000000000000237037907                         090000041989690001104964588000000000097862009177041989690001300000000000000000002220000000000                 
1040001300230U 0600000000000000000000000000288200000000000000000000000000288200000000001441000000000000864600000000000000000000000000000026042010290420101900        000000000000000CIP COMPENSACAO               930                           
1040001300231T 0600249600300000286080D00000000000000000001               26042010000000000004336341001880                         090000042027750001104914584000000433697862009177042027750001300000000000000000002220000000000                 
1040001300232U 0600000000000000000000000000086700000000000000000000000000086700000000000433600000000000260200000000000000000000000000000026042010290420101900        000000000000000CIP COMPENSACAO               930                           
1040001300233T 0600249600300000286080D00000000000000000001               30042010000000000000000341002372                         090000042426940001104934588000000000097862009177042426940001300000000000000000002220000000000                 
1040001300234U 0600000000000000000000000000034500000000000000000000000000034500000000000172600000000000103600000000000000000000000000000026042010290420101900        000000000000000CIP COMPENSACAO               930                           
1040001300235T 0600249600300000286080D00000000000000000001               30042010000000000000000341002372                         090000042845380001104954588000000000097862009177042845380001300000000000000000002220000000000                 
1040001300236U 0600000000000000000000000000084200000000000000000000000000084200000000000420800000000000252400000000000000000000000000000026042010290420101900        000000000000000CIP COMPENSACAO               930                           
1040001300237T 0600249600300000286080D00000000000000000001               30042010000000000000000341002372                         090000044652240001104934588000000000097862009177044652240001300000000000000000002220000000000                 
1040001300238U 0600000000000000000000000000057500000000000000000000000000057500000000000287500000000000172500000000000000000000000000000026042010290420101900        000000000000000CIP COMPENSACAO               930                           
1040001300239T 0600249600300000286080D00000000000000000001               30042010000000000000000237003018                         090000044798970001104994588000000000097862009177044798970001300000000000000000002220000000000                 
1040001300240U 0600000000000000000000000000081800000000000000000000000000081800000000000408900000000000245300000000000000000000000000000026042010290420101900        000000000000000CIP COMPENSACAO               930                           
1040001300241T 0600249600300000286080D00000000000000000001               30042010000000000003533341029777                         090000046148770001104954588000000353397862009177046148770001600000000000000000002220000000000                 
1040001300242U 0600000000000000000000000000070700000000000000000000000000070700000000000353300000000000211900000000000000000000000000000026042010290420101900        000000000000000CIP COMPENSACAO               960                           
1040001300243T 0600249600300000286080D00000000000000000001               26042010000000000004290341001880                         090000046237030001104934584000000429097862009177046237030001300000000000000000002220000000000                 
1040001300244U 0600000000000000000000000000085800000000000000000000000000085800000000000429000000000000257400000000000000000000000000000026042010290420101900        000000000000000CIP COMPENSACAO               930                           
1040001300245T 0600249600300000286080D00000000000000000001               30042010000000000000000341001902                         090000046346570001104944588000000000097862009177046346570001300000000000000000002220000000000                 
1040001300246U 0600000000000000000000000000308300000000000000000000000000308300000000001541500000000000924900000000000000000000000000000026042010290420101900        000000000000000CIP COMPENSACAO               930                           
1040001300247T 0600249600300000286080D00000000000000000001               30042010000000000000000341007463                         090000047280780001104914588000000000097862009177047280780001300000000000000000002220000000000                 
1040001300248U 0600000000000000000000000005119600000000000000000000000005119600000000025597800000000015358600000000000000000000000000000026042010290420101900        000000000000000CIP COMPENSACAO               930                           
1040001300249T 0600249600300000286080D00000000000000000001               30042010000000000000000341000574                         090000047476250001104974588000000000097862009177047476250001300000000000000000002220000000000                 
1040001300250U 0600000000000000000000000000242900000000000000000000000000242900000000001214300000000000728500000000000000000000000000000026042010290420101900        000000000000000CIP COMPENSACAO               930                           
1040001300251T 0600249600300000286080D00000000000000000001               30042010000000000000000341007455                         090000048865190001104914588000000000097862009177048865190001300000000000000000002220000000000                 
1040001300252U 0600000000000000000000000000376300000000000000000000000000376300000000001881300000000001128700000000000000000000000000000026042010290420101900        000000000000000CIP COMPENSACAO               930                           
1040001300253T 0600249600300000286080D00000000000000000001               30042010000000000000000341077526                         090000049328300001104914588000000000097862009177049328300001300000000000000000002220000000000                 
1040001300254U 0600000000000000000000000000209500000000000000000000000000209500000000001047600000000000628600000000000000000000000000000026042010290420101900        000000000000000CIP COMPENSACAO               930                           
1040001300255T 0600249600300000286080D00000000000000000001               30042010000000000014612409001376                         090000050136500001104924588000001461297862009177050136500001300000000000000000002220000000000                 
1040001300256U 0600000000000000000000000000292200000000000000000000000000292200000000001461200000000000876800000000000000000000000000000026042010290420101900        000000000000000CIP COMPENSACAO               930                           
1040001300257T 0600249600300000286080D00000000000000000001               30042010000000000007537409004936                         090000050142050001104944588000000753797862008177050142050001290000000000000000002220000000000                 
1040001300258U 0600000000000000000000000000150700000000000000000000000000150700000000000753700000000000452300000000000000000000000000000026042010290420101900        000000000000000CIP COMPENSACAO               829                           
1040001300259T 0600249600300000286080D00000000000000000001               30042010000000000000000341030953                         090000050260610001104914588000000000097862009177050260610001300000000000000000002220000000000                 
1040001300260U 0600000000000000000000000000361500000000000000000000000000361500000000001807300000000001084300000000000000000000000000000026042010290420101900        000000000000000CIP COMPENSACAO               930                           
1040001300261T 0600249600300000286080D00000000000000000001               30042010000000000000000341004286                         090000050647540001104954588000000000097862009177050647540001300000000000000000002220000000000                 
1040001300262U 0600000000000000000000000000334400000000000000000000000000334400000000001672200000000001003400000000000000000000000000000026042010290420101900        000000000000000CIP COMPENSACAO               930                           
1040001300263T 0600249600300000286080D00000000000000000001               30042010000000000000000356000566                         090000051043600001104904588000000000097862009177051043600001300000000000000000002220000000000                 
1040001300264U 0600000000000000000000000000273500000000000000000000000000273500000000001367400000000000820400000000000000000000000000000026042010290420101900        000000000000000CIP COMPENSACAO               930                           
1040001300265T 0600249600300000286080D00000000000000000001               30042010000000000002347341064700                         090000052005950001104914588000000234797862008177052005950001110000000000000000002220000000000                 
1040001300266U 0600000000000000000000000000046900000000000000000000000000046900000000000234700000000000140900000000000000000000000000000026042010290420101900        000000000000000CIP COMPENSACAO               811                           
1040001300267T 0600249600300000286080D00000000000000000001               30042010000000000000000341000663                         090000053746370001104944588000000000097862009177053746370001300000000000000000002220000000000                 
1040001300268U 0600000000000000000000000000141300000000000000000000000000141300000000000706300000000000423700000000000000000000000000000026042010290420101900        000000000000000CIP COMPENSACAO               930                           
1040001300269T 0600249600300000286080D00000000000000000001               26042010000000000016534341001880                         090000054138140001104934584000001653497862009177054138140001300000000000000000002220000000000                 
1040001300270U 0600000000000000000000000000330700000000000000000000000000330700000000001653400000000000992000000000000000000000000000000026042010290420101900        000000000000000CIP COMPENSACAO               930                           
1040001300271T 0600249600300000286080D00000000000000000001               30042010000000000000000341001520                         090000054553000001104954588000000000097862009177054553000001300000000000000000002220000000000                 
1040001300272U 0600000000000000000000000000097500000000000000000000000000097500000000000487300000000000292300000000000000000000000000000026042010290420101900        000000000000000CIP COMPENSACAO               930                           
1040001300273T 0600249600300000286080D00000000000000000001               26042010000000000006103341001880                         090000055825710001104924584000000610397862009177055825710001300000000000000000002220000000000                 
1040001300274U 0600000000000000000000000000122100000000000000000000000000122100000000000610300000000000366100000000000000000000000000000026042010290420101900        000000000000000CIP COMPENSACAO               930                           
1040001300275T 0600249600300000286080D00000000000000000001               30042010000000000000000341000744                         090000057598170001104924588000000000097862009177057598170001300000000000000000002220000000000                 
1040001300276U 0600000000000000000000000000295900000000000000000000000000295900000000001479400000000000887600000000000000000000000000000026042010290420101900        000000000000000CIP COMPENSACAO               930                           
1040001300277T 0600249600300000286080D00000000000000000001               30042010000000000000000341030740                         090000058094000001104924588000000000097862009177058094000001300000000000000000002220000000000                 
1040001300278U 0600000000000000000000000000098000000000000000000000000000098000000000000489800000000000293800000000000000000000000000000026042010290420101900        000000000000000CIP COMPENSACAO               930                           
1040001300279T 0600249600300000286080D00000000000000000001               30042010000000000010600341030368                         090000058619890001104914588000001060097862009177058619890001430000000000000000002220000000000                 
1040001300280U 0600000000000000000000000000212000000000000000000000000000212000000000001060000000000000636000000000000000000000000000000026042010290420101900        000000000000000CIP COMPENSACAO               943                           
1040001300281T 0600249600300000286080D00000000000000000001               30042010000000000000000341000744                         090000058679630001104964588000000000097862009177058679630001300000000000000000002220000000000                 
1040001300282U 0600000000000000000000000000076900000000000000000000000000076900000000000384400000000000230600000000000000000000000000000026042010290420101900        000000000000000CIP COMPENSACAO               930                           
1040001300283T 0600249600300000286080D00000000000000000001               30042010000000000000000237001376                         090000059096400001104914588000000000097862009177059096400001300000000000000000002220000000000                 
1040001300284U 0600000000000000000000000000092800000000000000000000000000092800000000000464000000000000278400000000000000000000000000000026042010290420101900        000000000000000CIP COMPENSACAO               930                           
1040001300285T 0600249600300000286080D00000000000000000001               30042010000000000003783033021946                         090000059183290001104984588000000378397862008177059183290001110000000000000000002220000000000                 
1040001300286U 0600000000000000000000000000075700000000000000000000000000075700000000000378300000000000226900000000000000000000000000000026042010290420101900        000000000000000CIP COMPENSACAO               811                           
1040001300287T 0600249600300000286080D00000000000000000001               30042010000000000000000341007625                         090000059189540001104984588000000000097862009177059189540001300000000000000000002220000000000                 
1040001300288U 0600000000000000000000000000049000000000000000000000000000049000000000000244900000000000146900000000000000000000000000000026042010290420101900        000000000000000CIP COMPENSACAO               930                           
1040001300289T 0600249600300000286080D00000000000000000001               30042010000000000000000341000744                         090000059799410001104934588000000000097862009177059799410001300000000000000000002220000000000                 
1040001300290U 0600000000000000000000000000369600000000000000000000000000369600000000001848200000000001109000000000000000000000000000000026042010290420101900        000000000000000CIP COMPENSACAO               930                           
1040001300291T 0600249600300000286080D00000000000000000001               30042010000000000000000341029220                         090000059919080001104914588000000000097862009177059919080001300000000000000000002220000000000                 
1040001300292U 0600000000000000000000000000044900000000000000000000000000044900000000000224500000000000134700000000000000000000000000000026042010290420101900        000000000000000CIP COMPENSACAO               930                           
1040001300293T 0600249600300000286080D00000000000000000001               30042010000000000000000341000680                         090000060121530001104914588000000000097862009177060121530001300000000000000000002220000000000                 
1040001300294U 0600000000000000000000000000349000000000000000000000000000349000000000001745200000000001047200000000000000000000000000000026042010290420101900        000000000000000CIP COMPENSACAO               930                           
1040001300295T 0600249600300000286080D00000000000000000001               30042010000000000000000341007757                         090000060833210001104994588000000000097862009177060833210001300000000000000000002220000000000                 
1040001300296U 0600000000000000000000000000049000000000000000000000000000049000000000000244900000000000146900000000000000000000000000000026042010290420101900        000000000000000CIP COMPENSACAO               930                           
1040001300297T 0600249600300000286080D00000000000000000001               30042010000000000000000341007633                         090000061237370001104974588000000000097862009177061237370001300000000000000000002220000000000                 
1040001300298U 0600000000000000000000000000404700000000000000000000000000404700000000002023300000000001213900000000000000000000000000000026042010290420101900        000000000000000CIP COMPENSACAO               930                           
1040001300299T 0600249600300000286080D00000000000000000001               30042010000000000000000341029220                         090000061267080001104964588000000000097862009177061267080001300000000000000000002220000000000                 
1040001300300U 0600000000000000000000000000032800000000000000000000000000032800000000000163800000000000098200000000000000000000000000000026042010290420101900        000000000000000CIP COMPENSACAO               930                           
1040001300301T 0600249600300000286080D00000000000000000001               30042010000000000000000341000744                         090000065554680001104964588000000000097862009177065554680001300000000000000000002220000000000                 
1040001300302U 0600000000000000000000000000098200000000000000000000000000098200000000000490800000000000294400000000000000000000000000000026042010290420101900        000000000000000CIP COMPENSACAO               930                           
1040001300303T 0600249600300000286080D00000000000000000001               30042010000000000000000341000647                         090000070181820001104924588000000000097862009177070181820001300000000000000000002220000000000                 
1040001300304U 0600000000000000000000000000321800000000000000000000000000321800000000001609100000000000965500000000000000000000000000000026042010290420101900        000000000000000CIP COMPENSACAO               930                           
1040001300305T 0600249600300000286080D00000000000000000001               30042010000000000010428237037796                         090000070188600001104934588000001042897862008177070188600001110000000000000000002220000000000                 
1040001300306U 0600000000000000000000000000208600000000000000000000000000208600000000001042800000000000625600000000000000000000000000000026042010290420101900        000000000000000CIP COMPENSACAO               811                           
1040001300307T 0600249600300000286080D00000000000000000001               30042010000000000002347341004456                         090000071098630001104934588000000234797862008177071098630001110000000000000000002220000000000                 
1040001300308U 0600000000000000000000000000046900000000000000000000000000046900000000000234700000000000140900000000000000000000000000000026042010290420101900        000000000000000CIP COMPENSACAO               811                           
1040001300309T 0600249600300000286080D00000000000000000001               30042010000000000000000341000647                         090000072531410001104924588000000000097862009177072531410001300000000000000000002220000000000                 
1040001300310U 0600000000000000000000000000046900000000000000000000000000046900000000000234700000000000140900000000000000000000000000000026042010290420101900        000000000000000CIP COMPENSACAO               930                           
1040001300311T 0600249600300000286080D00000000000000000001               30042010000000000000000341000663                         090000072545600001104934588000000000097862009177072545600001300000000000000000002220000000000                 
1040001300312U 0600000000000000000000000000171500000000000000000000000000171500000000000857500000000000514500000000000000000000000000000026042010290420101900        000000000000000CIP COMPENSACAO               930                           
1040001300313T 0600249600300000286080D00000000000000000001               30042010000000000000000409003336                         090000073764660001104944588000000000097862009177073764660001300000000000000000002220000000000                 
1040001300314U 0600000000000000000000000000142900000000000000000000000000142900000000000714300000000000428500000000000000000000000000000026042010290420101900        000000000000000CIP COMPENSACAO               930                           
1040001300315T 0600249600300000286080D00000000000000000001               30042010000000000000000341007633                         090000073800200001104914588000000000097862009177073800200001300000000000000000002220000000000                 
1040001300316U 0600000000000000000000000000458600000000000000000000000000458600000000002293200000000001376000000000000000000000000000000026042010290420101900        000000000000000CIP COMPENSACAO               930                           
1040001300317T 0600249600300000286080D00000000000000000001               30042010000000000000000341007412                         090000074353070001104914588000000000097862009177074353070001300000000000000000002220000000000                 
1040001300318U 0600000000000000000000000000366000000000000000000000000000366000000000001829800000000001097800000000000000000000000000000026042010290420101900        000000000000000CIP COMPENSACAO               930                           
1040001300319T 0600249600300000286080D00000000000000000001               30042010000000000000000341000744                         090000075678070001104914588000000000097862009177075678070001300000000000000000002220000000000                 
1040001300320U 0600000000000000000000000000084100000000000000000000000000084100000000000420300000000000252100000000000000000000000000000026042010290420101900        000000000000000CIP COMPENSACAO               930                           
1040001300321T 0600249600300000286080D00000000000000000001               30042010000000000000000341007587                         090000075856390001104934588000000000097862009177075856390001300000000000000000002220000000000                 
1040001300322U 0600000000000000000000000000426900000000000000000000000000426900000000002134400000000001280600000000000000000000000000000026042010290420101900        000000000000000CIP COMPENSACAO               930                           
1040001300323T 0600249600300000286080D00000000000000000001               30042010000000000000000399003190                         090000077549540001104924588000000000097862009177077549540001300000000000000000002220000000000                 
1040001300324U 0600000000000000000000000000516500000000000000000000000000516500000000002582700000000001549700000000000000000000000000000026042010290420101900        000000000000000CIP COMPENSACAO               930                           
1040001300325T 0600249600300000286080D00000000000000000001               30042010000000000000000237027499                         090000078635670001104944588000000000097862009177078635670001300000000000000000002220000000000                 
1040001300326U 0600000000000000000000000000300000000000000000000000000000300000000000001500000000000000900000000000000000000000000000000026042010290420101900        000000000000000CIP COMPENSACAO               930                           
1040001300327T 0600249600300000286080D00000000000000000001               30042010000000000000000341030953                         090000079293210001104984588000000000097862009177079293210001300000000000000000002220000000000                 
1040001300328U 0600000000000000000000000000084400000000000000000000000000084400000000000421800000000000253000000000000000000000000000000026042010290420101900        000000000000000CIP COMPENSACAO               930                           
1040001300329T 0600249600300000286080D00000000000000000001               30042010000000000000000341007587                         090000080202850001104914588000000000097862009177080202850001300000000000000000002220000000000                 
1040001300330U 0600000000000000000000000000452100000000000000000000000000452100000000002260300000000001356100000000000000000000000000000026042010290420101900        000000000000000CIP COMPENSACAO               930                           
1040001300331T 0600249600300000286080D00000000000000000001               30042010000000000000000341007587                         090000080801660001104914588000000000097862009177080801660001300000000000000000002220000000000                 
1040001300332U 0600000000000000000000000000114800000000000000000000000000114800000000000574000000000000344400000000000000000000000000000026042010290420101900        000000000000000CIP COMPENSACAO               930                           
1040001300333T 0600249600300000286080D00000000000000000001               30042010000000000000000341000647                         090000082678240001104944588000000000097862009177082678240001300000000000000000002220000000000                 
1040001300334U 0600000000000000000000000000040000000000000000000000000000040000000000000200000000000000120000000000000000000000000000000026042010290420101900        000000000000000CIP COMPENSACAO               930                           
1040001300335T 0600249600300000286080D00000000000000000001               30042010000000000000000341007587                         090000082826020001104954588000000000097862009177082826020001300000000000000000002220000000000                 
1040001300336U 0600000000000000000000000000520900000000000000000000000000520900000000002604300000000001562500000000000000000000000000000026042010290420101900        000000000000000CIP COMPENSACAO               930                           
1040001300337T 0600249600300000286080D00000000000000000001               26042010000000000005780341001880                         090000083690360001104964584000000578097862009177083690360001300000000000000000002220000000000                 
1040001300338U 0600000000000000000000000000115600000000000000000000000000115600000000000578000000000000346800000000000000000000000000000026042010290420101900        000000000000000CIP COMPENSACAO               930                           
1040001300339T 0600249600300000286080D00000000000000000001               07101997000000000000000341004286                         090000085760260001104900000000000000097862009177085760260001300000000000000000002220000000000                 
1040001300340U 0600000000000000000000000000422000000000000000000000000000422000000000002110000000000001266000000000000000000000000000000026042010290420101900        000000000000000CIP COMPENSACAO               930                           
1040001300341T 0600249600300000286080D00000000000000000001               30042010000000000002245237037907                         090000092924200001104914588000000224597862009177092924200001600000000000000000002220000000000                 
1040001300342U 0600000000000000000000000000044900000000000000000000000000044900000000000224500000000000134700000000000000000000000000000026042010290420101900        000000000000000CIP COMPENSACAO               960                           
1040001300343T 0600249600300000286080D00000000000000000001               30042010000000000000000341016187                         090000093476840001104964588000000000097862009177093476840001300000000000000000002220000000000                 
1040001300344U 0600000000000000000000000000077700000000000000000000000000077700000000000388600000000000233200000000000000000000000000000026042010290420101900        000000000000000CIP COMPENSACAO               930                           
1040001300345T 0600249600300000286080D00000000000000000001               30042010000000000024439341010006                         090000093635040001104954588000002443997862008177093635040001110000000000000000002220000000000                 
1040001300346U 0600000000000000000000000000488800000000000000000000000000488800000000002443900000000001466300000000000000000000000000000026042010290420101900        000000000000000CIP COMPENSACAO               811                           
1040001300347T 0600249600300000286080D00000000000000000001               30042010000000000000000409001392                         090000094634170001104944588000000000097862009177094634170001300000000000000000002220000000000                 
1040001300348U 0600000000000000000000000000567400000000000000000000000000567400000000002836800000000001702000000000000000000000000000000026042010290420101900        000000000000000CIP COMPENSACAO               930                           
1040001300349T 0600249600300000286080D00000000000000000001               30042010000000000000000237037907                         090000094773560001104964588000000000097862009177094773560001300000000000000000002220000000000                 
1040001300350U 0600000000000000000000000000090500000000000000000000000000090500000000000452300000000000271300000000000000000000000000000026042010290420101900        000000000000000CIP COMPENSACAO               930                           
1040001300351T 0600249600300000286080D00000000000000000001               30042010000000000000000237019984                         090000094955520001104914588000000000097862009177094955520001300000000000000000002220000000000                 
1040001300352U 0600000000000000000000000000279900000000000000000000000000279900000000001399700000000000839900000000000000000000000000000026042010290420101900        000000000000000CIP COMPENSACAO               930                           
1040001300353T 0600249600300000286080D00000000000000000001               30042010000000000000000341077828                         090000102847070001104994588000000000097862009177102847070001300000000000000000002220000000000                 
1040001300354U 0600000000000000000000000000063300000000000000000000000000063300000000000316700000000000190100000000000000000000000000000026042010290420101900        000000000000000CIP COMPENSACAO               930                           
1040001300355T 0600249600300000286080D00000000000000000001               30042010000000000000000341077828                         090000104674270001104984588000000000097862009177104674270001300000000000000000002220000000000                 
1040001300356U 0600000000000000000000000000150400000000000000000000000000150400000000000752000000000000451200000000000000000000000000000026042010290420101900        000000000000000CIP COMPENSACAO               930                           
1040001300357T 0600249600300000286080D00000000000000000001               30042010000000000000000341007587                         090000105050130001104954588000000000097862009177105050130001300000000000000000002220000000000                 
1040001300358U 0600000000000000000000000000200700000000000000000000000000200700000000001003600000000000602200000000000000000000000000000026042010290420101900        000000000000000CIP COMPENSACAO               930                           
1040001300359T 0600249600300000286080D00000000000000000001               30042010000000000000000341007587                         090000108936530001104914588000000000097862009177108936530001300000000000000000002220000000000                 
1040001300360U 0600000000000000000000000000280000000000000000000000000000280000000000001400000000000000840000000000000000000000000000000026042010290420101900        000000000000000CIP COMPENSACAO               930                           
1040001300361T 0600249600300000286080D00000000000000000001               30042010000000000003333341006173                         090000115974460001104954588000000333397862008177115974460001110000000000000000002220000000000                 
1040001300362U 0600000000000000000000000000066700000000000000000000000000066700000000000333300000000000199900000000000000000000000000000026042010290420101900        000000000000000CIP COMPENSACAO               811                           
1040001300363T 0600249600300000286080D00000000000000000001               30042010000000000008809409001694                         090000219020013802104914588000000880997862008177219020013802110000000000000000002220000000000                 
1040001300364U 0600000000000000000000000000176200000000000000000000000000176200000000000880900000000000528500000000000000000000000000000026042010290420101900        000000000000000CIP COMPENSACAO               811                           
1040001300365T 0600249600300000286080D00000000000000000001               30042010000000000000000341007587                         090000388796230001104914588000000000097862009177388796230001300000000000000000002220000000000                 
1040001300366U 0600000000000000000000000000187800000000000000000000000000187800000000000938800000000000563200000000000000000000000000000026042010290420101900        000000000000000CIP COMPENSACAO               930                           
1040001300367T 0600249600300000286080D00000000000000000001               26042010000000000022532341001880                         090000388817440001104984584000002253297862009177388817440001300000000000000000002220000000000                 
1040001300368U 0600000000000000000000000000450600000000000000000000000000450600000000002253200000000001352000000000000000000000000000000026042010290420101900        000000000000000CIP COMPENSACAO               930                           
1040001300369T 0600249600300000286080D00000000000000000001               30042010000000000015962341004456                         090000388851660001104964588000001596297862008177388851660001110000000000000000002220000000000                 
1040001300370U 0600000000000000000000000000319200000000000000000000000000319200000000001596200000000000957800000000000000000000000000000026042010290420101900        000000000000000CIP COMPENSACAO               811                           
1040001300371T 0600249600300000286080D00000000000000000001               26042010000000000023454341001880                         090000388857110001104914584000002345497862009177388857110001300000000000000000002220000000000                 
1040001300372U 0600000000000000000000000000469100000000000000000000000000469100000000002345400000000001407200000000000000000000000000000026042010290420101900        000000000000000CIP COMPENSACAO               930                           
1040001300373T 0600249600300000286080D00000000000000000001               30042010000000000000000237001988                         090000388883760001104914588000000000097862009177388883760001300000000000000000002220000000000                 
1040001300374U 0600000000000000000000000000343000000000000000000000000000343000000000001715100000000001029100000000000000000000000000000026042010290420101900        000000000000000CIP COMPENSACAO               930                           
1040001300375T 0600249600300000286080D00000000000000000001               30042010000000000002776001003018                         090000388909840001104974588000000277697862008177388909840001110000000000000000002220000000000                 
1040001300376U 0600000000000000000000000000055500000000000000000000000000055500000000000277600000000000166600000000000000000000000000000026042010290420101900        000000000000000CIP COMPENSACAO               811                           
1040001300377T 0600249600300000286080D00000000000000000001               30042010000000000000000341003506                         090000467501620001104944588000000000097862009177467501620001300000000000000000002220000000000                 
1040001300378U 0600000000000000000000000000343200000000000000000000000000343200000000001715800000000001029400000000000000000000000000000026042010290420101900        000000000000000CIP COMPENSACAO               930                           
1040001300379T 0600249600300000286080D00000000000000000001               30042010000000000000000341003506                         090000467501620001104944588000000000097862009177467501620001300000000000000000002220000000000                 
1040001300380U 0600000000000000000000000000075800000000000000000000000000075800000000000378900000000000227300000000000000000000000000000026042010290420101900        000000000000000CIP COMPENSACAO               930                           
1040001300381T 0600249600300000286080D00000000000000000001               30042010000000000000000341003506                         090000467501620001104944588000000000097862009177467501620001300000000000000000002220000000000                 
1040001300382U 0600000000000000000000000000053300000000000000000000000000053300000000000266700000000000160100000000000000000000000000000026042010290420101900        000000000000000CIP COMPENSACAO               930                           
1040001300383T 0600249600300000286080D00000000000000000001               30042010000000000000000341003506                         090000538223590001104994588000000000097862009177538223590001300000000000000000002220000000000                 
1040001300384U 0600000000000000000000000000884600000000000000000000000000884600000000004423000000000002653800000000000000000000000000000026042010290420101900        000000000000000CIP COMPENSACAO               930                           
1040001300385T 0600249600300000286080D00000000000000000001               30042010000000000000000341007404                         090000538228540001104964588000000000097862009177538228540001300000000000000000002220000000000                 
1040001300386U 0600000000000000000000000000267200000000000000000000000000267200000000001336000000000000801600000000000000000000000000000026042010290420101900        000000000000000CIP COMPENSACAO               930                           
1040001300387T 0600249600300000286080D00000000000000000001               30042010000000000000000341002372                         090000538251960001104934588000000000097862009177538251960001300000000000000000002220000000000                 
1040001300388U 0600000000000000000000000000045000000000000000000000000000045000000000000225000000000000135000000000000000000000000000000026042010290420101900        000000000000000CIP COMPENSACAO               930                           
1040001300389T 0600249600300000286080D00000000000000000001               30042010000000000000000341002372                         090000538263680001104974588000000000097862009177538263680001300000000000000000002220000000000                 
1040001300390U 0600000000000000000000000000313200000000000000000000000000313200000000001566100000000000939700000000000000000000000000000026042010290420101900        000000000000000CIP COMPENSACAO               930                           
1040001300391T 0600249600300000286080D00000000000000000001               30042010000000000000000341002372                         090000538279030001104994588000000000097862009177538279030001300000000000000000002220000000000                 
1040001300392U 0600000000000000000000000000402400000000000000000000000000402400000000002012000000000001207200000000000000000000000000000026042010290420101900        000000000000000CIP COMPENSACAO               930                           
1040001300393T 0600249600300000286080D00000000000000000001               30042010000000000000000237005487                         090000538310530001104974588000000000097862009177538310530001300000000000000000002220000000000                 
1040001300394U 0600000000000000000000000000605900000000000000000000000000605900000000003029300000000001817500000000000000000000000000000026042010290420101900        000000000000000CIP COMPENSACAO               930                           
1040001300395T 0600249600300000286080D00000000000000000001               30042010000000000000000341007587                         090000538323410001104914588000000000097862009177538323410001300000000000000000002220000000000                 
1040001300396U 0600000000000000000000000000059100000000000000000000000000059100000000000295300000000000177100000000000000000000000000000026042010290420101900        000000000000000CIP COMPENSACAO               930                           
1040001300397T 0600249600300000286080D00000000000000000001               30042010000000000000000341030104                         090000538330830001104974588000000000097862009177538330830001300000000000000000002220000000000                 
1040001300398U 0600000000000000000000000000051600000000000000000000000000051600000000000258000000000000154800000000000000000000000000000026042010290420101900        000000000000000CIP COMPENSACAO               930                           
1040001300399T 0600249600300000286080D00000000000000000001               07101997000000000000000341004286                         090000538344380001104900000000000000097862009177538344380001300000000000000000002220000000000                 
1040001300400U 0600000000000000000000000000257700000000000000000000000000257700000000001288300000000000772900000000000000000000000000000026042010290420101900        000000000000000CIP COMPENSACAO               930                           
1040001300401T 0600249600300000286080D00000000000000000001               30042010000000000000000237014354                         090000538347920001104914588000000000097862009177538347920001300000000000000000002220000000000                 
1040001300402U 0600000000000000000000000000250000000000000000000000000000250000000000001250100000000000750100000000000000000000000000000026042010290420101900        000000000000000CIP COMPENSACAO               930                           
1040001300403T 0600249600300000286080D00000000000000000001               07101997000000000000000341000272                         090000538351790001104900000000000000097862009177538351790001300000000000000000002220000000000                 
1040001300404U 0600000000000000000000000000396700000000000000000000000000396700000000001983300000000001189900000000000000000000000000000026042010290420101900        000000000000000CIP COMPENSACAO               930                           
1040001300405T 0600249600300000286080D00000000000000000001               30042010000000000000000341007374                         090000538362430001104984588000000000097862009177538362430001300000000000000000002220000000000                 
1040001300406U 0600000000000000000000000000171200000000000000000000000000171200000000000855900000000000513500000000000000000000000000000026042010290420101900        000000000000000CIP COMPENSACAO               930                           
1040001300407T 0600249600300000286080D00000000000000000001               30042010000000000000000356005622                         090000538365160001104904588000000000097862009177538365160001300000000000000000002220000000000                 
1040001300408U 0600000000000000000000000001969300000000000000000000000001969300000000009846400000000005907800000000000000000000000000000026042010290420101900        000000000000000CIP COMPENSACAO               930                           
1040001300409T 0600249600300000286080D00000000000000000001               30042010000000000000000341001732                         090000538367970001104994588000000000097862009177538367970001300000000000000000002220000000000                 
1040001300410U 0600000000000000000000000000234600000000000000000000000000234600000000001172900000000000703700000000000000000000000000000026042010290420101900        000000000000000CIP COMPENSACAO               930                           
1040001300411T 0600249600300000286080D00000000000000000001               30042010000000000000000237000914                         090000539854610001104924588000000000097862009177539854610001300000000000000000002220000000000                 
1040001300412U 0600000000000000000000000000049100000000000000000000000000049100000000000245700000000000147500000000000000000000000000000026042010290420101900        000000000000000CIP COMPENSACAO               930                           
