10400000         243070481000114186200              00249600300000286080SINEMPEDIFPORTCAB MUN SP      CAIXA ECONOMICA FEDERAL                 20405201005475000126006000000                                                                     
10400011T01  030 2043070481000114186200              00249600300000286080SINEMPEDIFPORTCAB MUN SP      200501                                  000000                                  000000000405201000000000                                 
1040001300001T 0600249600300000286080D00000000000000000001               30042010000000000000000237000990                         090000000000000000104914588000000000097862009177000000000000300000000000000000002220000000000                 
1040001300002U 0600000000000000000000000000200800000000000000000000000000200800000000001004000000000000602400000000000000000000000000000029042010040520101900        000000000000000CIP COMPENSACAO               930                           
1040001300003T 0600249600300000286080D00000000000000000001               30042010000000000000000237000949                         090000000000000109104934588000000000097862009177000000000109300000000000000000002220000000000                 
1040001300004U 0600000000000000000000000000259600000000000000000000000000259600000000001298000000000000778800000000000000000000000000000029042010040520101900        000000000000000CIP COMPENSACAO               930                           
1040001300005T 0600249600300000286080D00000000000000000001               07101997000000000019142356001368                         090000000000320001104900000000001914297862009177000000320001300000000000000000002220000000000                 
1040001300006U 0600000000000000000000000000382800000000000000000000000000382800000000001914200000000001148600000000000000000000000000000029042010040520101900        000000000000000CIP COMPENSACAO               930                           
1040001300007T 0600249600300000286080D00000000000000000001               07101997000000000001002356001368                         090000000335550878104900000000000100297862009177000335550878600000000000000000002220000000000                 
1040001300008U 0600000000000000000000000000020000000000000000000000000000020000000000000100200000000000060200000000000000000000000000000029042010040520101900        000000000000000CIP COMPENSACAO               960                           
1040001300009T 0600249600300000286080D00000000000000000001               30042010000000000007174237037907                         090000000592269868104934588000000717497862008177000592269868120000000000000000002220000000000                 
1040001300010U 0600000000000000000000000000143500000000000000000000000000143500000000000717400000000000430400000000000000000000000000000029042010040520101900        000000000000000CIP COMPENSACAO               812                           
1040001300011T 0600249600300000286080D00000000000000000001               30042010000000000000000341003832                         090000000660630001104994588000000000097862009177000660630001300000000000000000002220000000000                 
1040001300012U 0600000000000000000000000000044900000000000000000000000000044900000000000224600000000000134800000000000000000000000000000029042010040520101900        000000000000000CIP COMPENSACAO               930                           
1040001300013T 0600249600300000286080D00000000000000000001               30042010000000000000000341008451                         090000000688227798104914588000000000097862009177000688227798300000000000000000002220000000000                 
1040001300014U 0600000000000000000000000000107500000000000000000000000000107500000000000537600000000000322600000000000000000000000000000029042010040520101900        000000000000000CIP COMPENSACAO               930                           
1040001300015T 0600249600300000286080D00000000000000000001               30042010000000000000000237003018                         090000000713070001104934588000000000097862009177000713070001300000000000000000002220000000000                 
1040001300016U 0600000000000000000000000000061700000000000000000000000000061700000000000308300000000000184900000000000000000000000000000029042010040520101900        000000000000000CIP COMPENSACAO               930                           
1040001300017T 0600249600300000286080D00000000000000000001               07101997000000000002660356001368                         090000000743178815104900000000000266097862009177000743178815600000000000000000002220000000000                 
1040001300018U 0600000000000000000000000000053200000000000000000000000000053200000000000266000000000000159600000000000000000000000000000029042010040520101900        000000000000000CIP COMPENSACAO               960                           
1040001300019T 0600249600300000286080D00000000000000000001               30042010000000000000000422000973                         090000000764580001104914588000000000097862009177000764580001300000000000000000002220000000000                 
1040001300020U 0600000000000000000000000000071500000000000000000000000000071500000000000357300000000000214300000000000000000000000000000029042010040520101900        000000000000000CIP COMPENSACAO               930                           
1040001300021T 0600249600300000286080D00000000000000000001               30042010000000000000000341002372                         090000000776230001104944588000000000097862009177000776230001300000000000000000002220000000000                 
1040001300022U 0600000000000000000000000000106600000000000000000000000000106600000000000533200000000000320000000000000000000000000000000029042010040520101900        000000000000000CIP COMPENSACAO               930                           
1040001300023T 0600249600300000286080D00000000000000000001               30042010000000000000000237037796                         090000000822830001104924588000000000097862009177000822830001300000000000000000002220000000000                 
1040001300024U 0600000000000000000000000000065400000000000000000000000000065400000000000327100000000000196300000000000000000000000000000029042010040520101900        000000000000000CIP COMPENSACAO               930                           
1040001300025T 0600249600300000286080D00000000000000000001               30042010000000000000000341004286                         090000000837830001104914588000000000097862009177000837830001300000000000000000002220000000000                 
1040001300026U 0600000000000000000000000000055300000000000000000000000000055300000000000276600000000000166000000000000000000000000000000029042010040520101900        000000000000000CIP COMPENSACAO               930                           
1040001300027T 0600249600300000286080D00000000000000000001               30042010000000000000000341004405                         090000000904750001104944588000000000097862009177000904750001300000000000000000002220000000000                 
1040001300028U 0600000000000000000000000000439700000000000000000000000000439700000000002198600000000001319200000000000000000000000000000029042010040520101900        000000000000000CIP COMPENSACAO               930                           
1040001300029T 0600249600300000286080D00000000000000000001               30042010000000000000000341001899                         090000000926000001104994588000000000097862009177000926000001300000000000000000002220000000000                 
1040001300030U 0600000000000000000000000000248100000000000000000000000000248100000000001240600000000000744400000000000000000000000000000029042010040520101900        000000000000000CIP COMPENSACAO               930                           
1040001300031T 0600249600300000286080D00000000000000000001               30042010000000000000000237024031                         090000000926050001104924588000000000097862009177000926050001300000000000000000002220000000000                 
1040001300032U 0600000000000000000000000000340800000000000000000000000000340800000000001704000000000001022400000000000000000000000000000029042010040520101900        000000000000000CIP COMPENSACAO               930                           
1040001300033T 0600249600300000286080D00000000000000000001               30042010000000000000000422000973                         090000001027410001104954588000000000097862009177001027410001300000000000000000002220000000000                 
1040001300034U 0600000000000000000000000000419900000000000000000000000000419900000000002099600000000001259800000000000000000000000000000029042010040520101900        000000000000000CIP COMPENSACAO               930                           
1040001300035T 0600249600300000286080D00000000000000000001               30042010000000000000000341064360                         090000001104510001104944588000000000097862009177001104510001300000000000000000002220000000000                 
1040001300036U 0600000000000000000000000000095900000000000000000000000000095900000000000479600000000000287800000000000000000000000000000029042010040520101900        000000000000000CIP COMPENSACAO               930                           
1040001300037T 0600249600300000286080D00000000000000000001               30042010000000000013529341029238                         090000001266550001104944588000001352997862009177001266550001300000000000000000002220000000000                 
1040001300038U 0600000000000000000000000000270600000000000000000000000000270600000000001352900000000000811700000000000000000000000000000029042010040520101900        000000000000000CIP COMPENSACAO               930                           
1040001300039T 0600249600300000286080D00000000000000000001               30042010000000000000000341004405                         090000001277140001104974588000000000097862009177001277140001300000000000000000002220000000000                 
1040001300040U 0600000000000000000000000000139900000000000000000000000000139900000000000699300000000000419500000000000000000000000000000029042010040520101900        000000000000000CIP COMPENSACAO               930                           
1040001300041T 0600249600300000286080D00000000000000000001               30042010000000000026224341018210                         090000001357740001104974588000002622497862009177001357740001300000000000000000002220000000000                 
1040001300042U 0600000000000000000000000000524500000000000000000000000000524500000000002622400000000001573400000000000000000000000000000029042010040520101900        000000000000000CIP COMPENSACAO               930                           
1040001300043T 0600249600300000286080D00000000000000000001               30042010000000000000000341002623                         090000001511770001104924588000000000097862009177001511770001300000000000000000002220000000000                 
1040001300044U 0600000000000000000000000000210800000000000000000000000000210800000000001054000000000000632400000000000000000000000000000029042010040520101900        000000000000000CIP COMPENSACAO               930                           
1040001300045T 0600249600300000286080D00000000000000000001               30042010000000000000000237037907                         090000001633360001104914588000000000097862009177001633360001300000000000000000002220000000000                 
1040001300046U 0600000000000000000000000000485900000000000000000000000000485900000000002429400000000001457600000000000000000000000000000029042010040520101900        000000000000000CIP COMPENSACAO               930                           
1040001300047T 0600249600300000286080D00000000000000000001               30042010000000000000000237003018                         090000001657640001104974588000000000097862009177001657640001300000000000000000002220000000000                 
1040001300048U 0600000000000000000000000000337400000000000000000000000000337400000000001687100000000001012300000000000000000000000000000029042010040520101900        000000000000000CIP COMPENSACAO               930                           
1040001300049T 0600249600300000286080D00000000000000000001               30042010000000000000000237032638                         090000001661780001104984588000000000097862009177001661780001300000000000000000002220000000000                 
1040001300050U 0600000000000000000000000000462000000000000000000000000000462000000000002310000000000001386000000000000000000000000000000029042010040520101900        000000000000000CIP COMPENSACAO               930                           
1040001300051T 0600249600300000286080D00000000000000000001               30042010000000000000000341006416                         090000001760330001104954588000000000097862009177001760330001300000000000000000002220000000000                 
1040001300052U 0600000000000000000000000000902800000000000000000000000000902800000000004514000000000002708400000000000000000000000000000029042010040520101900        000000000000000CIP COMPENSACAO               930                           
1040001300053T 0600249600300000286080D00000000000000000001               30042010000000000000000341000370                         090000002190110981104914588000000000097862009177002190110981300000000000000000002220000000000                 
1040001300054U 0600000000000000000000000000105500000000000000000000000000105500000000000527300000000000316300000000000000000000000000000029042010040520101900        000000000000000CIP COMPENSACAO               930                           
1040001300055T 0600249600300000286080D00000000000000000001               30042010000000000000000341000370                         090000002190110981104914588000000000097862009177002190110981300000000000000000002220000000000                 
1040001300056U 0600000000000000000000000000069300000000000000000000000000069300000000000346700000000000208100000000000000000000000000000029042010040520101900        000000000000000CIP COMPENSACAO               930                           
1040001300057T 0600249600300000286080D00000000000000000001               30042010000000000000000422000973                         090000002190112144104984588000000000097862009177002190112144300000000000000000002220000000000                 
1040001300058U 0600000000000000000000000000275300000000000000000000000000275300000000001376600000000000826000000000000000000000000000000029042010040520101900        000000000000000CIP COMPENSACAO               930                           
1040001300059T 0600249600300000286080D00000000000000000001               07101997000000000007147356008885                         090000002190113766104900000000000714797862009177002190113766300000000000000000002220000000000                 
1040001300060U 0600000000000000000000000000142900000000000000000000000000142900000000000714700000000000428900000000000000000000000000000029042010040520101900        000000000000000CIP COMPENSACAO               930                           
1040001300061T 0600249600300000286080D00000000000000000001               30042010000000000000000341002623                         090000002190114750104924588000000000097862009177002190114750300000000000000000002220000000000                 
1040001300062U 0600000000000000000000000000457100000000000000000000000000457100000000002285700000000001371500000000000000000000000000000029042010040520101900        000000000000000CIP COMPENSACAO               930                           
1040001300063T 0600249600300000286080D00000000000000000001               30042010000000000000000151005290                         090000002190114808104914588000000000097862009177002190114808300000000000000000002220000000000                 
1040001300064U 0600000000000000000000000000046500000000000000000000000000046500000000000232700000000000139700000000000000000000000000000029042010040520101900        000000000000000CIP COMPENSACAO               930                           
1040001300065T 0600249600300000286080D00000000000000000001               07101997000000000004549356001368                         090000002190115679104900000000000454997862009177002190115679300000000000000000002220000000000                 
1040001300066U 0600000000000000000000000000091000000000000000000000000000091000000000000454900000000000272900000000000000000000000000000029042010040520101900        000000000000000CIP COMPENSACAO               930                           
1040001300067T 0600249600300000286080D00000000000000000001               30042010000000000002449341002526                         090000002190126051104914588000000244997862006177002190126051810000000000000000002220000000000                 
1040001300068U 0600000000000000000000000000049000000000000000000000000000049000000000000244900000000000146900000000000000000000000000000029042010040520101900        000000000000000CIP COMPENSACAO               681                           
1040001300069T 0600249600300000286080D00000000000000000001               07101997000000000000000341000647                         090000002190212659104900000000000000097862009177002190212659300000000000000000002220000000000                 
1040001300070U 0600000000000000000000000000044900000000000000000000000000044900000000000224500000000000134700000000000000000000000000000029042010040520101900        000000000000000CIP COMPENSACAO               930                           
1040001300071T 0600249600300000286080D00000000000000000001               30042010000000000000000341037630                         090000002190212853104914588000000000097862009177002190212853300000000000000000002220000000000                 
1040001300072U 0600000000000000000000000000106000000000000000000000000000106000000000000530000000000000318000000000000000000000000000000029042010040520101900        000000000000000CIP COMPENSACAO               930                           
1040001300073T 0600249600300000286080D00000000000000000001               30042010000000000000000341003492                         090000002190215094104934588000000000097862009177002190215094300000000000000000002220000000000                 
1040001300074U 0600000000000000000000000000287500000000000000000000000000287500000000001437400000000000862400000000000000000000000000000029042010040520101900        000000000000000CIP COMPENSACAO               930                           
1040001300075T 0600249600300000286080D00000000000000000001               30042010000000000000000341006955                         090000002190215101104914588000000000097862009177002190215101300000000000000000002220000000000                 
1040001300076U 0600000000000000000000000000139700000000000000000000000000139700000000000698700000000000419300000000000000000000000000000029042010040520101900        000000000000000CIP COMPENSACAO               930                           
1040001300077T 0600249600300000286080D00000000000000000001               30042010000000000000000033001457                         090000002190216591104914588000000000097862009177002190216591300000000000000000002220000000000                 
1040001300078U 0600000000000000000000000000049100000000000000000000000000049100000000000245300000000000147100000000000000000000000000000029042010040520101900        000000000000000CIP COMPENSACAO               930                           
1040001300079T 0600249600300000286080D00000000000000000001               30042010000000000000000151003840                         090000002190217723104984588000000000097862009177002190217723300000000000000000002220000000000                 
1040001300080U 0600000000000000000000000000049000000000000000000000000000049000000000000244900000000000146900000000000000000000000000000029042010040520101900        000000000000000CIP COMPENSACAO               930                           
1040001300081T 0600249600300000286080D00000000000000000001               30042010000000000000000341001848                         090000002190217736104924588000000000097862009177002190217736300000000000000000002220000000000                 
1040001300082U 0600000000000000000000000000053900000000000000000000000000053900000000000269400000000000161600000000000000000000000000000029042010040520101900        000000000000000CIP COMPENSACAO               930                           
1040001300083T 0600249600300000286080D00000000000000000001               30042010000000000000000341037630                         090000002190220326104964588000000000097862009177002190220326300000000000000000002220000000000                 
1040001300084U 0600000000000000000000000000551800000000000000000000000000551800000000002758800000000001655200000000000000000000000000000029042010040520101900        000000000000000CIP COMPENSACAO               930                           
1040001300085T 0600249600300000286080D00000000000000000001               30042010000000000000000341037630                         090000002190220327104924588000000000097862009177002190220327300000000000000000002220000000000                 
1040001300086U 0600000000000000000000000000477000000000000000000000000000477000000000002384800000000001430800000000000000000000000000000029042010040520101900        000000000000000CIP COMPENSACAO               930                           
1040001300087T 0600249600300000286080D00000000000000000001               30042010000000000000000341037630                         090000002190220924104914588000000000097862009177002190220924300000000000000000002220000000000                 
1040001300088U 0600000000000000000000000000178900000000000000000000000000178900000000000894600000000000536800000000000000000000000000000029042010040520101900        000000000000000CIP COMPENSACAO               930                           
1040001300089T 0600249600300000286080D00000000000000000001               30042010000000000000000422000973                         090000002190221649104934588000000000097862009177002190221649300000000000000000002220000000000                 
1040001300090U 0600000000000000000000000000049100000000000000000000000000049100000000000245300000000000147100000000000000000000000000000029042010040520101900        000000000000000CIP COMPENSACAO               930                           
1040001300091T 0600249600300000286080D00000000000000000001               30042010000000000000000341037400                         090000002190312780104954588000000000097862009177002190312780300000000000000000002220000000000                 
1040001300092U 0600000000000000000000000000082300000000000000000000000000082300000000000411500000000000246900000000000000000000000000000029042010040520101900        000000000000000CIP COMPENSACAO               930                           
1040001300093T 0600249600300000286080D00000000000000000001               30042010000000000000000422000973                         090000002190312842104914588000000000097862009177002190312842300000000000000000002220000000000                 
1040001300094U 0600000000000000000000000000105100000000000000000000000000105100000000000525300000000000315100000000000000000000000000000029042010040520101900        000000000000000CIP COMPENSACAO               930                           
1040001300095T 0600249600300000286080D00000000000000000001               30042010000000000002907341029238                         090000002190314495104954588000000290797862009177002190314495300000000000000000002220000000000                 
1040001300096U 0600000000000000000000000000058100000000000000000000000000058100000000000290700000000000174500000000000000000000000000000029042010040520101900        000000000000000CIP COMPENSACAO               930                           
1040001300097T 0600249600300000286080D00000000000000000001               30042010000000000000000237004979                         090000002190314738104964588000000000097862009177002190314738300000000000000000002220000000000                 
1040001300098U 0600000000000000000000000000051600000000000000000000000000051600000000000258200000000000155000000000000000000000000000000029042010040520101900        000000000000000CIP COMPENSACAO               930                           
1040001300099T 0600249600300000286080D00000000000000000001               30042010000000000000000237004979                         090000002190323058104944588000000000097862009177002190323058300000000000000000002220000000000                 
1040001300100U 0600000000000000000000000000207700000000000000000000000000207700000000001038500000000000623100000000000000000000000000000029042010040520101900        000000000000000CIP COMPENSACAO               930                           
1040001300101T 0600249600300000286080D00000000000000000001               07101997000000000000000341000647                         090000002190403254104900000000000000097862009177002190403254300000000000000000002220000000000                 
1040001300102U 0600000000000000000000000000095300000000000000000000000000095300000000000476700000000000286100000000000000000000000000000029042010040520101900        000000000000000CIP COMPENSACAO               930                           
1040001300103T 0600249600300000286080D00000000000000000001               30042010000000000000000341000647                         090000002190419796104964588000000000097862009177002190419796300000000000000000002220000000000                 
1040001300104U 0600000000000000000000000000044900000000000000000000000000044900000000000224500000000000134700000000000000000000000000000029042010040520101900        000000000000000CIP COMPENSACAO               930                           
1040001300105T 0600249600300000286080D00000000000000000001               30042010000000000000000033001457                         090000002190421580104974588000000000097862009177002190421580300000000000000000002220000000000                 
1040001300106U 0600000000000000000000000000049100000000000000000000000000049100000000000245300000000000147100000000000000000000000000000029042010040520101900        000000000000000CIP COMPENSACAO               930                           
1040001300107T 0600249600300000286080D00000000000000000001               30042010000000000000000341006467                         090000002190421618104944588000000000097862009177002190421618300000000000000000002220000000000                 
1040001300108U 0600000000000000000000000000049000000000000000000000000000049000000000000245200000000000147200000000000000000000000000000029042010040520101900        000000000000000CIP COMPENSACAO               930                           
1040001300109T 0600249600300000286080D00000000000000000001               30042010000000000000000237020036                         090000002190430466104994588000000000097862009177002190430466300000000000000000002220000000000                 
1040001300110U 0600000000000000000000000000062500000000000000000000000000062500000000000312700000000000187700000000000000000000000000000029042010040520101900        000000000000000CIP COMPENSACAO               930                           
1040001300111T 0600249600300000286080D00000000000000000001               30042010000000000000000422000973                         090000002190717332104984588000000000097862009177002190717332300000000000000000002220000000000                 
1040001300112U 0600000000000000000000000000366800000000000000000000000000366800000000001833900000000001100300000000000000000000000000000029042010040520101900        000000000000000CIP COMPENSACAO               930                           
1040001300113T 0600249600300000286080D00000000000000000001               30042010000000000000000356003735                         090000002190810965104904588000000000097862009177002190810965300000000000000000002220000000000                 
1040001300114U 0600000000000000000000000000140800000000000000000000000000140800000000000704100000000000422500000000000000000000000000000029042010040520101900        000000000000000CIP COMPENSACAO               930                           
1040001300115T 0600249600300000286080D00000000000000000001               30042010000000000000000341016667                         090000002190815231104914588000000000097862009177002190815231300000000000000000002220000000000                 
1040001300116U 0600000000000000000000000000102000000000000000000000000000102000000000000510000000000000306000000000000000000000000000000029042010040520101900        000000000000000CIP COMPENSACAO               930                           
1040001300117T 0600249600300000286080D00000000000000000001               30042010000000000000000341003751                         090000002191013705104914588000000000097862009177002191013705300000000000000000002220000000000                 
1040001300118U 0600000000000000000000000000136700000000000000000000000000136700000000000683700000000000410300000000000000000000000000000029042010040520101900        000000000000000CIP COMPENSACAO               930                           
1040001300119T 0600249600300000286080D00000000000000000001               30042010000000000000000341001910                         090000002268330001104944588000000000097862009177002268330001300000000000000000002220000000000                 
1040001300120U 0600000000000000000000000000417300000000000000000000000000417300000000002086500000000001251900000000000000000000000000000029042010040520101900        000000000000000CIP COMPENSACAO               930                           
1040001300121T 0600249600300000286080D00000000000000000001               30042010000000000000000341001619                         090000002305290001104974588000000000097862009177002305290001300000000000000000002220000000000                 
1040001300122U 0600000000000000000000000000777800000000000000000000000000777800000000003888900000000002333300000000000000000000000000000029042010040520101900        000000000000000CIP COMPENSACAO               930                           
1040001300123T 0600249600300000286080D00000000000000000001               30042010000000000000000356009857                         090000002368430001104904588000000000097862009177002368430001300000000000000000002220000000000                 
1040001300124U 0600000000000000000000000000236700000000000000000000000000236700000000001183300000000000709900000000000000000000000000000029042010040520101900        000000000000000CIP COMPENSACAO               930                           
1040001300125T 0600249600300000286080D00000000000000000001               07101997000000000004734356001368                         090000002467950001104900000000000473497862009177002467950001300000000000000000002220000000000                 
1040001300126U 0600000000000000000000000000094700000000000000000000000000094700000000000473400000000000284000000000000000000000000000000029042010040520101900        000000000000000CIP COMPENSACAO               930                           
1040001300127T 0600249600300000286080D00000000000000000001               30042010000000000000000356009270                         090000002556630001104904588000000000097862009177002556630001300000000000000000002220000000000                 
1040001300128U 0600000000000000000000000000390400000000000000000000000000390400000000001951800000000001171000000000000000000000000000000029042010040520101900        000000000000000CIP COMPENSACAO               930                           
1040001300129T 0600249600300000286080D00000000000000000001               30042010000000000000000341007455                         090000002628510001104994588000000000097862009177002628510001300000000000000000002220000000000                 
1040001300130U 0600000000000000000000000000352600000000000000000000000000352600000000001763000000000001057800000000000000000000000000000029042010040520101900        000000000000000CIP COMPENSACAO               930                           
1040001300131T 0600249600300000286080D00000000000000000001               30042010000000000000000341030066                         090000002822520001104954588000000000097862009177002822520001300000000000000000002220000000000                 
1040001300132U 0600000000000000000000000000293900000000000000000000000000293900000000001469500000000000881700000000000000000000000000000029042010040520101900        000000000000000CIP COMPENSACAO               930                           
1040001300133T 0600249600300000286080D00000000000000000001               30042010000000000000000033021717                         090000003065000001104994588000000000097862009177003065000001300000000000000000002220000000000                 
1040001300134U 0600000000000000000000000000263700000000000000000000000000263700000000001318400000000000791000000000000000000000000000000029042010040520101900        000000000000000CIP COMPENSACAO               930                           
1040001300135T 0600249600300000286080D00000000000000000001               30042010000000000002245399002224                         090000003205570001104914588000000224597862009177003205570001430000000000000000002220000000000                 
1040001300136U 0600000000000000000000000000044900000000000000000000000000044900000000000224500000000000134700000000000000000000000000000029042010040520101900        000000000000000CIP COMPENSACAO               943                           
1040001300137T 0600249600300000286080D00000000000000000001               30042010000000000000000341003336                         090000003254650001104914588000000000097862009177003254650001300000000000000000002220000000000                 
1040001300138U 0600000000000000000000000000190000000000000000000000000000190000000000000950100000000000570100000000000000000000000000000029042010040520101900        000000000000000CIP COMPENSACAO               930                           
1040001300139T 0600249600300000286080D00000000000000000001               30042010000000000000000237038326                         090000003291740001104944588000000000097862009177003291740001300000000000000000002220000000000                 
1040001300140U 0600000000000000000000000000371100000000000000000000000000371100000000001855300000000001113100000000000000000000000000000029042010040520101900        000000000000000CIP COMPENSACAO               930                           
1040001300141T 0600249600300000286080D00000000000000000001               30042010000000000000000237004944                         090000003518120001104964588000000000097862009177003518120001300000000000000000002220000000000                 
1040001300142U 0600000000000000000000000000335600000000000000000000000000335600000000001678000000000001006800000000000000000000000000000029042010040520101900        000000000000000CIP COMPENSACAO               930                           
1040001300143T 0600249600300000286080D00000000000000000001               30042010000000000000000341029238                         090000003525030001104914588000000000097862009177003525030001300000000000000000002220000000000                 
1040001300144U 0600000000000000000000000000095900000000000000000000000000095900000000000479600000000000287800000000000000000000000000000029042010040520101900        000000000000000CIP COMPENSACAO               930                           
1040001300145T 0600249600300000286080D00000000000000000001               30042010000000000000000341001899                         090000003620940001104944588000000000097862009177003620940001300000000000000000002220000000000                 
1040001300146U 0600000000000000000000000000189400000000000000000000000000189400000000000947200000000000568400000000000000000000000000000029042010040520101900        000000000000000CIP COMPENSACAO               930                           
1040001300147T 0600249600300000286080D00000000000000000001               07101997000000000002616356001368                         090000003755006735104900000000000261697862009177003755006735300000000000000000002220000000000                 
1040001300148U 0600000000000000000000000000052300000000000000000000000000052300000000000261600000000000157000000000000000000000000000000029042010040520101900        000000000000000CIP COMPENSACAO               930                           
1040001300149T 0600249600300000286080D00000000000000000001               30042010000000000000000422000973                         090000003774580001104934588000000000097862009177003774580001300000000000000000002220000000000                 
1040001300150U 0600000000000000000000000000306400000000000000000000000000306400000000001532200000000000919400000000000000000000000000000029042010040520101900        000000000000000CIP COMPENSACAO               930                           
1040001300151T 0600249600300000286080D00000000000000000001               30042010000000000000000341001910                         090000003860080001104914588000000000097862009177003860080001300000000000000000002220000000000                 
1040001300152U 0600000000000000000000000000393800000000000000000000000000393800000000001969000000000001181400000000000000000000000000000029042010040520101900        000000000000000CIP COMPENSACAO               930                           
1040001300153T 0600249600300000286080D00000000000000000001               30042010000000000000000341029599                         090000003943510001104974588000000000097862009177003943510001300000000000000000002220000000000                 
1040001300154U 0600000000000000000000000000080800000000000000000000000000080800000000000404100000000000242500000000000000000000000000000029042010040520101900        000000000000000CIP COMPENSACAO               930                           
1040001300155T 0600249600300000286080D00000000000000000001               30042010000000000000000422000345                         090000004176020001104914588000000000097862009177004176020001300000000000000000002220000000000                 
1040001300156U 0600000000000000000000000000325600000000000000000000000000325600000000001627900000000000976700000000000000000000000000000029042010040520101900        000000000000000CIP COMPENSACAO               930                           
1040001300157T 0600249600300000286080D00000000000000000001               30042010000000000000000356016420                         090000004191510001104904588000000000097862009177004191510001300000000000000000002220000000000                 
1040001300158U 0600000000000000000000000000116600000000000000000000000000116600000000000583000000000000349800000000000000000000000000000029042010040520101900        000000000000000CIP COMPENSACAO               930                           
1040001300159T 0600249600300000286080D00000000000000000001               30042010000000000000000422000973                         090000004457810001104964588000000000097862009177004457810001300000000000000000002220000000000                 
1040001300160U 0600000000000000000000000000345300000000000000000000000000345300000000001726400000000001035800000000000000000000000000000029042010040520101900        000000000000000CIP COMPENSACAO               930                           
1040001300161T 0600249600300000286080D00000000000000000001               30042010000000000000000341029599                         090000004538550001104914588000000000097862009177004538550001300000000000000000002220000000000                 
1040001300162U 0600000000000000000000000000160000000000000000000000000000160000000000000799900000000000479900000000000000000000000000000029042010040520101900        000000000000000CIP COMPENSACAO               930                           
1040001300163T 0600249600300000286080D00000000000000000001               30042010000000000000000341000779                         090000004947580001104944588000000000097862009177004947580001300000000000000000002220000000000                 
1040001300164U 0600000000000000000000000000119700000000000000000000000000119700000000000598600000000000359200000000000000000000000000000029042010040520101900        000000000000000CIP COMPENSACAO               930                           
1040001300165T 0600249600300000286080D00000000000000000001               30042010000000000000000237020036                         090000005000418883104974588000000000097862009177005000418883300000000000000000002220000000000                 
1040001300166U 0600000000000000000000000000047400000000000000000000000000047400000000000237100000000000142300000000000000000000000000000029042010040520101900        000000000000000CIP COMPENSACAO               930                           
1040001300167T 0600249600300000286080D00000000000000000001               30042010000000000000000341006467                         090000005106730001104914588000000000097862009177005106730001300000000000000000002220000000000                 
1040001300168U 0600000000000000000000000000282100000000000000000000000000282100000000001410600000000000846400000000000000000000000000000029042010040520101900        000000000000000CIP COMPENSACAO               930                           
1040001300169T 0600249600300000286080D00000000000000000001               30042010000000000000000356000884                         090000005120314015104904588000000000097862009177005120314015300000000000000000002220000000000                 
1040001300170U 0600000000000000000000000000120100000000000000000000000000120100000000000600600000000000360400000000000000000000000000000029042010040520101900        000000000000000CIP COMPENSACAO               930                           
1040001300171T 0600249600300000286080D00000000000000000001               30042010000000000000000237006149                         090000005397370001104914588000000000097862009177005397370001300000000000000000002220000000000                 
1040001300172U 0600000000000000000000000000289300000000000000000000000000289300000000001446500000000000867900000000000000000000000000000029042010040520101900        000000000000000CIP COMPENSACAO               930                           
1040001300173T 0600249600300000286080D00000000000000000001               30042010000000000000000422000973                         090000005450640001104994588000000000097862009177005450640001300000000000000000002220000000000                 
1040001300174U 0600000000000000000000000000393000000000000000000000000000393000000000001964900000000001178900000000000000000000000000000029042010040520101900        000000000000000CIP COMPENSACAO               930                           
1040001300175T 0600249600300000286080D00000000000000000001               30042010000000000000000341001910                         090000005795940001104934588000000000097862009177005795940001300000000000000000002220000000000                 
1040001300176U 0600000000000000000000000000434600000000000000000000000000434600000000002173100000000001303900000000000000000000000000000029042010040520101900        000000000000000CIP COMPENSACAO               930                           
1040001300177T 0600249600300000286080D00000000000000000001               30042010000000000000000341002623                         090000005835600001104914588000000000097862009177005835600001300000000000000000002220000000000                 
1040001300178U 0600000000000000000000000000284300000000000000000000000000284300000000001421500000000000852900000000000000000000000000000029042010040520101900        000000000000000CIP COMPENSACAO               930                           
1040001300179T 0600249600300000286080D00000000000000000001               30042010000000000000000341000370                         090000006008700001104994588000000000097862009177006008700001300000000000000000002220000000000                 
1040001300180U 0600000000000000000000000000604300000000000000000000000000604300000000003021700000000001813100000000000000000000000000000029042010040520101900        000000000000000CIP COMPENSACAO               930                           
1040001300181T 0600249600300000286080D00000000000000000001               30042010000000000000000341029599                         090000006032430001104944588000000000097862009177006032430001300000000000000000002220000000000                 
1040001300182U 0600000000000000000000000000206700000000000000000000000000206700000000001033600000000000620200000000000000000000000000000029042010040520101900        000000000000000CIP COMPENSACAO               930                           
1040001300183T 0600249600300000286080D00000000000000000001               30042010000000000000000341000272                         090000006175820001104994588000000000097862009177006175820001300000000000000000002220000000000                 
1040001300184U 0600000000000000000000000000062500000000000000000000000000062500000000000312600000000000187600000000000000000000000000000029042010040520101900        000000000000000CIP COMPENSACAO               930                           
1040001300185T 0600249600300000286080D00000000000000000001               30042010000000000000000356009431                         090000006312270001104904588000000000097862009177006312270001300000000000000000002220000000000                 
1040001300186U 0600000000000000000000000000302800000000000000000000000000302800000000001514000000000000908400000000000000000000000000000029042010040520101900        000000000000000CIP COMPENSACAO               930                           
1040001300187T 0600249600300000286080D00000000000000000001               07101997000000000032334356001368                         090000006331250001104900000000003233497862009177006331250001300000000000000000002220000000000                 
1040001300188U 0600000000000000000000000000646700000000000000000000000000646700000000003233400000000001940000000000000000000000000000000029042010040520101900        000000000000000CIP COMPENSACAO               930                           
1040001300189T 0600249600300000286080D00000000000000000001               30042010000000000000000237014435                         090000006337020001104944588000000000097862009177006337020001300000000000000000002220000000000                 
1040001300190U 0600000000000000000000000000315400000000000000000000000000315400000000001576800000000000946000000000000000000000000000000029042010040520101900        000000000000000CIP COMPENSACAO               930                           
1040001300191T 0600249600300000286080D00000000000000000001               30042010000000000000000341002623                         090000006371040001104914588000000000097862009177006371040001300000000000000000002220000000000                 
1040001300192U 0600000000000000000000000000637600000000000000000000000000637600000000003188200000000001913000000000000000000000000000000029042010040520101900        000000000000000CIP COMPENSACAO               930                           
1040001300193T 0600249600300000286080D00000000000000000001               30042010000000000000000422000973                         090000006454900001104914588000000000097862009177006454900001300000000000000000002220000000000                 
1040001300194U 0600000000000000000000000000070700000000000000000000000000070700000000000353300000000000211900000000000000000000000000000029042010040520101900        000000000000000CIP COMPENSACAO               930                           
1040001300195T 0600249600300000286080D00000000000000000001               30042010000000000000000341001910                         090000006472360001104954588000000000097862009177006472360001300000000000000000002220000000000                 
1040001300196U 0600000000000000000000000000091400000000000000000000000000091400000000000457000000000000274200000000000000000000000000000029042010040520101900        000000000000000CIP COMPENSACAO               930                           
1040001300197T 0600249600300000286080D00000000000000000001               30042010000000000000000341001902                         090000006506510001104934588000000000097862009177006506510001300000000000000000002220000000000                 
1040001300198U 0600000000000000000000000000309800000000000000000000000000309800000000001548800000000000929200000000000000000000000000000029042010040520101900        000000000000000CIP COMPENSACAO               930                           
1040001300199T 0600249600300000286080D00000000000000000001               30042010000000000002347341004448                         090000006749321887104994588000000234797862008177006749321887110000000000000000002220000000000                 
1040001300200U 0600000000000000000000000000046900000000000000000000000000046900000000000234700000000000140900000000000000000000000000000029042010040520101900        000000000000000CIP COMPENSACAO               811                           
1040001300201T 0600249600300000286080D00000000000000000001               30042010000000000000000422000973                         090000006772970001104984588000000000097862009177006772970001300000000000000000002220000000000                 
1040001300202U 0600000000000000000000000000987800000000000000000000000000987800000000004939200000000002963600000000000000000000000000000029042010040520101900        000000000000000CIP COMPENSACAO               930                           
1040001300203T 0600249600300000286080D00000000000000000001               30042010000000000000000422000973                         090000006773060001104974588000000000097862009177006773060001300000000000000000002220000000000                 
1040001300204U 0600000000000000000000000000729100000000000000000000000000729100000000003645400000000002187200000000000000000000000000000029042010040520101900        000000000000000CIP COMPENSACAO               930                           
1040001300205T 0600249600300000286080D00000000000000000001               30042010000000000000000237022209                         090000006956000001104934588000000000097862009177006956000001300000000000000000002220000000000                 
1040001300206U 0600000000000000000000000000364400000000000000000000000000364400000000001822200000000001093400000000000000000000000000000029042010040520101900        000000000000000CIP COMPENSACAO               930                           
1040001300207T 0600249600300000286080D00000000000000000001               11121998000000000012157033005878                         090000007121830001104980430000001215797862009177007121830001300000000000000000002220000000000                 
1040001300208U 0600000000000000000000000000243100000000000000000000000000243100000000001215700000000000729500000000000000000000000000000029042010040520101900        000000000000000CIP COMPENSACAO               930                           
1040001300209T 0600249600300000286080D00000000000000000001               30042010000000000000000237001368                         090000007298420001104924588000000000097862009177007298420001300000000000000000002220000000000                 
1040001300210U 0600000000000000000000000000613200000000000000000000000000613200000000003066000000000001839600000000000000000000000000000029042010040520101900        000000000000000CIP COMPENSACAO               930                           
1040001300211T 0600249600300000286080D00000000000000000001               07101997000000000027438356001368                         090000007349760001104900000000002743897862009177007349760001300000000000000000002220000000000                 
1040001300212U 0600000000000000000000000000548800000000000000000000000000548800000000002743800000000001646200000000000000000000000000000029042010040520101900        000000000000000CIP COMPENSACAO               930                           
1040001300213T 0600249600300000286080D00000000000000000001               30042010000000000004089356017710                         090000007420390001104904588000000408997862008177007420390001110000000000000000002220000000000                 
1040001300214U 0600000000000000000000000000081800000000000000000000000000081800000000000408900000000000245300000000000000000000000000000029042010040520101900        000000000000000CIP COMPENSACAO               811                           
1040001300215T 0600249600300000286080D00000000000000000001               30042010000000000000000409001384                         090000007499700001104934588000000000097862009177007499700001300000000000000000002220000000000                 
1040001300216U 0600000000000000000000000000187800000000000000000000000000187800000000000938800000000000563200000000000000000000000000000029042010040520101900        000000000000000CIP COMPENSACAO               930                           
1040001300217T 0600249600300000286080D00000000000000000001               30042010000000000000000341006173                         090000007499720001104994588000000000097862009177007499720001300000000000000000002220000000000                 
1040001300218U 0600000000000000000000000000484000000000000000000000000000484000000000002420100000000001452100000000000000000000000000000029042010040520101900        000000000000000CIP COMPENSACAO               930                           
1040001300219T 0600249600300000286080D00000000000000000001               30042010000000000000000341006467                         090000007561600001104914588000000000097862009177007561600001300000000000000000002220000000000                 
1040001300220U 0600000000000000000000000000142900000000000000000000000000142900000000000714300000000000428500000000000000000000000000000029042010040520101900        000000000000000CIP COMPENSACAO               930                           
1040001300221T 0600249600300000286080D00000000000000000001               30042010000000000000000341005932                         090000007848580001104924588000000000097862009177007848580001300000000000000000002220000000000                 
1040001300222U 0600000000000000000000000000049000000000000000000000000000049000000000000244900000000000146900000000000000000000000000000029042010040520101900        000000000000000CIP COMPENSACAO               930                           
1040001300223T 0600249600300000286080D00000000000000000001               07101997000000000000000341003603                         090000007869410001104900000000000000097862009177007869410001300000000000000000002220000000000                 
1040001300224U 0600000000000000000000000000117500000000000000000000000000117500000000000587300000000000352300000000000000000000000000000029042010040520101900        000000000000000CIP COMPENSACAO               930                           
1040001300225T 0600249600300000286080D00000000000000000001               30042010000000000006482341055913                         090000008141070001104954588000000648297862008177008141070001110000000000000000002220000000000                 
1040001300226U 0600000000000000000000000000129600000000000000000000000000129600000000000648200000000000389000000000000000000000000000000029042010040520101900        000000000000000CIP COMPENSACAO               811                           
1040001300227T 0600249600300000286080D00000000000000000001               30042010000000000000000341003336                         090000008198450001104914588000000000097862009177008198450001300000000000000000002220000000000                 
1040001300228U 0600000000000000000000000000049000000000000000000000000000049000000000000245200000000000147200000000000000000000000000000029042010040520101900        000000000000000CIP COMPENSACAO               930                           
1040001300229T 0600249600300000286080D00000000000000000001               30042010000000000000000033002208                         090000008296090001104934588000000000097862009177008296090001300000000000000000002220000000000                 
1040001300230U 0600000000000000000000000000409600000000000000000000000000409600000000002048100000000001228900000000000000000000000000000029042010040520101900        000000000000000CIP COMPENSACAO               930                           
1040001300231T 0600249600300000286080D00000000000000000001               30042010000000000000000341006467                         090000008376080001104924588000000000097862009177008376080001300000000000000000002220000000000                 
1040001300232U 0600000000000000000000000000357200000000000000000000000000357200000000001786200000000001071800000000000000000000000000000029042010040520101900        000000000000000CIP COMPENSACAO               930                           
1040001300233T 0600249600300000286080D00000000000000000001               30042010000000000000000422000973                         090000008392880001104994588000000000097862009177008392880001300000000000000000002220000000000                 
1040001300234U 0600000000000000000000000001684100000000000000000000000001684100000000008420400000000005052200000000000000000000000000000029042010040520101900        000000000000000CIP COMPENSACAO               930                           
1040001300235T 0600249600300000286080D00000000000000000001               30042010000000000000000341006416                         090000008424640001104964588000000000097862009177008424640001300000000000000000002220000000000                 
1040001300236U 0600000000000000000000000000292300000000000000000000000000292300000000001461600000000000877000000000000000000000000000000029042010040520101900        000000000000000CIP COMPENSACAO               930                           
1040001300237T 0600249600300000286080D00000000000000000001               30042010000000000000000237024236                         090000008468460001104914588000000000097862009177008468460001300000000000000000002220000000000                 
1040001300238U 0600000000000000000000000000332700000000000000000000000000332700000000001663300000000000997900000000000000000000000000000029042010040520101900        000000000000000CIP COMPENSACAO               930                           
1040001300239T 0600249600300000286080D00000000000000000001               30042010000000000013097237014435                         090000009129260001104934588000001309797862008177009129260001110000000000000000002220000000000                 
1040001300240U 0600000000000000000000000000261900000000000000000000000000261900000000001309700000000000785900000000000000000000000000000029042010040520101900        000000000000000CIP COMPENSACAO               811                           
1040001300241T 0600249600300000286080D00000000000000000001               30042010000000000000000237037907                         090000009146210001104984588000000000097862009177009146210001300000000000000000002220000000000                 
1040001300242U 0600000000000000000000000000138800000000000000000000000000138800000000000693900000000000416300000000000000000000000000000029042010040520101900        000000000000000CIP COMPENSACAO               930                           
1040001300243T 0600249600300000286080D00000000000000000001               30042010000000000000000409012637                         090000009155880001104974588000000000097862009177009155880001300000000000000000002220000000000                 
1040001300244U 0600000000000000000000000000108100000000000000000000000000108100000000000540700000000000324500000000000000000000000000000029042010040520101900        000000000000000CIP COMPENSACAO               930                           
1040001300245T 0600249600300000286080D00000000000000000001               30042010000000000004669237005150                         090000009308160001104914588000000466997862008177009308160001110000000000000000002220000000000                 
1040001300246U 0600000000000000000000000000093400000000000000000000000000093400000000000466900000000000280100000000000000000000000000000029042010040520101900        000000000000000CIP COMPENSACAO               811                           
1040001300247T 0600249600300000286080D00000000000000000001               30042010000000000016490341003905                         090000009386440001104914588000001649097862009177009386440001300000000000000000002220000000000                 
1040001300248U 0600000000000000000000000000329800000000000000000000000000329800000000001649000000000000989400000000000000000000000000000029042010040520101900        000000000000000CIP COMPENSACAO               930                           
1040001300249T 0600249600300000286080D00000000000000000001               30042010000000000019307341029238                         090000009453760001104944588000001930797862009177009453760001300000000000000000002220000000000                 
1040001300250U 0600000000000000000000000000386100000000000000000000000000386100000000001930700000000001158500000000000000000000000000000029042010040520101900        000000000000000CIP COMPENSACAO               930                           
1040001300251T 0600249600300000286080D00000000000000000001               30042010000000000000000237031917                         090000009477780001104954588000000000097862009177009477780001300000000000000000002220000000000                 
1040001300252U 0600000000000000000000000000049100000000000000000000000000049100000000000245300000000000147100000000000000000000000000000029042010040520101900        000000000000000CIP COMPENSACAO               930                           
1040001300253T 0600249600300000286080D00000000000000000001               30042010000000000000000237024236                         090000009512110001104974588000000000097862009177009512110001300000000000000000002220000000000                 
1040001300254U 0600000000000000000000000000078500000000000000000000000000078500000000000392700000000000235700000000000000000000000000000029042010040520101900        000000000000000CIP COMPENSACAO               930                           
1040001300255T 0600249600300000286080D00000000000000000001               30042010000000000000000237037907                         090000009658010001104914588000000000097862009177009658010001300000000000000000002220000000000                 
1040001300256U 0600000000000000000000000000139700000000000000000000000000139700000000000698600000000000419200000000000000000000000000000029042010040520101900        000000000000000CIP COMPENSACAO               930                           
1040001300257T 0600249600300000286080D00000000000000000001               30042010000000000000000341001902                         090000009883750001104974588000000000097862009177009883750001300000000000000000002220000000000                 
1040001300258U 0600000000000000000000000000345400000000000000000000000000345400000000001727100000000001036300000000000000000000000000000029042010040520101900        000000000000000CIP COMPENSACAO               930                           
1040001300259T 0600249600300000286080D00000000000000000001               30042010000000000000000422000973                         090000009924170001104924588000000000097862009177009924170001300000000000000000002220000000000                 
1040001300260U 0600000000000000000000000000383300000000000000000000000000383300000000001916600000000001150000000000000000000000000000000029042010040520101900        000000000000000CIP COMPENSACAO               930                           
1040001300261T 0600249600300000286080D00000000000000000001               30042010000000000015243341029238                         090000009924550001104994588000001524397862009177009924550001300000000000000000002220000000000                 
1040001300262U 0600000000000000000000000000304900000000000000000000000000304900000000001524300000000000914500000000000000000000000000000029042010040520101900        000000000000000CIP COMPENSACAO               930                           
1040001300263T 0600249600300000286080D00000000000000000001               07101997000000000022073356001368                         090000009980590001104900000000002207397862009177009980590001300000000000000000002220000000000                 
1040001300264U 0600000000000000000000000000441500000000000000000000000000441500000000002207300000000001324300000000000000000000000000000029042010040520101900        000000000000000CIP COMPENSACAO               930                           
1040001300265T 0600249600300000286080D00000000000000000001               30042010000000000000000341001910                         090000010075060001104914588000000000097862009177010075060001300000000000000000002220000000000                 
1040001300266U 0600000000000000000000000000391100000000000000000000000000391100000000001955300000000001173100000000000000000000000000000029042010040520101900        000000000000000CIP COMPENSACAO               930                           
1040001300267T 0600249600300000286080D00000000000000000001               07101997000000000015612356001368                         090000010213780001104900000000001561297862009177010213780001300000000000000000002220000000000                 
1040001300268U 0600000000000000000000000000312200000000000000000000000000312200000000001561200000000000936800000000000000000000000000000029042010040520101900        000000000000000CIP COMPENSACAO               930                           
1040001300269T 0600249600300000286080D00000000000000000001               30042010000000000000000237005509                         090000010527610001104914588000000000097862009177010527610001300000000000000000002220000000000                 
1040001300270U 0600000000000000000000000000054900000000000000000000000000054900000000000274500000000000164700000000000000000000000000000029042010040520101900        000000000000000CIP COMPENSACAO               930                           
1040001300271T 0600249600300000286080D00000000000000000001               11121998000000000003381033005878                         090000010557620001104970430000000338197862008177010557620001120000000000000000002220000000000                 
1040001300272U 0600000000000000000000000000067600000000000000000000000000067600000000000338100000000000202900000000000000000000000000000029042010040520101900        000000000000000CIP COMPENSACAO               812                           
1040001300273T 0600249600300000286080D00000000000000000001               30042010000000000000000341003832                         090000010564950001104914588000000000097862009177010564950001300000000000000000002220000000000                 
1040001300274U 0600000000000000000000000000281000000000000000000000000000281000000000001404900000000000842900000000000000000000000000000029042010040520101900        000000000000000CIP COMPENSACAO               930                           
1040001300275T 0600249600300000286080D00000000000000000001               30042010000000000000000422000973                         090000010668720001104984588000000000097862009177010668720001300000000000000000002220000000000                 
1040001300276U 0600000000000000000000000000507700000000000000000000000000507700000000002538400000000001523000000000000000000000000000000029042010040520101900        000000000000000CIP COMPENSACAO               930                           
1040001300277T 0600249600300000286080D00000000000000000001               30042010000000000000000033001457                         090000010907060001104934588000000000097862009177010907060001300000000000000000002220000000000                 
1040001300278U 0600000000000000000000000000139000000000000000000000000000139000000000000695000000000000417000000000000000000000000000000029042010040520101900        000000000000000CIP COMPENSACAO               930                           
1040001300279T 0600249600300000286080D00000000000000000001               30042010000000000000000341001902                         090000011013600001104914588000000000097862009177011013600001300000000000000000002220000000000                 
1040001300280U 0600000000000000000000000000086800000000000000000000000000086800000000000433800000000000260200000000000000000000000000000029042010040520101900        000000000000000CIP COMPENSACAO               930                           
1040001300281T 0600249600300000286080D00000000000000000001               30042010000000000000000341003603                         090000011453280001104914588000000000097862009177011453280001300000000000000000002220000000000                 
1040001300282U 0600000000000000000000000000180000000000000000000000000000180000000000000899900000000000539900000000000000000000000000000029042010040520101900        000000000000000CIP COMPENSACAO               930                           
1040001300283T 0600249600300000286080D00000000000000000001               30042010000000000000000341006416                         090000011503620001104914588000000000097862009177011503620001300000000000000000002220000000000                 
1040001300284U 0600000000000000000000000000097700000000000000000000000000097700000000000488500000000000293100000000000000000000000000000029042010040520101900        000000000000000CIP COMPENSACAO               930                           
1040001300285T 0600249600300000286080D00000000000000000001               30042010000000000000000341015725                         090000011602680001104954588000000000097862009177011602680001300000000000000000002220000000000                 
1040001300286U 0600000000000000000000000000480600000000000000000000000000480600000000002403100000000001441900000000000000000000000000000029042010040520101900        000000000000000CIP COMPENSACAO               930                           
1040001300287T 0600249600300000286080D00000000000000000001               30042010000000000000000341048283                         090000011620320001104914588000000000097862009177011620320001300000000000000000002220000000000                 
1040001300288U 0600000000000000000000000000345200000000000000000000000000345200000000001726200000000001035800000000000000000000000000000029042010040520101900        000000000000000CIP COMPENSACAO               930                           
1040001300289T 0600249600300000286080D00000000000000000001               30042010000000000000000237014435                         090000011705820001104934588000000000097862009177011705820001300000000000000000002220000000000                 
1040001300290U 0600000000000000000000000000241700000000000000000000000000241700000000001208300000000000724900000000000000000000000000000029042010040520101900        000000000000000CIP COMPENSACAO               930                           
1040001300291T 0600249600300000286080D00000000000000000001               30042010000000000000000341001910                         090000011895270001104984588000000000097862009177011895270001300000000000000000002220000000000                 
1040001300292U 0600000000000000000000000000243200000000000000000000000000243200000000001216000000000000729600000000000000000000000000000029042010040520101900        000000000000000CIP COMPENSACAO               930                           
1040001300293T 0600249600300000286080D00000000000000000001               07101997000000000000000341008451                         090000012043210001104900000000000000097862009177012043210001300000000000000000002220000000000                 
1040001300294U 0600000000000000000000000000528800000000000000000000000000528800000000002643800000000001586200000000000000000000000000000029042010040520101900        000000000000000CIP COMPENSACAO               930                           
1040001300295T 0600249600300000286080D00000000000000000001               30042010000000000000000237032638                         090000012057730001104984588000000000097862009177012057730001300000000000000000002220000000000                 
1040001300296U 0600000000000000000000000000535700000000000000000000000000535700000000002678300000000001606900000000000000000000000000000029042010040520101900        000000000000000CIP COMPENSACAO               930                           
1040001300297T 0600249600300000286080D00000000000000000001               30042010000000000000000422000973                         090000012180760001104974588000000000097862009177012180760001300000000000000000002220000000000                 
1040001300298U 0600000000000000000000000000551300000000000000000000000000551300000000002756400000000001653800000000000000000000000000000029042010040520101900        000000000000000CIP COMPENSACAO               930                           
1040001300299T 0600249600300000286080D00000000000000000001               30042010000000000000000341006467                         090000012552220001104974588000000000097862009177012552220001300000000000000000002220000000000                 
1040001300300U 0600000000000000000000000000092100000000000000000000000000092100000000000460700000000000276500000000000000000000000000000029042010040520101900        000000000000000CIP COMPENSACAO               930                           
1040001300301T 0600249600300000286080D00000000000000000001               07101997000000000000000341004405                         090000012566710001104900000000000000097862009177012566710001300000000000000000002220000000000                 
1040001300302U 0600000000000000000000000000379500000000000000000000000000379500000000001897700000000001138700000000000000000000000000000029042010040520101900        000000000000000CIP COMPENSACAO               930                           
1040001300303T 0600249600300000286080D00000000000000000001               30042010000000000000000237026212                         090000012644380001104914588000000000097862009177012644380001300000000000000000002220000000000                 
1040001300304U 0600000000000000000000000000560000000000000000000000000000560000000000002800000000000001680000000000000000000000000000000029042010040520101900        000000000000000CIP COMPENSACAO               930                           
1040001300305T 0600249600300000286080D00000000000000000001               30042010000000000000000341071307                         090000012781990001104954588000000000097862009177012781990001300000000000000000002220000000000                 
1040001300306U 0600000000000000000000000000465400000000000000000000000000465400000000002327000000000001396200000000000000000000000000000029042010040520101900        000000000000000CIP COMPENSACAO               930                           
1040001300307T 0600249600300000286080D00000000000000000001               30042010000000000000000399007285                         090000012830240001104914588000000000097862009177012830240001300000000000000000002220000000000                 
1040001300308U 0600000000000000000000000001377400000000000000000000000001377400000000006886900000000004132100000000000000000000000000000029042010040520101900        000000000000000CIP COMPENSACAO               930                           
1040001300309T 0600249600300000286080D00000000000000000001               30042010000000000000000237019925                         090000012900200001104944588000000000097862009177012900200001300000000000000000002220000000000                 
1040001300310U 0600000000000000000000000000326500000000000000000000000000326500000000001632400000000000979400000000000000000000000000000029042010040520101900        000000000000000CIP COMPENSACAO               930                           
1040001300311T 0600249600300000286080D00000000000000000001               30042010000000000000000422000345                         090000012987150001104914588000000000097862009177012987150001300000000000000000002220000000000                 
1040001300312U 0600000000000000000000000000176700000000000000000000000000176700000000000883300000000000529900000000000000000000000000000029042010040520101900        000000000000000CIP COMPENSACAO               930                           
1040001300313T 0600249600300000286080D00000000000000000001               30042010000000000000000341029599                         090000013001490001104994588000000000097862009177013001490001300000000000000000002220000000000                 
1040001300314U 0600000000000000000000000000050100000000000000000000000000050100000000000250300000000000150100000000000000000000000000000029042010040520101900        000000000000000CIP COMPENSACAO               930                           
1040001300315T 0600249600300000286080D00000000000000000001               30042010000000000000000237001147                         090000013040480001104974588000000000097862009177013040480001300000000000000000002220000000000                 
1040001300316U 0600000000000000000000000000097100000000000000000000000000097100000000000485300000000000291100000000000000000000000000000029042010040520101900        000000000000000CIP COMPENSACAO               930                           
1040001300317T 0600249600300000286080D00000000000000000001               30042010000000000000000422000973                         090000013535430001104994588000000000097862009177013535430001300000000000000000002220000000000                 
1040001300318U 0600000000000000000000000000445900000000000000000000000000445900000000002229400000000001337600000000000000000000000000000029042010040520101900        000000000000000CIP COMPENSACAO               930                           
1040001300319T 0600249600300000286080D00000000000000000001               30042010000000000000000237024236                         090000013619900001104944588000000000097862009177013619900001300000000000000000002220000000000                 
1040001300320U 0600000000000000000000000000756900000000000000000000000000756900000000003784300000000002270500000000000000000000000000000029042010040520101900        000000000000000CIP COMPENSACAO               930                           
1040001300321T 0600249600300000286080D00000000000000000001               30042010000000000000000341004405                         090000013680190001104914588000000000097862009177013680190001300000000000000000002220000000000                 
1040001300322U 0600000000000000000000000000287700000000000000000000000000287700000000001438500000000000863100000000000000000000000000000029042010040520101900        000000000000000CIP COMPENSACAO               930                           
1040001300323T 0600249600300000286080D00000000000000000001               30042010000000000000000356000566                         090000013706850001104904588000000000097862009177013706850001300000000000000000002220000000000                 
1040001300324U 0600000000000000000000000000326000000000000000000000000000326000000000001630200000000000978200000000000000000000000000000029042010040520101900        000000000000000CIP COMPENSACAO               930                           
1040001300325T 0600249600300000286080D00000000000000000001               30042010000000000000000237037796                         090000014069010001104944588000000000097862009177014069010001300000000000000000002220000000000                 
1040001300326U 0600000000000000000000000000392500000000000000000000000000392500000000001962700000000001177700000000000000000000000000000029042010040520101900        000000000000000CIP COMPENSACAO               930                           
1040001300327T 0600249600300000286080D00000000000000000001               07101997000000000023727356001368                         090000014140680001104900000000002372797862009177014140680001300000000000000000002220000000000                 
1040001300328U 0600000000000000000000000000474500000000000000000000000000474500000000002372700000000001423700000000000000000000000000000029042010040520101900        000000000000000CIP COMPENSACAO               930                           
1040001300329T 0600249600300000286080D00000000000000000001               30042010000000000000000341006416                         090000014256250001104914588000000000097862009177014256250001300000000000000000002220000000000                 
1040001300330U 0600000000000000000000000000056700000000000000000000000000056700000000000283700000000000170300000000000000000000000000000029042010040520101900        000000000000000CIP COMPENSACAO               930                           
1040001300331T 0600249600300000286080D00000000000000000001               30042010000000000000000237003018                         090000014356750001104954588000000000097862009177014356750001300000000000000000002220000000000                 
1040001300332U 0600000000000000000000000000456700000000000000000000000000456700000000002283300000000001369900000000000000000000000000000029042010040520101900        000000000000000CIP COMPENSACAO               930                           
1040001300333T 0600249600300000286080D00000000000000000001               30042010000000000000000151005550                         090000014687240001104924588000000000097862009177014687240001300000000000000000002220000000000                 
1040001300334U 0600000000000000000000000000146700000000000000000000000000146700000000000733300000000000439900000000000000000000000000000029042010040520101900        000000000000000CIP COMPENSACAO               930                           
1040001300335T 0600249600300000286080D00000000000000000001               30042010000000000000000341006467                         090000014737660001104954588000000000097862009177014737660001300000000000000000002220000000000                 
1040001300336U 0600000000000000000000000000290500000000000000000000000000290500000000001452600000000000871600000000000000000000000000000029042010040520101900        000000000000000CIP COMPENSACAO               930                           
1040001300337T 0600249600300000286080D00000000000000000001               30042010000000000000000341029599                         090000014925190001104934588000000000097862009177014925190001300000000000000000002220000000000                 
1040001300338U 0600000000000000000000000000314200000000000000000000000000314200000000001571100000000000942700000000000000000000000000000029042010040520101900        000000000000000CIP COMPENSACAO               930                           
1040001300339T 0600249600300000286080D00000000000000000001               30042010000000000000000237002968                         090000015018840001104984588000000000097862009177015018840001300000000000000000002220000000000                 
1040001300340U 0600000000000000000000000000161000000000000000000000000000161000000000000805000000000000483000000000000000000000000000000029042010040520101900        000000000000000CIP COMPENSACAO               930                           
1040001300341T 0600249600300000286080D00000000000000000001               07101997000000000013360356001368                         090000015064210001104900000000001336097862009177015064210001300000000000000000002220000000000                 
1040001300342U 0600000000000000000000000000267200000000000000000000000000267200000000001336000000000000801600000000000000000000000000000029042010040520101900        000000000000000CIP COMPENSACAO               930                           
1040001300343T 0600249600300000286080D00000000000000000001               30042010000000000000000341000272                         090000015150600001104934588000000000097862009177015150600001300000000000000000002220000000000                 
1040001300344U 0600000000000000000000000000066200000000000000000000000000066200000000000330800000000000198400000000000000000000000000000029042010040520101900        000000000000000CIP COMPENSACAO               930                           
1040001300345T 0600249600300000286080D00000000000000000001               07101997000000000002453356001368                         090000015154102851104900000000000245397862009177015154102851600000000000000000002220000000000                 
1040001300346U 0600000000000000000000000000049100000000000000000000000000049100000000000245300000000000147100000000000000000000000000000029042010040520101900        000000000000000CIP COMPENSACAO               960                           
1040001300347T 0600249600300000286080D00000000000000000001               30042010000000000000000341001902                         090000015256300001104934588000000000097862009177015256300001300000000000000000002220000000000                 
1040001300348U 0600000000000000000000000000188700000000000000000000000000188700000000000943500000000000566100000000000000000000000000000029042010040520101900        000000000000000CIP COMPENSACAO               930                           
1040001300349T 0600249600300000286080D00000000000000000001               30042010000000000000000399003190                         090000015522330001104964588000000000097862009177015522330001300000000000000000002220000000000                 
1040001300350U 0600000000000000000000000000560600000000000000000000000000560600000000002802900000000001681700000000000000000000000000000029042010040520101900        000000000000000CIP COMPENSACAO               930                           
1040001300351T 0600249600300000286080D00000000000000000001               30042010000000000000000341029238                         090000015632310001104944588000000000097862009177015632310001300000000000000000002220000000000                 
1040001300352U 0600000000000000000000000000217800000000000000000000000000217800000000001089200000000000653600000000000000000000000000000029042010040520101900        000000000000000CIP COMPENSACAO               930                           
1040001300353T 0600249600300000286080D00000000000000000001               30042010000000000007977341029238                         090000015727470001104994588000000797797862009177015727470001300000000000000000002220000000000                 
1040001300354U 0600000000000000000000000000159500000000000000000000000000159500000000000797700000000000478700000000000000000000000000000029042010040520101900        000000000000000CIP COMPENSACAO               930                           
1040001300355T 0600249600300000286080D00000000000000000001               07101997000000000015671356001368                         090000015800770001104900000000001567197862009177015800770001300000000000000000002220000000000                 
1040001300356U 0600000000000000000000000000313400000000000000000000000000313400000000001567100000000000940300000000000000000000000000000029042010040520101900        000000000000000CIP COMPENSACAO               930                           
1040001300357T 0600249600300000286080D00000000000000000001               30042010000000000000000341001902                         090000016079320001104914588000000000097862009177016079320001300000000000000000002220000000000                 
1040001300358U 0600000000000000000000000000087700000000000000000000000000087700000000000438700000000000263300000000000000000000000000000029042010040520101900        000000000000000CIP COMPENSACAO               930                           
1040001300359T 0600249600300000286080D00000000000000000001               30042010000000000000000341007544                         090000016302860001104914588000000000097862009177016302860001300000000000000000002220000000000                 
1040001300360U 0600000000000000000000000000322700000000000000000000000000322700000000001613500000000000968100000000000000000000000000000029042010040520101900        000000000000000CIP COMPENSACAO               930                           
1040001300361T 0600249600300000286080D00000000000000000001               30042010000000000000000341003336                         090000016501190001104914588000000000097862009177016501190001300000000000000000002220000000000                 
1040001300362U 0600000000000000000000000000079900000000000000000000000000079900000000000399300000000000239500000000000000000000000000000029042010040520101900        000000000000000CIP COMPENSACAO               930                           
1040001300363T 0600249600300000286080D00000000000000000001               30042010000000000000000341029599                         090000016532310001104934588000000000097862009177016532310001300000000000000000002220000000000                 
1040001300364U 0600000000000000000000000000321100000000000000000000000000321100000000001605300000000000963100000000000000000000000000000029042010040520101900        000000000000000CIP COMPENSACAO               930                           
1040001300365T 0600249600300000286080D00000000000000000001               30042010000000000000000341016853                         090000016574000001104914588000000000097862009177016574000001300000000000000000002220000000000                 
1040001300366U 0600000000000000000000000000425000000000000000000000000000425000000000002124900000000001274900000000000000000000000000000029042010040520101900        000000000000000CIP COMPENSACAO               930                           
1040001300367T 0600249600300000286080D00000000000000000001               30042010000000000000000341001732                         090000016596490001104934588000000000097862009177016596490001300000000000000000002220000000000                 
1040001300368U 0600000000000000000000000000062000000000000000000000000000062000000000000310000000000000186000000000000000000000000000000029042010040520101900        000000000000000CIP COMPENSACAO               930                           
1040001300369T 0600249600300000286080D00000000000000000001               30042010000000000000000409013978                         090000016625050001104924588000000000097862009177016625050001300000000000000000002220000000000                 
1040001300370U 0600000000000000000000000000565500000000000000000000000000565500000000002827600000000001696600000000000000000000000000000029042010040520101900        000000000000000CIP COMPENSACAO               930                           
1040001300371T 0600249600300000286080D00000000000000000001               30042010000000000000000341000370                         090000016645880001104914588000000000097862009177016645880001300000000000000000002220000000000                 
1040001300372U 0600000000000000000000000000852700000000000000000000000000852700000000004263300000000002557900000000000000000000000000000029042010040520101900        000000000000000CIP COMPENSACAO               930                           
1040001300373T 0600249600300000286080D00000000000000000001               30042010000000000000000341007463                         090000016722100001104924588000000000097862009177016722100001300000000000000000002220000000000                 
1040001300374U 0600000000000000000000000000110300000000000000000000000000110300000000000551600000000000331000000000000000000000000000000029042010040520101900        000000000000000CIP COMPENSACAO               930                           
1040001300375T 0600249600300000286080D00000000000000000001               30042010000000000000000341016853                         090000016749580001104934588000000000097862009177016749580001300000000000000000002220000000000                 
1040001300376U 0600000000000000000000000000576400000000000000000000000000576400000000002882000000000001729200000000000000000000000000000029042010040520101900        000000000000000CIP COMPENSACAO               930                           
1040001300377T 0600249600300000286080D00000000000000000001               30042010000000000000000422000973                         090000017044340001104994588000000000097862009177017044340001300000000000000000002220000000000                 
1040001300378U 0600000000000000000000000000274200000000000000000000000000274200000000001371200000000000822800000000000000000000000000000029042010040520101900        000000000000000CIP COMPENSACAO               930                           
1040001300379T 0600249600300000286080D00000000000000000001               30042010000000000000000341001910                         090000017314600001104914588000000000097862009177017314600001300000000000000000002220000000000                 
1040001300380U 0600000000000000000000000000376900000000000000000000000000376900000000001884400000000001130600000000000000000000000000000029042010040520101900        000000000000000CIP COMPENSACAO               930                           
1040001300381T 0600249600300000286080D00000000000000000001               30042010000000000000000341003557                         090000017417470001104974588000000000097862009177017417470001300000000000000000002220000000000                 
1040001300382U 0600000000000000000000000000847300000000000000000000000000847300000000004236500000000002541900000000000000000000000000000029042010040520101900        000000000000000CIP COMPENSACAO               930                           
1040001300383T 0600249600300000286080D00000000000000000001               30042010000000000036750341074810                         090000017479840001104914588000003675097862008177017479840001110000000000000000002220000000000                 
1040001300384U 0600000000000000000000000000735000000000000000000000000000735000000000003675000000000002205000000000000000000000000000000029042010040520101900        000000000000000CIP COMPENSACAO               811                           
1040001300385T 0600249600300000286080D00000000000000000001               30042010000000000028510409010057                         090000017539330001104954588000002851097862008177017539330001110000000000000000002220000000000                 
1040001300386U 0600000000000000000000000000570200000000000000000000000000570200000000002851000000000001710600000000000000000000000000000029042010040520101900        000000000000000CIP COMPENSACAO               811                           
1040001300387T 0600249600300000286080D00000000000000000001               30042010000000000000000341003336                         090000017687320001104954588000000000097862009177017687320001300000000000000000002220000000000                 
1040001300388U 0600000000000000000000000001019400000000000000000000000001019400000000005097000000000003058200000000000000000000000000000029042010040520101900        000000000000000CIP COMPENSACAO               930                           
1040001300389T 0600249600300000286080D00000000000000000001               30042010000000000000000341001899                         090000017976620001104944588000000000097862009177017976620001300000000000000000002220000000000                 
1040001300390U 0600000000000000000000000000296100000000000000000000000000296100000000001480500000000000888300000000000000000000000000000029042010040520101900        000000000000000CIP COMPENSACAO               930                           
1040001300391T 0600249600300000286080D00000000000000000001               11121998000000000016737033005878                         090000018081520001104970430000001673797862009177018081520001300000000000000000002220000000000                 
1040001300392U 0600000000000000000000000000334700000000000000000000000000334700000000001673700000000001004300000000000000000000000000000029042010040520101900        000000000000000CIP COMPENSACAO               930                           
1040001300393T 0600249600300000286080D00000000000000000001               11121998000000000018247033005878                         090000018239450001104950430000001824797862009177018239450001300000000000000000002220000000000                 
1040001300394U 0600000000000000000000000000364900000000000000000000000000364900000000001824700000000001094900000000000000000000000000000029042010040520101900        000000000000000CIP COMPENSACAO               930                           
1040001300395T 0600249600300000286080D00000000000000000001               30042010000000000000000237038326                         090000018263080001104994588000000000097862009177018263080001300000000000000000002220000000000                 
1040001300396U 0600000000000000000000000000354000000000000000000000000000354000000000001770100000000001062100000000000000000000000000000029042010040520101900        000000000000000CIP COMPENSACAO               930                           
1040001300397T 0600249600300000286080D00000000000000000001               30042010000000000000000341006416                         090000018321770001104914588000000000097862009177018321770001300000000000000000002220000000000                 
1040001300398U 0600000000000000000000000000496300000000000000000000000000496300000000002481700000000001489100000000000000000000000000000029042010040520101900        000000000000000CIP COMPENSACAO               930                           
1040001300399T 0600249600300000286080D00000000000000000001               30042010000000000000000341015717                         090000018425680001104914588000000000097862009177018425680001300000000000000000002220000000000                 
1040001300400U 0600000000000000000000000000292600000000000000000000000000292600000000001463100000000000877900000000000000000000000000000029042010040520101900        000000000000000CIP COMPENSACAO               930                           
1040001300401T 0600249600300000286080D00000000000000000001               30042010000000000000000341063070                         090000018690370001104944588000000000097862009177018690370001300000000000000000002220000000000                 
1040001300402U 0600000000000000000000000002895200000000000000000000000002895200000000014476200000000008685800000000000000000000000000000029042010040520101900        000000000000000CIP COMPENSACAO               930                           
1040001300403T 0600249600300000286080D00000000000000000001               30042010000000000003180341029238                         090000019228390001104944588000000318097862009177019228390001300000000000000000002220000000000                 
1040001300404U 0600000000000000000000000000063600000000000000000000000000063600000000000318000000000000190800000000000000000000000000000029042010040520101900        000000000000000CIP COMPENSACAO               930                           
1040001300405T 0600249600300000286080D00000000000000000001               30042010000000000000000341000370                         090000019389390001104924588000000000097862009177019389390001300000000000000000002220000000000                 
1040001300406U 0600000000000000000000000000429200000000000000000000000000429200000000002146100000000001287700000000000000000000000000000029042010040520101900        000000000000000CIP COMPENSACAO               930                           
1040001300407T 0600249600300000286080D00000000000000000001               30042010000000000000000341006467                         090000019424910001104934588000000000097862009177019424910001300000000000000000002220000000000                 
1040001300408U 0600000000000000000000000000422800000000000000000000000000422800000000002113900000000001268300000000000000000000000000000029042010040520101900        000000000000000CIP COMPENSACAO               930                           
1040001300409T 0600249600300000286080D00000000000000000001               30042010000000000000000341081701                         090000019522320001104954588000000000097862009177019522320001300000000000000000002220000000000                 
1040001300410U 0600000000000000000000000000104300000000000000000000000000104300000000000521300000000000312700000000000000000000000000000029042010040520101900        000000000000000CIP COMPENSACAO               930                           
1040001300411T 0600249600300000286080D00000000000000000001               30042010000000000000000237006149                         090000019621540001104924588000000000097862009177019621540001300000000000000000002220000000000                 
1040001300412U 0600000000000000000000000000778000000000000000000000000000778000000000003889900000000002333900000000000000000000000000000029042010040520101900        000000000000000CIP COMPENSACAO               930                           
