10400000         243070481000114186200              00249600300000286080SINEMPEDIFPORTCAB MUN SP      CAIXA ECONOMICA FEDERAL                 22304201005165300125306000000                                                                     
10400011T01  030 2043070481000114186200              00249600300000286080SINEMPEDIFPORTCAB MUN SP      200501                                  000000                                  000000002304201000000000                                 
1040001300001T 0600249600300000286080D00000000000000000001               30042010000000000000000237000906                         090000000030258028104914588000000000097862009177000030258028300000000000000000002220000000000                 
1040001300002U 0600000000000000000000000000048200000000000000000000000000048200000000000240900000000000144500000000000000000000000000000019042010230420101900        000000000000000CIP COMPENSACAO               930                           
1040001300003T 0600249600300000286080D00000000000000000001               07101997000000000003800356001368                         090000000615830001104900000000000380097862009177000615830001300000000000000000002220000000000                 
1040001300004U 0600000000000000000000000000076000000000000000000000000000076000000000000380000000000000228000000000000000000000000000000019042010230420101900        000000000000000CIP COMPENSACAO               930                           
1040001300005T 0600249600300000286080D00000000000000000001               30042010000000000000000356015814                         090000000856410001104904588000000000097862009177000856410001300000000000000000002220000000000                 
1040001300006U 0600000000000000000000000000260600000000000000000000000000260600000000001303000000000000781800000000000000000000000000000019042010230420101900        000000000000000CIP COMPENSACAO               930                           
1040001300007T 0600249600300000286080D00000000000000000001               30042010000000000000000356015814                         090000000856420001104904588000000000097862009177000856420001300000000000000000002220000000000                 
1040001300008U 0600000000000000000000000000139400000000000000000000000000139400000000000697200000000000418400000000000000000000000000000019042010230420101900        000000000000000CIP COMPENSACAO               930                           
1040001300009T 0600249600300000286080D00000000000000000001               30042010000000000000000356015814                         090000000856430001104904588000000000097862009177000856430001300000000000000000002220000000000                 
1040001300010U 0600000000000000000000000000252300000000000000000000000000252300000000001261600000000000757000000000000000000000000000000019042010230420101900        000000000000000CIP COMPENSACAO               930                           
1040001300011T 0600249600300000286080D00000000000000000001               30042010000000000000000356015814                         090000000856450001104904588000000000097862009177000856450001300000000000000000002220000000000                 
1040001300012U 0600000000000000000000000000229200000000000000000000000000229200000000001146200000000000687800000000000000000000000000000019042010230420101900        000000000000000CIP COMPENSACAO               930                           
1040001300013T 0600249600300000286080D00000000000000000001               30042010000000000000000356015814                         090000000856500001104904588000000000097862009177000856500001300000000000000000002220000000000                 
1040001300014U 0600000000000000000000000000593600000000000000000000000000593600000000002967800000000001780600000000000000000000000000000019042010230420101900        000000000000000CIP COMPENSACAO               930                           
1040001300015T 0600249600300000286080D00000000000000000001               30042010000000000000000356015814                         090000000856520001104904588000000000097862009177000856520001300000000000000000002220000000000                 
1040001300016U 0600000000000000000000000000049000000000000000000000000000049000000000000244900000000000146900000000000000000000000000000019042010230420101900        000000000000000CIP COMPENSACAO               930                           
1040001300017T 0600249600300000286080D00000000000000000001               30042010000000000000000356015814                         090000000856530001104904588000000000097862009177000856530001300000000000000000002220000000000                 
1040001300018U 0600000000000000000000000000372100000000000000000000000000372100000000001860500000000001116300000000000000000000000000000019042010230420101900        000000000000000CIP COMPENSACAO               930                           
1040001300019T 0600249600300000286080D00000000000000000001               30042010000000000000000356015814                         090000000856580001104904588000000000097862009177000856580001300000000000000000002220000000000                 
1040001300020U 0600000000000000000000000000092500000000000000000000000000092500000000000462500000000000277500000000000000000000000000000019042010230420101900        000000000000000CIP COMPENSACAO               930                           
1040001300021T 0600249600300000286080D00000000000000000001               30042010000000000000000356015814                         090000000856590001104904588000000000097862009177000856590001300000000000000000002220000000000                 
1040001300022U 0600000000000000000000000000231300000000000000000000000000231300000000001156400000000000693800000000000000000000000000000019042010230420101900        000000000000000CIP COMPENSACAO               930                           
1040001300023T 0600249600300000286080D00000000000000000001               30042010000000000000000356015814                         090000000856610001104904588000000000097862009177000856610001300000000000000000002220000000000                 
1040001300024U 0600000000000000000000000000173900000000000000000000000000173900000000000869700000000000521900000000000000000000000000000019042010230420101900        000000000000000CIP COMPENSACAO               930                           
1040001300025T 0600249600300000286080D00000000000000000001               30042010000000000000000356015814                         090000000856640001104904588000000000097862009177000856640001300000000000000000002220000000000                 
1040001300026U 0600000000000000000000000000205900000000000000000000000000205900000000001029300000000000617500000000000000000000000000000019042010230420101900        000000000000000CIP COMPENSACAO               930                           
1040001300027T 0600249600300000286080D00000000000000000001               30042010000000000000000356015814                         090000000879010001104904588000000000097862009177000879010001300000000000000000002220000000000                 
1040001300028U 0600000000000000000000000000229200000000000000000000000000229200000000001146200000000000687800000000000000000000000000000019042010230420101900        000000000000000CIP COMPENSACAO               930                           
1040001300029T 0600249600300000286080D00000000000000000001               30042010000000000000000341007650                         090000001084200001104984588000000000097862009177001084200001300000000000000000002220000000000                 
1040001300030U 0600000000000000000000000000139000000000000000000000000000139000000000000695000000000000417000000000000000000000000000000019042010230420101900        000000000000000CIP COMPENSACAO               930                           
1040001300031T 0600249600300000286080D00000000000000000001               07101997000000000003920356001368                         090000001115680001104900000000000392097862009177001115680001300000000000000000002220000000000                 
1040001300032U 0600000000000000000000000000078400000000000000000000000000078400000000000392000000000000235200000000000000000000000000000019042010230420101900        000000000000000CIP COMPENSACAO               930                           
1040001300033T 0600249600300000286080D00000000000000000001               07101997000000000002450356001368                         090000001115690001104900000000000245097862009177001115690001300000000000000000002220000000000                 
1040001300034U 0600000000000000000000000000049000000000000000000000000000049000000000000245000000000000147000000000000000000000000000000019042010230420101900        000000000000000CIP COMPENSACAO               930                           
1040001300035T 0600249600300000286080D00000000000000000001               30042010000000000000000356015814                         090000001359870001104904588000000000097862009177001359870001300000000000000000002220000000000                 
1040001300036U 0600000000000000000000000000651700000000000000000000000000651700000000003258500000000001955100000000000000000000000000000019042010230420101900        000000000000000CIP COMPENSACAO               930                           
1040001300037T 0600249600300000286080D00000000000000000001               30042010000000000000000237025739                         090000002190214771104914588000000000097862009177002190214771300000000000000000002220000000000                 
1040001300038U 0600000000000000000000000000093900000000000000000000000000093900000000000469400000000000281600000000000000000000000000000019042010230420101900        000000000000000CIP COMPENSACAO               930                           
1040001300039T 0600249600300000286080D00000000000000000001               30042010000000000000000341032409                         090000002190420440104974588000000000097862009177002190420440300000000000000000002220000000000                 
1040001300040U 0600000000000000000000000000025600000000000000000000000000025600000000000128000000000000076800000000000000000000000000000019042010230420101900        000000000000000CIP COMPENSACAO               930                           
1040001300041T 0600249600300000286080D00000000000000000001               30042010000000000000000341000663                         090000003057260001104984588000000000097862009177003057260001300000000000000000002220000000000                 
1040001300042U 0600000000000000000000000000125900000000000000000000000000125900000000000629400000000000377600000000000000000000000000000019042010230420101900        000000000000000CIP COMPENSACAO               930                           
1040001300043T 0600249600300000286080D00000000000000000001               30042010000000000001750237004219                         090000003325270001104924588000000175097862008177003325270001110000000000000000002220000000000                 
1040001300044U 0600000000000000000000000000035000000000000000000000000000035000000000000175000000000000105000000000000000000000000000000019042010230420101900        000000000000000CIP COMPENSACAO               811                           
1040001300045T 0600249600300000286080D00000000000000000001               30042010000000000000000237014451                         090000003387300001104944588000000000097862009177003387300001300000000000000000002220000000000                 
1040001300046U 0600000000000000000000000000110000000000000000000000000000110000000000000550000000000000330000000000000000000000000000000019042010230420101900        000000000000000CIP COMPENSACAO               930                           
1040001300047T 0600249600300000286080D00000000000000000001               30042010000000000000000341002518                         090000003714820001104994588000000000097862009177003714820001300000000000000000002220000000000                 
1040001300048U 0600000000000000000000000000122700000000000000000000000000122700000000000613300000000000367900000000000000000000000000000019042010230420101900        000000000000000CIP COMPENSACAO               930                           
1040001300049T 0600249600300000286080D00000000000000000001               30042010000000000000000341007374                         090000003749350001104914588000000000097862009177003749350001300000000000000000002220000000000                 
1040001300050U 0600000000000000000000000000219200000000000000000000000000219200000000001095800000000000657400000000000000000000000000000019042010230420101900        000000000000000CIP COMPENSACAO               930                           
1040001300051T 0600249600300000286080D00000000000000000001               07101997000000000004596356001368                         090000003756009809104900000000000459697862009177003756009809300000000000000000002220000000000                 
1040001300052U 0600000000000000000000000000091900000000000000000000000000091900000000000459600000000000275800000000000000000000000000000019042010230420101900        000000000000000CIP COMPENSACAO               930                           
1040001300053T 0600249600300000286080D00000000000000000001               30042010000000000000000341006955                         090000003791810001104914588000000000097862009177003791810001300000000000000000002220000000000                 
1040001300054U 0600000000000000000000000000322700000000000000000000000000322700000000001613400000000000968000000000000000000000000000000019042010230420101900        000000000000000CIP COMPENSACAO               930                           
1040001300055T 0600249600300000286080D00000000000000000001               30042010000000000000000409001384                         090000003964300001104934588000000000097862009177003964300001300000000000000000002220000000000                 
1040001300056U 0600000000000000000000000000049000000000000000000000000000049000000000000244900000000000146900000000000000000000000000000019042010230420101900        000000000000000CIP COMPENSACAO               930                           
1040001300057T 0600249600300000286080D00000000000000000001               07101997000000000007536356001368                         090000004153000080104900000000000753697862009177004153000080300000000000000000002220000000000                 
1040001300058U 0600000000000000000000000000150700000000000000000000000000150700000000000753600000000000452200000000000000000000000000000019042010230420101900        000000000000000CIP COMPENSACAO               930                           
1040001300059T 0600249600300000286080D00000000000000000001               07101997000000000017350356001368                         090000004594080001104900000000001735097862009177004594080001300000000000000000002220000000000                 
1040001300060U 0600000000000000000000000000347000000000000000000000000000347000000000001735000000000001041000000000000000000000000000000019042010230420101900        000000000000000CIP COMPENSACAO               930                           
1040001300061T 0600249600300000286080D00000000000000000001               30042010000000000000000341007676                         090000004908150001104984588000000000097862009177004908150001300000000000000000002220000000000                 
1040001300062U 0600000000000000000000000000052700000000000000000000000000052700000000000263300000000000157900000000000000000000000000000019042010230420101900        000000000000000CIP COMPENSACAO               930                           
1040001300063T 0600249600300000286080D00000000000000000001               30042010000000000000000237000930                         090000005644720001104934588000000000097862009177005644720001300000000000000000002220000000000                 
1040001300064U 0600000000000000000000000000072500000000000000000000000000072500000000000362700000000000217700000000000000000000000000000019042010230420101900        000000000000000CIP COMPENSACAO               930                           
1040001300065T 0600249600300000286080D00000000000000000001               07101997000000000026875356001368                         090000006701100001104900000000002687597862009177006701100001300000000000000000002220000000000                 
1040001300066U 0600000000000000000000000000537500000000000000000000000000537500000000002687500000000001612500000000000000000000000000000019042010230420101900        000000000000000CIP COMPENSACAO               930                           
1040001300067T 0600249600300000286080D00000000000000000001               30042010000000000000000341004294                         090000007394450001104944588000000000097862009177007394450001300000000000000000002220000000000                 
1040001300068U 0600000000000000000000000000560000000000000000000000000000560000000000002800000000000001680000000000000000000000000000000019042010230420101900        000000000000000CIP COMPENSACAO               930                           
1040001300069T 0600249600300000286080D00000000000000000001               07101997000000000010932356001368                         090000007802980001104900000000001093297862009177007802980001300000000000000000002220000000000                 
1040001300070U 0600000000000000000000000000218600000000000000000000000000218600000000001093200000000000656000000000000000000000000000000019042010230420101900        000000000000000CIP COMPENSACAO               930                           
1040001300071T 0600249600300000286080D00000000000000000001               07101997000000000042584356001368                         090000008468260001104900000000004258497862009177008468260001300000000000000000002220000000000                 
1040001300072U 0600000000000000000000000000851700000000000000000000000000851700000000004258400000000002555000000000000000000000000000000019042010230420101900        000000000000000CIP COMPENSACAO               930                           
1040001300073T 0600249600300000286080D00000000000000000001               07101997000000000016642356001368                         090000011499530001104900000000001664297862009177011499530001300000000000000000002220000000000                 
1040001300074U 0600000000000000000000000000332800000000000000000000000000332800000000001664200000000000998600000000000000000000000000000019042010230420101900        000000000000000CIP COMPENSACAO               930                           
1040001300075T 0600249600300000286080D00000000000000000001               07101997000000000005000356001368                         090000014084820001104900000000000500097862009177014084820001300000000000000000002220000000000                 
1040001300076U 0600000000000000000000000000100000000000000000000000000000100000000000000500000000000000300000000000000000000000000000000019042010230420101900        000000000000000CIP COMPENSACAO               930                           
1040001300077T 0600249600300000286080D00000000000000000001               07101997000000000016616356001368                         090000014168150001104900000000001661697862009177014168150001300000000000000000002220000000000                 
1040001300078U 0600000000000000000000000000332300000000000000000000000000332300000000001661600000000000997000000000000000000000000000000019042010230420101900        000000000000000CIP COMPENSACAO               930                           
1040001300079T 0600249600300000286080D00000000000000000001               30042010000000000007601409071480                         090000015410430001104964588000000760197862008177015410430001110000000000000000002220000000000                 
1040001300080U 0600000000000000000000000000152000000000000000000000000000152000000000000760100000000000456100000000000000000000000000000019042010230420101900        000000000000000CIP COMPENSACAO               811                           
1040001300081T 0600249600300000286080D00000000000000000001               30042010000000000000000341002658                         090000015886260001104984588000000000097862009177015886260001300000000000000000002220000000000                 
1040001300082U 0600000000000000000000000000444600000000000000000000000000444600000000002223100000000001333900000000000000000000000000000019042010230420101900        000000000000000CIP COMPENSACAO               930                           
1040001300083T 0600249600300000286080D00000000000000000001               30042010000000000000000341008451                         090000016476210001104974588000000000097862009177016476210001300000000000000000002220000000000                 
1040001300084U 0600000000000000000000000000272800000000000000000000000000272800000000001363800000000000818200000000000000000000000000000019042010230420101900        000000000000000CIP COMPENSACAO               930                           
1040001300085T 0600249600300000286080D00000000000000000001               07101997000000000026488356001368                         090000018037270001104900000000002648897862009177018037270001300000000000000000002220000000000                 
1040001300086U 0600000000000000000000000000529800000000000000000000000000529800000000002648800000000001589200000000000000000000000000000019042010230420101900        000000000000000CIP COMPENSACAO               930                           
1040001300087T 0600249600300000286080D00000000000000000001               30042010000000000000000341001368                         090000020204670001104924588000000000097862009177020204670001300000000000000000002220000000000                 
1040001300088U 0600000000000000000000000000143200000000000000000000000000143200000000000716100000000000429700000000000000000000000000000019042010230420101900        000000000000000CIP COMPENSACAO               930                           
1040001300089T 0600249600300000286080D00000000000000000001               07101997000000000000000341001805                         090000020509540001104900000000000000097862008177020509540001110000000000000000002220000000000                 
1040001300090U 0600000000000000000000000000044900000000000000000000000000044900000000000224500000000000134700000000000000000000000000000019042010230420101900        000000000000000CIP COMPENSACAO               811                           
1040001300091T 0600249600300000286080D00000000000000000001               07101997000000000012720356001368                         090000020905990001104900000000001272097862009177020905990001300000000000000000002220000000000                 
1040001300092U 0600000000000000000000000000254400000000000000000000000000254400000000001272000000000000763200000000000000000000000000000019042010230420101900        000000000000000CIP COMPENSACAO               930                           
1040001300093T 0600249600300000286080D00000000000000000001               30042010000000000000000341064203                         090000020924730001104924588000000000097862009177020924730001300000000000000000002220000000000                 
1040001300094U 0600000000000000000000000000452900000000000000000000000000452900000000002264600000000001358800000000000000000000000000000019042010230420101900        000000000000000CIP COMPENSACAO               930                           
1040001300095T 0600249600300000286080D00000000000000000001               30042010000000000000000341008451                         090000021449140001104934588000000000097862009177021449140001300000000000000000002220000000000                 
1040001300096U 0600000000000000000000000000610200000000000000000000000000610200000000003050900000000001830500000000000000000000000000000019042010230420101900        000000000000000CIP COMPENSACAO               930                           
1040001300097T 0600249600300000286080D00000000000000000001               07101997000000000021853356001368                         090000022816290001104900000000002185397862009177022816290001300000000000000000002220000000000                 
1040001300098U 0600000000000000000000000000437100000000000000000000000000437100000000002185300000000001311100000000000000000000000000000019042010230420101900        000000000000000CIP COMPENSACAO               930                           
1040001300099T 0600249600300000286080D00000000000000000001               30042010000000000000000237027197                         090000025240780001104914588000000000097862009177025240780001300000000000000000002220000000000                 
1040001300100U 0600000000000000000000000000051800000000000000000000000000051800000000000259100000000000155500000000000000000000000000000019042010230420101900        000000000000000CIP COMPENSACAO               930                           
1040001300101T 0600249600300000286080D00000000000000000001               30042010000000000000000399016594                         090000026750990001104914588000000000097862009177026750990001300000000000000000002220000000000                 
1040001300102U 0600000000000000000000000000057300000000000000000000000000057300000000000286300000000000171700000000000000000000000000000019042010230420101900        000000000000000CIP COMPENSACAO               930                           
1040001300103T 0600249600300000286080D00000000000000000001               30042010000000000000000409010146                         090000027170180001104964588000000000097862009177027170180001300000000000000000002220000000000                 
1040001300104U 0600000000000000000000000000068000000000000000000000000000068000000000000340000000000000204000000000000000000000000000000019042010230420101900        000000000000000CIP COMPENSACAO               930                           
1040001300105T 0600249600300000286080D00000000000000000001               30042010000000000000000341010006                         090000029088000001104914588000000000097862009177029088000001300000000000000000002220000000000                 
1040001300106U 0600000000000000000000000000058700000000000000000000000000058700000000000293300000000000175900000000000000000000000000000019042010230420101900        000000000000000CIP COMPENSACAO               930                           
1040001300107T 0600249600300000286080D00000000000000000001               07101997000000000051506356001368                         090000029810640001104900000000005150697862009177029810640001300000000000000000002220000000000                 
1040001300108U 0600000000000000000000000001030100000000000000000000000001030100000000005150600000000003090400000000000000000000000000000019042010230420101900        000000000000000CIP COMPENSACAO               930                           
1040001300109T 0600249600300000286080D00000000000000000001               30042010000000000000000341001945                         090000029870880001104944588000000000097862009177029870880001300000000000000000002220000000000                 
1040001300110U 0600000000000000000000000000353400000000000000000000000000353400000000001766800000000001060000000000000000000000000000000019042010230420101900        000000000000000CIP COMPENSACAO               930                           
1040001300111T 0600249600300000286080D00000000000000000001               30042010000000000000000356007820                         090000030486400001104904588000000000097862009177030486400001300000000000000000002220000000000                 
1040001300112U 0600000000000000000000000000280000000000000000000000000000280000000000001400000000000000840000000000000000000000000000000019042010230420101900        000000000000000CIP COMPENSACAO               930                           
1040001300113T 0600249600300000286080D00000000000000000001               30042010000000000002449341001678                         090000030949940001104974588000000244997862008177030949940001110000000000000000002220000000000                 
1040001300114U 0600000000000000000000000000049000000000000000000000000000049000000000000244900000000000146900000000000000000000000000000019042010230420101900        000000000000000CIP COMPENSACAO               811                           
1040001300115T 0600249600300000286080D00000000000000000001               30042010000000000000000341004529                         090000031408220001104974588000000000097862009177031408220001300000000000000000002220000000000                 
1040001300116U 0600000000000000000000000000137300000000000000000000000000137300000000000686400000000000411800000000000000000000000000000019042010230420101900        000000000000000CIP COMPENSACAO               930                           
1040001300117T 0600249600300000286080D00000000000000000001               07101997000000000016683356001368                         090000033106370001104900000000001668397862009177033106370001300000000000000000002220000000000                 
1040001300118U 0600000000000000000000000000333700000000000000000000000000333700000000001668300000000001000900000000000000000000000000000019042010230420101900        000000000000000CIP COMPENSACAO               930                           
1040001300119T 0600249600300000286080D00000000000000000001               30042010000000000009663341001600                         090000033233940001104934588000000966397862004177033233940001120000000000000000002220000000000                 
1040001300120U 0600000000000000000000000000193300000000000000000000000000193300000000000966300000000000579700000000000000000000000000000019042010230420101900        000000000000000CIP COMPENSACAO               412                           
1040001300121T 0600249600300000286080D00000000000000000001               30042010000000000000000341007676                         090000033283930001104984588000000000097862009177033283930001300000000000000000002220000000000                 
1040001300122U 0600000000000000000000000000049500000000000000000000000000049500000000000247500000000000148500000000000000000000000000000019042010230420101900        000000000000000CIP COMPENSACAO               930                           
1040001300123T 0600249600300000286080D00000000000000000001               30042010000000000000000237005509                         090000033494000001104914588000000000097862009177033494000001300000000000000000002220000000000                 
1040001300124U 0600000000000000000000000000139300000000000000000000000000139300000000000696300000000000417700000000000000000000000000000019042010230420101900        000000000000000CIP COMPENSACAO               930                           
1040001300125T 0600249600300000286080D00000000000000000001               30042010000000000000000409008761                         090000036662990001104934588000000000097862009177036662990001300000000000000000002220000000000                 
1040001300126U 0600000000000000000000000000076500000000000000000000000000076500000000000382300000000000229300000000000000000000000000000019042010230420101900        000000000000000CIP COMPENSACAO               930                           
1040001300127T 0600249600300000286080D00000000000000000001               07101997000000000050516356001368                         090000039968590001104900000000005051697862009177039968590001300000000000000000002220000000000                 
1040001300128U 0600000000000000000000000001010300000000000000000000000001010300000000005051600000000003031000000000000000000000000000000019042010230420101900        000000000000000CIP COMPENSACAO               930                           
1040001300129T 0600249600300000286080D00000000000000000001               07101997000000000014569356001368                         090000043355740001104900000000001456997862009177043355740001300000000000000000002220000000000                 
1040001300130U 0600000000000000000000000000291400000000000000000000000000291400000000001456900000000000874100000000000000000000000000000019042010230420101900        000000000000000CIP COMPENSACAO               930                           
1040001300131T 0600249600300000286080D00000000000000000001               07101997000000000021035356001368                         090000043359950001104900000000002103597862009177043359950001300000000000000000002220000000000                 
1040001300132U 0600000000000000000000000000420700000000000000000000000000420700000000002103500000000001262100000000000000000000000000000019042010230420101900        000000000000000CIP COMPENSACAO               930                           
1040001300133T 0600249600300000286080D00000000000000000001               07101997000000000016813356001368                         090000043436050001104900000000001681397862009177043436050001300000000000000000002220000000000                 
1040001300134U 0600000000000000000000000000336300000000000000000000000000336300000000001681300000000001008700000000000000000000000000000019042010230420101900        000000000000000CIP COMPENSACAO               930                           
1040001300135T 0600249600300000286080D00000000000000000001               07101997000000000028096356001368                         090000043726280001104900000000002809697862009177043726280001300000000000000000002220000000000                 
1040001300136U 0600000000000000000000000000561900000000000000000000000000561900000000002809600000000001685800000000000000000000000000000019042010230420101900        000000000000000CIP COMPENSACAO               930                           
1040001300137T 0600249600300000286080D00000000000000000001               30042010000000000000000033007358                         090000044999240001104994588000000000097862009177044999240001300000000000000000002220000000000                 
1040001300138U 0600000000000000000000000000091800000000000000000000000000091800000000000459200000000000275600000000000000000000000000000019042010230420101900        000000000000000CIP COMPENSACAO               930                           
1040001300139T 0600249600300000286080D00000000000000000001               07101997000000000006000356001368                         090000046754380001104900000000000600097862009177046754380001300000000000000000002220000000000                 
1040001300140U 0600000000000000000000000000120000000000000000000000000000120000000000000600000000000000360000000000000000000000000000000019042010230420101900        000000000000000CIP COMPENSACAO               930                           
1040001300141T 0600249600300000286080D00000000000000000001               30042010000000000000000341004294                         090000047581100001104944588000000000097862009177047581100001300000000000000000002220000000000                 
1040001300142U 0600000000000000000000000000179800000000000000000000000000179800000000000899200000000000539600000000000000000000000000000019042010230420101900        000000000000000CIP COMPENSACAO               930                           
1040001300143T 0600249600300000286080D00000000000000000001               30042010000000000000000341003000                         090000047980300001104954588000000000097862009177047980300001300000000000000000002220000000000                 
1040001300144U 0600000000000000000000000000045300000000000000000000000000045300000000000226400000000000135800000000000000000000000000000019042010230420101900        000000000000000CIP COMPENSACAO               930                           
1040001300145T 0600249600300000286080D00000000000000000001               30042010000000000000000151003840                         090000048268170001104924588000000000097862009177048268170001300000000000000000002220000000000                 
1040001300146U 0600000000000000000000000000056300000000000000000000000000056300000000000281700000000000169100000000000000000000000000000019042010230420101900        000000000000000CIP COMPENSACAO               930                           
1040001300147T 0600249600300000286080D00000000000000000001               30042010000000000000000341065030                         090000050250370001104944588000000000097862009177050250370001300000000000000000002220000000000                 
1040001300148U 0600000000000000000000000000149900000000000000000000000000149900000000000749400000000000449600000000000000000000000000000019042010230420101900        000000000000000CIP COMPENSACAO               930                           
1040001300149T 0600249600300000286080D00000000000000000001               30042010000000000000000341015725                         090000051138340001104964588000000000097862009177051138340001300000000000000000002220000000000                 
1040001300150U 0600000000000000000000000000327600000000000000000000000000327600000000001638100000000000982900000000000000000000000000000019042010230420101900        000000000000000CIP COMPENSACAO               930                           
1040001300151T 0600249600300000286080D00000000000000000001               30042010000000000000000341007650                         090000052397120001104914588000000000097862009177052397120001300000000000000000002220000000000                 
1040001300152U 0600000000000000000000000000312400000000000000000000000000312400000000001561800000000000937000000000000000000000000000000019042010230420101900        000000000000000CIP COMPENSACAO               930                           
1040001300153T 0600249600300000286080D00000000000000000001               07101997000000000022063356001368                         090000052908250001104900000000002206397862009177052908250001300000000000000000002220000000000                 
1040001300154U 0600000000000000000000000000441300000000000000000000000000441300000000002206300000000001323700000000000000000000000000000019042010230420101900        000000000000000CIP COMPENSACAO               930                           
1040001300155T 0600249600300000286080D00000000000000000001               30042010000000000000000341071439                         090000053885700001104914588000000000097862009177053885700001300000000000000000002220000000000                 
1040001300156U 0600000000000000000000000000166900000000000000000000000000166900000000000834700000000000500900000000000000000000000000000019042010230420101900        000000000000000CIP COMPENSACAO               930                           
1040001300157T 0600249600300000286080D00000000000000000001               07101997000000000013865356001368                         090000054770950001104900000000001386597862009177054770950001300000000000000000002220000000000                 
1040001300158U 0600000000000000000000000000277300000000000000000000000000277300000000001386500000000000831900000000000000000000000000000019042010230420101900        000000000000000CIP COMPENSACAO               930                           
1040001300159T 0600249600300000286080D00000000000000000001               07101997000000000016066356001368                         090000056919920001104900000000001606697862009177056919920001300000000000000000002220000000000                 
1040001300160U 0600000000000000000000000000321300000000000000000000000000321300000000001606600000000000964000000000000000000000000000000019042010230420101900        000000000000000CIP COMPENSACAO               930                           
1040001300161T 0600249600300000286080D00000000000000000001               30042010000000000000000341001708                         090000060058990001104984588000000000097862009177060058990001300000000000000000002220000000000                 
1040001300162U 0600000000000000000000000000058700000000000000000000000000058700000000000293300000000000175900000000000000000000000000000019042010230420101900        000000000000000CIP COMPENSACAO               930                           
1040001300163T 0600249600300000286080D00000000000000000001               07101997000000000005000356001368                         090000061570040001104900000000000500097862009177061570040001300000000000000000002220000000000                 
1040001300164U 0600000000000000000000000000100000000000000000000000000000100000000000000500000000000000300000000000000000000000000000000019042010230420101900        000000000000000CIP COMPENSACAO               930                           
1040001300165T 0600249600300000286080D00000000000000000001               30042010000000000000000341083313                         090000062369890001104914588000000000097862009177062369890001300000000000000000002220000000000                 
1040001300166U 0600000000000000000000000000074900000000000000000000000000074900000000000374500000000000224700000000000000000000000000000019042010230420101900        000000000000000CIP COMPENSACAO               930                           
1040001300167T 0600249600300000286080D00000000000000000001               30042010000000000008457409000957                         090000062561710001104964588000000845797862009177062561710001300000000000000000002220000000000                 
1040001300168U 0600000000000000000000000000169100000000000000000000000000169100000000000845700000000000507500000000000000000000000000000019042010230420101900        000000000000000CIP COMPENSACAO               930                           
1040001300169T 0600249600300000286080D00000000000000000001               30042010000000000000000341007757                         090000071909430001104914588000000000097862009177071909430001300000000000000000002220000000000                 
1040001300170U 0600000000000000000000000000303500000000000000000000000000303500000000001517700000000000910700000000000000000000000000000019042010230420101900        000000000000000CIP COMPENSACAO               930                           
1040001300171T 0600249600300000286080D00000000000000000001               07101997000000000008356356001368                         090000073641170001104900000000000835697862009177073641170001300000000000000000002220000000000                 
1040001300172U 0600000000000000000000000000167100000000000000000000000000167100000000000835600000000000501400000000000000000000000000000019042010230420101900        000000000000000CIP COMPENSACAO               930                           
1040001300173T 0600249600300000286080D00000000000000000001               30042010000000000000000356000043                         090000077187130001104904588000000000097862009177077187130001300000000000000000002220000000000                 
1040001300174U 0600000000000000000000000000237300000000000000000000000000237300000000001186600000000000712000000000000000000000000000000019042010230420101900        000000000000000CIP COMPENSACAO               930                           
1040001300175T 0600249600300000286080D00000000000000000001               30042010000000000002449237008400                         090000079200950001104964588000000244997862006177079200950001810000000000000000002220000000000                 
1040001300176U 0600000000000000000000000000049000000000000000000000000000049000000000000244900000000000146900000000000000000000000000000019042010230420101900        000000000000000CIP COMPENSACAO               681                           
1040001300177T 0600249600300000286080D00000000000000000001               30042010000000000013878341000698                         090000080219560001104934588000001387897862008177080219560001110000000000000000002220000000000                 
1040001300178U 0600000000000000000000000000277600000000000000000000000000277600000000001387800000000000832600000000000000000000000000000019042010230420101900        000000000000000CIP COMPENSACAO               811                           
1040001300179T 0600249600300000286080D00000000000000000001               07101997000000000004593356001368                         090000082355520001104900000000000459397862009177082355520001300000000000000000002220000000000                 
1040001300180U 0600000000000000000000000000091900000000000000000000000000091900000000000459300000000000275500000000000000000000000000000019042010230420101900        000000000000000CIP COMPENSACAO               930                           
1040001300181T 0600249600300000286080D00000000000000000001               30042010000000000000000341032409                         090000086314220001104954588000000000097862009177086314220001300000000000000000002220000000000                 
1040001300182U 0600000000000000000000000000197200000000000000000000000000197200000000000986000000000000591600000000000000000000000000000019042010230420101900        000000000000000CIP COMPENSACAO               930                           
1040001300183T 0600249600300000286080D00000000000000000001               30042010000000000003474237019860                         090000092697890001104954588000000347497862008177092697890001110000000000000000002220000000000                 
1040001300184U 0600000000000000000000000000069500000000000000000000000000069500000000000347400000000000208400000000000000000000000000000019042010230420101900        000000000000000CIP COMPENSACAO               811                           
1040001300185T 0600249600300000286080D00000000000000000001               30042010000000000000000341001910                         090000096642860001104964588000000000097862009177096642860001300000000000000000002220000000000                 
1040001300186U 0600000000000000000000000000311400000000000000000000000000311400000000001556800000000000934000000000000000000000000000000019042010230420101900        000000000000000CIP COMPENSACAO               930                           
1040001300187T 0600249600300000286080D00000000000000000001               07101997000000000017183356001368                         090000105705220001104900000000001718397862009177105705220001300000000000000000002220000000000                 
1040001300188U 0600000000000000000000000000343700000000000000000000000000343700000000001718300000000001030900000000000000000000000000000019042010230420101900        000000000000000CIP COMPENSACAO               930                           
1040001300189T 0600249600300000286080D00000000000000000001               30042010000000000002837341001678                         090000388907520001104974588000000283797862008177388907520001110000000000000000002220000000000                 
1040001300190U 0600000000000000000000000000056700000000000000000000000000056700000000000283700000000000170300000000000000000000000000000019042010230420101900        000000000000000CIP COMPENSACAO               811                           
1040001300191T 0600249600300000286080D00000000000000000001               30042010000000000013689341006440                         090000508744000111104994588000001368997862008177508744000111110000000000000000002220000000000                 
1040001300192U 0600000000000000000000000000273800000000000000000000000000273800000000001368900000000000821300000000000000000000000000000019042010230420101900        000000000000000CIP COMPENSACAO               811                           
1040001300193T 0600249600300000286080D00000000000000000001               30042010000000000000000341000272                         090000538232580001104954588000000000097862009177538232580001300000000000000000002220000000000                 
1040001300194U 0600000000000000000000000000139100000000000000000000000000139100000000000695600000000000417400000000000000000000000000000019042010230420101900        000000000000000CIP COMPENSACAO               930                           
1040001300195T 0600249600300000286080D00000000000000000001               07101997000000000015222356001368                         090000538251540001104900000000001522297862009177538251540001300000000000000000002220000000000                 
1040001300196U 0600000000000000000000000000304400000000000000000000000000304400000000001522200000000000913400000000000000000000000000000019042010230420101900        000000000000000CIP COMPENSACAO               930                           
1040001300197T 0600249600300000286080D00000000000000000001               07101997000000000018358356001368                         090000538252870001104900000000001835897862009177538252870001300000000000000000002220000000000                 
1040001300198U 0600000000000000000000000000367200000000000000000000000000367200000000001835800000000001101400000000000000000000000000000019042010230420101900        000000000000000CIP COMPENSACAO               930                           
1040001300199T 0600249600300000286080D00000000000000000001               30042010000000000000000151003905                         090000538291070001104994588000000000097862009177538291070001300000000000000000002220000000000                 
1040001300200U 0600000000000000000000000000140800000000000000000000000000140800000000000704100000000000422500000000000000000000000000000019042010230420101900        000000000000000CIP COMPENSACAO               930                           
1040001300201T 0600249600300000286080D00000000000000000001               30042010000000000000000341003930                         090000538303370001104914588000000000097862009177538303370001300000000000000000002220000000000                 
1040001300202U 0600000000000000000000000000291700000000000000000000000000291700000000001458300000000000874900000000000000000000000000000019042010230420101900        000000000000000CIP COMPENSACAO               930                           
1040001300203T 0600249600300000286080D00000000000000000001               07101997000000000025777356001368                         090000538336950001104900000000002577797862009177538336950001300000000000000000002220000000000                 
1040001300204U 0600000000000000000000000000515500000000000000000000000000515500000000002577700000000001546700000000000000000000000000000019042010230420101900        000000000000000CIP COMPENSACAO               930                           
1040001300205T 0600249600300000286080D00000000000000000001               30042010000000000000000341020001                         090000538348180001104914588000000000097862009177538348180001300000000000000000002220000000000                 
1040001300206U 0600000000000000000000000000050000000000000000000000000000050000000000000250000000000000150000000000000000000000000000000019042010230420101900        000000000000000CIP COMPENSACAO               930                           
1040001300207T 0600249600300000286080D00000000000000000001               07101997000000000002383356001368                         090000538362190001104900000000000238397862009177538362190001300000000000000000002220000000000                 
1040001300208U 0600000000000000000000000000047700000000000000000000000000047700000000000238300000000000142900000000000000000000000000000019042010230420101900        000000000000000CIP COMPENSACAO               930                           
1040001300209T 0600249600300000286080D00000000000000000001               07101997000000000007174356001368                         090000539834410001104900000000000717497862009177539834410001300000000000000000002220000000000                 
1040001300210U 0600000000000000000000000000143500000000000000000000000000143500000000000717400000000000430400000000000000000000000000000019042010230420101900        000000000000000CIP COMPENSACAO               930                           
1040001300211T 0600249600300000286080D00000000000000000001               07101997000000000018108356001368                         090000539852890001104900000000001810897862009177539852890001300000000000000000002220000000000                 
1040001300212U 0600000000000000000000000000362200000000000000000000000000362200000000001810800000000001086400000000000000000000000000000019042010230420101900        000000000000000CIP COMPENSACAO               930                           
1040001300213T 0600249600300000286080D00000000000000000001               07101997000000000013897356001368                         090000539950070001104900000000001389797862009177539950070001300000000000000000002220000000000                 
1040001300214U 0600000000000000000000000000277900000000000000000000000000277900000000001389700000000000833900000000000000000000000000000019042010230420101900        000000000000000CIP COMPENSACAO               930                           
1040001300215T 0600249600300000286080D00000000000000000001               07101997000000000014716356001368                         090000540011100001104900000000001471697862009177540011100001300000000000000000002220000000000                 
1040001300216U 0600000000000000000000000000294300000000000000000000000000294300000000001471600000000000883000000000000000000000000000000019042010230420101900        000000000000000CIP COMPENSACAO               930                           
1040001300217T 0600249600300000286080D00000000000000000001               30042010000000000000000341032409                         090000540242290001104914588000000000097862009177540242290001300000000000000000002220000000000                 
1040001300218U 0600000000000000000000000000708600000000000000000000000000708600000000003543100000000002125900000000000000000000000000000019042010230420101900        000000000000000CIP COMPENSACAO               930                           
1040001300219T 0600249600300000286080D00000000000000000001               07101997000000000014371356001368                         090000540621120001104900000000001437197862009177540621120001300000000000000000002220000000000                 
1040001300220U 0600000000000000000000000000287400000000000000000000000000287400000000001437100000000000862300000000000000000000000000000019042010230420101900        000000000000000CIP COMPENSACAO               930                           
1040001300221T 0600249600300000286080D00000000000000000001               30042010000000000034796341031283                         090000540628980001104954588000003479697862008177540628980001110000000000000000002220000000000                 
1040001300222U 0600000000000000000000000000695900000000000000000000000000695900000000003479600000000002087800000000000000000000000000000019042010230420101900        000000000000000CIP COMPENSACAO               811                           
1040001300223T 0600249600300000286080D00000000000000000001               30042010000000000002796356009270                         090000540638050001104904588000000279697862008177540638050001110000000000000000002220000000000                 
1040001300224U 0600000000000000000000000000055900000000000000000000000000055900000000000279600000000000167800000000000000000000000000000019042010230420101900        000000000000000CIP COMPENSACAO               811                           
1040001300225T 0600249600300000286080D00000000000000000001               07101997000000000000000341006467                         090000540640350001104900000000000000097862009177540640350001300000000000000000002220000000000                 
1040001300226U 0600000000000000000000000000676000000000000000000000000000676000000000003380000000000002028000000000000000000000000000000019042010230420101900        000000000000000CIP COMPENSACAO               930                           
1040001300227T 0600249600300000286080D00000000000000000001               30042010000000000000000237012211                         090000540669980001104984588000000000097862009177540669980001300000000000000000002220000000000                 
1040001300228U 0600000000000000000000000000350200000000000000000000000000350200000000001750800000000001050400000000000000000000000000000019042010230420101900        000000000000000CIP COMPENSACAO               930                           
1040001300229T 0600249600300000286080D00000000000000000001               30042010000000000000000341005533                         090000540678140001104914588000000000097862009177540678140001300000000000000000002220000000000                 
1040001300230U 0600000000000000000000000000589300000000000000000000000000589300000000002946600000000001768000000000000000000000000000000019042010230420101900        000000000000000CIP COMPENSACAO               930                           
1040001300231T 0600249600300000286080D00000000000000000001               07101997000000000032391356001368                         090000540691900001104900000000003239197862009177540691900001300000000000000000002220000000000                 
1040001300232U 0600000000000000000000000000647800000000000000000000000000647800000000003239100000000001943500000000000000000000000000000019042010230420101900        000000000000000CIP COMPENSACAO               930                           
1040001300233T 0600249600300000286080D00000000000000000001               07101997000000000016137356001368                         090000540694060001104900000000001613797862009177540694060001300000000000000000002220000000000                 
1040001300234U 0600000000000000000000000000322700000000000000000000000000322700000000001613700000000000968300000000000000000000000000000019042010230420101900        000000000000000CIP COMPENSACAO               930                           
1040001300235T 0600249600300000286080D00000000000000000001               07101997000000000021440356001368                         090000540713520001104900000000002144097862009177540713520001300000000000000000002220000000000                 
1040001300236U 0600000000000000000000000000428800000000000000000000000000428800000000002144000000000001286400000000000000000000000000000019042010230420101900        000000000000000CIP COMPENSACAO               930                           
1040001300237T 0600249600300000286080D00000000000000000001               30042010000000000000000341004294                         090000540716590001104994588000000000097862009177540716590001300000000000000000002220000000000                 
1040001300238U 0600000000000000000000000000193700000000000000000000000000193700000000000968300000000000580900000000000000000000000000000019042010230420101900        000000000000000CIP COMPENSACAO               930                           
1040001300239T 0600249600300000286080D00000000000000000001               07101997000000000010779356001368                         090000540719310001104900000000001077997862009177540719310001300000000000000000002220000000000                 
1040001300240U 0600000000000000000000000000215600000000000000000000000000215600000000001077900000000000646700000000000000000000000000000019042010230420101900        000000000000000CIP COMPENSACAO               930                           
1040001300241T 0600249600300000286080D00000000000000000001               07101997000000000020147356001368                         090000540719560001104900000000002014797862009177540719560001300000000000000000002220000000000                 
1040001300242U 0600000000000000000000000000402900000000000000000000000000402900000000002014700000000001208900000000000000000000000000000019042010230420101900        000000000000000CIP COMPENSACAO               930                           
1040001300243T 0600249600300000286080D00000000000000000001               30042010000000000000000237014168                         090000540720530001104914588000000000097862009177540720530001300000000000000000002220000000000                 
1040001300244U 0600000000000000000000000000163000000000000000000000000000163000000000000814900000000000488900000000000000000000000000000019042010230420101900        000000000000000CIP COMPENSACAO               930                           
1040001300245T 0600249600300000286080D00000000000000000001               07101997000000000017631356001368                         090000540724420001104900000000001763197862009177540724420001300000000000000000002220000000000                 
1040001300246U 0600000000000000000000000000352600000000000000000000000000352600000000001763100000000001057900000000000000000000000000000019042010230420101900        000000000000000CIP COMPENSACAO               930                           
1040001300247T 0600249600300000286080D00000000000000000001               07101997000000000027668356001368                         090000540731500001104900000000002766897862009177540731500001300000000000000000002220000000000                 
1040001300248U 0600000000000000000000000000553400000000000000000000000000553400000000002766800000000001660000000000000000000000000000000019042010230420101900        000000000000000CIP COMPENSACAO               930                           
1040001300249T 0600249600300000286080D00000000000000000001               07101997000000000019613356001368                         090000540731760001104900000000001961397862009177540731760001300000000000000000002220000000000                 
1040001300250U 0600000000000000000000000000392300000000000000000000000000392300000000001961300000000001176700000000000000000000000000000019042010230420101900        000000000000000CIP COMPENSACAO               930                           
1040001300251T 0600249600300000286080D00000000000000000001               07101997000000000034017356001368                         090000540733330001104900000000003401797862009177540733330001300000000000000000002220000000000                 
1040001300252U 0600000000000000000000000000680300000000000000000000000000680300000000003401700000000002041100000000000000000000000000000019042010230420101900        000000000000000CIP COMPENSACAO               930                           
1040001300253T 0600249600300000286080D00000000000000000001               07101997000000000018203356001368                         090000541991460001104900000000001820397862009177541991460001300000000000000000002220000000000                 
1040001300254U 0600000000000000000000000000364100000000000000000000000000364100000000001820300000000001092100000000000000000000000000000019042010230420101900        000000000000000CIP COMPENSACAO               930                           
1040001300255T 0600249600300000286080D00000000000000000001               07101997000000000009612356001368                         090000541994010001104900000000000961297862009177541994010001300000000000000000002220000000000                 
1040001300256U 0600000000000000000000000000192200000000000000000000000000192200000000000961200000000000576800000000000000000000000000000019042010230420101900        000000000000000CIP COMPENSACAO               930                           
1040001300257T 0600249600300000286080D00000000000000000001               30042010000000000006877237030570                         090000542022960001104914588000000687797862008177542022960001110000000000000000002220000000000                 
1040001300258U 0600000000000000000000000000137500000000000000000000000000137500000000000687700000000000412700000000000000000000000000000019042010230420101900        000000000000000CIP COMPENSACAO               811                           
1040001300259T 0600249600300000286080D00000000000000000001               30042010000000000000000356005592                         090000542024290001104904588000000000097862009177542024290001300000000000000000002220000000000                 
1040001300260U 0600000000000000000000000000411200000000000000000000000000411200000000002056000000000001233600000000000000000000000000000019042010230420101900        000000000000000CIP COMPENSACAO               930                           
1040001300261T 0600249600300000286080D00000000000000000001               07101997000000000021549356001368                         090000542026350001104900000000002154997862009177542026350001300000000000000000002220000000000                 
1040001300262U 0600000000000000000000000000431000000000000000000000000000431000000000002154900000000001292900000000000000000000000000000019042010230420101900        000000000000000CIP COMPENSACAO               930                           
1040001300263T 0600249600300000286080D00000000000000000001               07101997000000000014001356001368                         090000542028090001104900000000001400197862009177542028090001300000000000000000002220000000000                 
1040001300264U 0600000000000000000000000000280000000000000000000000000000280000000000001400100000000000840100000000000000000000000000000019042010230420101900        000000000000000CIP COMPENSACAO               930                           
1040001300265T 0600249600300000286080D00000000000000000001               30042010000000000000000237014800                         090000542029240001104984588000000000097862009177542029240001300000000000000000002220000000000                 
1040001300266U 0600000000000000000000000000150200000000000000000000000000150200000000000750900000000000450500000000000000000000000000000019042010230420101900        000000000000000CIP COMPENSACAO               930                           
1040001300267T 0600249600300000286080D00000000000000000001               07101997000000000018540356001368                         090000542032290001104900000000001854097862009177542032290001300000000000000000002220000000000                 
1040001300268U 0600000000000000000000000000370800000000000000000000000000370800000000001854000000000001112400000000000000000000000000000019042010230420101900        000000000000000CIP COMPENSACAO               930                           
1040001300269T 0600249600300000286080D00000000000000000001               30042010000000000000000341029467                         090000542052400001104954588000000000097862009177542052400001300000000000000000002220000000000                 
1040001300270U 0600000000000000000000000000489900000000000000000000000000489900000000002449700000000001469900000000000000000000000000000019042010230420101900        000000000000000CIP COMPENSACAO               930                           
1040001300271T 0600249600300000286080D00000000000000000001               07101997000000000014430356001368                         090000542057290001104900000000001443097862009177542057290001300000000000000000002220000000000                 
1040001300272U 0600000000000000000000000000288600000000000000000000000000288600000000001443000000000000865800000000000000000000000000000019042010230420101900        000000000000000CIP COMPENSACAO               930                           
1040001300273T 0600249600300000286080D00000000000000000001               07101997000000000015564356001368                         090000542078810001104900000000001556497862009177542078810001300000000000000000002220000000000                 
1040001300274U 0600000000000000000000000000311300000000000000000000000000311300000000001556400000000000933800000000000000000000000000000019042010230420101900        000000000000000CIP COMPENSACAO               930                           
1040001300275T 0600249600300000286080D00000000000000000001               30042010000000000000000237015504                         090000542190010001104914588000000000097862009177542190010001300000000000000000002220000000000                 
1040001300276U 0600000000000000000000000000321400000000000000000000000000321400000000001606800000000000964000000000000000000000000000000019042010230420101900        000000000000000CIP COMPENSACAO               930                           
1040001300277T 0600249600300000286080D00000000000000000001               30042010000000000028272033004006                         090000542198450001104934588000002827297862008177542198450001110000000000000000002220000000000                 
1040001300278U 0600000000000000000000000000565400000000000000000000000000565400000000002827200000000001696400000000000000000000000000000019042010230420101900        000000000000000CIP COMPENSACAO               811                           
1040001300279T 0600249600300000286080D00000000000000000001               30042010000000000035270341016616                         090000542201810001104994588000003527097862008177542201810001110000000000000000002220000000000                 
1040001300280U 0600000000000000000000000000705400000000000000000000000000705400000000003527000000000002116200000000000000000000000000000019042010230420101900        000000000000000CIP COMPENSACAO               811                           
1040001300281T 0600249600300000286080D00000000000000000001               07101997000000000005000356001368                         090000542213610001104900000000000500097862009177542213610001300000000000000000002220000000000                 
1040001300282U 0600000000000000000000000000100000000000000000000000000000100000000000000500000000000000300000000000000000000000000000000019042010230420101900        000000000000000CIP COMPENSACAO               930                           
1040001300283T 0600249600300000286080D00000000000000000001               30042010000000000000000341000671                         090000542234900001104994588000000000097862009177542234900001300000000000000000002220000000000                 
1040001300284U 0600000000000000000000000000240600000000000000000000000000240600000000001203000000000000721800000000000000000000000000000019042010230420101900        000000000000000CIP COMPENSACAO               930                           
1040001300285T 0600249600300000286080D00000000000000000001               30042010000000000000000341000485                         090000542391570001104964588000000000097862009177542391570001300000000000000000002220000000000                 
1040001300286U 0600000000000000000000000000189700000000000000000000000000189700000000000948400000000000569000000000000000000000000000000019042010230420101900        000000000000000CIP COMPENSACAO               930                           
1040001300287T 0600249600300000286080D00000000000000000001               07101997000000000000000341029351                         090000542397930001104900000000000000097862009177542397930001300000000000000000002220000000000                 
1040001300288U 0600000000000000000000000000323600000000000000000000000000323600000000001617900000000000970700000000000000000000000000000019042010230420101900        000000000000000CIP COMPENSACAO               930                           
1040001300289T 0600249600300000286080D00000000000000000001               30042010000000000023419341002518                         090000542403380001104934588000002341997862008177542403380001110000000000000000002220000000000                 
1040001300290U 0600000000000000000000000000468400000000000000000000000000468400000000002341900000000001405100000000000000000000000000000019042010230420101900        000000000000000CIP COMPENSACAO               811                           
1040001300291T 0600249600300000286080D00000000000000000001               30042010000000000000000151005290                         090000542412290001104924588000000000097862009177542412290001300000000000000000002220000000000                 
1040001300292U 0600000000000000000000000000742800000000000000000000000000742800000000003714000000000002228400000000000000000000000000000019042010230420101900        000000000000000CIP COMPENSACAO               930                           
1040001300293T 0600249600300000286080D00000000000000000001               30042010000000000000000341016349                         090000542806560001104914588000000000097862009177542806560001300000000000000000002220000000000                 
1040001300294U 0600000000000000000000000000044900000000000000000000000000044900000000000224600000000000134800000000000000000000000000000019042010230420101900        000000000000000CIP COMPENSACAO               930                           
1040001300295T 0600249600300000286080D00000000000000000001               07101997000000000013377356001368                         090000542819770001104900000000001337797862009177542819770001300000000000000000002220000000000                 
1040001300296U 0600000000000000000000000000267500000000000000000000000000267500000000001337700000000000802700000000000000000000000000000019042010230420101900        000000000000000CIP COMPENSACAO               930                           
1040001300297T 0600249600300000286080D00000000000000000001               07101997000000000015419356001368                         090000542837420001104900000000001541997862009177542837420001300000000000000000002220000000000                 
1040001300298U 0600000000000000000000000000308400000000000000000000000000308400000000001541900000000000925100000000000000000000000000000019042010230420101900        000000000000000CIP COMPENSACAO               930                           
1040001300299T 0600249600300000286080D00000000000000000001               07101997000000000023886356001368                         090000543223180001104900000000002388697862009177543223180001300000000000000000002220000000000                 
1040001300300U 0600000000000000000000000000477700000000000000000000000000477700000000002388600000000001433200000000000000000000000000000019042010230420101900        000000000000000CIP COMPENSACAO               930                           
1040001300301T 0600249600300000286080D00000000000000000001               07101997000000000024129356001368                         090000543656480001104900000000002412997862009177543656480001300000000000000000002220000000000                 
1040001300302U 0600000000000000000000000000482600000000000000000000000000482600000000002412900000000001447700000000000000000000000000000019042010230420101900        000000000000000CIP COMPENSACAO               930                           
1040001300303T 0600249600300000286080D00000000000000000001               07101997000000000025965356001368                         090000543695410001104900000000002596597862009177543695410001300000000000000000002220000000000                 
1040001300304U 0600000000000000000000000000519300000000000000000000000000519300000000002596500000000001557900000000000000000000000000000019042010230420101900        000000000000000CIP COMPENSACAO               930                           
1040001300305T 0600249600300000286080D00000000000000000001               30042010000000000000000341003786                         090000544562980001104964588000000000097862009177544562980001300000000000000000002220000000000                 
1040001300306U 0600000000000000000000000000309200000000000000000000000000309200000000001545900000000000927500000000000000000000000000000019042010230420101900        000000000000000CIP COMPENSACAO               930                           
1040001300307T 0600249600300000286080D00000000000000000001               07101997000000000020398356001368                         090000544627000001104900000000002039897862009177544627000001300000000000000000002220000000000                 
1040001300308U 0600000000000000000000000000408000000000000000000000000000408000000000002039800000000001223800000000000000000000000000000019042010230420101900        000000000000000CIP COMPENSACAO               930                           
1040001300309T 0600249600300000286080D00000000000000000001               07101997000000000017646356001368                         090000544865350001104900000000001764697862009177544865350001300000000000000000002220000000000                 
1040001300310U 0600000000000000000000000000352900000000000000000000000000352900000000001764600000000001058800000000000000000000000000000019042010230420101900        000000000000000CIP COMPENSACAO               930                           
1040001300311T 0600249600300000286080D00000000000000000001               30042010000000000000000341003476                         090000544875170001104914588000000000097862009177544875170001300000000000000000002220000000000                 
1040001300312U 0600000000000000000000000000185500000000000000000000000000185500000000000927300000000000556300000000000000000000000000000019042010230420101900        000000000000000CIP COMPENSACAO               930                           
1040001300313T 0600249600300000286080D00000000000000000001               30042010000000000000000237011916                         090000544902630001104994588000000000097862009177544902630001300000000000000000002220000000000                 
1040001300314U 0600000000000000000000000000339100000000000000000000000000339100000000001695700000000001017500000000000000000000000000000019042010230420101900        000000000000000CIP COMPENSACAO               930                           
1040001300315T 0600249600300000286080D00000000000000000001               07101997000000000013261356001368                         090000545270150001104900000000001326197862009177545270150001300000000000000000002220000000000                 
1040001300316U 0600000000000000000000000000265200000000000000000000000000265200000000001326100000000000795700000000000000000000000000000019042010230420101900        000000000000000CIP COMPENSACAO               930                           
1040001300317T 0600249600300000286080D00000000000000000001               30042010000000000000000341004294                         090000545278250001104984588000000000097862009177545278250001300000000000000000002220000000000                 
1040001300318U 0600000000000000000000000000372300000000000000000000000000372300000000001861600000000001117000000000000000000000000000000019042010230420101900        000000000000000CIP COMPENSACAO               930                           
1040001300319T 0600249600300000286080D00000000000000000001               30042010000000000015573341001600                         090000545289480001104914588000001557397862008177545289480001110000000000000000002220000000000                 
1040001300320U 0600000000000000000000000000311500000000000000000000000000311500000000001557300000000000934300000000000000000000000000000019042010230420101900        000000000000000CIP COMPENSACAO               811                           
1040001300321T 0600249600300000286080D00000000000000000001               07101997000000000014151356001368                         090000545336900001104900000000001415197862009177545336900001300000000000000000002220000000000                 
1040001300322U 0600000000000000000000000000283000000000000000000000000000283000000000001415100000000000849100000000000000000000000000000019042010230420101900        000000000000000CIP COMPENSACAO               930                           
1040001300323T 0600249600300000286080D00000000000000000001               07101997000000000009413356001368                         090000545344660001104900000000000941397862009177545344660001300000000000000000002220000000000                 
1040001300324U 0600000000000000000000000000188300000000000000000000000000188300000000000941300000000000564700000000000000000000000000000019042010230420101900        000000000000000CIP COMPENSACAO               930                           
1040001300325T 0600249600300000286080D00000000000000000001               07101997000000000013519356001368                         090000545367840001104900000000001351997862009177545367840001300000000000000000002220000000000                 
1040001300326U 0600000000000000000000000000270400000000000000000000000000270400000000001351900000000000811100000000000000000000000000000019042010230420101900        000000000000000CIP COMPENSACAO               930                           
1040001300327T 0600249600300000286080D00000000000000000001               07101997000000000010846356001368                         090000545391350001104900000000001084697862009177545391350001300000000000000000002220000000000                 
1040001300328U 0600000000000000000000000000216900000000000000000000000000216900000000001084600000000000650800000000000000000000000000000019042010230420101900        000000000000000CIP COMPENSACAO               930                           
1040001300329T 0600249600300000286080D00000000000000000001               07101997000000000010296356001368                         090000545721280001104900000000001029697862009177545721280001300000000000000000002220000000000                 
1040001300330U 0600000000000000000000000000205900000000000000000000000000205900000000001029600000000000617800000000000000000000000000000019042010230420101900        000000000000000CIP COMPENSACAO               930                           
1040001300331T 0600249600300000286080D00000000000000000001               30042010000000000000000341001864                         090000545816160001104974588000000000097862009177545816160001300000000000000000002220000000000                 
1040001300332U 0600000000000000000000000000473600000000000000000000000000473600000000002368200000000001421000000000000000000000000000000019042010230420101900        000000000000000CIP COMPENSACAO               930                           
1040001300333T 0600249600300000286080D00000000000000000001               30042010000000000000000356003735                         090000546068430001104904588000000000097862009177546068430001300000000000000000002220000000000                 
1040001300334U 0600000000000000000000000000328500000000000000000000000000328500000000001642500000000000985500000000000000000000000000000019042010230420101900        000000000000000CIP COMPENSACAO               930                           
1040001300335T 0600249600300000286080D00000000000000000001               30042010000000000000000341003840                         090000546096150001104974588000000000097862009177546096150001300000000000000000002220000000000                 
1040001300336U 0600000000000000000000000000414300000000000000000000000000414300000000002071300000000001242700000000000000000000000000000019042010230420101900        000000000000000CIP COMPENSACAO               930                           
1040001300337T 0600249600300000286080D00000000000000000001               30042010000000000000000237013110                         090000546379620001104974588000000000097862009177546379620001300000000000000000002220000000000                 
1040001300338U 0600000000000000000000000000095500000000000000000000000000095500000000000477700000000000286700000000000000000000000000000019042010230420101900        000000000000000CIP COMPENSACAO               930                           
1040001300339T 0600249600300000286080D00000000000000000001               30042010000000000000000399008753                         090000546384400001104944588000000000097862009177546384400001300000000000000000002220000000000                 
1040001300340U 0600000000000000000000000001671100000000000000000000000001671100000000008355700000000005013500000000000000000000000000000019042010230420101900        000000000000000CIP COMPENSACAO               930                           
1040001300341T 0600249600300000286080D00000000000000000001               30042010000000000000000237027162                         090000546629600001104944588000000000097862009177546629600001300000000000000000002220000000000                 
1040001300342U 0600000000000000000000000000447900000000000000000000000000447900000000002239500000000001343700000000000000000000000000000019042010230420101900        000000000000000CIP COMPENSACAO               930                           
1040001300343T 0600249600300000286080D00000000000000000001               30042010000000000008170237004987                         090000547481990001104984588000000817097862008177547481990001110000000000000000002220000000000                 
1040001300344U 0600000000000000000000000000163400000000000000000000000000163400000000000817000000000000490200000000000000000000000000000019042010230420101900        000000000000000CIP COMPENSACAO               811                           
1040001300345T 0600249600300000286080D00000000000000000001               07101997000000000014436356001368                         090000547485530001104900000000001443697862009177547485530001300000000000000000002220000000000                 
1040001300346U 0600000000000000000000000000288700000000000000000000000000288700000000001443600000000000866200000000000000000000000000000019042010230420101900        000000000000000CIP COMPENSACAO               930                           
1040001300347T 0600249600300000286080D00000000000000000001               07101997000000000021552356001368                         090000547538760001104900000000002155297862009177547538760001300000000000000000002220000000000                 
1040001300348U 0600000000000000000000000000431000000000000000000000000000431000000000002155200000000001293200000000000000000000000000000019042010230420101900        000000000000000CIP COMPENSACAO               930                           
1040001300349T 0600249600300000286080D00000000000000000001               07101997000000000019919356001368                         090000549617190001104900000000001991997862009177549617190001300000000000000000002220000000000                 
1040001300350U 0600000000000000000000000000398400000000000000000000000000398400000000001991900000000001195100000000000000000000000000000019042010230420101900        000000000000000CIP COMPENSACAO               930                           
1040001300351T 0600249600300000286080D00000000000000000001               07101997000000000016806356001368                         090000550646040001104900000000001680697862009177550646040001300000000000000000002220000000000                 
1040001300352U 0600000000000000000000000000336100000000000000000000000000336100000000001680600000000001008400000000000000000000000000000019042010230420101900        000000000000000CIP COMPENSACAO               930                           
1040001300353T 0600249600300000286080D00000000000000000001               07101997000000000022508356001368                         090000550675570001104900000000002250897862009177550675570001300000000000000000002220000000000                 
1040001300354U 0600000000000000000000000000450200000000000000000000000000450200000000002250800000000001350400000000000000000000000000000019042010230420101900        000000000000000CIP COMPENSACAO               930                           
1040001300355T 0600249600300000286080D00000000000000000001               30042010000000000000000341001775                         090000550709160001104954588000000000097862009177550709160001300000000000000000002220000000000                 
1040001300356U 0600000000000000000000000000421000000000000000000000000000421000000000002104800000000001262800000000000000000000000000000019042010230420101900        000000000000000CIP COMPENSACAO               930                           
1040001300357T 0600249600300000286080D00000000000000000001               07101997000000000002450356001368                         090000552255850001104900000000000245097862009177552255850001300000000000000000002220000000000                 
1040001300358U 0600000000000000000000000000049000000000000000000000000000049000000000000245000000000000147000000000000000000000000000000019042010230420101900        000000000000000CIP COMPENSACAO               930                           
1040001300359T 0600249600300000286080D00000000000000000001               30042010000000000000000356007595                         090000552938640001104904588000000000097862009177552938640001300000000000000000002220000000000                 
1040001300360U 0600000000000000000000000000245900000000000000000000000000245900000000001229700000000000737900000000000000000000000000000019042010230420101900        000000000000000CIP COMPENSACAO               930                           
1040001300361T 0600249600300000286080D00000000000000000001               07101997000000000015202356001368                         090000553627190001104900000000001520297862009177553627190001300000000000000000002220000000000                 
1040001300362U 0600000000000000000000000000304000000000000000000000000000304000000000001520200000000000912200000000000000000000000000000019042010230420101900        000000000000000CIP COMPENSACAO               930                           
1040001300363T 0600249600300000286080D00000000000000000001               30042010000000000000000237022721                         090000553822200001104914588000000000097862009177553822200001300000000000000000002220000000000                 
1040001300364U 0600000000000000000000000000055800000000000000000000000000055800000000000279100000000000167500000000000000000000000000000019042010230420101900        000000000000000CIP COMPENSACAO               930                           
1040001300365T 0600249600300000286080D00000000000000000001               07101997000000000015365356001368                         090000554004850001104900000000001536597862009177554004850001300000000000000000002220000000000                 
1040001300366U 0600000000000000000000000000307300000000000000000000000000307300000000001536500000000000921900000000000000000000000000000019042010230420101900        000000000000000CIP COMPENSACAO               930                           
1040001300367T 0600249600300000286080D00000000000000000001               07101997000000000012841356001368                         090000554010460001104900000000001284197862009177554010460001300000000000000000002220000000000                 
1040001300368U 0600000000000000000000000000256800000000000000000000000000256800000000001284100000000000770500000000000000000000000000000019042010230420101900        000000000000000CIP COMPENSACAO               930                           
1040001300369T 0600249600300000286080D00000000000000000001               07101997000000000013163356001368                         090000554010790001104900000000001316397862009177554010790001300000000000000000002220000000000                 
1040001300370U 0600000000000000000000000000263300000000000000000000000000263300000000001316300000000000789700000000000000000000000000000019042010230420101900        000000000000000CIP COMPENSACAO               930                           
1040001300371T 0600249600300000286080D00000000000000000001               30042010000000000000000341007404                         090000554012100001104964588000000000097862009177554012100001300000000000000000002220000000000                 
1040001300372U 0600000000000000000000000000250800000000000000000000000000250800000000001254200000000000752600000000000000000000000000000019042010230420101900        000000000000000CIP COMPENSACAO               930                           
1040001300373T 0600249600300000286080D00000000000000000001               07101997000000000021753356001368                         090000554015330001104900000000002175397862009177554015330001300000000000000000002220000000000                 
1040001300374U 0600000000000000000000000000435100000000000000000000000000435100000000002175300000000001305100000000000000000000000000000019042010230420101900        000000000000000CIP COMPENSACAO               930                           
1040001300375T 0600249600300000286080D00000000000000000001               07101997000000000014275356001368                         090000554015580001104900000000001427597862009177554015580001300000000000000000002220000000000                 
1040001300376U 0600000000000000000000000000285500000000000000000000000000285500000000001427500000000000856500000000000000000000000000000019042010230420101900        000000000000000CIP COMPENSACAO               930                           
1040001300377T 0600249600300000286080D00000000000000000001               07101997000000000009356356001368                         090000554417860001104900000000000935697862009177554417860001300000000000000000002220000000000                 
1040001300378U 0600000000000000000000000000187100000000000000000000000000187100000000000935600000000000561400000000000000000000000000000019042010230420101900        000000000000000CIP COMPENSACAO               930                           
1040001300379T 0600249600300000286080D00000000000000000001               30042010000000000000000341004294                         090000555762920001104924588000000000097862009177555762920001300000000000000000002220000000000                 
1040001300380U 0600000000000000000000000000439600000000000000000000000000439600000000002197900000000001318700000000000000000000000000000019042010230420101900        000000000000000CIP COMPENSACAO               930                           
1040001300381T 0600249600300000286080D00000000000000000001               07101997000000000010462356001368                         090000556174190001104900000000001046297862009177556174190001300000000000000000002220000000000                 
1040001300382U 0600000000000000000000000000209200000000000000000000000000209200000000001046200000000000627800000000000000000000000000000019042010230420101900        000000000000000CIP COMPENSACAO               930                           
1040001300383T 0600249600300000286080D00000000000000000001               30042010000000000000000341007544                         090000556503030001104964588000000000097862009177556503030001300000000000000000002220000000000                 
1040001300384U 0600000000000000000000000000022500000000000000000000000000022500000000000112300000000000067300000000000000000000000000000019042010230420101900        000000000000000CIP COMPENSACAO               930                           
1040001300385T 0600249600300000286080D00000000000000000001               30042010000000000000000341001503                         090000557061390001104994588000000000097862009177557061390001300000000000000000002220000000000                 
1040001300386U 0600000000000000000000000000049000000000000000000000000000049000000000000244900000000000146900000000000000000000000000000019042010230420101900        000000000000000CIP COMPENSACAO               930                           
1040001300387T 0600249600300000286080D00000000000000000001               30042010000000000000000341002518                         090000560982700001104984588000000000097862009177560982700001300000000000000000002220000000000                 
1040001300388U 0600000000000000000000000000144800000000000000000000000000144800000000000724000000000000434400000000000000000000000000000019042010230420101900        000000000000000CIP COMPENSACAO               930                           
1040001300389T 0600249600300000286080D00000000000000000001               30042010000000000000000237038440                         090000562680970001104964588000000000097862009177562680970001300000000000000000002220000000000                 
1040001300390U 0600000000000000000000000000492800000000000000000000000000492800000000002464200000000001478600000000000000000000000000000019042010230420101900        000000000000000CIP COMPENSACAO               930                           
1040001300391T 0600249600300000286080D00000000000000000001               07101997000000000014017356001368                         090000565662760001104900000000001401797862009177565662760001300000000000000000002220000000000                 
1040001300392U 0600000000000000000000000000280300000000000000000000000000280300000000001401700000000000841100000000000000000000000000000019042010230420101900        000000000000000CIP COMPENSACAO               930                           
1040001300393T 0600249600300000286080D00000000000000000001               07101997000000000013354356001368                         090000565764650001104900000000001335497862009177565764650001300000000000000000002220000000000                 
1040001300394U 0600000000000000000000000000267100000000000000000000000000267100000000001335400000000000801200000000000000000000000000000019042010230420101900        000000000000000CIP COMPENSACAO               930                           
1040001300395T 0600249600300000286080D00000000000000000001               07101997000000000003323356001368                         090000568215720001104900000000000332397862009177568215720001300000000000000000002220000000000                 
1040001300396U 0600000000000000000000000000066500000000000000000000000000066500000000000332300000000000199300000000000000000000000000000019042010230420101900        000000000000000CIP COMPENSACAO               930                           
1040001300397T 0600249600300000286080D00000000000000000001               30042010000000000000000341067555                         090000571839800001104944588000000000097862009177571839800001300000000000000000002220000000000                 
1040001300398U 0600000000000000000000000000097300000000000000000000000000097300000000000486500000000000291900000000000000000000000000000019042010230420101900        000000000000000CIP COMPENSACAO               930                           
1040001300399T 0600249600300000286080D00000000000000000001               30042010000000000027041409000957                         090000571851340001104974588000002704197862009177571851340001300000000000000000002220000000000                 
1040001300400U 0600000000000000000000000000540800000000000000000000000000540800000000002704100000000001622500000000000000000000000000000019042010230420101900        000000000000000CIP COMPENSACAO               930                           
1040001300401T 0600249600300000286080D00000000000000000001               30042010000000000000000341004294                         090000572819250001104984588000000000097862009177572819250001300000000000000000002220000000000                 
1040001300402U 0600000000000000000000000000349600000000000000000000000000349600000000001747900000000001048700000000000000000000000000000019042010230420101900        000000000000000CIP COMPENSACAO               930                           
1040001300403T 0600249600300000286080D00000000000000000001               07101997000000000015786356001368                         090000572831780001104900000000001578697862009177572831780001300000000000000000002220000000000                 
1040001300404U 0600000000000000000000000000315700000000000000000000000000315700000000001578600000000000947200000000000000000000000000000019042010230420101900        000000000000000CIP COMPENSACAO               930                           
1040001300405T 0600249600300000286080D00000000000000000001               07101997000000000003756356001368                         090000573529240001104900000000000375697862009177573529240001300000000000000000002220000000000                 
1040001300406U 0600000000000000000000000000075100000000000000000000000000075100000000000375600000000000225400000000000000000000000000000019042010230420101900        000000000000000CIP COMPENSACAO               930                           
1040001300407T 0600249600300000286080D00000000000000000001               07101997000000000023730356001368                         090000577433380001104900000000002373097862009177577433380001300000000000000000002220000000000                 
1040001300408U 0600000000000000000000000000474600000000000000000000000000474600000000002373000000000001423800000000000000000000000000000019042010230420101900        000000000000000CIP COMPENSACAO               930                           
1040001300409T 0600249600300000286080D00000000000000000001               30042010000000000000000341007480                         090000577449710001104914588000000000097862009177577449710001300000000000000000002220000000000                 
1040001300410U 0600000000000000000000000000467000000000000000000000000000467000000000002334800000000001400800000000000000000000000000000019042010230420101900        000000000000000CIP COMPENSACAO               930                           
1040001300411T 0600249600300000286080D00000000000000000001               30042010000000000000000341015725                         090000577518020001104964588000000000097862009177577518020001300000000000000000002220000000000                 
1040001300412U 0600000000000000000000000000495800000000000000000000000000495800000000002478900000000001487300000000000000000000000000000019042010230420101900        000000000000000CIP COMPENSACAO               930                           
