10400000         243070481000114186200              00249600300000286080SINEMPEDIFPORTCAB MUN SP      CAIXA ECONOMICA FEDERAL                 23004201010111000125906000000                                                                     
10400011T01  030 2043070481000114186200              00249600300000286080SINEMPEDIFPORTCAB MUN SP      200501                                  000000                                  000000003004201000000000                                 
1040001300001T 0600249600300000286080D00000000000000000001               30042010000000000000000341007099                         090000000000000000104914588000000000097862009177000000000000300000000000000000002220000000000                 
1040001300002U 0600000000000000000000000000564900000000000000000000000000564900000000002824600000000001694800000000000000000000000000000028042010030520101900        000000000000000CIP COMPENSACAO               930                           
1040001300003T 0600249600300000286080D00000000000000000001               30042010000000000000000341001708                         090000000000000000104914588000000000097862009177000000000000300000000000000000002220000000000                 
1040001300004U 0600000000000000000000000000064600000000000000000000000000064600000000000323000000000000193800000000000000000000000000000028042010030520101900        000000000000000CIP COMPENSACAO               930                           
1040001300005T 0600249600300000286080D00000000000000000001               30042010000000000000000341001708                         090000000000000000104914588000000000097862009177000000000000300000000000000000002220000000000                 
1040001300006U 0600000000000000000000000000050700000000000000000000000000050700000000000253500000000000152100000000000000000000000000000028042010030520101900        000000000000000CIP COMPENSACAO               930                           
1040001300007T 0600249600300000286080D00000000000000000001               30042010000000000000000341001708                         090000000000000000104914588000000000097862009177000000000000300000000000000000002220000000000                 
1040001300008U 0600000000000000000000000000047100000000000000000000000000047100000000000235700000000000141500000000000000000000000000000028042010030520101900        000000000000000CIP COMPENSACAO               930                           
1040001300009T 0600249600300000286080D00000000000000000001               28042010000000000008347237038326                         090000000000000000104964586000000834797862008177000000000000110000000000000000002220000000000                 
1040001300010U 0600000000000000000000000000166900000000000000000000000000166900000000000834700000000000500900000000000000000000000000000028042010030520101900        000000000000000CIP COMPENSACAO               811                           
1040001300011T 0600249600300000286080D00000000000000000001               28042010000000000002939237038326                         090000000000000000104914586000000293997862008177000000000000110000000000000000002220000000000                 
1040001300012U 0600000000000000000000000000058800000000000000000000000000058800000000000293900000000000176300000000000000000000000000000028042010030520101900        000000000000000CIP COMPENSACAO               811                           
1040001300013T 0600249600300000286080D00000000000000000001               28042010000000000024010237038326                         090000000001670001104934586000002401097862008177000001670001110000000000000000002220000000000                 
1040001300014U 0600000000000000000000000000480200000000000000000000000000480200000000002401000000000001440600000000000000000000000000000028042010030520101900        000000000000000CIP COMPENSACAO               811                           
1040001300015T 0600249600300000286080D00000000000000000001               30042010000000000000000237031143                         090000000005684228104914588000000000097862009177000005684228300000000000000000002220000000000                 
1040001300016U 0600000000000000000000000000290000000000000000000000000000290000000000001450100000000000870100000000000000000000000000000028042010030520101900        000000000000000CIP COMPENSACAO               930                           
1040001300017T 0600249600300000286080D00000000000000000001               30042010000000000000000237031143                         090000000005684228104914588000000000097862009177000005684228300000000000000000002220000000000                 
1040001300018U 0600000000000000000000000000225700000000000000000000000000225700000000001128300000000000676900000000000000000000000000000028042010030520101900        000000000000000CIP COMPENSACAO               930                           
1040001300019T 0600249600300000286080D00000000000000000001               30042010000000000000000237001287                         090000000351420001104944588000000000097862009177000351420001300000000000000000002220000000000                 
1040001300020U 0600000000000000000000000000044900000000000000000000000000044900000000000224500000000000134700000000000000000000000000000028042010030520101900        000000000000000CIP COMPENSACAO               930                           
1040001300021T 0600249600300000286080D00000000000000000001               30042010000000000000000341000485                         090000000352270001104924588000000000097862009177000352270001300000000000000000002220000000000                 
1040001300022U 0600000000000000000000000000477800000000000000000000000000477800000000002389100000000001433500000000000000000000000000000028042010030520101900        000000000000000CIP COMPENSACAO               930                           
1040001300023T 0600249600300000286080D00000000000000000001               30042010000000000003074341003492                         090000000357090810104944588000000307497862008177000357090810110000000000000000002220000000000                 
1040001300024U 0600000000000000000000000000061500000000000000000000000000061500000000000307400000000000184400000000000000000000000000000028042010030520101900        000000000000000CIP COMPENSACAO               811                           
1040001300025T 0600249600300000286080D00000000000000000001               30042010000000000000000237031038                         090000000468811408104964588000000000097862009177000468811408300000000000000000002220000000000                 
1040001300026U 0600000000000000000000000000082300000000000000000000000000082300000000000411500000000000246900000000000000000000000000000028042010030520101900        000000000000000CIP COMPENSACAO               930                           
1040001300027T 0600249600300000286080D00000000000000000001               30042010000000000000000341001910                         090000000571640001104914588000000000097862009177000571640001300000000000000000002220000000000                 
1040001300028U 0600000000000000000000000000385100000000000000000000000000385100000000001925500000000001155300000000000000000000000000000028042010030520101900        000000000000000CIP COMPENSACAO               930                           
1040001300029T 0600249600300000286080D00000000000000000001               30042010000000000000000341001880                         090000000683090001104934588000000000097862009177000683090001300000000000000000002220000000000                 
1040001300030U 0600000000000000000000000000117700000000000000000000000000117700000000000588300000000000352900000000000000000000000000000028042010030520101900        000000000000000CIP COMPENSACAO               930                           
1040001300031T 0600249600300000286080D00000000000000000001               28042010000000000017739237038326                         090000000745520001104914586000001773997862008177000745520001110000000000000000002220000000000                 
1040001300032U 0600000000000000000000000000354800000000000000000000000000354800000000001773900000000001064300000000000000000000000000000028042010030520101900        000000000000000CIP COMPENSACAO               811                           
1040001300033T 0600249600300000286080D00000000000000000001               30042010000000000000000341000744                         090000000748910001104964588000000000097862009177000748910001300000000000000000002220000000000                 
1040001300034U 0600000000000000000000000000312000000000000000000000000000312000000000001560000000000000936000000000000000000000000000000028042010030520101900        000000000000000CIP COMPENSACAO               930                           
1040001300035T 0600249600300000286080D00000000000000000001               28042010000000000005528237038326                         090000000764440001104934586000000552897862008177000764440001110000000000000000002220000000000                 
1040001300036U 0600000000000000000000000000110600000000000000000000000000110600000000000552800000000000331600000000000000000000000000000028042010030520101900        000000000000000CIP COMPENSACAO               811                           
1040001300037T 0600249600300000286080D00000000000000000001               30042010000000000000000409003549                         090000000789960001104974588000000000097862009177000789960001300000000000000000002220000000000                 
1040001300038U 0600000000000000000000000000044900000000000000000000000000044900000000000224500000000000134700000000000000000000000000000028042010030520101900        000000000000000CIP COMPENSACAO               930                           
1040001300039T 0600249600300000286080D00000000000000000001               28042010000000000068678237038326                         090000000928770001104964586000006867897862008177000928770001110000000000000000002220000000000                 
1040001300040U 0600000000000000000000000001373600000000000000000000000001373600000000006867800000000004120600000000000000000000000000000028042010030520101900        000000000000000CIP COMPENSACAO               811                           
1040001300041T 0600249600300000286080D00000000000000000001               28042010000000000009516237038326                         090000000968850001104964586000000951697862008177000968850001110000000000000000002220000000000                 
1040001300042U 0600000000000000000000000000190300000000000000000000000000190300000000000951600000000000571000000000000000000000000000000028042010030520101900        000000000000000CIP COMPENSACAO               811                           
1040001300043T 0600249600300000286080D00000000000000000001               28042010000000000006849237038326                         090000000980430001104964586000000684997862008177000980430001110000000000000000002220000000000                 
1040001300044U 0600000000000000000000000000137000000000000000000000000000137000000000000684900000000000410900000000000000000000000000000028042010030520101900        000000000000000CIP COMPENSACAO               811                           
1040001300045T 0600249600300000286080D00000000000000000001               28042010000000000004953237038326                         090000001032100001104914586000000495397862008177001032100001110000000000000000002220000000000                 
1040001300046U 0600000000000000000000000000099100000000000000000000000000099100000000000495300000000000297100000000000000000000000000000028042010030520101900        000000000000000CIP COMPENSACAO               811                           
1040001300047T 0600249600300000286080D00000000000000000001               28042010000000000004632237038326                         090000001046860001104924586000000463297862008177001046860001110000000000000000002220000000000                 
1040001300048U 0600000000000000000000000000092600000000000000000000000000092600000000000463200000000000278000000000000000000000000000000028042010030520101900        000000000000000CIP COMPENSACAO               811                           
1040001300049T 0600249600300000286080D00000000000000000001               28042010000000000033112237038326                         090000001115500001104934586000003311297862008177001115500001110000000000000000002220000000000                 
1040001300050U 0600000000000000000000000000662200000000000000000000000000662200000000003311200000000001986800000000000000000000000000000028042010030520101900        000000000000000CIP COMPENSACAO               811                           
1040001300051T 0600249600300000286080D00000000000000000001               30042010000000000000000341000477                         090000001145420001104924588000000000097862009177001145420001300000000000000000002220000000000                 
1040001300052U 0600000000000000000000000000056500000000000000000000000000056500000000000282300000000000169300000000000000000000000000000028042010030520101900        000000000000000CIP COMPENSACAO               930                           
1040001300053T 0600249600300000286080D00000000000000000001               30042010000000000000000422000973                         090000001165830001104974588000000000097862009177001165830001300000000000000000002220000000000                 
1040001300054U 0600000000000000000000000000387900000000000000000000000000387900000000001939500000000001163700000000000000000000000000000028042010030520101900        000000000000000CIP COMPENSACAO               930                           
1040001300055T 0600249600300000286080D00000000000000000001               28042010000000000006416237038326                         090000001190670001104914586000000641697862008177001190670001110000000000000000002220000000000                 
1040001300056U 0600000000000000000000000000128300000000000000000000000000128300000000000641600000000000385000000000000000000000000000000028042010030520101900        000000000000000CIP COMPENSACAO               811                           
1040001300057T 0600249600300000286080D00000000000000000001               28042010000000000025923237038326                         090000001234520001104944586000002592397862008177001234520001110000000000000000002220000000000                 
1040001300058U 0600000000000000000000000000518500000000000000000000000000518500000000002592300000000001555300000000000000000000000000000028042010030520101900        000000000000000CIP COMPENSACAO               811                           
1040001300059T 0600249600300000286080D00000000000000000001               30042010000000000000000341000477                         090000001268170001104964588000000000097862009177001268170001300000000000000000002220000000000                 
1040001300060U 0600000000000000000000000000366300000000000000000000000000366300000000001831600000000001099000000000000000000000000000000028042010030520101900        000000000000000CIP COMPENSACAO               930                           
1040001300061T 0600249600300000286080D00000000000000000001               30042010000000000000000422000973                         090000001360150001104914588000000000097862009177001360150001300000000000000000002220000000000                 
1040001300062U 0600000000000000000000000000104000000000000000000000000000104000000000000520000000000000312000000000000000000000000000000028042010030520101900        000000000000000CIP COMPENSACAO               930                           
1040001300063T 0600249600300000286080D00000000000000000001               30042010000000000000000341008664                         090000001374400001104934588000000000097862009177001374400001300000000000000000002220000000000                 
1040001300064U 0600000000000000000000000000369800000000000000000000000000369800000000001849100000000001109500000000000000000000000000000028042010030520101900        000000000000000CIP COMPENSACAO               930                           
1040001300065T 0600249600300000286080D00000000000000000001               30042010000000000000000341007455                         090000001493960001104914588000000000097862009177001493960001300000000000000000002220000000000                 
1040001300066U 0600000000000000000000000000562900000000000000000000000000562900000000002814300000000001688500000000000000000000000000000028042010030520101900        000000000000000CIP COMPENSACAO               930                           
1040001300067T 0600249600300000286080D00000000000000000001               30042010000000000000000341007455                         090000001556930001104954588000000000097862009177001556930001300000000000000000002220000000000                 
1040001300068U 0600000000000000000000000000322400000000000000000000000000322400000000001611800000000000967000000000000000000000000000000028042010030520101900        000000000000000CIP COMPENSACAO               930                           
1040001300069T 0600249600300000286080D00000000000000000001               28042010000000000016622237038326                         090000001632820001104964586000001662297862008177001632820001110000000000000000002220000000000                 
1040001300070U 0600000000000000000000000000332400000000000000000000000000332400000000001662200000000000997400000000000000000000000000000028042010030520101900        000000000000000CIP COMPENSACAO               811                           
1040001300071T 0600249600300000286080D00000000000000000001               30042010000000000000000341000744                         090000001685700001104934588000000000097862009177001685700001300000000000000000002220000000000                 
1040001300072U 0600000000000000000000000000271400000000000000000000000000271400000000001357100000000000814300000000000000000000000000000028042010030520101900        000000000000000CIP COMPENSACAO               930                           
1040001300073T 0600249600300000286080D00000000000000000001               28042010000000000002957237038326                         090000001808430001104914586000000295797862008177001808430001110000000000000000002220000000000                 
1040001300074U 0600000000000000000000000000059100000000000000000000000000059100000000000295700000000000177500000000000000000000000000000028042010030520101900        000000000000000CIP COMPENSACAO               811                           
1040001300075T 0600249600300000286080D00000000000000000001               30042010000000000000000422000973                         090000001816320001104914588000000000097862009177001816320001300000000000000000002220000000000                 
1040001300076U 0600000000000000000000000000373500000000000000000000000000373500000000001867500000000001120500000000000000000000000000000028042010030520101900        000000000000000CIP COMPENSACAO               930                           
1040001300077T 0600249600300000286080D00000000000000000001               28042010000000000002989237038326                         090000001913670001104924586000000298997862008177001913670001110000000000000000002220000000000                 
1040001300078U 0600000000000000000000000000059800000000000000000000000000059800000000000298900000000000179300000000000000000000000000000028042010030520101900        000000000000000CIP COMPENSACAO               811                           
1040001300079T 0600249600300000286080D00000000000000000001               30042010000000000000000409010693                         090000002190112262104914588000000000097862009177002190112262300000000000000000002220000000000                 
1040001300080U 0600000000000000000000000000095200000000000000000000000000095200000000000476000000000000285600000000000000000000000000000028042010030520101900        000000000000000CIP COMPENSACAO               930                           
1040001300081T 0600249600300000286080D00000000000000000001               30042010000000000000000151003840                         090000002190217723104984588000000000097862009177002190217723300000000000000000002220000000000                 
1040001300082U 0600000000000000000000000000152800000000000000000000000000152800000000000763900000000000458300000000000000000000000000000028042010030520101900        000000000000000CIP COMPENSACAO               930                           
1040001300083T 0600249600300000286080D00000000000000000001               30042010000000000000000341001708                         090000002190223709104934588000000000097862009177002190223709300000000000000000002220000000000                 
1040001300084U 0600000000000000000000000000214500000000000000000000000000214500000000001072400000000000643400000000000000000000000000000028042010030520101900        000000000000000CIP COMPENSACAO               930                           
1040001300085T 0600249600300000286080D00000000000000000001               30042010000000000000000341001708                         090000002190319816104954588000000000097862009177002190319816300000000000000000002220000000000                 
1040001300086U 0600000000000000000000000000054200000000000000000000000000054200000000000270800000000000162400000000000000000000000000000028042010030520101900        000000000000000CIP COMPENSACAO               930                           
1040001300087T 0600249600300000286080D00000000000000000001               30042010000000000000000341001708                         090000002190322465104954588000000000097862009177002190322465300000000000000000002220000000000                 
1040001300088U 0600000000000000000000000000225900000000000000000000000000225900000000001129700000000000677900000000000000000000000000000028042010030520101900        000000000000000CIP COMPENSACAO               930                           
1040001300089T 0600249600300000286080D00000000000000000001               30042010000000000000000033004383                         090000002190517962104984588000000000097862009177002190517962300000000000000000002220000000000                 
1040001300090U 0600000000000000000000000000044900000000000000000000000000044900000000000224500000000000134700000000000000000000000000000028042010030520101900        000000000000000CIP COMPENSACAO               930                           
1040001300091T 0600249600300000286080D00000000000000000001               30042010000000000000000409003549                         090000002190526756104984588000000000097862009177002190526756300000000000000000002220000000000                 
1040001300092U 0600000000000000000000000000187800000000000000000000000000187800000000000938800000000000563200000000000000000000000000000028042010030520101900        000000000000000CIP COMPENSACAO               930                           
1040001300093T 0600249600300000286080D00000000000000000001               07101997000000000009806356001368                         090000002190815484104900000000000980697862009177002190815484300000000000000000002220000000000                 
1040001300094U 0600000000000000000000000000196100000000000000000000000000196100000000000980600000000000588400000000000000000000000000000028042010030520101900        000000000000000CIP COMPENSACAO               930                           
1040001300095T 0600249600300000286080D00000000000000000001               30042010000000000000000341003751                         090000002190816214104934588000000000097862009177002190816214300000000000000000002220000000000                 
1040001300096U 0600000000000000000000000000056700000000000000000000000000056700000000000283400000000000170000000000000000000000000000000028042010030520101900        000000000000000CIP COMPENSACAO               930                           
1040001300097T 0600249600300000286080D00000000000000000001               30042010000000000000000341003751                         090000002190916830104984588000000000097862009177002190916830300000000000000000002220000000000                 
1040001300098U 0600000000000000000000000000046900000000000000000000000000046900000000000234700000000000140900000000000000000000000000000028042010030520101900        000000000000000CIP COMPENSACAO               930                           
1040001300099T 0600249600300000286080D00000000000000000001               30042010000000000000000422000973                         090000002935770001104914588000000000097862009177002935770001300000000000000000002220000000000                 
1040001300100U 0600000000000000000000000000436200000000000000000000000000436200000000002180800000000001308400000000000000000000000000000028042010030520101900        000000000000000CIP COMPENSACAO               930                           
1040001300101T 0600249600300000286080D00000000000000000001               30042010000000000000000341007757                         090000003260190001104974588000000000097862009177003260190001300000000000000000002220000000000                 
1040001300102U 0600000000000000000000000000412300000000000000000000000000412300000000002061300000000001236700000000000000000000000000000028042010030520101900        000000000000000CIP COMPENSACAO               930                           
1040001300103T 0600249600300000286080D00000000000000000001               30042010000000000000000341000680                         090000003308320001104914588000000000097862009177003308320001300000000000000000002220000000000                 
1040001300104U 0600000000000000000000000000106900000000000000000000000000106900000000000534600000000000320800000000000000000000000000000028042010030520101900        000000000000000CIP COMPENSACAO               930                           
1040001300105T 0600249600300000286080D00000000000000000001               28042010000000000010930237038326                         090000003458300001104944586000001093097862008177003458300001110000000000000000002220000000000                 
1040001300106U 0600000000000000000000000000218600000000000000000000000000218600000000001093000000000000655800000000000000000000000000000028042010030520101900        000000000000000CIP COMPENSACAO               811                           
1040001300107T 0600249600300000286080D00000000000000000001               30042010000000000000000341007099                         090000003542540001104914588000000000097862009177003542540001300000000000000000002220000000000                 
1040001300108U 0600000000000000000000000000107100000000000000000000000000107100000000000535300000000000321100000000000000000000000000000028042010030520101900        000000000000000CIP COMPENSACAO               930                           
1040001300109T 0600249600300000286080D00000000000000000001               28042010000000000020210237038326                         090000003596670001104914586000002021097862008177003596670001110000000000000000002220000000000                 
1040001300110U 0600000000000000000000000000404200000000000000000000000000404200000000002021000000000001212600000000000000000000000000000028042010030520101900        000000000000000CIP COMPENSACAO               811                           
1040001300111T 0600249600300000286080D00000000000000000001               30042010000000000000000341001880                         090000003679110001104914588000000000097862009177003679110001300000000000000000002220000000000                 
1040001300112U 0600000000000000000000000000201200000000000000000000000000201200000000001006000000000000603600000000000000000000000000000028042010030520101900        000000000000000CIP COMPENSACAO               930                           
1040001300113T 0600249600300000286080D00000000000000000001               30042010000000000000000399015920                         090000003720690001104994588000000000097862009177003720690001300000000000000000002220000000000                 
1040001300114U 0600000000000000000000000000262600000000000000000000000000262600000000001313000000000000787800000000000000000000000000000028042010030520101900        000000000000000CIP COMPENSACAO               930                           
1040001300115T 0600249600300000286080D00000000000000000001               30042010000000000000000033022071                         090000003750000317104924588000000000097862009177003750000317300000000000000000002220000000000                 
1040001300116U 0600000000000000000000000000265800000000000000000000000000265800000000001329200000000000797600000000000000000000000000000028042010030520101900        000000000000000CIP COMPENSACAO               930                           
1040001300117T 0600249600300000286080D00000000000000000001               28042010000000000017133237038326                         090000003908390001104944586000001713397862008177003908390001110000000000000000002220000000000                 
1040001300118U 0600000000000000000000000000342700000000000000000000000000342700000000001713300000000001027900000000000000000000000000000028042010030520101900        000000000000000CIP COMPENSACAO               811                           
1040001300119T 0600249600300000286080D00000000000000000001               30042010000000000032279341064041                         090000003975360001104924588000003227997862008177003975360001110000000000000000002220000000000                 
1040001300120U 0600000000000000000000000000645600000000000000000000000000645600000000003227900000000001936700000000000000000000000000000028042010030520101900        000000000000000CIP COMPENSACAO               811                           
1040001300121T 0600249600300000286080D00000000000000000001               28042010000000000007353237038326                         090000004134570001104964586000000735397862008177004134570001110000000000000000002220000000000                 
1040001300122U 0600000000000000000000000000147100000000000000000000000000147100000000000735300000000000441100000000000000000000000000000028042010030520101900        000000000000000CIP COMPENSACAO               811                           
1040001300123T 0600249600300000286080D00000000000000000001               30042010000000000000000341001910                         090000004206030001104914588000000000097862009177004206030001300000000000000000002220000000000                 
1040001300124U 0600000000000000000000000000249300000000000000000000000000249300000000001246600000000000748000000000000000000000000000000028042010030520101900        000000000000000CIP COMPENSACAO               930                           
1040001300125T 0600249600300000286080D00000000000000000001               30042010000000000000000237001341                         090000004276030001104914588000000000097862009177004276030001300000000000000000002220000000000                 
1040001300126U 0600000000000000000000000000314500000000000000000000000000314500000000001572600000000000943600000000000000000000000000000028042010030520101900        000000000000000CIP COMPENSACAO               930                           
1040001300127T 0600249600300000286080D00000000000000000001               30042010000000000000000422000973                         090000004381000878104944588000000000097862009177004381000878300000000000000000002220000000000                 
1040001300128U 0600000000000000000000000000027600000000000000000000000000027600000000000138200000000000083000000000000000000000000000000028042010030520101900        000000000000000CIP COMPENSACAO               930                           
1040001300129T 0600249600300000286080D00000000000000000001               30042010000000000000000341001880                         090000004414470001104914588000000000097862009177004414470001300000000000000000002220000000000                 
1040001300130U 0600000000000000000000000000324400000000000000000000000000324400000000001622100000000000973300000000000000000000000000000028042010030520101900        000000000000000CIP COMPENSACAO               930                           
1040001300131T 0600249600300000286080D00000000000000000001               28042010000000000015210237038326                         090000004534400001104924586000001521097862008177004534400001110000000000000000002220000000000                 
1040001300132U 0600000000000000000000000000304200000000000000000000000000304200000000001521000000000000912600000000000000000000000000000028042010030520101900        000000000000000CIP COMPENSACAO               811                           
1040001300133T 0600249600300000286080D00000000000000000001               28042010000000000003326237038326                         090000004623370001104934586000000332697862008177004623370001110000000000000000002220000000000                 
1040001300134U 0600000000000000000000000000066500000000000000000000000000066500000000000332600000000000199600000000000000000000000000000028042010030520101900        000000000000000CIP COMPENSACAO               811                           
1040001300135T 0600249600300000286080D00000000000000000001               30042010000000000000000341007099                         090000004623400001104944588000000000097862009177004623400001300000000000000000002220000000000                 
1040001300136U 0600000000000000000000000000440800000000000000000000000000440800000000002203900000000001322300000000000000000000000000000028042010030520101900        000000000000000CIP COMPENSACAO               930                           
1040001300137T 0600249600300000286080D00000000000000000001               30042010000000000011853341029459                         090000004635750001104994588000001185397862008177004635750001110000000000000000002220000000000                 
1040001300138U 0600000000000000000000000000237100000000000000000000000000237100000000001185300000000000711100000000000000000000000000000028042010030520101900        000000000000000CIP COMPENSACAO               811                           
1040001300139T 0600249600300000286080D00000000000000000001               28042010000000000005053237038326                         090000004745950001104964586000000505397862008177004745950001110000000000000000002220000000000                 
1040001300140U 0600000000000000000000000000101100000000000000000000000000101100000000000505300000000000303100000000000000000000000000000028042010030520101900        000000000000000CIP COMPENSACAO               811                           
1040001300141T 0600249600300000286080D00000000000000000001               30042010000000000000000422000973                         090000004919730001104994588000000000097862009177004919730001300000000000000000002220000000000                 
1040001300142U 0600000000000000000000000000417500000000000000000000000000417500000000002087600000000001252600000000000000000000000000000028042010030520101900        000000000000000CIP COMPENSACAO               930                           
1040001300143T 0600249600300000286080D00000000000000000001               30042010000000000000000341001708                         090000005002592062104914588000000000097862009177005002592062300000000000000000002220000000000                 
1040001300144U 0600000000000000000000000000049000000000000000000000000000049000000000000244900000000000146900000000000000000000000000000028042010030520101900        000000000000000CIP COMPENSACAO               930                           
1040001300145T 0600249600300000286080D00000000000000000001               28042010000000000019714237038326                         090000005010020001104914586000001971497862008177005010020001110000000000000000002220000000000                 
1040001300146U 0600000000000000000000000000394300000000000000000000000000394300000000001971400000000001182800000000000000000000000000000028042010030520101900        000000000000000CIP COMPENSACAO               811                           
1040001300147T 0600249600300000286080D00000000000000000001               30042010000000000000000341000477                         090000005029020001104994588000000000097862009177005029020001300000000000000000002220000000000                 
1040001300148U 0600000000000000000000000000495500000000000000000000000000495500000000002477300000000001486300000000000000000000000000000028042010030520101900        000000000000000CIP COMPENSACAO               930                           
1040001300149T 0600249600300000286080D00000000000000000001               28042010000000000018580237038326                         090000005117280001104954586000001858097862008177005117280001110000000000000000002220000000000                 
1040001300150U 0600000000000000000000000000371600000000000000000000000000371600000000001858000000000001114800000000000000000000000000000028042010030520101900        000000000000000CIP COMPENSACAO               811                           
1040001300151T 0600249600300000286080D00000000000000000001               30042010000000000000000341007455                         090000005262470001104944588000000000097862009177005262470001300000000000000000002220000000000                 
1040001300152U 0600000000000000000000000000916400000000000000000000000000916400000000004581900000000002749100000000000000000000000000000028042010030520101900        000000000000000CIP COMPENSACAO               930                           
1040001300153T 0600249600300000286080D00000000000000000001               28042010000000000022027237038326                         090000005366780001104974586000002202797862008177005366780001110000000000000000002220000000000                 
1040001300154U 0600000000000000000000000000440500000000000000000000000000440500000000002202700000000001321700000000000000000000000000000028042010030520101900        000000000000000CIP COMPENSACAO               811                           
1040001300155T 0600249600300000286080D00000000000000000001               30042010000000000000000341007099                         090000005389800001104914588000000000097862009177005389800001300000000000000000002220000000000                 
1040001300156U 0600000000000000000000000000063600000000000000000000000000063600000000000318000000000000190800000000000000000000000000000028042010030520101900        000000000000000CIP COMPENSACAO               930                           
1040001300157T 0600249600300000286080D00000000000000000001               28042010000000000005745237038326                         090000005395580001104914586000000574597862008177005395580001110000000000000000002220000000000                 
1040001300158U 0600000000000000000000000000114900000000000000000000000000114900000000000574500000000000344700000000000000000000000000000028042010030520101900        000000000000000CIP COMPENSACAO               811                           
1040001300159T 0600249600300000286080D00000000000000000001               30042010000000000000000104031160                         090000005684660001104914588000000000097862009177005684660001300000000000000000002180000000000                 
1040001300160U 0600000000000000000000000000256700000000000000000000000000256700000000001283300000000000769900000000000000000000000000000028042010030520102100        000000000000000AUTOMACAO                     930                           
1040001300161T 0600249600300000286080D00000000000000000001               30042010000000000000000341001880                         090000006364950001104964588000000000097862009177006364950001300000000000000000002220000000000                 
1040001300162U 0600000000000000000000000000068000000000000000000000000000068000000000000340000000000000204000000000000000000000000000000028042010030520101900        000000000000000CIP COMPENSACAO               930                           
1040001300163T 0600249600300000286080D00000000000000000001               28042010000000000010391237038326                         090000006506420001104944586000001039197862008177006506420001110000000000000000002220000000000                 
1040001300164U 0600000000000000000000000000207800000000000000000000000000207800000000001039100000000000623500000000000000000000000000000028042010030520101900        000000000000000CIP COMPENSACAO               811                           
1040001300165T 0600249600300000286080D00000000000000000001               28042010000000000031388237038326                         090000006546800001104914586000003138897862008177006546800001110000000000000000002220000000000                 
1040001300166U 0600000000000000000000000000627800000000000000000000000000627800000000003138800000000001883200000000000000000000000000000028042010030520101900        000000000000000CIP COMPENSACAO               811                           
1040001300167T 0600249600300000286080D00000000000000000001               28042010000000000015300237038326                         090000006643930001104954586000001530097862008177006643930001110000000000000000002220000000000                 
1040001300168U 0600000000000000000000000000306000000000000000000000000000306000000000001530000000000000918000000000000000000000000000000028042010030520101900        000000000000000CIP COMPENSACAO               811                           
1040001300169T 0600249600300000286080D00000000000000000001               28042010000000000003334237038326                         090000006644780001104994586000000333497862008177006644780001110000000000000000002220000000000                 
1040001300170U 0600000000000000000000000000066700000000000000000000000000066700000000000333400000000000200000000000000000000000000000000028042010030520101900        000000000000000CIP COMPENSACAO               811                           
1040001300171T 0600249600300000286080D00000000000000000001               30042010000000000000000341029483                         090000006881120001104954588000000000097862009177006881120001300000000000000000002220000000000                 
1040001300172U 0600000000000000000000000000315600000000000000000000000000315600000000001578100000000000946900000000000000000000000000000028042010030520101900        000000000000000CIP COMPENSACAO               930                           
1040001300173T 0600249600300000286080D00000000000000000001               28042010000000000003119237038326                         090000007273340001104974586000000311997862008177007273340001110000000000000000002220000000000                 
1040001300174U 0600000000000000000000000000062400000000000000000000000000062400000000000311900000000000187100000000000000000000000000000028042010030520101900        000000000000000CIP COMPENSACAO               811                           
1040001300175T 0600249600300000286080D00000000000000000001               30042010000000000000000341016608                         090000007323190001104914588000000000097862009177007323190001300000000000000000002220000000000                 
1040001300176U 0600000000000000000000000000595400000000000000000000000000595400000000002977200000000001786400000000000000000000000000000028042010030520101900        000000000000000CIP COMPENSACAO               930                           
1040001300177T 0600249600300000286080D00000000000000000001               28042010000000000012945237038326                         090000007491180001104984586000001294597862008177007491180001110000000000000000002220000000000                 
1040001300178U 0600000000000000000000000000258900000000000000000000000000258900000000001294500000000000776700000000000000000000000000000028042010030520101900        000000000000000CIP COMPENSACAO               811                           
1040001300179T 0600249600300000286080D00000000000000000001               28042010000000000012848237038326                         090000007581270001104924586000001284897862008177007581270001110000000000000000002220000000000                 
1040001300180U 0600000000000000000000000000257000000000000000000000000000257000000000001284800000000000770800000000000000000000000000000028042010030520101900        000000000000000CIP COMPENSACAO               811                           
1040001300181T 0600249600300000286080D00000000000000000001               28042010000000000012845237038326                         090000007587540001104974586000001284597862008177007587540001110000000000000000002220000000000                 
1040001300182U 0600000000000000000000000000256900000000000000000000000000256900000000001284500000000000770700000000000000000000000000000028042010030520101900        000000000000000CIP COMPENSACAO               811                           
1040001300183T 0600249600300000286080D00000000000000000001               30042010000000000000000341001880                         090000007635420001104914588000000000097862009177007635420001300000000000000000002220000000000                 
1040001300184U 0600000000000000000000000000199100000000000000000000000000199100000000000995600000000000597400000000000000000000000000000028042010030520101900        000000000000000CIP COMPENSACAO               930                           
1040001300185T 0600249600300000286080D00000000000000000001               28042010000000000022648237038326                         090000007674020001104914586000002264897862008177007674020001110000000000000000002220000000000                 
1040001300186U 0600000000000000000000000000453000000000000000000000000000453000000000002264800000000001358800000000000000000000000000000028042010030520101900        000000000000000CIP COMPENSACAO               811                           
1040001300187T 0600249600300000286080D00000000000000000001               30042010000000000000000341000477                         090000007784260001104914588000000000097862009177007784260001300000000000000000002220000000000                 
1040001300188U 0600000000000000000000000000247300000000000000000000000000247300000000001236700000000000742100000000000000000000000000000028042010030520101900        000000000000000CIP COMPENSACAO               930                           
1040001300189T 0600249600300000286080D00000000000000000001               30042010000000000000000341087203                         090000007864480001104924588000000000097862009177007864480001300000000000000000002220000000000                 
1040001300190U 0600000000000000000000000000060700000000000000000000000000060700000000000303700000000000182300000000000000000000000000000028042010030520101900        000000000000000CIP COMPENSACAO               930                           
1040001300191T 0600249600300000286080D00000000000000000001               28042010000000000004262237038326                         090000007869430001104974586000000426297862008177007869430001110000000000000000002220000000000                 
1040001300192U 0600000000000000000000000000085200000000000000000000000000085200000000000426200000000000255800000000000000000000000000000028042010030520101900        000000000000000CIP COMPENSACAO               811                           
1040001300193T 0600249600300000286080D00000000000000000001               28042010000000000016593237038326                         090000007952590001104924586000001659397862008177007952590001110000000000000000002220000000000                 
1040001300194U 0600000000000000000000000000331900000000000000000000000000331900000000001659300000000000995500000000000000000000000000000028042010030520101900        000000000000000CIP COMPENSACAO               811                           
1040001300195T 0600249600300000286080D00000000000000000001               30042010000000000000000341007099                         090000007964980001104984588000000000097862009177007964980001300000000000000000002220000000000                 
1040001300196U 0600000000000000000000000000418000000000000000000000000000418000000000002090200000000001254200000000000000000000000000000028042010030520101900        000000000000000CIP COMPENSACAO               930                           
1040001300197T 0600249600300000286080D00000000000000000001               30042010000000000000000341043001                         090000008027240001104984588000000000097862009177008027240001300000000000000000002220000000000                 
1040001300198U 0600000000000000000000000000792300000000000000000000000000792300000000003961300000000002376700000000000000000000000000000028042010030520101900        000000000000000CIP COMPENSACAO               930                           
1040001300199T 0600249600300000286080D00000000000000000001               28042010000000000005307237038326                         090000008143410001104974586000000530797862008177008143410001110000000000000000002220000000000                 
1040001300200U 0600000000000000000000000000106100000000000000000000000000106100000000000530700000000000318500000000000000000000000000000028042010030520101900        000000000000000CIP COMPENSACAO               811                           
1040001300201T 0600249600300000286080D00000000000000000001               30042010000000000000000341001880                         090000008199880001104934588000000000097862009177008199880001300000000000000000002220000000000                 
1040001300202U 0600000000000000000000000000354500000000000000000000000000354500000000001772500000000001063500000000000000000000000000000028042010030520101900        000000000000000CIP COMPENSACAO               930                           
1040001300203T 0600249600300000286080D00000000000000000001               30042010000000000000000341007099                         090000008209700001104914588000000000097862009177008209700001300000000000000000002220000000000                 
1040001300204U 0600000000000000000000000000111700000000000000000000000000111700000000000558300000000000334900000000000000000000000000000028042010030520101900        000000000000000CIP COMPENSACAO               930                           
1040001300205T 0600249600300000286080D00000000000000000001               30042010000000000000000422000973                         090000008277240001104974588000000000097862009177008277240001300000000000000000002220000000000                 
1040001300206U 0600000000000000000000000000049100000000000000000000000000049100000000000245300000000000147100000000000000000000000000000028042010030520101900        000000000000000CIP COMPENSACAO               930                           
1040001300207T 0600249600300000286080D00000000000000000001               30042010000000000000000422000973                         090000008404580001104914588000000000097862009177008404580001300000000000000000002220000000000                 
1040001300208U 0600000000000000000000000000240100000000000000000000000000240100000000001200300000000000720100000000000000000000000000000028042010030520101900        000000000000000CIP COMPENSACAO               930                           
1040001300209T 0600249600300000286080D00000000000000000001               28042010000000000009425237038326                         090000008494840001104984586000000942597862008177008494840001110000000000000000002220000000000                 
1040001300210U 0600000000000000000000000000188500000000000000000000000000188500000000000942500000000000565500000000000000000000000000000028042010030520101900        000000000000000CIP COMPENSACAO               811                           
1040001300211T 0600249600300000286080D00000000000000000001               28042010000000000014618237038326                         090000008803290001104914586000001461897862008177008803290001110000000000000000002220000000000                 
1040001300212U 0600000000000000000000000000292400000000000000000000000000292400000000001461800000000000877000000000000000000000000000000028042010030520101900        000000000000000CIP COMPENSACAO               811                           
1040001300213T 0600249600300000286080D00000000000000000001               28042010000000000018860237038326                         090000008851330001104984586000001886097862008177008851330001110000000000000000002220000000000                 
1040001300214U 0600000000000000000000000000377200000000000000000000000000377200000000001886000000000001131600000000000000000000000000000028042010030520101900        000000000000000CIP COMPENSACAO               811                           
1040001300215T 0600249600300000286080D00000000000000000001               30042010000000000000000422000973                         090000009043160001104994588000000000097862009177009043160001300000000000000000002220000000000                 
1040001300216U 0600000000000000000000000000317800000000000000000000000000317800000000001588800000000000953200000000000000000000000000000028042010030520101900        000000000000000CIP COMPENSACAO               930                           
1040001300217T 0600249600300000286080D00000000000000000001               30042010000000000000000341007099                         090000009268610001104924588000000000097862009177009268610001300000000000000000002220000000000                 
1040001300218U 0600000000000000000000000000321200000000000000000000000000321200000000001605900000000000963500000000000000000000000000000028042010030520101900        000000000000000CIP COMPENSACAO               930                           
1040001300219T 0600249600300000286080D00000000000000000001               28042010000000000016549237038326                         090000009455650001104994586000001654997862008177009455650001110000000000000000002220000000000                 
1040001300220U 0600000000000000000000000000331000000000000000000000000000331000000000001654900000000000992900000000000000000000000000000028042010030520101900        000000000000000CIP COMPENSACAO               811                           
1040001300221T 0600249600300000286080D00000000000000000001               30042010000000000000000341000477                         090000009461240001104994588000000000097862009177009461240001300000000000000000002220000000000                 
1040001300222U 0600000000000000000000000000232700000000000000000000000000232700000000001163300000000000697900000000000000000000000000000028042010030520101900        000000000000000CIP COMPENSACAO               930                           
1040001300223T 0600249600300000286080D00000000000000000001               28042010000000000015803237038326                         090000009570370001104914586000001580397862008177009570370001110000000000000000002220000000000                 
1040001300224U 0600000000000000000000000000316100000000000000000000000000316100000000001580300000000000948100000000000000000000000000000028042010030520101900        000000000000000CIP COMPENSACAO               811                           
1040001300225T 0600249600300000286080D00000000000000000001               28042010000000000002479237038326                         090000009598400001104934586000000247997862008177009598400001110000000000000000002220000000000                 
1040001300226U 0600000000000000000000000000049600000000000000000000000000049600000000000247900000000000148700000000000000000000000000000028042010030520101900        000000000000000CIP COMPENSACAO               811                           
1040001300227T 0600249600300000286080D00000000000000000001               28042010000000000064149237038326                         090000009647550001104964586000006414997862008177009647550001110000000000000000002220000000000                 
1040001300228U 0600000000000000000000000001283000000000000000000000000001283000000000006414900000000003848900000000000000000000000000000028042010030520101900        000000000000000CIP COMPENSACAO               811                           
1040001300229T 0600249600300000286080D00000000000000000001               30042010000000000000000341029696                         090000009726480001104944588000000000097862009177009726480001300000000000000000002220000000000                 
1040001300230U 0600000000000000000000000000378100000000000000000000000000378100000000001890400000000001134200000000000000000000000000000028042010030520101900        000000000000000CIP COMPENSACAO               930                           
1040001300231T 0600249600300000286080D00000000000000000001               30042010000000000000000341007099                         090000009781200001104914588000000000097862009177009781200001300000000000000000002220000000000                 
1040001300232U 0600000000000000000000000000141000000000000000000000000000141000000000000705000000000000423000000000000000000000000000000028042010030520101900        000000000000000CIP COMPENSACAO               930                           
1040001300233T 0600249600300000286080D00000000000000000001               30042010000000000018471341004405                         090000009864290001104924588000001847197862008177009864290001110000000000000000002220000000000                 
1040001300234U 0600000000000000000000000000369400000000000000000000000000369400000000001847100000000001108300000000000000000000000000000028042010030520101900        000000000000000CIP COMPENSACAO               811                           
1040001300235T 0600249600300000286080D00000000000000000001               30042010000000000000000422000973                         090000010020030001104954588000000000097862009177010020030001300000000000000000002220000000000                 
1040001300236U 0600000000000000000000000000629100000000000000000000000000629100000000003145300000000001887100000000000000000000000000000028042010030520101900        000000000000000CIP COMPENSACAO               930                           
1040001300237T 0600249600300000286080D00000000000000000001               28042010000000000024618237038326                         090000010061770001104944586000002461897862008177010061770001110000000000000000002220000000000                 
1040001300238U 0600000000000000000000000000492400000000000000000000000000492400000000002461800000000001477000000000000000000000000000000028042010030520101900        000000000000000CIP COMPENSACAO               811                           
1040001300239T 0600249600300000286080D00000000000000000001               30042010000000000000000237004200                         090000010083110001104914588000000000097862009177010083110001300000000000000000002220000000000                 
1040001300240U 0600000000000000000000000000182200000000000000000000000000182200000000000910800000000000546400000000000000000000000000000028042010030520101900        000000000000000CIP COMPENSACAO               930                           
1040001300241T 0600249600300000286080D00000000000000000001               30042010000000000000000341007757                         090000010101870001104914588000000000097862009177010101870001300000000000000000002220000000000                 
1040001300242U 0600000000000000000000000000711700000000000000000000000000711700000000003558400000000002135000000000000000000000000000000028042010030520101900        000000000000000CIP COMPENSACAO               930                           
1040001300243T 0600249600300000286080D00000000000000000001               28042010000000000010475237038326                         090000010146350001104984586000001047597862008177010146350001110000000000000000002220000000000                 
1040001300244U 0600000000000000000000000000209500000000000000000000000000209500000000001047500000000000628500000000000000000000000000000028042010030520101900        000000000000000CIP COMPENSACAO               811                           
1040001300245T 0600249600300000286080D00000000000000000001               28042010000000000032463237038326                         090000010298290001104914586000003246397862008177010298290001110000000000000000002220000000000                 
1040001300246U 0600000000000000000000000000649300000000000000000000000000649300000000003246300000000001947700000000000000000000000000000028042010030520101900        000000000000000CIP COMPENSACAO               811                           
1040001300247T 0600249600300000286080D00000000000000000001               30042010000000000000000409003549                         090000010416430001104914588000000000097862009177010416430001300000000000000000002220000000000                 
1040001300248U 0600000000000000000000000000047000000000000000000000000000047000000000000234900000000000140900000000000000000000000000000028042010030520101900        000000000000000CIP COMPENSACAO               930                           
1040001300249T 0600249600300000286080D00000000000000000001               28042010000000000005149237038326                         090000010417690001104924586000000514997862008177010417690001110000000000000000002220000000000                 
1040001300250U 0600000000000000000000000000103000000000000000000000000000103000000000000514900000000000308900000000000000000000000000000028042010030520101900        000000000000000CIP COMPENSACAO               811                           
1040001300251T 0600249600300000286080D00000000000000000001               28042010000000000032399237038326                         090000010498350001104924586000003239997862008177010498350001110000000000000000002220000000000                 
1040001300252U 0600000000000000000000000000648000000000000000000000000000648000000000003239900000000001943900000000000000000000000000000028042010030520101900        000000000000000CIP COMPENSACAO               811                           
1040001300253T 0600249600300000286080D00000000000000000001               28042010000000000030795237038326                         090000010552080001104974586000003079597862008177010552080001110000000000000000002220000000000                 
1040001300254U 0600000000000000000000000000615900000000000000000000000000615900000000003079500000000001847700000000000000000000000000000028042010030520101900        000000000000000CIP COMPENSACAO               811                           
1040001300255T 0600249600300000286080D00000000000000000001               28042010000000000025976237038326                         090000010668920001104944586000002597697862008177010668920001110000000000000000002220000000000                 
1040001300256U 0600000000000000000000000000519500000000000000000000000000519500000000002597600000000001558600000000000000000000000000000028042010030520101900        000000000000000CIP COMPENSACAO               811                           
1040001300257T 0600249600300000286080D00000000000000000001               28042010000000000002515237038326                         090000010903690001104944586000000251597862008177010903690001110000000000000000002220000000000                 
1040001300258U 0600000000000000000000000000050300000000000000000000000000050300000000000251500000000000150900000000000000000000000000000028042010030520101900        000000000000000CIP COMPENSACAO               811                           
1040001300259T 0600249600300000286080D00000000000000000001               30042010000000000000000341000744                         090000010921820001104924588000000000097862009177010921820001300000000000000000002220000000000                 
1040001300260U 0600000000000000000000000000413400000000000000000000000000413400000000002066800000000001240000000000000000000000000000000028042010030520101900        000000000000000CIP COMPENSACAO               930                           
1040001300261T 0600249600300000286080D00000000000000000001               28042010000000000011735237038326                         090000010948010001104944586000001173597862008177010948010001110000000000000000002220000000000                 
1040001300262U 0600000000000000000000000000234700000000000000000000000000234700000000001173500000000000704100000000000000000000000000000028042010030520101900        000000000000000CIP COMPENSACAO               811                           
1040001300263T 0600249600300000286080D00000000000000000001               28042010000000000054575237038326                         090000010957640001104954586000005457597862008177010957640001110000000000000000002220000000000                 
1040001300264U 0600000000000000000000000001091500000000000000000000000001091500000000005457500000000003274500000000000000000000000000000028042010030520101900        000000000000000CIP COMPENSACAO               811                           
1040001300265T 0600249600300000286080D00000000000000000001               30042010000000000000000341001503                         090000011168760001104924588000000000097862009177011168760001300000000000000000002220000000000                 
1040001300266U 0600000000000000000000000000082000000000000000000000000000082000000000000410000000000000246000000000000000000000000000000028042010030520101900        000000000000000CIP COMPENSACAO               930                           
1040001300267T 0600249600300000286080D00000000000000000001               28042010000000000024902237038326                         090000011217990001104914586000002490297862008177011217990001110000000000000000002220000000000                 
1040001300268U 0600000000000000000000000000498000000000000000000000000000498000000000002490200000000001494200000000000000000000000000000028042010030520101900        000000000000000CIP COMPENSACAO               811                           
1040001300269T 0600249600300000286080D00000000000000000001               28042010000000000027984237038326                         090000011384890001104914586000002798497862008177011384890001110000000000000000002220000000000                 
1040001300270U 0600000000000000000000000000559700000000000000000000000000559700000000002798400000000001679000000000000000000000000000000028042010030520101900        000000000000000CIP COMPENSACAO               811                           
1040001300271T 0600249600300000286080D00000000000000000001               28042010000000000003667237038326                         090000011519050001104954586000000366797862008177011519050001110000000000000000002220000000000                 
1040001300272U 0600000000000000000000000000073300000000000000000000000000073300000000000366700000000000220100000000000000000000000000000028042010030520101900        000000000000000CIP COMPENSACAO               811                           
1040001300273T 0600249600300000286080D00000000000000000001               28042010000000000012472237038326                         090000011779900001104924586000001247297862008177011779900001110000000000000000002220000000000                 
1040001300274U 0600000000000000000000000000249400000000000000000000000000249400000000001247200000000000748400000000000000000000000000000028042010030520101900        000000000000000CIP COMPENSACAO               811                           
1040001300275T 0600249600300000286080D00000000000000000001               28042010000000000003032237038326                         090000011859920001104934586000000303297862008177011859920001110000000000000000002220000000000                 
1040001300276U 0600000000000000000000000000060600000000000000000000000000060600000000000303200000000000182000000000000000000000000000000028042010030520101900        000000000000000CIP COMPENSACAO               811                           
1040001300277T 0600249600300000286080D00000000000000000001               28042010000000000002791237038326                         090000011859960001104994586000000279197862008177011859960001110000000000000000002220000000000                 
1040001300278U 0600000000000000000000000000055800000000000000000000000000055800000000000279100000000000167500000000000000000000000000000028042010030520101900        000000000000000CIP COMPENSACAO               811                           
1040001300279T 0600249600300000286080D00000000000000000001               28042010000000000022889237038326                         090000011986350001104934586000002288997862008177011986350001110000000000000000002220000000000                 
1040001300280U 0600000000000000000000000000457800000000000000000000000000457800000000002288900000000001373300000000000000000000000000000028042010030520101900        000000000000000CIP COMPENSACAO               811                           
1040001300281T 0600249600300000286080D00000000000000000001               28042010000000000025057237038326                         090000012072680001104914586000002505797862008177012072680001110000000000000000002220000000000                 
1040001300282U 0600000000000000000000000000501100000000000000000000000000501100000000002505700000000001503500000000000000000000000000000028042010030520101900        000000000000000CIP COMPENSACAO               811                           
1040001300283T 0600249600300000286080D00000000000000000001               28042010000000000021761237038326                         090000012166560001104994586000002176197862008177012166560001110000000000000000002220000000000                 
1040001300284U 0600000000000000000000000000435200000000000000000000000000435200000000002176100000000001305700000000000000000000000000000028042010030520101900        000000000000000CIP COMPENSACAO               811                           
1040001300285T 0600249600300000286080D00000000000000000001               28042010000000000020156237038326                         090000012378480001104914586000002015697862008177012378480001110000000000000000002220000000000                 
1040001300286U 0600000000000000000000000000403100000000000000000000000000403100000000002015600000000001209400000000000000000000000000000028042010030520101900        000000000000000CIP COMPENSACAO               811                           
1040001300287T 0600249600300000286080D00000000000000000001               30042010000000000000000341000744                         090000012379280001104924588000000000097862009177012379280001300000000000000000002220000000000                 
1040001300288U 0600000000000000000000000000272400000000000000000000000000272400000000001361800000000000817000000000000000000000000000000028042010030520101900        000000000000000CIP COMPENSACAO               930                           
1040001300289T 0600249600300000286080D00000000000000000001               30042010000000000004783341007099                         090000012535480001104914588000000478397862005177012535480001510000000000000000002220000000000                 
1040001300290U 0600000000000000000000000000095700000000000000000000000000095700000000000478300000000000286900000000000000000000000000000028042010030520101900        000000000000000CIP COMPENSACAO               551                           
1040001300291T 0600249600300000286080D00000000000000000001               30042010000000000000000341001880                         090000012983910001104924588000000000097862009177012983910001300000000000000000002220000000000                 
1040001300292U 0600000000000000000000000000441200000000000000000000000000441200000000002206200000000001323800000000000000000000000000000028042010030520101900        000000000000000CIP COMPENSACAO               930                           
1040001300293T 0600249600300000286080D00000000000000000001               28042010000000000005173237038326                         090000013045490001104914586000000517397862008177013045490001110000000000000000002220000000000                 
1040001300294U 0600000000000000000000000000103500000000000000000000000000103500000000000517300000000000310300000000000000000000000000000028042010030520101900        000000000000000CIP COMPENSACAO               811                           
1040001300295T 0600249600300000286080D00000000000000000001               28042010000000000002508237038326                         090000013093890001104984586000000250897862008177013093890001110000000000000000002220000000000                 
1040001300296U 0600000000000000000000000000050200000000000000000000000000050200000000000250800000000000150400000000000000000000000000000028042010030520101900        000000000000000CIP COMPENSACAO               811                           
1040001300297T 0600249600300000286080D00000000000000000001               30042010000000000002674237026875                         090000013124540001104944588000000267497862008177013124540001110000000000000000002220000000000                 
1040001300298U 0600000000000000000000000000053500000000000000000000000000053500000000000267400000000000160400000000000000000000000000000028042010030520101900        000000000000000CIP COMPENSACAO               811                           
1040001300299T 0600249600300000286080D00000000000000000001               28042010000000000006336237038326                         090000013128300001104924586000000633697862008177013128300001110000000000000000002220000000000                 
1040001300300U 0600000000000000000000000000126700000000000000000000000000126700000000000633600000000000380200000000000000000000000000000028042010030520101900        000000000000000CIP COMPENSACAO               811                           
1040001300301T 0600249600300000286080D00000000000000000001               30042010000000000000000341001880                         090000013297360001104964588000000000097862009177013297360001300000000000000000002220000000000                 
1040001300302U 0600000000000000000000000000295300000000000000000000000000295300000000001476600000000000886000000000000000000000000000000028042010030520101900        000000000000000CIP COMPENSACAO               930                           
1040001300303T 0600249600300000286080D00000000000000000001               28042010000000000018606237038326                         090000013487830001104944586000001860697862008177013487830001110000000000000000002220000000000                 
1040001300304U 0600000000000000000000000000372100000000000000000000000000372100000000001860600000000001116400000000000000000000000000000028042010030520101900        000000000000000CIP COMPENSACAO               811                           
1040001300305T 0600249600300000286080D00000000000000000001               30042010000000000000000341001880                         090000013521690001104994588000000000097862009177013521690001300000000000000000002220000000000                 
1040001300306U 0600000000000000000000000000296800000000000000000000000000296800000000001484200000000000890600000000000000000000000000000028042010030520101900        000000000000000CIP COMPENSACAO               930                           
1040001300307T 0600249600300000286080D00000000000000000001               28042010000000000015516237038326                         090000013735920001104974586000001551697862008177013735920001110000000000000000002220000000000                 
1040001300308U 0600000000000000000000000000310300000000000000000000000000310300000000001551600000000000931000000000000000000000000000000028042010030520101900        000000000000000CIP COMPENSACAO               811                           
1040001300309T 0600249600300000286080D00000000000000000001               30042010000000000000000341000744                         090000013962070001104954588000000000097862009177013962070001300000000000000000002220000000000                 
1040001300310U 0600000000000000000000000000452700000000000000000000000000452700000000002263400000000001358000000000000000000000000000000028042010030520101900        000000000000000CIP COMPENSACAO               930                           
1040001300311T 0600249600300000286080D00000000000000000001               28042010000000000018210237038326                         090000014162250001104914586000001821097862008177014162250001110000000000000000002220000000000                 
1040001300312U 0600000000000000000000000000364200000000000000000000000000364200000000001821000000000001092600000000000000000000000000000028042010030520101900        000000000000000CIP COMPENSACAO               811                           
1040001300313T 0600249600300000286080D00000000000000000001               28042010000000000020263237038326                         090000014168340001104914586000002026397862008177014168340001110000000000000000002220000000000                 
1040001300314U 0600000000000000000000000000405300000000000000000000000000405300000000002026300000000001215700000000000000000000000000000028042010030520101900        000000000000000CIP COMPENSACAO               811                           
1040001300315T 0600249600300000286080D00000000000000000001               28042010000000000002667237038326                         090000014477970001104914586000000266797862008177014477970001110000000000000000002220000000000                 
1040001300316U 0600000000000000000000000000053300000000000000000000000000053300000000000266700000000000160100000000000000000000000000000028042010030520101900        000000000000000CIP COMPENSACAO               811                           
1040001300317T 0600249600300000286080D00000000000000000001               30042010000000000000000341005932                         090000014752560001104974588000000000097862009177014752560001300000000000000000002220000000000                 
1040001300318U 0600000000000000000000000000139300000000000000000000000000139300000000000696700000000000418100000000000000000000000000000028042010030520101900        000000000000000CIP COMPENSACAO               930                           
1040001300319T 0600249600300000286080D00000000000000000001               28042010000000000023270237038326                         090000014993250001104914586000002327097862008177014993250001110000000000000000002220000000000                 
1040001300320U 0600000000000000000000000000465400000000000000000000000000465400000000002327000000000001396200000000000000000000000000000028042010030520101900        000000000000000CIP COMPENSACAO               811                           
1040001300321T 0600249600300000286080D00000000000000000001               28042010000000000007248237038326                         090000015488620001104974586000000724897862008177015488620001110000000000000000002220000000000                 
1040001300322U 0600000000000000000000000000145000000000000000000000000000145000000000000724800000000000434800000000000000000000000000000028042010030520101900        000000000000000CIP COMPENSACAO               811                           
1040001300323T 0600249600300000286080D00000000000000000001               30042010000000000000000237001341                         090000015592700001104964588000000000097862009177015592700001300000000000000000002220000000000                 
1040001300324U 0600000000000000000000000000465400000000000000000000000000465400000000002327000000000001396200000000000000000000000000000028042010030520101900        000000000000000CIP COMPENSACAO               930                           
1040001300325T 0600249600300000286080D00000000000000000001               28042010000000000014732237038326                         090000015791470001104934586000001473297862008177015791470001110000000000000000002220000000000                 
1040001300326U 0600000000000000000000000000294600000000000000000000000000294600000000001473200000000000884000000000000000000000000000000028042010030520101900        000000000000000CIP COMPENSACAO               811                           
1040001300327T 0600249600300000286080D00000000000000000001               28042010000000000003659237038326                         090000015799810001104914586000000365997862008177015799810001110000000000000000002220000000000                 
1040001300328U 0600000000000000000000000000073200000000000000000000000000073200000000000365900000000000219500000000000000000000000000000028042010030520101900        000000000000000CIP COMPENSACAO               811                           
1040001300329T 0600249600300000286080D00000000000000000001               30042010000000000000000341000485                         090000015810190001104944588000000000097862009177015810190001300000000000000000002220000000000                 
1040001300330U 0600000000000000000000000000354800000000000000000000000000354800000000001773900000000001064300000000000000000000000000000028042010030520101900        000000000000000CIP COMPENSACAO               930                           
1040001300331T 0600249600300000286080D00000000000000000001               30042010000000000000000341001880                         090000015834050001104994588000000000097862009177015834050001300000000000000000002220000000000                 
1040001300332U 0600000000000000000000000000307600000000000000000000000000307600000000001537900000000000922700000000000000000000000000000028042010030520101900        000000000000000CIP COMPENSACAO               930                           
1040001300333T 0600249600300000286080D00000000000000000001               28042010000000000004026237038326                         090000015924340001104914586000000402697862008177015924340001110000000000000000002220000000000                 
1040001300334U 0600000000000000000000000000080500000000000000000000000000080500000000000402600000000000241600000000000000000000000000000028042010030520101900        000000000000000CIP COMPENSACAO               811                           
1040001300335T 0600249600300000286080D00000000000000000001               30042010000000000021775341031283                         090000016122350001104994588000002177597862008177016122350001110000000000000000002220000000000                 
1040001300336U 0600000000000000000000000000435500000000000000000000000000435500000000002177500000000001306500000000000000000000000000000028042010030520101900        000000000000000CIP COMPENSACAO               811                           
1040001300337T 0600249600300000286080D00000000000000000001               28042010000000000020851237038326                         090000016412700001104924586000002085197862008177016412700001110000000000000000002220000000000                 
1040001300338U 0600000000000000000000000000417000000000000000000000000000417000000000002085100000000001251100000000000000000000000000000028042010030520101900        000000000000000CIP COMPENSACAO               811                           
1040001300339T 0600249600300000286080D00000000000000000001               28042010000000000021623237038326                         090000016572260001104994586000002162397862008177016572260001110000000000000000002220000000000                 
1040001300340U 0600000000000000000000000000432500000000000000000000000000432500000000002162300000000001297300000000000000000000000000000028042010030520101900        000000000000000CIP COMPENSACAO               811                           
1040001300341T 0600249600300000286080D00000000000000000001               30042010000000000000000341003506                         090000016803660001104984588000000000097862009177016803660001300000000000000000002220000000000                 
1040001300342U 0600000000000000000000000000493700000000000000000000000000493700000000002468400000000001481000000000000000000000000000000028042010030520101900        000000000000000CIP COMPENSACAO               930                           
1040001300343T 0600249600300000286080D00000000000000000001               28042010000000000014773237038326                         090000016907390001104914586000001477397862008177016907390001110000000000000000002220000000000                 
1040001300344U 0600000000000000000000000000295500000000000000000000000000295500000000001477300000000000886300000000000000000000000000000028042010030520101900        000000000000000CIP COMPENSACAO               811                           
1040001300345T 0600249600300000286080D00000000000000000001               28042010000000000004593237038326                         090000016937860001104924586000000459397862008177016937860001110000000000000000002220000000000                 
1040001300346U 0600000000000000000000000000091900000000000000000000000000091900000000000459300000000000275500000000000000000000000000000028042010030520101900        000000000000000CIP COMPENSACAO               811                           
1040001300347T 0600249600300000286080D00000000000000000001               30042010000000000012260237000841                         090000016990190001104924588000001226097862008177016990190001110000000000000000002220000000000                 
1040001300348U 0600000000000000000000000000245200000000000000000000000000245200000000001226000000000000735600000000000000000000000000000028042010030520101900        000000000000000CIP COMPENSACAO               811                           
1040001300349T 0600249600300000286080D00000000000000000001               28042010000000000053408237038326                         090000017291670001104944586000005340897862008177017291670001110000000000000000002220000000000                 
1040001300350U 0600000000000000000000000001068200000000000000000000000001068200000000005340800000000003204400000000000000000000000000000028042010030520101900        000000000000000CIP COMPENSACAO               811                           
1040001300351T 0600249600300000286080D00000000000000000001               30042010000000000000000341000744                         090000017387240001104914588000000000097862009177017387240001300000000000000000002220000000000                 
1040001300352U 0600000000000000000000000000299100000000000000000000000000299100000000001495700000000000897500000000000000000000000000000028042010030520101900        000000000000000CIP COMPENSACAO               930                           
1040001300353T 0600249600300000286080D00000000000000000001               30042010000000000000000341001880                         090000017414990001104974588000000000097862009177017414990001300000000000000000002220000000000                 
1040001300354U 0600000000000000000000000000298600000000000000000000000000298600000000001493000000000000895800000000000000000000000000000028042010030520101900        000000000000000CIP COMPENSACAO               930                           
1040001300355T 0600249600300000286080D00000000000000000001               28042010000000000024505237038326                         090000017430920001104944586000002450597862008177017430920001110000000000000000002220000000000                 
1040001300356U 0600000000000000000000000000490100000000000000000000000000490100000000002450500000000001470300000000000000000000000000000028042010030520101900        000000000000000CIP COMPENSACAO               811                           
1040001300357T 0600249600300000286080D00000000000000000001               30042010000000000000000422000973                         090000017728190001104914588000000000097862009177017728190001300000000000000000002220000000000                 
1040001300358U 0600000000000000000000000000203900000000000000000000000000203900000000001019300000000000611500000000000000000000000000000028042010030520101900        000000000000000CIP COMPENSACAO               930                           
1040001300359T 0600249600300000286080D00000000000000000001               28042010000000000003341237038326                         090000017847280001104914586000000334197862008177017847280001110000000000000000002220000000000                 
1040001300360U 0600000000000000000000000000066800000000000000000000000000066800000000000334100000000000200500000000000000000000000000000028042010030520101900        000000000000000CIP COMPENSACAO               811                           
1040001300361T 0600249600300000286080D00000000000000000001               28042010000000000016834237038326                         090000017873670001104954586000001683497862008177017873670001110000000000000000002220000000000                 
1040001300362U 0600000000000000000000000000336700000000000000000000000000336700000000001683400000000001010000000000000000000000000000000028042010030520101900        000000000000000CIP COMPENSACAO               811                           
1040001300363T 0600249600300000286080D00000000000000000001               30042010000000000000000341007099                         090000018224720001104944588000000000097862009177018224720001300000000000000000002220000000000                 
1040001300364U 0600000000000000000000000000358500000000000000000000000000358500000000001792700000000001075700000000000000000000000000000028042010030520101900        000000000000000CIP COMPENSACAO               930                           
1040001300365T 0600249600300000286080D00000000000000000001               30042010000000000000000341043001                         090000018525110001104984588000000000097862009177018525110001300000000000000000002220000000000                 
1040001300366U 0600000000000000000000000000120100000000000000000000000000120100000000000600600000000000360400000000000000000000000000000028042010030520101900        000000000000000CIP COMPENSACAO               930                           
1040001300367T 0600249600300000286080D00000000000000000001               30042010000000000000000341000744                         090000018608900001104964588000000000097862009177018608900001300000000000000000002220000000000                 
1040001300368U 0600000000000000000000000000223700000000000000000000000000223700000000001118400000000000671000000000000000000000000000000028042010030520101900        000000000000000CIP COMPENSACAO               930                           
1040001300369T 0600249600300000286080D00000000000000000001               30042010000000000000000341000485                         090000018700530001104984588000000000097862009177018700530001300000000000000000002220000000000                 
1040001300370U 0600000000000000000000000000237800000000000000000000000000237800000000001189200000000000713600000000000000000000000000000028042010030520101900        000000000000000CIP COMPENSACAO               930                           
1040001300371T 0600249600300000286080D00000000000000000001               30042010000000000000000237020176                         090000018747220001104964588000000000097862009177018747220001300000000000000000002220000000000                 
1040001300372U 0600000000000000000000000000726400000000000000000000000000726400000000003631800000000002179000000000000000000000000000000028042010030520101900        000000000000000CIP COMPENSACAO               930                           
1040001300373T 0600249600300000286080D00000000000000000001               30042010000000000000000104012300                         090000018910170001104914588000000000097862009177018910170001300000000000000000002180000000000                 
1040001300374U 0600000000000000000000000000061900000000000000000000000000061900000000000309700000000000185900000000000000000000000000000028042010030520102100        000000000000000AUTOMACAO                     930                           
1040001300375T 0600249600300000286080D00000000000000000001               30042010000000000000000341003492                         090000018910370001104954588000000000097862009177018910370001300000000000000000002220000000000                 
1040001300376U 0600000000000000000000000000422500000000000000000000000000422500000000002112700000000001267700000000000000000000000000000028042010030520101900        000000000000000CIP COMPENSACAO               930                           
1040001300377T 0600249600300000286080D00000000000000000001               30042010000000000000000341007099                         090000018948840001104934588000000000097862009177018948840001300000000000000000002220000000000                 
1040001300378U 0600000000000000000000000000348500000000000000000000000000348500000000001742600000000001045600000000000000000000000000000028042010030520101900        000000000000000CIP COMPENSACAO               930                           
1040001300379T 0600249600300000286080D00000000000000000001               28042010000000000035310237038326                         090000018967550001104994586000003531097862008177018967550001110000000000000000002220000000000                 
1040001300380U 0600000000000000000000000000706200000000000000000000000000706200000000003531000000000002118600000000000000000000000000000028042010030520101900        000000000000000CIP COMPENSACAO               811                           
1040001300381T 0600249600300000286080D00000000000000000001               28042010000000000032293237038326                         090000020090020001104934586000003229397862008177020090020001110000000000000000002220000000000                 
1040001300382U 0600000000000000000000000000645900000000000000000000000000645900000000003229300000000001937500000000000000000000000000000028042010030520101900        000000000000000CIP COMPENSACAO               811                           
1040001300383T 0600249600300000286080D00000000000000000001               30042010000000000000000341007099                         090000020206960001104914588000000000097862009177020206960001300000000000000000002220000000000                 
1040001300384U 0600000000000000000000000000273300000000000000000000000000273300000000001366400000000000819800000000000000000000000000000028042010030520101900        000000000000000CIP COMPENSACAO               930                           
1040001300385T 0600249600300000286080D00000000000000000001               30042010000000000000000341001503                         090000020229060001104944588000000000097862009177020229060001300000000000000000002220000000000                 
1040001300386U 0600000000000000000000000000141100000000000000000000000000141100000000000705300000000000423100000000000000000000000000000028042010030520101900        000000000000000CIP COMPENSACAO               930                           
1040001300387T 0600249600300000286080D00000000000000000001               30042010000000000000000237001341                         090000020292000001104914588000000000097862009177020292000001300000000000000000002220000000000                 
1040001300388U 0600000000000000000000000000580700000000000000000000000000580700000000002903700000000001742300000000000000000000000000000028042010030520101900        000000000000000CIP COMPENSACAO               930                           
1040001300389T 0600249600300000286080D00000000000000000001               28042010000000000006286237038326                         090000020316620001104974586000000628697862008177020316620001110000000000000000002220000000000                 
1040001300390U 0600000000000000000000000000125700000000000000000000000000125700000000000628600000000000377200000000000000000000000000000028042010030520101900        000000000000000CIP COMPENSACAO               811                           
1040001300391T 0600249600300000286080D00000000000000000001               28042010000000000036028237038326                         090000020492060001104954586000003602897862008177020492060001110000000000000000002220000000000                 
1040001300392U 0600000000000000000000000000720600000000000000000000000000720600000000003602800000000002161600000000000000000000000000000028042010030520101900        000000000000000CIP COMPENSACAO               811                           
1040001300393T 0600249600300000286080D00000000000000000001               28042010000000000014327237038326                         090000020575120001104954586000001432797862008177020575120001110000000000000000002220000000000                 
1040001300394U 0600000000000000000000000000286500000000000000000000000000286500000000001432700000000000859700000000000000000000000000000028042010030520101900        000000000000000CIP COMPENSACAO               811                           
1040001300395T 0600249600300000286080D00000000000000000001               30042010000000000000000422000973                         090000020931740001104984588000000000097862009177020931740001300000000000000000002220000000000                 
1040001300396U 0600000000000000000000000000077200000000000000000000000000077200000000000386000000000000231600000000000000000000000000000028042010030520101900        000000000000000CIP COMPENSACAO               930                           
1040001300397T 0600249600300000286080D00000000000000000001               28042010000000000013980237038326                         090000020985520001104914586000001398097862008177020985520001110000000000000000002220000000000                 
1040001300398U 0600000000000000000000000000279600000000000000000000000000279600000000001398000000000000838800000000000000000000000000000028042010030520101900        000000000000000CIP COMPENSACAO               811                           
1040001300399T 0600249600300000286080D00000000000000000001               30042010000000000000000341001880                         090000021235400001104954588000000000097862009177021235400001300000000000000000002220000000000                 
1040001300400U 0600000000000000000000000000080300000000000000000000000000080300000000000401300000000000240700000000000000000000000000000028042010030520101900        000000000000000CIP COMPENSACAO               930                           
1040001300401T 0600249600300000286080D00000000000000000001               28042010000000000002661237038326                         090000021400260001104914586000000266197862008177021400260001110000000000000000002220000000000                 
1040001300402U 0600000000000000000000000000053200000000000000000000000000053200000000000266100000000000159700000000000000000000000000000028042010030520101900        000000000000000CIP COMPENSACAO               811                           
1040001300403T 0600249600300000286080D00000000000000000001               28042010000000000025207237038326                         090000021500360001104934586000002520797862008177021500360001110000000000000000002220000000000                 
1040001300404U 0600000000000000000000000000504100000000000000000000000000504100000000002520700000000001512500000000000000000000000000000028042010030520101900        000000000000000CIP COMPENSACAO               811                           
1040001300405T 0600249600300000286080D00000000000000000001               30042010000000000000000341001880                         090000021592580001104974588000000000097862009177021592580001300000000000000000002220000000000                 
1040001300406U 0600000000000000000000000000226000000000000000000000000000226000000000001129800000000000677800000000000000000000000000000028042010030520101900        000000000000000CIP COMPENSACAO               930                           
1040001300407T 0600249600300000286080D00000000000000000001               30042010000000000000000422000973                         090000021837250001104914588000000000097862009177021837250001300000000000000000002220000000000                 
1040001300408U 0600000000000000000000000000504500000000000000000000000000504500000000002522400000000001513400000000000000000000000000000028042010030520101900        000000000000000CIP COMPENSACAO               930                           
1040001300409T 0600249600300000286080D00000000000000000001               30042010000000000000000341004677                         090000022231010001104934588000000000097862009177022231010001300000000000000000002220000000000                 
1040001300410U 0600000000000000000000000000165300000000000000000000000000165300000000000826600000000000496000000000000000000000000000000028042010030520101900        000000000000000CIP COMPENSACAO               930                           
1040001300411T 0600249600300000286080D00000000000000000001               30042010000000000000000341000744                         090000022281650001104914588000000000097862009177022281650001300000000000000000002220000000000                 
1040001300412U 0600000000000000000000000000060100000000000000000000000000060100000000000300600000000000180400000000000000000000000000000028042010030520101900        000000000000000CIP COMPENSACAO               930                           
